{
  "abi": [
    {
      "inputs": [
        {
          "internalType": "address",
          "name": "factoryAddress",
          "type": "address"
        }
      ],
      "stateMutability": "nonpayable",
      "type": "constructor"
    },
    {
      "inputs": [],
      "name": "NotAuthorized",
      "type": "error"
    },
    {
      "inputs": [],
      "name": "NotEnoughLiquidity",
      "type": "error"
    },
    {
      "inputs": [
        {
          "internalType": "uint256",
          "name": "prod1",
          "type": "uint256"
        },
        {
          "internalType": "uint256",
          "name": "denominator",
          "type": "uint256"
        }
      ],
      "name": "PRBMath__MulDivOverflow",
      "type": "error"
    },
    {
      "inputs": [],
      "name": "PositionNotCleared",
      "type": "error"
    },
    {
      "inputs": [],
      "name": "PositionNotCleared",
      "type": "error"
    },
    {
      "inputs": [
        {
          "internalType": "uint256",
          "name": "amount0",
          "type": "uint256"
        },
        {
          "internalType": "uint256",
          "name": "amount1",
          "type": "uint256"
        }
      ],
      "name": "SlippageCheckFailed",
      "type": "error"
    },
    {
      "inputs": [
        {
          "internalType": "uint256",
          "name": "amount0",
          "type": "uint256"
        },
        {
          "internalType": "uint256",
          "name": "amount1",
          "type": "uint256"
        }
      ],
      "name": "SlippageCheckFailed",
      "type": "error"
    },
    {
      "inputs": [
        {
          "internalType": "uint256",
          "name": "amountOut",
          "type": "uint256"
        }
      ],
      "name": "TooLittleReceived",
      "type": "error"
    },
    {
      "inputs": [],
      "name": "WrongToken",
      "type": "error"
    },
    {
      "inputs": [],
      "name": "WrongToken",
      "type": "error"
    },
    {
      "anonymous": false,
      "inputs": [
        {
          "indexed": true,
          "internalType": "uint256",
          "name": "tokenId",
          "type": "uint256"
        },
        {
          "indexed": false,
          "internalType": "uint128",
          "name": "liquidity",
          "type": "uint128"
        },
        {
          "indexed": false,
          "internalType": "uint256",
          "name": "amount0",
          "type": "uint256"
        },
        {
          "indexed": false,
          "internalType": "uint256",
          "name": "amount1",
          "type": "uint256"
        }
      ],
      "name": "AddLiquidity",
      "type": "event"
    },
    {
      "anonymous": false,
      "inputs": [
        {
          "indexed": true,
          "internalType": "address",
          "name": "owner",
          "type": "address"
        },
        {
          "indexed": true,
          "internalType": "address",
          "name": "spender",
          "type": "address"
        },
        {
          "indexed": true,
          "internalType": "uint256",
          "name": "id",
          "type": "uint256"
        }
      ],
      "name": "Approval",
      "type": "event"
    },
    {
      "anonymous": false,
      "inputs": [
        {
          "indexed": true,
          "internalType": "address",
          "name": "owner",
          "type": "address"
        },
        {
          "indexed": true,
          "internalType": "address",
          "name": "operator",
          "type": "address"
        },
        {
          "indexed": false,
          "internalType": "bool",
          "name": "approved",
          "type": "bool"
        }
      ],
      "name": "ApprovalForAll",
      "type": "event"
    },
    {
      "anonymous": false,
      "inputs": [
        {
          "indexed": true,
          "internalType": "uint256",
          "name": "tokenId",
          "type": "uint256"
        },
        {
          "indexed": false,
          "internalType": "uint128",
          "name": "liquidity",
          "type": "uint128"
        },
        {
          "indexed": false,
          "internalType": "uint256",
          "name": "amount0",
          "type": "uint256"
        },
        {
          "indexed": false,
          "internalType": "uint256",
          "name": "amount1",
          "type": "uint256"
        }
      ],
      "name": "RemoveLiquidity",
      "type": "event"
    },
    {
      "anonymous": false,
      "inputs": [
        {
          "indexed": true,
          "internalType": "address",
          "name": "from",
          "type": "address"
        },
        {
          "indexed": true,
          "internalType": "address",
          "name": "to",
          "type": "address"
        },
        {
          "indexed": true,
          "internalType": "uint256",
          "name": "id",
          "type": "uint256"
        }
      ],
      "name": "Transfer",
      "type": "event"
    },
    {
      "inputs": [
        {
          "internalType": "uint256",
          "name": "tokenId",
          "type": "uint256"
        }
      ],
      "name": "_getFees",
      "outputs": [
        {
          "internalType": "uint256",
          "name": "updatedTokensOwed0",
          "type": "uint256"
        },
        {
          "internalType": "uint256",
          "name": "updatedTokensOwed1",
          "type": "uint256"
        }
      ],
      "stateMutability": "view",
      "type": "function"
    },
    {
      "inputs": [
        {
          "internalType": "uint256",
          "name": "tokenId",
          "type": "uint256"
        },
        {
          "internalType": "uint256",
          "name": "amount0Desired",
          "type": "uint256"
        },
        {
          "internalType": "uint256",
          "name": "amount1Desired",
          "type": "uint256"
        },
        {
          "internalType": "uint256",
          "name": "amount0Min",
          "type": "uint256"
        },
        {
          "internalType": "uint256",
          "name": "amount1Min",
          "type": "uint256"
        }
      ],
      "name": "addLiquidity",
      "outputs": [
        {
          "internalType": "uint128",
          "name": "liquidity",
          "type": "uint128"
        },
        {
          "internalType": "uint256",
          "name": "amount0",
          "type": "uint256"
        },
        {
          "internalType": "uint256",
          "name": "amount1",
          "type": "uint256"
        }
      ],
      "stateMutability": "nonpayable",
      "type": "function"
    },
    {
      "inputs": [
        {
          "internalType": "address",
          "name": "spender",
          "type": "address"
        },
        {
          "internalType": "uint256",
          "name": "id",
          "type": "uint256"
        }
      ],
      "name": "approve",
      "outputs": [],
      "stateMutability": "nonpayable",
      "type": "function"
    },
    {
      "inputs": [
        {
          "internalType": "address",
          "name": "owner",
          "type": "address"
        }
      ],
      "name": "balanceOf",
      "outputs": [
        {
          "internalType": "uint256",
          "name": "",
          "type": "uint256"
        }
      ],
      "stateMutability": "view",
      "type": "function"
    },
    {
      "inputs": [
        {
          "internalType": "uint256",
          "name": "tokenId",
          "type": "uint256"
        }
      ],
      "name": "burn",
      "outputs": [],
      "stateMutability": "nonpayable",
      "type": "function"
    },
    {
      "inputs": [
        {
          "internalType": "uint256",
          "name": "",
          "type": "uint256"
        }
      ],
      "name": "burnedIds",
      "outputs": [
        {
          "internalType": "bool",
          "name": "",
          "type": "bool"
        }
      ],
      "stateMutability": "view",
      "type": "function"
    },
    {
      "inputs": [
        {
          "internalType": "uint256",
          "name": "tokenId",
          "type": "uint256"
        }
      ],
      "name": "collect",
      "outputs": [
        {
          "internalType": "uint128",
          "name": "amount0",
          "type": "uint128"
        },
        {
          "internalType": "uint128",
          "name": "amount1",
          "type": "uint128"
        }
      ],
      "stateMutability": "nonpayable",
      "type": "function"
    },
    {
      "inputs": [],
      "name": "factory",
      "outputs": [
        {
          "internalType": "address",
          "name": "",
          "type": "address"
        }
      ],
      "stateMutability": "view",
      "type": "function"
    },
    {
      "inputs": [
        {
          "internalType": "uint256",
          "name": "",
          "type": "uint256"
        }
      ],
      "name": "getApproved",
      "outputs": [
        {
          "internalType": "address",
          "name": "",
          "type": "address"
        }
      ],
      "stateMutability": "view",
      "type": "function"
    },
    {
      "inputs": [
        {
          "internalType": "address",
          "name": "",
          "type": "address"
        },
        {
          "internalType": "address",
          "name": "",
          "type": "address"
        }
      ],
      "name": "isApprovedForAll",
      "outputs": [
        {
          "internalType": "bool",
          "name": "",
          "type": "bool"
        }
      ],
      "stateMutability": "view",
      "type": "function"
    },
    {
      "inputs": [
        {
          "internalType": "address",
          "name": "recipient",
          "type": "address"
        },
        {
          "internalType": "address",
          "name": "tokenA",
          "type": "address"
        },
        {
          "internalType": "address",
          "name": "tokenB",
          "type": "address"
        },
        {
          "internalType": "uint24",
          "name": "fee",
          "type": "uint24"
        },
        {
          "internalType": "int24",
          "name": "lowerTick",
          "type": "int24"
        },
        {
          "internalType": "int24",
          "name": "upperTick",
          "type": "int24"
        },
        {
          "internalType": "uint256",
          "name": "amount0Desired",
          "type": "uint256"
        },
        {
          "internalType": "uint256",
          "name": "amount1Desired",
          "type": "uint256"
        },
        {
          "internalType": "uint256",
          "name": "amount0Min",
          "type": "uint256"
        },
        {
          "internalType": "uint256",
          "name": "amount1Min",
          "type": "uint256"
        }
      ],
      "name": "mint",
      "outputs": [
        {
          "internalType": "uint256",
          "name": "tokenId",
          "type": "uint256"
        }
      ],
      "stateMutability": "nonpayable",
      "type": "function"
    },
    {
      "inputs": [],
      "name": "name",
      "outputs": [
        {
          "internalType": "string",
          "name": "",
          "type": "string"
        }
      ],
      "stateMutability": "view",
      "type": "function"
    },
    {
      "inputs": [
        {
          "internalType": "uint256",
          "name": "id",
          "type": "uint256"
        }
      ],
      "name": "ownerOf",
      "outputs": [
        {
          "internalType": "address",
          "name": "owner",
          "type": "address"
        }
      ],
      "stateMutability": "view",
      "type": "function"
    },
    {
      "inputs": [
        {
          "internalType": "uint256",
          "name": "",
          "type": "uint256"
        }
      ],
      "name": "positions",
      "outputs": [
        {
          "internalType": "address",
          "name": "pool",
          "type": "address"
        },
        {
          "internalType": "int24",
          "name": "lowerTick",
          "type": "int24"
        },
        {
          "internalType": "int24",
          "name": "upperTick",
          "type": "int24"
        }
      ],
      "stateMutability": "view",
      "type": "function"
    },
    {
      "inputs": [
        {
          "internalType": "uint256",
          "name": "tokenId",
          "type": "uint256"
        },
        {
          "internalType": "uint128",
          "name": "liquidity",
          "type": "uint128"
        }
      ],
      "name": "removeLiquidity",
      "outputs": [
        {
          "internalType": "uint256",
          "name": "amount0",
          "type": "uint256"
        },
        {
          "internalType": "uint256",
          "name": "amount1",
          "type": "uint256"
        }
      ],
      "stateMutability": "nonpayable",
      "type": "function"
    },
    {
      "inputs": [
        {
          "internalType": "address",
          "name": "from",
          "type": "address"
        },
        {
          "internalType": "address",
          "name": "to",
          "type": "address"
        },
        {
          "internalType": "uint256",
          "name": "id",
          "type": "uint256"
        }
      ],
      "name": "safeTransferFrom",
      "outputs": [],
      "stateMutability": "nonpayable",
      "type": "function"
    },
    {
      "inputs": [
        {
          "internalType": "address",
          "name": "from",
          "type": "address"
        },
        {
          "internalType": "address",
          "name": "to",
          "type": "address"
        },
        {
          "internalType": "uint256",
          "name": "id",
          "type": "uint256"
        },
        {
          "internalType": "bytes",
          "name": "data",
          "type": "bytes"
        }
      ],
      "name": "safeTransferFrom",
      "outputs": [],
      "stateMutability": "nonpayable",
      "type": "function"
    },
    {
      "inputs": [
        {
          "internalType": "address",
          "name": "operator",
          "type": "address"
        },
        {
          "internalType": "bool",
          "name": "approved",
          "type": "bool"
        }
      ],
      "name": "setApprovalForAll",
      "outputs": [],
      "stateMutability": "nonpayable",
      "type": "function"
    },
    {
      "inputs": [
        {
          "internalType": "bytes4",
          "name": "interfaceId",
          "type": "bytes4"
        }
      ],
      "name": "supportsInterface",
      "outputs": [
        {
          "internalType": "bool",
          "name": "",
          "type": "bool"
        }
      ],
      "stateMutability": "view",
      "type": "function"
    },
    {
      "inputs": [],
      "name": "symbol",
      "outputs": [
        {
          "internalType": "string",
          "name": "",
          "type": "string"
        }
      ],
      "stateMutability": "view",
      "type": "function"
    },
    {
      "inputs": [
        {
          "internalType": "uint256",
          "name": "tokenId",
          "type": "uint256"
        }
      ],
      "name": "tokenIDtoPosition",
      "outputs": [
        {
          "internalType": "address",
          "name": "",
          "type": "address"
        },
        {
          "internalType": "uint128",
          "name": "",
          "type": "uint128"
        },
        {
          "internalType": "uint128",
          "name": "",
          "type": "uint128"
        },
        {
          "internalType": "uint128",
          "name": "",
          "type": "uint128"
        },
        {
          "internalType": "int24",
          "name": "",
          "type": "int24"
        },
        {
          "internalType": "int24",
          "name": "",
          "type": "int24"
        }
      ],
      "stateMutability": "view",
      "type": "function"
    },
    {
      "inputs": [
        {
          "internalType": "uint256",
          "name": "tokenId",
          "type": "uint256"
        }
      ],
      "name": "tokenURI",
      "outputs": [
        {
          "internalType": "string",
          "name": "",
          "type": "string"
        }
      ],
      "stateMutability": "view",
      "type": "function"
    },
    {
      "inputs": [
        {
          "internalType": "address",
          "name": "_owner",
          "type": "address"
        }
      ],
      "name": "tokensOfOwner",
      "outputs": [
        {
          "internalType": "uint256[]",
          "name": "ownerTokens",
          "type": "uint256[]"
        }
      ],
      "stateMutability": "view",
      "type": "function"
    },
    {
      "inputs": [],
      "name": "totalSupply",
      "outputs": [
        {
          "internalType": "uint256",
          "name": "",
          "type": "uint256"
        }
      ],
      "stateMutability": "view",
      "type": "function"
    },
    {
      "inputs": [
        {
          "internalType": "address",
          "name": "from",
          "type": "address"
        },
        {
          "internalType": "address",
          "name": "to",
          "type": "address"
        },
        {
          "internalType": "uint256",
          "name": "id",
          "type": "uint256"
        }
      ],
      "name": "transferFrom",
      "outputs": [],
      "stateMutability": "nonpayable",
      "type": "function"
    },
    {
      "inputs": [
        {
          "internalType": "uint256",
          "name": "amount0",
          "type": "uint256"
        },
        {
          "internalType": "uint256",
          "name": "amount1",
          "type": "uint256"
        },
        {
          "internalType": "bytes",
          "name": "data",
          "type": "bytes"
        }
      ],
      "name": "uniswapV3MintCallback",
      "outputs": [],
      "stateMutability": "nonpayable",
      "type": "function"
    },
    {
      "inputs": [
        {
          "internalType": "address",
          "name": "",
          "type": "address"
        },
        {
          "internalType": "uint256",
          "name": "",
          "type": "uint256"
        }
      ],
      "name": "userOwnedPositions",
      "outputs": [
        {
          "internalType": "uint256",
          "name": "",
          "type": "uint256"
        }
      ],
      "stateMutability": "view",
      "type": "function"
    },
    {
      "inputs": [
        {
          "internalType": "address",
          "name": "user",
          "type": "address"
        }
      ],
      "name": "userToAllPositionsFees",
      "outputs": [
        {
          "internalType": "uint256[]",
          "name": "",
          "type": "uint256[]"
        },
        {
          "internalType": "uint256[]",
          "name": "",
          "type": "uint256[]"
        },
        {
          "internalType": "uint256[]",
          "name": "",
          "type": "uint256[]"
        }
      ],
      "stateMutability": "view",
      "type": "function"
    },
    {
      "inputs": [
        {
          "internalType": "address",
          "name": "user",
          "type": "address"
        }
      ],
      "name": "userToAllPositionsOne",
      "outputs": [
        {
          "internalType": "uint256[]",
          "name": "",
          "type": "uint256[]"
        },
        {
          "internalType": "address[]",
          "name": "",
          "type": "address[]"
        },
        {
          "internalType": "uint128[]",
          "name": "",
          "type": "uint128[]"
        },
        {
          "internalType": "int24[]",
          "name": "",
          "type": "int24[]"
        },
        {
          "internalType": "int24[]",
          "name": "",
          "type": "int24[]"
        }
      ],
      "stateMutability": "view",
      "type": "function"
    },
    {
      "inputs": [
        {
          "internalType": "address",
          "name": "user",
          "type": "address"
        }
      ],
      "name": "userToAllPositionsTwo",
      "outputs": [
        {
          "internalType": "uint256[]",
          "name": "",
          "type": "uint256[]"
        },
        {
          "internalType": "uint128[]",
          "name": "",
          "type": "uint128[]"
        },
        {
          "internalType": "uint128[]",
          "name": "",
          "type": "uint128[]"
        }
      ],
      "stateMutability": "view",
      "type": "function"
    }
  ],
  "bytecode": "60a06040523480156200001157600080fd5b5060405162004a1e38038062004a1e8339810160408190526200003491620000c3565b6040518060400160405280600d81526020016c4e465420506f736974696f6e7360981b81525060405180604001604052806006815260200165141bdcd3919560d21b81525081600090816200008a91906200019a565b5060016200009982826200019a565b5050506001600160a01b03166080819052600880546001600160a01b031916909117905562000266565b600060208284031215620000d657600080fd5b81516001600160a01b0381168114620000ee57600080fd5b9392505050565b634e487b7160e01b600052604160045260246000fd5b600181811c908216806200012057607f821691505b6020821081036200014157634e487b7160e01b600052602260045260246000fd5b50919050565b601f8211156200019557600081815260208120601f850160051c81016020861015620001705750805b601f850160051c820191505b8181101562000191578281556001016200017c565b5050505b505050565b81516001600160401b03811115620001b657620001b6620000f5565b620001ce81620001c784546200010b565b8462000147565b602080601f831160018114620002065760008415620001ed5750858301515b600019600386901b1c1916600185901b17855562000191565b600085815260208120601f198616915b82811015620002375788860151825594840194600190910190840162000216565b5085821015620002565787850151600019600388901b60f8161c191681555b5050505050600190811b01905550565b60805161479c6200028260003960006104ee015261479c6000f3fe608060405234801561001057600080fd5b50600436106101da5760003560e01c80638462151c11610104578063c45a0155116100a2578063d9bb9d6f11610071578063d9bb9d6f14610569578063e63ad42a1461057c578063e985e9c51461058f578063fc9f76d6146105bd57600080fd5b8063c45a0155146104e9578063c87b56dd14610510578063ce3f865f14610523578063d34879971461055657600080fd5b806399fbab88116100de57806399fbab8814610421578063a22cb4651461048b578063a360501c1461049e578063b88d4fde146104d657600080fd5b80638462151c146103d1578063911757ba146103f157806395d89b411461041957600080fd5b80632765e88f1161017c5780636352211e1161014b5780636352211e1461036657806370a082311461037957806378dafff11461038c57806380b28db0146103ae57600080fd5b80632765e88f146102c057806342842e0e1461031e57806342966c68146103315780635ef8d0ae1461034457600080fd5b8063095ea7b3116101b8578063095ea7b31461025d57806318160ddd146102725780632090d27d1461028957806323b872dd146102ad57600080fd5b806301ffc9a7146101df57806306fdde0314610207578063081812fc1461021c575b600080fd5b6101f26101ed366004613592565b6105d0565b60405190151581526020015b60405180910390f35b61020f610622565b6040516101fe91906135ff565b61024561022a366004613612565b6004602052600090815260409020546001600160a01b031681565b6040516001600160a01b0390911681526020016101fe565b61027061026b366004613640565b6106b0565b005b61027b60065481565b6040519081526020016101fe565b61029c61029736600461366c565b610797565b6040516101fe959493929190613730565b6102706102bb3660046137c1565b610acc565b6102d36102ce366004613612565b610c93565b604080516001600160a01b0390971687526001600160801b0395861660208801529385169386019390935292166060840152600291820b6080840152900b60a082015260c0016101fe565b61027061032c3660046137c1565b610db8565b61027061033f366004613612565b610eb0565b61035761035236600461366c565b6110d8565b6040516101fe93929190613802565b610245610374366004613612565b61120c565b61027b61038736600461366c565b611263565b61039f61039a36600461366c565b6112c6565b6040516101fe93929190613845565b6101f26103bc366004613612565b600b6020526000908152604090205460ff1681565b6103e46103df36600461366c565b611500565b6040516101fe919061387e565b6104046103ff3660046138a6565b611619565b604080519283526020830191909152016101fe565b61020f6118b1565b61046261042f366004613612565b6009602052600090815260409020546001600160a01b03811690600160a01b8104600290810b91600160b81b9004900b83565b604080516001600160a01b039094168452600292830b6020850152910b908201526060016101fe565b6102706104993660046138d6565b6118be565b6104b16104ac366004613909565b61192a565b604080516001600160801b0390941684526020840192909252908201526060016101fe565b6102706104e436600461398c565b611a4f565b6102457f000000000000000000000000000000000000000000000000000000000000000081565b61020f61051e366004613612565b611b37565b610536610531366004613612565b611e0b565b604080516001600160801b039384168152929091166020830152016101fe565b6102706105643660046139fe565b612035565b61027b610577366004613a70565b61212d565b61027b61058a366004613640565b612343565b6101f261059d366004613b1a565b600560209081526000928352604080842090915290825290205460ff1681565b6104046105cb366004613612565b612374565b60006301ffc9a760e01b6001600160e01b03198316148061060157506380ac58cd60e01b6001600160e01b03198316145b8061061c5750635b5e139f60e01b6001600160e01b03198316145b92915050565b6000805461062f90613b48565b80601f016020809104026020016040519081016040528092919081815260200182805461065b90613b48565b80156106a85780601f1061067d576101008083540402835291602001916106a8565b820191906000526020600020905b81548152906001019060200180831161068b57829003601f168201915b505050505081565b6000818152600260205260409020546001600160a01b0316338114806106f957506001600160a01b038116600090815260056020908152604080832033845290915290205460ff165b61073b5760405162461bcd60e51b815260206004820152600e60248201526d1393d517d055551213d49256915160921b60448201526064015b60405180910390fd5b60008281526004602052604080822080546001600160a01b0319166001600160a01b0387811691821790925591518593918516917f8c5be1e5ebec7d5bd14f71427d1e84f3dd0314c0f7b2291e5b200ac8c7c3b92591a4505050565b606080606080606060006107aa87611500565b9050600081516001600160401b038111156107c7576107c7613b7c565b6040519080825280602002602001820160405280156107f0578160200160208202803683370190505b509050600082516001600160401b0381111561080e5761080e613b7c565b604051908082528060200260200182016040528015610837578160200160208202803683370190505b509050600083516001600160401b0381111561085557610855613b7c565b60405190808252806020026020018201604052801561087e578160200160208202803683370190505b509050600084516001600160401b0381111561089c5761089c613b7c565b6040519080825280602002602001820160405280156108c5578160200160208202803683370190505b50905060005b8551811015610ab9576000600960008884815181106108ec576108ec613b92565b6020908102919091018101518252818101929092526040908101600020815160608101835290546001600160a01b038116808352600160a01b8204600290810b95840195909552600160b81b90910490930b91810191909152915061096457604051635079ff7560e11b815260040160405180910390fd5b805160006001600160a01b03821663514ea4bf61098085612470565b6040518263ffffffff1660e01b815260040161099e91815260200190565b60a060405180830381865afa1580156109bb573d6000803e3d6000fd5b505050506040513d601f19601f820116820180604052508101906109df9190613ba8565b50505050905082600001518885815181106109fc576109fc613b92565b60200260200101906001600160a01b031690816001600160a01b03168152505080878581518110610a2f57610a2f613b92565b60200260200101906001600160801b031690816001600160801b0316815250508260200151868581518110610a6657610a66613b92565b602002602001019060020b908160020b815250508260400151858581518110610a9157610a91613b92565b602002602001019060020b908160020b8152505050505080610ab290613c20565b90506108cb565b50939a9299509097509550909350915050565b6000818152600260205260409020546001600160a01b03848116911614610b225760405162461bcd60e51b815260206004820152600a60248201526957524f4e475f46524f4d60b01b6044820152606401610732565b6001600160a01b038216610b6c5760405162461bcd60e51b81526020600482015260116024820152701253959053125117d49150d25412515395607a1b6044820152606401610732565b336001600160a01b0384161480610ba657506001600160a01b038316600090815260056020908152604080832033845290915290205460ff165b80610bc757506000818152600460205260409020546001600160a01b031633145b610c045760405162461bcd60e51b815260206004820152600e60248201526d1393d517d055551213d49256915160921b6044820152606401610732565b6001600160a01b0380841660008181526003602090815260408083208054600019019055938616808352848320805460010190558583526002825284832080546001600160a01b03199081168317909155600490925284832080549092169091559251849392917fddf252ad1be2c89b69c2b068fc378daa952ba7f163c4a11628f55a4df523b3ef91a4505050565b6000818152600960209081526040808320815160608101835290546001600160a01b038116808352600160a01b8204600290810b95840195909552600160b81b90910490930b9181019190915282918291829182918291610d0757604051635079ff7560e11b815260040160405180910390fd5b8051600080806001600160a01b03841663514ea4bf610d2587612470565b6040518263ffffffff1660e01b8152600401610d4391815260200190565b60a060405180830381865afa158015610d60573d6000803e3d6000fd5b505050506040513d601f19601f82011682018060405250810190610d849190613ba8565b94509450505092508460000151838383886020015189604001519a509a509a509a509a509a50505050505091939550919395565b610dc3838383610acc565b6001600160a01b0382163b1580610e6c5750604051630a85bd0160e11b8082523360048301526001600160a01b03858116602484015260448301849052608060648401526000608484015290919084169063150b7a029060a4016020604051808303816000875af1158015610e3c573d6000803e3d6000fd5b505050506040513d601f19601f82011682018060405250810190610e609190613c39565b6001600160e01b031916145b610eab5760405162461bcd60e51b815260206004820152601060248201526f155394d0519157d49150d2541251539560821b6044820152606401610732565b505050565b806000610ebc8261120c565b9050336001600160a01b03821614801590610efb57506001600160a01b038116600090815260056020908152604080832033845290915290205460ff16155b8015610f1e57506000828152600460205260409020546001600160a01b03163314155b15610f3c5760405163ea8e4eb560e01b815260040160405180910390fd5b600083815260096020908152604091829020825160608101845290546001600160a01b038116808352600160a01b8204600290810b94840194909452600160b81b90910490920b92810192909252610fa757604051635079ff7560e11b815260040160405180910390fd5b8051600080806001600160a01b03841663514ea4bf610fc587612470565b6040518263ffffffff1660e01b8152600401610fe391815260200190565b60a060405180830381865afa158015611000573d6000803e3d6000fd5b505050506040513d601f19601f820116820180604052508101906110249190613ba8565b94509450505092506000836001600160801b0316118061104d57506000826001600160801b0316115b8061106157506000816001600160801b0316115b1561107f57604051636c4e633b60e11b815260040160405180910390fd5b600088815260096020908152604080832080546001600160d01b0319169055600b9091529020805460ff191660011790556110b9886124c0565b600680549060006110c983613c56565b91905055505050505050505050565b606080606060006110e885611500565b9050600081516001600160401b0381111561110557611105613b7c565b60405190808252806020026020018201604052801561112e578160200160208202803683370190505b509050600082516001600160401b0381111561114c5761114c613b7c565b604051908082528060200260200182016040528015611175578160200160208202803683370190505b50905060005b83518110156111fe576000806111a986848151811061119c5761119c613b92565b6020026020010151612374565b91509150818584815181106111c0576111c0613b92565b602002602001018181525050808484815181106111df576111df613b92565b6020026020010181815250505050806111f790613c20565b905061117b565b509196909550909350915050565b6000818152600260205260409020546001600160a01b03168061125e5760405162461bcd60e51b815260206004820152600a6024820152691393d517d3525395115160b21b6044820152606401610732565b919050565b60006001600160a01b0382166112aa5760405162461bcd60e51b815260206004820152600c60248201526b5a45524f5f4144445245535360a01b6044820152606401610732565b506001600160a01b031660009081526003602052604090205490565b606080606060006112d685611500565b9050600081516001600160401b038111156112f3576112f3613b7c565b60405190808252806020026020018201604052801561131c578160200160208202803683370190505b509050600082516001600160401b0381111561133a5761133a613b7c565b604051908082528060200260200182016040528015611363578160200160208202803683370190505b50905060005b83518110156111fe5760006009600086848151811061138a5761138a613b92565b6020908102919091018101518252818101929092526040908101600020815160608101835290546001600160a01b038116808352600160a01b8204600290810b95840195909552600160b81b90910490930b91810191909152915061140257604051635079ff7560e11b815260040160405180910390fd5b80516000806001600160a01b03831663514ea4bf61141f86612470565b6040518263ffffffff1660e01b815260040161143d91815260200190565b60a060405180830381865afa15801561145a573d6000803e3d6000fd5b505050506040513d601f19601f8201168201806040525081019061147e9190613ba8565b945094505050508187868151811061149857611498613b92565b60200260200101906001600160801b031690816001600160801b031681525050808686815181106114cb576114cb613b92565b60200260200101906001600160801b031690816001600160801b03168152505050505050806114f990613c20565b9050611369565b6060600061150d83611263565b90508060000361152d575050604080516000815260208101909152919050565b6000816001600160401b0381111561154757611547613b7c565b604051908082528060200260200182016040528015611570578160200160208202803683370190505b506007549091506000805b828210801561158957508281105b15611608576000818152600b602052604090205460ff1615156001146115f657866001600160a01b03166115bc8261120c565b6001600160a01b0316036115f657808483815181106115dd576115dd613b92565b6020908102919091010152816115f281613c20565b9250505b8061160081613c20565b91505061157b565b509195945050505050565b50919050565b6000808360006116288261120c565b9050336001600160a01b0382161480159061166757506001600160a01b038116600090815260056020908152604080832033845290915290205460ff16155b801561168a57506000828152600460205260409020546001600160a01b03163314155b156116a85760405163ea8e4eb560e01b815260040160405180910390fd5b600086815260096020908152604091829020825160608101845290546001600160a01b038116808352600160a01b8204600290810b94840194909452600160b81b90910490920b9281019290925261171357604051635079ff7560e11b815260040160405180910390fd5b805160006001600160a01b03821663514ea4bf61172f85612470565b6040518263ffffffff1660e01b815260040161174d91815260200190565b60a060405180830381865afa15801561176a573d6000803e3d6000fd5b505050506040513d601f19601f8201168201806040525081019061178e9190613ba8565b505050509050806001600160801b0316886001600160801b031611156117c757604051634323a55560e01b815260040160405180910390fd5b6020830151604080850151905163a34123a760e01b8152600292830b6004820152910b60248201526001600160801b03891660448201526001600160a01b0383169063a34123a79060640160408051808303816000875af1158015611830573d6000803e3d6000fd5b505050506040513d601f19601f820116820180604052508101906118549190613c6d565b604080516001600160801b038c16815260208101849052908101829052919850965089907f1832d0be987b5f3cbc73b42f7ee61f47d509f9a14f8d3770969dfdabef841c3e9060600160405180910390a250505050509250929050565b6001805461062f90613b48565b3360008181526005602090815260408083206001600160a01b03871680855290835292819020805460ff191686151590811790915590519081529192917f17307eab39ab6107e8899845ad3d59bd9653f200f220920489ca2b5937696c31910160405180910390a35050565b6000858152600960209081526040808320815160608101835290546001600160a01b038116808352600160a01b8204600290810b95840195909552600160b81b90910490930b91810191909152829182919061199957604051635079ff7560e11b815260040160405180910390fd5b6119ef6040518060e0016040528083600001516001600160a01b03168152602001836020015160020b8152602001836040015160020b81526020018a81526020018981526020018881526020018781525061258d565b604080516001600160801b038516815260208101849052908101829052929650909450925089907f22fb3c4728e7cc5dd64003f4267d8fb1eb2580f5598050868300738a823d70479060600160405180910390a250955095509592505050565b611a5a858585610acc565b6001600160a01b0384163b1580611af15750604051630a85bd0160e11b808252906001600160a01b0386169063150b7a0290611aa29033908a90899089908990600401613c91565b6020604051808303816000875af1158015611ac1573d6000803e3d6000fd5b505050506040513d601f19601f82011682018060405250810190611ae59190613c39565b6001600160e01b031916145b611b305760405162461bcd60e51b815260206004820152601060248201526f155394d0519157d49150d2541251539560821b6044820152606401610732565b5050505050565b60008181526009602090815260409182902082516060818101855291546001600160a01b038116808352600160a01b8204600290810b95840195909552600160b81b90910490930b938101939093529190611ba557604051635079ff7560e11b815260040160405180910390fd5b6000816000015190506000816001600160a01b0316630dfe16816040518163ffffffff1660e01b8152600401602060405180830381865afa158015611bee573d6000803e3d6000fd5b505050506040513d601f19601f82011682018060405250810190611c129190613ce5565b90506000826001600160a01b031663d21220a76040518163ffffffff1660e01b8152600401602060405180830381865afa158015611c54573d6000803e3d6000fd5b505050506040513d601f19601f82011682018060405250810190611c789190613ce5565b90506000826001600160a01b03166395d89b416040518163ffffffff1660e01b8152600401600060405180830381865afa158015611cba573d6000803e3d6000fd5b505050506040513d6000823e601f3d908101601f19168201604052611ce29190810190613d02565b90506000826001600160a01b03166395d89b416040518163ffffffff1660e01b8152600401600060405180830381865afa158015611d24573d6000803e3d6000fd5b505050506040513d6000823e601f3d908101601f19168201604052611d4c9190810190613d02565b9050611dff6040518060c00160405280848152602001838152602001306001600160a01b03168152602001886020015160020b8152602001886040015160020b8152602001876001600160a01b031663ddca3f436040518163ffffffff1660e01b8152600401602060405180830381865afa158015611dcf573d6000803e3d6000fd5b505050506040513d601f19601f82011682018060405250810190611df39190613dae565b62ffffff169052612827565b98975050505050505050565b600080826000611e1a8261120c565b9050336001600160a01b03821614801590611e5957506001600160a01b038116600090815260056020908152604080832033845290915290205460ff16155b8015611e7c57506000828152600460205260409020546001600160a01b03163314155b15611e9a5760405163ea8e4eb560e01b815260040160405180910390fd5b600085815260096020908152604091829020825160608101845290546001600160a01b038116808352600160a01b8204600290810b94840194909452600160b81b90910490920b92810192909252611f0557604051635079ff7560e11b815260040160405180910390fd5b80516000806001600160a01b03831663514ea4bf611f2286612470565b6040518263ffffffff1660e01b8152600401611f4091815260200190565b60a060405180830381865afa158015611f5d573d6000803e3d6000fd5b505050506040513d601f19601f82011682018060405250810190611f819190613ba8565b60208901516040808b015190516309e3d67b60e31b8152336004820152600292830b6024820152910b60448201526001600160801b0380841660648301528216608482015291965094506001600160a01b0387169350634f1eb3d8925060a401905060408051808303816000875af1158015612001573d6000803e3d6000fd5b505050506040513d601f19601f820116820180604052508101906120259190613dcb565b909a909950975050505050505050565b600061204382840184613dfa565b805160408083015190516323b872dd60e01b81526001600160a01b0391821660048201523360248201526044810189905292935016906323b872dd90606401600060405180830381600087803b15801561209c57600080fd5b505af11580156120b0573d6000803e3d6000fd5b505050602082015160408084015190516323b872dd60e01b81526001600160a01b03918216600482015233602482015260448101889052911691506323b872dd90606401600060405180830381600087803b15801561210e57600080fd5b505af1158015612122573d6000803e3d6000fd5b505050505050505050565b60085460405163175c1b2360e31b81526001600160a01b038b811660048301528a8116602483015262ffffff8a166044830152600092839291169063bae0d91890606401602060405180830381865afa15801561218e573d6000803e3d6000fd5b505050506040513d601f19601f820116820180604052508101906121b29190613ce5565b905060008060006122036040518060e00160405280866001600160a01b031681526020018d60020b81526020018c60020b81526020018b81526020018a81526020018981526020018881525061258d565b600780549396509194509250600061221a83613c20565b91905055945061222a8f86612913565b6006805490600061223a83613c20565b9091555050604080516060810182526001600160a01b03808716825260028e810b6020808501918252918f900b84860190815260008b815260098452868120865181549451935162ffffff908116600160b81b0262ffffff60b81b1991909516600160a01b026001600160b81b031990961691909716179390931794909416179055338252600a81528382208054600181018255908352912001879055905186907f22fb3c4728e7cc5dd64003f4267d8fb1eb2580f5598050868300738a823d704790612328908790879087906001600160801b039390931683526020830191909152604082015260600190565b60405180910390a250505050509a9950505050505050505050565b600a602052816000526040600020818154811061235f57600080fd5b90600052602060002001600091509150505481565b6000818152600960209081526040808320815160608101835290546001600160a01b038116808352600160a01b8204600290810b95840195909552600160b81b90910490930b9181019190915282916123e057604051635079ff7560e11b815260040160405180910390fd5b805160208201516040808401519051636a234ae960e01b8152600292830b6004820152910b60248201523060448201526001600160a01b03821690636a234ae9906064016040805180830381865afa158015612440573d6000803e3d6000fd5b505050506040513d601f19601f820116820180604052508101906124649190613c6d565b90969095509350505050565b60208181015160409283015183513060601b6bffffffffffffffffffffffff19168185015260e892831b6034820152911b60378201528251601a818303018152603a909101909252815191012090565b6000818152600260205260409020546001600160a01b0316806125125760405162461bcd60e51b815260206004820152600a6024820152691393d517d3525395115160b21b6044820152606401610732565b6001600160a01b038116600081815260036020908152604080832080546000190190558583526002825280832080546001600160a01b031990811690915560049092528083208054909216909155518492907fddf252ad1be2c89b69c2b068fc378daa952ba7f163c4a11628f55a4df523b3ef908390a45050565b60008060008084600001516001600160a01b0316633850c7bd6040518163ffffffff1660e01b815260040160a060405180830381865afa1580156125d5573d6000803e3d6000fd5b505050506040513d601f19601f820116820180604052508101906125f99190613e7d565b50505050905061262c816126108760200151612a1e565b61261d8860400151612a1e565b88606001518960800151612e40565b935084600001516001600160a01b0316633c8a7d8d30876020015188604001518860405180606001604052808c600001516001600160a01b0316630dfe16816040518163ffffffff1660e01b8152600401602060405180830381865afa15801561269a573d6000803e3d6000fd5b505050506040513d601f19601f820116820180604052508101906126be9190613ce5565b6001600160a01b031681526020018c600001516001600160a01b031663d21220a76040518163ffffffff1660e01b8152600401602060405180830381865afa15801561270e573d6000803e3d6000fd5b505050506040513d601f19601f820116820180604052508101906127329190613ce5565b6001600160a01b0390811682523360209283015260408051845183168185015292840151821683820152929092015190911660608201526080016040516020818303038152906040526040518663ffffffff1660e01b815260040161279b959493929190613ee7565b60408051808303816000875af11580156127b9573d6000803e3d6000fd5b505050506040513d601f19601f820116820180604052508101906127dd9190613c6d565b60a087015191945092508310806127f757508460c0015182105b1561281f57604051630a8f6c8d60e41b81526004810184905260248101839052604401610732565b509193909250565b60606000612842836040015184606001518560800151612f03565b612859846000015185602001518660a00151612f9f565b61286b85606001518660800151612fdb565b60405160200161287d93929190613f45565b604051602081830303815290604052905060006128b1846000015185602001518660a0015187606001518860800151613017565b90506000816128bf84613069565b6040516020016128d092919061409a565b60405160208183030381529060405290506128ea81613069565b6040516020016128fa919061415a565b6040516020818303038152906040529350505050919050565b6001600160a01b03821661295d5760405162461bcd60e51b81526020600482015260116024820152701253959053125117d49150d25412515395607a1b6044820152606401610732565b6000818152600260205260409020546001600160a01b0316156129b35760405162461bcd60e51b815260206004820152600e60248201526d1053149150511657d3525395115160921b6044820152606401610732565b6001600160a01b038216600081815260036020908152604080832080546001019055848352600290915280822080546001600160a01b0319168417905551839291907fddf252ad1be2c89b69c2b068fc378daa952ba7f163c4a11628f55a4df523b3ef908290a45050565b60008060008360020b12612a35578260020b612a42565b8260020b612a429061419f565b9050612a51620d89e7196141bb565b62ffffff16811115612a895760405162461bcd60e51b81526020600482015260016024820152601560fa1b6044820152606401610732565b600081600116600003612aa057600160801b612ab2565b6ffffcb933bd6fad37aa2d162d1a5940015b70ffffffffffffffffffffffffffffffffff1690506002821615612af1576080612aec826ffff97272373d413259a46990580e213a6141dd565b901c90505b6004821615612b1b576080612b16826ffff2e50f5f656932ef12357cf3c7fdcc6141dd565b901c90505b6008821615612b45576080612b40826fffe5caca7e10e4e61c3624eaa0941cd06141dd565b901c90505b6010821615612b6f576080612b6a826fffcb9843d60f6159c9db58835c9266446141dd565b901c90505b6020821615612b99576080612b94826fff973b41fa98c081472e6896dfb254c06141dd565b901c90505b6040821615612bc3576080612bbe826fff2ea16466c96a3843ec78b326b528616141dd565b901c90505b6080821615612bed576080612be8826ffe5dee046a99a2a811c461f1969c30536141dd565b901c90505b610100821615612c18576080612c13826ffcbe86c7900a88aedcffc83b479aa3a46141dd565b901c90505b610200821615612c43576080612c3e826ff987a7253ac413176f2b074cf7815e546141dd565b901c90505b610400821615612c6e576080612c69826ff3392b0822b70005940c7a398e4b70f36141dd565b901c90505b610800821615612c99576080612c94826fe7159475a2c29b7443b29c7fa6e889d96141dd565b901c90505b611000821615612cc4576080612cbf826fd097f3bdfd2022b8845ad8f792aa58256141dd565b901c90505b612000821615612cef576080612cea826fa9f746462d870fdf8a65dc1f90e061e56141dd565b901c90505b614000821615612d1a576080612d15826f70d869a156d2a1b890bb3df62baf32f76141dd565b901c90505b618000821615612d45576080612d40826f31be135f97d08fd981231505542fcfa66141dd565b901c90505b62010000821615612d71576080612d6c826f09aa508b5b7a84e1c677de54f3e99bc96141dd565b901c90505b62020000821615612d9c576080612d97826e5d6af8dedb81196699c329225ee6046141dd565b901c90505b62040000821615612dc6576080612dc1826d2216e584f5fa1ea926041bedfe986141dd565b901c90505b62080000821615612dee576080612de9826b048a170391f7dc42444e8fa26141dd565b901c90505b60008460020b1315612e0957612e068160001961420a565b90505b612e186401000000008261421e565b15612e24576001612e27565b60005b612e389060ff16602083901c614232565b949350505050565b6000836001600160a01b0316856001600160a01b03161115612e60579293925b846001600160a01b0316866001600160a01b031611612e8b57612e848585856131ba565b9050612efa565b836001600160a01b0316866001600160a01b031611612eec576000612eb18786866131ba565b90506000612ec087898661321c565b9050806001600160801b0316826001600160801b031610612ee15780612ee3565b815b92505050612efa565b612ef785858461321c565b90505b95945050505050565b604051606084811b6bffffffffffffffffffffffff1916602083015260e884811b603484015283901b603783015290600090603a0160408051601f19818403018152919052805160209091012090506000612f606101688361421e565b9050612f6b8161324f565b612f748261324f565b604051602001612f85929190614245565b604051602081830303815290604052925050509392505050565b60608383612fb18462ffffff166132e1565b604051602001612fc39392919061434d565b60405160208183030381529060405290509392505050565b6060612fe683613336565b612fef83613336565b6040516020016130009291906144af565b604051602081830303815290604052905092915050565b606085856130298662ffffff166132e1565b61303286613336565b61303b86613336565b60405160200161304f959493929190614611565b604051602081830303815290604052905095945050505050565b6060815160000361308857505060408051602081019091526000815290565b600060405180606001604052806040815260200161472760409139905060006003845160026130b79190614232565b6130c1919061420a565b6130cc9060046141dd565b6001600160401b038111156130e3576130e3613b7c565b6040519080825280601f01601f19166020018201604052801561310d576020820181803683370190505b509050600182016020820185865187015b80821015613179576003820191508151603f8160121c168501518453600184019350603f81600c1c168501518453600184019350603f8160061c168501518453600184019350603f811685015184535060018301925061311e565b505060038651066001811461319557600281146131a857611608565b603d6001830353603d6002830353611608565b603d6001830353509195945050505050565b6000826001600160a01b0316846001600160a01b031611156131da579192915b60006131fd856001600160a01b0316856001600160a01b0316600160601b6133ce565b9050612efa838261320e88886146d0565b6001600160a01b03166133ce565b6000826001600160a01b0316846001600160a01b0316111561323c579192915b612e3882600160601b61320e87876146d0565b6060600061325c836134a1565b60010190506000816001600160401b0381111561327b5761327b613b7c565b6040519080825280601f01601f1916602001820160405280156132a5576020820181803683370190505b5090508181016020015b600019016f181899199a1a9b1b9c1cb0b131b232b360811b600a86061a8153600a85049450846132af57509392505050565b6060816101f40361330d575050604080518082019091526005815264302e30352560d81b602082015290565b81610bb80361125e575050604080518082019091526004815263302e332560e01b602082015290565b606060008260020b126133585760405180602001604052806000815250613373565b604051806040016040528060018152602001602d60f81b8152505b60008360020b126133915761338c8362ffffff1661324f565b6133a7565b6133a761339d846141bb565b62ffffff1661324f565b6040516020016133b89291906146f7565b6040516020818303038152906040529050919050565b6000808060001985870985870292508281108382030391505080600003613408578382816133fe576133fe6141f4565b049250505061349a565b83811061343257604051631dcf306360e21b81526004810182905260248101859052604401610732565b600084868809851960019081018716968790049682860381900495909211909303600082900391909104909201919091029190911760038402600290811880860282030280860282030280860282030280860282030280860282030280860290910302029150505b9392505050565b60008072184f03e93ff9f4daa797ed6e38ed64bf6a1f0160401b83106134e05772184f03e93ff9f4daa797ed6e38ed64bf6a1f0160401b830492506040015b6d04ee2d6d415b85acef8100000000831061350c576d04ee2d6d415b85acef8100000000830492506020015b662386f26fc10000831061352a57662386f26fc10000830492506010015b6305f5e1008310613542576305f5e100830492506008015b612710831061355657612710830492506004015b60648310613568576064830492506002015b600a831061061c5760010192915050565b6001600160e01b03198116811461358f57600080fd5b50565b6000602082840312156135a457600080fd5b813561349a81613579565b60005b838110156135ca5781810151838201526020016135b2565b50506000910152565b600081518084526135eb8160208601602086016135af565b601f01601f19169290920160200192915050565b60208152600061349a60208301846135d3565b60006020828403121561362457600080fd5b5035919050565b6001600160a01b038116811461358f57600080fd5b6000806040838503121561365357600080fd5b823561365e8161362b565b946020939093013593505050565b60006020828403121561367e57600080fd5b813561349a8161362b565b600081518084526020808501945080840160005b838110156136b95781518752958201959082019060010161369d565b509495945050505050565b600081518084526020808501945080840160005b838110156136b95781516001600160801b0316875295820195908201906001016136d8565b600081518084526020808501945080840160005b838110156136b957815160020b87529582019590820190600101613711565b60a08152600061374360a0830188613689565b82810360208481019190915287518083528882019282019060005b818110156137835784516001600160a01b03168352938301939183019160010161375e565b5050848103604086015261379781896136c4565b9250505082810360608401526137ad81866136fd565b90508281036080840152611dff81856136fd565b6000806000606084860312156137d657600080fd5b83356137e18161362b565b925060208401356137f18161362b565b929592945050506040919091013590565b6060815260006138156060830186613689565b82810360208401526138278186613689565b9050828103604084015261383b8185613689565b9695505050505050565b6060815260006138586060830186613689565b828103602084015261386a81866136c4565b9050828103604084015261383b81856136c4565b60208152600061349a6020830184613689565b6001600160801b038116811461358f57600080fd5b600080604083850312156138b957600080fd5b8235915060208301356138cb81613891565b809150509250929050565b600080604083850312156138e957600080fd5b82356138f48161362b565b9150602083013580151581146138cb57600080fd5b600080600080600060a0868803121561392157600080fd5b505083359560208501359550604085013594606081013594506080013592509050565b60008083601f84011261395657600080fd5b5081356001600160401b0381111561396d57600080fd5b60208301915083602082850101111561398557600080fd5b9250929050565b6000806000806000608086880312156139a457600080fd5b85356139af8161362b565b945060208601356139bf8161362b565b93506040860135925060608601356001600160401b038111156139e157600080fd5b6139ed88828901613944565b969995985093965092949392505050565b60008060008060608587031215613a1457600080fd5b843593506020850135925060408501356001600160401b03811115613a3857600080fd5b613a4487828801613944565b95989497509550505050565b62ffffff8116811461358f57600080fd5b8060020b811461358f57600080fd5b6000806000806000806000806000806101408b8d031215613a9057600080fd5b8a35613a9b8161362b565b995060208b0135613aab8161362b565b985060408b0135613abb8161362b565b975060608b0135613acb81613a50565b965060808b0135613adb81613a61565b955060a08b0135613aeb81613a61565b999c989b5096999598949794965050505060c08301359260e08101359261010082013592506101209091013590565b60008060408385031215613b2d57600080fd5b8235613b388161362b565b915060208301356138cb8161362b565b600181811c90821680613b5c57607f821691505b60208210810361161357634e487b7160e01b600052602260045260246000fd5b634e487b7160e01b600052604160045260246000fd5b634e487b7160e01b600052603260045260246000fd5b600080600080600060a08688031215613bc057600080fd5b8551613bcb81613891565b8095505060208601519350604086015192506060860151613beb81613891565b6080870151909250613bfc81613891565b809150509295509295909350565b634e487b7160e01b600052601160045260246000fd5b600060018201613c3257613c32613c0a565b5060010190565b600060208284031215613c4b57600080fd5b815161349a81613579565b600081613c6557613c65613c0a565b506000190190565b60008060408385031215613c8057600080fd5b505080516020909101519092909150565b6001600160a01b038681168252851660208201526040810184905260806060820181905281018290526000828460a0840137600060a0848401015260a0601f19601f85011683010190509695505050505050565b600060208284031215613cf757600080fd5b815161349a8161362b565b600060208284031215613d1457600080fd5b81516001600160401b0380821115613d2b57600080fd5b818401915084601f830112613d3f57600080fd5b815181811115613d5157613d51613b7c565b604051601f8201601f19908116603f01168101908382118183101715613d7957613d79613b7c565b81604052828152876020848701011115613d9257600080fd5b613da38360208301602088016135af565b979650505050505050565b600060208284031215613dc057600080fd5b815161349a81613a50565b60008060408385031215613dde57600080fd5b8251613de981613891565b60208401519092506138cb81613891565b600060608284031215613e0c57600080fd5b604051606081018181106001600160401b0382111715613e2e57613e2e613b7c565b6040528235613e3c8161362b565b81526020830135613e4c8161362b565b60208201526040830135613e5f8161362b565b60408201529392505050565b805161ffff8116811461125e57600080fd5b600080600080600060a08688031215613e9557600080fd5b8551613ea08161362b565b6020870151909550613eb181613a61565b9350613ebf60408701613e6b565b9250613ecd60608701613e6b565b9150613edb60808701613e6b565b90509295509295909350565b60018060a01b03861681528460020b60208201528360020b60408201526001600160801b038316606082015260a060808201526000613da360a08301846135d3565b60008151613f3b8185602086016135af565b9290920192915050565b7f3c73766720786d6c6e733d27687474703a2f2f7777772e77332e6f72672f323081527f30302f737667272076696577426f783d273020302033303020343830273e000060208201527f3c7374796c653e2e746f6b656e73207b20666f6e743a20626f6c642033307078603e8201526d2073616e732d73657269663b207d60901b605e8201527f2e666565207b20666f6e743a206e6f726d616c20323670782073616e732d7365606c820152657269663b207d60d01b608c8201527f2e7469636b207b20666f6e743a206e6f726d616c20313870782073616e732d7360928201526e32b934b31d903e9e17b9ba3cb6329f60891b60b2820152600084516140538160c18501602089016135af565b84519083019061406a8160c18401602089016135af565b61407960c18284010186613f29565b91505061408e81651e17b9bb339f60d11b9052565b60060195945050505050565b7f7b226e616d65223a22556e697377617020563320506f736974696f6e222c000081526e113232b9b1b934b83a34b7b7111d1160891b601e82015282516000906140eb81602d8501602088016135af565b61088b60f21b602d918401918201527f22696d616765223a22646174613a696d6167652f7376672b786d6c3b62617365602f820152620d8d0b60ea1b604f820152835161413f8160528401602088016135af565b61227d60f01b60529290910191820152605401949350505050565b7f646174613a6170706c69636174696f6e2f6a736f6e3b6261736536342c00000081526000825161419281601d8501602087016135af565b91909101601d0192915050565b6000600160ff1b82016141b4576141b4613c0a565b5060000390565b60008160020b627fffff1981036141d4576141d4613c0a565b60000392915050565b808202811582820484141761061c5761061c613c0a565b634e487b7160e01b600052601260045260246000fd5b600082614219576142196141f4565b500490565b60008261422d5761422d6141f4565b500690565b8082018082111561061c5761061c613c0a565b7f3c726563742077696474683d2233303022206865696768743d223438302220668152680d2d8d87a44d0e6d8560bb1b60208201526000835161428f8160298501602088016135af565b6b161a1812961a18129491179f60a11b6029918401918201527f3c7265637420783d2233302220793d223330222077696474683d22323430222060358201527f6865696768743d22343230222072783d223135222072793d223135222066696c6055820152660d87a44d0e6d8560cb1b6075820152835161431781607c8401602088016135af565b7f2c313030252c3530252922207374726f6b653d2223303030222f3e0000000000607c9290910191820152609701949350505050565b7f3c7265637420783d2233302220793d223837222077696474683d22323430222081526c3432b4b3b43a1e911a1911179f60991b60208201527f3c7465787420783d2233392220793d223132302220636c6173733d22746f6b65602d8201526f373991103334b6361e9111b33333111f60811b604d820152600084516143da81605d8501602089016135af565b602f60f81b605d9184019182015284516143fb81605e8401602089016135af565b7f3c2f746578743e3c7265637420783d2233302220793d22313332222077696474605e929091019182015274341e91191a1811103432b4b3b43a1e91199811179f60591b607e8201527f3c7465787420783d2233392220793d22313230222064793d2233362220636c6160938201527439b99e913332b291103334b6361e9111b33333111f60591b60b382015261449560c8820185613f29565b661e17ba32bc3a1f60c91b81526007019695505050505050565b7f3c7265637420783d2233302220793d22333432222077696474683d2232343022815260006d103432b4b3b43a1e91191a11179f60911b8060208401527f3c7465787420783d2233392220793d223336302220636c6173733d227469636b602e8401527f222066696c6c3d2223666666223e4c6f776572207469636b3a20000000000000604e840152845161454b8160688601602089016135af565b8084019050661e17ba32bc3a1f60c91b60688201527f3c7265637420783d2233302220793d22333732222077696474683d2232343022606f82015281608f8201527f3c7465787420783d2233392220793d22333630222064793d2233302220636c61609d8201527f73733d227469636b222066696c6c3d2223666666223e5570706572207469636b60bd8201526101d160f51b60dd8201526145f060df820186613f29565b91505061460681661e17ba32bc3a1f60c91b9052565b600701949350505050565b60008651614623818460208b016135af565b602f60f81b9083019081528651614641816001840160208b016135af565b600160fd1b600192909101918201528551614663816002840160208a016135af565b6d016102637bbb2b9103a34b1b59d160951b6002929091019182015284516146928160108401602089016135af565b6d016102ab83832b9103a32bc3a1d160951b6010929091019182015283516146c181601e8401602088016135af565b01601e01979650505050505050565b6001600160a01b038281168282160390808211156146f0576146f0613c0a565b5092915050565b600083516147098184602088016135af565b83519083019061471d8183602088016135af565b0194935050505056fe4142434445464748494a4b4c4d4e4f505152535455565758595a6162636465666768696a6b6c6d6e6f707172737475767778797a303132333435363738392b2fa2646970667358221220706390edec7d934fd46a21c58e9dd1feebd3421ec19802d180a9a254f2f00a1e64736f6c63430008140033",
  "bytecodeSha1": "1f46200a3f2af44e0f2ecd1f4e5d2a1164f8cdab",
  "compiler": {
    "evm_version": "istanbul",
    "optimizer": {
      "enabled": true,
      "runs": 200
    },
    "version": "0.8.20+commit.a1b79de6"
  },
  "contractName": "NFT",
  "language": "Solidity",
  "natspec": {
    "errors": {
      "PRBMath__MulDivOverflow(uint256,uint256)": [
        {
          "notice": "Emitted when the result overflows uint256."
        }
      ]
    },
    "kind": "dev",
    "methods": {
      "_getFees(uint256)": {
        "notice": "Gets a positions owed fees",
        "params": {
          "tokenId": "The id of the NFT we wish to know the owed fees"
        }
      },
      "addLiquidity(uint256,uint256,uint256,uint256,uint256)": {
        "details": "does not mint a new NFT. It only updates the position info",
        "notice": "adds liquidity to an existing position. An array with the following parameters:             tokenId: the token Id of the position we wish to add liquidity too             amount0Desired: amount of token 0 we want to add             amount1Desired: amount of token 1 we want to add             amount0Min: min amount of token 0 we want to add             amount1Min: min amount of token 1 we want to add"
      },
      "burn(uint256)": {
        "details": "This method will fail if called before the user removes all liquidity from the corresponding positions      and collects the corresponding tokens",
        "notice": "Burns an NFT related to a liquidity position",
        "params": {
          "tokenId": "The id of the NFT we wish to burn"
        }
      },
      "collect(uint256)": {
        "details": "Can only be called after the user has removed some liquidity from the position",
        "notice": "collects the tokens relative to a cleared (or partially cleared) position.",
        "params": {
          "tokenId": ": the token Id of the position we wish to collect"
        }
      },
      "mint(address,address,address,uint24,int24,int24,uint256,uint256,uint256,uint256)": {
        "notice": "Used for setting new positions. Mints an NFT connected to the created position An array with the following parameters:             recipient: the user who is minting the new position             tokenA: first token in the pool where the position is being minted             tokenB: second token in the pool where the position is being minted             fee: fee of the pool where the position is being minted             lowerTick: lower tick of the position being minted             upperTick: upper tick of the position being minted             amount0Desired:amount of first token we want to add to the position as liquidity             amount1Desired:amount of second token we want to add to the position as liquidity             amount0Min: min amount of first token we want to add to the position as liquidity             amount1Min: min amount of second token we want to add to the position as liquidity"
      },
      "removeLiquidity(uint256,uint128)": {
        "details": "does not burn the NFT and does not return the tokens to the user (use collect for that).     It only updates the position info",
        "notice": "removes liquidity from an existing position. An array with the following parameters:             tokenId: the token Id of the position we wish to remove liquidity from             liquidity: the liquidity amount we wish to remove"
      },
      "tokenIDtoPosition(uint256)": {
        "notice": "receives a tokenId and returns all the information regarding that tokens position.",
        "params": {
          "tokenId": ": the token Id"
        }
      },
      "tokenURI(uint256)": {
        "notice": "returns the URI of the image of an NFT token.",
        "params": {
          "tokenId": ": the token Id"
        }
      },
      "tokensOfOwner(address)": {
        "details": "This method MUST NEVER be called by smart contract code. First, it's fairly  expensive (it walks the entire token array looking for tokens belonging to owner),  but it also returns a dynamic array, which is only supported for web3 calls, and  not contract-to-contract calls.",
        "notice": "Returns a list of all Liquidity Token IDs assigned to an address.",
        "params": {
          "_owner": "The owner whose nfts we are interested in."
        }
      },
      "uniswapV3MintCallback(uint256,uint256,bytes)": {
        "notice": "help function to transfer the tokens."
      },
      "userToAllPositionsFees(address)": {
        "notice": "receives an user address and returns all the fees regarding all the token positions he has.",
        "params": {
          "user": ": address of an user"
        }
      },
      "userToAllPositionsOne(address)": {
        "notice": "receives an user address and returns all the information regarding all the token positions he has.",
        "params": {
          "user": ": address of an user"
        }
      },
      "userToAllPositionsTwo(address)": {
        "notice": "receives an user address and returns atokens owed to the user",
        "params": {
          "user": ": address of an user"
        }
      }
    },
    "version": 1
  },
  "opcodes": "PUSH1 0x80 PUSH1 0x40 MSTORE CALLVALUE DUP1 ISZERO PUSH2 0x10 JUMPI PUSH1 0x0 DUP1 REVERT JUMPDEST POP PUSH1 0x4 CALLDATASIZE LT PUSH2 0x1DA JUMPI PUSH1 0x0 CALLDATALOAD PUSH1 0xE0 SHR DUP1 PUSH4 0x8462151C GT PUSH2 0x104 JUMPI DUP1 PUSH4 0xC45A0155 GT PUSH2 0xA2 JUMPI DUP1 PUSH4 0xD9BB9D6F GT PUSH2 0x71 JUMPI DUP1 PUSH4 0xD9BB9D6F EQ PUSH2 0x569 JUMPI DUP1 PUSH4 0xE63AD42A EQ PUSH2 0x57C JUMPI DUP1 PUSH4 0xE985E9C5 EQ PUSH2 0x58F JUMPI DUP1 PUSH4 0xFC9F76D6 EQ PUSH2 0x5BD JUMPI PUSH1 0x0 DUP1 REVERT JUMPDEST DUP1 PUSH4 0xC45A0155 EQ PUSH2 0x4E9 JUMPI DUP1 PUSH4 0xC87B56DD EQ PUSH2 0x510 JUMPI DUP1 PUSH4 0xCE3F865F EQ PUSH2 0x523 JUMPI DUP1 PUSH4 0xD3487997 EQ PUSH2 0x556 JUMPI PUSH1 0x0 DUP1 REVERT JUMPDEST DUP1 PUSH4 0x99FBAB88 GT PUSH2 0xDE JUMPI DUP1 PUSH4 0x99FBAB88 EQ PUSH2 0x421 JUMPI DUP1 PUSH4 0xA22CB465 EQ PUSH2 0x48B JUMPI DUP1 PUSH4 0xA360501C EQ PUSH2 0x49E JUMPI DUP1 PUSH4 0xB88D4FDE EQ PUSH2 0x4D6 JUMPI PUSH1 0x0 DUP1 REVERT JUMPDEST DUP1 PUSH4 0x8462151C EQ PUSH2 0x3D1 JUMPI DUP1 PUSH4 0x911757BA EQ PUSH2 0x3F1 JUMPI DUP1 PUSH4 0x95D89B41 EQ PUSH2 0x419 JUMPI PUSH1 0x0 DUP1 REVERT JUMPDEST DUP1 PUSH4 0x2765E88F GT PUSH2 0x17C JUMPI DUP1 PUSH4 0x6352211E GT PUSH2 0x14B JUMPI DUP1 PUSH4 0x6352211E EQ PUSH2 0x366 JUMPI DUP1 PUSH4 0x70A08231 EQ PUSH2 0x379 JUMPI DUP1 PUSH4 0x78DAFFF1 EQ PUSH2 0x38C JUMPI DUP1 PUSH4 0x80B28DB0 EQ PUSH2 0x3AE JUMPI PUSH1 0x0 DUP1 REVERT JUMPDEST DUP1 PUSH4 0x2765E88F EQ PUSH2 0x2C0 JUMPI DUP1 PUSH4 0x42842E0E EQ PUSH2 0x31E JUMPI DUP1 PUSH4 0x42966C68 EQ PUSH2 0x331 JUMPI DUP1 PUSH4 0x5EF8D0AE EQ PUSH2 0x344 JUMPI PUSH1 0x0 DUP1 REVERT JUMPDEST DUP1 PUSH4 0x95EA7B3 GT PUSH2 0x1B8 JUMPI DUP1 PUSH4 0x95EA7B3 EQ PUSH2 0x25D JUMPI DUP1 PUSH4 0x18160DDD EQ PUSH2 0x272 JUMPI DUP1 PUSH4 0x2090D27D EQ PUSH2 0x289 JUMPI DUP1 PUSH4 0x23B872DD EQ PUSH2 0x2AD JUMPI PUSH1 0x0 DUP1 REVERT JUMPDEST DUP1 PUSH4 0x1FFC9A7 EQ PUSH2 0x1DF JUMPI DUP1 PUSH4 0x6FDDE03 EQ PUSH2 0x207 JUMPI DUP1 PUSH4 0x81812FC EQ PUSH2 0x21C JUMPI JUMPDEST PUSH1 0x0 DUP1 REVERT JUMPDEST PUSH2 0x1F2 PUSH2 0x1ED CALLDATASIZE PUSH1 0x4 PUSH2 0x3592 JUMP JUMPDEST PUSH2 0x5D0 JUMP JUMPDEST PUSH1 0x40 MLOAD SWAP1 ISZERO ISZERO DUP2 MSTORE PUSH1 0x20 ADD JUMPDEST PUSH1 0x40 MLOAD DUP1 SWAP2 SUB SWAP1 RETURN JUMPDEST PUSH2 0x20F PUSH2 0x622 JUMP JUMPDEST PUSH1 0x40 MLOAD PUSH2 0x1FE SWAP2 SWAP1 PUSH2 0x35FF JUMP JUMPDEST PUSH2 0x245 PUSH2 0x22A CALLDATASIZE PUSH1 0x4 PUSH2 0x3612 JUMP JUMPDEST PUSH1 0x4 PUSH1 0x20 MSTORE PUSH1 0x0 SWAP1 DUP2 MSTORE PUSH1 0x40 SWAP1 KECCAK256 SLOAD PUSH1 0x1 PUSH1 0x1 PUSH1 0xA0 SHL SUB AND DUP2 JUMP JUMPDEST PUSH1 0x40 MLOAD PUSH1 0x1 PUSH1 0x1 PUSH1 0xA0 SHL SUB SWAP1 SWAP2 AND DUP2 MSTORE PUSH1 0x20 ADD PUSH2 0x1FE JUMP JUMPDEST PUSH2 0x270 PUSH2 0x26B CALLDATASIZE PUSH1 0x4 PUSH2 0x3640 JUMP JUMPDEST PUSH2 0x6B0 JUMP JUMPDEST STOP JUMPDEST PUSH2 0x27B PUSH1 0x6 SLOAD DUP2 JUMP JUMPDEST PUSH1 0x40 MLOAD SWAP1 DUP2 MSTORE PUSH1 0x20 ADD PUSH2 0x1FE JUMP JUMPDEST PUSH2 0x29C PUSH2 0x297 CALLDATASIZE PUSH1 0x4 PUSH2 0x366C JUMP JUMPDEST PUSH2 0x797 JUMP JUMPDEST PUSH1 0x40 MLOAD PUSH2 0x1FE SWAP6 SWAP5 SWAP4 SWAP3 SWAP2 SWAP1 PUSH2 0x3730 JUMP JUMPDEST PUSH2 0x270 PUSH2 0x2BB CALLDATASIZE PUSH1 0x4 PUSH2 0x37C1 JUMP JUMPDEST PUSH2 0xACC JUMP JUMPDEST PUSH2 0x2D3 PUSH2 0x2CE CALLDATASIZE PUSH1 0x4 PUSH2 0x3612 JUMP JUMPDEST PUSH2 0xC93 JUMP JUMPDEST PUSH1 0x40 DUP1 MLOAD PUSH1 0x1 PUSH1 0x1 PUSH1 0xA0 SHL SUB SWAP1 SWAP8 AND DUP8 MSTORE PUSH1 0x1 PUSH1 0x1 PUSH1 0x80 SHL SUB SWAP6 DUP7 AND PUSH1 0x20 DUP9 ADD MSTORE SWAP4 DUP6 AND SWAP4 DUP7 ADD SWAP4 SWAP1 SWAP4 MSTORE SWAP3 AND PUSH1 0x60 DUP5 ADD MSTORE PUSH1 0x2 SWAP2 DUP3 SIGNEXTEND PUSH1 0x80 DUP5 ADD MSTORE SWAP1 SIGNEXTEND PUSH1 0xA0 DUP3 ADD MSTORE PUSH1 0xC0 ADD PUSH2 0x1FE JUMP JUMPDEST PUSH2 0x270 PUSH2 0x32C CALLDATASIZE PUSH1 0x4 PUSH2 0x37C1 JUMP JUMPDEST PUSH2 0xDB8 JUMP JUMPDEST PUSH2 0x270 PUSH2 0x33F CALLDATASIZE PUSH1 0x4 PUSH2 0x3612 JUMP JUMPDEST PUSH2 0xEB0 JUMP JUMPDEST PUSH2 0x357 PUSH2 0x352 CALLDATASIZE PUSH1 0x4 PUSH2 0x366C JUMP JUMPDEST PUSH2 0x10D8 JUMP JUMPDEST PUSH1 0x40 MLOAD PUSH2 0x1FE SWAP4 SWAP3 SWAP2 SWAP1 PUSH2 0x3802 JUMP JUMPDEST PUSH2 0x245 PUSH2 0x374 CALLDATASIZE PUSH1 0x4 PUSH2 0x3612 JUMP JUMPDEST PUSH2 0x120C JUMP JUMPDEST PUSH2 0x27B PUSH2 0x387 CALLDATASIZE PUSH1 0x4 PUSH2 0x366C JUMP JUMPDEST PUSH2 0x1263 JUMP JUMPDEST PUSH2 0x39F PUSH2 0x39A CALLDATASIZE PUSH1 0x4 PUSH2 0x366C JUMP JUMPDEST PUSH2 0x12C6 JUMP JUMPDEST PUSH1 0x40 MLOAD PUSH2 0x1FE SWAP4 SWAP3 SWAP2 SWAP1 PUSH2 0x3845 JUMP JUMPDEST PUSH2 0x1F2 PUSH2 0x3BC CALLDATASIZE PUSH1 0x4 PUSH2 0x3612 JUMP JUMPDEST PUSH1 0xB PUSH1 0x20 MSTORE PUSH1 0x0 SWAP1 DUP2 MSTORE PUSH1 0x40 SWAP1 KECCAK256 SLOAD PUSH1 0xFF AND DUP2 JUMP JUMPDEST PUSH2 0x3E4 PUSH2 0x3DF CALLDATASIZE PUSH1 0x4 PUSH2 0x366C JUMP JUMPDEST PUSH2 0x1500 JUMP JUMPDEST PUSH1 0x40 MLOAD PUSH2 0x1FE SWAP2 SWAP1 PUSH2 0x387E JUMP JUMPDEST PUSH2 0x404 PUSH2 0x3FF CALLDATASIZE PUSH1 0x4 PUSH2 0x38A6 JUMP JUMPDEST PUSH2 0x1619 JUMP JUMPDEST PUSH1 0x40 DUP1 MLOAD SWAP3 DUP4 MSTORE PUSH1 0x20 DUP4 ADD SWAP2 SWAP1 SWAP2 MSTORE ADD PUSH2 0x1FE JUMP JUMPDEST PUSH2 0x20F PUSH2 0x18B1 JUMP JUMPDEST PUSH2 0x462 PUSH2 0x42F CALLDATASIZE PUSH1 0x4 PUSH2 0x3612 JUMP JUMPDEST PUSH1 0x9 PUSH1 0x20 MSTORE PUSH1 0x0 SWAP1 DUP2 MSTORE PUSH1 0x40 SWAP1 KECCAK256 SLOAD PUSH1 0x1 PUSH1 0x1 PUSH1 0xA0 SHL SUB DUP2 AND SWAP1 PUSH1 0x1 PUSH1 0xA0 SHL DUP2 DIV PUSH1 0x2 SWAP1 DUP2 SIGNEXTEND SWAP2 PUSH1 0x1 PUSH1 0xB8 SHL SWAP1 DIV SWAP1 SIGNEXTEND DUP4 JUMP JUMPDEST PUSH1 0x40 DUP1 MLOAD PUSH1 0x1 PUSH1 0x1 PUSH1 0xA0 SHL SUB SWAP1 SWAP5 AND DUP5 MSTORE PUSH1 0x2 SWAP3 DUP4 SIGNEXTEND PUSH1 0x20 DUP6 ADD MSTORE SWAP2 SIGNEXTEND SWAP1 DUP3 ADD MSTORE PUSH1 0x60 ADD PUSH2 0x1FE JUMP JUMPDEST PUSH2 0x270 PUSH2 0x499 CALLDATASIZE PUSH1 0x4 PUSH2 0x38D6 JUMP JUMPDEST PUSH2 0x18BE JUMP JUMPDEST PUSH2 0x4B1 PUSH2 0x4AC CALLDATASIZE PUSH1 0x4 PUSH2 0x3909 JUMP JUMPDEST PUSH2 0x192A JUMP JUMPDEST PUSH1 0x40 DUP1 MLOAD PUSH1 0x1 PUSH1 0x1 PUSH1 0x80 SHL SUB SWAP1 SWAP5 AND DUP5 MSTORE PUSH1 0x20 DUP5 ADD SWAP3 SWAP1 SWAP3 MSTORE SWAP1 DUP3 ADD MSTORE PUSH1 0x60 ADD PUSH2 0x1FE JUMP JUMPDEST PUSH2 0x270 PUSH2 0x4E4 CALLDATASIZE PUSH1 0x4 PUSH2 0x398C JUMP JUMPDEST PUSH2 0x1A4F JUMP JUMPDEST PUSH2 0x245 PUSH32 0x0 DUP2 JUMP JUMPDEST PUSH2 0x20F PUSH2 0x51E CALLDATASIZE PUSH1 0x4 PUSH2 0x3612 JUMP JUMPDEST PUSH2 0x1B37 JUMP JUMPDEST PUSH2 0x536 PUSH2 0x531 CALLDATASIZE PUSH1 0x4 PUSH2 0x3612 JUMP JUMPDEST PUSH2 0x1E0B JUMP JUMPDEST PUSH1 0x40 DUP1 MLOAD PUSH1 0x1 PUSH1 0x1 PUSH1 0x80 SHL SUB SWAP4 DUP5 AND DUP2 MSTORE SWAP3 SWAP1 SWAP2 AND PUSH1 0x20 DUP4 ADD MSTORE ADD PUSH2 0x1FE JUMP JUMPDEST PUSH2 0x270 PUSH2 0x564 CALLDATASIZE PUSH1 0x4 PUSH2 0x39FE JUMP JUMPDEST PUSH2 0x2035 JUMP JUMPDEST PUSH2 0x27B PUSH2 0x577 CALLDATASIZE PUSH1 0x4 PUSH2 0x3A70 JUMP JUMPDEST PUSH2 0x212D JUMP JUMPDEST PUSH2 0x27B PUSH2 0x58A CALLDATASIZE PUSH1 0x4 PUSH2 0x3640 JUMP JUMPDEST PUSH2 0x2343 JUMP JUMPDEST PUSH2 0x1F2 PUSH2 0x59D CALLDATASIZE PUSH1 0x4 PUSH2 0x3B1A JUMP JUMPDEST PUSH1 0x5 PUSH1 0x20 SWAP1 DUP2 MSTORE PUSH1 0x0 SWAP3 DUP4 MSTORE PUSH1 0x40 DUP1 DUP5 KECCAK256 SWAP1 SWAP2 MSTORE SWAP1 DUP3 MSTORE SWAP1 KECCAK256 SLOAD PUSH1 0xFF AND DUP2 JUMP JUMPDEST PUSH2 0x404 PUSH2 0x5CB CALLDATASIZE PUSH1 0x4 PUSH2 0x3612 JUMP JUMPDEST PUSH2 0x2374 JUMP JUMPDEST PUSH1 0x0 PUSH4 0x1FFC9A7 PUSH1 0xE0 SHL PUSH1 0x1 PUSH1 0x1 PUSH1 0xE0 SHL SUB NOT DUP4 AND EQ DUP1 PUSH2 0x601 JUMPI POP PUSH4 0x80AC58CD PUSH1 0xE0 SHL PUSH1 0x1 PUSH1 0x1 PUSH1 0xE0 SHL SUB NOT DUP4 AND EQ JUMPDEST DUP1 PUSH2 0x61C JUMPI POP PUSH4 0x5B5E139F PUSH1 0xE0 SHL PUSH1 0x1 PUSH1 0x1 PUSH1 0xE0 SHL SUB NOT DUP4 AND EQ JUMPDEST SWAP3 SWAP2 POP POP JUMP JUMPDEST PUSH1 0x0 DUP1 SLOAD PUSH2 0x62F SWAP1 PUSH2 0x3B48 JUMP JUMPDEST DUP1 PUSH1 0x1F ADD PUSH1 0x20 DUP1 SWAP2 DIV MUL PUSH1 0x20 ADD PUSH1 0x40 MLOAD SWAP1 DUP2 ADD PUSH1 0x40 MSTORE DUP1 SWAP3 SWAP2 SWAP1 DUP2 DUP2 MSTORE PUSH1 0x20 ADD DUP3 DUP1 SLOAD PUSH2 0x65B SWAP1 PUSH2 0x3B48 JUMP JUMPDEST DUP1 ISZERO PUSH2 0x6A8 JUMPI DUP1 PUSH1 0x1F LT PUSH2 0x67D JUMPI PUSH2 0x100 DUP1 DUP4 SLOAD DIV MUL DUP4 MSTORE SWAP2 PUSH1 0x20 ADD SWAP2 PUSH2 0x6A8 JUMP JUMPDEST DUP3 ADD SWAP2 SWAP1 PUSH1 0x0 MSTORE PUSH1 0x20 PUSH1 0x0 KECCAK256 SWAP1 JUMPDEST DUP2 SLOAD DUP2 MSTORE SWAP1 PUSH1 0x1 ADD SWAP1 PUSH1 0x20 ADD DUP1 DUP4 GT PUSH2 0x68B JUMPI DUP3 SWAP1 SUB PUSH1 0x1F AND DUP3 ADD SWAP2 JUMPDEST POP POP POP POP POP DUP2 JUMP JUMPDEST PUSH1 0x0 DUP2 DUP2 MSTORE PUSH1 0x2 PUSH1 0x20 MSTORE PUSH1 0x40 SWAP1 KECCAK256 SLOAD PUSH1 0x1 PUSH1 0x1 PUSH1 0xA0 SHL SUB AND CALLER DUP2 EQ DUP1 PUSH2 0x6F9 JUMPI POP PUSH1 0x1 PUSH1 0x1 PUSH1 0xA0 SHL SUB DUP2 AND PUSH1 0x0 SWAP1 DUP2 MSTORE PUSH1 0x5 PUSH1 0x20 SWAP1 DUP2 MSTORE PUSH1 0x40 DUP1 DUP4 KECCAK256 CALLER DUP5 MSTORE SWAP1 SWAP2 MSTORE SWAP1 KECCAK256 SLOAD PUSH1 0xFF AND JUMPDEST PUSH2 0x73B JUMPI PUSH1 0x40 MLOAD PUSH3 0x461BCD PUSH1 0xE5 SHL DUP2 MSTORE PUSH1 0x20 PUSH1 0x4 DUP3 ADD MSTORE PUSH1 0xE PUSH1 0x24 DUP3 ADD MSTORE PUSH14 0x1393D517D055551213D492569151 PUSH1 0x92 SHL PUSH1 0x44 DUP3 ADD MSTORE PUSH1 0x64 ADD JUMPDEST PUSH1 0x40 MLOAD DUP1 SWAP2 SUB SWAP1 REVERT JUMPDEST PUSH1 0x0 DUP3 DUP2 MSTORE PUSH1 0x4 PUSH1 0x20 MSTORE PUSH1 0x40 DUP1 DUP3 KECCAK256 DUP1 SLOAD PUSH1 0x1 PUSH1 0x1 PUSH1 0xA0 SHL SUB NOT AND PUSH1 0x1 PUSH1 0x1 PUSH1 0xA0 SHL SUB DUP8 DUP2 AND SWAP2 DUP3 OR SWAP1 SWAP3 SSTORE SWAP2 MLOAD DUP6 SWAP4 SWAP2 DUP6 AND SWAP2 PUSH32 0x8C5BE1E5EBEC7D5BD14F71427D1E84F3DD0314C0F7B2291E5B200AC8C7C3B925 SWAP2 LOG4 POP POP POP JUMP JUMPDEST PUSH1 0x60 DUP1 PUSH1 0x60 DUP1 PUSH1 0x60 PUSH1 0x0 PUSH2 0x7AA DUP8 PUSH2 0x1500 JUMP JUMPDEST SWAP1 POP PUSH1 0x0 DUP2 MLOAD PUSH1 0x1 PUSH1 0x1 PUSH1 0x40 SHL SUB DUP2 GT ISZERO PUSH2 0x7C7 JUMPI PUSH2 0x7C7 PUSH2 0x3B7C JUMP JUMPDEST PUSH1 0x40 MLOAD SWAP1 DUP1 DUP3 MSTORE DUP1 PUSH1 0x20 MUL PUSH1 0x20 ADD DUP3 ADD PUSH1 0x40 MSTORE DUP1 ISZERO PUSH2 0x7F0 JUMPI DUP2 PUSH1 0x20 ADD PUSH1 0x20 DUP3 MUL DUP1 CALLDATASIZE DUP4 CALLDATACOPY ADD SWAP1 POP JUMPDEST POP SWAP1 POP PUSH1 0x0 DUP3 MLOAD PUSH1 0x1 PUSH1 0x1 PUSH1 0x40 SHL SUB DUP2 GT ISZERO PUSH2 0x80E JUMPI PUSH2 0x80E PUSH2 0x3B7C JUMP JUMPDEST PUSH1 0x40 MLOAD SWAP1 DUP1 DUP3 MSTORE DUP1 PUSH1 0x20 MUL PUSH1 0x20 ADD DUP3 ADD PUSH1 0x40 MSTORE DUP1 ISZERO PUSH2 0x837 JUMPI DUP2 PUSH1 0x20 ADD PUSH1 0x20 DUP3 MUL DUP1 CALLDATASIZE DUP4 CALLDATACOPY ADD SWAP1 POP JUMPDEST POP SWAP1 POP PUSH1 0x0 DUP4 MLOAD PUSH1 0x1 PUSH1 0x1 PUSH1 0x40 SHL SUB DUP2 GT ISZERO PUSH2 0x855 JUMPI PUSH2 0x855 PUSH2 0x3B7C JUMP JUMPDEST PUSH1 0x40 MLOAD SWAP1 DUP1 DUP3 MSTORE DUP1 PUSH1 0x20 MUL PUSH1 0x20 ADD DUP3 ADD PUSH1 0x40 MSTORE DUP1 ISZERO PUSH2 0x87E JUMPI DUP2 PUSH1 0x20 ADD PUSH1 0x20 DUP3 MUL DUP1 CALLDATASIZE DUP4 CALLDATACOPY ADD SWAP1 POP JUMPDEST POP SWAP1 POP PUSH1 0x0 DUP5 MLOAD PUSH1 0x1 PUSH1 0x1 PUSH1 0x40 SHL SUB DUP2 GT ISZERO PUSH2 0x89C JUMPI PUSH2 0x89C PUSH2 0x3B7C JUMP JUMPDEST PUSH1 0x40 MLOAD SWAP1 DUP1 DUP3 MSTORE DUP1 PUSH1 0x20 MUL PUSH1 0x20 ADD DUP3 ADD PUSH1 0x40 MSTORE DUP1 ISZERO PUSH2 0x8C5 JUMPI DUP2 PUSH1 0x20 ADD PUSH1 0x20 DUP3 MUL DUP1 CALLDATASIZE DUP4 CALLDATACOPY ADD SWAP1 POP JUMPDEST POP SWAP1 POP PUSH1 0x0 JUMPDEST DUP6 MLOAD DUP2 LT ISZERO PUSH2 0xAB9 JUMPI PUSH1 0x0 PUSH1 0x9 PUSH1 0x0 DUP9 DUP5 DUP2 MLOAD DUP2 LT PUSH2 0x8EC JUMPI PUSH2 0x8EC PUSH2 0x3B92 JUMP JUMPDEST PUSH1 0x20 SWAP1 DUP2 MUL SWAP2 SWAP1 SWAP2 ADD DUP2 ADD MLOAD DUP3 MSTORE DUP2 DUP2 ADD SWAP3 SWAP1 SWAP3 MSTORE PUSH1 0x40 SWAP1 DUP2 ADD PUSH1 0x0 KECCAK256 DUP2 MLOAD PUSH1 0x60 DUP2 ADD DUP4 MSTORE SWAP1 SLOAD PUSH1 0x1 PUSH1 0x1 PUSH1 0xA0 SHL SUB DUP2 AND DUP1 DUP4 MSTORE PUSH1 0x1 PUSH1 0xA0 SHL DUP3 DIV PUSH1 0x2 SWAP1 DUP2 SIGNEXTEND SWAP6 DUP5 ADD SWAP6 SWAP1 SWAP6 MSTORE PUSH1 0x1 PUSH1 0xB8 SHL SWAP1 SWAP2 DIV SWAP1 SWAP4 SIGNEXTEND SWAP2 DUP2 ADD SWAP2 SWAP1 SWAP2 MSTORE SWAP2 POP PUSH2 0x964 JUMPI PUSH1 0x40 MLOAD PUSH4 0x5079FF75 PUSH1 0xE1 SHL DUP2 MSTORE PUSH1 0x4 ADD PUSH1 0x40 MLOAD DUP1 SWAP2 SUB SWAP1 REVERT JUMPDEST DUP1 MLOAD PUSH1 0x0 PUSH1 0x1 PUSH1 0x1 PUSH1 0xA0 SHL SUB DUP3 AND PUSH4 0x514EA4BF PUSH2 0x980 DUP6 PUSH2 0x2470 JUMP JUMPDEST PUSH1 0x40 MLOAD DUP3 PUSH4 0xFFFFFFFF AND PUSH1 0xE0 SHL DUP2 MSTORE PUSH1 0x4 ADD PUSH2 0x99E SWAP2 DUP2 MSTORE PUSH1 0x20 ADD SWAP1 JUMP JUMPDEST PUSH1 0xA0 PUSH1 0x40 MLOAD DUP1 DUP4 SUB DUP2 DUP7 GAS STATICCALL ISZERO DUP1 ISZERO PUSH2 0x9BB JUMPI RETURNDATASIZE PUSH1 0x0 DUP1 RETURNDATACOPY RETURNDATASIZE PUSH1 0x0 REVERT JUMPDEST POP POP POP POP PUSH1 0x40 MLOAD RETURNDATASIZE PUSH1 0x1F NOT PUSH1 0x1F DUP3 ADD AND DUP3 ADD DUP1 PUSH1 0x40 MSTORE POP DUP2 ADD SWAP1 PUSH2 0x9DF SWAP2 SWAP1 PUSH2 0x3BA8 JUMP JUMPDEST POP POP POP POP SWAP1 POP DUP3 PUSH1 0x0 ADD MLOAD DUP9 DUP6 DUP2 MLOAD DUP2 LT PUSH2 0x9FC JUMPI PUSH2 0x9FC PUSH2 0x3B92 JUMP JUMPDEST PUSH1 0x20 MUL PUSH1 0x20 ADD ADD SWAP1 PUSH1 0x1 PUSH1 0x1 PUSH1 0xA0 SHL SUB AND SWAP1 DUP2 PUSH1 0x1 PUSH1 0x1 PUSH1 0xA0 SHL SUB AND DUP2 MSTORE POP POP DUP1 DUP8 DUP6 DUP2 MLOAD DUP2 LT PUSH2 0xA2F JUMPI PUSH2 0xA2F PUSH2 0x3B92 JUMP JUMPDEST PUSH1 0x20 MUL PUSH1 0x20 ADD ADD SWAP1 PUSH1 0x1 PUSH1 0x1 PUSH1 0x80 SHL SUB AND SWAP1 DUP2 PUSH1 0x1 PUSH1 0x1 PUSH1 0x80 SHL SUB AND DUP2 MSTORE POP POP DUP3 PUSH1 0x20 ADD MLOAD DUP7 DUP6 DUP2 MLOAD DUP2 LT PUSH2 0xA66 JUMPI PUSH2 0xA66 PUSH2 0x3B92 JUMP JUMPDEST PUSH1 0x20 MUL PUSH1 0x20 ADD ADD SWAP1 PUSH1 0x2 SIGNEXTEND SWAP1 DUP2 PUSH1 0x2 SIGNEXTEND DUP2 MSTORE POP POP DUP3 PUSH1 0x40 ADD MLOAD DUP6 DUP6 DUP2 MLOAD DUP2 LT PUSH2 0xA91 JUMPI PUSH2 0xA91 PUSH2 0x3B92 JUMP JUMPDEST PUSH1 0x20 MUL PUSH1 0x20 ADD ADD SWAP1 PUSH1 0x2 SIGNEXTEND SWAP1 DUP2 PUSH1 0x2 SIGNEXTEND DUP2 MSTORE POP POP POP POP POP DUP1 PUSH2 0xAB2 SWAP1 PUSH2 0x3C20 JUMP JUMPDEST SWAP1 POP PUSH2 0x8CB JUMP JUMPDEST POP SWAP4 SWAP11 SWAP3 SWAP10 POP SWAP1 SWAP8 POP SWAP6 POP SWAP1 SWAP4 POP SWAP2 POP POP JUMP JUMPDEST PUSH1 0x0 DUP2 DUP2 MSTORE PUSH1 0x2 PUSH1 0x20 MSTORE PUSH1 0x40 SWAP1 KECCAK256 SLOAD PUSH1 0x1 PUSH1 0x1 PUSH1 0xA0 SHL SUB DUP5 DUP2 AND SWAP2 AND EQ PUSH2 0xB22 JUMPI PUSH1 0x40 MLOAD PUSH3 0x461BCD PUSH1 0xE5 SHL DUP2 MSTORE PUSH1 0x20 PUSH1 0x4 DUP3 ADD MSTORE PUSH1 0xA PUSH1 0x24 DUP3 ADD MSTORE PUSH10 0x57524F4E475F46524F4D PUSH1 0xB0 SHL PUSH1 0x44 DUP3 ADD MSTORE PUSH1 0x64 ADD PUSH2 0x732 JUMP JUMPDEST PUSH1 0x1 PUSH1 0x1 PUSH1 0xA0 SHL SUB DUP3 AND PUSH2 0xB6C JUMPI PUSH1 0x40 MLOAD PUSH3 0x461BCD PUSH1 0xE5 SHL DUP2 MSTORE PUSH1 0x20 PUSH1 0x4 DUP3 ADD MSTORE PUSH1 0x11 PUSH1 0x24 DUP3 ADD MSTORE PUSH17 0x1253959053125117D49150D25412515395 PUSH1 0x7A SHL PUSH1 0x44 DUP3 ADD MSTORE PUSH1 0x64 ADD PUSH2 0x732 JUMP JUMPDEST CALLER PUSH1 0x1 PUSH1 0x1 PUSH1 0xA0 SHL SUB DUP5 AND EQ DUP1 PUSH2 0xBA6 JUMPI POP PUSH1 0x1 PUSH1 0x1 PUSH1 0xA0 SHL SUB DUP4 AND PUSH1 0x0 SWAP1 DUP2 MSTORE PUSH1 0x5 PUSH1 0x20 SWAP1 DUP2 MSTORE PUSH1 0x40 DUP1 DUP4 KECCAK256 CALLER DUP5 MSTORE SWAP1 SWAP2 MSTORE SWAP1 KECCAK256 SLOAD PUSH1 0xFF AND JUMPDEST DUP1 PUSH2 0xBC7 JUMPI POP PUSH1 0x0 DUP2 DUP2 MSTORE PUSH1 0x4 PUSH1 0x20 MSTORE PUSH1 0x40 SWAP1 KECCAK256 SLOAD PUSH1 0x1 PUSH1 0x1 PUSH1 0xA0 SHL SUB AND CALLER EQ JUMPDEST PUSH2 0xC04 JUMPI PUSH1 0x40 MLOAD PUSH3 0x461BCD PUSH1 0xE5 SHL DUP2 MSTORE PUSH1 0x20 PUSH1 0x4 DUP3 ADD MSTORE PUSH1 0xE PUSH1 0x24 DUP3 ADD MSTORE PUSH14 0x1393D517D055551213D492569151 PUSH1 0x92 SHL PUSH1 0x44 DUP3 ADD MSTORE PUSH1 0x64 ADD PUSH2 0x732 JUMP JUMPDEST PUSH1 0x1 PUSH1 0x1 PUSH1 0xA0 SHL SUB DUP1 DUP5 AND PUSH1 0x0 DUP2 DUP2 MSTORE PUSH1 0x3 PUSH1 0x20 SWAP1 DUP2 MSTORE PUSH1 0x40 DUP1 DUP4 KECCAK256 DUP1 SLOAD PUSH1 0x0 NOT ADD SWAP1 SSTORE SWAP4 DUP7 AND DUP1 DUP4 MSTORE DUP5 DUP4 KECCAK256 DUP1 SLOAD PUSH1 0x1 ADD SWAP1 SSTORE DUP6 DUP4 MSTORE PUSH1 0x2 DUP3 MSTORE DUP5 DUP4 KECCAK256 DUP1 SLOAD PUSH1 0x1 PUSH1 0x1 PUSH1 0xA0 SHL SUB NOT SWAP1 DUP2 AND DUP4 OR SWAP1 SWAP2 SSTORE PUSH1 0x4 SWAP1 SWAP3 MSTORE DUP5 DUP4 KECCAK256 DUP1 SLOAD SWAP1 SWAP3 AND SWAP1 SWAP2 SSTORE SWAP3 MLOAD DUP5 SWAP4 SWAP3 SWAP2 PUSH32 0xDDF252AD1BE2C89B69C2B068FC378DAA952BA7F163C4A11628F55A4DF523B3EF SWAP2 LOG4 POP POP POP JUMP JUMPDEST PUSH1 0x0 DUP2 DUP2 MSTORE PUSH1 0x9 PUSH1 0x20 SWAP1 DUP2 MSTORE PUSH1 0x40 DUP1 DUP4 KECCAK256 DUP2 MLOAD PUSH1 0x60 DUP2 ADD DUP4 MSTORE SWAP1 SLOAD PUSH1 0x1 PUSH1 0x1 PUSH1 0xA0 SHL SUB DUP2 AND DUP1 DUP4 MSTORE PUSH1 0x1 PUSH1 0xA0 SHL DUP3 DIV PUSH1 0x2 SWAP1 DUP2 SIGNEXTEND SWAP6 DUP5 ADD SWAP6 SWAP1 SWAP6 MSTORE PUSH1 0x1 PUSH1 0xB8 SHL SWAP1 SWAP2 DIV SWAP1 SWAP4 SIGNEXTEND SWAP2 DUP2 ADD SWAP2 SWAP1 SWAP2 MSTORE DUP3 SWAP2 DUP3 SWAP2 DUP3 SWAP2 DUP3 SWAP2 DUP3 SWAP2 PUSH2 0xD07 JUMPI PUSH1 0x40 MLOAD PUSH4 0x5079FF75 PUSH1 0xE1 SHL DUP2 MSTORE PUSH1 0x4 ADD PUSH1 0x40 MLOAD DUP1 SWAP2 SUB SWAP1 REVERT JUMPDEST DUP1 MLOAD PUSH1 0x0 DUP1 DUP1 PUSH1 0x1 PUSH1 0x1 PUSH1 0xA0 SHL SUB DUP5 AND PUSH4 0x514EA4BF PUSH2 0xD25 DUP8 PUSH2 0x2470 JUMP JUMPDEST PUSH1 0x40 MLOAD DUP3 PUSH4 0xFFFFFFFF AND PUSH1 0xE0 SHL DUP2 MSTORE PUSH1 0x4 ADD PUSH2 0xD43 SWAP2 DUP2 MSTORE PUSH1 0x20 ADD SWAP1 JUMP JUMPDEST PUSH1 0xA0 PUSH1 0x40 MLOAD DUP1 DUP4 SUB DUP2 DUP7 GAS STATICCALL ISZERO DUP1 ISZERO PUSH2 0xD60 JUMPI RETURNDATASIZE PUSH1 0x0 DUP1 RETURNDATACOPY RETURNDATASIZE PUSH1 0x0 REVERT JUMPDEST POP POP POP POP PUSH1 0x40 MLOAD RETURNDATASIZE PUSH1 0x1F NOT PUSH1 0x1F DUP3 ADD AND DUP3 ADD DUP1 PUSH1 0x40 MSTORE POP DUP2 ADD SWAP1 PUSH2 0xD84 SWAP2 SWAP1 PUSH2 0x3BA8 JUMP JUMPDEST SWAP5 POP SWAP5 POP POP POP SWAP3 POP DUP5 PUSH1 0x0 ADD MLOAD DUP4 DUP4 DUP4 DUP9 PUSH1 0x20 ADD MLOAD DUP10 PUSH1 0x40 ADD MLOAD SWAP11 POP SWAP11 POP SWAP11 POP SWAP11 POP SWAP11 POP SWAP11 POP POP POP POP POP POP SWAP2 SWAP4 SWAP6 POP SWAP2 SWAP4 SWAP6 JUMP JUMPDEST PUSH2 0xDC3 DUP4 DUP4 DUP4 PUSH2 0xACC JUMP JUMPDEST PUSH1 0x1 PUSH1 0x1 PUSH1 0xA0 SHL SUB DUP3 AND EXTCODESIZE ISZERO DUP1 PUSH2 0xE6C JUMPI POP PUSH1 0x40 MLOAD PUSH4 0xA85BD01 PUSH1 0xE1 SHL DUP1 DUP3 MSTORE CALLER PUSH1 0x4 DUP4 ADD MSTORE PUSH1 0x1 PUSH1 0x1 PUSH1 0xA0 SHL SUB DUP6 DUP2 AND PUSH1 0x24 DUP5 ADD MSTORE PUSH1 0x44 DUP4 ADD DUP5 SWAP1 MSTORE PUSH1 0x80 PUSH1 0x64 DUP5 ADD MSTORE PUSH1 0x0 PUSH1 0x84 DUP5 ADD MSTORE SWAP1 SWAP2 SWAP1 DUP5 AND SWAP1 PUSH4 0x150B7A02 SWAP1 PUSH1 0xA4 ADD PUSH1 0x20 PUSH1 0x40 MLOAD DUP1 DUP4 SUB DUP2 PUSH1 0x0 DUP8 GAS CALL ISZERO DUP1 ISZERO PUSH2 0xE3C JUMPI RETURNDATASIZE PUSH1 0x0 DUP1 RETURNDATACOPY RETURNDATASIZE PUSH1 0x0 REVERT JUMPDEST POP POP POP POP PUSH1 0x40 MLOAD RETURNDATASIZE PUSH1 0x1F NOT PUSH1 0x1F DUP3 ADD AND DUP3 ADD DUP1 PUSH1 0x40 MSTORE POP DUP2 ADD SWAP1 PUSH2 0xE60 SWAP2 SWAP1 PUSH2 0x3C39 JUMP JUMPDEST PUSH1 0x1 PUSH1 0x1 PUSH1 0xE0 SHL SUB NOT AND EQ JUMPDEST PUSH2 0xEAB JUMPI PUSH1 0x40 MLOAD PUSH3 0x461BCD PUSH1 0xE5 SHL DUP2 MSTORE PUSH1 0x20 PUSH1 0x4 DUP3 ADD MSTORE PUSH1 0x10 PUSH1 0x24 DUP3 ADD MSTORE PUSH16 0x155394D0519157D49150D25412515395 PUSH1 0x82 SHL PUSH1 0x44 DUP3 ADD MSTORE PUSH1 0x64 ADD PUSH2 0x732 JUMP JUMPDEST POP POP POP JUMP JUMPDEST DUP1 PUSH1 0x0 PUSH2 0xEBC DUP3 PUSH2 0x120C JUMP JUMPDEST SWAP1 POP CALLER PUSH1 0x1 PUSH1 0x1 PUSH1 0xA0 SHL SUB DUP3 AND EQ DUP1 ISZERO SWAP1 PUSH2 0xEFB JUMPI POP PUSH1 0x1 PUSH1 0x1 PUSH1 0xA0 SHL SUB DUP2 AND PUSH1 0x0 SWAP1 DUP2 MSTORE PUSH1 0x5 PUSH1 0x20 SWAP1 DUP2 MSTORE PUSH1 0x40 DUP1 DUP4 KECCAK256 CALLER DUP5 MSTORE SWAP1 SWAP2 MSTORE SWAP1 KECCAK256 SLOAD PUSH1 0xFF AND ISZERO JUMPDEST DUP1 ISZERO PUSH2 0xF1E JUMPI POP PUSH1 0x0 DUP3 DUP2 MSTORE PUSH1 0x4 PUSH1 0x20 MSTORE PUSH1 0x40 SWAP1 KECCAK256 SLOAD PUSH1 0x1 PUSH1 0x1 PUSH1 0xA0 SHL SUB AND CALLER EQ ISZERO JUMPDEST ISZERO PUSH2 0xF3C JUMPI PUSH1 0x40 MLOAD PUSH4 0xEA8E4EB5 PUSH1 0xE0 SHL DUP2 MSTORE PUSH1 0x4 ADD PUSH1 0x40 MLOAD DUP1 SWAP2 SUB SWAP1 REVERT JUMPDEST PUSH1 0x0 DUP4 DUP2 MSTORE PUSH1 0x9 PUSH1 0x20 SWAP1 DUP2 MSTORE PUSH1 0x40 SWAP2 DUP3 SWAP1 KECCAK256 DUP3 MLOAD PUSH1 0x60 DUP2 ADD DUP5 MSTORE SWAP1 SLOAD PUSH1 0x1 PUSH1 0x1 PUSH1 0xA0 SHL SUB DUP2 AND DUP1 DUP4 MSTORE PUSH1 0x1 PUSH1 0xA0 SHL DUP3 DIV PUSH1 0x2 SWAP1 DUP2 SIGNEXTEND SWAP5 DUP5 ADD SWAP5 SWAP1 SWAP5 MSTORE PUSH1 0x1 PUSH1 0xB8 SHL SWAP1 SWAP2 DIV SWAP1 SWAP3 SIGNEXTEND SWAP3 DUP2 ADD SWAP3 SWAP1 SWAP3 MSTORE PUSH2 0xFA7 JUMPI PUSH1 0x40 MLOAD PUSH4 0x5079FF75 PUSH1 0xE1 SHL DUP2 MSTORE PUSH1 0x4 ADD PUSH1 0x40 MLOAD DUP1 SWAP2 SUB SWAP1 REVERT JUMPDEST DUP1 MLOAD PUSH1 0x0 DUP1 DUP1 PUSH1 0x1 PUSH1 0x1 PUSH1 0xA0 SHL SUB DUP5 AND PUSH4 0x514EA4BF PUSH2 0xFC5 DUP8 PUSH2 0x2470 JUMP JUMPDEST PUSH1 0x40 MLOAD DUP3 PUSH4 0xFFFFFFFF AND PUSH1 0xE0 SHL DUP2 MSTORE PUSH1 0x4 ADD PUSH2 0xFE3 SWAP2 DUP2 MSTORE PUSH1 0x20 ADD SWAP1 JUMP JUMPDEST PUSH1 0xA0 PUSH1 0x40 MLOAD DUP1 DUP4 SUB DUP2 DUP7 GAS STATICCALL ISZERO DUP1 ISZERO PUSH2 0x1000 JUMPI RETURNDATASIZE PUSH1 0x0 DUP1 RETURNDATACOPY RETURNDATASIZE PUSH1 0x0 REVERT JUMPDEST POP POP POP POP PUSH1 0x40 MLOAD RETURNDATASIZE PUSH1 0x1F NOT PUSH1 0x1F DUP3 ADD AND DUP3 ADD DUP1 PUSH1 0x40 MSTORE POP DUP2 ADD SWAP1 PUSH2 0x1024 SWAP2 SWAP1 PUSH2 0x3BA8 JUMP JUMPDEST SWAP5 POP SWAP5 POP POP POP SWAP3 POP PUSH1 0x0 DUP4 PUSH1 0x1 PUSH1 0x1 PUSH1 0x80 SHL SUB AND GT DUP1 PUSH2 0x104D JUMPI POP PUSH1 0x0 DUP3 PUSH1 0x1 PUSH1 0x1 PUSH1 0x80 SHL SUB AND GT JUMPDEST DUP1 PUSH2 0x1061 JUMPI POP PUSH1 0x0 DUP2 PUSH1 0x1 PUSH1 0x1 PUSH1 0x80 SHL SUB AND GT JUMPDEST ISZERO PUSH2 0x107F JUMPI PUSH1 0x40 MLOAD PUSH4 0x6C4E633B PUSH1 0xE1 SHL DUP2 MSTORE PUSH1 0x4 ADD PUSH1 0x40 MLOAD DUP1 SWAP2 SUB SWAP1 REVERT JUMPDEST PUSH1 0x0 DUP9 DUP2 MSTORE PUSH1 0x9 PUSH1 0x20 SWAP1 DUP2 MSTORE PUSH1 0x40 DUP1 DUP4 KECCAK256 DUP1 SLOAD PUSH1 0x1 PUSH1 0x1 PUSH1 0xD0 SHL SUB NOT AND SWAP1 SSTORE PUSH1 0xB SWAP1 SWAP2 MSTORE SWAP1 KECCAK256 DUP1 SLOAD PUSH1 0xFF NOT AND PUSH1 0x1 OR SWAP1 SSTORE PUSH2 0x10B9 DUP9 PUSH2 0x24C0 JUMP JUMPDEST PUSH1 0x6 DUP1 SLOAD SWAP1 PUSH1 0x0 PUSH2 0x10C9 DUP4 PUSH2 0x3C56 JUMP JUMPDEST SWAP2 SWAP1 POP SSTORE POP POP POP POP POP POP POP POP POP JUMP JUMPDEST PUSH1 0x60 DUP1 PUSH1 0x60 PUSH1 0x0 PUSH2 0x10E8 DUP6 PUSH2 0x1500 JUMP JUMPDEST SWAP1 POP PUSH1 0x0 DUP2 MLOAD PUSH1 0x1 PUSH1 0x1 PUSH1 0x40 SHL SUB DUP2 GT ISZERO PUSH2 0x1105 JUMPI PUSH2 0x1105 PUSH2 0x3B7C JUMP JUMPDEST PUSH1 0x40 MLOAD SWAP1 DUP1 DUP3 MSTORE DUP1 PUSH1 0x20 MUL PUSH1 0x20 ADD DUP3 ADD PUSH1 0x40 MSTORE DUP1 ISZERO PUSH2 0x112E JUMPI DUP2 PUSH1 0x20 ADD PUSH1 0x20 DUP3 MUL DUP1 CALLDATASIZE DUP4 CALLDATACOPY ADD SWAP1 POP JUMPDEST POP SWAP1 POP PUSH1 0x0 DUP3 MLOAD PUSH1 0x1 PUSH1 0x1 PUSH1 0x40 SHL SUB DUP2 GT ISZERO PUSH2 0x114C JUMPI PUSH2 0x114C PUSH2 0x3B7C JUMP JUMPDEST PUSH1 0x40 MLOAD SWAP1 DUP1 DUP3 MSTORE DUP1 PUSH1 0x20 MUL PUSH1 0x20 ADD DUP3 ADD PUSH1 0x40 MSTORE DUP1 ISZERO PUSH2 0x1175 JUMPI DUP2 PUSH1 0x20 ADD PUSH1 0x20 DUP3 MUL DUP1 CALLDATASIZE DUP4 CALLDATACOPY ADD SWAP1 POP JUMPDEST POP SWAP1 POP PUSH1 0x0 JUMPDEST DUP4 MLOAD DUP2 LT ISZERO PUSH2 0x11FE JUMPI PUSH1 0x0 DUP1 PUSH2 0x11A9 DUP7 DUP5 DUP2 MLOAD DUP2 LT PUSH2 0x119C JUMPI PUSH2 0x119C PUSH2 0x3B92 JUMP JUMPDEST PUSH1 0x20 MUL PUSH1 0x20 ADD ADD MLOAD PUSH2 0x2374 JUMP JUMPDEST SWAP2 POP SWAP2 POP DUP2 DUP6 DUP5 DUP2 MLOAD DUP2 LT PUSH2 0x11C0 JUMPI PUSH2 0x11C0 PUSH2 0x3B92 JUMP JUMPDEST PUSH1 0x20 MUL PUSH1 0x20 ADD ADD DUP2 DUP2 MSTORE POP POP DUP1 DUP5 DUP5 DUP2 MLOAD DUP2 LT PUSH2 0x11DF JUMPI PUSH2 0x11DF PUSH2 0x3B92 JUMP JUMPDEST PUSH1 0x20 MUL PUSH1 0x20 ADD ADD DUP2 DUP2 MSTORE POP POP POP POP DUP1 PUSH2 0x11F7 SWAP1 PUSH2 0x3C20 JUMP JUMPDEST SWAP1 POP PUSH2 0x117B JUMP JUMPDEST POP SWAP2 SWAP7 SWAP1 SWAP6 POP SWAP1 SWAP4 POP SWAP2 POP POP JUMP JUMPDEST PUSH1 0x0 DUP2 DUP2 MSTORE PUSH1 0x2 PUSH1 0x20 MSTORE PUSH1 0x40 SWAP1 KECCAK256 SLOAD PUSH1 0x1 PUSH1 0x1 PUSH1 0xA0 SHL SUB AND DUP1 PUSH2 0x125E JUMPI PUSH1 0x40 MLOAD PUSH3 0x461BCD PUSH1 0xE5 SHL DUP2 MSTORE PUSH1 0x20 PUSH1 0x4 DUP3 ADD MSTORE PUSH1 0xA PUSH1 0x24 DUP3 ADD MSTORE PUSH10 0x1393D517D35253951151 PUSH1 0xB2 SHL PUSH1 0x44 DUP3 ADD MSTORE PUSH1 0x64 ADD PUSH2 0x732 JUMP JUMPDEST SWAP2 SWAP1 POP JUMP JUMPDEST PUSH1 0x0 PUSH1 0x1 PUSH1 0x1 PUSH1 0xA0 SHL SUB DUP3 AND PUSH2 0x12AA JUMPI PUSH1 0x40 MLOAD PUSH3 0x461BCD PUSH1 0xE5 SHL DUP2 MSTORE PUSH1 0x20 PUSH1 0x4 DUP3 ADD MSTORE PUSH1 0xC PUSH1 0x24 DUP3 ADD MSTORE PUSH12 0x5A45524F5F41444452455353 PUSH1 0xA0 SHL PUSH1 0x44 DUP3 ADD MSTORE PUSH1 0x64 ADD PUSH2 0x732 JUMP JUMPDEST POP PUSH1 0x1 PUSH1 0x1 PUSH1 0xA0 SHL SUB AND PUSH1 0x0 SWAP1 DUP2 MSTORE PUSH1 0x3 PUSH1 0x20 MSTORE PUSH1 0x40 SWAP1 KECCAK256 SLOAD SWAP1 JUMP JUMPDEST PUSH1 0x60 DUP1 PUSH1 0x60 PUSH1 0x0 PUSH2 0x12D6 DUP6 PUSH2 0x1500 JUMP JUMPDEST SWAP1 POP PUSH1 0x0 DUP2 MLOAD PUSH1 0x1 PUSH1 0x1 PUSH1 0x40 SHL SUB DUP2 GT ISZERO PUSH2 0x12F3 JUMPI PUSH2 0x12F3 PUSH2 0x3B7C JUMP JUMPDEST PUSH1 0x40 MLOAD SWAP1 DUP1 DUP3 MSTORE DUP1 PUSH1 0x20 MUL PUSH1 0x20 ADD DUP3 ADD PUSH1 0x40 MSTORE DUP1 ISZERO PUSH2 0x131C JUMPI DUP2 PUSH1 0x20 ADD PUSH1 0x20 DUP3 MUL DUP1 CALLDATASIZE DUP4 CALLDATACOPY ADD SWAP1 POP JUMPDEST POP SWAP1 POP PUSH1 0x0 DUP3 MLOAD PUSH1 0x1 PUSH1 0x1 PUSH1 0x40 SHL SUB DUP2 GT ISZERO PUSH2 0x133A JUMPI PUSH2 0x133A PUSH2 0x3B7C JUMP JUMPDEST PUSH1 0x40 MLOAD SWAP1 DUP1 DUP3 MSTORE DUP1 PUSH1 0x20 MUL PUSH1 0x20 ADD DUP3 ADD PUSH1 0x40 MSTORE DUP1 ISZERO PUSH2 0x1363 JUMPI DUP2 PUSH1 0x20 ADD PUSH1 0x20 DUP3 MUL DUP1 CALLDATASIZE DUP4 CALLDATACOPY ADD SWAP1 POP JUMPDEST POP SWAP1 POP PUSH1 0x0 JUMPDEST DUP4 MLOAD DUP2 LT ISZERO PUSH2 0x11FE JUMPI PUSH1 0x0 PUSH1 0x9 PUSH1 0x0 DUP7 DUP5 DUP2 MLOAD DUP2 LT PUSH2 0x138A JUMPI PUSH2 0x138A PUSH2 0x3B92 JUMP JUMPDEST PUSH1 0x20 SWAP1 DUP2 MUL SWAP2 SWAP1 SWAP2 ADD DUP2 ADD MLOAD DUP3 MSTORE DUP2 DUP2 ADD SWAP3 SWAP1 SWAP3 MSTORE PUSH1 0x40 SWAP1 DUP2 ADD PUSH1 0x0 KECCAK256 DUP2 MLOAD PUSH1 0x60 DUP2 ADD DUP4 MSTORE SWAP1 SLOAD PUSH1 0x1 PUSH1 0x1 PUSH1 0xA0 SHL SUB DUP2 AND DUP1 DUP4 MSTORE PUSH1 0x1 PUSH1 0xA0 SHL DUP3 DIV PUSH1 0x2 SWAP1 DUP2 SIGNEXTEND SWAP6 DUP5 ADD SWAP6 SWAP1 SWAP6 MSTORE PUSH1 0x1 PUSH1 0xB8 SHL SWAP1 SWAP2 DIV SWAP1 SWAP4 SIGNEXTEND SWAP2 DUP2 ADD SWAP2 SWAP1 SWAP2 MSTORE SWAP2 POP PUSH2 0x1402 JUMPI PUSH1 0x40 MLOAD PUSH4 0x5079FF75 PUSH1 0xE1 SHL DUP2 MSTORE PUSH1 0x4 ADD PUSH1 0x40 MLOAD DUP1 SWAP2 SUB SWAP1 REVERT JUMPDEST DUP1 MLOAD PUSH1 0x0 DUP1 PUSH1 0x1 PUSH1 0x1 PUSH1 0xA0 SHL SUB DUP4 AND PUSH4 0x514EA4BF PUSH2 0x141F DUP7 PUSH2 0x2470 JUMP JUMPDEST PUSH1 0x40 MLOAD DUP3 PUSH4 0xFFFFFFFF AND PUSH1 0xE0 SHL DUP2 MSTORE PUSH1 0x4 ADD PUSH2 0x143D SWAP2 DUP2 MSTORE PUSH1 0x20 ADD SWAP1 JUMP JUMPDEST PUSH1 0xA0 PUSH1 0x40 MLOAD DUP1 DUP4 SUB DUP2 DUP7 GAS STATICCALL ISZERO DUP1 ISZERO PUSH2 0x145A JUMPI RETURNDATASIZE PUSH1 0x0 DUP1 RETURNDATACOPY RETURNDATASIZE PUSH1 0x0 REVERT JUMPDEST POP POP POP POP PUSH1 0x40 MLOAD RETURNDATASIZE PUSH1 0x1F NOT PUSH1 0x1F DUP3 ADD AND DUP3 ADD DUP1 PUSH1 0x40 MSTORE POP DUP2 ADD SWAP1 PUSH2 0x147E SWAP2 SWAP1 PUSH2 0x3BA8 JUMP JUMPDEST SWAP5 POP SWAP5 POP POP POP POP DUP2 DUP8 DUP7 DUP2 MLOAD DUP2 LT PUSH2 0x1498 JUMPI PUSH2 0x1498 PUSH2 0x3B92 JUMP JUMPDEST PUSH1 0x20 MUL PUSH1 0x20 ADD ADD SWAP1 PUSH1 0x1 PUSH1 0x1 PUSH1 0x80 SHL SUB AND SWAP1 DUP2 PUSH1 0x1 PUSH1 0x1 PUSH1 0x80 SHL SUB AND DUP2 MSTORE POP POP DUP1 DUP7 DUP7 DUP2 MLOAD DUP2 LT PUSH2 0x14CB JUMPI PUSH2 0x14CB PUSH2 0x3B92 JUMP JUMPDEST PUSH1 0x20 MUL PUSH1 0x20 ADD ADD SWAP1 PUSH1 0x1 PUSH1 0x1 PUSH1 0x80 SHL SUB AND SWAP1 DUP2 PUSH1 0x1 PUSH1 0x1 PUSH1 0x80 SHL SUB AND DUP2 MSTORE POP POP POP POP POP POP DUP1 PUSH2 0x14F9 SWAP1 PUSH2 0x3C20 JUMP JUMPDEST SWAP1 POP PUSH2 0x1369 JUMP JUMPDEST PUSH1 0x60 PUSH1 0x0 PUSH2 0x150D DUP4 PUSH2 0x1263 JUMP JUMPDEST SWAP1 POP DUP1 PUSH1 0x0 SUB PUSH2 0x152D JUMPI POP POP PUSH1 0x40 DUP1 MLOAD PUSH1 0x0 DUP2 MSTORE PUSH1 0x20 DUP2 ADD SWAP1 SWAP2 MSTORE SWAP2 SWAP1 POP JUMP JUMPDEST PUSH1 0x0 DUP2 PUSH1 0x1 PUSH1 0x1 PUSH1 0x40 SHL SUB DUP2 GT ISZERO PUSH2 0x1547 JUMPI PUSH2 0x1547 PUSH2 0x3B7C JUMP JUMPDEST PUSH1 0x40 MLOAD SWAP1 DUP1 DUP3 MSTORE DUP1 PUSH1 0x20 MUL PUSH1 0x20 ADD DUP3 ADD PUSH1 0x40 MSTORE DUP1 ISZERO PUSH2 0x1570 JUMPI DUP2 PUSH1 0x20 ADD PUSH1 0x20 DUP3 MUL DUP1 CALLDATASIZE DUP4 CALLDATACOPY ADD SWAP1 POP JUMPDEST POP PUSH1 0x7 SLOAD SWAP1 SWAP2 POP PUSH1 0x0 DUP1 JUMPDEST DUP3 DUP3 LT DUP1 ISZERO PUSH2 0x1589 JUMPI POP DUP3 DUP2 LT JUMPDEST ISZERO PUSH2 0x1608 JUMPI PUSH1 0x0 DUP2 DUP2 MSTORE PUSH1 0xB PUSH1 0x20 MSTORE PUSH1 0x40 SWAP1 KECCAK256 SLOAD PUSH1 0xFF AND ISZERO ISZERO PUSH1 0x1 EQ PUSH2 0x15F6 JUMPI DUP7 PUSH1 0x1 PUSH1 0x1 PUSH1 0xA0 SHL SUB AND PUSH2 0x15BC DUP3 PUSH2 0x120C JUMP JUMPDEST PUSH1 0x1 PUSH1 0x1 PUSH1 0xA0 SHL SUB AND SUB PUSH2 0x15F6 JUMPI DUP1 DUP5 DUP4 DUP2 MLOAD DUP2 LT PUSH2 0x15DD JUMPI PUSH2 0x15DD PUSH2 0x3B92 JUMP JUMPDEST PUSH1 0x20 SWAP1 DUP2 MUL SWAP2 SWAP1 SWAP2 ADD ADD MSTORE DUP2 PUSH2 0x15F2 DUP2 PUSH2 0x3C20 JUMP JUMPDEST SWAP3 POP POP JUMPDEST DUP1 PUSH2 0x1600 DUP2 PUSH2 0x3C20 JUMP JUMPDEST SWAP2 POP POP PUSH2 0x157B JUMP JUMPDEST POP SWAP2 SWAP6 SWAP5 POP POP POP POP POP JUMP JUMPDEST POP SWAP2 SWAP1 POP JUMP JUMPDEST PUSH1 0x0 DUP1 DUP4 PUSH1 0x0 PUSH2 0x1628 DUP3 PUSH2 0x120C JUMP JUMPDEST SWAP1 POP CALLER PUSH1 0x1 PUSH1 0x1 PUSH1 0xA0 SHL SUB DUP3 AND EQ DUP1 ISZERO SWAP1 PUSH2 0x1667 JUMPI POP PUSH1 0x1 PUSH1 0x1 PUSH1 0xA0 SHL SUB DUP2 AND PUSH1 0x0 SWAP1 DUP2 MSTORE PUSH1 0x5 PUSH1 0x20 SWAP1 DUP2 MSTORE PUSH1 0x40 DUP1 DUP4 KECCAK256 CALLER DUP5 MSTORE SWAP1 SWAP2 MSTORE SWAP1 KECCAK256 SLOAD PUSH1 0xFF AND ISZERO JUMPDEST DUP1 ISZERO PUSH2 0x168A JUMPI POP PUSH1 0x0 DUP3 DUP2 MSTORE PUSH1 0x4 PUSH1 0x20 MSTORE PUSH1 0x40 SWAP1 KECCAK256 SLOAD PUSH1 0x1 PUSH1 0x1 PUSH1 0xA0 SHL SUB AND CALLER EQ ISZERO JUMPDEST ISZERO PUSH2 0x16A8 JUMPI PUSH1 0x40 MLOAD PUSH4 0xEA8E4EB5 PUSH1 0xE0 SHL DUP2 MSTORE PUSH1 0x4 ADD PUSH1 0x40 MLOAD DUP1 SWAP2 SUB SWAP1 REVERT JUMPDEST PUSH1 0x0 DUP7 DUP2 MSTORE PUSH1 0x9 PUSH1 0x20 SWAP1 DUP2 MSTORE PUSH1 0x40 SWAP2 DUP3 SWAP1 KECCAK256 DUP3 MLOAD PUSH1 0x60 DUP2 ADD DUP5 MSTORE SWAP1 SLOAD PUSH1 0x1 PUSH1 0x1 PUSH1 0xA0 SHL SUB DUP2 AND DUP1 DUP4 MSTORE PUSH1 0x1 PUSH1 0xA0 SHL DUP3 DIV PUSH1 0x2 SWAP1 DUP2 SIGNEXTEND SWAP5 DUP5 ADD SWAP5 SWAP1 SWAP5 MSTORE PUSH1 0x1 PUSH1 0xB8 SHL SWAP1 SWAP2 DIV SWAP1 SWAP3 SIGNEXTEND SWAP3 DUP2 ADD SWAP3 SWAP1 SWAP3 MSTORE PUSH2 0x1713 JUMPI PUSH1 0x40 MLOAD PUSH4 0x5079FF75 PUSH1 0xE1 SHL DUP2 MSTORE PUSH1 0x4 ADD PUSH1 0x40 MLOAD DUP1 SWAP2 SUB SWAP1 REVERT JUMPDEST DUP1 MLOAD PUSH1 0x0 PUSH1 0x1 PUSH1 0x1 PUSH1 0xA0 SHL SUB DUP3 AND PUSH4 0x514EA4BF PUSH2 0x172F DUP6 PUSH2 0x2470 JUMP JUMPDEST PUSH1 0x40 MLOAD DUP3 PUSH4 0xFFFFFFFF AND PUSH1 0xE0 SHL DUP2 MSTORE PUSH1 0x4 ADD PUSH2 0x174D SWAP2 DUP2 MSTORE PUSH1 0x20 ADD SWAP1 JUMP JUMPDEST PUSH1 0xA0 PUSH1 0x40 MLOAD DUP1 DUP4 SUB DUP2 DUP7 GAS STATICCALL ISZERO DUP1 ISZERO PUSH2 0x176A JUMPI RETURNDATASIZE PUSH1 0x0 DUP1 RETURNDATACOPY RETURNDATASIZE PUSH1 0x0 REVERT JUMPDEST POP POP POP POP PUSH1 0x40 MLOAD RETURNDATASIZE PUSH1 0x1F NOT PUSH1 0x1F DUP3 ADD AND DUP3 ADD DUP1 PUSH1 0x40 MSTORE POP DUP2 ADD SWAP1 PUSH2 0x178E SWAP2 SWAP1 PUSH2 0x3BA8 JUMP JUMPDEST POP POP POP POP SWAP1 POP DUP1 PUSH1 0x1 PUSH1 0x1 PUSH1 0x80 SHL SUB AND DUP9 PUSH1 0x1 PUSH1 0x1 PUSH1 0x80 SHL SUB AND GT ISZERO PUSH2 0x17C7 JUMPI PUSH1 0x40 MLOAD PUSH4 0x4323A555 PUSH1 0xE0 SHL DUP2 MSTORE PUSH1 0x4 ADD PUSH1 0x40 MLOAD DUP1 SWAP2 SUB SWAP1 REVERT JUMPDEST PUSH1 0x20 DUP4 ADD MLOAD PUSH1 0x40 DUP1 DUP6 ADD MLOAD SWAP1 MLOAD PUSH4 0xA34123A7 PUSH1 0xE0 SHL DUP2 MSTORE PUSH1 0x2 SWAP3 DUP4 SIGNEXTEND PUSH1 0x4 DUP3 ADD MSTORE SWAP2 SIGNEXTEND PUSH1 0x24 DUP3 ADD MSTORE PUSH1 0x1 PUSH1 0x1 PUSH1 0x80 SHL SUB DUP10 AND PUSH1 0x44 DUP3 ADD MSTORE PUSH1 0x1 PUSH1 0x1 PUSH1 0xA0 SHL SUB DUP4 AND SWAP1 PUSH4 0xA34123A7 SWAP1 PUSH1 0x64 ADD PUSH1 0x40 DUP1 MLOAD DUP1 DUP4 SUB DUP2 PUSH1 0x0 DUP8 GAS CALL ISZERO DUP1 ISZERO PUSH2 0x1830 JUMPI RETURNDATASIZE PUSH1 0x0 DUP1 RETURNDATACOPY RETURNDATASIZE PUSH1 0x0 REVERT JUMPDEST POP POP POP POP PUSH1 0x40 MLOAD RETURNDATASIZE PUSH1 0x1F NOT PUSH1 0x1F DUP3 ADD AND DUP3 ADD DUP1 PUSH1 0x40 MSTORE POP DUP2 ADD SWAP1 PUSH2 0x1854 SWAP2 SWAP1 PUSH2 0x3C6D JUMP JUMPDEST PUSH1 0x40 DUP1 MLOAD PUSH1 0x1 PUSH1 0x1 PUSH1 0x80 SHL SUB DUP13 AND DUP2 MSTORE PUSH1 0x20 DUP2 ADD DUP5 SWAP1 MSTORE SWAP1 DUP2 ADD DUP3 SWAP1 MSTORE SWAP2 SWAP9 POP SWAP7 POP DUP10 SWAP1 PUSH32 0x1832D0BE987B5F3CBC73B42F7EE61F47D509F9A14F8D3770969DFDABEF841C3E SWAP1 PUSH1 0x60 ADD PUSH1 0x40 MLOAD DUP1 SWAP2 SUB SWAP1 LOG2 POP POP POP POP POP SWAP3 POP SWAP3 SWAP1 POP JUMP JUMPDEST PUSH1 0x1 DUP1 SLOAD PUSH2 0x62F SWAP1 PUSH2 0x3B48 JUMP JUMPDEST CALLER PUSH1 0x0 DUP2 DUP2 MSTORE PUSH1 0x5 PUSH1 0x20 SWAP1 DUP2 MSTORE PUSH1 0x40 DUP1 DUP4 KECCAK256 PUSH1 0x1 PUSH1 0x1 PUSH1 0xA0 SHL SUB DUP8 AND DUP1 DUP6 MSTORE SWAP1 DUP4 MSTORE SWAP3 DUP2 SWAP1 KECCAK256 DUP1 SLOAD PUSH1 0xFF NOT AND DUP7 ISZERO ISZERO SWAP1 DUP2 OR SWAP1 SWAP2 SSTORE SWAP1 MLOAD SWAP1 DUP2 MSTORE SWAP2 SWAP3 SWAP2 PUSH32 0x17307EAB39AB6107E8899845AD3D59BD9653F200F220920489CA2B5937696C31 SWAP2 ADD PUSH1 0x40 MLOAD DUP1 SWAP2 SUB SWAP1 LOG3 POP POP JUMP JUMPDEST PUSH1 0x0 DUP6 DUP2 MSTORE PUSH1 0x9 PUSH1 0x20 SWAP1 DUP2 MSTORE PUSH1 0x40 DUP1 DUP4 KECCAK256 DUP2 MLOAD PUSH1 0x60 DUP2 ADD DUP4 MSTORE SWAP1 SLOAD PUSH1 0x1 PUSH1 0x1 PUSH1 0xA0 SHL SUB DUP2 AND DUP1 DUP4 MSTORE PUSH1 0x1 PUSH1 0xA0 SHL DUP3 DIV PUSH1 0x2 SWAP1 DUP2 SIGNEXTEND SWAP6 DUP5 ADD SWAP6 SWAP1 SWAP6 MSTORE PUSH1 0x1 PUSH1 0xB8 SHL SWAP1 SWAP2 DIV SWAP1 SWAP4 SIGNEXTEND SWAP2 DUP2 ADD SWAP2 SWAP1 SWAP2 MSTORE DUP3 SWAP2 DUP3 SWAP2 SWAP1 PUSH2 0x1999 JUMPI PUSH1 0x40 MLOAD PUSH4 0x5079FF75 PUSH1 0xE1 SHL DUP2 MSTORE PUSH1 0x4 ADD PUSH1 0x40 MLOAD DUP1 SWAP2 SUB SWAP1 REVERT JUMPDEST PUSH2 0x19EF PUSH1 0x40 MLOAD DUP1 PUSH1 0xE0 ADD PUSH1 0x40 MSTORE DUP1 DUP4 PUSH1 0x0 ADD MLOAD PUSH1 0x1 PUSH1 0x1 PUSH1 0xA0 SHL SUB AND DUP2 MSTORE PUSH1 0x20 ADD DUP4 PUSH1 0x20 ADD MLOAD PUSH1 0x2 SIGNEXTEND DUP2 MSTORE PUSH1 0x20 ADD DUP4 PUSH1 0x40 ADD MLOAD PUSH1 0x2 SIGNEXTEND DUP2 MSTORE PUSH1 0x20 ADD DUP11 DUP2 MSTORE PUSH1 0x20 ADD DUP10 DUP2 MSTORE PUSH1 0x20 ADD DUP9 DUP2 MSTORE PUSH1 0x20 ADD DUP8 DUP2 MSTORE POP PUSH2 0x258D JUMP JUMPDEST PUSH1 0x40 DUP1 MLOAD PUSH1 0x1 PUSH1 0x1 PUSH1 0x80 SHL SUB DUP6 AND DUP2 MSTORE PUSH1 0x20 DUP2 ADD DUP5 SWAP1 MSTORE SWAP1 DUP2 ADD DUP3 SWAP1 MSTORE SWAP3 SWAP7 POP SWAP1 SWAP5 POP SWAP3 POP DUP10 SWAP1 PUSH32 0x22FB3C4728E7CC5DD64003F4267D8FB1EB2580F5598050868300738A823D7047 SWAP1 PUSH1 0x60 ADD PUSH1 0x40 MLOAD DUP1 SWAP2 SUB SWAP1 LOG2 POP SWAP6 POP SWAP6 POP SWAP6 SWAP3 POP POP POP JUMP JUMPDEST PUSH2 0x1A5A DUP6 DUP6 DUP6 PUSH2 0xACC JUMP JUMPDEST PUSH1 0x1 PUSH1 0x1 PUSH1 0xA0 SHL SUB DUP5 AND EXTCODESIZE ISZERO DUP1 PUSH2 0x1AF1 JUMPI POP PUSH1 0x40 MLOAD PUSH4 0xA85BD01 PUSH1 0xE1 SHL DUP1 DUP3 MSTORE SWAP1 PUSH1 0x1 PUSH1 0x1 PUSH1 0xA0 SHL SUB DUP7 AND SWAP1 PUSH4 0x150B7A02 SWAP1 PUSH2 0x1AA2 SWAP1 CALLER SWAP1 DUP11 SWAP1 DUP10 SWAP1 DUP10 SWAP1 DUP10 SWAP1 PUSH1 0x4 ADD PUSH2 0x3C91 JUMP JUMPDEST PUSH1 0x20 PUSH1 0x40 MLOAD DUP1 DUP4 SUB DUP2 PUSH1 0x0 DUP8 GAS CALL ISZERO DUP1 ISZERO PUSH2 0x1AC1 JUMPI RETURNDATASIZE PUSH1 0x0 DUP1 RETURNDATACOPY RETURNDATASIZE PUSH1 0x0 REVERT JUMPDEST POP POP POP POP PUSH1 0x40 MLOAD RETURNDATASIZE PUSH1 0x1F NOT PUSH1 0x1F DUP3 ADD AND DUP3 ADD DUP1 PUSH1 0x40 MSTORE POP DUP2 ADD SWAP1 PUSH2 0x1AE5 SWAP2 SWAP1 PUSH2 0x3C39 JUMP JUMPDEST PUSH1 0x1 PUSH1 0x1 PUSH1 0xE0 SHL SUB NOT AND EQ JUMPDEST PUSH2 0x1B30 JUMPI PUSH1 0x40 MLOAD PUSH3 0x461BCD PUSH1 0xE5 SHL DUP2 MSTORE PUSH1 0x20 PUSH1 0x4 DUP3 ADD MSTORE PUSH1 0x10 PUSH1 0x24 DUP3 ADD MSTORE PUSH16 0x155394D0519157D49150D25412515395 PUSH1 0x82 SHL PUSH1 0x44 DUP3 ADD MSTORE PUSH1 0x64 ADD PUSH2 0x732 JUMP JUMPDEST POP POP POP POP POP JUMP JUMPDEST PUSH1 0x0 DUP2 DUP2 MSTORE PUSH1 0x9 PUSH1 0x20 SWAP1 DUP2 MSTORE PUSH1 0x40 SWAP2 DUP3 SWAP1 KECCAK256 DUP3 MLOAD PUSH1 0x60 DUP2 DUP2 ADD DUP6 MSTORE SWAP2 SLOAD PUSH1 0x1 PUSH1 0x1 PUSH1 0xA0 SHL SUB DUP2 AND DUP1 DUP4 MSTORE PUSH1 0x1 PUSH1 0xA0 SHL DUP3 DIV PUSH1 0x2 SWAP1 DUP2 SIGNEXTEND SWAP6 DUP5 ADD SWAP6 SWAP1 SWAP6 MSTORE PUSH1 0x1 PUSH1 0xB8 SHL SWAP1 SWAP2 DIV SWAP1 SWAP4 SIGNEXTEND SWAP4 DUP2 ADD SWAP4 SWAP1 SWAP4 MSTORE SWAP2 SWAP1 PUSH2 0x1BA5 JUMPI PUSH1 0x40 MLOAD PUSH4 0x5079FF75 PUSH1 0xE1 SHL DUP2 MSTORE PUSH1 0x4 ADD PUSH1 0x40 MLOAD DUP1 SWAP2 SUB SWAP1 REVERT JUMPDEST PUSH1 0x0 DUP2 PUSH1 0x0 ADD MLOAD SWAP1 POP PUSH1 0x0 DUP2 PUSH1 0x1 PUSH1 0x1 PUSH1 0xA0 SHL SUB AND PUSH4 0xDFE1681 PUSH1 0x40 MLOAD DUP2 PUSH4 0xFFFFFFFF AND PUSH1 0xE0 SHL DUP2 MSTORE PUSH1 0x4 ADD PUSH1 0x20 PUSH1 0x40 MLOAD DUP1 DUP4 SUB DUP2 DUP7 GAS STATICCALL ISZERO DUP1 ISZERO PUSH2 0x1BEE JUMPI RETURNDATASIZE PUSH1 0x0 DUP1 RETURNDATACOPY RETURNDATASIZE PUSH1 0x0 REVERT JUMPDEST POP POP POP POP PUSH1 0x40 MLOAD RETURNDATASIZE PUSH1 0x1F NOT PUSH1 0x1F DUP3 ADD AND DUP3 ADD DUP1 PUSH1 0x40 MSTORE POP DUP2 ADD SWAP1 PUSH2 0x1C12 SWAP2 SWAP1 PUSH2 0x3CE5 JUMP JUMPDEST SWAP1 POP PUSH1 0x0 DUP3 PUSH1 0x1 PUSH1 0x1 PUSH1 0xA0 SHL SUB AND PUSH4 0xD21220A7 PUSH1 0x40 MLOAD DUP2 PUSH4 0xFFFFFFFF AND PUSH1 0xE0 SHL DUP2 MSTORE PUSH1 0x4 ADD PUSH1 0x20 PUSH1 0x40 MLOAD DUP1 DUP4 SUB DUP2 DUP7 GAS STATICCALL ISZERO DUP1 ISZERO PUSH2 0x1C54 JUMPI RETURNDATASIZE PUSH1 0x0 DUP1 RETURNDATACOPY RETURNDATASIZE PUSH1 0x0 REVERT JUMPDEST POP POP POP POP PUSH1 0x40 MLOAD RETURNDATASIZE PUSH1 0x1F NOT PUSH1 0x1F DUP3 ADD AND DUP3 ADD DUP1 PUSH1 0x40 MSTORE POP DUP2 ADD SWAP1 PUSH2 0x1C78 SWAP2 SWAP1 PUSH2 0x3CE5 JUMP JUMPDEST SWAP1 POP PUSH1 0x0 DUP3 PUSH1 0x1 PUSH1 0x1 PUSH1 0xA0 SHL SUB AND PUSH4 0x95D89B41 PUSH1 0x40 MLOAD DUP2 PUSH4 0xFFFFFFFF AND PUSH1 0xE0 SHL DUP2 MSTORE PUSH1 0x4 ADD PUSH1 0x0 PUSH1 0x40 MLOAD DUP1 DUP4 SUB DUP2 DUP7 GAS STATICCALL ISZERO DUP1 ISZERO PUSH2 0x1CBA JUMPI RETURNDATASIZE PUSH1 0x0 DUP1 RETURNDATACOPY RETURNDATASIZE PUSH1 0x0 REVERT JUMPDEST POP POP POP POP PUSH1 0x40 MLOAD RETURNDATASIZE PUSH1 0x0 DUP3 RETURNDATACOPY PUSH1 0x1F RETURNDATASIZE SWAP1 DUP2 ADD PUSH1 0x1F NOT AND DUP3 ADD PUSH1 0x40 MSTORE PUSH2 0x1CE2 SWAP2 SWAP1 DUP2 ADD SWAP1 PUSH2 0x3D02 JUMP JUMPDEST SWAP1 POP PUSH1 0x0 DUP3 PUSH1 0x1 PUSH1 0x1 PUSH1 0xA0 SHL SUB AND PUSH4 0x95D89B41 PUSH1 0x40 MLOAD DUP2 PUSH4 0xFFFFFFFF AND PUSH1 0xE0 SHL DUP2 MSTORE PUSH1 0x4 ADD PUSH1 0x0 PUSH1 0x40 MLOAD DUP1 DUP4 SUB DUP2 DUP7 GAS STATICCALL ISZERO DUP1 ISZERO PUSH2 0x1D24 JUMPI RETURNDATASIZE PUSH1 0x0 DUP1 RETURNDATACOPY RETURNDATASIZE PUSH1 0x0 REVERT JUMPDEST POP POP POP POP PUSH1 0x40 MLOAD RETURNDATASIZE PUSH1 0x0 DUP3 RETURNDATACOPY PUSH1 0x1F RETURNDATASIZE SWAP1 DUP2 ADD PUSH1 0x1F NOT AND DUP3 ADD PUSH1 0x40 MSTORE PUSH2 0x1D4C SWAP2 SWAP1 DUP2 ADD SWAP1 PUSH2 0x3D02 JUMP JUMPDEST SWAP1 POP PUSH2 0x1DFF PUSH1 0x40 MLOAD DUP1 PUSH1 0xC0 ADD PUSH1 0x40 MSTORE DUP1 DUP5 DUP2 MSTORE PUSH1 0x20 ADD DUP4 DUP2 MSTORE PUSH1 0x20 ADD ADDRESS PUSH1 0x1 PUSH1 0x1 PUSH1 0xA0 SHL SUB AND DUP2 MSTORE PUSH1 0x20 ADD DUP9 PUSH1 0x20 ADD MLOAD PUSH1 0x2 SIGNEXTEND DUP2 MSTORE PUSH1 0x20 ADD DUP9 PUSH1 0x40 ADD MLOAD PUSH1 0x2 SIGNEXTEND DUP2 MSTORE PUSH1 0x20 ADD DUP8 PUSH1 0x1 PUSH1 0x1 PUSH1 0xA0 SHL SUB AND PUSH4 0xDDCA3F43 PUSH1 0x40 MLOAD DUP2 PUSH4 0xFFFFFFFF AND PUSH1 0xE0 SHL DUP2 MSTORE PUSH1 0x4 ADD PUSH1 0x20 PUSH1 0x40 MLOAD DUP1 DUP4 SUB DUP2 DUP7 GAS STATICCALL ISZERO DUP1 ISZERO PUSH2 0x1DCF JUMPI RETURNDATASIZE PUSH1 0x0 DUP1 RETURNDATACOPY RETURNDATASIZE PUSH1 0x0 REVERT JUMPDEST POP POP POP POP PUSH1 0x40 MLOAD RETURNDATASIZE PUSH1 0x1F NOT PUSH1 0x1F DUP3 ADD AND DUP3 ADD DUP1 PUSH1 0x40 MSTORE POP DUP2 ADD SWAP1 PUSH2 0x1DF3 SWAP2 SWAP1 PUSH2 0x3DAE JUMP JUMPDEST PUSH3 0xFFFFFF AND SWAP1 MSTORE PUSH2 0x2827 JUMP JUMPDEST SWAP9 SWAP8 POP POP POP POP POP POP POP POP JUMP JUMPDEST PUSH1 0x0 DUP1 DUP3 PUSH1 0x0 PUSH2 0x1E1A DUP3 PUSH2 0x120C JUMP JUMPDEST SWAP1 POP CALLER PUSH1 0x1 PUSH1 0x1 PUSH1 0xA0 SHL SUB DUP3 AND EQ DUP1 ISZERO SWAP1 PUSH2 0x1E59 JUMPI POP PUSH1 0x1 PUSH1 0x1 PUSH1 0xA0 SHL SUB DUP2 AND PUSH1 0x0 SWAP1 DUP2 MSTORE PUSH1 0x5 PUSH1 0x20 SWAP1 DUP2 MSTORE PUSH1 0x40 DUP1 DUP4 KECCAK256 CALLER DUP5 MSTORE SWAP1 SWAP2 MSTORE SWAP1 KECCAK256 SLOAD PUSH1 0xFF AND ISZERO JUMPDEST DUP1 ISZERO PUSH2 0x1E7C JUMPI POP PUSH1 0x0 DUP3 DUP2 MSTORE PUSH1 0x4 PUSH1 0x20 MSTORE PUSH1 0x40 SWAP1 KECCAK256 SLOAD PUSH1 0x1 PUSH1 0x1 PUSH1 0xA0 SHL SUB AND CALLER EQ ISZERO JUMPDEST ISZERO PUSH2 0x1E9A JUMPI PUSH1 0x40 MLOAD PUSH4 0xEA8E4EB5 PUSH1 0xE0 SHL DUP2 MSTORE PUSH1 0x4 ADD PUSH1 0x40 MLOAD DUP1 SWAP2 SUB SWAP1 REVERT JUMPDEST PUSH1 0x0 DUP6 DUP2 MSTORE PUSH1 0x9 PUSH1 0x20 SWAP1 DUP2 MSTORE PUSH1 0x40 SWAP2 DUP3 SWAP1 KECCAK256 DUP3 MLOAD PUSH1 0x60 DUP2 ADD DUP5 MSTORE SWAP1 SLOAD PUSH1 0x1 PUSH1 0x1 PUSH1 0xA0 SHL SUB DUP2 AND DUP1 DUP4 MSTORE PUSH1 0x1 PUSH1 0xA0 SHL DUP3 DIV PUSH1 0x2 SWAP1 DUP2 SIGNEXTEND SWAP5 DUP5 ADD SWAP5 SWAP1 SWAP5 MSTORE PUSH1 0x1 PUSH1 0xB8 SHL SWAP1 SWAP2 DIV SWAP1 SWAP3 SIGNEXTEND SWAP3 DUP2 ADD SWAP3 SWAP1 SWAP3 MSTORE PUSH2 0x1F05 JUMPI PUSH1 0x40 MLOAD PUSH4 0x5079FF75 PUSH1 0xE1 SHL DUP2 MSTORE PUSH1 0x4 ADD PUSH1 0x40 MLOAD DUP1 SWAP2 SUB SWAP1 REVERT JUMPDEST DUP1 MLOAD PUSH1 0x0 DUP1 PUSH1 0x1 PUSH1 0x1 PUSH1 0xA0 SHL SUB DUP4 AND PUSH4 0x514EA4BF PUSH2 0x1F22 DUP7 PUSH2 0x2470 JUMP JUMPDEST PUSH1 0x40 MLOAD DUP3 PUSH4 0xFFFFFFFF AND PUSH1 0xE0 SHL DUP2 MSTORE PUSH1 0x4 ADD PUSH2 0x1F40 SWAP2 DUP2 MSTORE PUSH1 0x20 ADD SWAP1 JUMP JUMPDEST PUSH1 0xA0 PUSH1 0x40 MLOAD DUP1 DUP4 SUB DUP2 DUP7 GAS STATICCALL ISZERO DUP1 ISZERO PUSH2 0x1F5D JUMPI RETURNDATASIZE PUSH1 0x0 DUP1 RETURNDATACOPY RETURNDATASIZE PUSH1 0x0 REVERT JUMPDEST POP POP POP POP PUSH1 0x40 MLOAD RETURNDATASIZE PUSH1 0x1F NOT PUSH1 0x1F DUP3 ADD AND DUP3 ADD DUP1 PUSH1 0x40 MSTORE POP DUP2 ADD SWAP1 PUSH2 0x1F81 SWAP2 SWAP1 PUSH2 0x3BA8 JUMP JUMPDEST PUSH1 0x20 DUP10 ADD MLOAD PUSH1 0x40 DUP1 DUP12 ADD MLOAD SWAP1 MLOAD PUSH4 0x9E3D67B PUSH1 0xE3 SHL DUP2 MSTORE CALLER PUSH1 0x4 DUP3 ADD MSTORE PUSH1 0x2 SWAP3 DUP4 SIGNEXTEND PUSH1 0x24 DUP3 ADD MSTORE SWAP2 SIGNEXTEND PUSH1 0x44 DUP3 ADD MSTORE PUSH1 0x1 PUSH1 0x1 PUSH1 0x80 SHL SUB DUP1 DUP5 AND PUSH1 0x64 DUP4 ADD MSTORE DUP3 AND PUSH1 0x84 DUP3 ADD MSTORE SWAP2 SWAP7 POP SWAP5 POP PUSH1 0x1 PUSH1 0x1 PUSH1 0xA0 SHL SUB DUP8 AND SWAP4 POP PUSH4 0x4F1EB3D8 SWAP3 POP PUSH1 0xA4 ADD SWAP1 POP PUSH1 0x40 DUP1 MLOAD DUP1 DUP4 SUB DUP2 PUSH1 0x0 DUP8 GAS CALL ISZERO DUP1 ISZERO PUSH2 0x2001 JUMPI RETURNDATASIZE PUSH1 0x0 DUP1 RETURNDATACOPY RETURNDATASIZE PUSH1 0x0 REVERT JUMPDEST POP POP POP POP PUSH1 0x40 MLOAD RETURNDATASIZE PUSH1 0x1F NOT PUSH1 0x1F DUP3 ADD AND DUP3 ADD DUP1 PUSH1 0x40 MSTORE POP DUP2 ADD SWAP1 PUSH2 0x2025 SWAP2 SWAP1 PUSH2 0x3DCB JUMP JUMPDEST SWAP1 SWAP11 SWAP1 SWAP10 POP SWAP8 POP POP POP POP POP POP POP POP JUMP JUMPDEST PUSH1 0x0 PUSH2 0x2043 DUP3 DUP5 ADD DUP5 PUSH2 0x3DFA JUMP JUMPDEST DUP1 MLOAD PUSH1 0x40 DUP1 DUP4 ADD MLOAD SWAP1 MLOAD PUSH4 0x23B872DD PUSH1 0xE0 SHL DUP2 MSTORE PUSH1 0x1 PUSH1 0x1 PUSH1 0xA0 SHL SUB SWAP2 DUP3 AND PUSH1 0x4 DUP3 ADD MSTORE CALLER PUSH1 0x24 DUP3 ADD MSTORE PUSH1 0x44 DUP2 ADD DUP10 SWAP1 MSTORE SWAP3 SWAP4 POP AND SWAP1 PUSH4 0x23B872DD SWAP1 PUSH1 0x64 ADD PUSH1 0x0 PUSH1 0x40 MLOAD DUP1 DUP4 SUB DUP2 PUSH1 0x0 DUP8 DUP1 EXTCODESIZE ISZERO DUP1 ISZERO PUSH2 0x209C JUMPI PUSH1 0x0 DUP1 REVERT JUMPDEST POP GAS CALL ISZERO DUP1 ISZERO PUSH2 0x20B0 JUMPI RETURNDATASIZE PUSH1 0x0 DUP1 RETURNDATACOPY RETURNDATASIZE PUSH1 0x0 REVERT JUMPDEST POP POP POP PUSH1 0x20 DUP3 ADD MLOAD PUSH1 0x40 DUP1 DUP5 ADD MLOAD SWAP1 MLOAD PUSH4 0x23B872DD PUSH1 0xE0 SHL DUP2 MSTORE PUSH1 0x1 PUSH1 0x1 PUSH1 0xA0 SHL SUB SWAP2 DUP3 AND PUSH1 0x4 DUP3 ADD MSTORE CALLER PUSH1 0x24 DUP3 ADD MSTORE PUSH1 0x44 DUP2 ADD DUP9 SWAP1 MSTORE SWAP2 AND SWAP2 POP PUSH4 0x23B872DD SWAP1 PUSH1 0x64 ADD PUSH1 0x0 PUSH1 0x40 MLOAD DUP1 DUP4 SUB DUP2 PUSH1 0x0 DUP8 DUP1 EXTCODESIZE ISZERO DUP1 ISZERO PUSH2 0x210E JUMPI PUSH1 0x0 DUP1 REVERT JUMPDEST POP GAS CALL ISZERO DUP1 ISZERO PUSH2 0x2122 JUMPI RETURNDATASIZE PUSH1 0x0 DUP1 RETURNDATACOPY RETURNDATASIZE PUSH1 0x0 REVERT JUMPDEST POP POP POP POP POP POP POP POP POP JUMP JUMPDEST PUSH1 0x8 SLOAD PUSH1 0x40 MLOAD PUSH4 0x175C1B23 PUSH1 0xE3 SHL DUP2 MSTORE PUSH1 0x1 PUSH1 0x1 PUSH1 0xA0 SHL SUB DUP12 DUP2 AND PUSH1 0x4 DUP4 ADD MSTORE DUP11 DUP2 AND PUSH1 0x24 DUP4 ADD MSTORE PUSH3 0xFFFFFF DUP11 AND PUSH1 0x44 DUP4 ADD MSTORE PUSH1 0x0 SWAP3 DUP4 SWAP3 SWAP2 AND SWAP1 PUSH4 0xBAE0D918 SWAP1 PUSH1 0x64 ADD PUSH1 0x20 PUSH1 0x40 MLOAD DUP1 DUP4 SUB DUP2 DUP7 GAS STATICCALL ISZERO DUP1 ISZERO PUSH2 0x218E JUMPI RETURNDATASIZE PUSH1 0x0 DUP1 RETURNDATACOPY RETURNDATASIZE PUSH1 0x0 REVERT JUMPDEST POP POP POP POP PUSH1 0x40 MLOAD RETURNDATASIZE PUSH1 0x1F NOT PUSH1 0x1F DUP3 ADD AND DUP3 ADD DUP1 PUSH1 0x40 MSTORE POP DUP2 ADD SWAP1 PUSH2 0x21B2 SWAP2 SWAP1 PUSH2 0x3CE5 JUMP JUMPDEST SWAP1 POP PUSH1 0x0 DUP1 PUSH1 0x0 PUSH2 0x2203 PUSH1 0x40 MLOAD DUP1 PUSH1 0xE0 ADD PUSH1 0x40 MSTORE DUP1 DUP7 PUSH1 0x1 PUSH1 0x1 PUSH1 0xA0 SHL SUB AND DUP2 MSTORE PUSH1 0x20 ADD DUP14 PUSH1 0x2 SIGNEXTEND DUP2 MSTORE PUSH1 0x20 ADD DUP13 PUSH1 0x2 SIGNEXTEND DUP2 MSTORE PUSH1 0x20 ADD DUP12 DUP2 MSTORE PUSH1 0x20 ADD DUP11 DUP2 MSTORE PUSH1 0x20 ADD DUP10 DUP2 MSTORE PUSH1 0x20 ADD DUP9 DUP2 MSTORE POP PUSH2 0x258D JUMP JUMPDEST PUSH1 0x7 DUP1 SLOAD SWAP4 SWAP7 POP SWAP2 SWAP5 POP SWAP3 POP PUSH1 0x0 PUSH2 0x221A DUP4 PUSH2 0x3C20 JUMP JUMPDEST SWAP2 SWAP1 POP SSTORE SWAP5 POP PUSH2 0x222A DUP16 DUP7 PUSH2 0x2913 JUMP JUMPDEST PUSH1 0x6 DUP1 SLOAD SWAP1 PUSH1 0x0 PUSH2 0x223A DUP4 PUSH2 0x3C20 JUMP JUMPDEST SWAP1 SWAP2 SSTORE POP POP PUSH1 0x40 DUP1 MLOAD PUSH1 0x60 DUP2 ADD DUP3 MSTORE PUSH1 0x1 PUSH1 0x1 PUSH1 0xA0 SHL SUB DUP1 DUP8 AND DUP3 MSTORE PUSH1 0x2 DUP15 DUP2 SIGNEXTEND PUSH1 0x20 DUP1 DUP6 ADD SWAP2 DUP3 MSTORE SWAP2 DUP16 SWAP1 SIGNEXTEND DUP5 DUP7 ADD SWAP1 DUP2 MSTORE PUSH1 0x0 DUP12 DUP2 MSTORE PUSH1 0x9 DUP5 MSTORE DUP7 DUP2 KECCAK256 DUP7 MLOAD DUP2 SLOAD SWAP5 MLOAD SWAP4 MLOAD PUSH3 0xFFFFFF SWAP1 DUP2 AND PUSH1 0x1 PUSH1 0xB8 SHL MUL PUSH3 0xFFFFFF PUSH1 0xB8 SHL NOT SWAP2 SWAP1 SWAP6 AND PUSH1 0x1 PUSH1 0xA0 SHL MUL PUSH1 0x1 PUSH1 0x1 PUSH1 0xB8 SHL SUB NOT SWAP1 SWAP7 AND SWAP2 SWAP1 SWAP8 AND OR SWAP4 SWAP1 SWAP4 OR SWAP5 SWAP1 SWAP5 AND OR SWAP1 SSTORE CALLER DUP3 MSTORE PUSH1 0xA DUP2 MSTORE DUP4 DUP3 KECCAK256 DUP1 SLOAD PUSH1 0x1 DUP2 ADD DUP3 SSTORE SWAP1 DUP4 MSTORE SWAP2 KECCAK256 ADD DUP8 SWAP1 SSTORE SWAP1 MLOAD DUP7 SWAP1 PUSH32 0x22FB3C4728E7CC5DD64003F4267D8FB1EB2580F5598050868300738A823D7047 SWAP1 PUSH2 0x2328 SWAP1 DUP8 SWAP1 DUP8 SWAP1 DUP8 SWAP1 PUSH1 0x1 PUSH1 0x1 PUSH1 0x80 SHL SUB SWAP4 SWAP1 SWAP4 AND DUP4 MSTORE PUSH1 0x20 DUP4 ADD SWAP2 SWAP1 SWAP2 MSTORE PUSH1 0x40 DUP3 ADD MSTORE PUSH1 0x60 ADD SWAP1 JUMP JUMPDEST PUSH1 0x40 MLOAD DUP1 SWAP2 SUB SWAP1 LOG2 POP POP POP POP POP SWAP11 SWAP10 POP POP POP POP POP POP POP POP POP POP JUMP JUMPDEST PUSH1 0xA PUSH1 0x20 MSTORE DUP2 PUSH1 0x0 MSTORE PUSH1 0x40 PUSH1 0x0 KECCAK256 DUP2 DUP2 SLOAD DUP2 LT PUSH2 0x235F JUMPI PUSH1 0x0 DUP1 REVERT JUMPDEST SWAP1 PUSH1 0x0 MSTORE PUSH1 0x20 PUSH1 0x0 KECCAK256 ADD PUSH1 0x0 SWAP2 POP SWAP2 POP POP SLOAD DUP2 JUMP JUMPDEST PUSH1 0x0 DUP2 DUP2 MSTORE PUSH1 0x9 PUSH1 0x20 SWAP1 DUP2 MSTORE PUSH1 0x40 DUP1 DUP4 KECCAK256 DUP2 MLOAD PUSH1 0x60 DUP2 ADD DUP4 MSTORE SWAP1 SLOAD PUSH1 0x1 PUSH1 0x1 PUSH1 0xA0 SHL SUB DUP2 AND DUP1 DUP4 MSTORE PUSH1 0x1 PUSH1 0xA0 SHL DUP3 DIV PUSH1 0x2 SWAP1 DUP2 SIGNEXTEND SWAP6 DUP5 ADD SWAP6 SWAP1 SWAP6 MSTORE PUSH1 0x1 PUSH1 0xB8 SHL SWAP1 SWAP2 DIV SWAP1 SWAP4 SIGNEXTEND SWAP2 DUP2 ADD SWAP2 SWAP1 SWAP2 MSTORE DUP3 SWAP2 PUSH2 0x23E0 JUMPI PUSH1 0x40 MLOAD PUSH4 0x5079FF75 PUSH1 0xE1 SHL DUP2 MSTORE PUSH1 0x4 ADD PUSH1 0x40 MLOAD DUP1 SWAP2 SUB SWAP1 REVERT JUMPDEST DUP1 MLOAD PUSH1 0x20 DUP3 ADD MLOAD PUSH1 0x40 DUP1 DUP5 ADD MLOAD SWAP1 MLOAD PUSH4 0x6A234AE9 PUSH1 0xE0 SHL DUP2 MSTORE PUSH1 0x2 SWAP3 DUP4 SIGNEXTEND PUSH1 0x4 DUP3 ADD MSTORE SWAP2 SIGNEXTEND PUSH1 0x24 DUP3 ADD MSTORE ADDRESS PUSH1 0x44 DUP3 ADD MSTORE PUSH1 0x1 PUSH1 0x1 PUSH1 0xA0 SHL SUB DUP3 AND SWAP1 PUSH4 0x6A234AE9 SWAP1 PUSH1 0x64 ADD PUSH1 0x40 DUP1 MLOAD DUP1 DUP4 SUB DUP2 DUP7 GAS STATICCALL ISZERO DUP1 ISZERO PUSH2 0x2440 JUMPI RETURNDATASIZE PUSH1 0x0 DUP1 RETURNDATACOPY RETURNDATASIZE PUSH1 0x0 REVERT JUMPDEST POP POP POP POP PUSH1 0x40 MLOAD RETURNDATASIZE PUSH1 0x1F NOT PUSH1 0x1F DUP3 ADD AND DUP3 ADD DUP1 PUSH1 0x40 MSTORE POP DUP2 ADD SWAP1 PUSH2 0x2464 SWAP2 SWAP1 PUSH2 0x3C6D JUMP JUMPDEST SWAP1 SWAP7 SWAP1 SWAP6 POP SWAP4 POP POP POP POP JUMP JUMPDEST PUSH1 0x20 DUP2 DUP2 ADD MLOAD PUSH1 0x40 SWAP3 DUP4 ADD MLOAD DUP4 MLOAD ADDRESS PUSH1 0x60 SHL PUSH12 0xFFFFFFFFFFFFFFFFFFFFFFFF NOT AND DUP2 DUP6 ADD MSTORE PUSH1 0xE8 SWAP3 DUP4 SHL PUSH1 0x34 DUP3 ADD MSTORE SWAP2 SHL PUSH1 0x37 DUP3 ADD MSTORE DUP3 MLOAD PUSH1 0x1A DUP2 DUP4 SUB ADD DUP2 MSTORE PUSH1 0x3A SWAP1 SWAP2 ADD SWAP1 SWAP3 MSTORE DUP2 MLOAD SWAP2 ADD KECCAK256 SWAP1 JUMP JUMPDEST PUSH1 0x0 DUP2 DUP2 MSTORE PUSH1 0x2 PUSH1 0x20 MSTORE PUSH1 0x40 SWAP1 KECCAK256 SLOAD PUSH1 0x1 PUSH1 0x1 PUSH1 0xA0 SHL SUB AND DUP1 PUSH2 0x2512 JUMPI PUSH1 0x40 MLOAD PUSH3 0x461BCD PUSH1 0xE5 SHL DUP2 MSTORE PUSH1 0x20 PUSH1 0x4 DUP3 ADD MSTORE PUSH1 0xA PUSH1 0x24 DUP3 ADD MSTORE PUSH10 0x1393D517D35253951151 PUSH1 0xB2 SHL PUSH1 0x44 DUP3 ADD MSTORE PUSH1 0x64 ADD PUSH2 0x732 JUMP JUMPDEST PUSH1 0x1 PUSH1 0x1 PUSH1 0xA0 SHL SUB DUP2 AND PUSH1 0x0 DUP2 DUP2 MSTORE PUSH1 0x3 PUSH1 0x20 SWAP1 DUP2 MSTORE PUSH1 0x40 DUP1 DUP4 KECCAK256 DUP1 SLOAD PUSH1 0x0 NOT ADD SWAP1 SSTORE DUP6 DUP4 MSTORE PUSH1 0x2 DUP3 MSTORE DUP1 DUP4 KECCAK256 DUP1 SLOAD PUSH1 0x1 PUSH1 0x1 PUSH1 0xA0 SHL SUB NOT SWAP1 DUP2 AND SWAP1 SWAP2 SSTORE PUSH1 0x4 SWAP1 SWAP3 MSTORE DUP1 DUP4 KECCAK256 DUP1 SLOAD SWAP1 SWAP3 AND SWAP1 SWAP2 SSTORE MLOAD DUP5 SWAP3 SWAP1 PUSH32 0xDDF252AD1BE2C89B69C2B068FC378DAA952BA7F163C4A11628F55A4DF523B3EF SWAP1 DUP4 SWAP1 LOG4 POP POP JUMP JUMPDEST PUSH1 0x0 DUP1 PUSH1 0x0 DUP1 DUP5 PUSH1 0x0 ADD MLOAD PUSH1 0x1 PUSH1 0x1 PUSH1 0xA0 SHL SUB AND PUSH4 0x3850C7BD PUSH1 0x40 MLOAD DUP2 PUSH4 0xFFFFFFFF AND PUSH1 0xE0 SHL DUP2 MSTORE PUSH1 0x4 ADD PUSH1 0xA0 PUSH1 0x40 MLOAD DUP1 DUP4 SUB DUP2 DUP7 GAS STATICCALL ISZERO DUP1 ISZERO PUSH2 0x25D5 JUMPI RETURNDATASIZE PUSH1 0x0 DUP1 RETURNDATACOPY RETURNDATASIZE PUSH1 0x0 REVERT JUMPDEST POP POP POP POP PUSH1 0x40 MLOAD RETURNDATASIZE PUSH1 0x1F NOT PUSH1 0x1F DUP3 ADD AND DUP3 ADD DUP1 PUSH1 0x40 MSTORE POP DUP2 ADD SWAP1 PUSH2 0x25F9 SWAP2 SWAP1 PUSH2 0x3E7D JUMP JUMPDEST POP POP POP POP SWAP1 POP PUSH2 0x262C DUP2 PUSH2 0x2610 DUP8 PUSH1 0x20 ADD MLOAD PUSH2 0x2A1E JUMP JUMPDEST PUSH2 0x261D DUP9 PUSH1 0x40 ADD MLOAD PUSH2 0x2A1E JUMP JUMPDEST DUP9 PUSH1 0x60 ADD MLOAD DUP10 PUSH1 0x80 ADD MLOAD PUSH2 0x2E40 JUMP JUMPDEST SWAP4 POP DUP5 PUSH1 0x0 ADD MLOAD PUSH1 0x1 PUSH1 0x1 PUSH1 0xA0 SHL SUB AND PUSH4 0x3C8A7D8D ADDRESS DUP8 PUSH1 0x20 ADD MLOAD DUP9 PUSH1 0x40 ADD MLOAD DUP9 PUSH1 0x40 MLOAD DUP1 PUSH1 0x60 ADD PUSH1 0x40 MSTORE DUP1 DUP13 PUSH1 0x0 ADD MLOAD PUSH1 0x1 PUSH1 0x1 PUSH1 0xA0 SHL SUB AND PUSH4 0xDFE1681 PUSH1 0x40 MLOAD DUP2 PUSH4 0xFFFFFFFF AND PUSH1 0xE0 SHL DUP2 MSTORE PUSH1 0x4 ADD PUSH1 0x20 PUSH1 0x40 MLOAD DUP1 DUP4 SUB DUP2 DUP7 GAS STATICCALL ISZERO DUP1 ISZERO PUSH2 0x269A JUMPI RETURNDATASIZE PUSH1 0x0 DUP1 RETURNDATACOPY RETURNDATASIZE PUSH1 0x0 REVERT JUMPDEST POP POP POP POP PUSH1 0x40 MLOAD RETURNDATASIZE PUSH1 0x1F NOT PUSH1 0x1F DUP3 ADD AND DUP3 ADD DUP1 PUSH1 0x40 MSTORE POP DUP2 ADD SWAP1 PUSH2 0x26BE SWAP2 SWAP1 PUSH2 0x3CE5 JUMP JUMPDEST PUSH1 0x1 PUSH1 0x1 PUSH1 0xA0 SHL SUB AND DUP2 MSTORE PUSH1 0x20 ADD DUP13 PUSH1 0x0 ADD MLOAD PUSH1 0x1 PUSH1 0x1 PUSH1 0xA0 SHL SUB AND PUSH4 0xD21220A7 PUSH1 0x40 MLOAD DUP2 PUSH4 0xFFFFFFFF AND PUSH1 0xE0 SHL DUP2 MSTORE PUSH1 0x4 ADD PUSH1 0x20 PUSH1 0x40 MLOAD DUP1 DUP4 SUB DUP2 DUP7 GAS STATICCALL ISZERO DUP1 ISZERO PUSH2 0x270E JUMPI RETURNDATASIZE PUSH1 0x0 DUP1 RETURNDATACOPY RETURNDATASIZE PUSH1 0x0 REVERT JUMPDEST POP POP POP POP PUSH1 0x40 MLOAD RETURNDATASIZE PUSH1 0x1F NOT PUSH1 0x1F DUP3 ADD AND DUP3 ADD DUP1 PUSH1 0x40 MSTORE POP DUP2 ADD SWAP1 PUSH2 0x2732 SWAP2 SWAP1 PUSH2 0x3CE5 JUMP JUMPDEST PUSH1 0x1 PUSH1 0x1 PUSH1 0xA0 SHL SUB SWAP1 DUP2 AND DUP3 MSTORE CALLER PUSH1 0x20 SWAP3 DUP4 ADD MSTORE PUSH1 0x40 DUP1 MLOAD DUP5 MLOAD DUP4 AND DUP2 DUP6 ADD MSTORE SWAP3 DUP5 ADD MLOAD DUP3 AND DUP4 DUP3 ADD MSTORE SWAP3 SWAP1 SWAP3 ADD MLOAD SWAP1 SWAP2 AND PUSH1 0x60 DUP3 ADD MSTORE PUSH1 0x80 ADD PUSH1 0x40 MLOAD PUSH1 0x20 DUP2 DUP4 SUB SUB DUP2 MSTORE SWAP1 PUSH1 0x40 MSTORE PUSH1 0x40 MLOAD DUP7 PUSH4 0xFFFFFFFF AND PUSH1 0xE0 SHL DUP2 MSTORE PUSH1 0x4 ADD PUSH2 0x279B SWAP6 SWAP5 SWAP4 SWAP3 SWAP2 SWAP1 PUSH2 0x3EE7 JUMP JUMPDEST PUSH1 0x40 DUP1 MLOAD DUP1 DUP4 SUB DUP2 PUSH1 0x0 DUP8 GAS CALL ISZERO DUP1 ISZERO PUSH2 0x27B9 JUMPI RETURNDATASIZE PUSH1 0x0 DUP1 RETURNDATACOPY RETURNDATASIZE PUSH1 0x0 REVERT JUMPDEST POP POP POP POP PUSH1 0x40 MLOAD RETURNDATASIZE PUSH1 0x1F NOT PUSH1 0x1F DUP3 ADD AND DUP3 ADD DUP1 PUSH1 0x40 MSTORE POP DUP2 ADD SWAP1 PUSH2 0x27DD SWAP2 SWAP1 PUSH2 0x3C6D JUMP JUMPDEST PUSH1 0xA0 DUP8 ADD MLOAD SWAP2 SWAP5 POP SWAP3 POP DUP4 LT DUP1 PUSH2 0x27F7 JUMPI POP DUP5 PUSH1 0xC0 ADD MLOAD DUP3 LT JUMPDEST ISZERO PUSH2 0x281F JUMPI PUSH1 0x40 MLOAD PUSH4 0xA8F6C8D PUSH1 0xE4 SHL DUP2 MSTORE PUSH1 0x4 DUP2 ADD DUP5 SWAP1 MSTORE PUSH1 0x24 DUP2 ADD DUP4 SWAP1 MSTORE PUSH1 0x44 ADD PUSH2 0x732 JUMP JUMPDEST POP SWAP2 SWAP4 SWAP1 SWAP3 POP JUMP JUMPDEST PUSH1 0x60 PUSH1 0x0 PUSH2 0x2842 DUP4 PUSH1 0x40 ADD MLOAD DUP5 PUSH1 0x60 ADD MLOAD DUP6 PUSH1 0x80 ADD MLOAD PUSH2 0x2F03 JUMP JUMPDEST PUSH2 0x2859 DUP5 PUSH1 0x0 ADD MLOAD DUP6 PUSH1 0x20 ADD MLOAD DUP7 PUSH1 0xA0 ADD MLOAD PUSH2 0x2F9F JUMP JUMPDEST PUSH2 0x286B DUP6 PUSH1 0x60 ADD MLOAD DUP7 PUSH1 0x80 ADD MLOAD PUSH2 0x2FDB JUMP JUMPDEST PUSH1 0x40 MLOAD PUSH1 0x20 ADD PUSH2 0x287D SWAP4 SWAP3 SWAP2 SWAP1 PUSH2 0x3F45 JUMP JUMPDEST PUSH1 0x40 MLOAD PUSH1 0x20 DUP2 DUP4 SUB SUB DUP2 MSTORE SWAP1 PUSH1 0x40 MSTORE SWAP1 POP PUSH1 0x0 PUSH2 0x28B1 DUP5 PUSH1 0x0 ADD MLOAD DUP6 PUSH1 0x20 ADD MLOAD DUP7 PUSH1 0xA0 ADD MLOAD DUP8 PUSH1 0x60 ADD MLOAD DUP9 PUSH1 0x80 ADD MLOAD PUSH2 0x3017 JUMP JUMPDEST SWAP1 POP PUSH1 0x0 DUP2 PUSH2 0x28BF DUP5 PUSH2 0x3069 JUMP JUMPDEST PUSH1 0x40 MLOAD PUSH1 0x20 ADD PUSH2 0x28D0 SWAP3 SWAP2 SWAP1 PUSH2 0x409A JUMP JUMPDEST PUSH1 0x40 MLOAD PUSH1 0x20 DUP2 DUP4 SUB SUB DUP2 MSTORE SWAP1 PUSH1 0x40 MSTORE SWAP1 POP PUSH2 0x28EA DUP2 PUSH2 0x3069 JUMP JUMPDEST PUSH1 0x40 MLOAD PUSH1 0x20 ADD PUSH2 0x28FA SWAP2 SWAP1 PUSH2 0x415A JUMP JUMPDEST PUSH1 0x40 MLOAD PUSH1 0x20 DUP2 DUP4 SUB SUB DUP2 MSTORE SWAP1 PUSH1 0x40 MSTORE SWAP4 POP POP POP POP SWAP2 SWAP1 POP JUMP JUMPDEST PUSH1 0x1 PUSH1 0x1 PUSH1 0xA0 SHL SUB DUP3 AND PUSH2 0x295D JUMPI PUSH1 0x40 MLOAD PUSH3 0x461BCD PUSH1 0xE5 SHL DUP2 MSTORE PUSH1 0x20 PUSH1 0x4 DUP3 ADD MSTORE PUSH1 0x11 PUSH1 0x24 DUP3 ADD MSTORE PUSH17 0x1253959053125117D49150D25412515395 PUSH1 0x7A SHL PUSH1 0x44 DUP3 ADD MSTORE PUSH1 0x64 ADD PUSH2 0x732 JUMP JUMPDEST PUSH1 0x0 DUP2 DUP2 MSTORE PUSH1 0x2 PUSH1 0x20 MSTORE PUSH1 0x40 SWAP1 KECCAK256 SLOAD PUSH1 0x1 PUSH1 0x1 PUSH1 0xA0 SHL SUB AND ISZERO PUSH2 0x29B3 JUMPI PUSH1 0x40 MLOAD PUSH3 0x461BCD PUSH1 0xE5 SHL DUP2 MSTORE PUSH1 0x20 PUSH1 0x4 DUP3 ADD MSTORE PUSH1 0xE PUSH1 0x24 DUP3 ADD MSTORE PUSH14 0x1053149150511657D35253951151 PUSH1 0x92 SHL PUSH1 0x44 DUP3 ADD MSTORE PUSH1 0x64 ADD PUSH2 0x732 JUMP JUMPDEST PUSH1 0x1 PUSH1 0x1 PUSH1 0xA0 SHL SUB DUP3 AND PUSH1 0x0 DUP2 DUP2 MSTORE PUSH1 0x3 PUSH1 0x20 SWAP1 DUP2 MSTORE PUSH1 0x40 DUP1 DUP4 KECCAK256 DUP1 SLOAD PUSH1 0x1 ADD SWAP1 SSTORE DUP5 DUP4 MSTORE PUSH1 0x2 SWAP1 SWAP2 MSTORE DUP1 DUP3 KECCAK256 DUP1 SLOAD PUSH1 0x1 PUSH1 0x1 PUSH1 0xA0 SHL SUB NOT AND DUP5 OR SWAP1 SSTORE MLOAD DUP4 SWAP3 SWAP2 SWAP1 PUSH32 0xDDF252AD1BE2C89B69C2B068FC378DAA952BA7F163C4A11628F55A4DF523B3EF SWAP1 DUP3 SWAP1 LOG4 POP POP JUMP JUMPDEST PUSH1 0x0 DUP1 PUSH1 0x0 DUP4 PUSH1 0x2 SIGNEXTEND SLT PUSH2 0x2A35 JUMPI DUP3 PUSH1 0x2 SIGNEXTEND PUSH2 0x2A42 JUMP JUMPDEST DUP3 PUSH1 0x2 SIGNEXTEND PUSH2 0x2A42 SWAP1 PUSH2 0x419F JUMP JUMPDEST SWAP1 POP PUSH2 0x2A51 PUSH3 0xD89E7 NOT PUSH2 0x41BB JUMP JUMPDEST PUSH3 0xFFFFFF AND DUP2 GT ISZERO PUSH2 0x2A89 JUMPI PUSH1 0x40 MLOAD PUSH3 0x461BCD PUSH1 0xE5 SHL DUP2 MSTORE PUSH1 0x20 PUSH1 0x4 DUP3 ADD MSTORE PUSH1 0x1 PUSH1 0x24 DUP3 ADD MSTORE PUSH1 0x15 PUSH1 0xFA SHL PUSH1 0x44 DUP3 ADD MSTORE PUSH1 0x64 ADD PUSH2 0x732 JUMP JUMPDEST PUSH1 0x0 DUP2 PUSH1 0x1 AND PUSH1 0x0 SUB PUSH2 0x2AA0 JUMPI PUSH1 0x1 PUSH1 0x80 SHL PUSH2 0x2AB2 JUMP JUMPDEST PUSH16 0xFFFCB933BD6FAD37AA2D162D1A594001 JUMPDEST PUSH17 0xFFFFFFFFFFFFFFFFFFFFFFFFFFFFFFFFFF AND SWAP1 POP PUSH1 0x2 DUP3 AND ISZERO PUSH2 0x2AF1 JUMPI PUSH1 0x80 PUSH2 0x2AEC DUP3 PUSH16 0xFFF97272373D413259A46990580E213A PUSH2 0x41DD JUMP JUMPDEST SWAP1 SHR SWAP1 POP JUMPDEST PUSH1 0x4 DUP3 AND ISZERO PUSH2 0x2B1B JUMPI PUSH1 0x80 PUSH2 0x2B16 DUP3 PUSH16 0xFFF2E50F5F656932EF12357CF3C7FDCC PUSH2 0x41DD JUMP JUMPDEST SWAP1 SHR SWAP1 POP JUMPDEST PUSH1 0x8 DUP3 AND ISZERO PUSH2 0x2B45 JUMPI PUSH1 0x80 PUSH2 0x2B40 DUP3 PUSH16 0xFFE5CACA7E10E4E61C3624EAA0941CD0 PUSH2 0x41DD JUMP JUMPDEST SWAP1 SHR SWAP1 POP JUMPDEST PUSH1 0x10 DUP3 AND ISZERO PUSH2 0x2B6F JUMPI PUSH1 0x80 PUSH2 0x2B6A DUP3 PUSH16 0xFFCB9843D60F6159C9DB58835C926644 PUSH2 0x41DD JUMP JUMPDEST SWAP1 SHR SWAP1 POP JUMPDEST PUSH1 0x20 DUP3 AND ISZERO PUSH2 0x2B99 JUMPI PUSH1 0x80 PUSH2 0x2B94 DUP3 PUSH16 0xFF973B41FA98C081472E6896DFB254C0 PUSH2 0x41DD JUMP JUMPDEST SWAP1 SHR SWAP1 POP JUMPDEST PUSH1 0x40 DUP3 AND ISZERO PUSH2 0x2BC3 JUMPI PUSH1 0x80 PUSH2 0x2BBE DUP3 PUSH16 0xFF2EA16466C96A3843EC78B326B52861 PUSH2 0x41DD JUMP JUMPDEST SWAP1 SHR SWAP1 POP JUMPDEST PUSH1 0x80 DUP3 AND ISZERO PUSH2 0x2BED JUMPI PUSH1 0x80 PUSH2 0x2BE8 DUP3 PUSH16 0xFE5DEE046A99A2A811C461F1969C3053 PUSH2 0x41DD JUMP JUMPDEST SWAP1 SHR SWAP1 POP JUMPDEST PUSH2 0x100 DUP3 AND ISZERO PUSH2 0x2C18 JUMPI PUSH1 0x80 PUSH2 0x2C13 DUP3 PUSH16 0xFCBE86C7900A88AEDCFFC83B479AA3A4 PUSH2 0x41DD JUMP JUMPDEST SWAP1 SHR SWAP1 POP JUMPDEST PUSH2 0x200 DUP3 AND ISZERO PUSH2 0x2C43 JUMPI PUSH1 0x80 PUSH2 0x2C3E DUP3 PUSH16 0xF987A7253AC413176F2B074CF7815E54 PUSH2 0x41DD JUMP JUMPDEST SWAP1 SHR SWAP1 POP JUMPDEST PUSH2 0x400 DUP3 AND ISZERO PUSH2 0x2C6E JUMPI PUSH1 0x80 PUSH2 0x2C69 DUP3 PUSH16 0xF3392B0822B70005940C7A398E4B70F3 PUSH2 0x41DD JUMP JUMPDEST SWAP1 SHR SWAP1 POP JUMPDEST PUSH2 0x800 DUP3 AND ISZERO PUSH2 0x2C99 JUMPI PUSH1 0x80 PUSH2 0x2C94 DUP3 PUSH16 0xE7159475A2C29B7443B29C7FA6E889D9 PUSH2 0x41DD JUMP JUMPDEST SWAP1 SHR SWAP1 POP JUMPDEST PUSH2 0x1000 DUP3 AND ISZERO PUSH2 0x2CC4 JUMPI PUSH1 0x80 PUSH2 0x2CBF DUP3 PUSH16 0xD097F3BDFD2022B8845AD8F792AA5825 PUSH2 0x41DD JUMP JUMPDEST SWAP1 SHR SWAP1 POP JUMPDEST PUSH2 0x2000 DUP3 AND ISZERO PUSH2 0x2CEF JUMPI PUSH1 0x80 PUSH2 0x2CEA DUP3 PUSH16 0xA9F746462D870FDF8A65DC1F90E061E5 PUSH2 0x41DD JUMP JUMPDEST SWAP1 SHR SWAP1 POP JUMPDEST PUSH2 0x4000 DUP3 AND ISZERO PUSH2 0x2D1A JUMPI PUSH1 0x80 PUSH2 0x2D15 DUP3 PUSH16 0x70D869A156D2A1B890BB3DF62BAF32F7 PUSH2 0x41DD JUMP JUMPDEST SWAP1 SHR SWAP1 POP JUMPDEST PUSH2 0x8000 DUP3 AND ISZERO PUSH2 0x2D45 JUMPI PUSH1 0x80 PUSH2 0x2D40 DUP3 PUSH16 0x31BE135F97D08FD981231505542FCFA6 PUSH2 0x41DD JUMP JUMPDEST SWAP1 SHR SWAP1 POP JUMPDEST PUSH3 0x10000 DUP3 AND ISZERO PUSH2 0x2D71 JUMPI PUSH1 0x80 PUSH2 0x2D6C DUP3 PUSH16 0x9AA508B5B7A84E1C677DE54F3E99BC9 PUSH2 0x41DD JUMP JUMPDEST SWAP1 SHR SWAP1 POP JUMPDEST PUSH3 0x20000 DUP3 AND ISZERO PUSH2 0x2D9C JUMPI PUSH1 0x80 PUSH2 0x2D97 DUP3 PUSH15 0x5D6AF8DEDB81196699C329225EE604 PUSH2 0x41DD JUMP JUMPDEST SWAP1 SHR SWAP1 POP JUMPDEST PUSH3 0x40000 DUP3 AND ISZERO PUSH2 0x2DC6 JUMPI PUSH1 0x80 PUSH2 0x2DC1 DUP3 PUSH14 0x2216E584F5FA1EA926041BEDFE98 PUSH2 0x41DD JUMP JUMPDEST SWAP1 SHR SWAP1 POP JUMPDEST PUSH3 0x80000 DUP3 AND ISZERO PUSH2 0x2DEE JUMPI PUSH1 0x80 PUSH2 0x2DE9 DUP3 PUSH12 0x48A170391F7DC42444E8FA2 PUSH2 0x41DD JUMP JUMPDEST SWAP1 SHR SWAP1 POP JUMPDEST PUSH1 0x0 DUP5 PUSH1 0x2 SIGNEXTEND SGT ISZERO PUSH2 0x2E09 JUMPI PUSH2 0x2E06 DUP2 PUSH1 0x0 NOT PUSH2 0x420A JUMP JUMPDEST SWAP1 POP JUMPDEST PUSH2 0x2E18 PUSH5 0x100000000 DUP3 PUSH2 0x421E JUMP JUMPDEST ISZERO PUSH2 0x2E24 JUMPI PUSH1 0x1 PUSH2 0x2E27 JUMP JUMPDEST PUSH1 0x0 JUMPDEST PUSH2 0x2E38 SWAP1 PUSH1 0xFF AND PUSH1 0x20 DUP4 SWAP1 SHR PUSH2 0x4232 JUMP JUMPDEST SWAP5 SWAP4 POP POP POP POP JUMP JUMPDEST PUSH1 0x0 DUP4 PUSH1 0x1 PUSH1 0x1 PUSH1 0xA0 SHL SUB AND DUP6 PUSH1 0x1 PUSH1 0x1 PUSH1 0xA0 SHL SUB AND GT ISZERO PUSH2 0x2E60 JUMPI SWAP3 SWAP4 SWAP3 JUMPDEST DUP5 PUSH1 0x1 PUSH1 0x1 PUSH1 0xA0 SHL SUB AND DUP7 PUSH1 0x1 PUSH1 0x1 PUSH1 0xA0 SHL SUB AND GT PUSH2 0x2E8B JUMPI PUSH2 0x2E84 DUP6 DUP6 DUP6 PUSH2 0x31BA JUMP JUMPDEST SWAP1 POP PUSH2 0x2EFA JUMP JUMPDEST DUP4 PUSH1 0x1 PUSH1 0x1 PUSH1 0xA0 SHL SUB AND DUP7 PUSH1 0x1 PUSH1 0x1 PUSH1 0xA0 SHL SUB AND GT PUSH2 0x2EEC JUMPI PUSH1 0x0 PUSH2 0x2EB1 DUP8 DUP7 DUP7 PUSH2 0x31BA JUMP JUMPDEST SWAP1 POP PUSH1 0x0 PUSH2 0x2EC0 DUP8 DUP10 DUP7 PUSH2 0x321C JUMP JUMPDEST SWAP1 POP DUP1 PUSH1 0x1 PUSH1 0x1 PUSH1 0x80 SHL SUB AND DUP3 PUSH1 0x1 PUSH1 0x1 PUSH1 0x80 SHL SUB AND LT PUSH2 0x2EE1 JUMPI DUP1 PUSH2 0x2EE3 JUMP JUMPDEST DUP2 JUMPDEST SWAP3 POP POP POP PUSH2 0x2EFA JUMP JUMPDEST PUSH2 0x2EF7 DUP6 DUP6 DUP5 PUSH2 0x321C JUMP JUMPDEST SWAP1 POP JUMPDEST SWAP6 SWAP5 POP POP POP POP POP JUMP JUMPDEST PUSH1 0x40 MLOAD PUSH1 0x60 DUP5 DUP2 SHL PUSH12 0xFFFFFFFFFFFFFFFFFFFFFFFF NOT AND PUSH1 0x20 DUP4 ADD MSTORE PUSH1 0xE8 DUP5 DUP2 SHL PUSH1 0x34 DUP5 ADD MSTORE DUP4 SWAP1 SHL PUSH1 0x37 DUP4 ADD MSTORE SWAP1 PUSH1 0x0 SWAP1 PUSH1 0x3A ADD PUSH1 0x40 DUP1 MLOAD PUSH1 0x1F NOT DUP2 DUP5 SUB ADD DUP2 MSTORE SWAP2 SWAP1 MSTORE DUP1 MLOAD PUSH1 0x20 SWAP1 SWAP2 ADD KECCAK256 SWAP1 POP PUSH1 0x0 PUSH2 0x2F60 PUSH2 0x168 DUP4 PUSH2 0x421E JUMP JUMPDEST SWAP1 POP PUSH2 0x2F6B DUP2 PUSH2 0x324F JUMP JUMPDEST PUSH2 0x2F74 DUP3 PUSH2 0x324F JUMP JUMPDEST PUSH1 0x40 MLOAD PUSH1 0x20 ADD PUSH2 0x2F85 SWAP3 SWAP2 SWAP1 PUSH2 0x4245 JUMP JUMPDEST PUSH1 0x40 MLOAD PUSH1 0x20 DUP2 DUP4 SUB SUB DUP2 MSTORE SWAP1 PUSH1 0x40 MSTORE SWAP3 POP POP POP SWAP4 SWAP3 POP POP POP JUMP JUMPDEST PUSH1 0x60 DUP4 DUP4 PUSH2 0x2FB1 DUP5 PUSH3 0xFFFFFF AND PUSH2 0x32E1 JUMP JUMPDEST PUSH1 0x40 MLOAD PUSH1 0x20 ADD PUSH2 0x2FC3 SWAP4 SWAP3 SWAP2 SWAP1 PUSH2 0x434D JUMP JUMPDEST PUSH1 0x40 MLOAD PUSH1 0x20 DUP2 DUP4 SUB SUB DUP2 MSTORE SWAP1 PUSH1 0x40 MSTORE SWAP1 POP SWAP4 SWAP3 POP POP POP JUMP JUMPDEST PUSH1 0x60 PUSH2 0x2FE6 DUP4 PUSH2 0x3336 JUMP JUMPDEST PUSH2 0x2FEF DUP4 PUSH2 0x3336 JUMP JUMPDEST PUSH1 0x40 MLOAD PUSH1 0x20 ADD PUSH2 0x3000 SWAP3 SWAP2 SWAP1 PUSH2 0x44AF JUMP JUMPDEST PUSH1 0x40 MLOAD PUSH1 0x20 DUP2 DUP4 SUB SUB DUP2 MSTORE SWAP1 PUSH1 0x40 MSTORE SWAP1 POP SWAP3 SWAP2 POP POP JUMP JUMPDEST PUSH1 0x60 DUP6 DUP6 PUSH2 0x3029 DUP7 PUSH3 0xFFFFFF AND PUSH2 0x32E1 JUMP JUMPDEST PUSH2 0x3032 DUP7 PUSH2 0x3336 JUMP JUMPDEST PUSH2 0x303B DUP7 PUSH2 0x3336 JUMP JUMPDEST PUSH1 0x40 MLOAD PUSH1 0x20 ADD PUSH2 0x304F SWAP6 SWAP5 SWAP4 SWAP3 SWAP2 SWAP1 PUSH2 0x4611 JUMP JUMPDEST PUSH1 0x40 MLOAD PUSH1 0x20 DUP2 DUP4 SUB SUB DUP2 MSTORE SWAP1 PUSH1 0x40 MSTORE SWAP1 POP SWAP6 SWAP5 POP POP POP POP POP JUMP JUMPDEST PUSH1 0x60 DUP2 MLOAD PUSH1 0x0 SUB PUSH2 0x3088 JUMPI POP POP PUSH1 0x40 DUP1 MLOAD PUSH1 0x20 DUP2 ADD SWAP1 SWAP2 MSTORE PUSH1 0x0 DUP2 MSTORE SWAP1 JUMP JUMPDEST PUSH1 0x0 PUSH1 0x40 MLOAD DUP1 PUSH1 0x60 ADD PUSH1 0x40 MSTORE DUP1 PUSH1 0x40 DUP2 MSTORE PUSH1 0x20 ADD PUSH2 0x4727 PUSH1 0x40 SWAP2 CODECOPY SWAP1 POP PUSH1 0x0 PUSH1 0x3 DUP5 MLOAD PUSH1 0x2 PUSH2 0x30B7 SWAP2 SWAP1 PUSH2 0x4232 JUMP JUMPDEST PUSH2 0x30C1 SWAP2 SWAP1 PUSH2 0x420A JUMP JUMPDEST PUSH2 0x30CC SWAP1 PUSH1 0x4 PUSH2 0x41DD JUMP JUMPDEST PUSH1 0x1 PUSH1 0x1 PUSH1 0x40 SHL SUB DUP2 GT ISZERO PUSH2 0x30E3 JUMPI PUSH2 0x30E3 PUSH2 0x3B7C JUMP JUMPDEST PUSH1 0x40 MLOAD SWAP1 DUP1 DUP3 MSTORE DUP1 PUSH1 0x1F ADD PUSH1 0x1F NOT AND PUSH1 0x20 ADD DUP3 ADD PUSH1 0x40 MSTORE DUP1 ISZERO PUSH2 0x310D JUMPI PUSH1 0x20 DUP3 ADD DUP2 DUP1 CALLDATASIZE DUP4 CALLDATACOPY ADD SWAP1 POP JUMPDEST POP SWAP1 POP PUSH1 0x1 DUP3 ADD PUSH1 0x20 DUP3 ADD DUP6 DUP7 MLOAD DUP8 ADD JUMPDEST DUP1 DUP3 LT ISZERO PUSH2 0x3179 JUMPI PUSH1 0x3 DUP3 ADD SWAP2 POP DUP2 MLOAD PUSH1 0x3F DUP2 PUSH1 0x12 SHR AND DUP6 ADD MLOAD DUP5 MSTORE8 PUSH1 0x1 DUP5 ADD SWAP4 POP PUSH1 0x3F DUP2 PUSH1 0xC SHR AND DUP6 ADD MLOAD DUP5 MSTORE8 PUSH1 0x1 DUP5 ADD SWAP4 POP PUSH1 0x3F DUP2 PUSH1 0x6 SHR AND DUP6 ADD MLOAD DUP5 MSTORE8 PUSH1 0x1 DUP5 ADD SWAP4 POP PUSH1 0x3F DUP2 AND DUP6 ADD MLOAD DUP5 MSTORE8 POP PUSH1 0x1 DUP4 ADD SWAP3 POP PUSH2 0x311E JUMP JUMPDEST POP POP PUSH1 0x3 DUP7 MLOAD MOD PUSH1 0x1 DUP2 EQ PUSH2 0x3195 JUMPI PUSH1 0x2 DUP2 EQ PUSH2 0x31A8 JUMPI PUSH2 0x1608 JUMP JUMPDEST PUSH1 0x3D PUSH1 0x1 DUP4 SUB MSTORE8 PUSH1 0x3D PUSH1 0x2 DUP4 SUB MSTORE8 PUSH2 0x1608 JUMP JUMPDEST PUSH1 0x3D PUSH1 0x1 DUP4 SUB MSTORE8 POP SWAP2 SWAP6 SWAP5 POP POP POP POP POP JUMP JUMPDEST PUSH1 0x0 DUP3 PUSH1 0x1 PUSH1 0x1 PUSH1 0xA0 SHL SUB AND DUP5 PUSH1 0x1 PUSH1 0x1 PUSH1 0xA0 SHL SUB AND GT ISZERO PUSH2 0x31DA JUMPI SWAP2 SWAP3 SWAP2 JUMPDEST PUSH1 0x0 PUSH2 0x31FD DUP6 PUSH1 0x1 PUSH1 0x1 PUSH1 0xA0 SHL SUB AND DUP6 PUSH1 0x1 PUSH1 0x1 PUSH1 0xA0 SHL SUB AND PUSH1 0x1 PUSH1 0x60 SHL PUSH2 0x33CE JUMP JUMPDEST SWAP1 POP PUSH2 0x2EFA DUP4 DUP3 PUSH2 0x320E DUP9 DUP9 PUSH2 0x46D0 JUMP JUMPDEST PUSH1 0x1 PUSH1 0x1 PUSH1 0xA0 SHL SUB AND PUSH2 0x33CE JUMP JUMPDEST PUSH1 0x0 DUP3 PUSH1 0x1 PUSH1 0x1 PUSH1 0xA0 SHL SUB AND DUP5 PUSH1 0x1 PUSH1 0x1 PUSH1 0xA0 SHL SUB AND GT ISZERO PUSH2 0x323C JUMPI SWAP2 SWAP3 SWAP2 JUMPDEST PUSH2 0x2E38 DUP3 PUSH1 0x1 PUSH1 0x60 SHL PUSH2 0x320E DUP8 DUP8 PUSH2 0x46D0 JUMP JUMPDEST PUSH1 0x60 PUSH1 0x0 PUSH2 0x325C DUP4 PUSH2 0x34A1 JUMP JUMPDEST PUSH1 0x1 ADD SWAP1 POP PUSH1 0x0 DUP2 PUSH1 0x1 PUSH1 0x1 PUSH1 0x40 SHL SUB DUP2 GT ISZERO PUSH2 0x327B JUMPI PUSH2 0x327B PUSH2 0x3B7C JUMP JUMPDEST PUSH1 0x40 MLOAD SWAP1 DUP1 DUP3 MSTORE DUP1 PUSH1 0x1F ADD PUSH1 0x1F NOT AND PUSH1 0x20 ADD DUP3 ADD PUSH1 0x40 MSTORE DUP1 ISZERO PUSH2 0x32A5 JUMPI PUSH1 0x20 DUP3 ADD DUP2 DUP1 CALLDATASIZE DUP4 CALLDATACOPY ADD SWAP1 POP JUMPDEST POP SWAP1 POP DUP2 DUP2 ADD PUSH1 0x20 ADD JUMPDEST PUSH1 0x0 NOT ADD PUSH16 0x181899199A1A9B1B9C1CB0B131B232B3 PUSH1 0x81 SHL PUSH1 0xA DUP7 MOD BYTE DUP2 MSTORE8 PUSH1 0xA DUP6 DIV SWAP5 POP DUP5 PUSH2 0x32AF JUMPI POP SWAP4 SWAP3 POP POP POP JUMP JUMPDEST PUSH1 0x60 DUP2 PUSH2 0x1F4 SUB PUSH2 0x330D JUMPI POP POP PUSH1 0x40 DUP1 MLOAD DUP1 DUP3 ADD SWAP1 SWAP2 MSTORE PUSH1 0x5 DUP2 MSTORE PUSH5 0x302E303525 PUSH1 0xD8 SHL PUSH1 0x20 DUP3 ADD MSTORE SWAP1 JUMP JUMPDEST DUP2 PUSH2 0xBB8 SUB PUSH2 0x125E JUMPI POP POP PUSH1 0x40 DUP1 MLOAD DUP1 DUP3 ADD SWAP1 SWAP2 MSTORE PUSH1 0x4 DUP2 MSTORE PUSH4 0x302E3325 PUSH1 0xE0 SHL PUSH1 0x20 DUP3 ADD MSTORE SWAP1 JUMP JUMPDEST PUSH1 0x60 PUSH1 0x0 DUP3 PUSH1 0x2 SIGNEXTEND SLT PUSH2 0x3358 JUMPI PUSH1 0x40 MLOAD DUP1 PUSH1 0x20 ADD PUSH1 0x40 MSTORE DUP1 PUSH1 0x0 DUP2 MSTORE POP PUSH2 0x3373 JUMP JUMPDEST PUSH1 0x40 MLOAD DUP1 PUSH1 0x40 ADD PUSH1 0x40 MSTORE DUP1 PUSH1 0x1 DUP2 MSTORE PUSH1 0x20 ADD PUSH1 0x2D PUSH1 0xF8 SHL DUP2 MSTORE POP JUMPDEST PUSH1 0x0 DUP4 PUSH1 0x2 SIGNEXTEND SLT PUSH2 0x3391 JUMPI PUSH2 0x338C DUP4 PUSH3 0xFFFFFF AND PUSH2 0x324F JUMP JUMPDEST PUSH2 0x33A7 JUMP JUMPDEST PUSH2 0x33A7 PUSH2 0x339D DUP5 PUSH2 0x41BB JUMP JUMPDEST PUSH3 0xFFFFFF AND PUSH2 0x324F JUMP JUMPDEST PUSH1 0x40 MLOAD PUSH1 0x20 ADD PUSH2 0x33B8 SWAP3 SWAP2 SWAP1 PUSH2 0x46F7 JUMP JUMPDEST PUSH1 0x40 MLOAD PUSH1 0x20 DUP2 DUP4 SUB SUB DUP2 MSTORE SWAP1 PUSH1 0x40 MSTORE SWAP1 POP SWAP2 SWAP1 POP JUMP JUMPDEST PUSH1 0x0 DUP1 DUP1 PUSH1 0x0 NOT DUP6 DUP8 MULMOD DUP6 DUP8 MUL SWAP3 POP DUP3 DUP2 LT DUP4 DUP3 SUB SUB SWAP2 POP POP DUP1 PUSH1 0x0 SUB PUSH2 0x3408 JUMPI DUP4 DUP3 DUP2 PUSH2 0x33FE JUMPI PUSH2 0x33FE PUSH2 0x41F4 JUMP JUMPDEST DIV SWAP3 POP POP POP PUSH2 0x349A JUMP JUMPDEST DUP4 DUP2 LT PUSH2 0x3432 JUMPI PUSH1 0x40 MLOAD PUSH4 0x1DCF3063 PUSH1 0xE2 SHL DUP2 MSTORE PUSH1 0x4 DUP2 ADD DUP3 SWAP1 MSTORE PUSH1 0x24 DUP2 ADD DUP6 SWAP1 MSTORE PUSH1 0x44 ADD PUSH2 0x732 JUMP JUMPDEST PUSH1 0x0 DUP5 DUP7 DUP9 MULMOD DUP6 NOT PUSH1 0x1 SWAP1 DUP2 ADD DUP8 AND SWAP7 DUP8 SWAP1 DIV SWAP7 DUP3 DUP7 SUB DUP2 SWAP1 DIV SWAP6 SWAP1 SWAP3 GT SWAP1 SWAP4 SUB PUSH1 0x0 DUP3 SWAP1 SUB SWAP2 SWAP1 SWAP2 DIV SWAP1 SWAP3 ADD SWAP2 SWAP1 SWAP2 MUL SWAP2 SWAP1 SWAP2 OR PUSH1 0x3 DUP5 MUL PUSH1 0x2 SWAP1 DUP2 XOR DUP1 DUP7 MUL DUP3 SUB MUL DUP1 DUP7 MUL DUP3 SUB MUL DUP1 DUP7 MUL DUP3 SUB MUL DUP1 DUP7 MUL DUP3 SUB MUL DUP1 DUP7 MUL DUP3 SUB MUL DUP1 DUP7 MUL SWAP1 SWAP2 SUB MUL MUL SWAP2 POP POP JUMPDEST SWAP4 SWAP3 POP POP POP JUMP JUMPDEST PUSH1 0x0 DUP1 PUSH19 0x184F03E93FF9F4DAA797ED6E38ED64BF6A1F01 PUSH1 0x40 SHL DUP4 LT PUSH2 0x34E0 JUMPI PUSH19 0x184F03E93FF9F4DAA797ED6E38ED64BF6A1F01 PUSH1 0x40 SHL DUP4 DIV SWAP3 POP PUSH1 0x40 ADD JUMPDEST PUSH14 0x4EE2D6D415B85ACEF8100000000 DUP4 LT PUSH2 0x350C JUMPI PUSH14 0x4EE2D6D415B85ACEF8100000000 DUP4 DIV SWAP3 POP PUSH1 0x20 ADD JUMPDEST PUSH7 0x2386F26FC10000 DUP4 LT PUSH2 0x352A JUMPI PUSH7 0x2386F26FC10000 DUP4 DIV SWAP3 POP PUSH1 0x10 ADD JUMPDEST PUSH4 0x5F5E100 DUP4 LT PUSH2 0x3542 JUMPI PUSH4 0x5F5E100 DUP4 DIV SWAP3 POP PUSH1 0x8 ADD JUMPDEST PUSH2 0x2710 DUP4 LT PUSH2 0x3556 JUMPI PUSH2 0x2710 DUP4 DIV SWAP3 POP PUSH1 0x4 ADD JUMPDEST PUSH1 0x64 DUP4 LT PUSH2 0x3568 JUMPI PUSH1 0x64 DUP4 DIV SWAP3 POP PUSH1 0x2 ADD JUMPDEST PUSH1 0xA DUP4 LT PUSH2 0x61C JUMPI PUSH1 0x1 ADD SWAP3 SWAP2 POP POP JUMP JUMPDEST PUSH1 0x1 PUSH1 0x1 PUSH1 0xE0 SHL SUB NOT DUP2 AND DUP2 EQ PUSH2 0x358F JUMPI PUSH1 0x0 DUP1 REVERT JUMPDEST POP JUMP JUMPDEST PUSH1 0x0 PUSH1 0x20 DUP3 DUP5 SUB SLT ISZERO PUSH2 0x35A4 JUMPI PUSH1 0x0 DUP1 REVERT JUMPDEST DUP2 CALLDATALOAD PUSH2 0x349A DUP2 PUSH2 0x3579 JUMP JUMPDEST PUSH1 0x0 JUMPDEST DUP4 DUP2 LT ISZERO PUSH2 0x35CA JUMPI DUP2 DUP2 ADD MLOAD DUP4 DUP3 ADD MSTORE PUSH1 0x20 ADD PUSH2 0x35B2 JUMP JUMPDEST POP POP PUSH1 0x0 SWAP2 ADD MSTORE JUMP JUMPDEST PUSH1 0x0 DUP2 MLOAD DUP1 DUP5 MSTORE PUSH2 0x35EB DUP2 PUSH1 0x20 DUP7 ADD PUSH1 0x20 DUP7 ADD PUSH2 0x35AF JUMP JUMPDEST PUSH1 0x1F ADD PUSH1 0x1F NOT AND SWAP3 SWAP1 SWAP3 ADD PUSH1 0x20 ADD SWAP3 SWAP2 POP POP JUMP JUMPDEST PUSH1 0x20 DUP2 MSTORE PUSH1 0x0 PUSH2 0x349A PUSH1 0x20 DUP4 ADD DUP5 PUSH2 0x35D3 JUMP JUMPDEST PUSH1 0x0 PUSH1 0x20 DUP3 DUP5 SUB SLT ISZERO PUSH2 0x3624 JUMPI PUSH1 0x0 DUP1 REVERT JUMPDEST POP CALLDATALOAD SWAP2 SWAP1 POP JUMP JUMPDEST PUSH1 0x1 PUSH1 0x1 PUSH1 0xA0 SHL SUB DUP2 AND DUP2 EQ PUSH2 0x358F JUMPI PUSH1 0x0 DUP1 REVERT JUMPDEST PUSH1 0x0 DUP1 PUSH1 0x40 DUP4 DUP6 SUB SLT ISZERO PUSH2 0x3653 JUMPI PUSH1 0x0 DUP1 REVERT JUMPDEST DUP3 CALLDATALOAD PUSH2 0x365E DUP2 PUSH2 0x362B JUMP JUMPDEST SWAP5 PUSH1 0x20 SWAP4 SWAP1 SWAP4 ADD CALLDATALOAD SWAP4 POP POP POP JUMP JUMPDEST PUSH1 0x0 PUSH1 0x20 DUP3 DUP5 SUB SLT ISZERO PUSH2 0x367E JUMPI PUSH1 0x0 DUP1 REVERT JUMPDEST DUP2 CALLDATALOAD PUSH2 0x349A DUP2 PUSH2 0x362B JUMP JUMPDEST PUSH1 0x0 DUP2 MLOAD DUP1 DUP5 MSTORE PUSH1 0x20 DUP1 DUP6 ADD SWAP5 POP DUP1 DUP5 ADD PUSH1 0x0 JUMPDEST DUP4 DUP2 LT ISZERO PUSH2 0x36B9 JUMPI DUP2 MLOAD DUP8 MSTORE SWAP6 DUP3 ADD SWAP6 SWAP1 DUP3 ADD SWAP1 PUSH1 0x1 ADD PUSH2 0x369D JUMP JUMPDEST POP SWAP5 SWAP6 SWAP5 POP POP POP POP POP JUMP JUMPDEST PUSH1 0x0 DUP2 MLOAD DUP1 DUP5 MSTORE PUSH1 0x20 DUP1 DUP6 ADD SWAP5 POP DUP1 DUP5 ADD PUSH1 0x0 JUMPDEST DUP4 DUP2 LT ISZERO PUSH2 0x36B9 JUMPI DUP2 MLOAD PUSH1 0x1 PUSH1 0x1 PUSH1 0x80 SHL SUB AND DUP8 MSTORE SWAP6 DUP3 ADD SWAP6 SWAP1 DUP3 ADD SWAP1 PUSH1 0x1 ADD PUSH2 0x36D8 JUMP JUMPDEST PUSH1 0x0 DUP2 MLOAD DUP1 DUP5 MSTORE PUSH1 0x20 DUP1 DUP6 ADD SWAP5 POP DUP1 DUP5 ADD PUSH1 0x0 JUMPDEST DUP4 DUP2 LT ISZERO PUSH2 0x36B9 JUMPI DUP2 MLOAD PUSH1 0x2 SIGNEXTEND DUP8 MSTORE SWAP6 DUP3 ADD SWAP6 SWAP1 DUP3 ADD SWAP1 PUSH1 0x1 ADD PUSH2 0x3711 JUMP JUMPDEST PUSH1 0xA0 DUP2 MSTORE PUSH1 0x0 PUSH2 0x3743 PUSH1 0xA0 DUP4 ADD DUP9 PUSH2 0x3689 JUMP JUMPDEST DUP3 DUP2 SUB PUSH1 0x20 DUP5 DUP2 ADD SWAP2 SWAP1 SWAP2 MSTORE DUP8 MLOAD DUP1 DUP4 MSTORE DUP9 DUP3 ADD SWAP3 DUP3 ADD SWAP1 PUSH1 0x0 JUMPDEST DUP2 DUP2 LT ISZERO PUSH2 0x3783 JUMPI DUP5 MLOAD PUSH1 0x1 PUSH1 0x1 PUSH1 0xA0 SHL SUB AND DUP4 MSTORE SWAP4 DUP4 ADD SWAP4 SWAP2 DUP4 ADD SWAP2 PUSH1 0x1 ADD PUSH2 0x375E JUMP JUMPDEST POP POP DUP5 DUP2 SUB PUSH1 0x40 DUP7 ADD MSTORE PUSH2 0x3797 DUP2 DUP10 PUSH2 0x36C4 JUMP JUMPDEST SWAP3 POP POP POP DUP3 DUP2 SUB PUSH1 0x60 DUP5 ADD MSTORE PUSH2 0x37AD DUP2 DUP7 PUSH2 0x36FD JUMP JUMPDEST SWAP1 POP DUP3 DUP2 SUB PUSH1 0x80 DUP5 ADD MSTORE PUSH2 0x1DFF DUP2 DUP6 PUSH2 0x36FD JUMP JUMPDEST PUSH1 0x0 DUP1 PUSH1 0x0 PUSH1 0x60 DUP5 DUP7 SUB SLT ISZERO PUSH2 0x37D6 JUMPI PUSH1 0x0 DUP1 REVERT JUMPDEST DUP4 CALLDATALOAD PUSH2 0x37E1 DUP2 PUSH2 0x362B JUMP JUMPDEST SWAP3 POP PUSH1 0x20 DUP5 ADD CALLDATALOAD PUSH2 0x37F1 DUP2 PUSH2 0x362B JUMP JUMPDEST SWAP3 SWAP6 SWAP3 SWAP5 POP POP POP PUSH1 0x40 SWAP2 SWAP1 SWAP2 ADD CALLDATALOAD SWAP1 JUMP JUMPDEST PUSH1 0x60 DUP2 MSTORE PUSH1 0x0 PUSH2 0x3815 PUSH1 0x60 DUP4 ADD DUP7 PUSH2 0x3689 JUMP JUMPDEST DUP3 DUP2 SUB PUSH1 0x20 DUP5 ADD MSTORE PUSH2 0x3827 DUP2 DUP7 PUSH2 0x3689 JUMP JUMPDEST SWAP1 POP DUP3 DUP2 SUB PUSH1 0x40 DUP5 ADD MSTORE PUSH2 0x383B DUP2 DUP6 PUSH2 0x3689 JUMP JUMPDEST SWAP7 SWAP6 POP POP POP POP POP POP JUMP JUMPDEST PUSH1 0x60 DUP2 MSTORE PUSH1 0x0 PUSH2 0x3858 PUSH1 0x60 DUP4 ADD DUP7 PUSH2 0x3689 JUMP JUMPDEST DUP3 DUP2 SUB PUSH1 0x20 DUP5 ADD MSTORE PUSH2 0x386A DUP2 DUP7 PUSH2 0x36C4 JUMP JUMPDEST SWAP1 POP DUP3 DUP2 SUB PUSH1 0x40 DUP5 ADD MSTORE PUSH2 0x383B DUP2 DUP6 PUSH2 0x36C4 JUMP JUMPDEST PUSH1 0x20 DUP2 MSTORE PUSH1 0x0 PUSH2 0x349A PUSH1 0x20 DUP4 ADD DUP5 PUSH2 0x3689 JUMP JUMPDEST PUSH1 0x1 PUSH1 0x1 PUSH1 0x80 SHL SUB DUP2 AND DUP2 EQ PUSH2 0x358F JUMPI PUSH1 0x0 DUP1 REVERT JUMPDEST PUSH1 0x0 DUP1 PUSH1 0x40 DUP4 DUP6 SUB SLT ISZERO PUSH2 0x38B9 JUMPI PUSH1 0x0 DUP1 REVERT JUMPDEST DUP3 CALLDATALOAD SWAP2 POP PUSH1 0x20 DUP4 ADD CALLDATALOAD PUSH2 0x38CB DUP2 PUSH2 0x3891 JUMP JUMPDEST DUP1 SWAP2 POP POP SWAP3 POP SWAP3 SWAP1 POP JUMP JUMPDEST PUSH1 0x0 DUP1 PUSH1 0x40 DUP4 DUP6 SUB SLT ISZERO PUSH2 0x38E9 JUMPI PUSH1 0x0 DUP1 REVERT JUMPDEST DUP3 CALLDATALOAD PUSH2 0x38F4 DUP2 PUSH2 0x362B JUMP JUMPDEST SWAP2 POP PUSH1 0x20 DUP4 ADD CALLDATALOAD DUP1 ISZERO ISZERO DUP2 EQ PUSH2 0x38CB JUMPI PUSH1 0x0 DUP1 REVERT JUMPDEST PUSH1 0x0 DUP1 PUSH1 0x0 DUP1 PUSH1 0x0 PUSH1 0xA0 DUP7 DUP9 SUB SLT ISZERO PUSH2 0x3921 JUMPI PUSH1 0x0 DUP1 REVERT JUMPDEST POP POP DUP4 CALLDATALOAD SWAP6 PUSH1 0x20 DUP6 ADD CALLDATALOAD SWAP6 POP PUSH1 0x40 DUP6 ADD CALLDATALOAD SWAP5 PUSH1 0x60 DUP2 ADD CALLDATALOAD SWAP5 POP PUSH1 0x80 ADD CALLDATALOAD SWAP3 POP SWAP1 POP JUMP JUMPDEST PUSH1 0x0 DUP1 DUP4 PUSH1 0x1F DUP5 ADD SLT PUSH2 0x3956 JUMPI PUSH1 0x0 DUP1 REVERT JUMPDEST POP DUP2 CALLDATALOAD PUSH1 0x1 PUSH1 0x1 PUSH1 0x40 SHL SUB DUP2 GT ISZERO PUSH2 0x396D JUMPI PUSH1 0x0 DUP1 REVERT JUMPDEST PUSH1 0x20 DUP4 ADD SWAP2 POP DUP4 PUSH1 0x20 DUP3 DUP6 ADD ADD GT ISZERO PUSH2 0x3985 JUMPI PUSH1 0x0 DUP1 REVERT JUMPDEST SWAP3 POP SWAP3 SWAP1 POP JUMP JUMPDEST PUSH1 0x0 DUP1 PUSH1 0x0 DUP1 PUSH1 0x0 PUSH1 0x80 DUP7 DUP9 SUB SLT ISZERO PUSH2 0x39A4 JUMPI PUSH1 0x0 DUP1 REVERT JUMPDEST DUP6 CALLDATALOAD PUSH2 0x39AF DUP2 PUSH2 0x362B JUMP JUMPDEST SWAP5 POP PUSH1 0x20 DUP7 ADD CALLDATALOAD PUSH2 0x39BF DUP2 PUSH2 0x362B JUMP JUMPDEST SWAP4 POP PUSH1 0x40 DUP7 ADD CALLDATALOAD SWAP3 POP PUSH1 0x60 DUP7 ADD CALLDATALOAD PUSH1 0x1 PUSH1 0x1 PUSH1 0x40 SHL SUB DUP2 GT ISZERO PUSH2 0x39E1 JUMPI PUSH1 0x0 DUP1 REVERT JUMPDEST PUSH2 0x39ED DUP9 DUP3 DUP10 ADD PUSH2 0x3944 JUMP JUMPDEST SWAP7 SWAP10 SWAP6 SWAP9 POP SWAP4 SWAP7 POP SWAP3 SWAP5 SWAP4 SWAP3 POP POP POP JUMP JUMPDEST PUSH1 0x0 DUP1 PUSH1 0x0 DUP1 PUSH1 0x60 DUP6 DUP8 SUB SLT ISZERO PUSH2 0x3A14 JUMPI PUSH1 0x0 DUP1 REVERT JUMPDEST DUP5 CALLDATALOAD SWAP4 POP PUSH1 0x20 DUP6 ADD CALLDATALOAD SWAP3 POP PUSH1 0x40 DUP6 ADD CALLDATALOAD PUSH1 0x1 PUSH1 0x1 PUSH1 0x40 SHL SUB DUP2 GT ISZERO PUSH2 0x3A38 JUMPI PUSH1 0x0 DUP1 REVERT JUMPDEST PUSH2 0x3A44 DUP8 DUP3 DUP9 ADD PUSH2 0x3944 JUMP JUMPDEST SWAP6 SWAP9 SWAP5 SWAP8 POP SWAP6 POP POP POP POP JUMP JUMPDEST PUSH3 0xFFFFFF DUP2 AND DUP2 EQ PUSH2 0x358F JUMPI PUSH1 0x0 DUP1 REVERT JUMPDEST DUP1 PUSH1 0x2 SIGNEXTEND DUP2 EQ PUSH2 0x358F JUMPI PUSH1 0x0 DUP1 REVERT JUMPDEST PUSH1 0x0 DUP1 PUSH1 0x0 DUP1 PUSH1 0x0 DUP1 PUSH1 0x0 DUP1 PUSH1 0x0 DUP1 PUSH2 0x140 DUP12 DUP14 SUB SLT ISZERO PUSH2 0x3A90 JUMPI PUSH1 0x0 DUP1 REVERT JUMPDEST DUP11 CALLDATALOAD PUSH2 0x3A9B DUP2 PUSH2 0x362B JUMP JUMPDEST SWAP10 POP PUSH1 0x20 DUP12 ADD CALLDATALOAD PUSH2 0x3AAB DUP2 PUSH2 0x362B JUMP JUMPDEST SWAP9 POP PUSH1 0x40 DUP12 ADD CALLDATALOAD PUSH2 0x3ABB DUP2 PUSH2 0x362B JUMP JUMPDEST SWAP8 POP PUSH1 0x60 DUP12 ADD CALLDATALOAD PUSH2 0x3ACB DUP2 PUSH2 0x3A50 JUMP JUMPDEST SWAP7 POP PUSH1 0x80 DUP12 ADD CALLDATALOAD PUSH2 0x3ADB DUP2 PUSH2 0x3A61 JUMP JUMPDEST SWAP6 POP PUSH1 0xA0 DUP12 ADD CALLDATALOAD PUSH2 0x3AEB DUP2 PUSH2 0x3A61 JUMP JUMPDEST SWAP10 SWAP13 SWAP9 SWAP12 POP SWAP7 SWAP10 SWAP6 SWAP9 SWAP5 SWAP8 SWAP5 SWAP7 POP POP POP POP PUSH1 0xC0 DUP4 ADD CALLDATALOAD SWAP3 PUSH1 0xE0 DUP2 ADD CALLDATALOAD SWAP3 PUSH2 0x100 DUP3 ADD CALLDATALOAD SWAP3 POP PUSH2 0x120 SWAP1 SWAP2 ADD CALLDATALOAD SWAP1 JUMP JUMPDEST PUSH1 0x0 DUP1 PUSH1 0x40 DUP4 DUP6 SUB SLT ISZERO PUSH2 0x3B2D JUMPI PUSH1 0x0 DUP1 REVERT JUMPDEST DUP3 CALLDATALOAD PUSH2 0x3B38 DUP2 PUSH2 0x362B JUMP JUMPDEST SWAP2 POP PUSH1 0x20 DUP4 ADD CALLDATALOAD PUSH2 0x38CB DUP2 PUSH2 0x362B JUMP JUMPDEST PUSH1 0x1 DUP2 DUP2 SHR SWAP1 DUP3 AND DUP1 PUSH2 0x3B5C JUMPI PUSH1 0x7F DUP3 AND SWAP2 POP JUMPDEST PUSH1 0x20 DUP3 LT DUP2 SUB PUSH2 0x1613 JUMPI PUSH4 0x4E487B71 PUSH1 0xE0 SHL PUSH1 0x0 MSTORE PUSH1 0x22 PUSH1 0x4 MSTORE PUSH1 0x24 PUSH1 0x0 REVERT JUMPDEST PUSH4 0x4E487B71 PUSH1 0xE0 SHL PUSH1 0x0 MSTORE PUSH1 0x41 PUSH1 0x4 MSTORE PUSH1 0x24 PUSH1 0x0 REVERT JUMPDEST PUSH4 0x4E487B71 PUSH1 0xE0 SHL PUSH1 0x0 MSTORE PUSH1 0x32 PUSH1 0x4 MSTORE PUSH1 0x24 PUSH1 0x0 REVERT JUMPDEST PUSH1 0x0 DUP1 PUSH1 0x0 DUP1 PUSH1 0x0 PUSH1 0xA0 DUP7 DUP9 SUB SLT ISZERO PUSH2 0x3BC0 JUMPI PUSH1 0x0 DUP1 REVERT JUMPDEST DUP6 MLOAD PUSH2 0x3BCB DUP2 PUSH2 0x3891 JUMP JUMPDEST DUP1 SWAP6 POP POP PUSH1 0x20 DUP7 ADD MLOAD SWAP4 POP PUSH1 0x40 DUP7 ADD MLOAD SWAP3 POP PUSH1 0x60 DUP7 ADD MLOAD PUSH2 0x3BEB DUP2 PUSH2 0x3891 JUMP JUMPDEST PUSH1 0x80 DUP8 ADD MLOAD SWAP1 SWAP3 POP PUSH2 0x3BFC DUP2 PUSH2 0x3891 JUMP JUMPDEST DUP1 SWAP2 POP POP SWAP3 SWAP6 POP SWAP3 SWAP6 SWAP1 SWAP4 POP JUMP JUMPDEST PUSH4 0x4E487B71 PUSH1 0xE0 SHL PUSH1 0x0 MSTORE PUSH1 0x11 PUSH1 0x4 MSTORE PUSH1 0x24 PUSH1 0x0 REVERT JUMPDEST PUSH1 0x0 PUSH1 0x1 DUP3 ADD PUSH2 0x3C32 JUMPI PUSH2 0x3C32 PUSH2 0x3C0A JUMP JUMPDEST POP PUSH1 0x1 ADD SWAP1 JUMP JUMPDEST PUSH1 0x0 PUSH1 0x20 DUP3 DUP5 SUB SLT ISZERO PUSH2 0x3C4B JUMPI PUSH1 0x0 DUP1 REVERT JUMPDEST DUP2 MLOAD PUSH2 0x349A DUP2 PUSH2 0x3579 JUMP JUMPDEST PUSH1 0x0 DUP2 PUSH2 0x3C65 JUMPI PUSH2 0x3C65 PUSH2 0x3C0A JUMP JUMPDEST POP PUSH1 0x0 NOT ADD SWAP1 JUMP JUMPDEST PUSH1 0x0 DUP1 PUSH1 0x40 DUP4 DUP6 SUB SLT ISZERO PUSH2 0x3C80 JUMPI PUSH1 0x0 DUP1 REVERT JUMPDEST POP POP DUP1 MLOAD PUSH1 0x20 SWAP1 SWAP2 ADD MLOAD SWAP1 SWAP3 SWAP1 SWAP2 POP JUMP JUMPDEST PUSH1 0x1 PUSH1 0x1 PUSH1 0xA0 SHL SUB DUP7 DUP2 AND DUP3 MSTORE DUP6 AND PUSH1 0x20 DUP3 ADD MSTORE PUSH1 0x40 DUP2 ADD DUP5 SWAP1 MSTORE PUSH1 0x80 PUSH1 0x60 DUP3 ADD DUP2 SWAP1 MSTORE DUP2 ADD DUP3 SWAP1 MSTORE PUSH1 0x0 DUP3 DUP5 PUSH1 0xA0 DUP5 ADD CALLDATACOPY PUSH1 0x0 PUSH1 0xA0 DUP5 DUP5 ADD ADD MSTORE PUSH1 0xA0 PUSH1 0x1F NOT PUSH1 0x1F DUP6 ADD AND DUP4 ADD ADD SWAP1 POP SWAP7 SWAP6 POP POP POP POP POP POP JUMP JUMPDEST PUSH1 0x0 PUSH1 0x20 DUP3 DUP5 SUB SLT ISZERO PUSH2 0x3CF7 JUMPI PUSH1 0x0 DUP1 REVERT JUMPDEST DUP2 MLOAD PUSH2 0x349A DUP2 PUSH2 0x362B JUMP JUMPDEST PUSH1 0x0 PUSH1 0x20 DUP3 DUP5 SUB SLT ISZERO PUSH2 0x3D14 JUMPI PUSH1 0x0 DUP1 REVERT JUMPDEST DUP2 MLOAD PUSH1 0x1 PUSH1 0x1 PUSH1 0x40 SHL SUB DUP1 DUP3 GT ISZERO PUSH2 0x3D2B JUMPI PUSH1 0x0 DUP1 REVERT JUMPDEST DUP2 DUP5 ADD SWAP2 POP DUP5 PUSH1 0x1F DUP4 ADD SLT PUSH2 0x3D3F JUMPI PUSH1 0x0 DUP1 REVERT JUMPDEST DUP2 MLOAD DUP2 DUP2 GT ISZERO PUSH2 0x3D51 JUMPI PUSH2 0x3D51 PUSH2 0x3B7C JUMP JUMPDEST PUSH1 0x40 MLOAD PUSH1 0x1F DUP3 ADD PUSH1 0x1F NOT SWAP1 DUP2 AND PUSH1 0x3F ADD AND DUP2 ADD SWAP1 DUP4 DUP3 GT DUP2 DUP4 LT OR ISZERO PUSH2 0x3D79 JUMPI PUSH2 0x3D79 PUSH2 0x3B7C JUMP JUMPDEST DUP2 PUSH1 0x40 MSTORE DUP3 DUP2 MSTORE DUP8 PUSH1 0x20 DUP5 DUP8 ADD ADD GT ISZERO PUSH2 0x3D92 JUMPI PUSH1 0x0 DUP1 REVERT JUMPDEST PUSH2 0x3DA3 DUP4 PUSH1 0x20 DUP4 ADD PUSH1 0x20 DUP9 ADD PUSH2 0x35AF JUMP JUMPDEST SWAP8 SWAP7 POP POP POP POP POP POP POP JUMP JUMPDEST PUSH1 0x0 PUSH1 0x20 DUP3 DUP5 SUB SLT ISZERO PUSH2 0x3DC0 JUMPI PUSH1 0x0 DUP1 REVERT JUMPDEST DUP2 MLOAD PUSH2 0x349A DUP2 PUSH2 0x3A50 JUMP JUMPDEST PUSH1 0x0 DUP1 PUSH1 0x40 DUP4 DUP6 SUB SLT ISZERO PUSH2 0x3DDE JUMPI PUSH1 0x0 DUP1 REVERT JUMPDEST DUP3 MLOAD PUSH2 0x3DE9 DUP2 PUSH2 0x3891 JUMP JUMPDEST PUSH1 0x20 DUP5 ADD MLOAD SWAP1 SWAP3 POP PUSH2 0x38CB DUP2 PUSH2 0x3891 JUMP JUMPDEST PUSH1 0x0 PUSH1 0x60 DUP3 DUP5 SUB SLT ISZERO PUSH2 0x3E0C JUMPI PUSH1 0x0 DUP1 REVERT JUMPDEST PUSH1 0x40 MLOAD PUSH1 0x60 DUP2 ADD DUP2 DUP2 LT PUSH1 0x1 PUSH1 0x1 PUSH1 0x40 SHL SUB DUP3 GT OR ISZERO PUSH2 0x3E2E JUMPI PUSH2 0x3E2E PUSH2 0x3B7C JUMP JUMPDEST PUSH1 0x40 MSTORE DUP3 CALLDATALOAD PUSH2 0x3E3C DUP2 PUSH2 0x362B JUMP JUMPDEST DUP2 MSTORE PUSH1 0x20 DUP4 ADD CALLDATALOAD PUSH2 0x3E4C DUP2 PUSH2 0x362B JUMP JUMPDEST PUSH1 0x20 DUP3 ADD MSTORE PUSH1 0x40 DUP4 ADD CALLDATALOAD PUSH2 0x3E5F DUP2 PUSH2 0x362B JUMP JUMPDEST PUSH1 0x40 DUP3 ADD MSTORE SWAP4 SWAP3 POP POP POP JUMP JUMPDEST DUP1 MLOAD PUSH2 0xFFFF DUP2 AND DUP2 EQ PUSH2 0x125E JUMPI PUSH1 0x0 DUP1 REVERT JUMPDEST PUSH1 0x0 DUP1 PUSH1 0x0 DUP1 PUSH1 0x0 PUSH1 0xA0 DUP7 DUP9 SUB SLT ISZERO PUSH2 0x3E95 JUMPI PUSH1 0x0 DUP1 REVERT JUMPDEST DUP6 MLOAD PUSH2 0x3EA0 DUP2 PUSH2 0x362B JUMP JUMPDEST PUSH1 0x20 DUP8 ADD MLOAD SWAP1 SWAP6 POP PUSH2 0x3EB1 DUP2 PUSH2 0x3A61 JUMP JUMPDEST SWAP4 POP PUSH2 0x3EBF PUSH1 0x40 DUP8 ADD PUSH2 0x3E6B JUMP JUMPDEST SWAP3 POP PUSH2 0x3ECD PUSH1 0x60 DUP8 ADD PUSH2 0x3E6B JUMP JUMPDEST SWAP2 POP PUSH2 0x3EDB PUSH1 0x80 DUP8 ADD PUSH2 0x3E6B JUMP JUMPDEST SWAP1 POP SWAP3 SWAP6 POP SWAP3 SWAP6 SWAP1 SWAP4 POP JUMP JUMPDEST PUSH1 0x1 DUP1 PUSH1 0xA0 SHL SUB DUP7 AND DUP2 MSTORE DUP5 PUSH1 0x2 SIGNEXTEND PUSH1 0x20 DUP3 ADD MSTORE DUP4 PUSH1 0x2 SIGNEXTEND PUSH1 0x40 DUP3 ADD MSTORE PUSH1 0x1 PUSH1 0x1 PUSH1 0x80 SHL SUB DUP4 AND PUSH1 0x60 DUP3 ADD MSTORE PUSH1 0xA0 PUSH1 0x80 DUP3 ADD MSTORE PUSH1 0x0 PUSH2 0x3DA3 PUSH1 0xA0 DUP4 ADD DUP5 PUSH2 0x35D3 JUMP JUMPDEST PUSH1 0x0 DUP2 MLOAD PUSH2 0x3F3B DUP2 DUP6 PUSH1 0x20 DUP7 ADD PUSH2 0x35AF JUMP JUMPDEST SWAP3 SWAP1 SWAP3 ADD SWAP3 SWAP2 POP POP JUMP JUMPDEST PUSH32 0x3C73766720786D6C6E733D27687474703A2F2F7777772E77332E6F72672F3230 DUP2 MSTORE PUSH32 0x30302F737667272076696577426F783D273020302033303020343830273E0000 PUSH1 0x20 DUP3 ADD MSTORE PUSH32 0x3C7374796C653E2E746F6B656E73207B20666F6E743A20626F6C642033307078 PUSH1 0x3E DUP3 ADD MSTORE PUSH14 0x2073616E732D73657269663B207D PUSH1 0x90 SHL PUSH1 0x5E DUP3 ADD MSTORE PUSH32 0x2E666565207B20666F6E743A206E6F726D616C20323670782073616E732D7365 PUSH1 0x6C DUP3 ADD MSTORE PUSH6 0x7269663B207D PUSH1 0xD0 SHL PUSH1 0x8C DUP3 ADD MSTORE PUSH32 0x2E7469636B207B20666F6E743A206E6F726D616C20313870782073616E732D73 PUSH1 0x92 DUP3 ADD MSTORE PUSH15 0x32B934B31D903E9E17B9BA3CB6329F PUSH1 0x89 SHL PUSH1 0xB2 DUP3 ADD MSTORE PUSH1 0x0 DUP5 MLOAD PUSH2 0x4053 DUP2 PUSH1 0xC1 DUP6 ADD PUSH1 0x20 DUP10 ADD PUSH2 0x35AF JUMP JUMPDEST DUP5 MLOAD SWAP1 DUP4 ADD SWAP1 PUSH2 0x406A DUP2 PUSH1 0xC1 DUP5 ADD PUSH1 0x20 DUP10 ADD PUSH2 0x35AF JUMP JUMPDEST PUSH2 0x4079 PUSH1 0xC1 DUP3 DUP5 ADD ADD DUP7 PUSH2 0x3F29 JUMP JUMPDEST SWAP2 POP POP PUSH2 0x408E DUP2 PUSH6 0x1E17B9BB339F PUSH1 0xD1 SHL SWAP1 MSTORE JUMP JUMPDEST PUSH1 0x6 ADD SWAP6 SWAP5 POP POP POP POP POP JUMP JUMPDEST PUSH32 0x7B226E616D65223A22556E697377617020563320506F736974696F6E222C0000 DUP2 MSTORE PUSH15 0x113232B9B1B934B83A34B7B7111D11 PUSH1 0x89 SHL PUSH1 0x1E DUP3 ADD MSTORE DUP3 MLOAD PUSH1 0x0 SWAP1 PUSH2 0x40EB DUP2 PUSH1 0x2D DUP6 ADD PUSH1 0x20 DUP9 ADD PUSH2 0x35AF JUMP JUMPDEST PUSH2 0x88B PUSH1 0xF2 SHL PUSH1 0x2D SWAP2 DUP5 ADD SWAP2 DUP3 ADD MSTORE PUSH32 0x22696D616765223A22646174613A696D6167652F7376672B786D6C3B62617365 PUSH1 0x2F DUP3 ADD MSTORE PUSH3 0xD8D0B PUSH1 0xEA SHL PUSH1 0x4F DUP3 ADD MSTORE DUP4 MLOAD PUSH2 0x413F DUP2 PUSH1 0x52 DUP5 ADD PUSH1 0x20 DUP9 ADD PUSH2 0x35AF JUMP JUMPDEST PUSH2 0x227D PUSH1 0xF0 SHL PUSH1 0x52 SWAP3 SWAP1 SWAP2 ADD SWAP2 DUP3 ADD MSTORE PUSH1 0x54 ADD SWAP5 SWAP4 POP POP POP POP JUMP JUMPDEST PUSH32 0x646174613A6170706C69636174696F6E2F6A736F6E3B6261736536342C000000 DUP2 MSTORE PUSH1 0x0 DUP3 MLOAD PUSH2 0x4192 DUP2 PUSH1 0x1D DUP6 ADD PUSH1 0x20 DUP8 ADD PUSH2 0x35AF JUMP JUMPDEST SWAP2 SWAP1 SWAP2 ADD PUSH1 0x1D ADD SWAP3 SWAP2 POP POP JUMP JUMPDEST PUSH1 0x0 PUSH1 0x1 PUSH1 0xFF SHL DUP3 ADD PUSH2 0x41B4 JUMPI PUSH2 0x41B4 PUSH2 0x3C0A JUMP JUMPDEST POP PUSH1 0x0 SUB SWAP1 JUMP JUMPDEST PUSH1 0x0 DUP2 PUSH1 0x2 SIGNEXTEND PUSH3 0x7FFFFF NOT DUP2 SUB PUSH2 0x41D4 JUMPI PUSH2 0x41D4 PUSH2 0x3C0A JUMP JUMPDEST PUSH1 0x0 SUB SWAP3 SWAP2 POP POP JUMP JUMPDEST DUP1 DUP3 MUL DUP2 ISZERO DUP3 DUP3 DIV DUP5 EQ OR PUSH2 0x61C JUMPI PUSH2 0x61C PUSH2 0x3C0A JUMP JUMPDEST PUSH4 0x4E487B71 PUSH1 0xE0 SHL PUSH1 0x0 MSTORE PUSH1 0x12 PUSH1 0x4 MSTORE PUSH1 0x24 PUSH1 0x0 REVERT JUMPDEST PUSH1 0x0 DUP3 PUSH2 0x4219 JUMPI PUSH2 0x4219 PUSH2 0x41F4 JUMP JUMPDEST POP DIV SWAP1 JUMP JUMPDEST PUSH1 0x0 DUP3 PUSH2 0x422D JUMPI PUSH2 0x422D PUSH2 0x41F4 JUMP JUMPDEST POP MOD SWAP1 JUMP JUMPDEST DUP1 DUP3 ADD DUP1 DUP3 GT ISZERO PUSH2 0x61C JUMPI PUSH2 0x61C PUSH2 0x3C0A JUMP JUMPDEST PUSH32 0x3C726563742077696474683D2233303022206865696768743D22343830222066 DUP2 MSTORE PUSH9 0xD2D8D87A44D0E6D85 PUSH1 0xBB SHL PUSH1 0x20 DUP3 ADD MSTORE PUSH1 0x0 DUP4 MLOAD PUSH2 0x428F DUP2 PUSH1 0x29 DUP6 ADD PUSH1 0x20 DUP9 ADD PUSH2 0x35AF JUMP JUMPDEST PUSH12 0x161A1812961A18129491179F PUSH1 0xA1 SHL PUSH1 0x29 SWAP2 DUP5 ADD SWAP2 DUP3 ADD MSTORE PUSH32 0x3C7265637420783D2233302220793D223330222077696474683D223234302220 PUSH1 0x35 DUP3 ADD MSTORE PUSH32 0x6865696768743D22343230222072783D223135222072793D223135222066696C PUSH1 0x55 DUP3 ADD MSTORE PUSH7 0xD87A44D0E6D85 PUSH1 0xCB SHL PUSH1 0x75 DUP3 ADD MSTORE DUP4 MLOAD PUSH2 0x4317 DUP2 PUSH1 0x7C DUP5 ADD PUSH1 0x20 DUP9 ADD PUSH2 0x35AF JUMP JUMPDEST PUSH32 0x2C313030252C3530252922207374726F6B653D2223303030222F3E0000000000 PUSH1 0x7C SWAP3 SWAP1 SWAP2 ADD SWAP2 DUP3 ADD MSTORE PUSH1 0x97 ADD SWAP5 SWAP4 POP POP POP POP JUMP JUMPDEST PUSH32 0x3C7265637420783D2233302220793D223837222077696474683D223234302220 DUP2 MSTORE PUSH13 0x3432B4B3B43A1E911A1911179F PUSH1 0x99 SHL PUSH1 0x20 DUP3 ADD MSTORE PUSH32 0x3C7465787420783D2233392220793D223132302220636C6173733D22746F6B65 PUSH1 0x2D DUP3 ADD MSTORE PUSH16 0x373991103334B6361E9111B33333111F PUSH1 0x81 SHL PUSH1 0x4D DUP3 ADD MSTORE PUSH1 0x0 DUP5 MLOAD PUSH2 0x43DA DUP2 PUSH1 0x5D DUP6 ADD PUSH1 0x20 DUP10 ADD PUSH2 0x35AF JUMP JUMPDEST PUSH1 0x2F PUSH1 0xF8 SHL PUSH1 0x5D SWAP2 DUP5 ADD SWAP2 DUP3 ADD MSTORE DUP5 MLOAD PUSH2 0x43FB DUP2 PUSH1 0x5E DUP5 ADD PUSH1 0x20 DUP10 ADD PUSH2 0x35AF JUMP JUMPDEST PUSH32 0x3C2F746578743E3C7265637420783D2233302220793D22313332222077696474 PUSH1 0x5E SWAP3 SWAP1 SWAP2 ADD SWAP2 DUP3 ADD MSTORE PUSH21 0x341E91191A1811103432B4B3B43A1E91199811179F PUSH1 0x59 SHL PUSH1 0x7E DUP3 ADD MSTORE PUSH32 0x3C7465787420783D2233392220793D22313230222064793D2233362220636C61 PUSH1 0x93 DUP3 ADD MSTORE PUSH21 0x39B99E913332B291103334B6361E9111B33333111F PUSH1 0x59 SHL PUSH1 0xB3 DUP3 ADD MSTORE PUSH2 0x4495 PUSH1 0xC8 DUP3 ADD DUP6 PUSH2 0x3F29 JUMP JUMPDEST PUSH7 0x1E17BA32BC3A1F PUSH1 0xC9 SHL DUP2 MSTORE PUSH1 0x7 ADD SWAP7 SWAP6 POP POP POP POP POP POP JUMP JUMPDEST PUSH32 0x3C7265637420783D2233302220793D22333432222077696474683D2232343022 DUP2 MSTORE PUSH1 0x0 PUSH14 0x103432B4B3B43A1E91191A11179F PUSH1 0x91 SHL DUP1 PUSH1 0x20 DUP5 ADD MSTORE PUSH32 0x3C7465787420783D2233392220793D223336302220636C6173733D227469636B PUSH1 0x2E DUP5 ADD MSTORE PUSH32 0x222066696C6C3D2223666666223E4C6F776572207469636B3A20000000000000 PUSH1 0x4E DUP5 ADD MSTORE DUP5 MLOAD PUSH2 0x454B DUP2 PUSH1 0x68 DUP7 ADD PUSH1 0x20 DUP10 ADD PUSH2 0x35AF JUMP JUMPDEST DUP1 DUP5 ADD SWAP1 POP PUSH7 0x1E17BA32BC3A1F PUSH1 0xC9 SHL PUSH1 0x68 DUP3 ADD MSTORE PUSH32 0x3C7265637420783D2233302220793D22333732222077696474683D2232343022 PUSH1 0x6F DUP3 ADD MSTORE DUP2 PUSH1 0x8F DUP3 ADD MSTORE PUSH32 0x3C7465787420783D2233392220793D22333630222064793D2233302220636C61 PUSH1 0x9D DUP3 ADD MSTORE PUSH32 0x73733D227469636B222066696C6C3D2223666666223E5570706572207469636B PUSH1 0xBD DUP3 ADD MSTORE PUSH2 0x1D1 PUSH1 0xF5 SHL PUSH1 0xDD DUP3 ADD MSTORE PUSH2 0x45F0 PUSH1 0xDF DUP3 ADD DUP7 PUSH2 0x3F29 JUMP JUMPDEST SWAP2 POP POP PUSH2 0x4606 DUP2 PUSH7 0x1E17BA32BC3A1F PUSH1 0xC9 SHL SWAP1 MSTORE JUMP JUMPDEST PUSH1 0x7 ADD SWAP5 SWAP4 POP POP POP POP JUMP JUMPDEST PUSH1 0x0 DUP7 MLOAD PUSH2 0x4623 DUP2 DUP5 PUSH1 0x20 DUP12 ADD PUSH2 0x35AF JUMP JUMPDEST PUSH1 0x2F PUSH1 0xF8 SHL SWAP1 DUP4 ADD SWAP1 DUP2 MSTORE DUP7 MLOAD PUSH2 0x4641 DUP2 PUSH1 0x1 DUP5 ADD PUSH1 0x20 DUP12 ADD PUSH2 0x35AF JUMP JUMPDEST PUSH1 0x1 PUSH1 0xFD SHL PUSH1 0x1 SWAP3 SWAP1 SWAP2 ADD SWAP2 DUP3 ADD MSTORE DUP6 MLOAD PUSH2 0x4663 DUP2 PUSH1 0x2 DUP5 ADD PUSH1 0x20 DUP11 ADD PUSH2 0x35AF JUMP JUMPDEST PUSH14 0x16102637BBB2B9103A34B1B59D1 PUSH1 0x95 SHL PUSH1 0x2 SWAP3 SWAP1 SWAP2 ADD SWAP2 DUP3 ADD MSTORE DUP5 MLOAD PUSH2 0x4692 DUP2 PUSH1 0x10 DUP5 ADD PUSH1 0x20 DUP10 ADD PUSH2 0x35AF JUMP JUMPDEST PUSH14 0x16102AB83832B9103A32BC3A1D1 PUSH1 0x95 SHL PUSH1 0x10 SWAP3 SWAP1 SWAP2 ADD SWAP2 DUP3 ADD MSTORE DUP4 MLOAD PUSH2 0x46C1 DUP2 PUSH1 0x1E DUP5 ADD PUSH1 0x20 DUP9 ADD PUSH2 0x35AF JUMP JUMPDEST ADD PUSH1 0x1E ADD SWAP8 SWAP7 POP POP POP POP POP POP POP JUMP JUMPDEST PUSH1 0x1 PUSH1 0x1 PUSH1 0xA0 SHL SUB DUP3 DUP2 AND DUP3 DUP3 AND SUB SWAP1 DUP1 DUP3 GT ISZERO PUSH2 0x46F0 JUMPI PUSH2 0x46F0 PUSH2 0x3C0A JUMP JUMPDEST POP SWAP3 SWAP2 POP POP JUMP JUMPDEST PUSH1 0x0 DUP4 MLOAD PUSH2 0x4709 DUP2 DUP5 PUSH1 0x20 DUP9 ADD PUSH2 0x35AF JUMP JUMPDEST DUP4 MLOAD SWAP1 DUP4 ADD SWAP1 PUSH2 0x471D DUP2 DUP4 PUSH1 0x20 DUP9 ADD PUSH2 0x35AF JUMP JUMPDEST ADD SWAP5 SWAP4 POP POP POP POP JUMP INVALID COINBASE TIMESTAMP NUMBER DIFFICULTY GASLIMIT CHAINID SELFBALANCE BASEFEE 0x49 0x4A 0x4B 0x4C 0x4D 0x4E 0x4F POP MLOAD MSTORE MSTORE8 SLOAD SSTORE JUMP JUMPI PC MSIZE GAS PUSH2 0x6263 PUSH5 0x6566676869 PUSH11 0x6B6C6D6E6F707172737475 PUSH23 0x7778797A303132333435363738392B2FA2646970667358 0x22 SLT KECCAK256 PUSH17 0x6390EDEC7D934FD46A21C58E9DD1FEEBD3 TIMESTAMP 0x1E 0xC1 SWAP9 MUL 0xD1 DUP1 0xA9 LOG2 SLOAD CALLCODE CREATE EXP 0x1E PUSH5 0x736F6C6343 STOP ADDMOD EQ STOP CALLER ",
  "sha1": "a3c3035a7952a0a9eaa71fd3e7b43fd5935229b6",
  "source": "// SPDX-License-Identifier: GPL-2.0-or-later\npragma solidity ^0.8.14;\n\nimport \"./PoolFactory.sol\";\nimport \"./ERC721.sol\";\nimport \"./HelpFunctions.sol\";\nimport \"../interface_contracts/IERC20.sol\";\nimport \"../interface_contracts/IUniswapV3Pool.sol\";\nimport \"./lib/LiquidityMath.sol\";\nimport \"./lib/NFTRenderer.sol\";\nimport \"./lib/TickMath.sol\";\n\ncontract NFT is ERC721 {\n    error WrongToken();\n    error PositionNotCleared();\n    error SlippageCheckFailed(uint256 amount0, uint256 amount1);\n    error TooLittleReceived(uint256 amountOut);\n\n    /*\n    Custom Errors\n    */\n    error NotAuthorized();\n    error NotEnoughLiquidity();\n\n    /*\n    Events\n    */\n    event AddLiquidity(\n        uint256 indexed tokenId,\n        uint128 liquidity,\n        uint256 amount0,\n        uint256 amount1\n    );\n\n    event RemoveLiquidity(\n        uint256 indexed tokenId,\n        uint128 liquidity,\n        uint256 amount0,\n        uint256 amount1\n    );\n\n    /*\n    Structs\n    */\n    struct AddLiquidityInternalParams {\n        IUniswapV3Pool pool;\n        int24 lowerTick;\n        int24 upperTick;\n        uint256 amount0Desired;\n        uint256 amount1Desired;\n        uint256 amount0Min;\n        uint256 amount1Min;\n    }\n\n    struct TokenPosition {\n        address pool;\n        int24 lowerTick;\n        int24 upperTick;\n    }\n    /*\n    Variables\n    */\n    uint256 public totalSupply;\n    uint256 private nextTokenId;\n\n    address public immutable factory;\n    PoolFactory poolfactory;\n\n    /*\n    Mappings\n    */\n    mapping(uint256 => TokenPosition) public positions;\n    mapping(address => uint256[]) public userOwnedPositions;\n    mapping(uint256 => bool) public burnedIds;\n\n    /*\n    Modifiers\n    */\n    modifier isApprovedOrOwner(uint256 tokenId) {\n        address owner = ownerOf(tokenId);\n        if (\n            msg.sender != owner &&\n            !isApprovedForAll[owner][msg.sender] &&\n            getApproved[tokenId] != msg.sender\n        ) revert NotAuthorized();\n\n        _;\n    }\n\n    /*\n    Constructor\n    */\n    constructor(address factoryAddress) ERC721(\"NFT Positions\", \"PosNFT\") {\n        factory = factoryAddress;\n        poolfactory = PoolFactory(factory);\n    }\n\n    /*\n    Public \n    */\n    /// @notice Used for setting new positions. Mints an NFT connected to the created position\n    /// An array with the following parameters:\n    ///             recipient: the user who is minting the new position\n    ///             tokenA: first token in the pool where the position is being minted\n    ///             tokenB: second token in the pool where the position is being minted\n    ///             fee: fee of the pool where the position is being minted\n    ///             lowerTick: lower tick of the position being minted\n    ///             upperTick: upper tick of the position being minted\n    ///             amount0Desired:amount of first token we want to add to the position as liquidity\n    ///             amount1Desired:amount of second token we want to add to the position as liquidity\n    ///             amount0Min: min amount of first token we want to add to the position as liquidity\n    ///             amount1Min: min amount of second token we want to add to the position as liquidity\n    function mint(address recipient,\n                address tokenA,\n                address tokenB,\n                uint24 fee,\n        int24 lowerTick,\n        int24 upperTick,\n        uint256 amount0Desired,\n        uint256 amount1Desired,\n        uint256 amount0Min,\n        uint256 amount1Min) public returns (uint256 tokenId) {\n        IUniswapV3Pool pool = IUniswapV3Pool(poolfactory.pools(\n            tokenA,\n            tokenB,\n            fee\n        )); \n \n        (uint128 liquidity, uint256 amount0, uint256 amount1) = _addLiquidity(\n            AddLiquidityInternalParams({\n                pool: pool,\n                lowerTick: lowerTick,\n                upperTick: upperTick,\n                amount0Desired: amount0Desired,\n                amount1Desired: amount1Desired,\n                amount0Min: amount0Min,\n                amount1Min: amount1Min\n            })\n        );\n        \n        tokenId = nextTokenId++;\n\n        _mint(recipient, tokenId);\n        totalSupply++;\n\n        TokenPosition memory tokenPosition = TokenPosition({\n            pool: address(pool),\n            lowerTick: lowerTick,\n            upperTick: upperTick\n        });\n\n        positions[tokenId] = tokenPosition;\n        userOwnedPositions[msg.sender].push(tokenId);\n\n        emit AddLiquidity(tokenId, liquidity, amount0, amount1);\n    }\n\n    /// @notice Burns an NFT related to a liquidity position\n    /// @param tokenId The id of the NFT we wish to burn\n    /// @dev This method will fail if called before the user removes all liquidity from the corresponding positions\n    ///      and collects the corresponding tokens\n    function burn(uint256 tokenId) public isApprovedOrOwner(tokenId) {\n        TokenPosition memory tokenPosition = positions[tokenId];\n        if (tokenPosition.pool == address(0x00))\n            revert HelpFunctions.WrongToken();\n\n        IUniswapV3Pool pool = IUniswapV3Pool(tokenPosition.pool);\n        (uint128 liquidity, , , uint128 tokensOwed0, uint128 tokensOwed1) = pool\n            .positions(_poolPositionKey(tokenPosition));\n\n        if (liquidity > 0 || tokensOwed0 > 0 || tokensOwed1 > 0)\n            revert HelpFunctions.PositionNotCleared();\n\n        delete positions[tokenId];\n        burnedIds[tokenId] = true;\n        _burn(tokenId);\n        totalSupply--;\n    }\n\n    /// @notice collects the tokens relative to a cleared (or partially cleared) position.\n    /// @param tokenId: the token Id of the position we wish to collect\n    /// @dev Can only be called after the user has removed some liquidity from the position\n    function collect(\n        uint256 tokenId\n    )\n        public\n        isApprovedOrOwner(tokenId)\n        returns (uint128 amount0, uint128 amount1)\n    {\n        TokenPosition memory tokenPosition = positions[tokenId];\n        if (tokenPosition.pool == address(0x00))\n            revert HelpFunctions.WrongToken();\n\n        IUniswapV3Pool pool = IUniswapV3Pool(tokenPosition.pool);\n\n        (, , , uint128 tokensOwed0, uint128 tokensOwed1) = pool.positions(\n            _poolPositionKey(tokenPosition)\n        );\n\n        (amount0, amount1) = pool.collect(\n            msg.sender,\n            tokenPosition.lowerTick,\n            tokenPosition.upperTick,\n            tokensOwed0,\n            tokensOwed1\n        );\n    }\n\n    /// @notice adds liquidity to an existing position.\n    /// An array with the following parameters:\n    ///             tokenId: the token Id of the position we wish to add liquidity too\n    ///             amount0Desired: amount of token 0 we want to add\n    ///             amount1Desired: amount of token 1 we want to add\n    ///             amount0Min: min amount of token 0 we want to add\n    ///             amount1Min: min amount of token 1 we want to add\n    /// @dev does not mint a new NFT. It only updates the position info\n    function addLiquidity(\n        uint256 tokenId,\n        uint256 amount0Desired,\n        uint256 amount1Desired,\n        uint256 amount0Min,\n        uint256 amount1Min\n    ) public returns (uint128 liquidity, uint256 amount0, uint256 amount1) {\n        TokenPosition memory tokenPosition = positions[tokenId];\n\n        if (tokenPosition.pool == address(0x00))\n            revert HelpFunctions.WrongToken();\n\n        (liquidity, amount0, amount1) = _addLiquidity(\n            AddLiquidityInternalParams({\n                pool: IUniswapV3Pool(tokenPosition.pool),\n                lowerTick: tokenPosition.lowerTick,\n                upperTick: tokenPosition.upperTick,\n                amount0Desired: amount0Desired,\n                amount1Desired: amount1Desired,\n                amount0Min: amount0Min,\n                amount1Min: amount1Min\n            })\n        );\n\n        emit AddLiquidity(tokenId, liquidity, amount0, amount1);\n    }\n\n    /// @notice removes liquidity from an existing position.\n    /// An array with the following parameters:\n    ///             tokenId: the token Id of the position we wish to remove liquidity from\n    ///             liquidity: the liquidity amount we wish to remove\n    /// @dev does not burn the NFT and does not return the tokens to the user (use collect for that).\n    ///     It only updates the position info\n    function removeLiquidity(\n        uint256 tokenId,\n        uint128 liquidity\n    )\n        public\n        isApprovedOrOwner(tokenId)\n        returns (uint256 amount0, uint256 amount1)\n    {\n        TokenPosition memory tokenPosition = positions[tokenId];\n\n        if (tokenPosition.pool == address(0x00))\n            revert HelpFunctions.WrongToken();\n\n        IUniswapV3Pool pool = IUniswapV3Pool(tokenPosition.pool);\n\n        (uint128 availableLiquidity, , , , ) = pool.positions(\n            _poolPositionKey(tokenPosition)\n        );\n        if (liquidity > availableLiquidity) revert NotEnoughLiquidity();\n\n        (amount0, amount1) = pool.burn(\n            tokenPosition.lowerTick,\n            tokenPosition.upperTick,\n            liquidity\n        );\n\n        emit RemoveLiquidity(\n            tokenId,\n            liquidity,\n            amount0,\n            amount1\n        );\n    }\n\n    /// @notice help function to transfer the tokens.\n    function uniswapV3MintCallback(\n        uint256 amount0,\n        uint256 amount1,\n        bytes calldata data\n    ) public {\n        IUniswapV3Pool.CallbackData memory extra = abi.decode(\n            data,\n            (IUniswapV3Pool.CallbackData)\n        );\n        IERC20(extra.token0).transferFrom(extra.payer, msg.sender, amount0);\n        IERC20(extra.token1).transferFrom(extra.payer, msg.sender, amount1);\n    }\n\n    /*\n    Public - View\n     */\n\n    /// @notice Returns a list of all Liquidity Token IDs assigned to an address.\n    /// @param _owner The owner whose nfts we are interested in.\n    /// @dev This method MUST NEVER be called by smart contract code. First, it's fairly\n    ///  expensive (it walks the entire token array looking for tokens belonging to owner),\n    ///  but it also returns a dynamic array, which is only supported for web3 calls, and\n    ///  not contract-to-contract calls.\n    function tokensOfOwner(\n        address _owner\n    ) public view returns (uint256[] memory ownerTokens) {\n        uint256 tokenCount = balanceOf(_owner);\n\n        if (tokenCount == 0) {\n            // Return an empty array\n            return new uint256[](0);\n        } else {\n            uint256[] memory result = new uint256[](tokenCount);\n            uint256 totalTokens = nextTokenId;\n            uint256 resultIndex = 0;\n\n            // We count on the fact that all tokens have IDs starting at 0 and increasing\n            // sequentially up to the totalTokens count.\n            uint256 tokenId;\n\n            while (resultIndex < totalTokens && tokenId < totalTokens) {\n                if (burnedIds[tokenId] != true) {\n                    if (ownerOf(tokenId) == _owner) {\n                        result[resultIndex] = tokenId;\n                        resultIndex++;\n                    }\n                }\n                tokenId++;\n            }\n\n            return result;\n        }\n    }\n\n    /// @notice receives a tokenId and returns all the information regarding that tokens position.\n    /// @param tokenId: the token Id\n    function tokenIDtoPosition(\n        uint256 tokenId\n    ) public view returns (address, uint128, uint128, uint128, int24, int24) {\n        TokenPosition memory tokenPosition = positions[tokenId];\n        if (tokenPosition.pool == address(0x00))\n            revert HelpFunctions.WrongToken();\n\n        IUniswapV3Pool pool = IUniswapV3Pool(tokenPosition.pool);\n        (uint128 liquidity, , , uint128 tokensOwed0, uint128 tokensOwed1) = pool\n            .positions(_poolPositionKey(tokenPosition));\n        return (\n            tokenPosition.pool,\n            liquidity,\n            tokensOwed0,\n            tokensOwed1,\n            tokenPosition.lowerTick,\n            tokenPosition.upperTick\n        );\n    }\n\n    /// @notice Gets a positions owed fees\n    /// @param tokenId The id of the NFT we wish to know the owed fees\n    function _getFees(\n        uint256 tokenId\n    )\n        public\n        view\n        returns (uint256 updatedTokensOwed0, uint256 updatedTokensOwed1)\n    {\n        TokenPosition memory tokenPosition = positions[tokenId];\n        if (tokenPosition.pool == address(0x00))\n            revert HelpFunctions.WrongToken();\n\n        IUniswapV3Pool pool = IUniswapV3Pool(tokenPosition.pool);\n\n        (updatedTokensOwed0, updatedTokensOwed1) = pool.getFees(\n            tokenPosition.lowerTick,\n            tokenPosition.upperTick,\n            address(this)\n        );\n    }\n\n    /// @notice receives an user address and returns all the information regarding all the token positions he has.\n    /// @param user: address of an user\n    function userToAllPositionsOne(\n        address user\n    )\n        public\n        view\n        returns (\n            uint256[] memory,\n            address[] memory,\n            uint128[] memory,\n            int24[] memory,\n            int24[] memory\n        )\n    {\n        uint256[] memory _tokensOfOwner = tokensOfOwner(user);\n        address[] memory poolAdresses = new address[](_tokensOfOwner.length);\n        uint128[] memory liquidities = new uint128[](_tokensOfOwner.length);\n\n        int24[] memory lowerTicks = new int24[](_tokensOfOwner.length);\n        int24[] memory upperTicks = new int24[](_tokensOfOwner.length);\n\n        for (uint i = 0; i < _tokensOfOwner.length; ++i) {\n            TokenPosition memory tokenPosition = positions[_tokensOfOwner[i]];\n            if (tokenPosition.pool == address(0x00))\n                revert HelpFunctions.WrongToken();\n\n            IUniswapV3Pool pool = IUniswapV3Pool(tokenPosition.pool);\n            (\n                uint128 liquidity,\n                ,\n                ,\n                ,\n                \n            ) = pool.positions(_poolPositionKey(tokenPosition));\n\n            poolAdresses[i] = tokenPosition.pool;\n            liquidities[i] = liquidity;\n            lowerTicks[i] = tokenPosition.lowerTick;\n            upperTicks[i] = tokenPosition.upperTick;\n        }\n        return (\n            _tokensOfOwner,\n            poolAdresses,\n            liquidities,\n            lowerTicks,\n            upperTicks\n        );\n    }\n\n    /// @notice receives an user address and returns atokens owed to the user\n    /// @param user: address of an user\n    function userToAllPositionsTwo(\n        address user\n    )\n        public\n        view\n        returns (\n            uint256[] memory,\n            uint128[] memory,\n            uint128[] memory\n        )\n    {\n        uint256[] memory _tokensOfOwner = tokensOfOwner(user);\n        uint128[] memory _tokensOwed0 = new uint128[](_tokensOfOwner.length);\n        uint128[] memory _tokensOwed1 = new uint128[](_tokensOfOwner.length);\n\n        for (uint i = 0; i < _tokensOfOwner.length; ++i) {\n            TokenPosition memory tokenPosition = positions[_tokensOfOwner[i]];\n            if (tokenPosition.pool == address(0x00))\n                revert HelpFunctions.WrongToken();\n\n            IUniswapV3Pool pool = IUniswapV3Pool(tokenPosition.pool);\n            (\n                ,\n                ,\n                ,\n                uint128 tokensOwed0,\n                uint128 tokensOwed1\n            ) = pool.positions(_poolPositionKey(tokenPosition));\n\n            _tokensOwed0[i] = tokensOwed0;\n            _tokensOwed1[i] = tokensOwed1;\n        }\n        return (\n            _tokensOfOwner,\n            _tokensOwed0,\n            _tokensOwed1\n        );\n    }\n\n    /// @notice receives an user address and returns all the fees regarding all the token positions he has.\n    /// @param user: address of an user\n    function userToAllPositionsFees(\n        address user\n    ) public view returns (uint256[] memory, uint256[] memory, uint256[] memory) {\n        uint256[] memory _tokensOfOwner = tokensOfOwner(user);\n\n        uint256[] memory _updatedTokensOwed0 = new uint256[](\n            _tokensOfOwner.length\n        );\n        uint256[] memory _updatedTokensOwed1 = new uint256[](\n            _tokensOfOwner.length\n        );\n\n        for (uint i = 0; i < _tokensOfOwner.length; ++i) {\n            (uint256 updatedTokensOwed0, uint256 updatedTokensOwed1) = _getFees(\n                _tokensOfOwner[i]\n            );\n            _updatedTokensOwed0[i] = updatedTokensOwed0;\n            _updatedTokensOwed1[i] = updatedTokensOwed1;\n        }\n        return (_tokensOfOwner, _updatedTokensOwed0, _updatedTokensOwed1);\n    }\n\n    /// @notice returns the URI of the image of an NFT token.\n    /// @param tokenId: the token Id\n    function tokenURI(\n        uint256 tokenId\n    ) public view override returns (string memory) {\n        TokenPosition memory tokenPosition = positions[tokenId];\n\n        if (tokenPosition.pool == address(0x00))\n            revert HelpFunctions.WrongToken();\n\n        IUniswapV3Pool pool = IUniswapV3Pool(tokenPosition.pool);\n\n        IERC20 token0 = IERC20(pool.token0());\n        IERC20 token1 = IERC20(pool.token1());\n\n        string memory symbol0 = token0.symbol();\n        string memory symbol1 = token1.symbol();\n\n        return\n            NFTRenderer.render(\n                NFTRenderer.RenderParams({\n                    symbol0: symbol0,\n                    symbol1: symbol1,\n                    owner: address(this),\n                    lowerTick: tokenPosition.lowerTick,\n                    upperTick: tokenPosition.upperTick,\n                    fee: pool.fee()\n                })\n            );\n    }\n\n    /*\n    Internal\n    */\n    /// @notice returns position ID within a pool\n    /// @param position: an array with the following parameters:\n    ///             pool: the token Id\n    ///             lowerTick: the token Id\n    ///             upperTick: the token Id\n    function _poolPositionKey(\n        TokenPosition memory position\n    ) internal view returns (bytes32 key) {\n        key = keccak256(\n            abi.encodePacked(\n                address(this),\n                position.lowerTick,\n                position.upperTick\n            )\n        );\n    }\n\n    /// @notice help function to add liquidity anytime we mint or add liquidity to an existing position\n    function _addLiquidity(\n        AddLiquidityInternalParams memory params\n    ) internal returns (uint128 liquidity, uint256 amount0, uint256 amount1) {\n        \n        (uint160 sqrtPriceX96, , , , ) = params.pool.slot0();\n\n        liquidity = LiquidityMath.getLiquidityForAmounts(\n            sqrtPriceX96,\n            TickMath.getSqrtRatioAtTick(params.lowerTick),\n            TickMath.getSqrtRatioAtTick(params.upperTick),\n            params.amount0Desired,\n            params.amount1Desired\n        );\n        \n        (amount0, amount1) = params.pool.mint(\n            address(this),\n            params.lowerTick,\n            params.upperTick,\n            liquidity,\n            abi.encode(\n                IUniswapV3Pool.CallbackData({\n                    token0: params.pool.token0(),\n                    token1: params.pool.token1(),\n                    payer: msg.sender\n                })\n            )\n        );\n\n        if (amount0 < params.amount0Min || amount1 < params.amount1Min)\n            revert HelpFunctions.SlippageCheckFailed(amount0, amount1);\n    }\n}\n",
  "sourcePath": "contracts/NFT.sol",
  "type": "contract"
}