{
    "abi": [
        {
            "inputs": [
                {
                    "internalType": "address",
                    "name": "factoryAddress",
                    "type": "address"
                }
            ],
            "stateMutability": "nonpayable",
            "type": "constructor"
        },
        {
            "inputs": [],
            "name": "NotAuthorized",
            "type": "error"
        },
        {
            "inputs": [],
            "name": "NotEnoughLiquidity",
            "type": "error"
        },
        {
            "inputs": [
                {
                    "internalType": "uint256",
                    "name": "prod1",
                    "type": "uint256"
                },
                {
                    "internalType": "uint256",
                    "name": "denominator",
                    "type": "uint256"
                }
            ],
            "name": "PRBMath__MulDivOverflow",
            "type": "error"
        },
        {
            "inputs": [],
            "name": "PositionNotCleared",
            "type": "error"
        },
        {
            "inputs": [],
            "name": "PositionNotCleared",
            "type": "error"
        },
        {
            "inputs": [
                {
                    "internalType": "uint256",
                    "name": "amount0",
                    "type": "uint256"
                },
                {
                    "internalType": "uint256",
                    "name": "amount1",
                    "type": "uint256"
                }
            ],
            "name": "SlippageCheckFailed",
            "type": "error"
        },
        {
            "inputs": [
                {
                    "internalType": "uint256",
                    "name": "amount0",
                    "type": "uint256"
                },
                {
                    "internalType": "uint256",
                    "name": "amount1",
                    "type": "uint256"
                }
            ],
            "name": "SlippageCheckFailed",
            "type": "error"
        },
        {
            "inputs": [
                {
                    "internalType": "uint256",
                    "name": "amountOut",
                    "type": "uint256"
                }
            ],
            "name": "TooLittleReceived",
            "type": "error"
        },
        {
            "inputs": [],
            "name": "WrongToken",
            "type": "error"
        },
        {
            "inputs": [],
            "name": "WrongToken",
            "type": "error"
        },
        {
            "anonymous": false,
            "inputs": [
                {
                    "indexed": true,
                    "internalType": "uint256",
                    "name": "tokenId",
                    "type": "uint256"
                },
                {
                    "indexed": false,
                    "internalType": "uint128",
                    "name": "liquidity",
                    "type": "uint128"
                },
                {
                    "indexed": false,
                    "internalType": "uint256",
                    "name": "amount0",
                    "type": "uint256"
                },
                {
                    "indexed": false,
                    "internalType": "uint256",
                    "name": "amount1",
                    "type": "uint256"
                }
            ],
            "name": "AddLiquidity",
            "type": "event"
        },
        {
            "anonymous": false,
            "inputs": [
                {
                    "indexed": true,
                    "internalType": "address",
                    "name": "owner",
                    "type": "address"
                },
                {
                    "indexed": true,
                    "internalType": "address",
                    "name": "spender",
                    "type": "address"
                },
                {
                    "indexed": true,
                    "internalType": "uint256",
                    "name": "id",
                    "type": "uint256"
                }
            ],
            "name": "Approval",
            "type": "event"
        },
        {
            "anonymous": false,
            "inputs": [
                {
                    "indexed": true,
                    "internalType": "address",
                    "name": "owner",
                    "type": "address"
                },
                {
                    "indexed": true,
                    "internalType": "address",
                    "name": "operator",
                    "type": "address"
                },
                {
                    "indexed": false,
                    "internalType": "bool",
                    "name": "approved",
                    "type": "bool"
                }
            ],
            "name": "ApprovalForAll",
            "type": "event"
        },
        {
            "anonymous": false,
            "inputs": [
                {
                    "indexed": true,
                    "internalType": "uint256",
                    "name": "tokenId",
                    "type": "uint256"
                },
                {
                    "indexed": false,
                    "internalType": "uint128",
                    "name": "liquidity",
                    "type": "uint128"
                },
                {
                    "indexed": false,
                    "internalType": "uint256",
                    "name": "amount0",
                    "type": "uint256"
                },
                {
                    "indexed": false,
                    "internalType": "uint256",
                    "name": "amount1",
                    "type": "uint256"
                }
            ],
            "name": "RemoveLiquidity",
            "type": "event"
        },
        {
            "anonymous": false,
            "inputs": [
                {
                    "indexed": true,
                    "internalType": "address",
                    "name": "from",
                    "type": "address"
                },
                {
                    "indexed": true,
                    "internalType": "address",
                    "name": "to",
                    "type": "address"
                },
                {
                    "indexed": true,
                    "internalType": "uint256",
                    "name": "id",
                    "type": "uint256"
                }
            ],
            "name": "Transfer",
            "type": "event"
        },
        {
            "inputs": [
                {
                    "internalType": "uint256",
                    "name": "tokenId",
                    "type": "uint256"
                }
            ],
            "name": "_getFees",
            "outputs": [
                {
                    "internalType": "uint256",
                    "name": "updatedTokensOwed0",
                    "type": "uint256"
                },
                {
                    "internalType": "uint256",
                    "name": "updatedTokensOwed1",
                    "type": "uint256"
                }
            ],
            "stateMutability": "view",
            "type": "function"
        },
        {
            "inputs": [
                {
                    "components": [
                        {
                            "internalType": "uint256",
                            "name": "tokenId",
                            "type": "uint256"
                        },
                        {
                            "internalType": "uint256",
                            "name": "amount0Desired",
                            "type": "uint256"
                        },
                        {
                            "internalType": "uint256",
                            "name": "amount1Desired",
                            "type": "uint256"
                        },
                        {
                            "internalType": "uint256",
                            "name": "amount0Min",
                            "type": "uint256"
                        },
                        {
                            "internalType": "uint256",
                            "name": "amount1Min",
                            "type": "uint256"
                        }
                    ],
                    "internalType": "struct NFT.AddLiquidityParams",
                    "name": "params",
                    "type": "tuple"
                }
            ],
            "name": "addLiquidity",
            "outputs": [
                {
                    "internalType": "uint128",
                    "name": "liquidity",
                    "type": "uint128"
                },
                {
                    "internalType": "uint256",
                    "name": "amount0",
                    "type": "uint256"
                },
                {
                    "internalType": "uint256",
                    "name": "amount1",
                    "type": "uint256"
                }
            ],
            "stateMutability": "nonpayable",
            "type": "function"
        },
        {
            "inputs": [
                {
                    "internalType": "address",
                    "name": "spender",
                    "type": "address"
                },
                {
                    "internalType": "uint256",
                    "name": "id",
                    "type": "uint256"
                }
            ],
            "name": "approve",
            "outputs": [],
            "stateMutability": "nonpayable",
            "type": "function"
        },
        {
            "inputs": [
                {
                    "internalType": "address",
                    "name": "owner",
                    "type": "address"
                }
            ],
            "name": "balanceOf",
            "outputs": [
                {
                    "internalType": "uint256",
                    "name": "",
                    "type": "uint256"
                }
            ],
            "stateMutability": "view",
            "type": "function"
        },
        {
            "inputs": [
                {
                    "internalType": "uint256",
                    "name": "tokenId",
                    "type": "uint256"
                }
            ],
            "name": "burn",
            "outputs": [],
            "stateMutability": "nonpayable",
            "type": "function"
        },
        {
            "inputs": [
                {
                    "internalType": "uint256",
                    "name": "",
                    "type": "uint256"
                }
            ],
            "name": "burnedIds",
            "outputs": [
                {
                    "internalType": "bool",
                    "name": "",
                    "type": "bool"
                }
            ],
            "stateMutability": "view",
            "type": "function"
        },
        {
            "inputs": [
                {
                    "internalType": "uint256",
                    "name": "tokenId",
                    "type": "uint256"
                }
            ],
            "name": "collect",
            "outputs": [
                {
                    "internalType": "uint128",
                    "name": "amount0",
                    "type": "uint128"
                },
                {
                    "internalType": "uint128",
                    "name": "amount1",
                    "type": "uint128"
                }
            ],
            "stateMutability": "nonpayable",
            "type": "function"
        },
        {
            "inputs": [],
            "name": "factory",
            "outputs": [
                {
                    "internalType": "address",
                    "name": "",
                    "type": "address"
                }
            ],
            "stateMutability": "view",
            "type": "function"
        },
        {
            "inputs": [
                {
                    "internalType": "uint256",
                    "name": "",
                    "type": "uint256"
                }
            ],
            "name": "getApproved",
            "outputs": [
                {
                    "internalType": "address",
                    "name": "",
                    "type": "address"
                }
            ],
            "stateMutability": "view",
            "type": "function"
        },
        {
            "inputs": [
                {
                    "internalType": "address",
                    "name": "",
                    "type": "address"
                },
                {
                    "internalType": "address",
                    "name": "",
                    "type": "address"
                }
            ],
            "name": "isApprovedForAll",
            "outputs": [
                {
                    "internalType": "bool",
                    "name": "",
                    "type": "bool"
                }
            ],
            "stateMutability": "view",
            "type": "function"
        },
        {
            "inputs": [
                {
                    "internalType": "address",
                    "name": "recipient",
                    "type": "address"
                },
                {
                    "internalType": "address",
                    "name": "tokenA",
                    "type": "address"
                },
                {
                    "internalType": "address",
                    "name": "tokenB",
                    "type": "address"
                },
                {
                    "internalType": "uint24",
                    "name": "fee",
                    "type": "uint24"
                },
                {
                    "internalType": "int24",
                    "name": "lowerTick",
                    "type": "int24"
                },
                {
                    "internalType": "int24",
                    "name": "upperTick",
                    "type": "int24"
                },
                {
                    "internalType": "uint256",
                    "name": "amount0Desired",
                    "type": "uint256"
                },
                {
                    "internalType": "uint256",
                    "name": "amount1Desired",
                    "type": "uint256"
                },
                {
                    "internalType": "uint256",
                    "name": "amount0Min",
                    "type": "uint256"
                },
                {
                    "internalType": "uint256",
                    "name": "amount1Min",
                    "type": "uint256"
                }
            ],
            "name": "mint",
            "outputs": [
                {
                    "internalType": "uint256",
                    "name": "tokenId",
                    "type": "uint256"
                }
            ],
            "stateMutability": "nonpayable",
            "type": "function"
        },
        {
            "inputs": [],
            "name": "name",
            "outputs": [
                {
                    "internalType": "string",
                    "name": "",
                    "type": "string"
                }
            ],
            "stateMutability": "view",
            "type": "function"
        },
        {
            "inputs": [
                {
                    "internalType": "uint256",
                    "name": "id",
                    "type": "uint256"
                }
            ],
            "name": "ownerOf",
            "outputs": [
                {
                    "internalType": "address",
                    "name": "owner",
                    "type": "address"
                }
            ],
            "stateMutability": "view",
            "type": "function"
        },
        {
            "inputs": [
                {
                    "internalType": "uint256",
                    "name": "",
                    "type": "uint256"
                }
            ],
            "name": "positions",
            "outputs": [
                {
                    "internalType": "address",
                    "name": "pool",
                    "type": "address"
                },
                {
                    "internalType": "int24",
                    "name": "lowerTick",
                    "type": "int24"
                },
                {
                    "internalType": "int24",
                    "name": "upperTick",
                    "type": "int24"
                }
            ],
            "stateMutability": "view",
            "type": "function"
        },
        {
            "inputs": [
                {
                    "components": [
                        {
                            "internalType": "uint256",
                            "name": "tokenId",
                            "type": "uint256"
                        },
                        {
                            "internalType": "uint128",
                            "name": "liquidity",
                            "type": "uint128"
                        }
                    ],
                    "internalType": "struct NFT.RemoveLiquidityParams",
                    "name": "params",
                    "type": "tuple"
                }
            ],
            "name": "removeLiquidity",
            "outputs": [
                {
                    "internalType": "uint256",
                    "name": "amount0",
                    "type": "uint256"
                },
                {
                    "internalType": "uint256",
                    "name": "amount1",
                    "type": "uint256"
                }
            ],
            "stateMutability": "nonpayable",
            "type": "function"
        },
        {
            "inputs": [
                {
                    "internalType": "address",
                    "name": "from",
                    "type": "address"
                },
                {
                    "internalType": "address",
                    "name": "to",
                    "type": "address"
                },
                {
                    "internalType": "uint256",
                    "name": "id",
                    "type": "uint256"
                }
            ],
            "name": "safeTransferFrom",
            "outputs": [],
            "stateMutability": "nonpayable",
            "type": "function"
        },
        {
            "inputs": [
                {
                    "internalType": "address",
                    "name": "from",
                    "type": "address"
                },
                {
                    "internalType": "address",
                    "name": "to",
                    "type": "address"
                },
                {
                    "internalType": "uint256",
                    "name": "id",
                    "type": "uint256"
                },
                {
                    "internalType": "bytes",
                    "name": "data",
                    "type": "bytes"
                }
            ],
            "name": "safeTransferFrom",
            "outputs": [],
            "stateMutability": "nonpayable",
            "type": "function"
        },
        {
            "inputs": [
                {
                    "internalType": "address",
                    "name": "operator",
                    "type": "address"
                },
                {
                    "internalType": "bool",
                    "name": "approved",
                    "type": "bool"
                }
            ],
            "name": "setApprovalForAll",
            "outputs": [],
            "stateMutability": "nonpayable",
            "type": "function"
        },
        {
            "inputs": [
                {
                    "internalType": "bytes4",
                    "name": "interfaceId",
                    "type": "bytes4"
                }
            ],
            "name": "supportsInterface",
            "outputs": [
                {
                    "internalType": "bool",
                    "name": "",
                    "type": "bool"
                }
            ],
            "stateMutability": "view",
            "type": "function"
        },
        {
            "inputs": [],
            "name": "symbol",
            "outputs": [
                {
                    "internalType": "string",
                    "name": "",
                    "type": "string"
                }
            ],
            "stateMutability": "view",
            "type": "function"
        },
        {
            "inputs": [
                {
                    "internalType": "uint256",
                    "name": "tokenId",
                    "type": "uint256"
                }
            ],
            "name": "tokenIDtoPosition",
            "outputs": [
                {
                    "internalType": "address",
                    "name": "",
                    "type": "address"
                },
                {
                    "internalType": "uint128",
                    "name": "",
                    "type": "uint128"
                },
                {
                    "internalType": "uint128",
                    "name": "",
                    "type": "uint128"
                },
                {
                    "internalType": "uint128",
                    "name": "",
                    "type": "uint128"
                },
                {
                    "internalType": "int24",
                    "name": "",
                    "type": "int24"
                },
                {
                    "internalType": "int24",
                    "name": "",
                    "type": "int24"
                }
            ],
            "stateMutability": "view",
            "type": "function"
        },
        {
            "inputs": [
                {
                    "internalType": "uint256",
                    "name": "tokenId",
                    "type": "uint256"
                }
            ],
            "name": "tokenURI",
            "outputs": [
                {
                    "internalType": "string",
                    "name": "",
                    "type": "string"
                }
            ],
            "stateMutability": "view",
            "type": "function"
        },
        {
            "inputs": [
                {
                    "internalType": "address",
                    "name": "_owner",
                    "type": "address"
                }
            ],
            "name": "tokensOfOwner",
            "outputs": [
                {
                    "internalType": "uint256[]",
                    "name": "ownerTokens",
                    "type": "uint256[]"
                }
            ],
            "stateMutability": "view",
            "type": "function"
        },
        {
            "inputs": [],
            "name": "totalSupply",
            "outputs": [
                {
                    "internalType": "uint256",
                    "name": "",
                    "type": "uint256"
                }
            ],
            "stateMutability": "view",
            "type": "function"
        },
        {
            "inputs": [
                {
                    "internalType": "address",
                    "name": "from",
                    "type": "address"
                },
                {
                    "internalType": "address",
                    "name": "to",
                    "type": "address"
                },
                {
                    "internalType": "uint256",
                    "name": "id",
                    "type": "uint256"
                }
            ],
            "name": "transferFrom",
            "outputs": [],
            "stateMutability": "nonpayable",
            "type": "function"
        },
        {
            "inputs": [
                {
                    "internalType": "uint256",
                    "name": "amount0",
                    "type": "uint256"
                },
                {
                    "internalType": "uint256",
                    "name": "amount1",
                    "type": "uint256"
                },
                {
                    "internalType": "bytes",
                    "name": "data",
                    "type": "bytes"
                }
            ],
            "name": "uniswapV3MintCallback",
            "outputs": [],
            "stateMutability": "nonpayable",
            "type": "function"
        },
        {
            "inputs": [
                {
                    "internalType": "address",
                    "name": "",
                    "type": "address"
                },
                {
                    "internalType": "uint256",
                    "name": "",
                    "type": "uint256"
                }
            ],
            "name": "userOwnedPositions",
            "outputs": [
                {
                    "internalType": "uint256",
                    "name": "",
                    "type": "uint256"
                }
            ],
            "stateMutability": "view",
            "type": "function"
        },
        {
            "inputs": [
                {
                    "internalType": "address",
                    "name": "user",
                    "type": "address"
                }
            ],
            "name": "userToAllPositions",
            "outputs": [
                {
                    "internalType": "address[]",
                    "name": "",
                    "type": "address[]"
                },
                {
                    "internalType": "uint128[]",
                    "name": "",
                    "type": "uint128[]"
                },
                {
                    "internalType": "uint128[]",
                    "name": "",
                    "type": "uint128[]"
                },
                {
                    "internalType": "uint128[]",
                    "name": "",
                    "type": "uint128[]"
                },
                {
                    "internalType": "int24[]",
                    "name": "",
                    "type": "int24[]"
                },
                {
                    "internalType": "int24[]",
                    "name": "",
                    "type": "int24[]"
                }
            ],
            "stateMutability": "view",
            "type": "function"
        },
        {
            "inputs": [
                {
                    "internalType": "address",
                    "name": "user",
                    "type": "address"
                }
            ],
            "name": "userToAllPositionsFees",
            "outputs": [
                {
                    "internalType": "uint256[]",
                    "name": "",
                    "type": "uint256[]"
                },
                {
                    "internalType": "uint256[]",
                    "name": "",
                    "type": "uint256[]"
                }
            ],
            "stateMutability": "view",
            "type": "function"
        }
    ],
    "bytecode": "60a06040523480156200001157600080fd5b50604051620048a9380380620048a98339810160408190526200003491620000c3565b6040518060400160405280600d81526020016c4e465420506f736974696f6e7360981b81525060405180604001604052806006815260200165141bdcd3919560d21b81525081600090816200008a91906200019a565b5060016200009982826200019a565b5050506001600160a01b03166080819052600880546001600160a01b031916909117905562000266565b600060208284031215620000d657600080fd5b81516001600160a01b0381168114620000ee57600080fd5b9392505050565b634e487b7160e01b600052604160045260246000fd5b600181811c908216806200012057607f821691505b6020821081036200014157634e487b7160e01b600052602260045260246000fd5b50919050565b601f8211156200019557600081815260208120601f850160051c81016020861015620001705750805b601f850160051c820191505b8181101562000191578281556001016200017c565b5050505b505050565b81516001600160401b03811115620001b657620001b6620000f5565b620001ce81620001c784546200010b565b8462000147565b602080601f831160018114620002065760008415620001ed5750858301515b600019600386901b1c1916600185901b17855562000191565b600085815260208120601f198616915b82811015620002375788860151825594840194600190910190840162000216565b5085821015620002565787850151600019600388901b60f8161c191681555b5050505050600190811b01905550565b6080516146276200028260003960006104c101526146276000f3fe608060405234801561001057600080fd5b50600436106101cf5760003560e01c806370a0823111610104578063c45a0155116100a2578063d9bb9d6f11610071578063d9bb9d6f1461053c578063e63ad42a1461054f578063e985e9c514610562578063fc9f76d61461059057600080fd5b8063c45a0155146104bc578063c87b56dd146104e3578063ce3f865f146104f6578063d34879971461052957600080fd5b806395d89b41116100de57806395d89b411461042457806399fbab881461042c578063a22cb46514610496578063b88d4fde146104a957600080fd5b806370a08231146103ce57806380b28db0146103e15780638462151c1461040457600080fd5b806323b872dd1161017157806342966c681161014b57806342966c681461034f5780634caad396146103625780635ef8d0ae1461039a5780636352211e146103bb57600080fd5b806323b872dd146102cb5780632765e88f146102de57806342842e0e1461033c57600080fd5b8063095ea7b3116101ad578063095ea7b3146102525780630e3a80881461026757806312ba95ee1461028c57806318160ddd146102b457600080fd5b806301ffc9a7146101d457806306fdde03146101fc578063081812fc14610211575b600080fd5b6101e76101e236600461344a565b6105a3565b60405190151581526020015b60405180910390f35b6102046105f5565b6040516101f391906134b7565b61023a61021f3660046134ca565b6004602052600090815260409020546001600160a01b031681565b6040516001600160a01b0390911681526020016101f3565b6102656102603660046134f8565b610683565b005b61027a610275366004613524565b61076a565b6040516101f3969594939291906135b8565b61029f61029a366004613697565b610b9d565b604080519283526020830191909152016101f3565b6102bd60065481565b6040519081526020016101f3565b6102656102d93660046136ec565b610e4b565b6102f16102ec3660046134ca565b611012565b604080516001600160a01b0390971687526001600160801b0395861660208801529385169386019390935292166060840152600291820b6080840152900b60a082015260c0016101f3565b61026561034a3660046136ec565b611137565b61026561035d3660046134ca565b61122f565b61037561037036600461372d565b611457565b604080516001600160801b0390941684526020840192909252908201526060016101f3565b6103ad6103a8366004613524565b61158b565b6040516101f392919061376f565b61023a6103c93660046134ca565b6116bb565b6102bd6103dc366004613524565b611712565b6101e76103ef3660046134ca565b600b6020526000908152604090205460ff1681565b610417610412366004613524565b611775565b6040516101f39190613794565b61020461188e565b61046d61043a3660046134ca565b6009602052600090815260409020546001600160a01b03811690600160a01b8104600290810b91600160b81b9004900b83565b604080516001600160a01b039094168452600292830b6020850152910b908201526060016101f3565b6102656104a43660046137a7565b61189b565b6102656104b736600461382d565b611907565b61023a7f000000000000000000000000000000000000000000000000000000000000000081565b6102046104f13660046134ca565b6119ef565b6105096105043660046134ca565b611cc3565b604080516001600160801b039384168152929091166020830152016101f3565b61026561053736600461389f565b611eed565b6102bd61054a366004613911565b611fe5565b6102bd61055d3660046134f8565b6121fb565b6101e76105703660046139bb565b600560209081526000928352604080842090915290825290205460ff1681565b61029f61059e3660046134ca565b61222c565b60006301ffc9a760e01b6001600160e01b0319831614806105d457506380ac58cd60e01b6001600160e01b03198316145b806105ef5750635b5e139f60e01b6001600160e01b03198316145b92915050565b60008054610602906139e9565b80601f016020809104026020016040519081016040528092919081815260200182805461062e906139e9565b801561067b5780601f106106505761010080835404028352916020019161067b565b820191906000526020600020905b81548152906001019060200180831161065e57829003601f168201915b505050505081565b6000818152600260205260409020546001600160a01b0316338114806106cc57506001600160a01b038116600090815260056020908152604080832033845290915290205460ff165b61070e5760405162461bcd60e51b815260206004820152600e60248201526d1393d517d055551213d49256915160921b60448201526064015b60405180910390fd5b60008281526004602052604080822080546001600160a01b0319166001600160a01b0387811691821790925591518593918516917f8c5be1e5ebec7d5bd14f71427d1e84f3dd0314c0f7b2291e5b200ac8c7c3b92591a4505050565b606080606080606080600061077e88611775565b9050600081516001600160401b0381111561079b5761079b61366c565b6040519080825280602002602001820160405280156107c4578160200160208202803683370190505b509050600082516001600160401b038111156107e2576107e261366c565b60405190808252806020026020018201604052801561080b578160200160208202803683370190505b509050600083516001600160401b038111156108295761082961366c565b604051908082528060200260200182016040528015610852578160200160208202803683370190505b509050600084516001600160401b038111156108705761087061366c565b604051908082528060200260200182016040528015610899578160200160208202803683370190505b509050600085516001600160401b038111156108b7576108b761366c565b6040519080825280602002602001820160405280156108e0578160200160208202803683370190505b509050600086516001600160401b038111156108fe576108fe61366c565b604051908082528060200260200182016040528015610927578160200160208202803683370190505b50905060005b8751811015610b87576000600960008a848151811061094e5761094e613a1d565b6020908102919091018101518252818101929092526040908101600020815160608101835290546001600160a01b038116808352600160a01b8204600290810b95840195909552600160b81b90910490930b9181019190915291506109c657604051635079ff7560e11b815260040160405180910390fd5b8051600080806001600160a01b03841663514ea4bf6109e487612328565b6040518263ffffffff1660e01b8152600401610a0291815260200190565b60a060405180830381865afa158015610a1f573d6000803e3d6000fd5b505050506040513d601f19601f82011682018060405250810190610a439190613a33565b945094505050925084600001518c8781518110610a6257610a62613a1d565b60200260200101906001600160a01b031690816001600160a01b031681525050828b8781518110610a9557610a95613a1d565b60200260200101906001600160801b031690816001600160801b031681525050818a8781518110610ac857610ac8613a1d565b60200260200101906001600160801b031690816001600160801b03168152505080898781518110610afb57610afb613a1d565b60200260200101906001600160801b031690816001600160801b0316815250508460200151888781518110610b3257610b32613a1d565b602002602001019060020b908160020b815250508460400151878781518110610b5d57610b5d613a1d565b602002602001019060020b908160020b81525050505050505080610b8090613aab565b905061092d565b50949d939c50919a509850965090945092505050565b60008082600001516000610bb0826116bb565b9050336001600160a01b03821614801590610bef57506001600160a01b038116600090815260056020908152604080832033845290915290205460ff16155b8015610c1257506000828152600460205260409020546001600160a01b03163314155b15610c305760405163ea8e4eb560e01b815260040160405180910390fd5b8451600090815260096020908152604091829020825160608101845290546001600160a01b038116808352600160a01b8204600290810b94840194909452600160b81b90910490920b92810192909252610c9d57604051635079ff7560e11b815260040160405180910390fd5b805160006001600160a01b03821663514ea4bf610cb985612328565b6040518263ffffffff1660e01b8152600401610cd791815260200190565b60a060405180830381865afa158015610cf4573d6000803e3d6000fd5b505050506040513d601f19601f82011682018060405250810190610d189190613a33565b505050509050806001600160801b031688602001516001600160801b03161115610d5557604051634323a55560e01b815260040160405180910390fd5b602083810151604080860151928b0151905163a34123a760e01b8152600292830b60048201529290910b60248301526001600160801b031660448201526001600160a01b0383169063a34123a79060640160408051808303816000875af1158015610dc4573d6000803e3d6000fd5b505050506040513d601f19601f82011682018060405250810190610de89190613ac4565b89516020808c0151604080516001600160801b039092168252918101859052908101839052929950909750907f1832d0be987b5f3cbc73b42f7ee61f47d509f9a14f8d3770969dfdabef841c3e9060600160405180910390a25050505050915091565b6000818152600260205260409020546001600160a01b03848116911614610ea15760405162461bcd60e51b815260206004820152600a60248201526957524f4e475f46524f4d60b01b6044820152606401610705565b6001600160a01b038216610eeb5760405162461bcd60e51b81526020600482015260116024820152701253959053125117d49150d25412515395607a1b6044820152606401610705565b336001600160a01b0384161480610f2557506001600160a01b038316600090815260056020908152604080832033845290915290205460ff165b80610f4657506000818152600460205260409020546001600160a01b031633145b610f835760405162461bcd60e51b815260206004820152600e60248201526d1393d517d055551213d49256915160921b6044820152606401610705565b6001600160a01b0380841660008181526003602090815260408083208054600019019055938616808352848320805460010190558583526002825284832080546001600160a01b03199081168317909155600490925284832080549092169091559251849392917fddf252ad1be2c89b69c2b068fc378daa952ba7f163c4a11628f55a4df523b3ef91a4505050565b6000818152600960209081526040808320815160608101835290546001600160a01b038116808352600160a01b8204600290810b95840195909552600160b81b90910490930b918101919091528291829182918291829161108657604051635079ff7560e11b815260040160405180910390fd5b8051600080806001600160a01b03841663514ea4bf6110a487612328565b6040518263ffffffff1660e01b81526004016110c291815260200190565b60a060405180830381865afa1580156110df573d6000803e3d6000fd5b505050506040513d601f19601f820116820180604052508101906111039190613a33565b94509450505092508460000151838383886020015189604001519a509a509a509a509a509a50505050505091939550919395565b611142838383610e4b565b6001600160a01b0382163b15806111eb5750604051630a85bd0160e11b8082523360048301526001600160a01b03858116602484015260448301849052608060648401526000608484015290919084169063150b7a029060a4016020604051808303816000875af11580156111bb573d6000803e3d6000fd5b505050506040513d601f19601f820116820180604052508101906111df9190613ae8565b6001600160e01b031916145b61122a5760405162461bcd60e51b815260206004820152601060248201526f155394d0519157d49150d2541251539560821b6044820152606401610705565b505050565b80600061123b826116bb565b9050336001600160a01b0382161480159061127a57506001600160a01b038116600090815260056020908152604080832033845290915290205460ff16155b801561129d57506000828152600460205260409020546001600160a01b03163314155b156112bb5760405163ea8e4eb560e01b815260040160405180910390fd5b600083815260096020908152604091829020825160608101845290546001600160a01b038116808352600160a01b8204600290810b94840194909452600160b81b90910490920b9281019290925261132657604051635079ff7560e11b815260040160405180910390fd5b8051600080806001600160a01b03841663514ea4bf61134487612328565b6040518263ffffffff1660e01b815260040161136291815260200190565b60a060405180830381865afa15801561137f573d6000803e3d6000fd5b505050506040513d601f19601f820116820180604052508101906113a39190613a33565b94509450505092506000836001600160801b031611806113cc57506000826001600160801b0316115b806113e057506000816001600160801b0316115b156113fe57604051636c4e633b60e11b815260040160405180910390fd5b600088815260096020908152604080832080546001600160d01b0319169055600b9091529020805460ff1916600117905561143888612378565b6006805490600061144883613b05565b91905055505050505050505050565b80356000908152600960209081526040808320815160608101835290546001600160a01b038116808352600160a01b8204600290810b95840195909552600160b81b90910490930b9181019190915282918291906114c857604051635079ff7560e11b815260040160405180910390fd5b61152e6040518060e0016040528083600001516001600160a01b03168152602001836020015160020b8152602001836040015160020b81526020018760200135815260200187604001358152602001876060013581526020018760800135815250612445565b604080516001600160801b03851681526020810184905290810182905292965090945092508535907f22fb3c4728e7cc5dd64003f4267d8fb1eb2580f5598050868300738a823d70479060600160405180910390a2509193909250565b606080600061159984611775565b9050600081516001600160401b038111156115b6576115b661366c565b6040519080825280602002602001820160405280156115df578160200160208202803683370190505b509050600082516001600160401b038111156115fd576115fd61366c565b604051908082528060200260200182016040528015611626578160200160208202803683370190505b50905060005b83518110156116af5760008061165a86848151811061164d5761164d613a1d565b602002602001015161222c565b915091508185848151811061167157611671613a1d565b6020026020010181815250508084848151811061169057611690613a1d565b6020026020010181815250505050806116a890613aab565b905061162c565b50909590945092505050565b6000818152600260205260409020546001600160a01b03168061170d5760405162461bcd60e51b815260206004820152600a6024820152691393d517d3525395115160b21b6044820152606401610705565b919050565b60006001600160a01b0382166117595760405162461bcd60e51b815260206004820152600c60248201526b5a45524f5f4144445245535360a01b6044820152606401610705565b506001600160a01b031660009081526003602052604090205490565b6060600061178283611712565b9050806000036117a2575050604080516000815260208101909152919050565b6000816001600160401b038111156117bc576117bc61366c565b6040519080825280602002602001820160405280156117e5578160200160208202803683370190505b506007549091506000805b82821080156117fe57508281105b1561187d576000818152600b602052604090205460ff16151560011461186b57866001600160a01b0316611831826116bb565b6001600160a01b03160361186b578084838151811061185257611852613a1d565b60209081029190910101528161186781613aab565b9250505b8061187581613aab565b9150506117f0565b509195945050505050565b50919050565b60018054610602906139e9565b3360008181526005602090815260408083206001600160a01b03871680855290835292819020805460ff191686151590811790915590519081529192917f17307eab39ab6107e8899845ad3d59bd9653f200f220920489ca2b5937696c31910160405180910390a35050565b611912858585610e4b565b6001600160a01b0384163b15806119a95750604051630a85bd0160e11b808252906001600160a01b0386169063150b7a029061195a9033908a90899089908990600401613b1c565b6020604051808303816000875af1158015611979573d6000803e3d6000fd5b505050506040513d601f19601f8201168201806040525081019061199d9190613ae8565b6001600160e01b031916145b6119e85760405162461bcd60e51b815260206004820152601060248201526f155394d0519157d49150d2541251539560821b6044820152606401610705565b5050505050565b60008181526009602090815260409182902082516060818101855291546001600160a01b038116808352600160a01b8204600290810b95840195909552600160b81b90910490930b938101939093529190611a5d57604051635079ff7560e11b815260040160405180910390fd5b6000816000015190506000816001600160a01b0316630dfe16816040518163ffffffff1660e01b8152600401602060405180830381865afa158015611aa6573d6000803e3d6000fd5b505050506040513d601f19601f82011682018060405250810190611aca9190613b70565b90506000826001600160a01b031663d21220a76040518163ffffffff1660e01b8152600401602060405180830381865afa158015611b0c573d6000803e3d6000fd5b505050506040513d601f19601f82011682018060405250810190611b309190613b70565b90506000826001600160a01b03166395d89b416040518163ffffffff1660e01b8152600401600060405180830381865afa158015611b72573d6000803e3d6000fd5b505050506040513d6000823e601f3d908101601f19168201604052611b9a9190810190613b8d565b90506000826001600160a01b03166395d89b416040518163ffffffff1660e01b8152600401600060405180830381865afa158015611bdc573d6000803e3d6000fd5b505050506040513d6000823e601f3d908101601f19168201604052611c049190810190613b8d565b9050611cb76040518060c00160405280848152602001838152602001306001600160a01b03168152602001886020015160020b8152602001886040015160020b8152602001876001600160a01b031663ddca3f436040518163ffffffff1660e01b8152600401602060405180830381865afa158015611c87573d6000803e3d6000fd5b505050506040513d601f19601f82011682018060405250810190611cab9190613c39565b62ffffff1690526126df565b98975050505050505050565b600080826000611cd2826116bb565b9050336001600160a01b03821614801590611d1157506001600160a01b038116600090815260056020908152604080832033845290915290205460ff16155b8015611d3457506000828152600460205260409020546001600160a01b03163314155b15611d525760405163ea8e4eb560e01b815260040160405180910390fd5b600085815260096020908152604091829020825160608101845290546001600160a01b038116808352600160a01b8204600290810b94840194909452600160b81b90910490920b92810192909252611dbd57604051635079ff7560e11b815260040160405180910390fd5b80516000806001600160a01b03831663514ea4bf611dda86612328565b6040518263ffffffff1660e01b8152600401611df891815260200190565b60a060405180830381865afa158015611e15573d6000803e3d6000fd5b505050506040513d601f19601f82011682018060405250810190611e399190613a33565b60208901516040808b015190516309e3d67b60e31b8152336004820152600292830b6024820152910b60448201526001600160801b0380841660648301528216608482015291965094506001600160a01b0387169350634f1eb3d8925060a401905060408051808303816000875af1158015611eb9573d6000803e3d6000fd5b505050506040513d601f19601f82011682018060405250810190611edd9190613c56565b909a909950975050505050505050565b6000611efb82840184613c85565b805160408083015190516323b872dd60e01b81526001600160a01b0391821660048201523360248201526044810189905292935016906323b872dd90606401600060405180830381600087803b158015611f5457600080fd5b505af1158015611f68573d6000803e3d6000fd5b505050602082015160408084015190516323b872dd60e01b81526001600160a01b03918216600482015233602482015260448101889052911691506323b872dd90606401600060405180830381600087803b158015611fc657600080fd5b505af1158015611fda573d6000803e3d6000fd5b505050505050505050565b60085460405163175c1b2360e31b81526001600160a01b038b811660048301528a8116602483015262ffffff8a166044830152600092839291169063bae0d91890606401602060405180830381865afa158015612046573d6000803e3d6000fd5b505050506040513d601f19601f8201168201806040525081019061206a9190613b70565b905060008060006120bb6040518060e00160405280866001600160a01b031681526020018d60020b81526020018c60020b81526020018b81526020018a815260200189815260200188815250612445565b60078054939650919450925060006120d283613aab565b9190505594506120e28f866127cb565b600680549060006120f283613aab565b9091555050604080516060810182526001600160a01b03808716825260028e810b6020808501918252918f900b84860190815260008b815260098452868120865181549451935162ffffff908116600160b81b0262ffffff60b81b1991909516600160a01b026001600160b81b031990961691909716179390931794909416179055338252600a81528382208054600181018255908352912001879055905186907f22fb3c4728e7cc5dd64003f4267d8fb1eb2580f5598050868300738a823d7047906121e0908790879087906001600160801b039390931683526020830191909152604082015260600190565b60405180910390a250505050509a9950505050505050505050565b600a602052816000526040600020818154811061221757600080fd5b90600052602060002001600091509150505481565b6000818152600960209081526040808320815160608101835290546001600160a01b038116808352600160a01b8204600290810b95840195909552600160b81b90910490930b91810191909152829161229857604051635079ff7560e11b815260040160405180910390fd5b805160208201516040808401519051636a234ae960e01b8152600292830b6004820152910b60248201523060448201526001600160a01b03821690636a234ae9906064016040805180830381865afa1580156122f8573d6000803e3d6000fd5b505050506040513d601f19601f8201168201806040525081019061231c9190613ac4565b90969095509350505050565b60208181015160409283015183513060601b6bffffffffffffffffffffffff19168185015260e892831b6034820152911b60378201528251601a818303018152603a909101909252815191012090565b6000818152600260205260409020546001600160a01b0316806123ca5760405162461bcd60e51b815260206004820152600a6024820152691393d517d3525395115160b21b6044820152606401610705565b6001600160a01b038116600081815260036020908152604080832080546000190190558583526002825280832080546001600160a01b031990811690915560049092528083208054909216909155518492907fddf252ad1be2c89b69c2b068fc378daa952ba7f163c4a11628f55a4df523b3ef908390a45050565b60008060008084600001516001600160a01b0316633850c7bd6040518163ffffffff1660e01b815260040160a060405180830381865afa15801561248d573d6000803e3d6000fd5b505050506040513d601f19601f820116820180604052508101906124b19190613d08565b5050505090506124e4816124c887602001516128d6565b6124d588604001516128d6565b88606001518960800151612cf8565b935084600001516001600160a01b0316633c8a7d8d30876020015188604001518860405180606001604052808c600001516001600160a01b0316630dfe16816040518163ffffffff1660e01b8152600401602060405180830381865afa158015612552573d6000803e3d6000fd5b505050506040513d601f19601f820116820180604052508101906125769190613b70565b6001600160a01b031681526020018c600001516001600160a01b031663d21220a76040518163ffffffff1660e01b8152600401602060405180830381865afa1580156125c6573d6000803e3d6000fd5b505050506040513d601f19601f820116820180604052508101906125ea9190613b70565b6001600160a01b0390811682523360209283015260408051845183168185015292840151821683820152929092015190911660608201526080016040516020818303038152906040526040518663ffffffff1660e01b8152600401612653959493929190613d72565b60408051808303816000875af1158015612671573d6000803e3d6000fd5b505050506040513d601f19601f820116820180604052508101906126959190613ac4565b60a087015191945092508310806126af57508460c0015182105b156126d757604051630a8f6c8d60e41b81526004810184905260248101839052604401610705565b509193909250565b606060006126fa836040015184606001518560800151612dbb565b612711846000015185602001518660a00151612e57565b61272385606001518660800151612e93565b60405160200161273593929190613dd0565b60405160208183030381529060405290506000612769846000015185602001518660a0015187606001518860800151612ecf565b905060008161277784612f21565b604051602001612788929190613f25565b60405160208183030381529060405290506127a281612f21565b6040516020016127b29190613fe5565b6040516020818303038152906040529350505050919050565b6001600160a01b0382166128155760405162461bcd60e51b81526020600482015260116024820152701253959053125117d49150d25412515395607a1b6044820152606401610705565b6000818152600260205260409020546001600160a01b03161561286b5760405162461bcd60e51b815260206004820152600e60248201526d1053149150511657d3525395115160921b6044820152606401610705565b6001600160a01b038216600081815260036020908152604080832080546001019055848352600290915280822080546001600160a01b0319168417905551839291907fddf252ad1be2c89b69c2b068fc378daa952ba7f163c4a11628f55a4df523b3ef908290a45050565b60008060008360020b126128ed578260020b6128fa565b8260020b6128fa9061402a565b9050612909620d89e719614046565b62ffffff168111156129415760405162461bcd60e51b81526020600482015260016024820152601560fa1b6044820152606401610705565b60008160011660000361295857600160801b61296a565b6ffffcb933bd6fad37aa2d162d1a5940015b70ffffffffffffffffffffffffffffffffff16905060028216156129a95760806129a4826ffff97272373d413259a46990580e213a614068565b901c90505b60048216156129d35760806129ce826ffff2e50f5f656932ef12357cf3c7fdcc614068565b901c90505b60088216156129fd5760806129f8826fffe5caca7e10e4e61c3624eaa0941cd0614068565b901c90505b6010821615612a27576080612a22826fffcb9843d60f6159c9db58835c926644614068565b901c90505b6020821615612a51576080612a4c826fff973b41fa98c081472e6896dfb254c0614068565b901c90505b6040821615612a7b576080612a76826fff2ea16466c96a3843ec78b326b52861614068565b901c90505b6080821615612aa5576080612aa0826ffe5dee046a99a2a811c461f1969c3053614068565b901c90505b610100821615612ad0576080612acb826ffcbe86c7900a88aedcffc83b479aa3a4614068565b901c90505b610200821615612afb576080612af6826ff987a7253ac413176f2b074cf7815e54614068565b901c90505b610400821615612b26576080612b21826ff3392b0822b70005940c7a398e4b70f3614068565b901c90505b610800821615612b51576080612b4c826fe7159475a2c29b7443b29c7fa6e889d9614068565b901c90505b611000821615612b7c576080612b77826fd097f3bdfd2022b8845ad8f792aa5825614068565b901c90505b612000821615612ba7576080612ba2826fa9f746462d870fdf8a65dc1f90e061e5614068565b901c90505b614000821615612bd2576080612bcd826f70d869a156d2a1b890bb3df62baf32f7614068565b901c90505b618000821615612bfd576080612bf8826f31be135f97d08fd981231505542fcfa6614068565b901c90505b62010000821615612c29576080612c24826f09aa508b5b7a84e1c677de54f3e99bc9614068565b901c90505b62020000821615612c54576080612c4f826e5d6af8dedb81196699c329225ee604614068565b901c90505b62040000821615612c7e576080612c79826d2216e584f5fa1ea926041bedfe98614068565b901c90505b62080000821615612ca6576080612ca1826b048a170391f7dc42444e8fa2614068565b901c90505b60008460020b1315612cc157612cbe81600019614095565b90505b612cd0640100000000826140a9565b15612cdc576001612cdf565b60005b612cf09060ff16602083901c6140bd565b949350505050565b6000836001600160a01b0316856001600160a01b03161115612d18579293925b846001600160a01b0316866001600160a01b031611612d4357612d3c858585613072565b9050612db2565b836001600160a01b0316866001600160a01b031611612da4576000612d69878686613072565b90506000612d788789866130d4565b9050806001600160801b0316826001600160801b031610612d995780612d9b565b815b92505050612db2565b612daf8585846130d4565b90505b95945050505050565b604051606084811b6bffffffffffffffffffffffff1916602083015260e884811b603484015283901b603783015290600090603a0160408051601f19818403018152919052805160209091012090506000612e18610168836140a9565b9050612e2381613107565b612e2c82613107565b604051602001612e3d9291906140d0565b604051602081830303815290604052925050509392505050565b60608383612e698462ffffff16613199565b604051602001612e7b939291906141d8565b60405160208183030381529060405290509392505050565b6060612e9e836131ee565b612ea7836131ee565b604051602001612eb892919061433a565b604051602081830303815290604052905092915050565b60608585612ee18662ffffff16613199565b612eea866131ee565b612ef3866131ee565b604051602001612f0795949392919061449c565b604051602081830303815290604052905095945050505050565b60608151600003612f4057505060408051602081019091526000815290565b60006040518060600160405280604081526020016145b26040913990506000600384516002612f6f91906140bd565b612f799190614095565b612f84906004614068565b6001600160401b03811115612f9b57612f9b61366c565b6040519080825280601f01601f191660200182016040528015612fc5576020820181803683370190505b509050600182016020820185865187015b80821015613031576003820191508151603f8160121c168501518453600184019350603f81600c1c168501518453600184019350603f8160061c168501518453600184019350603f8116850151845350600183019250612fd6565b505060038651066001811461304d57600281146130605761187d565b603d6001830353603d600283035361187d565b603d6001830353509195945050505050565b6000826001600160a01b0316846001600160a01b03161115613092579192915b60006130b5856001600160a01b0316856001600160a01b0316600160601b613286565b9050612db283826130c6888861455b565b6001600160a01b0316613286565b6000826001600160a01b0316846001600160a01b031611156130f4579192915b612cf082600160601b6130c6878761455b565b6060600061311483613359565b60010190506000816001600160401b038111156131335761313361366c565b6040519080825280601f01601f19166020018201604052801561315d576020820181803683370190505b5090508181016020015b600019016f181899199a1a9b1b9c1cb0b131b232b360811b600a86061a8153600a850494508461316757509392505050565b6060816101f4036131c5575050604080518082019091526005815264302e30352560d81b602082015290565b81610bb80361170d575050604080518082019091526004815263302e332560e01b602082015290565b606060008260020b12613210576040518060200160405280600081525061322b565b604051806040016040528060018152602001602d60f81b8152505b60008360020b12613249576132448362ffffff16613107565b61325f565b61325f61325584614046565b62ffffff16613107565b604051602001613270929190614582565b6040516020818303038152906040529050919050565b60008080600019858709858702925082811083820303915050806000036132c0578382816132b6576132b661407f565b0492505050613352565b8381106132ea57604051631dcf306360e21b81526004810182905260248101859052604401610705565b600084868809851960019081018716968790049682860381900495909211909303600082900391909104909201919091029190911760038402600290811880860282030280860282030280860282030280860282030280860282030280860290910302029150505b9392505050565b60008072184f03e93ff9f4daa797ed6e38ed64bf6a1f0160401b83106133985772184f03e93ff9f4daa797ed6e38ed64bf6a1f0160401b830492506040015b6d04ee2d6d415b85acef810000000083106133c4576d04ee2d6d415b85acef8100000000830492506020015b662386f26fc1000083106133e257662386f26fc10000830492506010015b6305f5e10083106133fa576305f5e100830492506008015b612710831061340e57612710830492506004015b60648310613420576064830492506002015b600a83106105ef5760010192915050565b6001600160e01b03198116811461344757600080fd5b50565b60006020828403121561345c57600080fd5b813561335281613431565b60005b8381101561348257818101518382015260200161346a565b50506000910152565b600081518084526134a3816020860160208601613467565b601f01601f19169290920160200192915050565b602081526000613352602083018461348b565b6000602082840312156134dc57600080fd5b5035919050565b6001600160a01b038116811461344757600080fd5b6000806040838503121561350b57600080fd5b8235613516816134e3565b946020939093013593505050565b60006020828403121561353657600080fd5b8135613352816134e3565b600081518084526020808501945080840160005b8381101561357a5781516001600160801b031687529582019590820190600101613555565b509495945050505050565b600081518084526020808501945080840160005b8381101561357a57815160020b87529582019590820190600101613599565b60c0808252875190820181905260009060209060e0840190828b01845b828110156135fa5781516001600160a01b0316845292840192908401906001016135d5565b5050508381038285015261360e818a613541565b91505082810360408401526136238188613541565b905082810360608401526136378187613541565b9050828103608084015261364b8186613585565b905082810360a084015261365f8185613585565b9998505050505050505050565b634e487b7160e01b600052604160045260246000fd5b6001600160801b038116811461344757600080fd5b6000604082840312156136a957600080fd5b604051604081018181106001600160401b03821117156136cb576136cb61366c565b6040528235815260208301356136e081613682565b60208201529392505050565b60008060006060848603121561370157600080fd5b833561370c816134e3565b9250602084013561371c816134e3565b929592945050506040919091013590565b600060a0828403121561188857600080fd5b600081518084526020808501945080840160005b8381101561357a57815187529582019590820190600101613753565b604081526000613782604083018561373f565b8281036020840152612db2818561373f565b602081526000613352602083018461373f565b600080604083850312156137ba57600080fd5b82356137c5816134e3565b9150602083013580151581146137da57600080fd5b809150509250929050565b60008083601f8401126137f757600080fd5b5081356001600160401b0381111561380e57600080fd5b60208301915083602082850101111561382657600080fd5b9250929050565b60008060008060006080868803121561384557600080fd5b8535613850816134e3565b94506020860135613860816134e3565b93506040860135925060608601356001600160401b0381111561388257600080fd5b61388e888289016137e5565b969995985093965092949392505050565b600080600080606085870312156138b557600080fd5b843593506020850135925060408501356001600160401b038111156138d957600080fd5b6138e5878288016137e5565b95989497509550505050565b62ffffff8116811461344757600080fd5b8060020b811461344757600080fd5b6000806000806000806000806000806101408b8d03121561393157600080fd5b8a3561393c816134e3565b995060208b013561394c816134e3565b985060408b013561395c816134e3565b975060608b013561396c816138f1565b965060808b013561397c81613902565b955060a08b013561398c81613902565b999c989b5096999598949794965050505060c08301359260e08101359261010082013592506101209091013590565b600080604083850312156139ce57600080fd5b82356139d9816134e3565b915060208301356137da816134e3565b600181811c908216806139fd57607f821691505b60208210810361188857634e487b7160e01b600052602260045260246000fd5b634e487b7160e01b600052603260045260246000fd5b600080600080600060a08688031215613a4b57600080fd5b8551613a5681613682565b8095505060208601519350604086015192506060860151613a7681613682565b6080870151909250613a8781613682565b809150509295509295909350565b634e487b7160e01b600052601160045260246000fd5b600060018201613abd57613abd613a95565b5060010190565b60008060408385031215613ad757600080fd5b505080516020909101519092909150565b600060208284031215613afa57600080fd5b815161335281613431565b600081613b1457613b14613a95565b506000190190565b6001600160a01b038681168252851660208201526040810184905260806060820181905281018290526000828460a0840137600060a0848401015260a0601f19601f85011683010190509695505050505050565b600060208284031215613b8257600080fd5b8151613352816134e3565b600060208284031215613b9f57600080fd5b81516001600160401b0380821115613bb657600080fd5b818401915084601f830112613bca57600080fd5b815181811115613bdc57613bdc61366c565b604051601f8201601f19908116603f01168101908382118183101715613c0457613c0461366c565b81604052828152876020848701011115613c1d57600080fd5b613c2e836020830160208801613467565b979650505050505050565b600060208284031215613c4b57600080fd5b8151613352816138f1565b60008060408385031215613c6957600080fd5b8251613c7481613682565b60208401519092506137da81613682565b600060608284031215613c9757600080fd5b604051606081018181106001600160401b0382111715613cb957613cb961366c565b6040528235613cc7816134e3565b81526020830135613cd7816134e3565b60208201526040830135613cea816134e3565b60408201529392505050565b805161ffff8116811461170d57600080fd5b600080600080600060a08688031215613d2057600080fd5b8551613d2b816134e3565b6020870151909550613d3c81613902565b9350613d4a60408701613cf6565b9250613d5860608701613cf6565b9150613d6660808701613cf6565b90509295509295909350565b60018060a01b03861681528460020b60208201528360020b60408201526001600160801b038316606082015260a060808201526000613c2e60a083018461348b565b60008151613dc6818560208601613467565b9290920192915050565b7f3c73766720786d6c6e733d27687474703a2f2f7777772e77332e6f72672f323081527f30302f737667272076696577426f783d273020302033303020343830273e000060208201527f3c7374796c653e2e746f6b656e73207b20666f6e743a20626f6c642033307078603e8201526d2073616e732d73657269663b207d60901b605e8201527f2e666565207b20666f6e743a206e6f726d616c20323670782073616e732d7365606c820152657269663b207d60d01b608c8201527f2e7469636b207b20666f6e743a206e6f726d616c20313870782073616e732d7360928201526e32b934b31d903e9e17b9ba3cb6329f60891b60b282015260008451613ede8160c1850160208901613467565b845190830190613ef58160c1840160208901613467565b613f0460c18284010186613db4565b915050613f1981651e17b9bb339f60d11b9052565b60060195945050505050565b7f7b226e616d65223a22556e697377617020563320506f736974696f6e222c000081526e113232b9b1b934b83a34b7b7111d1160891b601e8201528251600090613f7681602d850160208801613467565b61088b60f21b602d918401918201527f22696d616765223a22646174613a696d6167652f7376672b786d6c3b62617365602f820152620d8d0b60ea1b604f8201528351613fca816052840160208801613467565b61227d60f01b60529290910191820152605401949350505050565b7f646174613a6170706c69636174696f6e2f6a736f6e3b6261736536342c00000081526000825161401d81601d850160208701613467565b91909101601d0192915050565b6000600160ff1b820161403f5761403f613a95565b5060000390565b60008160020b627fffff19810361405f5761405f613a95565b60000392915050565b80820281158282048414176105ef576105ef613a95565b634e487b7160e01b600052601260045260246000fd5b6000826140a4576140a461407f565b500490565b6000826140b8576140b861407f565b500690565b808201808211156105ef576105ef613a95565b7f3c726563742077696474683d2233303022206865696768743d223438302220668152680d2d8d87a44d0e6d8560bb1b60208201526000835161411a816029850160208801613467565b6b161a1812961a18129491179f60a11b6029918401918201527f3c7265637420783d2233302220793d223330222077696474683d22323430222060358201527f6865696768743d22343230222072783d223135222072793d223135222066696c6055820152660d87a44d0e6d8560cb1b607582015283516141a281607c840160208801613467565b7f2c313030252c3530252922207374726f6b653d2223303030222f3e0000000000607c9290910191820152609701949350505050565b7f3c7265637420783d2233302220793d223837222077696474683d22323430222081526c3432b4b3b43a1e911a1911179f60991b60208201527f3c7465787420783d2233392220793d223132302220636c6173733d22746f6b65602d8201526f373991103334b6361e9111b33333111f60811b604d8201526000845161426581605d850160208901613467565b602f60f81b605d91840191820152845161428681605e840160208901613467565b7f3c2f746578743e3c7265637420783d2233302220793d22313332222077696474605e929091019182015274341e91191a1811103432b4b3b43a1e91199811179f60591b607e8201527f3c7465787420783d2233392220793d22313230222064793d2233362220636c6160938201527439b99e913332b291103334b6361e9111b33333111f60591b60b382015261432060c8820185613db4565b661e17ba32bc3a1f60c91b81526007019695505050505050565b7f3c7265637420783d2233302220793d22333432222077696474683d2232343022815260006d103432b4b3b43a1e91191a11179f60911b8060208401527f3c7465787420783d2233392220793d223336302220636c6173733d227469636b602e8401527f222066696c6c3d2223666666223e4c6f776572207469636b3a20000000000000604e84015284516143d6816068860160208901613467565b8084019050661e17ba32bc3a1f60c91b60688201527f3c7265637420783d2233302220793d22333732222077696474683d2232343022606f82015281608f8201527f3c7465787420783d2233392220793d22333630222064793d2233302220636c61609d8201527f73733d227469636b222066696c6c3d2223666666223e5570706572207469636b60bd8201526101d160f51b60dd82015261447b60df820186613db4565b91505061449181661e17ba32bc3a1f60c91b9052565b600701949350505050565b600086516144ae818460208b01613467565b602f60f81b90830190815286516144cc816001840160208b01613467565b600160fd1b6001929091019182015285516144ee816002840160208a01613467565b6d016102637bbb2b9103a34b1b59d160951b60029290910191820152845161451d816010840160208901613467565b6d016102ab83832b9103a32bc3a1d160951b60109290910191820152835161454c81601e840160208801613467565b01601e01979650505050505050565b6001600160a01b0382811682821603908082111561457b5761457b613a95565b5092915050565b60008351614594818460208801613467565b8351908301906145a8818360208801613467565b0194935050505056fe4142434445464748494a4b4c4d4e4f505152535455565758595a6162636465666768696a6b6c6d6e6f707172737475767778797a303132333435363738392b2fa26469706673582212200d04f23b3247c65f3dd361683a34e76ca663bda53bd7fc03fa73ad38abbe888264736f6c63430008140033",
    "bytecodeSha1": "a871981bbdcfb1f88ac6fac67d0f6aba869176f7",
    "compiler": {
        "evm_version": "istanbul",
        "optimizer": {
            "enabled": true,
            "runs": 200
        },
        "version": "0.8.20+commit.a1b79de6"
    },
    "contractName": "NFT",
    "language": "Solidity",
    "natspec": {
        "errors": {
            "PRBMath__MulDivOverflow(uint256,uint256)": [
                {
                    "notice": "Emitted when the result overflows uint256."
                }
            ]
        },
        "kind": "dev",
        "methods": {
            "_getFees(uint256)": {
                "notice": "Gets a positions owed fees",
                "params": {
                    "tokenId": "The id of the NFT we wish to know the owed fees"
                }
            },
            "addLiquidity((uint256,uint256,uint256,uint256,uint256))": {
                "details": "does not mint a new NFT. It only updates the position info",
                "notice": "adds liquidity to an existing position.",
                "params": {
                    "params": ": an array with the following parameters:             tokenId: the token Id of the position we wish to add liquidity too             amount0Desired: amount of token 0 we want to add             amount1Desired: amount of token 1 we want to add             amount0Min: min amount of token 0 we want to add             amount1Min: min amount of token 1 we want to add"
                }
            },
            "burn(uint256)": {
                "details": "This method will fail if called before the user removes all liquidity from the corresponding positions      and collects the corresponding tokens",
                "notice": "Burns an NFT related to a liquidity position",
                "params": {
                    "tokenId": "The id of the NFT we wish to burn"
                }
            },
            "collect(uint256)": {
                "details": "Can only be called after the user has removed some liquidity from the position",
                "notice": "collects the tokens relative to a cleared (or partially cleared) position.",
                "params": {
                    "tokenId": ": the token Id of the position we wish to collect"
                }
            },
            "mint(address,address,address,uint24,int24,int24,uint256,uint256,uint256,uint256)": {
                "notice": "Used for setting new positions. Mints an NFT connected to the created position An array with the following parameters:             recipient: the user who is minting the new position             tokenA: first token in the pool where the position is being minted             tokenB: second token in the pool where the position is being minted             fee: fee of the pool where the position is being minted             lowerTick: lower tick of the position being minted             upperTick: upper tick of the position being minted             amount0Desired:amount of first token we want to add to the position as liquidity             amount1Desired:amount of second token we want to add to the position as liquidity             amount0Min: min amount of first token we want to add to the position as liquidity             amount1Min: min amount of second token we want to add to the position as liquidity"
            },
            "removeLiquidity((uint256,uint128))": {
                "details": "does not burn the NFT and does not return the tokens to the user (use collect for that).     It only updates the position info",
                "notice": "removes liquidity from an existing position.",
                "params": {
                    "params": ": an array with the following parameters:             tokenId: the token Id of the position we wish to remove liquidity from             liquidity: the liquidity amount we wish to remove"
                }
            },
            "tokenIDtoPosition(uint256)": {
                "notice": "receives a tokenId and returns all the information regarding that tokens position.",
                "params": {
                    "tokenId": ": the token Id"
                }
            },
            "tokenURI(uint256)": {
                "notice": "returns the URI of the image of an NFT token.",
                "params": {
                    "tokenId": ": the token Id"
                }
            },
            "tokensOfOwner(address)": {
                "details": "This method MUST NEVER be called by smart contract code. First, it's fairly  expensive (it walks the entire token array looking for tokens belonging to owner),  but it also returns a dynamic array, which is only supported for web3 calls, and  not contract-to-contract calls.",
                "notice": "Returns a list of all Liquidity Token IDs assigned to an address.",
                "params": {
                    "_owner": "The owner whose nfts we are interested in."
                }
            },
            "uniswapV3MintCallback(uint256,uint256,bytes)": {
                "notice": "help function to transfer the tokens."
            },
            "userToAllPositions(address)": {
                "notice": "receives an user address and returns all the information regarding all the token positions he has.",
                "params": {
                    "user": ": address of an user"
                }
            },
            "userToAllPositionsFees(address)": {
                "notice": "receives an user address and returns all the fees regarding all the token positions he has.",
                "params": {
                    "user": ": address of an user"
                }
            }
        },
        "version": 1
    },
    "opcodes": "PUSH1 0x80 PUSH1 0x40 MSTORE CALLVALUE DUP1 ISZERO PUSH2 0x10 JUMPI PUSH1 0x0 DUP1 REVERT JUMPDEST POP PUSH1 0x4 CALLDATASIZE LT PUSH2 0x1CF JUMPI PUSH1 0x0 CALLDATALOAD PUSH1 0xE0 SHR DUP1 PUSH4 0x70A08231 GT PUSH2 0x104 JUMPI DUP1 PUSH4 0xC45A0155 GT PUSH2 0xA2 JUMPI DUP1 PUSH4 0xD9BB9D6F GT PUSH2 0x71 JUMPI DUP1 PUSH4 0xD9BB9D6F EQ PUSH2 0x53C JUMPI DUP1 PUSH4 0xE63AD42A EQ PUSH2 0x54F JUMPI DUP1 PUSH4 0xE985E9C5 EQ PUSH2 0x562 JUMPI DUP1 PUSH4 0xFC9F76D6 EQ PUSH2 0x590 JUMPI PUSH1 0x0 DUP1 REVERT JUMPDEST DUP1 PUSH4 0xC45A0155 EQ PUSH2 0x4BC JUMPI DUP1 PUSH4 0xC87B56DD EQ PUSH2 0x4E3 JUMPI DUP1 PUSH4 0xCE3F865F EQ PUSH2 0x4F6 JUMPI DUP1 PUSH4 0xD3487997 EQ PUSH2 0x529 JUMPI PUSH1 0x0 DUP1 REVERT JUMPDEST DUP1 PUSH4 0x95D89B41 GT PUSH2 0xDE JUMPI DUP1 PUSH4 0x95D89B41 EQ PUSH2 0x424 JUMPI DUP1 PUSH4 0x99FBAB88 EQ PUSH2 0x42C JUMPI DUP1 PUSH4 0xA22CB465 EQ PUSH2 0x496 JUMPI DUP1 PUSH4 0xB88D4FDE EQ PUSH2 0x4A9 JUMPI PUSH1 0x0 DUP1 REVERT JUMPDEST DUP1 PUSH4 0x70A08231 EQ PUSH2 0x3CE JUMPI DUP1 PUSH4 0x80B28DB0 EQ PUSH2 0x3E1 JUMPI DUP1 PUSH4 0x8462151C EQ PUSH2 0x404 JUMPI PUSH1 0x0 DUP1 REVERT JUMPDEST DUP1 PUSH4 0x23B872DD GT PUSH2 0x171 JUMPI DUP1 PUSH4 0x42966C68 GT PUSH2 0x14B JUMPI DUP1 PUSH4 0x42966C68 EQ PUSH2 0x34F JUMPI DUP1 PUSH4 0x4CAAD396 EQ PUSH2 0x362 JUMPI DUP1 PUSH4 0x5EF8D0AE EQ PUSH2 0x39A JUMPI DUP1 PUSH4 0x6352211E EQ PUSH2 0x3BB JUMPI PUSH1 0x0 DUP1 REVERT JUMPDEST DUP1 PUSH4 0x23B872DD EQ PUSH2 0x2CB JUMPI DUP1 PUSH4 0x2765E88F EQ PUSH2 0x2DE JUMPI DUP1 PUSH4 0x42842E0E EQ PUSH2 0x33C JUMPI PUSH1 0x0 DUP1 REVERT JUMPDEST DUP1 PUSH4 0x95EA7B3 GT PUSH2 0x1AD JUMPI DUP1 PUSH4 0x95EA7B3 EQ PUSH2 0x252 JUMPI DUP1 PUSH4 0xE3A8088 EQ PUSH2 0x267 JUMPI DUP1 PUSH4 0x12BA95EE EQ PUSH2 0x28C JUMPI DUP1 PUSH4 0x18160DDD EQ PUSH2 0x2B4 JUMPI PUSH1 0x0 DUP1 REVERT JUMPDEST DUP1 PUSH4 0x1FFC9A7 EQ PUSH2 0x1D4 JUMPI DUP1 PUSH4 0x6FDDE03 EQ PUSH2 0x1FC JUMPI DUP1 PUSH4 0x81812FC EQ PUSH2 0x211 JUMPI JUMPDEST PUSH1 0x0 DUP1 REVERT JUMPDEST PUSH2 0x1E7 PUSH2 0x1E2 CALLDATASIZE PUSH1 0x4 PUSH2 0x344A JUMP JUMPDEST PUSH2 0x5A3 JUMP JUMPDEST PUSH1 0x40 MLOAD SWAP1 ISZERO ISZERO DUP2 MSTORE PUSH1 0x20 ADD JUMPDEST PUSH1 0x40 MLOAD DUP1 SWAP2 SUB SWAP1 RETURN JUMPDEST PUSH2 0x204 PUSH2 0x5F5 JUMP JUMPDEST PUSH1 0x40 MLOAD PUSH2 0x1F3 SWAP2 SWAP1 PUSH2 0x34B7 JUMP JUMPDEST PUSH2 0x23A PUSH2 0x21F CALLDATASIZE PUSH1 0x4 PUSH2 0x34CA JUMP JUMPDEST PUSH1 0x4 PUSH1 0x20 MSTORE PUSH1 0x0 SWAP1 DUP2 MSTORE PUSH1 0x40 SWAP1 KECCAK256 SLOAD PUSH1 0x1 PUSH1 0x1 PUSH1 0xA0 SHL SUB AND DUP2 JUMP JUMPDEST PUSH1 0x40 MLOAD PUSH1 0x1 PUSH1 0x1 PUSH1 0xA0 SHL SUB SWAP1 SWAP2 AND DUP2 MSTORE PUSH1 0x20 ADD PUSH2 0x1F3 JUMP JUMPDEST PUSH2 0x265 PUSH2 0x260 CALLDATASIZE PUSH1 0x4 PUSH2 0x34F8 JUMP JUMPDEST PUSH2 0x683 JUMP JUMPDEST STOP JUMPDEST PUSH2 0x27A PUSH2 0x275 CALLDATASIZE PUSH1 0x4 PUSH2 0x3524 JUMP JUMPDEST PUSH2 0x76A JUMP JUMPDEST PUSH1 0x40 MLOAD PUSH2 0x1F3 SWAP7 SWAP6 SWAP5 SWAP4 SWAP3 SWAP2 SWAP1 PUSH2 0x35B8 JUMP JUMPDEST PUSH2 0x29F PUSH2 0x29A CALLDATASIZE PUSH1 0x4 PUSH2 0x3697 JUMP JUMPDEST PUSH2 0xB9D JUMP JUMPDEST PUSH1 0x40 DUP1 MLOAD SWAP3 DUP4 MSTORE PUSH1 0x20 DUP4 ADD SWAP2 SWAP1 SWAP2 MSTORE ADD PUSH2 0x1F3 JUMP JUMPDEST PUSH2 0x2BD PUSH1 0x6 SLOAD DUP2 JUMP JUMPDEST PUSH1 0x40 MLOAD SWAP1 DUP2 MSTORE PUSH1 0x20 ADD PUSH2 0x1F3 JUMP JUMPDEST PUSH2 0x265 PUSH2 0x2D9 CALLDATASIZE PUSH1 0x4 PUSH2 0x36EC JUMP JUMPDEST PUSH2 0xE4B JUMP JUMPDEST PUSH2 0x2F1 PUSH2 0x2EC CALLDATASIZE PUSH1 0x4 PUSH2 0x34CA JUMP JUMPDEST PUSH2 0x1012 JUMP JUMPDEST PUSH1 0x40 DUP1 MLOAD PUSH1 0x1 PUSH1 0x1 PUSH1 0xA0 SHL SUB SWAP1 SWAP8 AND DUP8 MSTORE PUSH1 0x1 PUSH1 0x1 PUSH1 0x80 SHL SUB SWAP6 DUP7 AND PUSH1 0x20 DUP9 ADD MSTORE SWAP4 DUP6 AND SWAP4 DUP7 ADD SWAP4 SWAP1 SWAP4 MSTORE SWAP3 AND PUSH1 0x60 DUP5 ADD MSTORE PUSH1 0x2 SWAP2 DUP3 SIGNEXTEND PUSH1 0x80 DUP5 ADD MSTORE SWAP1 SIGNEXTEND PUSH1 0xA0 DUP3 ADD MSTORE PUSH1 0xC0 ADD PUSH2 0x1F3 JUMP JUMPDEST PUSH2 0x265 PUSH2 0x34A CALLDATASIZE PUSH1 0x4 PUSH2 0x36EC JUMP JUMPDEST PUSH2 0x1137 JUMP JUMPDEST PUSH2 0x265 PUSH2 0x35D CALLDATASIZE PUSH1 0x4 PUSH2 0x34CA JUMP JUMPDEST PUSH2 0x122F JUMP JUMPDEST PUSH2 0x375 PUSH2 0x370 CALLDATASIZE PUSH1 0x4 PUSH2 0x372D JUMP JUMPDEST PUSH2 0x1457 JUMP JUMPDEST PUSH1 0x40 DUP1 MLOAD PUSH1 0x1 PUSH1 0x1 PUSH1 0x80 SHL SUB SWAP1 SWAP5 AND DUP5 MSTORE PUSH1 0x20 DUP5 ADD SWAP3 SWAP1 SWAP3 MSTORE SWAP1 DUP3 ADD MSTORE PUSH1 0x60 ADD PUSH2 0x1F3 JUMP JUMPDEST PUSH2 0x3AD PUSH2 0x3A8 CALLDATASIZE PUSH1 0x4 PUSH2 0x3524 JUMP JUMPDEST PUSH2 0x158B JUMP JUMPDEST PUSH1 0x40 MLOAD PUSH2 0x1F3 SWAP3 SWAP2 SWAP1 PUSH2 0x376F JUMP JUMPDEST PUSH2 0x23A PUSH2 0x3C9 CALLDATASIZE PUSH1 0x4 PUSH2 0x34CA JUMP JUMPDEST PUSH2 0x16BB JUMP JUMPDEST PUSH2 0x2BD PUSH2 0x3DC CALLDATASIZE PUSH1 0x4 PUSH2 0x3524 JUMP JUMPDEST PUSH2 0x1712 JUMP JUMPDEST PUSH2 0x1E7 PUSH2 0x3EF CALLDATASIZE PUSH1 0x4 PUSH2 0x34CA JUMP JUMPDEST PUSH1 0xB PUSH1 0x20 MSTORE PUSH1 0x0 SWAP1 DUP2 MSTORE PUSH1 0x40 SWAP1 KECCAK256 SLOAD PUSH1 0xFF AND DUP2 JUMP JUMPDEST PUSH2 0x417 PUSH2 0x412 CALLDATASIZE PUSH1 0x4 PUSH2 0x3524 JUMP JUMPDEST PUSH2 0x1775 JUMP JUMPDEST PUSH1 0x40 MLOAD PUSH2 0x1F3 SWAP2 SWAP1 PUSH2 0x3794 JUMP JUMPDEST PUSH2 0x204 PUSH2 0x188E JUMP JUMPDEST PUSH2 0x46D PUSH2 0x43A CALLDATASIZE PUSH1 0x4 PUSH2 0x34CA JUMP JUMPDEST PUSH1 0x9 PUSH1 0x20 MSTORE PUSH1 0x0 SWAP1 DUP2 MSTORE PUSH1 0x40 SWAP1 KECCAK256 SLOAD PUSH1 0x1 PUSH1 0x1 PUSH1 0xA0 SHL SUB DUP2 AND SWAP1 PUSH1 0x1 PUSH1 0xA0 SHL DUP2 DIV PUSH1 0x2 SWAP1 DUP2 SIGNEXTEND SWAP2 PUSH1 0x1 PUSH1 0xB8 SHL SWAP1 DIV SWAP1 SIGNEXTEND DUP4 JUMP JUMPDEST PUSH1 0x40 DUP1 MLOAD PUSH1 0x1 PUSH1 0x1 PUSH1 0xA0 SHL SUB SWAP1 SWAP5 AND DUP5 MSTORE PUSH1 0x2 SWAP3 DUP4 SIGNEXTEND PUSH1 0x20 DUP6 ADD MSTORE SWAP2 SIGNEXTEND SWAP1 DUP3 ADD MSTORE PUSH1 0x60 ADD PUSH2 0x1F3 JUMP JUMPDEST PUSH2 0x265 PUSH2 0x4A4 CALLDATASIZE PUSH1 0x4 PUSH2 0x37A7 JUMP JUMPDEST PUSH2 0x189B JUMP JUMPDEST PUSH2 0x265 PUSH2 0x4B7 CALLDATASIZE PUSH1 0x4 PUSH2 0x382D JUMP JUMPDEST PUSH2 0x1907 JUMP JUMPDEST PUSH2 0x23A PUSH32 0x0 DUP2 JUMP JUMPDEST PUSH2 0x204 PUSH2 0x4F1 CALLDATASIZE PUSH1 0x4 PUSH2 0x34CA JUMP JUMPDEST PUSH2 0x19EF JUMP JUMPDEST PUSH2 0x509 PUSH2 0x504 CALLDATASIZE PUSH1 0x4 PUSH2 0x34CA JUMP JUMPDEST PUSH2 0x1CC3 JUMP JUMPDEST PUSH1 0x40 DUP1 MLOAD PUSH1 0x1 PUSH1 0x1 PUSH1 0x80 SHL SUB SWAP4 DUP5 AND DUP2 MSTORE SWAP3 SWAP1 SWAP2 AND PUSH1 0x20 DUP4 ADD MSTORE ADD PUSH2 0x1F3 JUMP JUMPDEST PUSH2 0x265 PUSH2 0x537 CALLDATASIZE PUSH1 0x4 PUSH2 0x389F JUMP JUMPDEST PUSH2 0x1EED JUMP JUMPDEST PUSH2 0x2BD PUSH2 0x54A CALLDATASIZE PUSH1 0x4 PUSH2 0x3911 JUMP JUMPDEST PUSH2 0x1FE5 JUMP JUMPDEST PUSH2 0x2BD PUSH2 0x55D CALLDATASIZE PUSH1 0x4 PUSH2 0x34F8 JUMP JUMPDEST PUSH2 0x21FB JUMP JUMPDEST PUSH2 0x1E7 PUSH2 0x570 CALLDATASIZE PUSH1 0x4 PUSH2 0x39BB JUMP JUMPDEST PUSH1 0x5 PUSH1 0x20 SWAP1 DUP2 MSTORE PUSH1 0x0 SWAP3 DUP4 MSTORE PUSH1 0x40 DUP1 DUP5 KECCAK256 SWAP1 SWAP2 MSTORE SWAP1 DUP3 MSTORE SWAP1 KECCAK256 SLOAD PUSH1 0xFF AND DUP2 JUMP JUMPDEST PUSH2 0x29F PUSH2 0x59E CALLDATASIZE PUSH1 0x4 PUSH2 0x34CA JUMP JUMPDEST PUSH2 0x222C JUMP JUMPDEST PUSH1 0x0 PUSH4 0x1FFC9A7 PUSH1 0xE0 SHL PUSH1 0x1 PUSH1 0x1 PUSH1 0xE0 SHL SUB NOT DUP4 AND EQ DUP1 PUSH2 0x5D4 JUMPI POP PUSH4 0x80AC58CD PUSH1 0xE0 SHL PUSH1 0x1 PUSH1 0x1 PUSH1 0xE0 SHL SUB NOT DUP4 AND EQ JUMPDEST DUP1 PUSH2 0x5EF JUMPI POP PUSH4 0x5B5E139F PUSH1 0xE0 SHL PUSH1 0x1 PUSH1 0x1 PUSH1 0xE0 SHL SUB NOT DUP4 AND EQ JUMPDEST SWAP3 SWAP2 POP POP JUMP JUMPDEST PUSH1 0x0 DUP1 SLOAD PUSH2 0x602 SWAP1 PUSH2 0x39E9 JUMP JUMPDEST DUP1 PUSH1 0x1F ADD PUSH1 0x20 DUP1 SWAP2 DIV MUL PUSH1 0x20 ADD PUSH1 0x40 MLOAD SWAP1 DUP2 ADD PUSH1 0x40 MSTORE DUP1 SWAP3 SWAP2 SWAP1 DUP2 DUP2 MSTORE PUSH1 0x20 ADD DUP3 DUP1 SLOAD PUSH2 0x62E SWAP1 PUSH2 0x39E9 JUMP JUMPDEST DUP1 ISZERO PUSH2 0x67B JUMPI DUP1 PUSH1 0x1F LT PUSH2 0x650 JUMPI PUSH2 0x100 DUP1 DUP4 SLOAD DIV MUL DUP4 MSTORE SWAP2 PUSH1 0x20 ADD SWAP2 PUSH2 0x67B JUMP JUMPDEST DUP3 ADD SWAP2 SWAP1 PUSH1 0x0 MSTORE PUSH1 0x20 PUSH1 0x0 KECCAK256 SWAP1 JUMPDEST DUP2 SLOAD DUP2 MSTORE SWAP1 PUSH1 0x1 ADD SWAP1 PUSH1 0x20 ADD DUP1 DUP4 GT PUSH2 0x65E JUMPI DUP3 SWAP1 SUB PUSH1 0x1F AND DUP3 ADD SWAP2 JUMPDEST POP POP POP POP POP DUP2 JUMP JUMPDEST PUSH1 0x0 DUP2 DUP2 MSTORE PUSH1 0x2 PUSH1 0x20 MSTORE PUSH1 0x40 SWAP1 KECCAK256 SLOAD PUSH1 0x1 PUSH1 0x1 PUSH1 0xA0 SHL SUB AND CALLER DUP2 EQ DUP1 PUSH2 0x6CC JUMPI POP PUSH1 0x1 PUSH1 0x1 PUSH1 0xA0 SHL SUB DUP2 AND PUSH1 0x0 SWAP1 DUP2 MSTORE PUSH1 0x5 PUSH1 0x20 SWAP1 DUP2 MSTORE PUSH1 0x40 DUP1 DUP4 KECCAK256 CALLER DUP5 MSTORE SWAP1 SWAP2 MSTORE SWAP1 KECCAK256 SLOAD PUSH1 0xFF AND JUMPDEST PUSH2 0x70E JUMPI PUSH1 0x40 MLOAD PUSH3 0x461BCD PUSH1 0xE5 SHL DUP2 MSTORE PUSH1 0x20 PUSH1 0x4 DUP3 ADD MSTORE PUSH1 0xE PUSH1 0x24 DUP3 ADD MSTORE PUSH14 0x1393D517D055551213D492569151 PUSH1 0x92 SHL PUSH1 0x44 DUP3 ADD MSTORE PUSH1 0x64 ADD JUMPDEST PUSH1 0x40 MLOAD DUP1 SWAP2 SUB SWAP1 REVERT JUMPDEST PUSH1 0x0 DUP3 DUP2 MSTORE PUSH1 0x4 PUSH1 0x20 MSTORE PUSH1 0x40 DUP1 DUP3 KECCAK256 DUP1 SLOAD PUSH1 0x1 PUSH1 0x1 PUSH1 0xA0 SHL SUB NOT AND PUSH1 0x1 PUSH1 0x1 PUSH1 0xA0 SHL SUB DUP8 DUP2 AND SWAP2 DUP3 OR SWAP1 SWAP3 SSTORE SWAP2 MLOAD DUP6 SWAP4 SWAP2 DUP6 AND SWAP2 PUSH32 0x8C5BE1E5EBEC7D5BD14F71427D1E84F3DD0314C0F7B2291E5B200AC8C7C3B925 SWAP2 LOG4 POP POP POP JUMP JUMPDEST PUSH1 0x60 DUP1 PUSH1 0x60 DUP1 PUSH1 0x60 DUP1 PUSH1 0x0 PUSH2 0x77E DUP9 PUSH2 0x1775 JUMP JUMPDEST SWAP1 POP PUSH1 0x0 DUP2 MLOAD PUSH1 0x1 PUSH1 0x1 PUSH1 0x40 SHL SUB DUP2 GT ISZERO PUSH2 0x79B JUMPI PUSH2 0x79B PUSH2 0x366C JUMP JUMPDEST PUSH1 0x40 MLOAD SWAP1 DUP1 DUP3 MSTORE DUP1 PUSH1 0x20 MUL PUSH1 0x20 ADD DUP3 ADD PUSH1 0x40 MSTORE DUP1 ISZERO PUSH2 0x7C4 JUMPI DUP2 PUSH1 0x20 ADD PUSH1 0x20 DUP3 MUL DUP1 CALLDATASIZE DUP4 CALLDATACOPY ADD SWAP1 POP JUMPDEST POP SWAP1 POP PUSH1 0x0 DUP3 MLOAD PUSH1 0x1 PUSH1 0x1 PUSH1 0x40 SHL SUB DUP2 GT ISZERO PUSH2 0x7E2 JUMPI PUSH2 0x7E2 PUSH2 0x366C JUMP JUMPDEST PUSH1 0x40 MLOAD SWAP1 DUP1 DUP3 MSTORE DUP1 PUSH1 0x20 MUL PUSH1 0x20 ADD DUP3 ADD PUSH1 0x40 MSTORE DUP1 ISZERO PUSH2 0x80B JUMPI DUP2 PUSH1 0x20 ADD PUSH1 0x20 DUP3 MUL DUP1 CALLDATASIZE DUP4 CALLDATACOPY ADD SWAP1 POP JUMPDEST POP SWAP1 POP PUSH1 0x0 DUP4 MLOAD PUSH1 0x1 PUSH1 0x1 PUSH1 0x40 SHL SUB DUP2 GT ISZERO PUSH2 0x829 JUMPI PUSH2 0x829 PUSH2 0x366C JUMP JUMPDEST PUSH1 0x40 MLOAD SWAP1 DUP1 DUP3 MSTORE DUP1 PUSH1 0x20 MUL PUSH1 0x20 ADD DUP3 ADD PUSH1 0x40 MSTORE DUP1 ISZERO PUSH2 0x852 JUMPI DUP2 PUSH1 0x20 ADD PUSH1 0x20 DUP3 MUL DUP1 CALLDATASIZE DUP4 CALLDATACOPY ADD SWAP1 POP JUMPDEST POP SWAP1 POP PUSH1 0x0 DUP5 MLOAD PUSH1 0x1 PUSH1 0x1 PUSH1 0x40 SHL SUB DUP2 GT ISZERO PUSH2 0x870 JUMPI PUSH2 0x870 PUSH2 0x366C JUMP JUMPDEST PUSH1 0x40 MLOAD SWAP1 DUP1 DUP3 MSTORE DUP1 PUSH1 0x20 MUL PUSH1 0x20 ADD DUP3 ADD PUSH1 0x40 MSTORE DUP1 ISZERO PUSH2 0x899 JUMPI DUP2 PUSH1 0x20 ADD PUSH1 0x20 DUP3 MUL DUP1 CALLDATASIZE DUP4 CALLDATACOPY ADD SWAP1 POP JUMPDEST POP SWAP1 POP PUSH1 0x0 DUP6 MLOAD PUSH1 0x1 PUSH1 0x1 PUSH1 0x40 SHL SUB DUP2 GT ISZERO PUSH2 0x8B7 JUMPI PUSH2 0x8B7 PUSH2 0x366C JUMP JUMPDEST PUSH1 0x40 MLOAD SWAP1 DUP1 DUP3 MSTORE DUP1 PUSH1 0x20 MUL PUSH1 0x20 ADD DUP3 ADD PUSH1 0x40 MSTORE DUP1 ISZERO PUSH2 0x8E0 JUMPI DUP2 PUSH1 0x20 ADD PUSH1 0x20 DUP3 MUL DUP1 CALLDATASIZE DUP4 CALLDATACOPY ADD SWAP1 POP JUMPDEST POP SWAP1 POP PUSH1 0x0 DUP7 MLOAD PUSH1 0x1 PUSH1 0x1 PUSH1 0x40 SHL SUB DUP2 GT ISZERO PUSH2 0x8FE JUMPI PUSH2 0x8FE PUSH2 0x366C JUMP JUMPDEST PUSH1 0x40 MLOAD SWAP1 DUP1 DUP3 MSTORE DUP1 PUSH1 0x20 MUL PUSH1 0x20 ADD DUP3 ADD PUSH1 0x40 MSTORE DUP1 ISZERO PUSH2 0x927 JUMPI DUP2 PUSH1 0x20 ADD PUSH1 0x20 DUP3 MUL DUP1 CALLDATASIZE DUP4 CALLDATACOPY ADD SWAP1 POP JUMPDEST POP SWAP1 POP PUSH1 0x0 JUMPDEST DUP8 MLOAD DUP2 LT ISZERO PUSH2 0xB87 JUMPI PUSH1 0x0 PUSH1 0x9 PUSH1 0x0 DUP11 DUP5 DUP2 MLOAD DUP2 LT PUSH2 0x94E JUMPI PUSH2 0x94E PUSH2 0x3A1D JUMP JUMPDEST PUSH1 0x20 SWAP1 DUP2 MUL SWAP2 SWAP1 SWAP2 ADD DUP2 ADD MLOAD DUP3 MSTORE DUP2 DUP2 ADD SWAP3 SWAP1 SWAP3 MSTORE PUSH1 0x40 SWAP1 DUP2 ADD PUSH1 0x0 KECCAK256 DUP2 MLOAD PUSH1 0x60 DUP2 ADD DUP4 MSTORE SWAP1 SLOAD PUSH1 0x1 PUSH1 0x1 PUSH1 0xA0 SHL SUB DUP2 AND DUP1 DUP4 MSTORE PUSH1 0x1 PUSH1 0xA0 SHL DUP3 DIV PUSH1 0x2 SWAP1 DUP2 SIGNEXTEND SWAP6 DUP5 ADD SWAP6 SWAP1 SWAP6 MSTORE PUSH1 0x1 PUSH1 0xB8 SHL SWAP1 SWAP2 DIV SWAP1 SWAP4 SIGNEXTEND SWAP2 DUP2 ADD SWAP2 SWAP1 SWAP2 MSTORE SWAP2 POP PUSH2 0x9C6 JUMPI PUSH1 0x40 MLOAD PUSH4 0x5079FF75 PUSH1 0xE1 SHL DUP2 MSTORE PUSH1 0x4 ADD PUSH1 0x40 MLOAD DUP1 SWAP2 SUB SWAP1 REVERT JUMPDEST DUP1 MLOAD PUSH1 0x0 DUP1 DUP1 PUSH1 0x1 PUSH1 0x1 PUSH1 0xA0 SHL SUB DUP5 AND PUSH4 0x514EA4BF PUSH2 0x9E4 DUP8 PUSH2 0x2328 JUMP JUMPDEST PUSH1 0x40 MLOAD DUP3 PUSH4 0xFFFFFFFF AND PUSH1 0xE0 SHL DUP2 MSTORE PUSH1 0x4 ADD PUSH2 0xA02 SWAP2 DUP2 MSTORE PUSH1 0x20 ADD SWAP1 JUMP JUMPDEST PUSH1 0xA0 PUSH1 0x40 MLOAD DUP1 DUP4 SUB DUP2 DUP7 GAS STATICCALL ISZERO DUP1 ISZERO PUSH2 0xA1F JUMPI RETURNDATASIZE PUSH1 0x0 DUP1 RETURNDATACOPY RETURNDATASIZE PUSH1 0x0 REVERT JUMPDEST POP POP POP POP PUSH1 0x40 MLOAD RETURNDATASIZE PUSH1 0x1F NOT PUSH1 0x1F DUP3 ADD AND DUP3 ADD DUP1 PUSH1 0x40 MSTORE POP DUP2 ADD SWAP1 PUSH2 0xA43 SWAP2 SWAP1 PUSH2 0x3A33 JUMP JUMPDEST SWAP5 POP SWAP5 POP POP POP SWAP3 POP DUP5 PUSH1 0x0 ADD MLOAD DUP13 DUP8 DUP2 MLOAD DUP2 LT PUSH2 0xA62 JUMPI PUSH2 0xA62 PUSH2 0x3A1D JUMP JUMPDEST PUSH1 0x20 MUL PUSH1 0x20 ADD ADD SWAP1 PUSH1 0x1 PUSH1 0x1 PUSH1 0xA0 SHL SUB AND SWAP1 DUP2 PUSH1 0x1 PUSH1 0x1 PUSH1 0xA0 SHL SUB AND DUP2 MSTORE POP POP DUP3 DUP12 DUP8 DUP2 MLOAD DUP2 LT PUSH2 0xA95 JUMPI PUSH2 0xA95 PUSH2 0x3A1D JUMP JUMPDEST PUSH1 0x20 MUL PUSH1 0x20 ADD ADD SWAP1 PUSH1 0x1 PUSH1 0x1 PUSH1 0x80 SHL SUB AND SWAP1 DUP2 PUSH1 0x1 PUSH1 0x1 PUSH1 0x80 SHL SUB AND DUP2 MSTORE POP POP DUP2 DUP11 DUP8 DUP2 MLOAD DUP2 LT PUSH2 0xAC8 JUMPI PUSH2 0xAC8 PUSH2 0x3A1D JUMP JUMPDEST PUSH1 0x20 MUL PUSH1 0x20 ADD ADD SWAP1 PUSH1 0x1 PUSH1 0x1 PUSH1 0x80 SHL SUB AND SWAP1 DUP2 PUSH1 0x1 PUSH1 0x1 PUSH1 0x80 SHL SUB AND DUP2 MSTORE POP POP DUP1 DUP10 DUP8 DUP2 MLOAD DUP2 LT PUSH2 0xAFB JUMPI PUSH2 0xAFB PUSH2 0x3A1D JUMP JUMPDEST PUSH1 0x20 MUL PUSH1 0x20 ADD ADD SWAP1 PUSH1 0x1 PUSH1 0x1 PUSH1 0x80 SHL SUB AND SWAP1 DUP2 PUSH1 0x1 PUSH1 0x1 PUSH1 0x80 SHL SUB AND DUP2 MSTORE POP POP DUP5 PUSH1 0x20 ADD MLOAD DUP9 DUP8 DUP2 MLOAD DUP2 LT PUSH2 0xB32 JUMPI PUSH2 0xB32 PUSH2 0x3A1D JUMP JUMPDEST PUSH1 0x20 MUL PUSH1 0x20 ADD ADD SWAP1 PUSH1 0x2 SIGNEXTEND SWAP1 DUP2 PUSH1 0x2 SIGNEXTEND DUP2 MSTORE POP POP DUP5 PUSH1 0x40 ADD MLOAD DUP8 DUP8 DUP2 MLOAD DUP2 LT PUSH2 0xB5D JUMPI PUSH2 0xB5D PUSH2 0x3A1D JUMP JUMPDEST PUSH1 0x20 MUL PUSH1 0x20 ADD ADD SWAP1 PUSH1 0x2 SIGNEXTEND SWAP1 DUP2 PUSH1 0x2 SIGNEXTEND DUP2 MSTORE POP POP POP POP POP POP POP DUP1 PUSH2 0xB80 SWAP1 PUSH2 0x3AAB JUMP JUMPDEST SWAP1 POP PUSH2 0x92D JUMP JUMPDEST POP SWAP5 SWAP14 SWAP4 SWAP13 POP SWAP2 SWAP11 POP SWAP9 POP SWAP7 POP SWAP1 SWAP5 POP SWAP3 POP POP POP JUMP JUMPDEST PUSH1 0x0 DUP1 DUP3 PUSH1 0x0 ADD MLOAD PUSH1 0x0 PUSH2 0xBB0 DUP3 PUSH2 0x16BB JUMP JUMPDEST SWAP1 POP CALLER PUSH1 0x1 PUSH1 0x1 PUSH1 0xA0 SHL SUB DUP3 AND EQ DUP1 ISZERO SWAP1 PUSH2 0xBEF JUMPI POP PUSH1 0x1 PUSH1 0x1 PUSH1 0xA0 SHL SUB DUP2 AND PUSH1 0x0 SWAP1 DUP2 MSTORE PUSH1 0x5 PUSH1 0x20 SWAP1 DUP2 MSTORE PUSH1 0x40 DUP1 DUP4 KECCAK256 CALLER DUP5 MSTORE SWAP1 SWAP2 MSTORE SWAP1 KECCAK256 SLOAD PUSH1 0xFF AND ISZERO JUMPDEST DUP1 ISZERO PUSH2 0xC12 JUMPI POP PUSH1 0x0 DUP3 DUP2 MSTORE PUSH1 0x4 PUSH1 0x20 MSTORE PUSH1 0x40 SWAP1 KECCAK256 SLOAD PUSH1 0x1 PUSH1 0x1 PUSH1 0xA0 SHL SUB AND CALLER EQ ISZERO JUMPDEST ISZERO PUSH2 0xC30 JUMPI PUSH1 0x40 MLOAD PUSH4 0xEA8E4EB5 PUSH1 0xE0 SHL DUP2 MSTORE PUSH1 0x4 ADD PUSH1 0x40 MLOAD DUP1 SWAP2 SUB SWAP1 REVERT JUMPDEST DUP5 MLOAD PUSH1 0x0 SWAP1 DUP2 MSTORE PUSH1 0x9 PUSH1 0x20 SWAP1 DUP2 MSTORE PUSH1 0x40 SWAP2 DUP3 SWAP1 KECCAK256 DUP3 MLOAD PUSH1 0x60 DUP2 ADD DUP5 MSTORE SWAP1 SLOAD PUSH1 0x1 PUSH1 0x1 PUSH1 0xA0 SHL SUB DUP2 AND DUP1 DUP4 MSTORE PUSH1 0x1 PUSH1 0xA0 SHL DUP3 DIV PUSH1 0x2 SWAP1 DUP2 SIGNEXTEND SWAP5 DUP5 ADD SWAP5 SWAP1 SWAP5 MSTORE PUSH1 0x1 PUSH1 0xB8 SHL SWAP1 SWAP2 DIV SWAP1 SWAP3 SIGNEXTEND SWAP3 DUP2 ADD SWAP3 SWAP1 SWAP3 MSTORE PUSH2 0xC9D JUMPI PUSH1 0x40 MLOAD PUSH4 0x5079FF75 PUSH1 0xE1 SHL DUP2 MSTORE PUSH1 0x4 ADD PUSH1 0x40 MLOAD DUP1 SWAP2 SUB SWAP1 REVERT JUMPDEST DUP1 MLOAD PUSH1 0x0 PUSH1 0x1 PUSH1 0x1 PUSH1 0xA0 SHL SUB DUP3 AND PUSH4 0x514EA4BF PUSH2 0xCB9 DUP6 PUSH2 0x2328 JUMP JUMPDEST PUSH1 0x40 MLOAD DUP3 PUSH4 0xFFFFFFFF AND PUSH1 0xE0 SHL DUP2 MSTORE PUSH1 0x4 ADD PUSH2 0xCD7 SWAP2 DUP2 MSTORE PUSH1 0x20 ADD SWAP1 JUMP JUMPDEST PUSH1 0xA0 PUSH1 0x40 MLOAD DUP1 DUP4 SUB DUP2 DUP7 GAS STATICCALL ISZERO DUP1 ISZERO PUSH2 0xCF4 JUMPI RETURNDATASIZE PUSH1 0x0 DUP1 RETURNDATACOPY RETURNDATASIZE PUSH1 0x0 REVERT JUMPDEST POP POP POP POP PUSH1 0x40 MLOAD RETURNDATASIZE PUSH1 0x1F NOT PUSH1 0x1F DUP3 ADD AND DUP3 ADD DUP1 PUSH1 0x40 MSTORE POP DUP2 ADD SWAP1 PUSH2 0xD18 SWAP2 SWAP1 PUSH2 0x3A33 JUMP JUMPDEST POP POP POP POP SWAP1 POP DUP1 PUSH1 0x1 PUSH1 0x1 PUSH1 0x80 SHL SUB AND DUP9 PUSH1 0x20 ADD MLOAD PUSH1 0x1 PUSH1 0x1 PUSH1 0x80 SHL SUB AND GT ISZERO PUSH2 0xD55 JUMPI PUSH1 0x40 MLOAD PUSH4 0x4323A555 PUSH1 0xE0 SHL DUP2 MSTORE PUSH1 0x4 ADD PUSH1 0x40 MLOAD DUP1 SWAP2 SUB SWAP1 REVERT JUMPDEST PUSH1 0x20 DUP4 DUP2 ADD MLOAD PUSH1 0x40 DUP1 DUP7 ADD MLOAD SWAP3 DUP12 ADD MLOAD SWAP1 MLOAD PUSH4 0xA34123A7 PUSH1 0xE0 SHL DUP2 MSTORE PUSH1 0x2 SWAP3 DUP4 SIGNEXTEND PUSH1 0x4 DUP3 ADD MSTORE SWAP3 SWAP1 SWAP2 SIGNEXTEND PUSH1 0x24 DUP4 ADD MSTORE PUSH1 0x1 PUSH1 0x1 PUSH1 0x80 SHL SUB AND PUSH1 0x44 DUP3 ADD MSTORE PUSH1 0x1 PUSH1 0x1 PUSH1 0xA0 SHL SUB DUP4 AND SWAP1 PUSH4 0xA34123A7 SWAP1 PUSH1 0x64 ADD PUSH1 0x40 DUP1 MLOAD DUP1 DUP4 SUB DUP2 PUSH1 0x0 DUP8 GAS CALL ISZERO DUP1 ISZERO PUSH2 0xDC4 JUMPI RETURNDATASIZE PUSH1 0x0 DUP1 RETURNDATACOPY RETURNDATASIZE PUSH1 0x0 REVERT JUMPDEST POP POP POP POP PUSH1 0x40 MLOAD RETURNDATASIZE PUSH1 0x1F NOT PUSH1 0x1F DUP3 ADD AND DUP3 ADD DUP1 PUSH1 0x40 MSTORE POP DUP2 ADD SWAP1 PUSH2 0xDE8 SWAP2 SWAP1 PUSH2 0x3AC4 JUMP JUMPDEST DUP10 MLOAD PUSH1 0x20 DUP1 DUP13 ADD MLOAD PUSH1 0x40 DUP1 MLOAD PUSH1 0x1 PUSH1 0x1 PUSH1 0x80 SHL SUB SWAP1 SWAP3 AND DUP3 MSTORE SWAP2 DUP2 ADD DUP6 SWAP1 MSTORE SWAP1 DUP2 ADD DUP4 SWAP1 MSTORE SWAP3 SWAP10 POP SWAP1 SWAP8 POP SWAP1 PUSH32 0x1832D0BE987B5F3CBC73B42F7EE61F47D509F9A14F8D3770969DFDABEF841C3E SWAP1 PUSH1 0x60 ADD PUSH1 0x40 MLOAD DUP1 SWAP2 SUB SWAP1 LOG2 POP POP POP POP POP SWAP2 POP SWAP2 JUMP JUMPDEST PUSH1 0x0 DUP2 DUP2 MSTORE PUSH1 0x2 PUSH1 0x20 MSTORE PUSH1 0x40 SWAP1 KECCAK256 SLOAD PUSH1 0x1 PUSH1 0x1 PUSH1 0xA0 SHL SUB DUP5 DUP2 AND SWAP2 AND EQ PUSH2 0xEA1 JUMPI PUSH1 0x40 MLOAD PUSH3 0x461BCD PUSH1 0xE5 SHL DUP2 MSTORE PUSH1 0x20 PUSH1 0x4 DUP3 ADD MSTORE PUSH1 0xA PUSH1 0x24 DUP3 ADD MSTORE PUSH10 0x57524F4E475F46524F4D PUSH1 0xB0 SHL PUSH1 0x44 DUP3 ADD MSTORE PUSH1 0x64 ADD PUSH2 0x705 JUMP JUMPDEST PUSH1 0x1 PUSH1 0x1 PUSH1 0xA0 SHL SUB DUP3 AND PUSH2 0xEEB JUMPI PUSH1 0x40 MLOAD PUSH3 0x461BCD PUSH1 0xE5 SHL DUP2 MSTORE PUSH1 0x20 PUSH1 0x4 DUP3 ADD MSTORE PUSH1 0x11 PUSH1 0x24 DUP3 ADD MSTORE PUSH17 0x1253959053125117D49150D25412515395 PUSH1 0x7A SHL PUSH1 0x44 DUP3 ADD MSTORE PUSH1 0x64 ADD PUSH2 0x705 JUMP JUMPDEST CALLER PUSH1 0x1 PUSH1 0x1 PUSH1 0xA0 SHL SUB DUP5 AND EQ DUP1 PUSH2 0xF25 JUMPI POP PUSH1 0x1 PUSH1 0x1 PUSH1 0xA0 SHL SUB DUP4 AND PUSH1 0x0 SWAP1 DUP2 MSTORE PUSH1 0x5 PUSH1 0x20 SWAP1 DUP2 MSTORE PUSH1 0x40 DUP1 DUP4 KECCAK256 CALLER DUP5 MSTORE SWAP1 SWAP2 MSTORE SWAP1 KECCAK256 SLOAD PUSH1 0xFF AND JUMPDEST DUP1 PUSH2 0xF46 JUMPI POP PUSH1 0x0 DUP2 DUP2 MSTORE PUSH1 0x4 PUSH1 0x20 MSTORE PUSH1 0x40 SWAP1 KECCAK256 SLOAD PUSH1 0x1 PUSH1 0x1 PUSH1 0xA0 SHL SUB AND CALLER EQ JUMPDEST PUSH2 0xF83 JUMPI PUSH1 0x40 MLOAD PUSH3 0x461BCD PUSH1 0xE5 SHL DUP2 MSTORE PUSH1 0x20 PUSH1 0x4 DUP3 ADD MSTORE PUSH1 0xE PUSH1 0x24 DUP3 ADD MSTORE PUSH14 0x1393D517D055551213D492569151 PUSH1 0x92 SHL PUSH1 0x44 DUP3 ADD MSTORE PUSH1 0x64 ADD PUSH2 0x705 JUMP JUMPDEST PUSH1 0x1 PUSH1 0x1 PUSH1 0xA0 SHL SUB DUP1 DUP5 AND PUSH1 0x0 DUP2 DUP2 MSTORE PUSH1 0x3 PUSH1 0x20 SWAP1 DUP2 MSTORE PUSH1 0x40 DUP1 DUP4 KECCAK256 DUP1 SLOAD PUSH1 0x0 NOT ADD SWAP1 SSTORE SWAP4 DUP7 AND DUP1 DUP4 MSTORE DUP5 DUP4 KECCAK256 DUP1 SLOAD PUSH1 0x1 ADD SWAP1 SSTORE DUP6 DUP4 MSTORE PUSH1 0x2 DUP3 MSTORE DUP5 DUP4 KECCAK256 DUP1 SLOAD PUSH1 0x1 PUSH1 0x1 PUSH1 0xA0 SHL SUB NOT SWAP1 DUP2 AND DUP4 OR SWAP1 SWAP2 SSTORE PUSH1 0x4 SWAP1 SWAP3 MSTORE DUP5 DUP4 KECCAK256 DUP1 SLOAD SWAP1 SWAP3 AND SWAP1 SWAP2 SSTORE SWAP3 MLOAD DUP5 SWAP4 SWAP3 SWAP2 PUSH32 0xDDF252AD1BE2C89B69C2B068FC378DAA952BA7F163C4A11628F55A4DF523B3EF SWAP2 LOG4 POP POP POP JUMP JUMPDEST PUSH1 0x0 DUP2 DUP2 MSTORE PUSH1 0x9 PUSH1 0x20 SWAP1 DUP2 MSTORE PUSH1 0x40 DUP1 DUP4 KECCAK256 DUP2 MLOAD PUSH1 0x60 DUP2 ADD DUP4 MSTORE SWAP1 SLOAD PUSH1 0x1 PUSH1 0x1 PUSH1 0xA0 SHL SUB DUP2 AND DUP1 DUP4 MSTORE PUSH1 0x1 PUSH1 0xA0 SHL DUP3 DIV PUSH1 0x2 SWAP1 DUP2 SIGNEXTEND SWAP6 DUP5 ADD SWAP6 SWAP1 SWAP6 MSTORE PUSH1 0x1 PUSH1 0xB8 SHL SWAP1 SWAP2 DIV SWAP1 SWAP4 SIGNEXTEND SWAP2 DUP2 ADD SWAP2 SWAP1 SWAP2 MSTORE DUP3 SWAP2 DUP3 SWAP2 DUP3 SWAP2 DUP3 SWAP2 DUP3 SWAP2 PUSH2 0x1086 JUMPI PUSH1 0x40 MLOAD PUSH4 0x5079FF75 PUSH1 0xE1 SHL DUP2 MSTORE PUSH1 0x4 ADD PUSH1 0x40 MLOAD DUP1 SWAP2 SUB SWAP1 REVERT JUMPDEST DUP1 MLOAD PUSH1 0x0 DUP1 DUP1 PUSH1 0x1 PUSH1 0x1 PUSH1 0xA0 SHL SUB DUP5 AND PUSH4 0x514EA4BF PUSH2 0x10A4 DUP8 PUSH2 0x2328 JUMP JUMPDEST PUSH1 0x40 MLOAD DUP3 PUSH4 0xFFFFFFFF AND PUSH1 0xE0 SHL DUP2 MSTORE PUSH1 0x4 ADD PUSH2 0x10C2 SWAP2 DUP2 MSTORE PUSH1 0x20 ADD SWAP1 JUMP JUMPDEST PUSH1 0xA0 PUSH1 0x40 MLOAD DUP1 DUP4 SUB DUP2 DUP7 GAS STATICCALL ISZERO DUP1 ISZERO PUSH2 0x10DF JUMPI RETURNDATASIZE PUSH1 0x0 DUP1 RETURNDATACOPY RETURNDATASIZE PUSH1 0x0 REVERT JUMPDEST POP POP POP POP PUSH1 0x40 MLOAD RETURNDATASIZE PUSH1 0x1F NOT PUSH1 0x1F DUP3 ADD AND DUP3 ADD DUP1 PUSH1 0x40 MSTORE POP DUP2 ADD SWAP1 PUSH2 0x1103 SWAP2 SWAP1 PUSH2 0x3A33 JUMP JUMPDEST SWAP5 POP SWAP5 POP POP POP SWAP3 POP DUP5 PUSH1 0x0 ADD MLOAD DUP4 DUP4 DUP4 DUP9 PUSH1 0x20 ADD MLOAD DUP10 PUSH1 0x40 ADD MLOAD SWAP11 POP SWAP11 POP SWAP11 POP SWAP11 POP SWAP11 POP SWAP11 POP POP POP POP POP POP SWAP2 SWAP4 SWAP6 POP SWAP2 SWAP4 SWAP6 JUMP JUMPDEST PUSH2 0x1142 DUP4 DUP4 DUP4 PUSH2 0xE4B JUMP JUMPDEST PUSH1 0x1 PUSH1 0x1 PUSH1 0xA0 SHL SUB DUP3 AND EXTCODESIZE ISZERO DUP1 PUSH2 0x11EB JUMPI POP PUSH1 0x40 MLOAD PUSH4 0xA85BD01 PUSH1 0xE1 SHL DUP1 DUP3 MSTORE CALLER PUSH1 0x4 DUP4 ADD MSTORE PUSH1 0x1 PUSH1 0x1 PUSH1 0xA0 SHL SUB DUP6 DUP2 AND PUSH1 0x24 DUP5 ADD MSTORE PUSH1 0x44 DUP4 ADD DUP5 SWAP1 MSTORE PUSH1 0x80 PUSH1 0x64 DUP5 ADD MSTORE PUSH1 0x0 PUSH1 0x84 DUP5 ADD MSTORE SWAP1 SWAP2 SWAP1 DUP5 AND SWAP1 PUSH4 0x150B7A02 SWAP1 PUSH1 0xA4 ADD PUSH1 0x20 PUSH1 0x40 MLOAD DUP1 DUP4 SUB DUP2 PUSH1 0x0 DUP8 GAS CALL ISZERO DUP1 ISZERO PUSH2 0x11BB JUMPI RETURNDATASIZE PUSH1 0x0 DUP1 RETURNDATACOPY RETURNDATASIZE PUSH1 0x0 REVERT JUMPDEST POP POP POP POP PUSH1 0x40 MLOAD RETURNDATASIZE PUSH1 0x1F NOT PUSH1 0x1F DUP3 ADD AND DUP3 ADD DUP1 PUSH1 0x40 MSTORE POP DUP2 ADD SWAP1 PUSH2 0x11DF SWAP2 SWAP1 PUSH2 0x3AE8 JUMP JUMPDEST PUSH1 0x1 PUSH1 0x1 PUSH1 0xE0 SHL SUB NOT AND EQ JUMPDEST PUSH2 0x122A JUMPI PUSH1 0x40 MLOAD PUSH3 0x461BCD PUSH1 0xE5 SHL DUP2 MSTORE PUSH1 0x20 PUSH1 0x4 DUP3 ADD MSTORE PUSH1 0x10 PUSH1 0x24 DUP3 ADD MSTORE PUSH16 0x155394D0519157D49150D25412515395 PUSH1 0x82 SHL PUSH1 0x44 DUP3 ADD MSTORE PUSH1 0x64 ADD PUSH2 0x705 JUMP JUMPDEST POP POP POP JUMP JUMPDEST DUP1 PUSH1 0x0 PUSH2 0x123B DUP3 PUSH2 0x16BB JUMP JUMPDEST SWAP1 POP CALLER PUSH1 0x1 PUSH1 0x1 PUSH1 0xA0 SHL SUB DUP3 AND EQ DUP1 ISZERO SWAP1 PUSH2 0x127A JUMPI POP PUSH1 0x1 PUSH1 0x1 PUSH1 0xA0 SHL SUB DUP2 AND PUSH1 0x0 SWAP1 DUP2 MSTORE PUSH1 0x5 PUSH1 0x20 SWAP1 DUP2 MSTORE PUSH1 0x40 DUP1 DUP4 KECCAK256 CALLER DUP5 MSTORE SWAP1 SWAP2 MSTORE SWAP1 KECCAK256 SLOAD PUSH1 0xFF AND ISZERO JUMPDEST DUP1 ISZERO PUSH2 0x129D JUMPI POP PUSH1 0x0 DUP3 DUP2 MSTORE PUSH1 0x4 PUSH1 0x20 MSTORE PUSH1 0x40 SWAP1 KECCAK256 SLOAD PUSH1 0x1 PUSH1 0x1 PUSH1 0xA0 SHL SUB AND CALLER EQ ISZERO JUMPDEST ISZERO PUSH2 0x12BB JUMPI PUSH1 0x40 MLOAD PUSH4 0xEA8E4EB5 PUSH1 0xE0 SHL DUP2 MSTORE PUSH1 0x4 ADD PUSH1 0x40 MLOAD DUP1 SWAP2 SUB SWAP1 REVERT JUMPDEST PUSH1 0x0 DUP4 DUP2 MSTORE PUSH1 0x9 PUSH1 0x20 SWAP1 DUP2 MSTORE PUSH1 0x40 SWAP2 DUP3 SWAP1 KECCAK256 DUP3 MLOAD PUSH1 0x60 DUP2 ADD DUP5 MSTORE SWAP1 SLOAD PUSH1 0x1 PUSH1 0x1 PUSH1 0xA0 SHL SUB DUP2 AND DUP1 DUP4 MSTORE PUSH1 0x1 PUSH1 0xA0 SHL DUP3 DIV PUSH1 0x2 SWAP1 DUP2 SIGNEXTEND SWAP5 DUP5 ADD SWAP5 SWAP1 SWAP5 MSTORE PUSH1 0x1 PUSH1 0xB8 SHL SWAP1 SWAP2 DIV SWAP1 SWAP3 SIGNEXTEND SWAP3 DUP2 ADD SWAP3 SWAP1 SWAP3 MSTORE PUSH2 0x1326 JUMPI PUSH1 0x40 MLOAD PUSH4 0x5079FF75 PUSH1 0xE1 SHL DUP2 MSTORE PUSH1 0x4 ADD PUSH1 0x40 MLOAD DUP1 SWAP2 SUB SWAP1 REVERT JUMPDEST DUP1 MLOAD PUSH1 0x0 DUP1 DUP1 PUSH1 0x1 PUSH1 0x1 PUSH1 0xA0 SHL SUB DUP5 AND PUSH4 0x514EA4BF PUSH2 0x1344 DUP8 PUSH2 0x2328 JUMP JUMPDEST PUSH1 0x40 MLOAD DUP3 PUSH4 0xFFFFFFFF AND PUSH1 0xE0 SHL DUP2 MSTORE PUSH1 0x4 ADD PUSH2 0x1362 SWAP2 DUP2 MSTORE PUSH1 0x20 ADD SWAP1 JUMP JUMPDEST PUSH1 0xA0 PUSH1 0x40 MLOAD DUP1 DUP4 SUB DUP2 DUP7 GAS STATICCALL ISZERO DUP1 ISZERO PUSH2 0x137F JUMPI RETURNDATASIZE PUSH1 0x0 DUP1 RETURNDATACOPY RETURNDATASIZE PUSH1 0x0 REVERT JUMPDEST POP POP POP POP PUSH1 0x40 MLOAD RETURNDATASIZE PUSH1 0x1F NOT PUSH1 0x1F DUP3 ADD AND DUP3 ADD DUP1 PUSH1 0x40 MSTORE POP DUP2 ADD SWAP1 PUSH2 0x13A3 SWAP2 SWAP1 PUSH2 0x3A33 JUMP JUMPDEST SWAP5 POP SWAP5 POP POP POP SWAP3 POP PUSH1 0x0 DUP4 PUSH1 0x1 PUSH1 0x1 PUSH1 0x80 SHL SUB AND GT DUP1 PUSH2 0x13CC JUMPI POP PUSH1 0x0 DUP3 PUSH1 0x1 PUSH1 0x1 PUSH1 0x80 SHL SUB AND GT JUMPDEST DUP1 PUSH2 0x13E0 JUMPI POP PUSH1 0x0 DUP2 PUSH1 0x1 PUSH1 0x1 PUSH1 0x80 SHL SUB AND GT JUMPDEST ISZERO PUSH2 0x13FE JUMPI PUSH1 0x40 MLOAD PUSH4 0x6C4E633B PUSH1 0xE1 SHL DUP2 MSTORE PUSH1 0x4 ADD PUSH1 0x40 MLOAD DUP1 SWAP2 SUB SWAP1 REVERT JUMPDEST PUSH1 0x0 DUP9 DUP2 MSTORE PUSH1 0x9 PUSH1 0x20 SWAP1 DUP2 MSTORE PUSH1 0x40 DUP1 DUP4 KECCAK256 DUP1 SLOAD PUSH1 0x1 PUSH1 0x1 PUSH1 0xD0 SHL SUB NOT AND SWAP1 SSTORE PUSH1 0xB SWAP1 SWAP2 MSTORE SWAP1 KECCAK256 DUP1 SLOAD PUSH1 0xFF NOT AND PUSH1 0x1 OR SWAP1 SSTORE PUSH2 0x1438 DUP9 PUSH2 0x2378 JUMP JUMPDEST PUSH1 0x6 DUP1 SLOAD SWAP1 PUSH1 0x0 PUSH2 0x1448 DUP4 PUSH2 0x3B05 JUMP JUMPDEST SWAP2 SWAP1 POP SSTORE POP POP POP POP POP POP POP POP POP JUMP JUMPDEST DUP1 CALLDATALOAD PUSH1 0x0 SWAP1 DUP2 MSTORE PUSH1 0x9 PUSH1 0x20 SWAP1 DUP2 MSTORE PUSH1 0x40 DUP1 DUP4 KECCAK256 DUP2 MLOAD PUSH1 0x60 DUP2 ADD DUP4 MSTORE SWAP1 SLOAD PUSH1 0x1 PUSH1 0x1 PUSH1 0xA0 SHL SUB DUP2 AND DUP1 DUP4 MSTORE PUSH1 0x1 PUSH1 0xA0 SHL DUP3 DIV PUSH1 0x2 SWAP1 DUP2 SIGNEXTEND SWAP6 DUP5 ADD SWAP6 SWAP1 SWAP6 MSTORE PUSH1 0x1 PUSH1 0xB8 SHL SWAP1 SWAP2 DIV SWAP1 SWAP4 SIGNEXTEND SWAP2 DUP2 ADD SWAP2 SWAP1 SWAP2 MSTORE DUP3 SWAP2 DUP3 SWAP2 SWAP1 PUSH2 0x14C8 JUMPI PUSH1 0x40 MLOAD PUSH4 0x5079FF75 PUSH1 0xE1 SHL DUP2 MSTORE PUSH1 0x4 ADD PUSH1 0x40 MLOAD DUP1 SWAP2 SUB SWAP1 REVERT JUMPDEST PUSH2 0x152E PUSH1 0x40 MLOAD DUP1 PUSH1 0xE0 ADD PUSH1 0x40 MSTORE DUP1 DUP4 PUSH1 0x0 ADD MLOAD PUSH1 0x1 PUSH1 0x1 PUSH1 0xA0 SHL SUB AND DUP2 MSTORE PUSH1 0x20 ADD DUP4 PUSH1 0x20 ADD MLOAD PUSH1 0x2 SIGNEXTEND DUP2 MSTORE PUSH1 0x20 ADD DUP4 PUSH1 0x40 ADD MLOAD PUSH1 0x2 SIGNEXTEND DUP2 MSTORE PUSH1 0x20 ADD DUP8 PUSH1 0x20 ADD CALLDATALOAD DUP2 MSTORE PUSH1 0x20 ADD DUP8 PUSH1 0x40 ADD CALLDATALOAD DUP2 MSTORE PUSH1 0x20 ADD DUP8 PUSH1 0x60 ADD CALLDATALOAD DUP2 MSTORE PUSH1 0x20 ADD DUP8 PUSH1 0x80 ADD CALLDATALOAD DUP2 MSTORE POP PUSH2 0x2445 JUMP JUMPDEST PUSH1 0x40 DUP1 MLOAD PUSH1 0x1 PUSH1 0x1 PUSH1 0x80 SHL SUB DUP6 AND DUP2 MSTORE PUSH1 0x20 DUP2 ADD DUP5 SWAP1 MSTORE SWAP1 DUP2 ADD DUP3 SWAP1 MSTORE SWAP3 SWAP7 POP SWAP1 SWAP5 POP SWAP3 POP DUP6 CALLDATALOAD SWAP1 PUSH32 0x22FB3C4728E7CC5DD64003F4267D8FB1EB2580F5598050868300738A823D7047 SWAP1 PUSH1 0x60 ADD PUSH1 0x40 MLOAD DUP1 SWAP2 SUB SWAP1 LOG2 POP SWAP2 SWAP4 SWAP1 SWAP3 POP JUMP JUMPDEST PUSH1 0x60 DUP1 PUSH1 0x0 PUSH2 0x1599 DUP5 PUSH2 0x1775 JUMP JUMPDEST SWAP1 POP PUSH1 0x0 DUP2 MLOAD PUSH1 0x1 PUSH1 0x1 PUSH1 0x40 SHL SUB DUP2 GT ISZERO PUSH2 0x15B6 JUMPI PUSH2 0x15B6 PUSH2 0x366C JUMP JUMPDEST PUSH1 0x40 MLOAD SWAP1 DUP1 DUP3 MSTORE DUP1 PUSH1 0x20 MUL PUSH1 0x20 ADD DUP3 ADD PUSH1 0x40 MSTORE DUP1 ISZERO PUSH2 0x15DF JUMPI DUP2 PUSH1 0x20 ADD PUSH1 0x20 DUP3 MUL DUP1 CALLDATASIZE DUP4 CALLDATACOPY ADD SWAP1 POP JUMPDEST POP SWAP1 POP PUSH1 0x0 DUP3 MLOAD PUSH1 0x1 PUSH1 0x1 PUSH1 0x40 SHL SUB DUP2 GT ISZERO PUSH2 0x15FD JUMPI PUSH2 0x15FD PUSH2 0x366C JUMP JUMPDEST PUSH1 0x40 MLOAD SWAP1 DUP1 DUP3 MSTORE DUP1 PUSH1 0x20 MUL PUSH1 0x20 ADD DUP3 ADD PUSH1 0x40 MSTORE DUP1 ISZERO PUSH2 0x1626 JUMPI DUP2 PUSH1 0x20 ADD PUSH1 0x20 DUP3 MUL DUP1 CALLDATASIZE DUP4 CALLDATACOPY ADD SWAP1 POP JUMPDEST POP SWAP1 POP PUSH1 0x0 JUMPDEST DUP4 MLOAD DUP2 LT ISZERO PUSH2 0x16AF JUMPI PUSH1 0x0 DUP1 PUSH2 0x165A DUP7 DUP5 DUP2 MLOAD DUP2 LT PUSH2 0x164D JUMPI PUSH2 0x164D PUSH2 0x3A1D JUMP JUMPDEST PUSH1 0x20 MUL PUSH1 0x20 ADD ADD MLOAD PUSH2 0x222C JUMP JUMPDEST SWAP2 POP SWAP2 POP DUP2 DUP6 DUP5 DUP2 MLOAD DUP2 LT PUSH2 0x1671 JUMPI PUSH2 0x1671 PUSH2 0x3A1D JUMP JUMPDEST PUSH1 0x20 MUL PUSH1 0x20 ADD ADD DUP2 DUP2 MSTORE POP POP DUP1 DUP5 DUP5 DUP2 MLOAD DUP2 LT PUSH2 0x1690 JUMPI PUSH2 0x1690 PUSH2 0x3A1D JUMP JUMPDEST PUSH1 0x20 MUL PUSH1 0x20 ADD ADD DUP2 DUP2 MSTORE POP POP POP POP DUP1 PUSH2 0x16A8 SWAP1 PUSH2 0x3AAB JUMP JUMPDEST SWAP1 POP PUSH2 0x162C JUMP JUMPDEST POP SWAP1 SWAP6 SWAP1 SWAP5 POP SWAP3 POP POP POP JUMP JUMPDEST PUSH1 0x0 DUP2 DUP2 MSTORE PUSH1 0x2 PUSH1 0x20 MSTORE PUSH1 0x40 SWAP1 KECCAK256 SLOAD PUSH1 0x1 PUSH1 0x1 PUSH1 0xA0 SHL SUB AND DUP1 PUSH2 0x170D JUMPI PUSH1 0x40 MLOAD PUSH3 0x461BCD PUSH1 0xE5 SHL DUP2 MSTORE PUSH1 0x20 PUSH1 0x4 DUP3 ADD MSTORE PUSH1 0xA PUSH1 0x24 DUP3 ADD MSTORE PUSH10 0x1393D517D35253951151 PUSH1 0xB2 SHL PUSH1 0x44 DUP3 ADD MSTORE PUSH1 0x64 ADD PUSH2 0x705 JUMP JUMPDEST SWAP2 SWAP1 POP JUMP JUMPDEST PUSH1 0x0 PUSH1 0x1 PUSH1 0x1 PUSH1 0xA0 SHL SUB DUP3 AND PUSH2 0x1759 JUMPI PUSH1 0x40 MLOAD PUSH3 0x461BCD PUSH1 0xE5 SHL DUP2 MSTORE PUSH1 0x20 PUSH1 0x4 DUP3 ADD MSTORE PUSH1 0xC PUSH1 0x24 DUP3 ADD MSTORE PUSH12 0x5A45524F5F41444452455353 PUSH1 0xA0 SHL PUSH1 0x44 DUP3 ADD MSTORE PUSH1 0x64 ADD PUSH2 0x705 JUMP JUMPDEST POP PUSH1 0x1 PUSH1 0x1 PUSH1 0xA0 SHL SUB AND PUSH1 0x0 SWAP1 DUP2 MSTORE PUSH1 0x3 PUSH1 0x20 MSTORE PUSH1 0x40 SWAP1 KECCAK256 SLOAD SWAP1 JUMP JUMPDEST PUSH1 0x60 PUSH1 0x0 PUSH2 0x1782 DUP4 PUSH2 0x1712 JUMP JUMPDEST SWAP1 POP DUP1 PUSH1 0x0 SUB PUSH2 0x17A2 JUMPI POP POP PUSH1 0x40 DUP1 MLOAD PUSH1 0x0 DUP2 MSTORE PUSH1 0x20 DUP2 ADD SWAP1 SWAP2 MSTORE SWAP2 SWAP1 POP JUMP JUMPDEST PUSH1 0x0 DUP2 PUSH1 0x1 PUSH1 0x1 PUSH1 0x40 SHL SUB DUP2 GT ISZERO PUSH2 0x17BC JUMPI PUSH2 0x17BC PUSH2 0x366C JUMP JUMPDEST PUSH1 0x40 MLOAD SWAP1 DUP1 DUP3 MSTORE DUP1 PUSH1 0x20 MUL PUSH1 0x20 ADD DUP3 ADD PUSH1 0x40 MSTORE DUP1 ISZERO PUSH2 0x17E5 JUMPI DUP2 PUSH1 0x20 ADD PUSH1 0x20 DUP3 MUL DUP1 CALLDATASIZE DUP4 CALLDATACOPY ADD SWAP1 POP JUMPDEST POP PUSH1 0x7 SLOAD SWAP1 SWAP2 POP PUSH1 0x0 DUP1 JUMPDEST DUP3 DUP3 LT DUP1 ISZERO PUSH2 0x17FE JUMPI POP DUP3 DUP2 LT JUMPDEST ISZERO PUSH2 0x187D JUMPI PUSH1 0x0 DUP2 DUP2 MSTORE PUSH1 0xB PUSH1 0x20 MSTORE PUSH1 0x40 SWAP1 KECCAK256 SLOAD PUSH1 0xFF AND ISZERO ISZERO PUSH1 0x1 EQ PUSH2 0x186B JUMPI DUP7 PUSH1 0x1 PUSH1 0x1 PUSH1 0xA0 SHL SUB AND PUSH2 0x1831 DUP3 PUSH2 0x16BB JUMP JUMPDEST PUSH1 0x1 PUSH1 0x1 PUSH1 0xA0 SHL SUB AND SUB PUSH2 0x186B JUMPI DUP1 DUP5 DUP4 DUP2 MLOAD DUP2 LT PUSH2 0x1852 JUMPI PUSH2 0x1852 PUSH2 0x3A1D JUMP JUMPDEST PUSH1 0x20 SWAP1 DUP2 MUL SWAP2 SWAP1 SWAP2 ADD ADD MSTORE DUP2 PUSH2 0x1867 DUP2 PUSH2 0x3AAB JUMP JUMPDEST SWAP3 POP POP JUMPDEST DUP1 PUSH2 0x1875 DUP2 PUSH2 0x3AAB JUMP JUMPDEST SWAP2 POP POP PUSH2 0x17F0 JUMP JUMPDEST POP SWAP2 SWAP6 SWAP5 POP POP POP POP POP JUMP JUMPDEST POP SWAP2 SWAP1 POP JUMP JUMPDEST PUSH1 0x1 DUP1 SLOAD PUSH2 0x602 SWAP1 PUSH2 0x39E9 JUMP JUMPDEST CALLER PUSH1 0x0 DUP2 DUP2 MSTORE PUSH1 0x5 PUSH1 0x20 SWAP1 DUP2 MSTORE PUSH1 0x40 DUP1 DUP4 KECCAK256 PUSH1 0x1 PUSH1 0x1 PUSH1 0xA0 SHL SUB DUP8 AND DUP1 DUP6 MSTORE SWAP1 DUP4 MSTORE SWAP3 DUP2 SWAP1 KECCAK256 DUP1 SLOAD PUSH1 0xFF NOT AND DUP7 ISZERO ISZERO SWAP1 DUP2 OR SWAP1 SWAP2 SSTORE SWAP1 MLOAD SWAP1 DUP2 MSTORE SWAP2 SWAP3 SWAP2 PUSH32 0x17307EAB39AB6107E8899845AD3D59BD9653F200F220920489CA2B5937696C31 SWAP2 ADD PUSH1 0x40 MLOAD DUP1 SWAP2 SUB SWAP1 LOG3 POP POP JUMP JUMPDEST PUSH2 0x1912 DUP6 DUP6 DUP6 PUSH2 0xE4B JUMP JUMPDEST PUSH1 0x1 PUSH1 0x1 PUSH1 0xA0 SHL SUB DUP5 AND EXTCODESIZE ISZERO DUP1 PUSH2 0x19A9 JUMPI POP PUSH1 0x40 MLOAD PUSH4 0xA85BD01 PUSH1 0xE1 SHL DUP1 DUP3 MSTORE SWAP1 PUSH1 0x1 PUSH1 0x1 PUSH1 0xA0 SHL SUB DUP7 AND SWAP1 PUSH4 0x150B7A02 SWAP1 PUSH2 0x195A SWAP1 CALLER SWAP1 DUP11 SWAP1 DUP10 SWAP1 DUP10 SWAP1 DUP10 SWAP1 PUSH1 0x4 ADD PUSH2 0x3B1C JUMP JUMPDEST PUSH1 0x20 PUSH1 0x40 MLOAD DUP1 DUP4 SUB DUP2 PUSH1 0x0 DUP8 GAS CALL ISZERO DUP1 ISZERO PUSH2 0x1979 JUMPI RETURNDATASIZE PUSH1 0x0 DUP1 RETURNDATACOPY RETURNDATASIZE PUSH1 0x0 REVERT JUMPDEST POP POP POP POP PUSH1 0x40 MLOAD RETURNDATASIZE PUSH1 0x1F NOT PUSH1 0x1F DUP3 ADD AND DUP3 ADD DUP1 PUSH1 0x40 MSTORE POP DUP2 ADD SWAP1 PUSH2 0x199D SWAP2 SWAP1 PUSH2 0x3AE8 JUMP JUMPDEST PUSH1 0x1 PUSH1 0x1 PUSH1 0xE0 SHL SUB NOT AND EQ JUMPDEST PUSH2 0x19E8 JUMPI PUSH1 0x40 MLOAD PUSH3 0x461BCD PUSH1 0xE5 SHL DUP2 MSTORE PUSH1 0x20 PUSH1 0x4 DUP3 ADD MSTORE PUSH1 0x10 PUSH1 0x24 DUP3 ADD MSTORE PUSH16 0x155394D0519157D49150D25412515395 PUSH1 0x82 SHL PUSH1 0x44 DUP3 ADD MSTORE PUSH1 0x64 ADD PUSH2 0x705 JUMP JUMPDEST POP POP POP POP POP JUMP JUMPDEST PUSH1 0x0 DUP2 DUP2 MSTORE PUSH1 0x9 PUSH1 0x20 SWAP1 DUP2 MSTORE PUSH1 0x40 SWAP2 DUP3 SWAP1 KECCAK256 DUP3 MLOAD PUSH1 0x60 DUP2 DUP2 ADD DUP6 MSTORE SWAP2 SLOAD PUSH1 0x1 PUSH1 0x1 PUSH1 0xA0 SHL SUB DUP2 AND DUP1 DUP4 MSTORE PUSH1 0x1 PUSH1 0xA0 SHL DUP3 DIV PUSH1 0x2 SWAP1 DUP2 SIGNEXTEND SWAP6 DUP5 ADD SWAP6 SWAP1 SWAP6 MSTORE PUSH1 0x1 PUSH1 0xB8 SHL SWAP1 SWAP2 DIV SWAP1 SWAP4 SIGNEXTEND SWAP4 DUP2 ADD SWAP4 SWAP1 SWAP4 MSTORE SWAP2 SWAP1 PUSH2 0x1A5D JUMPI PUSH1 0x40 MLOAD PUSH4 0x5079FF75 PUSH1 0xE1 SHL DUP2 MSTORE PUSH1 0x4 ADD PUSH1 0x40 MLOAD DUP1 SWAP2 SUB SWAP1 REVERT JUMPDEST PUSH1 0x0 DUP2 PUSH1 0x0 ADD MLOAD SWAP1 POP PUSH1 0x0 DUP2 PUSH1 0x1 PUSH1 0x1 PUSH1 0xA0 SHL SUB AND PUSH4 0xDFE1681 PUSH1 0x40 MLOAD DUP2 PUSH4 0xFFFFFFFF AND PUSH1 0xE0 SHL DUP2 MSTORE PUSH1 0x4 ADD PUSH1 0x20 PUSH1 0x40 MLOAD DUP1 DUP4 SUB DUP2 DUP7 GAS STATICCALL ISZERO DUP1 ISZERO PUSH2 0x1AA6 JUMPI RETURNDATASIZE PUSH1 0x0 DUP1 RETURNDATACOPY RETURNDATASIZE PUSH1 0x0 REVERT JUMPDEST POP POP POP POP PUSH1 0x40 MLOAD RETURNDATASIZE PUSH1 0x1F NOT PUSH1 0x1F DUP3 ADD AND DUP3 ADD DUP1 PUSH1 0x40 MSTORE POP DUP2 ADD SWAP1 PUSH2 0x1ACA SWAP2 SWAP1 PUSH2 0x3B70 JUMP JUMPDEST SWAP1 POP PUSH1 0x0 DUP3 PUSH1 0x1 PUSH1 0x1 PUSH1 0xA0 SHL SUB AND PUSH4 0xD21220A7 PUSH1 0x40 MLOAD DUP2 PUSH4 0xFFFFFFFF AND PUSH1 0xE0 SHL DUP2 MSTORE PUSH1 0x4 ADD PUSH1 0x20 PUSH1 0x40 MLOAD DUP1 DUP4 SUB DUP2 DUP7 GAS STATICCALL ISZERO DUP1 ISZERO PUSH2 0x1B0C JUMPI RETURNDATASIZE PUSH1 0x0 DUP1 RETURNDATACOPY RETURNDATASIZE PUSH1 0x0 REVERT JUMPDEST POP POP POP POP PUSH1 0x40 MLOAD RETURNDATASIZE PUSH1 0x1F NOT PUSH1 0x1F DUP3 ADD AND DUP3 ADD DUP1 PUSH1 0x40 MSTORE POP DUP2 ADD SWAP1 PUSH2 0x1B30 SWAP2 SWAP1 PUSH2 0x3B70 JUMP JUMPDEST SWAP1 POP PUSH1 0x0 DUP3 PUSH1 0x1 PUSH1 0x1 PUSH1 0xA0 SHL SUB AND PUSH4 0x95D89B41 PUSH1 0x40 MLOAD DUP2 PUSH4 0xFFFFFFFF AND PUSH1 0xE0 SHL DUP2 MSTORE PUSH1 0x4 ADD PUSH1 0x0 PUSH1 0x40 MLOAD DUP1 DUP4 SUB DUP2 DUP7 GAS STATICCALL ISZERO DUP1 ISZERO PUSH2 0x1B72 JUMPI RETURNDATASIZE PUSH1 0x0 DUP1 RETURNDATACOPY RETURNDATASIZE PUSH1 0x0 REVERT JUMPDEST POP POP POP POP PUSH1 0x40 MLOAD RETURNDATASIZE PUSH1 0x0 DUP3 RETURNDATACOPY PUSH1 0x1F RETURNDATASIZE SWAP1 DUP2 ADD PUSH1 0x1F NOT AND DUP3 ADD PUSH1 0x40 MSTORE PUSH2 0x1B9A SWAP2 SWAP1 DUP2 ADD SWAP1 PUSH2 0x3B8D JUMP JUMPDEST SWAP1 POP PUSH1 0x0 DUP3 PUSH1 0x1 PUSH1 0x1 PUSH1 0xA0 SHL SUB AND PUSH4 0x95D89B41 PUSH1 0x40 MLOAD DUP2 PUSH4 0xFFFFFFFF AND PUSH1 0xE0 SHL DUP2 MSTORE PUSH1 0x4 ADD PUSH1 0x0 PUSH1 0x40 MLOAD DUP1 DUP4 SUB DUP2 DUP7 GAS STATICCALL ISZERO DUP1 ISZERO PUSH2 0x1BDC JUMPI RETURNDATASIZE PUSH1 0x0 DUP1 RETURNDATACOPY RETURNDATASIZE PUSH1 0x0 REVERT JUMPDEST POP POP POP POP PUSH1 0x40 MLOAD RETURNDATASIZE PUSH1 0x0 DUP3 RETURNDATACOPY PUSH1 0x1F RETURNDATASIZE SWAP1 DUP2 ADD PUSH1 0x1F NOT AND DUP3 ADD PUSH1 0x40 MSTORE PUSH2 0x1C04 SWAP2 SWAP1 DUP2 ADD SWAP1 PUSH2 0x3B8D JUMP JUMPDEST SWAP1 POP PUSH2 0x1CB7 PUSH1 0x40 MLOAD DUP1 PUSH1 0xC0 ADD PUSH1 0x40 MSTORE DUP1 DUP5 DUP2 MSTORE PUSH1 0x20 ADD DUP4 DUP2 MSTORE PUSH1 0x20 ADD ADDRESS PUSH1 0x1 PUSH1 0x1 PUSH1 0xA0 SHL SUB AND DUP2 MSTORE PUSH1 0x20 ADD DUP9 PUSH1 0x20 ADD MLOAD PUSH1 0x2 SIGNEXTEND DUP2 MSTORE PUSH1 0x20 ADD DUP9 PUSH1 0x40 ADD MLOAD PUSH1 0x2 SIGNEXTEND DUP2 MSTORE PUSH1 0x20 ADD DUP8 PUSH1 0x1 PUSH1 0x1 PUSH1 0xA0 SHL SUB AND PUSH4 0xDDCA3F43 PUSH1 0x40 MLOAD DUP2 PUSH4 0xFFFFFFFF AND PUSH1 0xE0 SHL DUP2 MSTORE PUSH1 0x4 ADD PUSH1 0x20 PUSH1 0x40 MLOAD DUP1 DUP4 SUB DUP2 DUP7 GAS STATICCALL ISZERO DUP1 ISZERO PUSH2 0x1C87 JUMPI RETURNDATASIZE PUSH1 0x0 DUP1 RETURNDATACOPY RETURNDATASIZE PUSH1 0x0 REVERT JUMPDEST POP POP POP POP PUSH1 0x40 MLOAD RETURNDATASIZE PUSH1 0x1F NOT PUSH1 0x1F DUP3 ADD AND DUP3 ADD DUP1 PUSH1 0x40 MSTORE POP DUP2 ADD SWAP1 PUSH2 0x1CAB SWAP2 SWAP1 PUSH2 0x3C39 JUMP JUMPDEST PUSH3 0xFFFFFF AND SWAP1 MSTORE PUSH2 0x26DF JUMP JUMPDEST SWAP9 SWAP8 POP POP POP POP POP POP POP POP JUMP JUMPDEST PUSH1 0x0 DUP1 DUP3 PUSH1 0x0 PUSH2 0x1CD2 DUP3 PUSH2 0x16BB JUMP JUMPDEST SWAP1 POP CALLER PUSH1 0x1 PUSH1 0x1 PUSH1 0xA0 SHL SUB DUP3 AND EQ DUP1 ISZERO SWAP1 PUSH2 0x1D11 JUMPI POP PUSH1 0x1 PUSH1 0x1 PUSH1 0xA0 SHL SUB DUP2 AND PUSH1 0x0 SWAP1 DUP2 MSTORE PUSH1 0x5 PUSH1 0x20 SWAP1 DUP2 MSTORE PUSH1 0x40 DUP1 DUP4 KECCAK256 CALLER DUP5 MSTORE SWAP1 SWAP2 MSTORE SWAP1 KECCAK256 SLOAD PUSH1 0xFF AND ISZERO JUMPDEST DUP1 ISZERO PUSH2 0x1D34 JUMPI POP PUSH1 0x0 DUP3 DUP2 MSTORE PUSH1 0x4 PUSH1 0x20 MSTORE PUSH1 0x40 SWAP1 KECCAK256 SLOAD PUSH1 0x1 PUSH1 0x1 PUSH1 0xA0 SHL SUB AND CALLER EQ ISZERO JUMPDEST ISZERO PUSH2 0x1D52 JUMPI PUSH1 0x40 MLOAD PUSH4 0xEA8E4EB5 PUSH1 0xE0 SHL DUP2 MSTORE PUSH1 0x4 ADD PUSH1 0x40 MLOAD DUP1 SWAP2 SUB SWAP1 REVERT JUMPDEST PUSH1 0x0 DUP6 DUP2 MSTORE PUSH1 0x9 PUSH1 0x20 SWAP1 DUP2 MSTORE PUSH1 0x40 SWAP2 DUP3 SWAP1 KECCAK256 DUP3 MLOAD PUSH1 0x60 DUP2 ADD DUP5 MSTORE SWAP1 SLOAD PUSH1 0x1 PUSH1 0x1 PUSH1 0xA0 SHL SUB DUP2 AND DUP1 DUP4 MSTORE PUSH1 0x1 PUSH1 0xA0 SHL DUP3 DIV PUSH1 0x2 SWAP1 DUP2 SIGNEXTEND SWAP5 DUP5 ADD SWAP5 SWAP1 SWAP5 MSTORE PUSH1 0x1 PUSH1 0xB8 SHL SWAP1 SWAP2 DIV SWAP1 SWAP3 SIGNEXTEND SWAP3 DUP2 ADD SWAP3 SWAP1 SWAP3 MSTORE PUSH2 0x1DBD JUMPI PUSH1 0x40 MLOAD PUSH4 0x5079FF75 PUSH1 0xE1 SHL DUP2 MSTORE PUSH1 0x4 ADD PUSH1 0x40 MLOAD DUP1 SWAP2 SUB SWAP1 REVERT JUMPDEST DUP1 MLOAD PUSH1 0x0 DUP1 PUSH1 0x1 PUSH1 0x1 PUSH1 0xA0 SHL SUB DUP4 AND PUSH4 0x514EA4BF PUSH2 0x1DDA DUP7 PUSH2 0x2328 JUMP JUMPDEST PUSH1 0x40 MLOAD DUP3 PUSH4 0xFFFFFFFF AND PUSH1 0xE0 SHL DUP2 MSTORE PUSH1 0x4 ADD PUSH2 0x1DF8 SWAP2 DUP2 MSTORE PUSH1 0x20 ADD SWAP1 JUMP JUMPDEST PUSH1 0xA0 PUSH1 0x40 MLOAD DUP1 DUP4 SUB DUP2 DUP7 GAS STATICCALL ISZERO DUP1 ISZERO PUSH2 0x1E15 JUMPI RETURNDATASIZE PUSH1 0x0 DUP1 RETURNDATACOPY RETURNDATASIZE PUSH1 0x0 REVERT JUMPDEST POP POP POP POP PUSH1 0x40 MLOAD RETURNDATASIZE PUSH1 0x1F NOT PUSH1 0x1F DUP3 ADD AND DUP3 ADD DUP1 PUSH1 0x40 MSTORE POP DUP2 ADD SWAP1 PUSH2 0x1E39 SWAP2 SWAP1 PUSH2 0x3A33 JUMP JUMPDEST PUSH1 0x20 DUP10 ADD MLOAD PUSH1 0x40 DUP1 DUP12 ADD MLOAD SWAP1 MLOAD PUSH4 0x9E3D67B PUSH1 0xE3 SHL DUP2 MSTORE CALLER PUSH1 0x4 DUP3 ADD MSTORE PUSH1 0x2 SWAP3 DUP4 SIGNEXTEND PUSH1 0x24 DUP3 ADD MSTORE SWAP2 SIGNEXTEND PUSH1 0x44 DUP3 ADD MSTORE PUSH1 0x1 PUSH1 0x1 PUSH1 0x80 SHL SUB DUP1 DUP5 AND PUSH1 0x64 DUP4 ADD MSTORE DUP3 AND PUSH1 0x84 DUP3 ADD MSTORE SWAP2 SWAP7 POP SWAP5 POP PUSH1 0x1 PUSH1 0x1 PUSH1 0xA0 SHL SUB DUP8 AND SWAP4 POP PUSH4 0x4F1EB3D8 SWAP3 POP PUSH1 0xA4 ADD SWAP1 POP PUSH1 0x40 DUP1 MLOAD DUP1 DUP4 SUB DUP2 PUSH1 0x0 DUP8 GAS CALL ISZERO DUP1 ISZERO PUSH2 0x1EB9 JUMPI RETURNDATASIZE PUSH1 0x0 DUP1 RETURNDATACOPY RETURNDATASIZE PUSH1 0x0 REVERT JUMPDEST POP POP POP POP PUSH1 0x40 MLOAD RETURNDATASIZE PUSH1 0x1F NOT PUSH1 0x1F DUP3 ADD AND DUP3 ADD DUP1 PUSH1 0x40 MSTORE POP DUP2 ADD SWAP1 PUSH2 0x1EDD SWAP2 SWAP1 PUSH2 0x3C56 JUMP JUMPDEST SWAP1 SWAP11 SWAP1 SWAP10 POP SWAP8 POP POP POP POP POP POP POP POP JUMP JUMPDEST PUSH1 0x0 PUSH2 0x1EFB DUP3 DUP5 ADD DUP5 PUSH2 0x3C85 JUMP JUMPDEST DUP1 MLOAD PUSH1 0x40 DUP1 DUP4 ADD MLOAD SWAP1 MLOAD PUSH4 0x23B872DD PUSH1 0xE0 SHL DUP2 MSTORE PUSH1 0x1 PUSH1 0x1 PUSH1 0xA0 SHL SUB SWAP2 DUP3 AND PUSH1 0x4 DUP3 ADD MSTORE CALLER PUSH1 0x24 DUP3 ADD MSTORE PUSH1 0x44 DUP2 ADD DUP10 SWAP1 MSTORE SWAP3 SWAP4 POP AND SWAP1 PUSH4 0x23B872DD SWAP1 PUSH1 0x64 ADD PUSH1 0x0 PUSH1 0x40 MLOAD DUP1 DUP4 SUB DUP2 PUSH1 0x0 DUP8 DUP1 EXTCODESIZE ISZERO DUP1 ISZERO PUSH2 0x1F54 JUMPI PUSH1 0x0 DUP1 REVERT JUMPDEST POP GAS CALL ISZERO DUP1 ISZERO PUSH2 0x1F68 JUMPI RETURNDATASIZE PUSH1 0x0 DUP1 RETURNDATACOPY RETURNDATASIZE PUSH1 0x0 REVERT JUMPDEST POP POP POP PUSH1 0x20 DUP3 ADD MLOAD PUSH1 0x40 DUP1 DUP5 ADD MLOAD SWAP1 MLOAD PUSH4 0x23B872DD PUSH1 0xE0 SHL DUP2 MSTORE PUSH1 0x1 PUSH1 0x1 PUSH1 0xA0 SHL SUB SWAP2 DUP3 AND PUSH1 0x4 DUP3 ADD MSTORE CALLER PUSH1 0x24 DUP3 ADD MSTORE PUSH1 0x44 DUP2 ADD DUP9 SWAP1 MSTORE SWAP2 AND SWAP2 POP PUSH4 0x23B872DD SWAP1 PUSH1 0x64 ADD PUSH1 0x0 PUSH1 0x40 MLOAD DUP1 DUP4 SUB DUP2 PUSH1 0x0 DUP8 DUP1 EXTCODESIZE ISZERO DUP1 ISZERO PUSH2 0x1FC6 JUMPI PUSH1 0x0 DUP1 REVERT JUMPDEST POP GAS CALL ISZERO DUP1 ISZERO PUSH2 0x1FDA JUMPI RETURNDATASIZE PUSH1 0x0 DUP1 RETURNDATACOPY RETURNDATASIZE PUSH1 0x0 REVERT JUMPDEST POP POP POP POP POP POP POP POP POP JUMP JUMPDEST PUSH1 0x8 SLOAD PUSH1 0x40 MLOAD PUSH4 0x175C1B23 PUSH1 0xE3 SHL DUP2 MSTORE PUSH1 0x1 PUSH1 0x1 PUSH1 0xA0 SHL SUB DUP12 DUP2 AND PUSH1 0x4 DUP4 ADD MSTORE DUP11 DUP2 AND PUSH1 0x24 DUP4 ADD MSTORE PUSH3 0xFFFFFF DUP11 AND PUSH1 0x44 DUP4 ADD MSTORE PUSH1 0x0 SWAP3 DUP4 SWAP3 SWAP2 AND SWAP1 PUSH4 0xBAE0D918 SWAP1 PUSH1 0x64 ADD PUSH1 0x20 PUSH1 0x40 MLOAD DUP1 DUP4 SUB DUP2 DUP7 GAS STATICCALL ISZERO DUP1 ISZERO PUSH2 0x2046 JUMPI RETURNDATASIZE PUSH1 0x0 DUP1 RETURNDATACOPY RETURNDATASIZE PUSH1 0x0 REVERT JUMPDEST POP POP POP POP PUSH1 0x40 MLOAD RETURNDATASIZE PUSH1 0x1F NOT PUSH1 0x1F DUP3 ADD AND DUP3 ADD DUP1 PUSH1 0x40 MSTORE POP DUP2 ADD SWAP1 PUSH2 0x206A SWAP2 SWAP1 PUSH2 0x3B70 JUMP JUMPDEST SWAP1 POP PUSH1 0x0 DUP1 PUSH1 0x0 PUSH2 0x20BB PUSH1 0x40 MLOAD DUP1 PUSH1 0xE0 ADD PUSH1 0x40 MSTORE DUP1 DUP7 PUSH1 0x1 PUSH1 0x1 PUSH1 0xA0 SHL SUB AND DUP2 MSTORE PUSH1 0x20 ADD DUP14 PUSH1 0x2 SIGNEXTEND DUP2 MSTORE PUSH1 0x20 ADD DUP13 PUSH1 0x2 SIGNEXTEND DUP2 MSTORE PUSH1 0x20 ADD DUP12 DUP2 MSTORE PUSH1 0x20 ADD DUP11 DUP2 MSTORE PUSH1 0x20 ADD DUP10 DUP2 MSTORE PUSH1 0x20 ADD DUP9 DUP2 MSTORE POP PUSH2 0x2445 JUMP JUMPDEST PUSH1 0x7 DUP1 SLOAD SWAP4 SWAP7 POP SWAP2 SWAP5 POP SWAP3 POP PUSH1 0x0 PUSH2 0x20D2 DUP4 PUSH2 0x3AAB JUMP JUMPDEST SWAP2 SWAP1 POP SSTORE SWAP5 POP PUSH2 0x20E2 DUP16 DUP7 PUSH2 0x27CB JUMP JUMPDEST PUSH1 0x6 DUP1 SLOAD SWAP1 PUSH1 0x0 PUSH2 0x20F2 DUP4 PUSH2 0x3AAB JUMP JUMPDEST SWAP1 SWAP2 SSTORE POP POP PUSH1 0x40 DUP1 MLOAD PUSH1 0x60 DUP2 ADD DUP3 MSTORE PUSH1 0x1 PUSH1 0x1 PUSH1 0xA0 SHL SUB DUP1 DUP8 AND DUP3 MSTORE PUSH1 0x2 DUP15 DUP2 SIGNEXTEND PUSH1 0x20 DUP1 DUP6 ADD SWAP2 DUP3 MSTORE SWAP2 DUP16 SWAP1 SIGNEXTEND DUP5 DUP7 ADD SWAP1 DUP2 MSTORE PUSH1 0x0 DUP12 DUP2 MSTORE PUSH1 0x9 DUP5 MSTORE DUP7 DUP2 KECCAK256 DUP7 MLOAD DUP2 SLOAD SWAP5 MLOAD SWAP4 MLOAD PUSH3 0xFFFFFF SWAP1 DUP2 AND PUSH1 0x1 PUSH1 0xB8 SHL MUL PUSH3 0xFFFFFF PUSH1 0xB8 SHL NOT SWAP2 SWAP1 SWAP6 AND PUSH1 0x1 PUSH1 0xA0 SHL MUL PUSH1 0x1 PUSH1 0x1 PUSH1 0xB8 SHL SUB NOT SWAP1 SWAP7 AND SWAP2 SWAP1 SWAP8 AND OR SWAP4 SWAP1 SWAP4 OR SWAP5 SWAP1 SWAP5 AND OR SWAP1 SSTORE CALLER DUP3 MSTORE PUSH1 0xA DUP2 MSTORE DUP4 DUP3 KECCAK256 DUP1 SLOAD PUSH1 0x1 DUP2 ADD DUP3 SSTORE SWAP1 DUP4 MSTORE SWAP2 KECCAK256 ADD DUP8 SWAP1 SSTORE SWAP1 MLOAD DUP7 SWAP1 PUSH32 0x22FB3C4728E7CC5DD64003F4267D8FB1EB2580F5598050868300738A823D7047 SWAP1 PUSH2 0x21E0 SWAP1 DUP8 SWAP1 DUP8 SWAP1 DUP8 SWAP1 PUSH1 0x1 PUSH1 0x1 PUSH1 0x80 SHL SUB SWAP4 SWAP1 SWAP4 AND DUP4 MSTORE PUSH1 0x20 DUP4 ADD SWAP2 SWAP1 SWAP2 MSTORE PUSH1 0x40 DUP3 ADD MSTORE PUSH1 0x60 ADD SWAP1 JUMP JUMPDEST PUSH1 0x40 MLOAD DUP1 SWAP2 SUB SWAP1 LOG2 POP POP POP POP POP SWAP11 SWAP10 POP POP POP POP POP POP POP POP POP POP JUMP JUMPDEST PUSH1 0xA PUSH1 0x20 MSTORE DUP2 PUSH1 0x0 MSTORE PUSH1 0x40 PUSH1 0x0 KECCAK256 DUP2 DUP2 SLOAD DUP2 LT PUSH2 0x2217 JUMPI PUSH1 0x0 DUP1 REVERT JUMPDEST SWAP1 PUSH1 0x0 MSTORE PUSH1 0x20 PUSH1 0x0 KECCAK256 ADD PUSH1 0x0 SWAP2 POP SWAP2 POP POP SLOAD DUP2 JUMP JUMPDEST PUSH1 0x0 DUP2 DUP2 MSTORE PUSH1 0x9 PUSH1 0x20 SWAP1 DUP2 MSTORE PUSH1 0x40 DUP1 DUP4 KECCAK256 DUP2 MLOAD PUSH1 0x60 DUP2 ADD DUP4 MSTORE SWAP1 SLOAD PUSH1 0x1 PUSH1 0x1 PUSH1 0xA0 SHL SUB DUP2 AND DUP1 DUP4 MSTORE PUSH1 0x1 PUSH1 0xA0 SHL DUP3 DIV PUSH1 0x2 SWAP1 DUP2 SIGNEXTEND SWAP6 DUP5 ADD SWAP6 SWAP1 SWAP6 MSTORE PUSH1 0x1 PUSH1 0xB8 SHL SWAP1 SWAP2 DIV SWAP1 SWAP4 SIGNEXTEND SWAP2 DUP2 ADD SWAP2 SWAP1 SWAP2 MSTORE DUP3 SWAP2 PUSH2 0x2298 JUMPI PUSH1 0x40 MLOAD PUSH4 0x5079FF75 PUSH1 0xE1 SHL DUP2 MSTORE PUSH1 0x4 ADD PUSH1 0x40 MLOAD DUP1 SWAP2 SUB SWAP1 REVERT JUMPDEST DUP1 MLOAD PUSH1 0x20 DUP3 ADD MLOAD PUSH1 0x40 DUP1 DUP5 ADD MLOAD SWAP1 MLOAD PUSH4 0x6A234AE9 PUSH1 0xE0 SHL DUP2 MSTORE PUSH1 0x2 SWAP3 DUP4 SIGNEXTEND PUSH1 0x4 DUP3 ADD MSTORE SWAP2 SIGNEXTEND PUSH1 0x24 DUP3 ADD MSTORE ADDRESS PUSH1 0x44 DUP3 ADD MSTORE PUSH1 0x1 PUSH1 0x1 PUSH1 0xA0 SHL SUB DUP3 AND SWAP1 PUSH4 0x6A234AE9 SWAP1 PUSH1 0x64 ADD PUSH1 0x40 DUP1 MLOAD DUP1 DUP4 SUB DUP2 DUP7 GAS STATICCALL ISZERO DUP1 ISZERO PUSH2 0x22F8 JUMPI RETURNDATASIZE PUSH1 0x0 DUP1 RETURNDATACOPY RETURNDATASIZE PUSH1 0x0 REVERT JUMPDEST POP POP POP POP PUSH1 0x40 MLOAD RETURNDATASIZE PUSH1 0x1F NOT PUSH1 0x1F DUP3 ADD AND DUP3 ADD DUP1 PUSH1 0x40 MSTORE POP DUP2 ADD SWAP1 PUSH2 0x231C SWAP2 SWAP1 PUSH2 0x3AC4 JUMP JUMPDEST SWAP1 SWAP7 SWAP1 SWAP6 POP SWAP4 POP POP POP POP JUMP JUMPDEST PUSH1 0x20 DUP2 DUP2 ADD MLOAD PUSH1 0x40 SWAP3 DUP4 ADD MLOAD DUP4 MLOAD ADDRESS PUSH1 0x60 SHL PUSH12 0xFFFFFFFFFFFFFFFFFFFFFFFF NOT AND DUP2 DUP6 ADD MSTORE PUSH1 0xE8 SWAP3 DUP4 SHL PUSH1 0x34 DUP3 ADD MSTORE SWAP2 SHL PUSH1 0x37 DUP3 ADD MSTORE DUP3 MLOAD PUSH1 0x1A DUP2 DUP4 SUB ADD DUP2 MSTORE PUSH1 0x3A SWAP1 SWAP2 ADD SWAP1 SWAP3 MSTORE DUP2 MLOAD SWAP2 ADD KECCAK256 SWAP1 JUMP JUMPDEST PUSH1 0x0 DUP2 DUP2 MSTORE PUSH1 0x2 PUSH1 0x20 MSTORE PUSH1 0x40 SWAP1 KECCAK256 SLOAD PUSH1 0x1 PUSH1 0x1 PUSH1 0xA0 SHL SUB AND DUP1 PUSH2 0x23CA JUMPI PUSH1 0x40 MLOAD PUSH3 0x461BCD PUSH1 0xE5 SHL DUP2 MSTORE PUSH1 0x20 PUSH1 0x4 DUP3 ADD MSTORE PUSH1 0xA PUSH1 0x24 DUP3 ADD MSTORE PUSH10 0x1393D517D35253951151 PUSH1 0xB2 SHL PUSH1 0x44 DUP3 ADD MSTORE PUSH1 0x64 ADD PUSH2 0x705 JUMP JUMPDEST PUSH1 0x1 PUSH1 0x1 PUSH1 0xA0 SHL SUB DUP2 AND PUSH1 0x0 DUP2 DUP2 MSTORE PUSH1 0x3 PUSH1 0x20 SWAP1 DUP2 MSTORE PUSH1 0x40 DUP1 DUP4 KECCAK256 DUP1 SLOAD PUSH1 0x0 NOT ADD SWAP1 SSTORE DUP6 DUP4 MSTORE PUSH1 0x2 DUP3 MSTORE DUP1 DUP4 KECCAK256 DUP1 SLOAD PUSH1 0x1 PUSH1 0x1 PUSH1 0xA0 SHL SUB NOT SWAP1 DUP2 AND SWAP1 SWAP2 SSTORE PUSH1 0x4 SWAP1 SWAP3 MSTORE DUP1 DUP4 KECCAK256 DUP1 SLOAD SWAP1 SWAP3 AND SWAP1 SWAP2 SSTORE MLOAD DUP5 SWAP3 SWAP1 PUSH32 0xDDF252AD1BE2C89B69C2B068FC378DAA952BA7F163C4A11628F55A4DF523B3EF SWAP1 DUP4 SWAP1 LOG4 POP POP JUMP JUMPDEST PUSH1 0x0 DUP1 PUSH1 0x0 DUP1 DUP5 PUSH1 0x0 ADD MLOAD PUSH1 0x1 PUSH1 0x1 PUSH1 0xA0 SHL SUB AND PUSH4 0x3850C7BD PUSH1 0x40 MLOAD DUP2 PUSH4 0xFFFFFFFF AND PUSH1 0xE0 SHL DUP2 MSTORE PUSH1 0x4 ADD PUSH1 0xA0 PUSH1 0x40 MLOAD DUP1 DUP4 SUB DUP2 DUP7 GAS STATICCALL ISZERO DUP1 ISZERO PUSH2 0x248D JUMPI RETURNDATASIZE PUSH1 0x0 DUP1 RETURNDATACOPY RETURNDATASIZE PUSH1 0x0 REVERT JUMPDEST POP POP POP POP PUSH1 0x40 MLOAD RETURNDATASIZE PUSH1 0x1F NOT PUSH1 0x1F DUP3 ADD AND DUP3 ADD DUP1 PUSH1 0x40 MSTORE POP DUP2 ADD SWAP1 PUSH2 0x24B1 SWAP2 SWAP1 PUSH2 0x3D08 JUMP JUMPDEST POP POP POP POP SWAP1 POP PUSH2 0x24E4 DUP2 PUSH2 0x24C8 DUP8 PUSH1 0x20 ADD MLOAD PUSH2 0x28D6 JUMP JUMPDEST PUSH2 0x24D5 DUP9 PUSH1 0x40 ADD MLOAD PUSH2 0x28D6 JUMP JUMPDEST DUP9 PUSH1 0x60 ADD MLOAD DUP10 PUSH1 0x80 ADD MLOAD PUSH2 0x2CF8 JUMP JUMPDEST SWAP4 POP DUP5 PUSH1 0x0 ADD MLOAD PUSH1 0x1 PUSH1 0x1 PUSH1 0xA0 SHL SUB AND PUSH4 0x3C8A7D8D ADDRESS DUP8 PUSH1 0x20 ADD MLOAD DUP9 PUSH1 0x40 ADD MLOAD DUP9 PUSH1 0x40 MLOAD DUP1 PUSH1 0x60 ADD PUSH1 0x40 MSTORE DUP1 DUP13 PUSH1 0x0 ADD MLOAD PUSH1 0x1 PUSH1 0x1 PUSH1 0xA0 SHL SUB AND PUSH4 0xDFE1681 PUSH1 0x40 MLOAD DUP2 PUSH4 0xFFFFFFFF AND PUSH1 0xE0 SHL DUP2 MSTORE PUSH1 0x4 ADD PUSH1 0x20 PUSH1 0x40 MLOAD DUP1 DUP4 SUB DUP2 DUP7 GAS STATICCALL ISZERO DUP1 ISZERO PUSH2 0x2552 JUMPI RETURNDATASIZE PUSH1 0x0 DUP1 RETURNDATACOPY RETURNDATASIZE PUSH1 0x0 REVERT JUMPDEST POP POP POP POP PUSH1 0x40 MLOAD RETURNDATASIZE PUSH1 0x1F NOT PUSH1 0x1F DUP3 ADD AND DUP3 ADD DUP1 PUSH1 0x40 MSTORE POP DUP2 ADD SWAP1 PUSH2 0x2576 SWAP2 SWAP1 PUSH2 0x3B70 JUMP JUMPDEST PUSH1 0x1 PUSH1 0x1 PUSH1 0xA0 SHL SUB AND DUP2 MSTORE PUSH1 0x20 ADD DUP13 PUSH1 0x0 ADD MLOAD PUSH1 0x1 PUSH1 0x1 PUSH1 0xA0 SHL SUB AND PUSH4 0xD21220A7 PUSH1 0x40 MLOAD DUP2 PUSH4 0xFFFFFFFF AND PUSH1 0xE0 SHL DUP2 MSTORE PUSH1 0x4 ADD PUSH1 0x20 PUSH1 0x40 MLOAD DUP1 DUP4 SUB DUP2 DUP7 GAS STATICCALL ISZERO DUP1 ISZERO PUSH2 0x25C6 JUMPI RETURNDATASIZE PUSH1 0x0 DUP1 RETURNDATACOPY RETURNDATASIZE PUSH1 0x0 REVERT JUMPDEST POP POP POP POP PUSH1 0x40 MLOAD RETURNDATASIZE PUSH1 0x1F NOT PUSH1 0x1F DUP3 ADD AND DUP3 ADD DUP1 PUSH1 0x40 MSTORE POP DUP2 ADD SWAP1 PUSH2 0x25EA SWAP2 SWAP1 PUSH2 0x3B70 JUMP JUMPDEST PUSH1 0x1 PUSH1 0x1 PUSH1 0xA0 SHL SUB SWAP1 DUP2 AND DUP3 MSTORE CALLER PUSH1 0x20 SWAP3 DUP4 ADD MSTORE PUSH1 0x40 DUP1 MLOAD DUP5 MLOAD DUP4 AND DUP2 DUP6 ADD MSTORE SWAP3 DUP5 ADD MLOAD DUP3 AND DUP4 DUP3 ADD MSTORE SWAP3 SWAP1 SWAP3 ADD MLOAD SWAP1 SWAP2 AND PUSH1 0x60 DUP3 ADD MSTORE PUSH1 0x80 ADD PUSH1 0x40 MLOAD PUSH1 0x20 DUP2 DUP4 SUB SUB DUP2 MSTORE SWAP1 PUSH1 0x40 MSTORE PUSH1 0x40 MLOAD DUP7 PUSH4 0xFFFFFFFF AND PUSH1 0xE0 SHL DUP2 MSTORE PUSH1 0x4 ADD PUSH2 0x2653 SWAP6 SWAP5 SWAP4 SWAP3 SWAP2 SWAP1 PUSH2 0x3D72 JUMP JUMPDEST PUSH1 0x40 DUP1 MLOAD DUP1 DUP4 SUB DUP2 PUSH1 0x0 DUP8 GAS CALL ISZERO DUP1 ISZERO PUSH2 0x2671 JUMPI RETURNDATASIZE PUSH1 0x0 DUP1 RETURNDATACOPY RETURNDATASIZE PUSH1 0x0 REVERT JUMPDEST POP POP POP POP PUSH1 0x40 MLOAD RETURNDATASIZE PUSH1 0x1F NOT PUSH1 0x1F DUP3 ADD AND DUP3 ADD DUP1 PUSH1 0x40 MSTORE POP DUP2 ADD SWAP1 PUSH2 0x2695 SWAP2 SWAP1 PUSH2 0x3AC4 JUMP JUMPDEST PUSH1 0xA0 DUP8 ADD MLOAD SWAP2 SWAP5 POP SWAP3 POP DUP4 LT DUP1 PUSH2 0x26AF JUMPI POP DUP5 PUSH1 0xC0 ADD MLOAD DUP3 LT JUMPDEST ISZERO PUSH2 0x26D7 JUMPI PUSH1 0x40 MLOAD PUSH4 0xA8F6C8D PUSH1 0xE4 SHL DUP2 MSTORE PUSH1 0x4 DUP2 ADD DUP5 SWAP1 MSTORE PUSH1 0x24 DUP2 ADD DUP4 SWAP1 MSTORE PUSH1 0x44 ADD PUSH2 0x705 JUMP JUMPDEST POP SWAP2 SWAP4 SWAP1 SWAP3 POP JUMP JUMPDEST PUSH1 0x60 PUSH1 0x0 PUSH2 0x26FA DUP4 PUSH1 0x40 ADD MLOAD DUP5 PUSH1 0x60 ADD MLOAD DUP6 PUSH1 0x80 ADD MLOAD PUSH2 0x2DBB JUMP JUMPDEST PUSH2 0x2711 DUP5 PUSH1 0x0 ADD MLOAD DUP6 PUSH1 0x20 ADD MLOAD DUP7 PUSH1 0xA0 ADD MLOAD PUSH2 0x2E57 JUMP JUMPDEST PUSH2 0x2723 DUP6 PUSH1 0x60 ADD MLOAD DUP7 PUSH1 0x80 ADD MLOAD PUSH2 0x2E93 JUMP JUMPDEST PUSH1 0x40 MLOAD PUSH1 0x20 ADD PUSH2 0x2735 SWAP4 SWAP3 SWAP2 SWAP1 PUSH2 0x3DD0 JUMP JUMPDEST PUSH1 0x40 MLOAD PUSH1 0x20 DUP2 DUP4 SUB SUB DUP2 MSTORE SWAP1 PUSH1 0x40 MSTORE SWAP1 POP PUSH1 0x0 PUSH2 0x2769 DUP5 PUSH1 0x0 ADD MLOAD DUP6 PUSH1 0x20 ADD MLOAD DUP7 PUSH1 0xA0 ADD MLOAD DUP8 PUSH1 0x60 ADD MLOAD DUP9 PUSH1 0x80 ADD MLOAD PUSH2 0x2ECF JUMP JUMPDEST SWAP1 POP PUSH1 0x0 DUP2 PUSH2 0x2777 DUP5 PUSH2 0x2F21 JUMP JUMPDEST PUSH1 0x40 MLOAD PUSH1 0x20 ADD PUSH2 0x2788 SWAP3 SWAP2 SWAP1 PUSH2 0x3F25 JUMP JUMPDEST PUSH1 0x40 MLOAD PUSH1 0x20 DUP2 DUP4 SUB SUB DUP2 MSTORE SWAP1 PUSH1 0x40 MSTORE SWAP1 POP PUSH2 0x27A2 DUP2 PUSH2 0x2F21 JUMP JUMPDEST PUSH1 0x40 MLOAD PUSH1 0x20 ADD PUSH2 0x27B2 SWAP2 SWAP1 PUSH2 0x3FE5 JUMP JUMPDEST PUSH1 0x40 MLOAD PUSH1 0x20 DUP2 DUP4 SUB SUB DUP2 MSTORE SWAP1 PUSH1 0x40 MSTORE SWAP4 POP POP POP POP SWAP2 SWAP1 POP JUMP JUMPDEST PUSH1 0x1 PUSH1 0x1 PUSH1 0xA0 SHL SUB DUP3 AND PUSH2 0x2815 JUMPI PUSH1 0x40 MLOAD PUSH3 0x461BCD PUSH1 0xE5 SHL DUP2 MSTORE PUSH1 0x20 PUSH1 0x4 DUP3 ADD MSTORE PUSH1 0x11 PUSH1 0x24 DUP3 ADD MSTORE PUSH17 0x1253959053125117D49150D25412515395 PUSH1 0x7A SHL PUSH1 0x44 DUP3 ADD MSTORE PUSH1 0x64 ADD PUSH2 0x705 JUMP JUMPDEST PUSH1 0x0 DUP2 DUP2 MSTORE PUSH1 0x2 PUSH1 0x20 MSTORE PUSH1 0x40 SWAP1 KECCAK256 SLOAD PUSH1 0x1 PUSH1 0x1 PUSH1 0xA0 SHL SUB AND ISZERO PUSH2 0x286B JUMPI PUSH1 0x40 MLOAD PUSH3 0x461BCD PUSH1 0xE5 SHL DUP2 MSTORE PUSH1 0x20 PUSH1 0x4 DUP3 ADD MSTORE PUSH1 0xE PUSH1 0x24 DUP3 ADD MSTORE PUSH14 0x1053149150511657D35253951151 PUSH1 0x92 SHL PUSH1 0x44 DUP3 ADD MSTORE PUSH1 0x64 ADD PUSH2 0x705 JUMP JUMPDEST PUSH1 0x1 PUSH1 0x1 PUSH1 0xA0 SHL SUB DUP3 AND PUSH1 0x0 DUP2 DUP2 MSTORE PUSH1 0x3 PUSH1 0x20 SWAP1 DUP2 MSTORE PUSH1 0x40 DUP1 DUP4 KECCAK256 DUP1 SLOAD PUSH1 0x1 ADD SWAP1 SSTORE DUP5 DUP4 MSTORE PUSH1 0x2 SWAP1 SWAP2 MSTORE DUP1 DUP3 KECCAK256 DUP1 SLOAD PUSH1 0x1 PUSH1 0x1 PUSH1 0xA0 SHL SUB NOT AND DUP5 OR SWAP1 SSTORE MLOAD DUP4 SWAP3 SWAP2 SWAP1 PUSH32 0xDDF252AD1BE2C89B69C2B068FC378DAA952BA7F163C4A11628F55A4DF523B3EF SWAP1 DUP3 SWAP1 LOG4 POP POP JUMP JUMPDEST PUSH1 0x0 DUP1 PUSH1 0x0 DUP4 PUSH1 0x2 SIGNEXTEND SLT PUSH2 0x28ED JUMPI DUP3 PUSH1 0x2 SIGNEXTEND PUSH2 0x28FA JUMP JUMPDEST DUP3 PUSH1 0x2 SIGNEXTEND PUSH2 0x28FA SWAP1 PUSH2 0x402A JUMP JUMPDEST SWAP1 POP PUSH2 0x2909 PUSH3 0xD89E7 NOT PUSH2 0x4046 JUMP JUMPDEST PUSH3 0xFFFFFF AND DUP2 GT ISZERO PUSH2 0x2941 JUMPI PUSH1 0x40 MLOAD PUSH3 0x461BCD PUSH1 0xE5 SHL DUP2 MSTORE PUSH1 0x20 PUSH1 0x4 DUP3 ADD MSTORE PUSH1 0x1 PUSH1 0x24 DUP3 ADD MSTORE PUSH1 0x15 PUSH1 0xFA SHL PUSH1 0x44 DUP3 ADD MSTORE PUSH1 0x64 ADD PUSH2 0x705 JUMP JUMPDEST PUSH1 0x0 DUP2 PUSH1 0x1 AND PUSH1 0x0 SUB PUSH2 0x2958 JUMPI PUSH1 0x1 PUSH1 0x80 SHL PUSH2 0x296A JUMP JUMPDEST PUSH16 0xFFFCB933BD6FAD37AA2D162D1A594001 JUMPDEST PUSH17 0xFFFFFFFFFFFFFFFFFFFFFFFFFFFFFFFFFF AND SWAP1 POP PUSH1 0x2 DUP3 AND ISZERO PUSH2 0x29A9 JUMPI PUSH1 0x80 PUSH2 0x29A4 DUP3 PUSH16 0xFFF97272373D413259A46990580E213A PUSH2 0x4068 JUMP JUMPDEST SWAP1 SHR SWAP1 POP JUMPDEST PUSH1 0x4 DUP3 AND ISZERO PUSH2 0x29D3 JUMPI PUSH1 0x80 PUSH2 0x29CE DUP3 PUSH16 0xFFF2E50F5F656932EF12357CF3C7FDCC PUSH2 0x4068 JUMP JUMPDEST SWAP1 SHR SWAP1 POP JUMPDEST PUSH1 0x8 DUP3 AND ISZERO PUSH2 0x29FD JUMPI PUSH1 0x80 PUSH2 0x29F8 DUP3 PUSH16 0xFFE5CACA7E10E4E61C3624EAA0941CD0 PUSH2 0x4068 JUMP JUMPDEST SWAP1 SHR SWAP1 POP JUMPDEST PUSH1 0x10 DUP3 AND ISZERO PUSH2 0x2A27 JUMPI PUSH1 0x80 PUSH2 0x2A22 DUP3 PUSH16 0xFFCB9843D60F6159C9DB58835C926644 PUSH2 0x4068 JUMP JUMPDEST SWAP1 SHR SWAP1 POP JUMPDEST PUSH1 0x20 DUP3 AND ISZERO PUSH2 0x2A51 JUMPI PUSH1 0x80 PUSH2 0x2A4C DUP3 PUSH16 0xFF973B41FA98C081472E6896DFB254C0 PUSH2 0x4068 JUMP JUMPDEST SWAP1 SHR SWAP1 POP JUMPDEST PUSH1 0x40 DUP3 AND ISZERO PUSH2 0x2A7B JUMPI PUSH1 0x80 PUSH2 0x2A76 DUP3 PUSH16 0xFF2EA16466C96A3843EC78B326B52861 PUSH2 0x4068 JUMP JUMPDEST SWAP1 SHR SWAP1 POP JUMPDEST PUSH1 0x80 DUP3 AND ISZERO PUSH2 0x2AA5 JUMPI PUSH1 0x80 PUSH2 0x2AA0 DUP3 PUSH16 0xFE5DEE046A99A2A811C461F1969C3053 PUSH2 0x4068 JUMP JUMPDEST SWAP1 SHR SWAP1 POP JUMPDEST PUSH2 0x100 DUP3 AND ISZERO PUSH2 0x2AD0 JUMPI PUSH1 0x80 PUSH2 0x2ACB DUP3 PUSH16 0xFCBE86C7900A88AEDCFFC83B479AA3A4 PUSH2 0x4068 JUMP JUMPDEST SWAP1 SHR SWAP1 POP JUMPDEST PUSH2 0x200 DUP3 AND ISZERO PUSH2 0x2AFB JUMPI PUSH1 0x80 PUSH2 0x2AF6 DUP3 PUSH16 0xF987A7253AC413176F2B074CF7815E54 PUSH2 0x4068 JUMP JUMPDEST SWAP1 SHR SWAP1 POP JUMPDEST PUSH2 0x400 DUP3 AND ISZERO PUSH2 0x2B26 JUMPI PUSH1 0x80 PUSH2 0x2B21 DUP3 PUSH16 0xF3392B0822B70005940C7A398E4B70F3 PUSH2 0x4068 JUMP JUMPDEST SWAP1 SHR SWAP1 POP JUMPDEST PUSH2 0x800 DUP3 AND ISZERO PUSH2 0x2B51 JUMPI PUSH1 0x80 PUSH2 0x2B4C DUP3 PUSH16 0xE7159475A2C29B7443B29C7FA6E889D9 PUSH2 0x4068 JUMP JUMPDEST SWAP1 SHR SWAP1 POP JUMPDEST PUSH2 0x1000 DUP3 AND ISZERO PUSH2 0x2B7C JUMPI PUSH1 0x80 PUSH2 0x2B77 DUP3 PUSH16 0xD097F3BDFD2022B8845AD8F792AA5825 PUSH2 0x4068 JUMP JUMPDEST SWAP1 SHR SWAP1 POP JUMPDEST PUSH2 0x2000 DUP3 AND ISZERO PUSH2 0x2BA7 JUMPI PUSH1 0x80 PUSH2 0x2BA2 DUP3 PUSH16 0xA9F746462D870FDF8A65DC1F90E061E5 PUSH2 0x4068 JUMP JUMPDEST SWAP1 SHR SWAP1 POP JUMPDEST PUSH2 0x4000 DUP3 AND ISZERO PUSH2 0x2BD2 JUMPI PUSH1 0x80 PUSH2 0x2BCD DUP3 PUSH16 0x70D869A156D2A1B890BB3DF62BAF32F7 PUSH2 0x4068 JUMP JUMPDEST SWAP1 SHR SWAP1 POP JUMPDEST PUSH2 0x8000 DUP3 AND ISZERO PUSH2 0x2BFD JUMPI PUSH1 0x80 PUSH2 0x2BF8 DUP3 PUSH16 0x31BE135F97D08FD981231505542FCFA6 PUSH2 0x4068 JUMP JUMPDEST SWAP1 SHR SWAP1 POP JUMPDEST PUSH3 0x10000 DUP3 AND ISZERO PUSH2 0x2C29 JUMPI PUSH1 0x80 PUSH2 0x2C24 DUP3 PUSH16 0x9AA508B5B7A84E1C677DE54F3E99BC9 PUSH2 0x4068 JUMP JUMPDEST SWAP1 SHR SWAP1 POP JUMPDEST PUSH3 0x20000 DUP3 AND ISZERO PUSH2 0x2C54 JUMPI PUSH1 0x80 PUSH2 0x2C4F DUP3 PUSH15 0x5D6AF8DEDB81196699C329225EE604 PUSH2 0x4068 JUMP JUMPDEST SWAP1 SHR SWAP1 POP JUMPDEST PUSH3 0x40000 DUP3 AND ISZERO PUSH2 0x2C7E JUMPI PUSH1 0x80 PUSH2 0x2C79 DUP3 PUSH14 0x2216E584F5FA1EA926041BEDFE98 PUSH2 0x4068 JUMP JUMPDEST SWAP1 SHR SWAP1 POP JUMPDEST PUSH3 0x80000 DUP3 AND ISZERO PUSH2 0x2CA6 JUMPI PUSH1 0x80 PUSH2 0x2CA1 DUP3 PUSH12 0x48A170391F7DC42444E8FA2 PUSH2 0x4068 JUMP JUMPDEST SWAP1 SHR SWAP1 POP JUMPDEST PUSH1 0x0 DUP5 PUSH1 0x2 SIGNEXTEND SGT ISZERO PUSH2 0x2CC1 JUMPI PUSH2 0x2CBE DUP2 PUSH1 0x0 NOT PUSH2 0x4095 JUMP JUMPDEST SWAP1 POP JUMPDEST PUSH2 0x2CD0 PUSH5 0x100000000 DUP3 PUSH2 0x40A9 JUMP JUMPDEST ISZERO PUSH2 0x2CDC JUMPI PUSH1 0x1 PUSH2 0x2CDF JUMP JUMPDEST PUSH1 0x0 JUMPDEST PUSH2 0x2CF0 SWAP1 PUSH1 0xFF AND PUSH1 0x20 DUP4 SWAP1 SHR PUSH2 0x40BD JUMP JUMPDEST SWAP5 SWAP4 POP POP POP POP JUMP JUMPDEST PUSH1 0x0 DUP4 PUSH1 0x1 PUSH1 0x1 PUSH1 0xA0 SHL SUB AND DUP6 PUSH1 0x1 PUSH1 0x1 PUSH1 0xA0 SHL SUB AND GT ISZERO PUSH2 0x2D18 JUMPI SWAP3 SWAP4 SWAP3 JUMPDEST DUP5 PUSH1 0x1 PUSH1 0x1 PUSH1 0xA0 SHL SUB AND DUP7 PUSH1 0x1 PUSH1 0x1 PUSH1 0xA0 SHL SUB AND GT PUSH2 0x2D43 JUMPI PUSH2 0x2D3C DUP6 DUP6 DUP6 PUSH2 0x3072 JUMP JUMPDEST SWAP1 POP PUSH2 0x2DB2 JUMP JUMPDEST DUP4 PUSH1 0x1 PUSH1 0x1 PUSH1 0xA0 SHL SUB AND DUP7 PUSH1 0x1 PUSH1 0x1 PUSH1 0xA0 SHL SUB AND GT PUSH2 0x2DA4 JUMPI PUSH1 0x0 PUSH2 0x2D69 DUP8 DUP7 DUP7 PUSH2 0x3072 JUMP JUMPDEST SWAP1 POP PUSH1 0x0 PUSH2 0x2D78 DUP8 DUP10 DUP7 PUSH2 0x30D4 JUMP JUMPDEST SWAP1 POP DUP1 PUSH1 0x1 PUSH1 0x1 PUSH1 0x80 SHL SUB AND DUP3 PUSH1 0x1 PUSH1 0x1 PUSH1 0x80 SHL SUB AND LT PUSH2 0x2D99 JUMPI DUP1 PUSH2 0x2D9B JUMP JUMPDEST DUP2 JUMPDEST SWAP3 POP POP POP PUSH2 0x2DB2 JUMP JUMPDEST PUSH2 0x2DAF DUP6 DUP6 DUP5 PUSH2 0x30D4 JUMP JUMPDEST SWAP1 POP JUMPDEST SWAP6 SWAP5 POP POP POP POP POP JUMP JUMPDEST PUSH1 0x40 MLOAD PUSH1 0x60 DUP5 DUP2 SHL PUSH12 0xFFFFFFFFFFFFFFFFFFFFFFFF NOT AND PUSH1 0x20 DUP4 ADD MSTORE PUSH1 0xE8 DUP5 DUP2 SHL PUSH1 0x34 DUP5 ADD MSTORE DUP4 SWAP1 SHL PUSH1 0x37 DUP4 ADD MSTORE SWAP1 PUSH1 0x0 SWAP1 PUSH1 0x3A ADD PUSH1 0x40 DUP1 MLOAD PUSH1 0x1F NOT DUP2 DUP5 SUB ADD DUP2 MSTORE SWAP2 SWAP1 MSTORE DUP1 MLOAD PUSH1 0x20 SWAP1 SWAP2 ADD KECCAK256 SWAP1 POP PUSH1 0x0 PUSH2 0x2E18 PUSH2 0x168 DUP4 PUSH2 0x40A9 JUMP JUMPDEST SWAP1 POP PUSH2 0x2E23 DUP2 PUSH2 0x3107 JUMP JUMPDEST PUSH2 0x2E2C DUP3 PUSH2 0x3107 JUMP JUMPDEST PUSH1 0x40 MLOAD PUSH1 0x20 ADD PUSH2 0x2E3D SWAP3 SWAP2 SWAP1 PUSH2 0x40D0 JUMP JUMPDEST PUSH1 0x40 MLOAD PUSH1 0x20 DUP2 DUP4 SUB SUB DUP2 MSTORE SWAP1 PUSH1 0x40 MSTORE SWAP3 POP POP POP SWAP4 SWAP3 POP POP POP JUMP JUMPDEST PUSH1 0x60 DUP4 DUP4 PUSH2 0x2E69 DUP5 PUSH3 0xFFFFFF AND PUSH2 0x3199 JUMP JUMPDEST PUSH1 0x40 MLOAD PUSH1 0x20 ADD PUSH2 0x2E7B SWAP4 SWAP3 SWAP2 SWAP1 PUSH2 0x41D8 JUMP JUMPDEST PUSH1 0x40 MLOAD PUSH1 0x20 DUP2 DUP4 SUB SUB DUP2 MSTORE SWAP1 PUSH1 0x40 MSTORE SWAP1 POP SWAP4 SWAP3 POP POP POP JUMP JUMPDEST PUSH1 0x60 PUSH2 0x2E9E DUP4 PUSH2 0x31EE JUMP JUMPDEST PUSH2 0x2EA7 DUP4 PUSH2 0x31EE JUMP JUMPDEST PUSH1 0x40 MLOAD PUSH1 0x20 ADD PUSH2 0x2EB8 SWAP3 SWAP2 SWAP1 PUSH2 0x433A JUMP JUMPDEST PUSH1 0x40 MLOAD PUSH1 0x20 DUP2 DUP4 SUB SUB DUP2 MSTORE SWAP1 PUSH1 0x40 MSTORE SWAP1 POP SWAP3 SWAP2 POP POP JUMP JUMPDEST PUSH1 0x60 DUP6 DUP6 PUSH2 0x2EE1 DUP7 PUSH3 0xFFFFFF AND PUSH2 0x3199 JUMP JUMPDEST PUSH2 0x2EEA DUP7 PUSH2 0x31EE JUMP JUMPDEST PUSH2 0x2EF3 DUP7 PUSH2 0x31EE JUMP JUMPDEST PUSH1 0x40 MLOAD PUSH1 0x20 ADD PUSH2 0x2F07 SWAP6 SWAP5 SWAP4 SWAP3 SWAP2 SWAP1 PUSH2 0x449C JUMP JUMPDEST PUSH1 0x40 MLOAD PUSH1 0x20 DUP2 DUP4 SUB SUB DUP2 MSTORE SWAP1 PUSH1 0x40 MSTORE SWAP1 POP SWAP6 SWAP5 POP POP POP POP POP JUMP JUMPDEST PUSH1 0x60 DUP2 MLOAD PUSH1 0x0 SUB PUSH2 0x2F40 JUMPI POP POP PUSH1 0x40 DUP1 MLOAD PUSH1 0x20 DUP2 ADD SWAP1 SWAP2 MSTORE PUSH1 0x0 DUP2 MSTORE SWAP1 JUMP JUMPDEST PUSH1 0x0 PUSH1 0x40 MLOAD DUP1 PUSH1 0x60 ADD PUSH1 0x40 MSTORE DUP1 PUSH1 0x40 DUP2 MSTORE PUSH1 0x20 ADD PUSH2 0x45B2 PUSH1 0x40 SWAP2 CODECOPY SWAP1 POP PUSH1 0x0 PUSH1 0x3 DUP5 MLOAD PUSH1 0x2 PUSH2 0x2F6F SWAP2 SWAP1 PUSH2 0x40BD JUMP JUMPDEST PUSH2 0x2F79 SWAP2 SWAP1 PUSH2 0x4095 JUMP JUMPDEST PUSH2 0x2F84 SWAP1 PUSH1 0x4 PUSH2 0x4068 JUMP JUMPDEST PUSH1 0x1 PUSH1 0x1 PUSH1 0x40 SHL SUB DUP2 GT ISZERO PUSH2 0x2F9B JUMPI PUSH2 0x2F9B PUSH2 0x366C JUMP JUMPDEST PUSH1 0x40 MLOAD SWAP1 DUP1 DUP3 MSTORE DUP1 PUSH1 0x1F ADD PUSH1 0x1F NOT AND PUSH1 0x20 ADD DUP3 ADD PUSH1 0x40 MSTORE DUP1 ISZERO PUSH2 0x2FC5 JUMPI PUSH1 0x20 DUP3 ADD DUP2 DUP1 CALLDATASIZE DUP4 CALLDATACOPY ADD SWAP1 POP JUMPDEST POP SWAP1 POP PUSH1 0x1 DUP3 ADD PUSH1 0x20 DUP3 ADD DUP6 DUP7 MLOAD DUP8 ADD JUMPDEST DUP1 DUP3 LT ISZERO PUSH2 0x3031 JUMPI PUSH1 0x3 DUP3 ADD SWAP2 POP DUP2 MLOAD PUSH1 0x3F DUP2 PUSH1 0x12 SHR AND DUP6 ADD MLOAD DUP5 MSTORE8 PUSH1 0x1 DUP5 ADD SWAP4 POP PUSH1 0x3F DUP2 PUSH1 0xC SHR AND DUP6 ADD MLOAD DUP5 MSTORE8 PUSH1 0x1 DUP5 ADD SWAP4 POP PUSH1 0x3F DUP2 PUSH1 0x6 SHR AND DUP6 ADD MLOAD DUP5 MSTORE8 PUSH1 0x1 DUP5 ADD SWAP4 POP PUSH1 0x3F DUP2 AND DUP6 ADD MLOAD DUP5 MSTORE8 POP PUSH1 0x1 DUP4 ADD SWAP3 POP PUSH2 0x2FD6 JUMP JUMPDEST POP POP PUSH1 0x3 DUP7 MLOAD MOD PUSH1 0x1 DUP2 EQ PUSH2 0x304D JUMPI PUSH1 0x2 DUP2 EQ PUSH2 0x3060 JUMPI PUSH2 0x187D JUMP JUMPDEST PUSH1 0x3D PUSH1 0x1 DUP4 SUB MSTORE8 PUSH1 0x3D PUSH1 0x2 DUP4 SUB MSTORE8 PUSH2 0x187D JUMP JUMPDEST PUSH1 0x3D PUSH1 0x1 DUP4 SUB MSTORE8 POP SWAP2 SWAP6 SWAP5 POP POP POP POP POP JUMP JUMPDEST PUSH1 0x0 DUP3 PUSH1 0x1 PUSH1 0x1 PUSH1 0xA0 SHL SUB AND DUP5 PUSH1 0x1 PUSH1 0x1 PUSH1 0xA0 SHL SUB AND GT ISZERO PUSH2 0x3092 JUMPI SWAP2 SWAP3 SWAP2 JUMPDEST PUSH1 0x0 PUSH2 0x30B5 DUP6 PUSH1 0x1 PUSH1 0x1 PUSH1 0xA0 SHL SUB AND DUP6 PUSH1 0x1 PUSH1 0x1 PUSH1 0xA0 SHL SUB AND PUSH1 0x1 PUSH1 0x60 SHL PUSH2 0x3286 JUMP JUMPDEST SWAP1 POP PUSH2 0x2DB2 DUP4 DUP3 PUSH2 0x30C6 DUP9 DUP9 PUSH2 0x455B JUMP JUMPDEST PUSH1 0x1 PUSH1 0x1 PUSH1 0xA0 SHL SUB AND PUSH2 0x3286 JUMP JUMPDEST PUSH1 0x0 DUP3 PUSH1 0x1 PUSH1 0x1 PUSH1 0xA0 SHL SUB AND DUP5 PUSH1 0x1 PUSH1 0x1 PUSH1 0xA0 SHL SUB AND GT ISZERO PUSH2 0x30F4 JUMPI SWAP2 SWAP3 SWAP2 JUMPDEST PUSH2 0x2CF0 DUP3 PUSH1 0x1 PUSH1 0x60 SHL PUSH2 0x30C6 DUP8 DUP8 PUSH2 0x455B JUMP JUMPDEST PUSH1 0x60 PUSH1 0x0 PUSH2 0x3114 DUP4 PUSH2 0x3359 JUMP JUMPDEST PUSH1 0x1 ADD SWAP1 POP PUSH1 0x0 DUP2 PUSH1 0x1 PUSH1 0x1 PUSH1 0x40 SHL SUB DUP2 GT ISZERO PUSH2 0x3133 JUMPI PUSH2 0x3133 PUSH2 0x366C JUMP JUMPDEST PUSH1 0x40 MLOAD SWAP1 DUP1 DUP3 MSTORE DUP1 PUSH1 0x1F ADD PUSH1 0x1F NOT AND PUSH1 0x20 ADD DUP3 ADD PUSH1 0x40 MSTORE DUP1 ISZERO PUSH2 0x315D JUMPI PUSH1 0x20 DUP3 ADD DUP2 DUP1 CALLDATASIZE DUP4 CALLDATACOPY ADD SWAP1 POP JUMPDEST POP SWAP1 POP DUP2 DUP2 ADD PUSH1 0x20 ADD JUMPDEST PUSH1 0x0 NOT ADD PUSH16 0x181899199A1A9B1B9C1CB0B131B232B3 PUSH1 0x81 SHL PUSH1 0xA DUP7 MOD BYTE DUP2 MSTORE8 PUSH1 0xA DUP6 DIV SWAP5 POP DUP5 PUSH2 0x3167 JUMPI POP SWAP4 SWAP3 POP POP POP JUMP JUMPDEST PUSH1 0x60 DUP2 PUSH2 0x1F4 SUB PUSH2 0x31C5 JUMPI POP POP PUSH1 0x40 DUP1 MLOAD DUP1 DUP3 ADD SWAP1 SWAP2 MSTORE PUSH1 0x5 DUP2 MSTORE PUSH5 0x302E303525 PUSH1 0xD8 SHL PUSH1 0x20 DUP3 ADD MSTORE SWAP1 JUMP JUMPDEST DUP2 PUSH2 0xBB8 SUB PUSH2 0x170D JUMPI POP POP PUSH1 0x40 DUP1 MLOAD DUP1 DUP3 ADD SWAP1 SWAP2 MSTORE PUSH1 0x4 DUP2 MSTORE PUSH4 0x302E3325 PUSH1 0xE0 SHL PUSH1 0x20 DUP3 ADD MSTORE SWAP1 JUMP JUMPDEST PUSH1 0x60 PUSH1 0x0 DUP3 PUSH1 0x2 SIGNEXTEND SLT PUSH2 0x3210 JUMPI PUSH1 0x40 MLOAD DUP1 PUSH1 0x20 ADD PUSH1 0x40 MSTORE DUP1 PUSH1 0x0 DUP2 MSTORE POP PUSH2 0x322B JUMP JUMPDEST PUSH1 0x40 MLOAD DUP1 PUSH1 0x40 ADD PUSH1 0x40 MSTORE DUP1 PUSH1 0x1 DUP2 MSTORE PUSH1 0x20 ADD PUSH1 0x2D PUSH1 0xF8 SHL DUP2 MSTORE POP JUMPDEST PUSH1 0x0 DUP4 PUSH1 0x2 SIGNEXTEND SLT PUSH2 0x3249 JUMPI PUSH2 0x3244 DUP4 PUSH3 0xFFFFFF AND PUSH2 0x3107 JUMP JUMPDEST PUSH2 0x325F JUMP JUMPDEST PUSH2 0x325F PUSH2 0x3255 DUP5 PUSH2 0x4046 JUMP JUMPDEST PUSH3 0xFFFFFF AND PUSH2 0x3107 JUMP JUMPDEST PUSH1 0x40 MLOAD PUSH1 0x20 ADD PUSH2 0x3270 SWAP3 SWAP2 SWAP1 PUSH2 0x4582 JUMP JUMPDEST PUSH1 0x40 MLOAD PUSH1 0x20 DUP2 DUP4 SUB SUB DUP2 MSTORE SWAP1 PUSH1 0x40 MSTORE SWAP1 POP SWAP2 SWAP1 POP JUMP JUMPDEST PUSH1 0x0 DUP1 DUP1 PUSH1 0x0 NOT DUP6 DUP8 MULMOD DUP6 DUP8 MUL SWAP3 POP DUP3 DUP2 LT DUP4 DUP3 SUB SUB SWAP2 POP POP DUP1 PUSH1 0x0 SUB PUSH2 0x32C0 JUMPI DUP4 DUP3 DUP2 PUSH2 0x32B6 JUMPI PUSH2 0x32B6 PUSH2 0x407F JUMP JUMPDEST DIV SWAP3 POP POP POP PUSH2 0x3352 JUMP JUMPDEST DUP4 DUP2 LT PUSH2 0x32EA JUMPI PUSH1 0x40 MLOAD PUSH4 0x1DCF3063 PUSH1 0xE2 SHL DUP2 MSTORE PUSH1 0x4 DUP2 ADD DUP3 SWAP1 MSTORE PUSH1 0x24 DUP2 ADD DUP6 SWAP1 MSTORE PUSH1 0x44 ADD PUSH2 0x705 JUMP JUMPDEST PUSH1 0x0 DUP5 DUP7 DUP9 MULMOD DUP6 NOT PUSH1 0x1 SWAP1 DUP2 ADD DUP8 AND SWAP7 DUP8 SWAP1 DIV SWAP7 DUP3 DUP7 SUB DUP2 SWAP1 DIV SWAP6 SWAP1 SWAP3 GT SWAP1 SWAP4 SUB PUSH1 0x0 DUP3 SWAP1 SUB SWAP2 SWAP1 SWAP2 DIV SWAP1 SWAP3 ADD SWAP2 SWAP1 SWAP2 MUL SWAP2 SWAP1 SWAP2 OR PUSH1 0x3 DUP5 MUL PUSH1 0x2 SWAP1 DUP2 XOR DUP1 DUP7 MUL DUP3 SUB MUL DUP1 DUP7 MUL DUP3 SUB MUL DUP1 DUP7 MUL DUP3 SUB MUL DUP1 DUP7 MUL DUP3 SUB MUL DUP1 DUP7 MUL DUP3 SUB MUL DUP1 DUP7 MUL SWAP1 SWAP2 SUB MUL MUL SWAP2 POP POP JUMPDEST SWAP4 SWAP3 POP POP POP JUMP JUMPDEST PUSH1 0x0 DUP1 PUSH19 0x184F03E93FF9F4DAA797ED6E38ED64BF6A1F01 PUSH1 0x40 SHL DUP4 LT PUSH2 0x3398 JUMPI PUSH19 0x184F03E93FF9F4DAA797ED6E38ED64BF6A1F01 PUSH1 0x40 SHL DUP4 DIV SWAP3 POP PUSH1 0x40 ADD JUMPDEST PUSH14 0x4EE2D6D415B85ACEF8100000000 DUP4 LT PUSH2 0x33C4 JUMPI PUSH14 0x4EE2D6D415B85ACEF8100000000 DUP4 DIV SWAP3 POP PUSH1 0x20 ADD JUMPDEST PUSH7 0x2386F26FC10000 DUP4 LT PUSH2 0x33E2 JUMPI PUSH7 0x2386F26FC10000 DUP4 DIV SWAP3 POP PUSH1 0x10 ADD JUMPDEST PUSH4 0x5F5E100 DUP4 LT PUSH2 0x33FA JUMPI PUSH4 0x5F5E100 DUP4 DIV SWAP3 POP PUSH1 0x8 ADD JUMPDEST PUSH2 0x2710 DUP4 LT PUSH2 0x340E JUMPI PUSH2 0x2710 DUP4 DIV SWAP3 POP PUSH1 0x4 ADD JUMPDEST PUSH1 0x64 DUP4 LT PUSH2 0x3420 JUMPI PUSH1 0x64 DUP4 DIV SWAP3 POP PUSH1 0x2 ADD JUMPDEST PUSH1 0xA DUP4 LT PUSH2 0x5EF JUMPI PUSH1 0x1 ADD SWAP3 SWAP2 POP POP JUMP JUMPDEST PUSH1 0x1 PUSH1 0x1 PUSH1 0xE0 SHL SUB NOT DUP2 AND DUP2 EQ PUSH2 0x3447 JUMPI PUSH1 0x0 DUP1 REVERT JUMPDEST POP JUMP JUMPDEST PUSH1 0x0 PUSH1 0x20 DUP3 DUP5 SUB SLT ISZERO PUSH2 0x345C JUMPI PUSH1 0x0 DUP1 REVERT JUMPDEST DUP2 CALLDATALOAD PUSH2 0x3352 DUP2 PUSH2 0x3431 JUMP JUMPDEST PUSH1 0x0 JUMPDEST DUP4 DUP2 LT ISZERO PUSH2 0x3482 JUMPI DUP2 DUP2 ADD MLOAD DUP4 DUP3 ADD MSTORE PUSH1 0x20 ADD PUSH2 0x346A JUMP JUMPDEST POP POP PUSH1 0x0 SWAP2 ADD MSTORE JUMP JUMPDEST PUSH1 0x0 DUP2 MLOAD DUP1 DUP5 MSTORE PUSH2 0x34A3 DUP2 PUSH1 0x20 DUP7 ADD PUSH1 0x20 DUP7 ADD PUSH2 0x3467 JUMP JUMPDEST PUSH1 0x1F ADD PUSH1 0x1F NOT AND SWAP3 SWAP1 SWAP3 ADD PUSH1 0x20 ADD SWAP3 SWAP2 POP POP JUMP JUMPDEST PUSH1 0x20 DUP2 MSTORE PUSH1 0x0 PUSH2 0x3352 PUSH1 0x20 DUP4 ADD DUP5 PUSH2 0x348B JUMP JUMPDEST PUSH1 0x0 PUSH1 0x20 DUP3 DUP5 SUB SLT ISZERO PUSH2 0x34DC JUMPI PUSH1 0x0 DUP1 REVERT JUMPDEST POP CALLDATALOAD SWAP2 SWAP1 POP JUMP JUMPDEST PUSH1 0x1 PUSH1 0x1 PUSH1 0xA0 SHL SUB DUP2 AND DUP2 EQ PUSH2 0x3447 JUMPI PUSH1 0x0 DUP1 REVERT JUMPDEST PUSH1 0x0 DUP1 PUSH1 0x40 DUP4 DUP6 SUB SLT ISZERO PUSH2 0x350B JUMPI PUSH1 0x0 DUP1 REVERT JUMPDEST DUP3 CALLDATALOAD PUSH2 0x3516 DUP2 PUSH2 0x34E3 JUMP JUMPDEST SWAP5 PUSH1 0x20 SWAP4 SWAP1 SWAP4 ADD CALLDATALOAD SWAP4 POP POP POP JUMP JUMPDEST PUSH1 0x0 PUSH1 0x20 DUP3 DUP5 SUB SLT ISZERO PUSH2 0x3536 JUMPI PUSH1 0x0 DUP1 REVERT JUMPDEST DUP2 CALLDATALOAD PUSH2 0x3352 DUP2 PUSH2 0x34E3 JUMP JUMPDEST PUSH1 0x0 DUP2 MLOAD DUP1 DUP5 MSTORE PUSH1 0x20 DUP1 DUP6 ADD SWAP5 POP DUP1 DUP5 ADD PUSH1 0x0 JUMPDEST DUP4 DUP2 LT ISZERO PUSH2 0x357A JUMPI DUP2 MLOAD PUSH1 0x1 PUSH1 0x1 PUSH1 0x80 SHL SUB AND DUP8 MSTORE SWAP6 DUP3 ADD SWAP6 SWAP1 DUP3 ADD SWAP1 PUSH1 0x1 ADD PUSH2 0x3555 JUMP JUMPDEST POP SWAP5 SWAP6 SWAP5 POP POP POP POP POP JUMP JUMPDEST PUSH1 0x0 DUP2 MLOAD DUP1 DUP5 MSTORE PUSH1 0x20 DUP1 DUP6 ADD SWAP5 POP DUP1 DUP5 ADD PUSH1 0x0 JUMPDEST DUP4 DUP2 LT ISZERO PUSH2 0x357A JUMPI DUP2 MLOAD PUSH1 0x2 SIGNEXTEND DUP8 MSTORE SWAP6 DUP3 ADD SWAP6 SWAP1 DUP3 ADD SWAP1 PUSH1 0x1 ADD PUSH2 0x3599 JUMP JUMPDEST PUSH1 0xC0 DUP1 DUP3 MSTORE DUP8 MLOAD SWAP1 DUP3 ADD DUP2 SWAP1 MSTORE PUSH1 0x0 SWAP1 PUSH1 0x20 SWAP1 PUSH1 0xE0 DUP5 ADD SWAP1 DUP3 DUP12 ADD DUP5 JUMPDEST DUP3 DUP2 LT ISZERO PUSH2 0x35FA JUMPI DUP2 MLOAD PUSH1 0x1 PUSH1 0x1 PUSH1 0xA0 SHL SUB AND DUP5 MSTORE SWAP3 DUP5 ADD SWAP3 SWAP1 DUP5 ADD SWAP1 PUSH1 0x1 ADD PUSH2 0x35D5 JUMP JUMPDEST POP POP POP DUP4 DUP2 SUB DUP3 DUP6 ADD MSTORE PUSH2 0x360E DUP2 DUP11 PUSH2 0x3541 JUMP JUMPDEST SWAP2 POP POP DUP3 DUP2 SUB PUSH1 0x40 DUP5 ADD MSTORE PUSH2 0x3623 DUP2 DUP9 PUSH2 0x3541 JUMP JUMPDEST SWAP1 POP DUP3 DUP2 SUB PUSH1 0x60 DUP5 ADD MSTORE PUSH2 0x3637 DUP2 DUP8 PUSH2 0x3541 JUMP JUMPDEST SWAP1 POP DUP3 DUP2 SUB PUSH1 0x80 DUP5 ADD MSTORE PUSH2 0x364B DUP2 DUP7 PUSH2 0x3585 JUMP JUMPDEST SWAP1 POP DUP3 DUP2 SUB PUSH1 0xA0 DUP5 ADD MSTORE PUSH2 0x365F DUP2 DUP6 PUSH2 0x3585 JUMP JUMPDEST SWAP10 SWAP9 POP POP POP POP POP POP POP POP POP JUMP JUMPDEST PUSH4 0x4E487B71 PUSH1 0xE0 SHL PUSH1 0x0 MSTORE PUSH1 0x41 PUSH1 0x4 MSTORE PUSH1 0x24 PUSH1 0x0 REVERT JUMPDEST PUSH1 0x1 PUSH1 0x1 PUSH1 0x80 SHL SUB DUP2 AND DUP2 EQ PUSH2 0x3447 JUMPI PUSH1 0x0 DUP1 REVERT JUMPDEST PUSH1 0x0 PUSH1 0x40 DUP3 DUP5 SUB SLT ISZERO PUSH2 0x36A9 JUMPI PUSH1 0x0 DUP1 REVERT JUMPDEST PUSH1 0x40 MLOAD PUSH1 0x40 DUP2 ADD DUP2 DUP2 LT PUSH1 0x1 PUSH1 0x1 PUSH1 0x40 SHL SUB DUP3 GT OR ISZERO PUSH2 0x36CB JUMPI PUSH2 0x36CB PUSH2 0x366C JUMP JUMPDEST PUSH1 0x40 MSTORE DUP3 CALLDATALOAD DUP2 MSTORE PUSH1 0x20 DUP4 ADD CALLDATALOAD PUSH2 0x36E0 DUP2 PUSH2 0x3682 JUMP JUMPDEST PUSH1 0x20 DUP3 ADD MSTORE SWAP4 SWAP3 POP POP POP JUMP JUMPDEST PUSH1 0x0 DUP1 PUSH1 0x0 PUSH1 0x60 DUP5 DUP7 SUB SLT ISZERO PUSH2 0x3701 JUMPI PUSH1 0x0 DUP1 REVERT JUMPDEST DUP4 CALLDATALOAD PUSH2 0x370C DUP2 PUSH2 0x34E3 JUMP JUMPDEST SWAP3 POP PUSH1 0x20 DUP5 ADD CALLDATALOAD PUSH2 0x371C DUP2 PUSH2 0x34E3 JUMP JUMPDEST SWAP3 SWAP6 SWAP3 SWAP5 POP POP POP PUSH1 0x40 SWAP2 SWAP1 SWAP2 ADD CALLDATALOAD SWAP1 JUMP JUMPDEST PUSH1 0x0 PUSH1 0xA0 DUP3 DUP5 SUB SLT ISZERO PUSH2 0x1888 JUMPI PUSH1 0x0 DUP1 REVERT JUMPDEST PUSH1 0x0 DUP2 MLOAD DUP1 DUP5 MSTORE PUSH1 0x20 DUP1 DUP6 ADD SWAP5 POP DUP1 DUP5 ADD PUSH1 0x0 JUMPDEST DUP4 DUP2 LT ISZERO PUSH2 0x357A JUMPI DUP2 MLOAD DUP8 MSTORE SWAP6 DUP3 ADD SWAP6 SWAP1 DUP3 ADD SWAP1 PUSH1 0x1 ADD PUSH2 0x3753 JUMP JUMPDEST PUSH1 0x40 DUP2 MSTORE PUSH1 0x0 PUSH2 0x3782 PUSH1 0x40 DUP4 ADD DUP6 PUSH2 0x373F JUMP JUMPDEST DUP3 DUP2 SUB PUSH1 0x20 DUP5 ADD MSTORE PUSH2 0x2DB2 DUP2 DUP6 PUSH2 0x373F JUMP JUMPDEST PUSH1 0x20 DUP2 MSTORE PUSH1 0x0 PUSH2 0x3352 PUSH1 0x20 DUP4 ADD DUP5 PUSH2 0x373F JUMP JUMPDEST PUSH1 0x0 DUP1 PUSH1 0x40 DUP4 DUP6 SUB SLT ISZERO PUSH2 0x37BA JUMPI PUSH1 0x0 DUP1 REVERT JUMPDEST DUP3 CALLDATALOAD PUSH2 0x37C5 DUP2 PUSH2 0x34E3 JUMP JUMPDEST SWAP2 POP PUSH1 0x20 DUP4 ADD CALLDATALOAD DUP1 ISZERO ISZERO DUP2 EQ PUSH2 0x37DA JUMPI PUSH1 0x0 DUP1 REVERT JUMPDEST DUP1 SWAP2 POP POP SWAP3 POP SWAP3 SWAP1 POP JUMP JUMPDEST PUSH1 0x0 DUP1 DUP4 PUSH1 0x1F DUP5 ADD SLT PUSH2 0x37F7 JUMPI PUSH1 0x0 DUP1 REVERT JUMPDEST POP DUP2 CALLDATALOAD PUSH1 0x1 PUSH1 0x1 PUSH1 0x40 SHL SUB DUP2 GT ISZERO PUSH2 0x380E JUMPI PUSH1 0x0 DUP1 REVERT JUMPDEST PUSH1 0x20 DUP4 ADD SWAP2 POP DUP4 PUSH1 0x20 DUP3 DUP6 ADD ADD GT ISZERO PUSH2 0x3826 JUMPI PUSH1 0x0 DUP1 REVERT JUMPDEST SWAP3 POP SWAP3 SWAP1 POP JUMP JUMPDEST PUSH1 0x0 DUP1 PUSH1 0x0 DUP1 PUSH1 0x0 PUSH1 0x80 DUP7 DUP9 SUB SLT ISZERO PUSH2 0x3845 JUMPI PUSH1 0x0 DUP1 REVERT JUMPDEST DUP6 CALLDATALOAD PUSH2 0x3850 DUP2 PUSH2 0x34E3 JUMP JUMPDEST SWAP5 POP PUSH1 0x20 DUP7 ADD CALLDATALOAD PUSH2 0x3860 DUP2 PUSH2 0x34E3 JUMP JUMPDEST SWAP4 POP PUSH1 0x40 DUP7 ADD CALLDATALOAD SWAP3 POP PUSH1 0x60 DUP7 ADD CALLDATALOAD PUSH1 0x1 PUSH1 0x1 PUSH1 0x40 SHL SUB DUP2 GT ISZERO PUSH2 0x3882 JUMPI PUSH1 0x0 DUP1 REVERT JUMPDEST PUSH2 0x388E DUP9 DUP3 DUP10 ADD PUSH2 0x37E5 JUMP JUMPDEST SWAP7 SWAP10 SWAP6 SWAP9 POP SWAP4 SWAP7 POP SWAP3 SWAP5 SWAP4 SWAP3 POP POP POP JUMP JUMPDEST PUSH1 0x0 DUP1 PUSH1 0x0 DUP1 PUSH1 0x60 DUP6 DUP8 SUB SLT ISZERO PUSH2 0x38B5 JUMPI PUSH1 0x0 DUP1 REVERT JUMPDEST DUP5 CALLDATALOAD SWAP4 POP PUSH1 0x20 DUP6 ADD CALLDATALOAD SWAP3 POP PUSH1 0x40 DUP6 ADD CALLDATALOAD PUSH1 0x1 PUSH1 0x1 PUSH1 0x40 SHL SUB DUP2 GT ISZERO PUSH2 0x38D9 JUMPI PUSH1 0x0 DUP1 REVERT JUMPDEST PUSH2 0x38E5 DUP8 DUP3 DUP9 ADD PUSH2 0x37E5 JUMP JUMPDEST SWAP6 SWAP9 SWAP5 SWAP8 POP SWAP6 POP POP POP POP JUMP JUMPDEST PUSH3 0xFFFFFF DUP2 AND DUP2 EQ PUSH2 0x3447 JUMPI PUSH1 0x0 DUP1 REVERT JUMPDEST DUP1 PUSH1 0x2 SIGNEXTEND DUP2 EQ PUSH2 0x3447 JUMPI PUSH1 0x0 DUP1 REVERT JUMPDEST PUSH1 0x0 DUP1 PUSH1 0x0 DUP1 PUSH1 0x0 DUP1 PUSH1 0x0 DUP1 PUSH1 0x0 DUP1 PUSH2 0x140 DUP12 DUP14 SUB SLT ISZERO PUSH2 0x3931 JUMPI PUSH1 0x0 DUP1 REVERT JUMPDEST DUP11 CALLDATALOAD PUSH2 0x393C DUP2 PUSH2 0x34E3 JUMP JUMPDEST SWAP10 POP PUSH1 0x20 DUP12 ADD CALLDATALOAD PUSH2 0x394C DUP2 PUSH2 0x34E3 JUMP JUMPDEST SWAP9 POP PUSH1 0x40 DUP12 ADD CALLDATALOAD PUSH2 0x395C DUP2 PUSH2 0x34E3 JUMP JUMPDEST SWAP8 POP PUSH1 0x60 DUP12 ADD CALLDATALOAD PUSH2 0x396C DUP2 PUSH2 0x38F1 JUMP JUMPDEST SWAP7 POP PUSH1 0x80 DUP12 ADD CALLDATALOAD PUSH2 0x397C DUP2 PUSH2 0x3902 JUMP JUMPDEST SWAP6 POP PUSH1 0xA0 DUP12 ADD CALLDATALOAD PUSH2 0x398C DUP2 PUSH2 0x3902 JUMP JUMPDEST SWAP10 SWAP13 SWAP9 SWAP12 POP SWAP7 SWAP10 SWAP6 SWAP9 SWAP5 SWAP8 SWAP5 SWAP7 POP POP POP POP PUSH1 0xC0 DUP4 ADD CALLDATALOAD SWAP3 PUSH1 0xE0 DUP2 ADD CALLDATALOAD SWAP3 PUSH2 0x100 DUP3 ADD CALLDATALOAD SWAP3 POP PUSH2 0x120 SWAP1 SWAP2 ADD CALLDATALOAD SWAP1 JUMP JUMPDEST PUSH1 0x0 DUP1 PUSH1 0x40 DUP4 DUP6 SUB SLT ISZERO PUSH2 0x39CE JUMPI PUSH1 0x0 DUP1 REVERT JUMPDEST DUP3 CALLDATALOAD PUSH2 0x39D9 DUP2 PUSH2 0x34E3 JUMP JUMPDEST SWAP2 POP PUSH1 0x20 DUP4 ADD CALLDATALOAD PUSH2 0x37DA DUP2 PUSH2 0x34E3 JUMP JUMPDEST PUSH1 0x1 DUP2 DUP2 SHR SWAP1 DUP3 AND DUP1 PUSH2 0x39FD JUMPI PUSH1 0x7F DUP3 AND SWAP2 POP JUMPDEST PUSH1 0x20 DUP3 LT DUP2 SUB PUSH2 0x1888 JUMPI PUSH4 0x4E487B71 PUSH1 0xE0 SHL PUSH1 0x0 MSTORE PUSH1 0x22 PUSH1 0x4 MSTORE PUSH1 0x24 PUSH1 0x0 REVERT JUMPDEST PUSH4 0x4E487B71 PUSH1 0xE0 SHL PUSH1 0x0 MSTORE PUSH1 0x32 PUSH1 0x4 MSTORE PUSH1 0x24 PUSH1 0x0 REVERT JUMPDEST PUSH1 0x0 DUP1 PUSH1 0x0 DUP1 PUSH1 0x0 PUSH1 0xA0 DUP7 DUP9 SUB SLT ISZERO PUSH2 0x3A4B JUMPI PUSH1 0x0 DUP1 REVERT JUMPDEST DUP6 MLOAD PUSH2 0x3A56 DUP2 PUSH2 0x3682 JUMP JUMPDEST DUP1 SWAP6 POP POP PUSH1 0x20 DUP7 ADD MLOAD SWAP4 POP PUSH1 0x40 DUP7 ADD MLOAD SWAP3 POP PUSH1 0x60 DUP7 ADD MLOAD PUSH2 0x3A76 DUP2 PUSH2 0x3682 JUMP JUMPDEST PUSH1 0x80 DUP8 ADD MLOAD SWAP1 SWAP3 POP PUSH2 0x3A87 DUP2 PUSH2 0x3682 JUMP JUMPDEST DUP1 SWAP2 POP POP SWAP3 SWAP6 POP SWAP3 SWAP6 SWAP1 SWAP4 POP JUMP JUMPDEST PUSH4 0x4E487B71 PUSH1 0xE0 SHL PUSH1 0x0 MSTORE PUSH1 0x11 PUSH1 0x4 MSTORE PUSH1 0x24 PUSH1 0x0 REVERT JUMPDEST PUSH1 0x0 PUSH1 0x1 DUP3 ADD PUSH2 0x3ABD JUMPI PUSH2 0x3ABD PUSH2 0x3A95 JUMP JUMPDEST POP PUSH1 0x1 ADD SWAP1 JUMP JUMPDEST PUSH1 0x0 DUP1 PUSH1 0x40 DUP4 DUP6 SUB SLT ISZERO PUSH2 0x3AD7 JUMPI PUSH1 0x0 DUP1 REVERT JUMPDEST POP POP DUP1 MLOAD PUSH1 0x20 SWAP1 SWAP2 ADD MLOAD SWAP1 SWAP3 SWAP1 SWAP2 POP JUMP JUMPDEST PUSH1 0x0 PUSH1 0x20 DUP3 DUP5 SUB SLT ISZERO PUSH2 0x3AFA JUMPI PUSH1 0x0 DUP1 REVERT JUMPDEST DUP2 MLOAD PUSH2 0x3352 DUP2 PUSH2 0x3431 JUMP JUMPDEST PUSH1 0x0 DUP2 PUSH2 0x3B14 JUMPI PUSH2 0x3B14 PUSH2 0x3A95 JUMP JUMPDEST POP PUSH1 0x0 NOT ADD SWAP1 JUMP JUMPDEST PUSH1 0x1 PUSH1 0x1 PUSH1 0xA0 SHL SUB DUP7 DUP2 AND DUP3 MSTORE DUP6 AND PUSH1 0x20 DUP3 ADD MSTORE PUSH1 0x40 DUP2 ADD DUP5 SWAP1 MSTORE PUSH1 0x80 PUSH1 0x60 DUP3 ADD DUP2 SWAP1 MSTORE DUP2 ADD DUP3 SWAP1 MSTORE PUSH1 0x0 DUP3 DUP5 PUSH1 0xA0 DUP5 ADD CALLDATACOPY PUSH1 0x0 PUSH1 0xA0 DUP5 DUP5 ADD ADD MSTORE PUSH1 0xA0 PUSH1 0x1F NOT PUSH1 0x1F DUP6 ADD AND DUP4 ADD ADD SWAP1 POP SWAP7 SWAP6 POP POP POP POP POP POP JUMP JUMPDEST PUSH1 0x0 PUSH1 0x20 DUP3 DUP5 SUB SLT ISZERO PUSH2 0x3B82 JUMPI PUSH1 0x0 DUP1 REVERT JUMPDEST DUP2 MLOAD PUSH2 0x3352 DUP2 PUSH2 0x34E3 JUMP JUMPDEST PUSH1 0x0 PUSH1 0x20 DUP3 DUP5 SUB SLT ISZERO PUSH2 0x3B9F JUMPI PUSH1 0x0 DUP1 REVERT JUMPDEST DUP2 MLOAD PUSH1 0x1 PUSH1 0x1 PUSH1 0x40 SHL SUB DUP1 DUP3 GT ISZERO PUSH2 0x3BB6 JUMPI PUSH1 0x0 DUP1 REVERT JUMPDEST DUP2 DUP5 ADD SWAP2 POP DUP5 PUSH1 0x1F DUP4 ADD SLT PUSH2 0x3BCA JUMPI PUSH1 0x0 DUP1 REVERT JUMPDEST DUP2 MLOAD DUP2 DUP2 GT ISZERO PUSH2 0x3BDC JUMPI PUSH2 0x3BDC PUSH2 0x366C JUMP JUMPDEST PUSH1 0x40 MLOAD PUSH1 0x1F DUP3 ADD PUSH1 0x1F NOT SWAP1 DUP2 AND PUSH1 0x3F ADD AND DUP2 ADD SWAP1 DUP4 DUP3 GT DUP2 DUP4 LT OR ISZERO PUSH2 0x3C04 JUMPI PUSH2 0x3C04 PUSH2 0x366C JUMP JUMPDEST DUP2 PUSH1 0x40 MSTORE DUP3 DUP2 MSTORE DUP8 PUSH1 0x20 DUP5 DUP8 ADD ADD GT ISZERO PUSH2 0x3C1D JUMPI PUSH1 0x0 DUP1 REVERT JUMPDEST PUSH2 0x3C2E DUP4 PUSH1 0x20 DUP4 ADD PUSH1 0x20 DUP9 ADD PUSH2 0x3467 JUMP JUMPDEST SWAP8 SWAP7 POP POP POP POP POP POP POP JUMP JUMPDEST PUSH1 0x0 PUSH1 0x20 DUP3 DUP5 SUB SLT ISZERO PUSH2 0x3C4B JUMPI PUSH1 0x0 DUP1 REVERT JUMPDEST DUP2 MLOAD PUSH2 0x3352 DUP2 PUSH2 0x38F1 JUMP JUMPDEST PUSH1 0x0 DUP1 PUSH1 0x40 DUP4 DUP6 SUB SLT ISZERO PUSH2 0x3C69 JUMPI PUSH1 0x0 DUP1 REVERT JUMPDEST DUP3 MLOAD PUSH2 0x3C74 DUP2 PUSH2 0x3682 JUMP JUMPDEST PUSH1 0x20 DUP5 ADD MLOAD SWAP1 SWAP3 POP PUSH2 0x37DA DUP2 PUSH2 0x3682 JUMP JUMPDEST PUSH1 0x0 PUSH1 0x60 DUP3 DUP5 SUB SLT ISZERO PUSH2 0x3C97 JUMPI PUSH1 0x0 DUP1 REVERT JUMPDEST PUSH1 0x40 MLOAD PUSH1 0x60 DUP2 ADD DUP2 DUP2 LT PUSH1 0x1 PUSH1 0x1 PUSH1 0x40 SHL SUB DUP3 GT OR ISZERO PUSH2 0x3CB9 JUMPI PUSH2 0x3CB9 PUSH2 0x366C JUMP JUMPDEST PUSH1 0x40 MSTORE DUP3 CALLDATALOAD PUSH2 0x3CC7 DUP2 PUSH2 0x34E3 JUMP JUMPDEST DUP2 MSTORE PUSH1 0x20 DUP4 ADD CALLDATALOAD PUSH2 0x3CD7 DUP2 PUSH2 0x34E3 JUMP JUMPDEST PUSH1 0x20 DUP3 ADD MSTORE PUSH1 0x40 DUP4 ADD CALLDATALOAD PUSH2 0x3CEA DUP2 PUSH2 0x34E3 JUMP JUMPDEST PUSH1 0x40 DUP3 ADD MSTORE SWAP4 SWAP3 POP POP POP JUMP JUMPDEST DUP1 MLOAD PUSH2 0xFFFF DUP2 AND DUP2 EQ PUSH2 0x170D JUMPI PUSH1 0x0 DUP1 REVERT JUMPDEST PUSH1 0x0 DUP1 PUSH1 0x0 DUP1 PUSH1 0x0 PUSH1 0xA0 DUP7 DUP9 SUB SLT ISZERO PUSH2 0x3D20 JUMPI PUSH1 0x0 DUP1 REVERT JUMPDEST DUP6 MLOAD PUSH2 0x3D2B DUP2 PUSH2 0x34E3 JUMP JUMPDEST PUSH1 0x20 DUP8 ADD MLOAD SWAP1 SWAP6 POP PUSH2 0x3D3C DUP2 PUSH2 0x3902 JUMP JUMPDEST SWAP4 POP PUSH2 0x3D4A PUSH1 0x40 DUP8 ADD PUSH2 0x3CF6 JUMP JUMPDEST SWAP3 POP PUSH2 0x3D58 PUSH1 0x60 DUP8 ADD PUSH2 0x3CF6 JUMP JUMPDEST SWAP2 POP PUSH2 0x3D66 PUSH1 0x80 DUP8 ADD PUSH2 0x3CF6 JUMP JUMPDEST SWAP1 POP SWAP3 SWAP6 POP SWAP3 SWAP6 SWAP1 SWAP4 POP JUMP JUMPDEST PUSH1 0x1 DUP1 PUSH1 0xA0 SHL SUB DUP7 AND DUP2 MSTORE DUP5 PUSH1 0x2 SIGNEXTEND PUSH1 0x20 DUP3 ADD MSTORE DUP4 PUSH1 0x2 SIGNEXTEND PUSH1 0x40 DUP3 ADD MSTORE PUSH1 0x1 PUSH1 0x1 PUSH1 0x80 SHL SUB DUP4 AND PUSH1 0x60 DUP3 ADD MSTORE PUSH1 0xA0 PUSH1 0x80 DUP3 ADD MSTORE PUSH1 0x0 PUSH2 0x3C2E PUSH1 0xA0 DUP4 ADD DUP5 PUSH2 0x348B JUMP JUMPDEST PUSH1 0x0 DUP2 MLOAD PUSH2 0x3DC6 DUP2 DUP6 PUSH1 0x20 DUP7 ADD PUSH2 0x3467 JUMP JUMPDEST SWAP3 SWAP1 SWAP3 ADD SWAP3 SWAP2 POP POP JUMP JUMPDEST PUSH32 0x3C73766720786D6C6E733D27687474703A2F2F7777772E77332E6F72672F3230 DUP2 MSTORE PUSH32 0x30302F737667272076696577426F783D273020302033303020343830273E0000 PUSH1 0x20 DUP3 ADD MSTORE PUSH32 0x3C7374796C653E2E746F6B656E73207B20666F6E743A20626F6C642033307078 PUSH1 0x3E DUP3 ADD MSTORE PUSH14 0x2073616E732D73657269663B207D PUSH1 0x90 SHL PUSH1 0x5E DUP3 ADD MSTORE PUSH32 0x2E666565207B20666F6E743A206E6F726D616C20323670782073616E732D7365 PUSH1 0x6C DUP3 ADD MSTORE PUSH6 0x7269663B207D PUSH1 0xD0 SHL PUSH1 0x8C DUP3 ADD MSTORE PUSH32 0x2E7469636B207B20666F6E743A206E6F726D616C20313870782073616E732D73 PUSH1 0x92 DUP3 ADD MSTORE PUSH15 0x32B934B31D903E9E17B9BA3CB6329F PUSH1 0x89 SHL PUSH1 0xB2 DUP3 ADD MSTORE PUSH1 0x0 DUP5 MLOAD PUSH2 0x3EDE DUP2 PUSH1 0xC1 DUP6 ADD PUSH1 0x20 DUP10 ADD PUSH2 0x3467 JUMP JUMPDEST DUP5 MLOAD SWAP1 DUP4 ADD SWAP1 PUSH2 0x3EF5 DUP2 PUSH1 0xC1 DUP5 ADD PUSH1 0x20 DUP10 ADD PUSH2 0x3467 JUMP JUMPDEST PUSH2 0x3F04 PUSH1 0xC1 DUP3 DUP5 ADD ADD DUP7 PUSH2 0x3DB4 JUMP JUMPDEST SWAP2 POP POP PUSH2 0x3F19 DUP2 PUSH6 0x1E17B9BB339F PUSH1 0xD1 SHL SWAP1 MSTORE JUMP JUMPDEST PUSH1 0x6 ADD SWAP6 SWAP5 POP POP POP POP POP JUMP JUMPDEST PUSH32 0x7B226E616D65223A22556E697377617020563320506F736974696F6E222C0000 DUP2 MSTORE PUSH15 0x113232B9B1B934B83A34B7B7111D11 PUSH1 0x89 SHL PUSH1 0x1E DUP3 ADD MSTORE DUP3 MLOAD PUSH1 0x0 SWAP1 PUSH2 0x3F76 DUP2 PUSH1 0x2D DUP6 ADD PUSH1 0x20 DUP9 ADD PUSH2 0x3467 JUMP JUMPDEST PUSH2 0x88B PUSH1 0xF2 SHL PUSH1 0x2D SWAP2 DUP5 ADD SWAP2 DUP3 ADD MSTORE PUSH32 0x22696D616765223A22646174613A696D6167652F7376672B786D6C3B62617365 PUSH1 0x2F DUP3 ADD MSTORE PUSH3 0xD8D0B PUSH1 0xEA SHL PUSH1 0x4F DUP3 ADD MSTORE DUP4 MLOAD PUSH2 0x3FCA DUP2 PUSH1 0x52 DUP5 ADD PUSH1 0x20 DUP9 ADD PUSH2 0x3467 JUMP JUMPDEST PUSH2 0x227D PUSH1 0xF0 SHL PUSH1 0x52 SWAP3 SWAP1 SWAP2 ADD SWAP2 DUP3 ADD MSTORE PUSH1 0x54 ADD SWAP5 SWAP4 POP POP POP POP JUMP JUMPDEST PUSH32 0x646174613A6170706C69636174696F6E2F6A736F6E3B6261736536342C000000 DUP2 MSTORE PUSH1 0x0 DUP3 MLOAD PUSH2 0x401D DUP2 PUSH1 0x1D DUP6 ADD PUSH1 0x20 DUP8 ADD PUSH2 0x3467 JUMP JUMPDEST SWAP2 SWAP1 SWAP2 ADD PUSH1 0x1D ADD SWAP3 SWAP2 POP POP JUMP JUMPDEST PUSH1 0x0 PUSH1 0x1 PUSH1 0xFF SHL DUP3 ADD PUSH2 0x403F JUMPI PUSH2 0x403F PUSH2 0x3A95 JUMP JUMPDEST POP PUSH1 0x0 SUB SWAP1 JUMP JUMPDEST PUSH1 0x0 DUP2 PUSH1 0x2 SIGNEXTEND PUSH3 0x7FFFFF NOT DUP2 SUB PUSH2 0x405F JUMPI PUSH2 0x405F PUSH2 0x3A95 JUMP JUMPDEST PUSH1 0x0 SUB SWAP3 SWAP2 POP POP JUMP JUMPDEST DUP1 DUP3 MUL DUP2 ISZERO DUP3 DUP3 DIV DUP5 EQ OR PUSH2 0x5EF JUMPI PUSH2 0x5EF PUSH2 0x3A95 JUMP JUMPDEST PUSH4 0x4E487B71 PUSH1 0xE0 SHL PUSH1 0x0 MSTORE PUSH1 0x12 PUSH1 0x4 MSTORE PUSH1 0x24 PUSH1 0x0 REVERT JUMPDEST PUSH1 0x0 DUP3 PUSH2 0x40A4 JUMPI PUSH2 0x40A4 PUSH2 0x407F JUMP JUMPDEST POP DIV SWAP1 JUMP JUMPDEST PUSH1 0x0 DUP3 PUSH2 0x40B8 JUMPI PUSH2 0x40B8 PUSH2 0x407F JUMP JUMPDEST POP MOD SWAP1 JUMP JUMPDEST DUP1 DUP3 ADD DUP1 DUP3 GT ISZERO PUSH2 0x5EF JUMPI PUSH2 0x5EF PUSH2 0x3A95 JUMP JUMPDEST PUSH32 0x3C726563742077696474683D2233303022206865696768743D22343830222066 DUP2 MSTORE PUSH9 0xD2D8D87A44D0E6D85 PUSH1 0xBB SHL PUSH1 0x20 DUP3 ADD MSTORE PUSH1 0x0 DUP4 MLOAD PUSH2 0x411A DUP2 PUSH1 0x29 DUP6 ADD PUSH1 0x20 DUP9 ADD PUSH2 0x3467 JUMP JUMPDEST PUSH12 0x161A1812961A18129491179F PUSH1 0xA1 SHL PUSH1 0x29 SWAP2 DUP5 ADD SWAP2 DUP3 ADD MSTORE PUSH32 0x3C7265637420783D2233302220793D223330222077696474683D223234302220 PUSH1 0x35 DUP3 ADD MSTORE PUSH32 0x6865696768743D22343230222072783D223135222072793D223135222066696C PUSH1 0x55 DUP3 ADD MSTORE PUSH7 0xD87A44D0E6D85 PUSH1 0xCB SHL PUSH1 0x75 DUP3 ADD MSTORE DUP4 MLOAD PUSH2 0x41A2 DUP2 PUSH1 0x7C DUP5 ADD PUSH1 0x20 DUP9 ADD PUSH2 0x3467 JUMP JUMPDEST PUSH32 0x2C313030252C3530252922207374726F6B653D2223303030222F3E0000000000 PUSH1 0x7C SWAP3 SWAP1 SWAP2 ADD SWAP2 DUP3 ADD MSTORE PUSH1 0x97 ADD SWAP5 SWAP4 POP POP POP POP JUMP JUMPDEST PUSH32 0x3C7265637420783D2233302220793D223837222077696474683D223234302220 DUP2 MSTORE PUSH13 0x3432B4B3B43A1E911A1911179F PUSH1 0x99 SHL PUSH1 0x20 DUP3 ADD MSTORE PUSH32 0x3C7465787420783D2233392220793D223132302220636C6173733D22746F6B65 PUSH1 0x2D DUP3 ADD MSTORE PUSH16 0x373991103334B6361E9111B33333111F PUSH1 0x81 SHL PUSH1 0x4D DUP3 ADD MSTORE PUSH1 0x0 DUP5 MLOAD PUSH2 0x4265 DUP2 PUSH1 0x5D DUP6 ADD PUSH1 0x20 DUP10 ADD PUSH2 0x3467 JUMP JUMPDEST PUSH1 0x2F PUSH1 0xF8 SHL PUSH1 0x5D SWAP2 DUP5 ADD SWAP2 DUP3 ADD MSTORE DUP5 MLOAD PUSH2 0x4286 DUP2 PUSH1 0x5E DUP5 ADD PUSH1 0x20 DUP10 ADD PUSH2 0x3467 JUMP JUMPDEST PUSH32 0x3C2F746578743E3C7265637420783D2233302220793D22313332222077696474 PUSH1 0x5E SWAP3 SWAP1 SWAP2 ADD SWAP2 DUP3 ADD MSTORE PUSH21 0x341E91191A1811103432B4B3B43A1E91199811179F PUSH1 0x59 SHL PUSH1 0x7E DUP3 ADD MSTORE PUSH32 0x3C7465787420783D2233392220793D22313230222064793D2233362220636C61 PUSH1 0x93 DUP3 ADD MSTORE PUSH21 0x39B99E913332B291103334B6361E9111B33333111F PUSH1 0x59 SHL PUSH1 0xB3 DUP3 ADD MSTORE PUSH2 0x4320 PUSH1 0xC8 DUP3 ADD DUP6 PUSH2 0x3DB4 JUMP JUMPDEST PUSH7 0x1E17BA32BC3A1F PUSH1 0xC9 SHL DUP2 MSTORE PUSH1 0x7 ADD SWAP7 SWAP6 POP POP POP POP POP POP JUMP JUMPDEST PUSH32 0x3C7265637420783D2233302220793D22333432222077696474683D2232343022 DUP2 MSTORE PUSH1 0x0 PUSH14 0x103432B4B3B43A1E91191A11179F PUSH1 0x91 SHL DUP1 PUSH1 0x20 DUP5 ADD MSTORE PUSH32 0x3C7465787420783D2233392220793D223336302220636C6173733D227469636B PUSH1 0x2E DUP5 ADD MSTORE PUSH32 0x222066696C6C3D2223666666223E4C6F776572207469636B3A20000000000000 PUSH1 0x4E DUP5 ADD MSTORE DUP5 MLOAD PUSH2 0x43D6 DUP2 PUSH1 0x68 DUP7 ADD PUSH1 0x20 DUP10 ADD PUSH2 0x3467 JUMP JUMPDEST DUP1 DUP5 ADD SWAP1 POP PUSH7 0x1E17BA32BC3A1F PUSH1 0xC9 SHL PUSH1 0x68 DUP3 ADD MSTORE PUSH32 0x3C7265637420783D2233302220793D22333732222077696474683D2232343022 PUSH1 0x6F DUP3 ADD MSTORE DUP2 PUSH1 0x8F DUP3 ADD MSTORE PUSH32 0x3C7465787420783D2233392220793D22333630222064793D2233302220636C61 PUSH1 0x9D DUP3 ADD MSTORE PUSH32 0x73733D227469636B222066696C6C3D2223666666223E5570706572207469636B PUSH1 0xBD DUP3 ADD MSTORE PUSH2 0x1D1 PUSH1 0xF5 SHL PUSH1 0xDD DUP3 ADD MSTORE PUSH2 0x447B PUSH1 0xDF DUP3 ADD DUP7 PUSH2 0x3DB4 JUMP JUMPDEST SWAP2 POP POP PUSH2 0x4491 DUP2 PUSH7 0x1E17BA32BC3A1F PUSH1 0xC9 SHL SWAP1 MSTORE JUMP JUMPDEST PUSH1 0x7 ADD SWAP5 SWAP4 POP POP POP POP JUMP JUMPDEST PUSH1 0x0 DUP7 MLOAD PUSH2 0x44AE DUP2 DUP5 PUSH1 0x20 DUP12 ADD PUSH2 0x3467 JUMP JUMPDEST PUSH1 0x2F PUSH1 0xF8 SHL SWAP1 DUP4 ADD SWAP1 DUP2 MSTORE DUP7 MLOAD PUSH2 0x44CC DUP2 PUSH1 0x1 DUP5 ADD PUSH1 0x20 DUP12 ADD PUSH2 0x3467 JUMP JUMPDEST PUSH1 0x1 PUSH1 0xFD SHL PUSH1 0x1 SWAP3 SWAP1 SWAP2 ADD SWAP2 DUP3 ADD MSTORE DUP6 MLOAD PUSH2 0x44EE DUP2 PUSH1 0x2 DUP5 ADD PUSH1 0x20 DUP11 ADD PUSH2 0x3467 JUMP JUMPDEST PUSH14 0x16102637BBB2B9103A34B1B59D1 PUSH1 0x95 SHL PUSH1 0x2 SWAP3 SWAP1 SWAP2 ADD SWAP2 DUP3 ADD MSTORE DUP5 MLOAD PUSH2 0x451D DUP2 PUSH1 0x10 DUP5 ADD PUSH1 0x20 DUP10 ADD PUSH2 0x3467 JUMP JUMPDEST PUSH14 0x16102AB83832B9103A32BC3A1D1 PUSH1 0x95 SHL PUSH1 0x10 SWAP3 SWAP1 SWAP2 ADD SWAP2 DUP3 ADD MSTORE DUP4 MLOAD PUSH2 0x454C DUP2 PUSH1 0x1E DUP5 ADD PUSH1 0x20 DUP9 ADD PUSH2 0x3467 JUMP JUMPDEST ADD PUSH1 0x1E ADD SWAP8 SWAP7 POP POP POP POP POP POP POP JUMP JUMPDEST PUSH1 0x1 PUSH1 0x1 PUSH1 0xA0 SHL SUB DUP3 DUP2 AND DUP3 DUP3 AND SUB SWAP1 DUP1 DUP3 GT ISZERO PUSH2 0x457B JUMPI PUSH2 0x457B PUSH2 0x3A95 JUMP JUMPDEST POP SWAP3 SWAP2 POP POP JUMP JUMPDEST PUSH1 0x0 DUP4 MLOAD PUSH2 0x4594 DUP2 DUP5 PUSH1 0x20 DUP9 ADD PUSH2 0x3467 JUMP JUMPDEST DUP4 MLOAD SWAP1 DUP4 ADD SWAP1 PUSH2 0x45A8 DUP2 DUP4 PUSH1 0x20 DUP9 ADD PUSH2 0x3467 JUMP JUMPDEST ADD SWAP5 SWAP4 POP POP POP POP JUMP INVALID COINBASE TIMESTAMP NUMBER DIFFICULTY GASLIMIT CHAINID SELFBALANCE BASEFEE 0x49 0x4A 0x4B 0x4C 0x4D 0x4E 0x4F POP MLOAD MSTORE MSTORE8 SLOAD SSTORE JUMP JUMPI PC MSIZE GAS PUSH2 0x6263 PUSH5 0x6566676869 PUSH11 0x6B6C6D6E6F707172737475 PUSH23 0x7778797A303132333435363738392B2FA2646970667358 0x22 SLT KECCAK256 0xD DIV CALLCODE EXTCODESIZE ORIGIN SELFBALANCE 0xC6 PUSH0 RETURNDATASIZE 0xD3 PUSH2 0x683A CALLVALUE 0xE7 PUSH13 0xA663BDA53BD7FC03FA73AD38AB 0xBE DUP9 DUP3 PUSH5 0x736F6C6343 STOP ADDMOD EQ STOP CALLER ",
    "sha1": "4e919b931958e9a98fd4545d8b92b913d6c06b89",
    "source": "// SPDX-License-Identifier: GPL-2.0-or-later\npragma solidity ^0.8.14;\n\nimport \"./PoolFactory.sol\";\nimport \"./ERC721.sol\";\nimport \"./HelpFunctions.sol\";\nimport \"../interface_contracts/IERC20.sol\";\nimport \"../interface_contracts/IUniswapV3Pool.sol\";\nimport \"./lib/LiquidityMath.sol\";\nimport \"./lib/NFTRenderer.sol\";\nimport \"./lib/TickMath.sol\";\n\ncontract NFT is ERC721 {\n    error WrongToken();\n    error PositionNotCleared();\n    error SlippageCheckFailed(uint256 amount0, uint256 amount1);\n    error TooLittleReceived(uint256 amountOut);\n\n    /*\n    Custom Errors\n    */\n    error NotAuthorized();\n    error NotEnoughLiquidity();\n\n    /*\n    Events\n    */\n    event AddLiquidity(\n        uint256 indexed tokenId,\n        uint128 liquidity,\n        uint256 amount0,\n        uint256 amount1\n    );\n\n    event RemoveLiquidity(\n        uint256 indexed tokenId,\n        uint128 liquidity,\n        uint256 amount0,\n        uint256 amount1\n    );\n\n    /*\n    Structs\n    */\n    struct AddLiquidityParams {\n        uint256 tokenId;\n        uint256 amount0Desired;\n        uint256 amount1Desired;\n        uint256 amount0Min;\n        uint256 amount1Min;\n    }\n\n    struct RemoveLiquidityParams {\n        uint256 tokenId;\n        uint128 liquidity;\n    }\n\n    /*\n    Variables\n    */\n    uint256 public totalSupply;\n    uint256 private nextTokenId;\n\n    address public immutable factory;\n    PoolFactory poolfactory;\n\n    /*\n    Mappings\n    */\n    mapping(uint256 => TokenPosition) public positions;\n    mapping(address => uint256[]) public userOwnedPositions;\n    mapping(uint256 => bool) public burnedIds;\n\n    /*\n    Modifiers\n    */\n    modifier isApprovedOrOwner(uint256 tokenId) {\n        address owner = ownerOf(tokenId);\n        if (\n            msg.sender != owner &&\n            !isApprovedForAll[owner][msg.sender] &&\n            getApproved[tokenId] != msg.sender\n        ) revert NotAuthorized();\n\n        _;\n    }\n\n    /*\n    Constructor\n    */\n    constructor(address factoryAddress) ERC721(\"NFT Positions\", \"PosNFT\") {\n        factory = factoryAddress;\n        poolfactory = PoolFactory(factory);\n    }\n\n    struct TokenPosition {\n        address pool;\n        int24 lowerTick;\n        int24 upperTick;\n    }\n\n    /*\n    Public \n    */\n    /// @notice Used for setting new positions. Mints an NFT connected to the created position\n    /// An array with the following parameters:\n    ///             recipient: the user who is minting the new position\n    ///             tokenA: first token in the pool where the position is being minted\n    ///             tokenB: second token in the pool where the position is being minted\n    ///             fee: fee of the pool where the position is being minted\n    ///             lowerTick: lower tick of the position being minted\n    ///             upperTick: upper tick of the position being minted\n    ///             amount0Desired:amount of first token we want to add to the position as liquidity\n    ///             amount1Desired:amount of second token we want to add to the position as liquidity\n    ///             amount0Min: min amount of first token we want to add to the position as liquidity\n    ///             amount1Min: min amount of second token we want to add to the position as liquidity\n    function mint(address recipient,\n                address tokenA,\n                address tokenB,\n                uint24 fee,\n        int24 lowerTick,\n        int24 upperTick,\n        uint256 amount0Desired,\n        uint256 amount1Desired,\n        uint256 amount0Min,\n        uint256 amount1Min) public returns (uint256 tokenId) {\n        IUniswapV3Pool pool = IUniswapV3Pool(poolfactory.pools(\n            tokenA,\n            tokenB,\n            fee\n        )); \n \n        (uint128 liquidity, uint256 amount0, uint256 amount1) = _addLiquidity(\n            HelpFunctions.AddLiquidityInternalParams({\n                pool: pool,\n                lowerTick: lowerTick,\n                upperTick: upperTick,\n                amount0Desired: amount0Desired,\n                amount1Desired: amount1Desired,\n                amount0Min: amount0Min,\n                amount1Min: amount1Min\n            })\n        );\n        \n        tokenId = nextTokenId++;\n\n        _mint(recipient, tokenId);\n        totalSupply++;\n\n        TokenPosition memory tokenPosition = TokenPosition({\n            pool: address(pool),\n            lowerTick: lowerTick,\n            upperTick: upperTick\n        });\n\n        positions[tokenId] = tokenPosition;\n        userOwnedPositions[msg.sender].push(tokenId);\n\n        emit AddLiquidity(tokenId, liquidity, amount0, amount1);\n    }\n\n    /// @notice Burns an NFT related to a liquidity position\n    /// @param tokenId The id of the NFT we wish to burn\n    /// @dev This method will fail if called before the user removes all liquidity from the corresponding positions\n    ///      and collects the corresponding tokens\n    function burn(uint256 tokenId) public isApprovedOrOwner(tokenId) {\n        TokenPosition memory tokenPosition = positions[tokenId];\n        if (tokenPosition.pool == address(0x00))\n            revert HelpFunctions.WrongToken();\n\n        IUniswapV3Pool pool = IUniswapV3Pool(tokenPosition.pool);\n        (uint128 liquidity, , , uint128 tokensOwed0, uint128 tokensOwed1) = pool\n            .positions(_poolPositionKey(tokenPosition));\n\n        if (liquidity > 0 || tokensOwed0 > 0 || tokensOwed1 > 0)\n            revert HelpFunctions.PositionNotCleared();\n\n        delete positions[tokenId];\n        burnedIds[tokenId] = true;\n        _burn(tokenId);\n        totalSupply--;\n    }\n\n    /// @notice collects the tokens relative to a cleared (or partially cleared) position.\n    /// @param tokenId: the token Id of the position we wish to collect\n    /// @dev Can only be called after the user has removed some liquidity from the position\n    function collect(\n        uint256 tokenId\n    )\n        public\n        isApprovedOrOwner(tokenId)\n        returns (uint128 amount0, uint128 amount1)\n    {\n        TokenPosition memory tokenPosition = positions[tokenId];\n        if (tokenPosition.pool == address(0x00))\n            revert HelpFunctions.WrongToken();\n\n        IUniswapV3Pool pool = IUniswapV3Pool(tokenPosition.pool);\n\n        (, , , uint128 tokensOwed0, uint128 tokensOwed1) = pool.positions(\n            _poolPositionKey(tokenPosition)\n        );\n\n        (amount0, amount1) = pool.collect(\n            msg.sender,\n            tokenPosition.lowerTick,\n            tokenPosition.upperTick,\n            tokensOwed0,\n            tokensOwed1\n        );\n    }\n\n    /// @notice adds liquidity to an existing position.\n    /// @param params: an array with the following parameters:\n    ///             tokenId: the token Id of the position we wish to add liquidity too\n    ///             amount0Desired: amount of token 0 we want to add\n    ///             amount1Desired: amount of token 1 we want to add\n    ///             amount0Min: min amount of token 0 we want to add\n    ///             amount1Min: min amount of token 1 we want to add\n    /// @dev does not mint a new NFT. It only updates the position info\n    function addLiquidity(\n        AddLiquidityParams calldata params\n    ) public returns (uint128 liquidity, uint256 amount0, uint256 amount1) {\n        TokenPosition memory tokenPosition = positions[params.tokenId];\n\n        if (tokenPosition.pool == address(0x00))\n            revert HelpFunctions.WrongToken();\n\n        (liquidity, amount0, amount1) = _addLiquidity(\n            HelpFunctions.AddLiquidityInternalParams({\n                pool: IUniswapV3Pool(tokenPosition.pool),\n                lowerTick: tokenPosition.lowerTick,\n                upperTick: tokenPosition.upperTick,\n                amount0Desired: params.amount0Desired,\n                amount1Desired: params.amount1Desired,\n                amount0Min: params.amount0Min,\n                amount1Min: params.amount1Min\n            })\n        );\n\n        emit AddLiquidity(params.tokenId, liquidity, amount0, amount1);\n    }\n\n    /// @notice removes liquidity from an existing position.\n    /// @param params: an array with the following parameters:\n    ///             tokenId: the token Id of the position we wish to remove liquidity from\n    ///             liquidity: the liquidity amount we wish to remove\n    /// @dev does not burn the NFT and does not return the tokens to the user (use collect for that).\n    ///     It only updates the position info\n    function removeLiquidity(\n        RemoveLiquidityParams memory params\n    )\n        public\n        isApprovedOrOwner(params.tokenId)\n        returns (uint256 amount0, uint256 amount1)\n    {\n        TokenPosition memory tokenPosition = positions[params.tokenId];\n\n        if (tokenPosition.pool == address(0x00))\n            revert HelpFunctions.WrongToken();\n\n        IUniswapV3Pool pool = IUniswapV3Pool(tokenPosition.pool);\n\n        (uint128 availableLiquidity, , , , ) = pool.positions(\n            _poolPositionKey(tokenPosition)\n        );\n        if (params.liquidity > availableLiquidity) revert NotEnoughLiquidity();\n\n        (amount0, amount1) = pool.burn(\n            tokenPosition.lowerTick,\n            tokenPosition.upperTick,\n            params.liquidity\n        );\n\n        emit RemoveLiquidity(\n            params.tokenId,\n            params.liquidity,\n            amount0,\n            amount1\n        );\n    }\n\n    /// @notice help function to transfer the tokens.\n    function uniswapV3MintCallback(\n        uint256 amount0,\n        uint256 amount1,\n        bytes calldata data\n    ) public {\n        IUniswapV3Pool.CallbackData memory extra = abi.decode(\n            data,\n            (IUniswapV3Pool.CallbackData)\n        );\n        IERC20(extra.token0).transferFrom(extra.payer, msg.sender, amount0);\n        IERC20(extra.token1).transferFrom(extra.payer, msg.sender, amount1);\n    }\n\n    /*\n    Public - View\n     */\n\n    /// @notice Returns a list of all Liquidity Token IDs assigned to an address.\n    /// @param _owner The owner whose nfts we are interested in.\n    /// @dev This method MUST NEVER be called by smart contract code. First, it's fairly\n    ///  expensive (it walks the entire token array looking for tokens belonging to owner),\n    ///  but it also returns a dynamic array, which is only supported for web3 calls, and\n    ///  not contract-to-contract calls.\n    function tokensOfOwner(\n        address _owner\n    ) public view returns (uint256[] memory ownerTokens) {\n        uint256 tokenCount = balanceOf(_owner);\n\n        if (tokenCount == 0) {\n            // Return an empty array\n            return new uint256[](0);\n        } else {\n            uint256[] memory result = new uint256[](tokenCount);\n            uint256 totalTokens = nextTokenId;\n            uint256 resultIndex = 0;\n\n            // We count on the fact that all tokens have IDs starting at 0 and increasing\n            // sequentially up to the totalTokens count.\n            uint256 tokenId;\n\n            while (resultIndex < totalTokens && tokenId < totalTokens) {\n                if (burnedIds[tokenId] != true) {\n                    if (ownerOf(tokenId) == _owner) {\n                        result[resultIndex] = tokenId;\n                        resultIndex++;\n                    }\n                }\n                tokenId++;\n            }\n\n            return result;\n        }\n    }\n\n    /// @notice receives a tokenId and returns all the information regarding that tokens position.\n    /// @param tokenId: the token Id\n    function tokenIDtoPosition(\n        uint256 tokenId\n    ) public view returns (address, uint128, uint128, uint128, int24, int24) {\n        TokenPosition memory tokenPosition = positions[tokenId];\n        if (tokenPosition.pool == address(0x00))\n            revert HelpFunctions.WrongToken();\n\n        IUniswapV3Pool pool = IUniswapV3Pool(tokenPosition.pool);\n        (uint128 liquidity, , , uint128 tokensOwed0, uint128 tokensOwed1) = pool\n            .positions(_poolPositionKey(tokenPosition));\n        return (\n            tokenPosition.pool,\n            liquidity,\n            tokensOwed0,\n            tokensOwed1,\n            tokenPosition.lowerTick,\n            tokenPosition.upperTick\n        );\n    }\n\n    /// @notice Gets a positions owed fees\n    /// @param tokenId The id of the NFT we wish to know the owed fees\n    function _getFees(\n        uint256 tokenId\n    )\n        public\n        view\n        returns (uint256 updatedTokensOwed0, uint256 updatedTokensOwed1)\n    {\n        TokenPosition memory tokenPosition = positions[tokenId];\n        if (tokenPosition.pool == address(0x00))\n            revert HelpFunctions.WrongToken();\n\n        IUniswapV3Pool pool = IUniswapV3Pool(tokenPosition.pool);\n\n        (updatedTokensOwed0, updatedTokensOwed1) = pool.getFees(\n            tokenPosition.lowerTick,\n            tokenPosition.upperTick,\n            address(this)\n        );\n    }\n\n    /// @notice receives an user address and returns all the information regarding all the token positions he has.\n    /// @param user: address of an user\n    function userToAllPositions(\n        address user\n    )\n        public\n        view\n        returns (\n            address[] memory,\n            uint128[] memory,\n            uint128[] memory,\n            uint128[] memory,\n            int24[] memory,\n            int24[] memory\n        )\n    {\n        uint256[] memory _tokensOfOwner = tokensOfOwner(user);\n        address[] memory poolAdresses = new address[](_tokensOfOwner.length);\n        uint128[] memory liquidities = new uint128[](_tokensOfOwner.length);\n        uint128[] memory _tokensOwed0 = new uint128[](_tokensOfOwner.length);\n        uint128[] memory _tokensOwed1 = new uint128[](_tokensOfOwner.length);\n\n        int24[] memory lowerTicks = new int24[](_tokensOfOwner.length);\n        int24[] memory upperTicks = new int24[](_tokensOfOwner.length);\n\n        for (uint i = 0; i < _tokensOfOwner.length; ++i) {\n            TokenPosition memory tokenPosition = positions[_tokensOfOwner[i]];\n            if (tokenPosition.pool == address(0x00))\n                revert HelpFunctions.WrongToken();\n\n            IUniswapV3Pool pool = IUniswapV3Pool(tokenPosition.pool);\n            (\n                uint128 liquidity,\n                ,\n                ,\n                uint128 tokensOwed0,\n                uint128 tokensOwed1\n            ) = pool.positions(_poolPositionKey(tokenPosition));\n\n            poolAdresses[i] = tokenPosition.pool;\n            liquidities[i] = liquidity;\n            _tokensOwed0[i] = tokensOwed0;\n            _tokensOwed1[i] = tokensOwed1;\n            lowerTicks[i] = tokenPosition.lowerTick;\n            upperTicks[i] = tokenPosition.upperTick;\n        }\n        return (\n            poolAdresses,\n            liquidities,\n            _tokensOwed0,\n            _tokensOwed1,\n            lowerTicks,\n            upperTicks\n        );\n    }\n\n    /// @notice receives an user address and returns all the fees regarding all the token positions he has.\n    /// @param user: address of an user\n    function userToAllPositionsFees(\n        address user\n    ) public view returns (uint256[] memory, uint256[] memory) {\n        uint256[] memory _tokensOfOwner = tokensOfOwner(user);\n\n        uint256[] memory _updatedTokensOwed0 = new uint256[](\n            _tokensOfOwner.length\n        );\n        uint256[] memory _updatedTokensOwed1 = new uint256[](\n            _tokensOfOwner.length\n        );\n\n        for (uint i = 0; i < _tokensOfOwner.length; ++i) {\n            (uint256 updatedTokensOwed0, uint256 updatedTokensOwed1) = _getFees(\n                _tokensOfOwner[i]\n            );\n            _updatedTokensOwed0[i] = updatedTokensOwed0;\n            _updatedTokensOwed1[i] = updatedTokensOwed1;\n        }\n        return (_updatedTokensOwed0, _updatedTokensOwed1);\n    }\n\n    /// @notice returns the URI of the image of an NFT token.\n    /// @param tokenId: the token Id\n    function tokenURI(\n        uint256 tokenId\n    ) public view override returns (string memory) {\n        TokenPosition memory tokenPosition = positions[tokenId];\n\n        if (tokenPosition.pool == address(0x00))\n            revert HelpFunctions.WrongToken();\n\n        IUniswapV3Pool pool = IUniswapV3Pool(tokenPosition.pool);\n\n        IERC20 token0 = IERC20(pool.token0());\n        IERC20 token1 = IERC20(pool.token1());\n\n        string memory symbol0 = token0.symbol();\n        string memory symbol1 = token1.symbol();\n\n        return\n            NFTRenderer.render(\n                NFTRenderer.RenderParams({\n                    symbol0: symbol0,\n                    symbol1: symbol1,\n                    owner: address(this),\n                    lowerTick: tokenPosition.lowerTick,\n                    upperTick: tokenPosition.upperTick,\n                    fee: pool.fee()\n                })\n            );\n    }\n\n    /*\n    Internal\n    */\n    /// @notice returns position ID within a pool\n    /// @param position: an array with the following parameters:\n    ///             pool: the token Id\n    ///             lowerTick: the token Id\n    ///             upperTick: the token Id\n    function _poolPositionKey(\n        TokenPosition memory position\n    ) internal view returns (bytes32 key) {\n        key = keccak256(\n            abi.encodePacked(\n                address(this),\n                position.lowerTick,\n                position.upperTick\n            )\n        );\n    }\n\n    /// @notice help function to add liquidity anytime we mint or add liquidity to an existing position\n    function _addLiquidity(\n        HelpFunctions.AddLiquidityInternalParams memory params\n    ) internal returns (uint128 liquidity, uint256 amount0, uint256 amount1) {\n        \n        (uint160 sqrtPriceX96, , , , ) = params.pool.slot0();\n\n        liquidity = LiquidityMath.getLiquidityForAmounts(\n            sqrtPriceX96,\n            TickMath.getSqrtRatioAtTick(params.lowerTick),\n            TickMath.getSqrtRatioAtTick(params.upperTick),\n            params.amount0Desired,\n            params.amount1Desired\n        );\n        \n        (amount0, amount1) = params.pool.mint(\n            address(this),\n            params.lowerTick,\n            params.upperTick,\n            liquidity,\n            abi.encode(\n                IUniswapV3Pool.CallbackData({\n                    token0: params.pool.token0(),\n                    token1: params.pool.token1(),\n                    payer: msg.sender\n                })\n            )\n        );\n\n        if (amount0 < params.amount0Min || amount1 < params.amount1Min)\n            revert HelpFunctions.SlippageCheckFailed(amount0, amount1);\n    }\n}\n",
    "sourcePath": "contracts/NFT.sol",
    "type": "contract"
}