{
  "abi": [
    {
      "inputs": [
        {
          "internalType": "address",
          "name": "factoryAddress",
          "type": "address"
        }
      ],
      "stateMutability": "nonpayable",
      "type": "constructor"
    },
    {
      "inputs": [],
      "name": "NotAuthorized",
      "type": "error"
    },
    {
      "inputs": [],
      "name": "NotEnoughLiquidity",
      "type": "error"
    },
    {
      "inputs": [
        {
          "internalType": "uint256",
          "name": "prod1",
          "type": "uint256"
        },
        {
          "internalType": "uint256",
          "name": "denominator",
          "type": "uint256"
        }
      ],
      "name": "PRBMath__MulDivOverflow",
      "type": "error"
    },
    {
      "inputs": [],
      "name": "PositionNotCleared",
      "type": "error"
    },
    {
      "inputs": [],
      "name": "PositionNotCleared",
      "type": "error"
    },
    {
      "inputs": [
        {
          "internalType": "uint256",
          "name": "amount0",
          "type": "uint256"
        },
        {
          "internalType": "uint256",
          "name": "amount1",
          "type": "uint256"
        }
      ],
      "name": "SlippageCheckFailed",
      "type": "error"
    },
    {
      "inputs": [
        {
          "internalType": "uint256",
          "name": "amount0",
          "type": "uint256"
        },
        {
          "internalType": "uint256",
          "name": "amount1",
          "type": "uint256"
        }
      ],
      "name": "SlippageCheckFailed",
      "type": "error"
    },
    {
      "inputs": [
        {
          "internalType": "uint256",
          "name": "amountOut",
          "type": "uint256"
        }
      ],
      "name": "TooLittleReceived",
      "type": "error"
    },
    {
      "inputs": [],
      "name": "WrongToken",
      "type": "error"
    },
    {
      "inputs": [],
      "name": "WrongToken",
      "type": "error"
    },
    {
      "anonymous": false,
      "inputs": [
        {
          "indexed": true,
          "internalType": "uint256",
          "name": "tokenId",
          "type": "uint256"
        },
        {
          "indexed": false,
          "internalType": "uint128",
          "name": "liquidity",
          "type": "uint128"
        },
        {
          "indexed": false,
          "internalType": "uint256",
          "name": "amount0",
          "type": "uint256"
        },
        {
          "indexed": false,
          "internalType": "uint256",
          "name": "amount1",
          "type": "uint256"
        }
      ],
      "name": "AddLiquidity",
      "type": "event"
    },
    {
      "anonymous": false,
      "inputs": [
        {
          "indexed": true,
          "internalType": "address",
          "name": "owner",
          "type": "address"
        },
        {
          "indexed": true,
          "internalType": "address",
          "name": "spender",
          "type": "address"
        },
        {
          "indexed": true,
          "internalType": "uint256",
          "name": "id",
          "type": "uint256"
        }
      ],
      "name": "Approval",
      "type": "event"
    },
    {
      "anonymous": false,
      "inputs": [
        {
          "indexed": true,
          "internalType": "address",
          "name": "owner",
          "type": "address"
        },
        {
          "indexed": true,
          "internalType": "address",
          "name": "operator",
          "type": "address"
        },
        {
          "indexed": false,
          "internalType": "bool",
          "name": "approved",
          "type": "bool"
        }
      ],
      "name": "ApprovalForAll",
      "type": "event"
    },
    {
      "anonymous": false,
      "inputs": [
        {
          "indexed": true,
          "internalType": "uint256",
          "name": "tokenId",
          "type": "uint256"
        },
        {
          "indexed": false,
          "internalType": "uint128",
          "name": "liquidity",
          "type": "uint128"
        },
        {
          "indexed": false,
          "internalType": "uint256",
          "name": "amount0",
          "type": "uint256"
        },
        {
          "indexed": false,
          "internalType": "uint256",
          "name": "amount1",
          "type": "uint256"
        }
      ],
      "name": "RemoveLiquidity",
      "type": "event"
    },
    {
      "anonymous": false,
      "inputs": [
        {
          "indexed": true,
          "internalType": "address",
          "name": "from",
          "type": "address"
        },
        {
          "indexed": true,
          "internalType": "address",
          "name": "to",
          "type": "address"
        },
        {
          "indexed": true,
          "internalType": "uint256",
          "name": "id",
          "type": "uint256"
        }
      ],
      "name": "Transfer",
      "type": "event"
    },
    {
      "inputs": [
        {
          "internalType": "uint256",
          "name": "tokenId",
          "type": "uint256"
        }
      ],
      "name": "_getFees",
      "outputs": [
        {
          "internalType": "uint256",
          "name": "updatedTokensOwed0",
          "type": "uint256"
        },
        {
          "internalType": "uint256",
          "name": "updatedTokensOwed1",
          "type": "uint256"
        }
      ],
      "stateMutability": "view",
      "type": "function"
    },
    {
      "inputs": [
        {
          "internalType": "uint256",
          "name": "tokenId",
          "type": "uint256"
        },
        {
          "internalType": "uint256",
          "name": "amount0Desired",
          "type": "uint256"
        },
        {
          "internalType": "uint256",
          "name": "amount1Desired",
          "type": "uint256"
        },
        {
          "internalType": "uint256",
          "name": "amount0Min",
          "type": "uint256"
        },
        {
          "internalType": "uint256",
          "name": "amount1Min",
          "type": "uint256"
        }
      ],
      "name": "addLiquidity",
      "outputs": [
        {
          "internalType": "uint128",
          "name": "liquidity",
          "type": "uint128"
        },
        {
          "internalType": "uint256",
          "name": "amount0",
          "type": "uint256"
        },
        {
          "internalType": "uint256",
          "name": "amount1",
          "type": "uint256"
        }
      ],
      "stateMutability": "nonpayable",
      "type": "function"
    },
    {
      "inputs": [
        {
          "internalType": "address",
          "name": "spender",
          "type": "address"
        },
        {
          "internalType": "uint256",
          "name": "id",
          "type": "uint256"
        }
      ],
      "name": "approve",
      "outputs": [],
      "stateMutability": "nonpayable",
      "type": "function"
    },
    {
      "inputs": [
        {
          "internalType": "address",
          "name": "owner",
          "type": "address"
        }
      ],
      "name": "balanceOf",
      "outputs": [
        {
          "internalType": "uint256",
          "name": "",
          "type": "uint256"
        }
      ],
      "stateMutability": "view",
      "type": "function"
    },
    {
      "inputs": [
        {
          "internalType": "uint256",
          "name": "tokenId",
          "type": "uint256"
        }
      ],
      "name": "burn",
      "outputs": [],
      "stateMutability": "nonpayable",
      "type": "function"
    },
    {
      "inputs": [
        {
          "internalType": "uint256",
          "name": "",
          "type": "uint256"
        }
      ],
      "name": "burnedIds",
      "outputs": [
        {
          "internalType": "bool",
          "name": "",
          "type": "bool"
        }
      ],
      "stateMutability": "view",
      "type": "function"
    },
    {
      "inputs": [
        {
          "internalType": "uint256",
          "name": "tokenId",
          "type": "uint256"
        }
      ],
      "name": "collect",
      "outputs": [
        {
          "internalType": "uint128",
          "name": "amount0",
          "type": "uint128"
        },
        {
          "internalType": "uint128",
          "name": "amount1",
          "type": "uint128"
        }
      ],
      "stateMutability": "nonpayable",
      "type": "function"
    },
    {
      "inputs": [],
      "name": "factory",
      "outputs": [
        {
          "internalType": "address",
          "name": "",
          "type": "address"
        }
      ],
      "stateMutability": "view",
      "type": "function"
    },
    {
      "inputs": [
        {
          "internalType": "uint256",
          "name": "",
          "type": "uint256"
        }
      ],
      "name": "getApproved",
      "outputs": [
        {
          "internalType": "address",
          "name": "",
          "type": "address"
        }
      ],
      "stateMutability": "view",
      "type": "function"
    },
    {
      "inputs": [
        {
          "internalType": "address",
          "name": "",
          "type": "address"
        },
        {
          "internalType": "address",
          "name": "",
          "type": "address"
        }
      ],
      "name": "isApprovedForAll",
      "outputs": [
        {
          "internalType": "bool",
          "name": "",
          "type": "bool"
        }
      ],
      "stateMutability": "view",
      "type": "function"
    },
    {
      "inputs": [
        {
          "internalType": "address",
          "name": "recipient",
          "type": "address"
        },
        {
          "internalType": "address",
          "name": "tokenA",
          "type": "address"
        },
        {
          "internalType": "address",
          "name": "tokenB",
          "type": "address"
        },
        {
          "internalType": "uint24",
          "name": "fee",
          "type": "uint24"
        },
        {
          "internalType": "int24",
          "name": "lowerTick",
          "type": "int24"
        },
        {
          "internalType": "int24",
          "name": "upperTick",
          "type": "int24"
        },
        {
          "internalType": "uint256",
          "name": "amount0Desired",
          "type": "uint256"
        },
        {
          "internalType": "uint256",
          "name": "amount1Desired",
          "type": "uint256"
        },
        {
          "internalType": "uint256",
          "name": "amount0Min",
          "type": "uint256"
        },
        {
          "internalType": "uint256",
          "name": "amount1Min",
          "type": "uint256"
        }
      ],
      "name": "mint",
      "outputs": [
        {
          "internalType": "uint256",
          "name": "tokenId",
          "type": "uint256"
        }
      ],
      "stateMutability": "nonpayable",
      "type": "function"
    },
    {
      "inputs": [],
      "name": "name",
      "outputs": [
        {
          "internalType": "string",
          "name": "",
          "type": "string"
        }
      ],
      "stateMutability": "view",
      "type": "function"
    },
    {
      "inputs": [
        {
          "internalType": "uint256",
          "name": "id",
          "type": "uint256"
        }
      ],
      "name": "ownerOf",
      "outputs": [
        {
          "internalType": "address",
          "name": "owner",
          "type": "address"
        }
      ],
      "stateMutability": "view",
      "type": "function"
    },
    {
      "inputs": [
        {
          "internalType": "uint256",
          "name": "",
          "type": "uint256"
        }
      ],
      "name": "positions",
      "outputs": [
        {
          "internalType": "address",
          "name": "pool",
          "type": "address"
        },
        {
          "internalType": "int24",
          "name": "lowerTick",
          "type": "int24"
        },
        {
          "internalType": "int24",
          "name": "upperTick",
          "type": "int24"
        }
      ],
      "stateMutability": "view",
      "type": "function"
    },
    {
      "inputs": [
        {
          "internalType": "uint256",
          "name": "tokenId",
          "type": "uint256"
        },
        {
          "internalType": "uint128",
          "name": "liquidity",
          "type": "uint128"
        }
      ],
      "name": "removeLiquidity",
      "outputs": [
        {
          "internalType": "uint256",
          "name": "amount0",
          "type": "uint256"
        },
        {
          "internalType": "uint256",
          "name": "amount1",
          "type": "uint256"
        }
      ],
      "stateMutability": "nonpayable",
      "type": "function"
    },
    {
      "inputs": [
        {
          "internalType": "address",
          "name": "from",
          "type": "address"
        },
        {
          "internalType": "address",
          "name": "to",
          "type": "address"
        },
        {
          "internalType": "uint256",
          "name": "id",
          "type": "uint256"
        }
      ],
      "name": "safeTransferFrom",
      "outputs": [],
      "stateMutability": "nonpayable",
      "type": "function"
    },
    {
      "inputs": [
        {
          "internalType": "address",
          "name": "from",
          "type": "address"
        },
        {
          "internalType": "address",
          "name": "to",
          "type": "address"
        },
        {
          "internalType": "uint256",
          "name": "id",
          "type": "uint256"
        },
        {
          "internalType": "bytes",
          "name": "data",
          "type": "bytes"
        }
      ],
      "name": "safeTransferFrom",
      "outputs": [],
      "stateMutability": "nonpayable",
      "type": "function"
    },
    {
      "inputs": [
        {
          "internalType": "address",
          "name": "operator",
          "type": "address"
        },
        {
          "internalType": "bool",
          "name": "approved",
          "type": "bool"
        }
      ],
      "name": "setApprovalForAll",
      "outputs": [],
      "stateMutability": "nonpayable",
      "type": "function"
    },
    {
      "inputs": [
        {
          "internalType": "bytes4",
          "name": "interfaceId",
          "type": "bytes4"
        }
      ],
      "name": "supportsInterface",
      "outputs": [
        {
          "internalType": "bool",
          "name": "",
          "type": "bool"
        }
      ],
      "stateMutability": "view",
      "type": "function"
    },
    {
      "inputs": [],
      "name": "symbol",
      "outputs": [
        {
          "internalType": "string",
          "name": "",
          "type": "string"
        }
      ],
      "stateMutability": "view",
      "type": "function"
    },
    {
      "inputs": [
        {
          "internalType": "uint256",
          "name": "tokenId",
          "type": "uint256"
        }
      ],
      "name": "tokenIDtoPosition",
      "outputs": [
        {
          "internalType": "address",
          "name": "",
          "type": "address"
        },
        {
          "internalType": "uint128",
          "name": "",
          "type": "uint128"
        },
        {
          "internalType": "uint128",
          "name": "",
          "type": "uint128"
        },
        {
          "internalType": "uint128",
          "name": "",
          "type": "uint128"
        },
        {
          "internalType": "int24",
          "name": "",
          "type": "int24"
        },
        {
          "internalType": "int24",
          "name": "",
          "type": "int24"
        }
      ],
      "stateMutability": "view",
      "type": "function"
    },
    {
      "inputs": [
        {
          "internalType": "uint256",
          "name": "tokenId",
          "type": "uint256"
        }
      ],
      "name": "tokenURI",
      "outputs": [
        {
          "internalType": "string",
          "name": "",
          "type": "string"
        }
      ],
      "stateMutability": "view",
      "type": "function"
    },
    {
      "inputs": [
        {
          "internalType": "address",
          "name": "_owner",
          "type": "address"
        }
      ],
      "name": "tokensOfOwner",
      "outputs": [
        {
          "internalType": "uint256[]",
          "name": "ownerTokens",
          "type": "uint256[]"
        }
      ],
      "stateMutability": "view",
      "type": "function"
    },
    {
      "inputs": [],
      "name": "totalSupply",
      "outputs": [
        {
          "internalType": "uint256",
          "name": "",
          "type": "uint256"
        }
      ],
      "stateMutability": "view",
      "type": "function"
    },
    {
      "inputs": [
        {
          "internalType": "address",
          "name": "from",
          "type": "address"
        },
        {
          "internalType": "address",
          "name": "to",
          "type": "address"
        },
        {
          "internalType": "uint256",
          "name": "id",
          "type": "uint256"
        }
      ],
      "name": "transferFrom",
      "outputs": [],
      "stateMutability": "nonpayable",
      "type": "function"
    },
    {
      "inputs": [
        {
          "internalType": "uint256",
          "name": "amount0",
          "type": "uint256"
        },
        {
          "internalType": "uint256",
          "name": "amount1",
          "type": "uint256"
        },
        {
          "internalType": "bytes",
          "name": "data",
          "type": "bytes"
        }
      ],
      "name": "uniswapV3MintCallback",
      "outputs": [],
      "stateMutability": "nonpayable",
      "type": "function"
    },
    {
      "inputs": [
        {
          "internalType": "address",
          "name": "",
          "type": "address"
        },
        {
          "internalType": "uint256",
          "name": "",
          "type": "uint256"
        }
      ],
      "name": "userOwnedPositions",
      "outputs": [
        {
          "internalType": "uint256",
          "name": "",
          "type": "uint256"
        }
      ],
      "stateMutability": "view",
      "type": "function"
    },
    {
      "inputs": [
        {
          "internalType": "address",
          "name": "user",
          "type": "address"
        }
      ],
      "name": "userToAllPositionsFees",
      "outputs": [
        {
          "internalType": "uint256[]",
          "name": "",
          "type": "uint256[]"
        },
        {
          "internalType": "uint256[]",
          "name": "",
          "type": "uint256[]"
        },
        {
          "internalType": "uint256[]",
          "name": "",
          "type": "uint256[]"
        }
      ],
      "stateMutability": "view",
      "type": "function"
    },
    {
      "inputs": [
        {
          "internalType": "address",
          "name": "user",
          "type": "address"
        }
      ],
      "name": "userToAllPositionsOne",
      "outputs": [
        {
          "internalType": "uint256[]",
          "name": "",
          "type": "uint256[]"
        },
        {
          "internalType": "address[]",
          "name": "",
          "type": "address[]"
        },
        {
          "internalType": "uint128[]",
          "name": "",
          "type": "uint128[]"
        },
        {
          "internalType": "int24[]",
          "name": "",
          "type": "int24[]"
        },
        {
          "internalType": "int24[]",
          "name": "",
          "type": "int24[]"
        }
      ],
      "stateMutability": "view",
      "type": "function"
    },
    {
      "inputs": [
        {
          "internalType": "address",
          "name": "user",
          "type": "address"
        }
      ],
      "name": "userToAllPositionsTwo",
      "outputs": [
        {
          "internalType": "uint256[]",
          "name": "",
          "type": "uint256[]"
        },
        {
          "internalType": "int256[]",
          "name": "",
          "type": "int256[]"
        },
        {
          "internalType": "int256[]",
          "name": "",
          "type": "int256[]"
        },
        {
          "internalType": "uint128[]",
          "name": "",
          "type": "uint128[]"
        },
        {
          "internalType": "uint128[]",
          "name": "",
          "type": "uint128[]"
        }
      ],
      "stateMutability": "view",
      "type": "function"
    }
  ],
  "bytecode": "60a06040523480156200001157600080fd5b5060405162004bad38038062004bad8339810160408190526200003491620000c3565b6040518060400160405280600d81526020016c4e465420506f736974696f6e7360981b81525060405180604001604052806006815260200165141bdcd3919560d21b81525081600090816200008a91906200019a565b5060016200009982826200019a565b5050506001600160a01b03166080819052600880546001600160a01b031916909117905562000266565b600060208284031215620000d657600080fd5b81516001600160a01b0381168114620000ee57600080fd5b9392505050565b634e487b7160e01b600052604160045260246000fd5b600181811c908216806200012057607f821691505b6020821081036200014157634e487b7160e01b600052602260045260246000fd5b50919050565b601f8211156200019557600081815260208120601f850160051c81016020861015620001705750805b601f850160051c820191505b8181101562000191578281556001016200017c565b5050505b505050565b81516001600160401b03811115620001b657620001b6620000f5565b620001ce81620001c784546200010b565b8462000147565b602080601f831160018114620002065760008415620001ed5750858301515b600019600386901b1c1916600185901b17855562000191565b600085815260208120601f198616915b82811015620002375788860151825594840194600190910190840162000216565b5085821015620002565787850151600019600388901b60f8161c191681555b5050505050600190811b01905550565b60805161492b6200028260003960006104f0015261492b6000f3fe608060405234801561001057600080fd5b50600436106101da5760003560e01c80638462151c11610104578063c45a0155116100a2578063d9bb9d6f11610071578063d9bb9d6f1461056b578063e63ad42a1461057e578063e985e9c514610591578063fc9f76d6146105bf57600080fd5b8063c45a0155146104eb578063c87b56dd14610512578063ce3f865f14610525578063d34879971461055857600080fd5b806399fbab88116100de57806399fbab8814610423578063a22cb4651461048d578063a360501c146104a0578063b88d4fde146104d857600080fd5b80638462151c146103d3578063911757ba146103f357806395d89b411461041b57600080fd5b80632765e88f1161017c5780636352211e1161014b5780636352211e1461036657806370a082311461037957806378dafff11461038c57806380b28db0146103b057600080fd5b80632765e88f146102c057806342842e0e1461031e57806342966c68146103315780635ef8d0ae1461034457600080fd5b8063095ea7b3116101b8578063095ea7b31461025d57806318160ddd146102725780632090d27d1461028957806323b872dd146102ad57600080fd5b806301ffc9a7146101df57806306fdde0314610207578063081812fc1461021c575b600080fd5b6101f26101ed3660046136f9565b6105d2565b60405190151581526020015b60405180910390f35b61020f610624565b6040516101fe9190613766565b61024561022a366004613779565b6004602052600090815260409020546001600160a01b031681565b6040516001600160a01b0390911681526020016101fe565b61027061026b3660046137a7565b6106b2565b005b61027b60065481565b6040519081526020016101fe565b61029c6102973660046137d3565b610799565b6040516101fe959493929190613897565b6102706102bb366004613928565b610ace565b6102d36102ce366004613779565b610c95565b604080516001600160a01b0390971687526001600160801b0395861660208801529385169386019390935292166060840152600291820b6080840152900b60a082015260c0016101fe565b61027061032c366004613928565b610dba565b61027061033f366004613779565b610eb2565b6103576103523660046137d3565b6110da565b6040516101fe93929190613969565b610245610374366004613779565b61120e565b61027b6103873660046137d3565b611265565b61039f61039a3660046137d3565b6112c8565b6040516101fe9594939291906139ac565b6101f26103be366004613779565b600b6020526000908152604090205460ff1681565b6103e66103e13660046137d3565b611667565b6040516101fe9190613a0d565b610406610401366004613a35565b611780565b604080519283526020830191909152016101fe565b61020f611a18565b610464610431366004613779565b6009602052600090815260409020546001600160a01b03811690600160a01b8104600290810b91600160b81b9004900b83565b604080516001600160a01b039094168452600292830b6020850152910b908201526060016101fe565b61027061049b366004613a65565b611a25565b6104b36104ae366004613a98565b611a91565b604080516001600160801b0390941684526020840192909252908201526060016101fe565b6102706104e6366004613b1b565b611bb6565b6102457f000000000000000000000000000000000000000000000000000000000000000081565b61020f610520366004613779565b611c9e565b610538610533366004613779565b611f72565b604080516001600160801b039384168152929091166020830152016101fe565b610270610566366004613b8d565b61219c565b61027b610579366004613bff565b612294565b61027b61058c3660046137a7565b6124aa565b6101f261059f366004613ca9565b600560209081526000928352604080842090915290825290205460ff1681565b6104066105cd366004613779565b6124db565b60006301ffc9a760e01b6001600160e01b03198316148061060357506380ac58cd60e01b6001600160e01b03198316145b8061061e5750635b5e139f60e01b6001600160e01b03198316145b92915050565b6000805461063190613cd7565b80601f016020809104026020016040519081016040528092919081815260200182805461065d90613cd7565b80156106aa5780601f1061067f576101008083540402835291602001916106aa565b820191906000526020600020905b81548152906001019060200180831161068d57829003601f168201915b505050505081565b6000818152600260205260409020546001600160a01b0316338114806106fb57506001600160a01b038116600090815260056020908152604080832033845290915290205460ff165b61073d5760405162461bcd60e51b815260206004820152600e60248201526d1393d517d055551213d49256915160921b60448201526064015b60405180910390fd5b60008281526004602052604080822080546001600160a01b0319166001600160a01b0387811691821790925591518593918516917f8c5be1e5ebec7d5bd14f71427d1e84f3dd0314c0f7b2291e5b200ac8c7c3b92591a4505050565b606080606080606060006107ac87611667565b9050600081516001600160401b038111156107c9576107c9613d0b565b6040519080825280602002602001820160405280156107f2578160200160208202803683370190505b509050600082516001600160401b0381111561081057610810613d0b565b604051908082528060200260200182016040528015610839578160200160208202803683370190505b509050600083516001600160401b0381111561085757610857613d0b565b604051908082528060200260200182016040528015610880578160200160208202803683370190505b509050600084516001600160401b0381111561089e5761089e613d0b565b6040519080825280602002602001820160405280156108c7578160200160208202803683370190505b50905060005b8551811015610abb576000600960008884815181106108ee576108ee613d21565b6020908102919091018101518252818101929092526040908101600020815160608101835290546001600160a01b038116808352600160a01b8204600290810b95840195909552600160b81b90910490930b91810191909152915061096657604051635079ff7560e11b815260040160405180910390fd5b805160006001600160a01b03821663514ea4bf610982856125d7565b6040518263ffffffff1660e01b81526004016109a091815260200190565b60a060405180830381865afa1580156109bd573d6000803e3d6000fd5b505050506040513d601f19601f820116820180604052508101906109e19190613d37565b50505050905082600001518885815181106109fe576109fe613d21565b60200260200101906001600160a01b031690816001600160a01b03168152505080878581518110610a3157610a31613d21565b60200260200101906001600160801b031690816001600160801b0316815250508260200151868581518110610a6857610a68613d21565b602002602001019060020b908160020b815250508260400151858581518110610a9357610a93613d21565b602002602001019060020b908160020b8152505050505080610ab490613daf565b90506108cd565b50939a9299509097509550909350915050565b6000818152600260205260409020546001600160a01b03848116911614610b245760405162461bcd60e51b815260206004820152600a60248201526957524f4e475f46524f4d60b01b6044820152606401610734565b6001600160a01b038216610b6e5760405162461bcd60e51b81526020600482015260116024820152701253959053125117d49150d25412515395607a1b6044820152606401610734565b336001600160a01b0384161480610ba857506001600160a01b038316600090815260056020908152604080832033845290915290205460ff165b80610bc957506000818152600460205260409020546001600160a01b031633145b610c065760405162461bcd60e51b815260206004820152600e60248201526d1393d517d055551213d49256915160921b6044820152606401610734565b6001600160a01b0380841660008181526003602090815260408083208054600019019055938616808352848320805460010190558583526002825284832080546001600160a01b03199081168317909155600490925284832080549092169091559251849392917fddf252ad1be2c89b69c2b068fc378daa952ba7f163c4a11628f55a4df523b3ef91a4505050565b6000818152600960209081526040808320815160608101835290546001600160a01b038116808352600160a01b8204600290810b95840195909552600160b81b90910490930b9181019190915282918291829182918291610d0957604051635079ff7560e11b815260040160405180910390fd5b8051600080806001600160a01b03841663514ea4bf610d27876125d7565b6040518263ffffffff1660e01b8152600401610d4591815260200190565b60a060405180830381865afa158015610d62573d6000803e3d6000fd5b505050506040513d601f19601f82011682018060405250810190610d869190613d37565b94509450505092508460000151838383886020015189604001519a509a509a509a509a509a50505050505091939550919395565b610dc5838383610ace565b6001600160a01b0382163b1580610e6e5750604051630a85bd0160e11b8082523360048301526001600160a01b03858116602484015260448301849052608060648401526000608484015290919084169063150b7a029060a4016020604051808303816000875af1158015610e3e573d6000803e3d6000fd5b505050506040513d601f19601f82011682018060405250810190610e629190613dc8565b6001600160e01b031916145b610ead5760405162461bcd60e51b815260206004820152601060248201526f155394d0519157d49150d2541251539560821b6044820152606401610734565b505050565b806000610ebe8261120e565b9050336001600160a01b03821614801590610efd57506001600160a01b038116600090815260056020908152604080832033845290915290205460ff16155b8015610f2057506000828152600460205260409020546001600160a01b03163314155b15610f3e5760405163ea8e4eb560e01b815260040160405180910390fd5b600083815260096020908152604091829020825160608101845290546001600160a01b038116808352600160a01b8204600290810b94840194909452600160b81b90910490920b92810192909252610fa957604051635079ff7560e11b815260040160405180910390fd5b8051600080806001600160a01b03841663514ea4bf610fc7876125d7565b6040518263ffffffff1660e01b8152600401610fe591815260200190565b60a060405180830381865afa158015611002573d6000803e3d6000fd5b505050506040513d601f19601f820116820180604052508101906110269190613d37565b94509450505092506000836001600160801b0316118061104f57506000826001600160801b0316115b8061106357506000816001600160801b0316115b1561108157604051636c4e633b60e11b815260040160405180910390fd5b600088815260096020908152604080832080546001600160d01b0319169055600b9091529020805460ff191660011790556110bb88612627565b600680549060006110cb83613de5565b91905055505050505050505050565b606080606060006110ea85611667565b9050600081516001600160401b0381111561110757611107613d0b565b604051908082528060200260200182016040528015611130578160200160208202803683370190505b509050600082516001600160401b0381111561114e5761114e613d0b565b604051908082528060200260200182016040528015611177578160200160208202803683370190505b50905060005b8351811015611200576000806111ab86848151811061119e5761119e613d21565b60200260200101516124db565b91509150818584815181106111c2576111c2613d21565b602002602001018181525050808484815181106111e1576111e1613d21565b6020026020010181815250505050806111f990613daf565b905061117d565b509196909550909350915050565b6000818152600260205260409020546001600160a01b0316806112605760405162461bcd60e51b815260206004820152600a6024820152691393d517d3525395115160b21b6044820152606401610734565b919050565b60006001600160a01b0382166112ac5760405162461bcd60e51b815260206004820152600c60248201526b5a45524f5f4144445245535360a01b6044820152606401610734565b506001600160a01b031660009081526003602052604090205490565b606080606080606060006112db87611667565b9050600081516001600160401b038111156112f8576112f8613d0b565b604051908082528060200260200182016040528015611321578160200160208202803683370190505b509050600082516001600160401b0381111561133f5761133f613d0b565b604051908082528060200260200182016040528015611368578160200160208202803683370190505b509050600083516001600160401b0381111561138657611386613d0b565b6040519080825280602002602001820160405280156113af578160200160208202803683370190505b509050600084516001600160401b038111156113cd576113cd613d0b565b6040519080825280602002602001820160405280156113f6578160200160208202803683370190505b50905060005b8551811015610abb5760006009600088848151811061141d5761141d613d21565b6020908102919091018101518252818101929092526040908101600020815160608101835290546001600160a01b038116808352600160a01b8204600290810b95840195909552600160b81b90910490930b91810191909152915061149557604051635079ff7560e11b815260040160405180910390fd5b8051600080806001600160a01b03841663514ea4bf6114b3876125d7565b6040518263ffffffff1660e01b81526004016114d191815260200190565b60a060405180830381865afa1580156114ee573d6000803e3d6000fd5b505050506040513d601f19601f820116820180604052508101906115129190613d37565b60208a01516040808c01519051635bf87ba160e01b8152600292830b6004820152910b6024820152600f86900b604482015294975090955093506000928392506001600160a01b0388169150635bf87ba1906064016040805180830381865afa158015611583573d6000803e3d6000fd5b505050506040513d601f19601f820116820180604052508101906115a79190613dfc565b91509150818c89815181106115be576115be613d21565b602002602001018181525050808b89815181106115dd576115dd613d21565b602002602001018181525050838a89815181106115fc576115fc613d21565b60200260200101906001600160801b031690816001600160801b0316815250508289898151811061162f5761162f613d21565b60200260200101906001600160801b031690816001600160801b031681525050505050505050508061166090613daf565b90506113fc565b6060600061167483611265565b905080600003611694575050604080516000815260208101909152919050565b6000816001600160401b038111156116ae576116ae613d0b565b6040519080825280602002602001820160405280156116d7578160200160208202803683370190505b506007549091506000805b82821080156116f057508281105b1561176f576000818152600b602052604090205460ff16151560011461175d57866001600160a01b03166117238261120e565b6001600160a01b03160361175d578084838151811061174457611744613d21565b60209081029190910101528161175981613daf565b9250505b8061176781613daf565b9150506116e2565b509195945050505050565b50919050565b60008083600061178f8261120e565b9050336001600160a01b038216148015906117ce57506001600160a01b038116600090815260056020908152604080832033845290915290205460ff16155b80156117f157506000828152600460205260409020546001600160a01b03163314155b1561180f5760405163ea8e4eb560e01b815260040160405180910390fd5b600086815260096020908152604091829020825160608101845290546001600160a01b038116808352600160a01b8204600290810b94840194909452600160b81b90910490920b9281019290925261187a57604051635079ff7560e11b815260040160405180910390fd5b805160006001600160a01b03821663514ea4bf611896856125d7565b6040518263ffffffff1660e01b81526004016118b491815260200190565b60a060405180830381865afa1580156118d1573d6000803e3d6000fd5b505050506040513d601f19601f820116820180604052508101906118f59190613d37565b505050509050806001600160801b0316886001600160801b0316111561192e57604051634323a55560e01b815260040160405180910390fd5b6020830151604080850151905163a34123a760e01b8152600292830b6004820152910b60248201526001600160801b03891660448201526001600160a01b0383169063a34123a79060640160408051808303816000875af1158015611997573d6000803e3d6000fd5b505050506040513d601f19601f820116820180604052508101906119bb9190613dfc565b604080516001600160801b038c16815260208101849052908101829052919850965089907f1832d0be987b5f3cbc73b42f7ee61f47d509f9a14f8d3770969dfdabef841c3e9060600160405180910390a250505050509250929050565b6001805461063190613cd7565b3360008181526005602090815260408083206001600160a01b03871680855290835292819020805460ff191686151590811790915590519081529192917f17307eab39ab6107e8899845ad3d59bd9653f200f220920489ca2b5937696c31910160405180910390a35050565b6000858152600960209081526040808320815160608101835290546001600160a01b038116808352600160a01b8204600290810b95840195909552600160b81b90910490930b918101919091528291829190611b0057604051635079ff7560e11b815260040160405180910390fd5b611b566040518060e0016040528083600001516001600160a01b03168152602001836020015160020b8152602001836040015160020b81526020018a8152602001898152602001888152602001878152506126f4565b604080516001600160801b038516815260208101849052908101829052929650909450925089907f22fb3c4728e7cc5dd64003f4267d8fb1eb2580f5598050868300738a823d70479060600160405180910390a250955095509592505050565b611bc1858585610ace565b6001600160a01b0384163b1580611c585750604051630a85bd0160e11b808252906001600160a01b0386169063150b7a0290611c099033908a90899089908990600401613e20565b6020604051808303816000875af1158015611c28573d6000803e3d6000fd5b505050506040513d601f19601f82011682018060405250810190611c4c9190613dc8565b6001600160e01b031916145b611c975760405162461bcd60e51b815260206004820152601060248201526f155394d0519157d49150d2541251539560821b6044820152606401610734565b5050505050565b60008181526009602090815260409182902082516060818101855291546001600160a01b038116808352600160a01b8204600290810b95840195909552600160b81b90910490930b938101939093529190611d0c57604051635079ff7560e11b815260040160405180910390fd5b6000816000015190506000816001600160a01b0316630dfe16816040518163ffffffff1660e01b8152600401602060405180830381865afa158015611d55573d6000803e3d6000fd5b505050506040513d601f19601f82011682018060405250810190611d799190613e74565b90506000826001600160a01b031663d21220a76040518163ffffffff1660e01b8152600401602060405180830381865afa158015611dbb573d6000803e3d6000fd5b505050506040513d601f19601f82011682018060405250810190611ddf9190613e74565b90506000826001600160a01b03166395d89b416040518163ffffffff1660e01b8152600401600060405180830381865afa158015611e21573d6000803e3d6000fd5b505050506040513d6000823e601f3d908101601f19168201604052611e499190810190613e91565b90506000826001600160a01b03166395d89b416040518163ffffffff1660e01b8152600401600060405180830381865afa158015611e8b573d6000803e3d6000fd5b505050506040513d6000823e601f3d908101601f19168201604052611eb39190810190613e91565b9050611f666040518060c00160405280848152602001838152602001306001600160a01b03168152602001886020015160020b8152602001886040015160020b8152602001876001600160a01b031663ddca3f436040518163ffffffff1660e01b8152600401602060405180830381865afa158015611f36573d6000803e3d6000fd5b505050506040513d601f19601f82011682018060405250810190611f5a9190613f3d565b62ffffff16905261298e565b98975050505050505050565b600080826000611f818261120e565b9050336001600160a01b03821614801590611fc057506001600160a01b038116600090815260056020908152604080832033845290915290205460ff16155b8015611fe357506000828152600460205260409020546001600160a01b03163314155b156120015760405163ea8e4eb560e01b815260040160405180910390fd5b600085815260096020908152604091829020825160608101845290546001600160a01b038116808352600160a01b8204600290810b94840194909452600160b81b90910490920b9281019290925261206c57604051635079ff7560e11b815260040160405180910390fd5b80516000806001600160a01b03831663514ea4bf612089866125d7565b6040518263ffffffff1660e01b81526004016120a791815260200190565b60a060405180830381865afa1580156120c4573d6000803e3d6000fd5b505050506040513d601f19601f820116820180604052508101906120e89190613d37565b60208901516040808b015190516309e3d67b60e31b8152336004820152600292830b6024820152910b60448201526001600160801b0380841660648301528216608482015291965094506001600160a01b0387169350634f1eb3d8925060a401905060408051808303816000875af1158015612168573d6000803e3d6000fd5b505050506040513d601f19601f8201168201806040525081019061218c9190613f5a565b909a909950975050505050505050565b60006121aa82840184613f89565b805160408083015190516323b872dd60e01b81526001600160a01b0391821660048201523360248201526044810189905292935016906323b872dd90606401600060405180830381600087803b15801561220357600080fd5b505af1158015612217573d6000803e3d6000fd5b505050602082015160408084015190516323b872dd60e01b81526001600160a01b03918216600482015233602482015260448101889052911691506323b872dd90606401600060405180830381600087803b15801561227557600080fd5b505af1158015612289573d6000803e3d6000fd5b505050505050505050565b60085460405163175c1b2360e31b81526001600160a01b038b811660048301528a8116602483015262ffffff8a166044830152600092839291169063bae0d91890606401602060405180830381865afa1580156122f5573d6000803e3d6000fd5b505050506040513d601f19601f820116820180604052508101906123199190613e74565b9050600080600061236a6040518060e00160405280866001600160a01b031681526020018d60020b81526020018c60020b81526020018b81526020018a8152602001898152602001888152506126f4565b600780549396509194509250600061238183613daf565b9190505594506123918f86612a7a565b600680549060006123a183613daf565b9091555050604080516060810182526001600160a01b03808716825260028e810b6020808501918252918f900b84860190815260008b815260098452868120865181549451935162ffffff908116600160b81b0262ffffff60b81b1991909516600160a01b026001600160b81b031990961691909716179390931794909416179055338252600a81528382208054600181018255908352912001879055905186907f22fb3c4728e7cc5dd64003f4267d8fb1eb2580f5598050868300738a823d70479061248f908790879087906001600160801b039390931683526020830191909152604082015260600190565b60405180910390a250505050509a9950505050505050505050565b600a60205281600052604060002081815481106124c657600080fd5b90600052602060002001600091509150505481565b6000818152600960209081526040808320815160608101835290546001600160a01b038116808352600160a01b8204600290810b95840195909552600160b81b90910490930b91810191909152829161254757604051635079ff7560e11b815260040160405180910390fd5b805160208201516040808401519051636a234ae960e01b8152600292830b6004820152910b60248201523060448201526001600160a01b03821690636a234ae9906064016040805180830381865afa1580156125a7573d6000803e3d6000fd5b505050506040513d601f19601f820116820180604052508101906125cb9190613dfc565b90969095509350505050565b60208181015160409283015183513060601b6bffffffffffffffffffffffff19168185015260e892831b6034820152911b60378201528251601a818303018152603a909101909252815191012090565b6000818152600260205260409020546001600160a01b0316806126795760405162461bcd60e51b815260206004820152600a6024820152691393d517d3525395115160b21b6044820152606401610734565b6001600160a01b038116600081815260036020908152604080832080546000190190558583526002825280832080546001600160a01b031990811690915560049092528083208054909216909155518492907fddf252ad1be2c89b69c2b068fc378daa952ba7f163c4a11628f55a4df523b3ef908390a45050565b60008060008084600001516001600160a01b0316633850c7bd6040518163ffffffff1660e01b815260040160a060405180830381865afa15801561273c573d6000803e3d6000fd5b505050506040513d601f19601f82011682018060405250810190612760919061400c565b505050509050612793816127778760200151612b85565b6127848860400151612b85565b88606001518960800151612fa7565b935084600001516001600160a01b0316633c8a7d8d30876020015188604001518860405180606001604052808c600001516001600160a01b0316630dfe16816040518163ffffffff1660e01b8152600401602060405180830381865afa158015612801573d6000803e3d6000fd5b505050506040513d601f19601f820116820180604052508101906128259190613e74565b6001600160a01b031681526020018c600001516001600160a01b031663d21220a76040518163ffffffff1660e01b8152600401602060405180830381865afa158015612875573d6000803e3d6000fd5b505050506040513d601f19601f820116820180604052508101906128999190613e74565b6001600160a01b0390811682523360209283015260408051845183168185015292840151821683820152929092015190911660608201526080016040516020818303038152906040526040518663ffffffff1660e01b8152600401612902959493929190614076565b60408051808303816000875af1158015612920573d6000803e3d6000fd5b505050506040513d601f19601f820116820180604052508101906129449190613dfc565b60a0870151919450925083108061295e57508460c0015182105b1561298657604051630a8f6c8d60e41b81526004810184905260248101839052604401610734565b509193909250565b606060006129a983604001518460600151856080015161306a565b6129c0846000015185602001518660a00151613106565b6129d285606001518660800151613142565b6040516020016129e4939291906140d4565b60405160208183030381529060405290506000612a18846000015185602001518660a001518760600151886080015161317e565b9050600081612a26846131d0565b604051602001612a37929190614229565b6040516020818303038152906040529050612a51816131d0565b604051602001612a6191906142e9565b6040516020818303038152906040529350505050919050565b6001600160a01b038216612ac45760405162461bcd60e51b81526020600482015260116024820152701253959053125117d49150d25412515395607a1b6044820152606401610734565b6000818152600260205260409020546001600160a01b031615612b1a5760405162461bcd60e51b815260206004820152600e60248201526d1053149150511657d3525395115160921b6044820152606401610734565b6001600160a01b038216600081815260036020908152604080832080546001019055848352600290915280822080546001600160a01b0319168417905551839291907fddf252ad1be2c89b69c2b068fc378daa952ba7f163c4a11628f55a4df523b3ef908290a45050565b60008060008360020b12612b9c578260020b612ba9565b8260020b612ba99061432e565b9050612bb8620d89e71961434a565b62ffffff16811115612bf05760405162461bcd60e51b81526020600482015260016024820152601560fa1b6044820152606401610734565b600081600116600003612c0757600160801b612c19565b6ffffcb933bd6fad37aa2d162d1a5940015b70ffffffffffffffffffffffffffffffffff1690506002821615612c58576080612c53826ffff97272373d413259a46990580e213a61436c565b901c90505b6004821615612c82576080612c7d826ffff2e50f5f656932ef12357cf3c7fdcc61436c565b901c90505b6008821615612cac576080612ca7826fffe5caca7e10e4e61c3624eaa0941cd061436c565b901c90505b6010821615612cd6576080612cd1826fffcb9843d60f6159c9db58835c92664461436c565b901c90505b6020821615612d00576080612cfb826fff973b41fa98c081472e6896dfb254c061436c565b901c90505b6040821615612d2a576080612d25826fff2ea16466c96a3843ec78b326b5286161436c565b901c90505b6080821615612d54576080612d4f826ffe5dee046a99a2a811c461f1969c305361436c565b901c90505b610100821615612d7f576080612d7a826ffcbe86c7900a88aedcffc83b479aa3a461436c565b901c90505b610200821615612daa576080612da5826ff987a7253ac413176f2b074cf7815e5461436c565b901c90505b610400821615612dd5576080612dd0826ff3392b0822b70005940c7a398e4b70f361436c565b901c90505b610800821615612e00576080612dfb826fe7159475a2c29b7443b29c7fa6e889d961436c565b901c90505b611000821615612e2b576080612e26826fd097f3bdfd2022b8845ad8f792aa582561436c565b901c90505b612000821615612e56576080612e51826fa9f746462d870fdf8a65dc1f90e061e561436c565b901c90505b614000821615612e81576080612e7c826f70d869a156d2a1b890bb3df62baf32f761436c565b901c90505b618000821615612eac576080612ea7826f31be135f97d08fd981231505542fcfa661436c565b901c90505b62010000821615612ed8576080612ed3826f09aa508b5b7a84e1c677de54f3e99bc961436c565b901c90505b62020000821615612f03576080612efe826e5d6af8dedb81196699c329225ee60461436c565b901c90505b62040000821615612f2d576080612f28826d2216e584f5fa1ea926041bedfe9861436c565b901c90505b62080000821615612f55576080612f50826b048a170391f7dc42444e8fa261436c565b901c90505b60008460020b1315612f7057612f6d81600019614399565b90505b612f7f640100000000826143ad565b15612f8b576001612f8e565b60005b612f9f9060ff16602083901c6143c1565b949350505050565b6000836001600160a01b0316856001600160a01b03161115612fc7579293925b846001600160a01b0316866001600160a01b031611612ff257612feb858585613321565b9050613061565b836001600160a01b0316866001600160a01b031611613053576000613018878686613321565b90506000613027878986613383565b9050806001600160801b0316826001600160801b031610613048578061304a565b815b92505050613061565b61305e858584613383565b90505b95945050505050565b604051606084811b6bffffffffffffffffffffffff1916602083015260e884811b603484015283901b603783015290600090603a0160408051601f198184030181529190528051602090910120905060006130c7610168836143ad565b90506130d2816133b6565b6130db826133b6565b6040516020016130ec9291906143d4565b604051602081830303815290604052925050509392505050565b606083836131188462ffffff16613448565b60405160200161312a939291906144dc565b60405160208183030381529060405290509392505050565b606061314d8361349d565b6131568361349d565b60405160200161316792919061463e565b604051602081830303815290604052905092915050565b606085856131908662ffffff16613448565b6131998661349d565b6131a28661349d565b6040516020016131b69594939291906147a0565b604051602081830303815290604052905095945050505050565b606081516000036131ef57505060408051602081019091526000815290565b60006040518060600160405280604081526020016148b6604091399050600060038451600261321e91906143c1565b6132289190614399565b61323390600461436c565b6001600160401b0381111561324a5761324a613d0b565b6040519080825280601f01601f191660200182016040528015613274576020820181803683370190505b509050600182016020820185865187015b808210156132e0576003820191508151603f8160121c168501518453600184019350603f81600c1c168501518453600184019350603f8160061c168501518453600184019350603f8116850151845350600183019250613285565b50506003865106600181146132fc576002811461330f5761176f565b603d6001830353603d600283035361176f565b603d6001830353509195945050505050565b6000826001600160a01b0316846001600160a01b03161115613341579192915b6000613364856001600160a01b0316856001600160a01b0316600160601b613535565b90506130618382613375888861485f565b6001600160a01b0316613535565b6000826001600160a01b0316846001600160a01b031611156133a3579192915b612f9f82600160601b613375878761485f565b606060006133c383613608565b60010190506000816001600160401b038111156133e2576133e2613d0b565b6040519080825280601f01601f19166020018201604052801561340c576020820181803683370190505b5090508181016020015b600019016f181899199a1a9b1b9c1cb0b131b232b360811b600a86061a8153600a850494508461341657509392505050565b6060816101f403613474575050604080518082019091526005815264302e30352560d81b602082015290565b81610bb803611260575050604080518082019091526004815263302e332560e01b602082015290565b606060008260020b126134bf57604051806020016040528060008152506134da565b604051806040016040528060018152602001602d60f81b8152505b60008360020b126134f8576134f38362ffffff166133b6565b61350e565b61350e6135048461434a565b62ffffff166133b6565b60405160200161351f929190614886565b6040516020818303038152906040529050919050565b600080806000198587098587029250828110838203039150508060000361356f5783828161356557613565614383565b0492505050613601565b83811061359957604051631dcf306360e21b81526004810182905260248101859052604401610734565b600084868809851960019081018716968790049682860381900495909211909303600082900391909104909201919091029190911760038402600290811880860282030280860282030280860282030280860282030280860282030280860290910302029150505b9392505050565b60008072184f03e93ff9f4daa797ed6e38ed64bf6a1f0160401b83106136475772184f03e93ff9f4daa797ed6e38ed64bf6a1f0160401b830492506040015b6d04ee2d6d415b85acef81000000008310613673576d04ee2d6d415b85acef8100000000830492506020015b662386f26fc10000831061369157662386f26fc10000830492506010015b6305f5e10083106136a9576305f5e100830492506008015b61271083106136bd57612710830492506004015b606483106136cf576064830492506002015b600a831061061e5760010192915050565b6001600160e01b0319811681146136f657600080fd5b50565b60006020828403121561370b57600080fd5b8135613601816136e0565b60005b83811015613731578181015183820152602001613719565b50506000910152565b60008151808452613752816020860160208601613716565b601f01601f19169290920160200192915050565b602081526000613601602083018461373a565b60006020828403121561378b57600080fd5b5035919050565b6001600160a01b03811681146136f657600080fd5b600080604083850312156137ba57600080fd5b82356137c581613792565b946020939093013593505050565b6000602082840312156137e557600080fd5b813561360181613792565b600081518084526020808501945080840160005b8381101561382057815187529582019590820190600101613804565b509495945050505050565b600081518084526020808501945080840160005b838110156138205781516001600160801b03168752958201959082019060010161383f565b600081518084526020808501945080840160005b8381101561382057815160020b87529582019590820190600101613878565b60a0815260006138aa60a08301886137f0565b82810360208481019190915287518083528882019282019060005b818110156138ea5784516001600160a01b0316835293830193918301916001016138c5565b505084810360408601526138fe818961382b565b9250505082810360608401526139148186613864565b90508281036080840152611f668185613864565b60008060006060848603121561393d57600080fd5b833561394881613792565b9250602084013561395881613792565b929592945050506040919091013590565b60608152600061397c60608301866137f0565b828103602084015261398e81866137f0565b905082810360408401526139a281856137f0565b9695505050505050565b60a0815260006139bf60a08301886137f0565b82810360208401526139d181886137f0565b905082810360408401526139e581876137f0565b905082810360608401526139f9818661382b565b90508281036080840152611f66818561382b565b60208152600061360160208301846137f0565b6001600160801b03811681146136f657600080fd5b60008060408385031215613a4857600080fd5b823591506020830135613a5a81613a20565b809150509250929050565b60008060408385031215613a7857600080fd5b8235613a8381613792565b915060208301358015158114613a5a57600080fd5b600080600080600060a08688031215613ab057600080fd5b505083359560208501359550604085013594606081013594506080013592509050565b60008083601f840112613ae557600080fd5b5081356001600160401b03811115613afc57600080fd5b602083019150836020828501011115613b1457600080fd5b9250929050565b600080600080600060808688031215613b3357600080fd5b8535613b3e81613792565b94506020860135613b4e81613792565b93506040860135925060608601356001600160401b03811115613b7057600080fd5b613b7c88828901613ad3565b969995985093965092949392505050565b60008060008060608587031215613ba357600080fd5b843593506020850135925060408501356001600160401b03811115613bc757600080fd5b613bd387828801613ad3565b95989497509550505050565b62ffffff811681146136f657600080fd5b8060020b81146136f657600080fd5b6000806000806000806000806000806101408b8d031215613c1f57600080fd5b8a35613c2a81613792565b995060208b0135613c3a81613792565b985060408b0135613c4a81613792565b975060608b0135613c5a81613bdf565b965060808b0135613c6a81613bf0565b955060a08b0135613c7a81613bf0565b999c989b5096999598949794965050505060c08301359260e08101359261010082013592506101209091013590565b60008060408385031215613cbc57600080fd5b8235613cc781613792565b91506020830135613a5a81613792565b600181811c90821680613ceb57607f821691505b60208210810361177a57634e487b7160e01b600052602260045260246000fd5b634e487b7160e01b600052604160045260246000fd5b634e487b7160e01b600052603260045260246000fd5b600080600080600060a08688031215613d4f57600080fd5b8551613d5a81613a20565b8095505060208601519350604086015192506060860151613d7a81613a20565b6080870151909250613d8b81613a20565b809150509295509295909350565b634e487b7160e01b600052601160045260246000fd5b600060018201613dc157613dc1613d99565b5060010190565b600060208284031215613dda57600080fd5b8151613601816136e0565b600081613df457613df4613d99565b506000190190565b60008060408385031215613e0f57600080fd5b505080516020909101519092909150565b6001600160a01b038681168252851660208201526040810184905260806060820181905281018290526000828460a0840137600060a0848401015260a0601f19601f85011683010190509695505050505050565b600060208284031215613e8657600080fd5b815161360181613792565b600060208284031215613ea357600080fd5b81516001600160401b0380821115613eba57600080fd5b818401915084601f830112613ece57600080fd5b815181811115613ee057613ee0613d0b565b604051601f8201601f19908116603f01168101908382118183101715613f0857613f08613d0b565b81604052828152876020848701011115613f2157600080fd5b613f32836020830160208801613716565b979650505050505050565b600060208284031215613f4f57600080fd5b815161360181613bdf565b60008060408385031215613f6d57600080fd5b8251613f7881613a20565b6020840151909250613a5a81613a20565b600060608284031215613f9b57600080fd5b604051606081018181106001600160401b0382111715613fbd57613fbd613d0b565b6040528235613fcb81613792565b81526020830135613fdb81613792565b60208201526040830135613fee81613792565b60408201529392505050565b805161ffff8116811461126057600080fd5b600080600080600060a0868803121561402457600080fd5b855161402f81613792565b602087015190955061404081613bf0565b935061404e60408701613ffa565b925061405c60608701613ffa565b915061406a60808701613ffa565b90509295509295909350565b60018060a01b03861681528460020b60208201528360020b60408201526001600160801b038316606082015260a060808201526000613f3260a083018461373a565b600081516140ca818560208601613716565b9290920192915050565b7f3c73766720786d6c6e733d27687474703a2f2f7777772e77332e6f72672f323081527f30302f737667272076696577426f783d273020302033303020343830273e000060208201527f3c7374796c653e2e746f6b656e73207b20666f6e743a20626f6c642033307078603e8201526d2073616e732d73657269663b207d60901b605e8201527f2e666565207b20666f6e743a206e6f726d616c20323670782073616e732d7365606c820152657269663b207d60d01b608c8201527f2e7469636b207b20666f6e743a206e6f726d616c20313870782073616e732d7360928201526e32b934b31d903e9e17b9ba3cb6329f60891b60b2820152600084516141e28160c1850160208901613716565b8451908301906141f98160c1840160208901613716565b61420860c182840101866140b8565b91505061421d81651e17b9bb339f60d11b9052565b60060195945050505050565b7f7b226e616d65223a22556e697377617020563320506f736974696f6e222c000081526e113232b9b1b934b83a34b7b7111d1160891b601e820152825160009061427a81602d850160208801613716565b61088b60f21b602d918401918201527f22696d616765223a22646174613a696d6167652f7376672b786d6c3b62617365602f820152620d8d0b60ea1b604f82015283516142ce816052840160208801613716565b61227d60f01b60529290910191820152605401949350505050565b7f646174613a6170706c69636174696f6e2f6a736f6e3b6261736536342c00000081526000825161432181601d850160208701613716565b91909101601d0192915050565b6000600160ff1b820161434357614343613d99565b5060000390565b60008160020b627fffff19810361436357614363613d99565b60000392915050565b808202811582820484141761061e5761061e613d99565b634e487b7160e01b600052601260045260246000fd5b6000826143a8576143a8614383565b500490565b6000826143bc576143bc614383565b500690565b8082018082111561061e5761061e613d99565b7f3c726563742077696474683d2233303022206865696768743d223438302220668152680d2d8d87a44d0e6d8560bb1b60208201526000835161441e816029850160208801613716565b6b161a1812961a18129491179f60a11b6029918401918201527f3c7265637420783d2233302220793d223330222077696474683d22323430222060358201527f6865696768743d22343230222072783d223135222072793d223135222066696c6055820152660d87a44d0e6d8560cb1b607582015283516144a681607c840160208801613716565b7f2c313030252c3530252922207374726f6b653d2223303030222f3e0000000000607c9290910191820152609701949350505050565b7f3c7265637420783d2233302220793d223837222077696474683d22323430222081526c3432b4b3b43a1e911a1911179f60991b60208201527f3c7465787420783d2233392220793d223132302220636c6173733d22746f6b65602d8201526f373991103334b6361e9111b33333111f60811b604d8201526000845161456981605d850160208901613716565b602f60f81b605d91840191820152845161458a81605e840160208901613716565b7f3c2f746578743e3c7265637420783d2233302220793d22313332222077696474605e929091019182015274341e91191a1811103432b4b3b43a1e91199811179f60591b607e8201527f3c7465787420783d2233392220793d22313230222064793d2233362220636c6160938201527439b99e913332b291103334b6361e9111b33333111f60591b60b382015261462460c88201856140b8565b661e17ba32bc3a1f60c91b81526007019695505050505050565b7f3c7265637420783d2233302220793d22333432222077696474683d2232343022815260006d103432b4b3b43a1e91191a11179f60911b8060208401527f3c7465787420783d2233392220793d223336302220636c6173733d227469636b602e8401527f222066696c6c3d2223666666223e4c6f776572207469636b3a20000000000000604e84015284516146da816068860160208901613716565b8084019050661e17ba32bc3a1f60c91b60688201527f3c7265637420783d2233302220793d22333732222077696474683d2232343022606f82015281608f8201527f3c7465787420783d2233392220793d22333630222064793d2233302220636c61609d8201527f73733d227469636b222066696c6c3d2223666666223e5570706572207469636b60bd8201526101d160f51b60dd82015261477f60df8201866140b8565b91505061479581661e17ba32bc3a1f60c91b9052565b600701949350505050565b600086516147b2818460208b01613716565b602f60f81b90830190815286516147d0816001840160208b01613716565b600160fd1b6001929091019182015285516147f2816002840160208a01613716565b6d016102637bbb2b9103a34b1b59d160951b600292909101918201528451614821816010840160208901613716565b6d016102ab83832b9103a32bc3a1d160951b60109290910191820152835161485081601e840160208801613716565b01601e01979650505050505050565b6001600160a01b0382811682821603908082111561487f5761487f613d99565b5092915050565b60008351614898818460208801613716565b8351908301906148ac818360208801613716565b0194935050505056fe4142434445464748494a4b4c4d4e4f505152535455565758595a6162636465666768696a6b6c6d6e6f707172737475767778797a303132333435363738392b2fa264697066735822122004ec739cb366c4ed10f29672374bd3c0af06ff8f55f168b62452c12f56ec881e64736f6c63430008140033",
  "bytecodeSha1": "0d237afcc397061e794e3b45b3616ff418d3eae9",
  "compiler": {
    "evm_version": "istanbul",
    "optimizer": {
      "enabled": true,
      "runs": 200
    },
    "version": "0.8.20+commit.a1b79de6"
  },
  "contractName": "NFT",
  "language": "Solidity",
  "natspec": {
    "errors": {
      "PRBMath__MulDivOverflow(uint256,uint256)": [
        {
          "notice": "Emitted when the result overflows uint256."
        }
      ]
    },
    "kind": "dev",
    "methods": {
      "_getFees(uint256)": {
        "notice": "Gets a positions owed fees",
        "params": {
          "tokenId": "The id of the NFT we wish to know the owed fees"
        }
      },
      "addLiquidity(uint256,uint256,uint256,uint256,uint256)": {
        "details": "does not mint a new NFT. It only updates the position info",
        "notice": "adds liquidity to an existing position. An array with the following parameters:             tokenId: the token Id of the position we wish to add liquidity too             amount0Desired: amount of token 0 we want to add             amount1Desired: amount of token 1 we want to add             amount0Min: min amount of token 0 we want to add             amount1Min: min amount of token 1 we want to add"
      },
      "burn(uint256)": {
        "details": "This method will fail if called before the user removes all liquidity from the corresponding positions      and collects the corresponding tokens",
        "notice": "Burns an NFT related to a liquidity position",
        "params": {
          "tokenId": "The id of the NFT we wish to burn"
        }
      },
      "collect(uint256)": {
        "details": "Can only be called after the user has removed some liquidity from the position",
        "notice": "collects the tokens relative to a cleared (or partially cleared) position.",
        "params": {
          "tokenId": ": the token Id of the position we wish to collect"
        }
      },
      "mint(address,address,address,uint24,int24,int24,uint256,uint256,uint256,uint256)": {
        "notice": "Used for setting new positions. Mints an NFT connected to the created position An array with the following parameters:             recipient: the user who is minting the new position             tokenA: first token in the pool where the position is being minted             tokenB: second token in the pool where the position is being minted             fee: fee of the pool where the position is being minted             lowerTick: lower tick of the position being minted             upperTick: upper tick of the position being minted             amount0Desired:amount of first token we want to add to the position as liquidity             amount1Desired:amount of second token we want to add to the position as liquidity             amount0Min: min amount of first token we want to add to the position as liquidity             amount1Min: min amount of second token we want to add to the position as liquidity"
      },
      "removeLiquidity(uint256,uint128)": {
        "details": "does not burn the NFT and does not return the tokens to the user (use collect for that).     It only updates the position info",
        "notice": "removes liquidity from an existing position. An array with the following parameters:             tokenId: the token Id of the position we wish to remove liquidity from             liquidity: the liquidity amount we wish to remove"
      },
      "tokenIDtoPosition(uint256)": {
        "notice": "receives a tokenId and returns all the information regarding that tokens position.",
        "params": {
          "tokenId": ": the token Id"
        }
      },
      "tokenURI(uint256)": {
        "notice": "returns the URI of the image of an NFT token.",
        "params": {
          "tokenId": ": the token Id"
        }
      },
      "tokensOfOwner(address)": {
        "details": "This method MUST NEVER be called by smart contract code. First, it's fairly  expensive (it walks the entire token array looking for tokens belonging to owner),  but it also returns a dynamic array, which is only supported for web3 calls, and  not contract-to-contract calls.",
        "notice": "Returns a list of all Liquidity Token IDs assigned to an address.",
        "params": {
          "_owner": "The owner whose nfts we are interested in."
        }
      },
      "uniswapV3MintCallback(uint256,uint256,bytes)": {
        "notice": "help function to transfer the tokens."
      },
      "userToAllPositionsFees(address)": {
        "notice": "receives an user address and returns all the fees regarding all the token positions he has.",
        "params": {
          "user": ": address of an user"
        }
      },
      "userToAllPositionsOne(address)": {
        "notice": "receives an user address and returns all the information regarding all the token positions he has.",
        "params": {
          "user": ": address of an user"
        }
      },
      "userToAllPositionsTwo(address)": {
        "notice": "receives an user address and returns atokens owed to the user",
        "params": {
          "user": ": address of an user"
        }
      }
    },
    "version": 1
  },
  "opcodes": "PUSH1 0x80 PUSH1 0x40 MSTORE CALLVALUE DUP1 ISZERO PUSH2 0x10 JUMPI PUSH1 0x0 DUP1 REVERT JUMPDEST POP PUSH1 0x4 CALLDATASIZE LT PUSH2 0x1DA JUMPI PUSH1 0x0 CALLDATALOAD PUSH1 0xE0 SHR DUP1 PUSH4 0x8462151C GT PUSH2 0x104 JUMPI DUP1 PUSH4 0xC45A0155 GT PUSH2 0xA2 JUMPI DUP1 PUSH4 0xD9BB9D6F GT PUSH2 0x71 JUMPI DUP1 PUSH4 0xD9BB9D6F EQ PUSH2 0x56B JUMPI DUP1 PUSH4 0xE63AD42A EQ PUSH2 0x57E JUMPI DUP1 PUSH4 0xE985E9C5 EQ PUSH2 0x591 JUMPI DUP1 PUSH4 0xFC9F76D6 EQ PUSH2 0x5BF JUMPI PUSH1 0x0 DUP1 REVERT JUMPDEST DUP1 PUSH4 0xC45A0155 EQ PUSH2 0x4EB JUMPI DUP1 PUSH4 0xC87B56DD EQ PUSH2 0x512 JUMPI DUP1 PUSH4 0xCE3F865F EQ PUSH2 0x525 JUMPI DUP1 PUSH4 0xD3487997 EQ PUSH2 0x558 JUMPI PUSH1 0x0 DUP1 REVERT JUMPDEST DUP1 PUSH4 0x99FBAB88 GT PUSH2 0xDE JUMPI DUP1 PUSH4 0x99FBAB88 EQ PUSH2 0x423 JUMPI DUP1 PUSH4 0xA22CB465 EQ PUSH2 0x48D JUMPI DUP1 PUSH4 0xA360501C EQ PUSH2 0x4A0 JUMPI DUP1 PUSH4 0xB88D4FDE EQ PUSH2 0x4D8 JUMPI PUSH1 0x0 DUP1 REVERT JUMPDEST DUP1 PUSH4 0x8462151C EQ PUSH2 0x3D3 JUMPI DUP1 PUSH4 0x911757BA EQ PUSH2 0x3F3 JUMPI DUP1 PUSH4 0x95D89B41 EQ PUSH2 0x41B JUMPI PUSH1 0x0 DUP1 REVERT JUMPDEST DUP1 PUSH4 0x2765E88F GT PUSH2 0x17C JUMPI DUP1 PUSH4 0x6352211E GT PUSH2 0x14B JUMPI DUP1 PUSH4 0x6352211E EQ PUSH2 0x366 JUMPI DUP1 PUSH4 0x70A08231 EQ PUSH2 0x379 JUMPI DUP1 PUSH4 0x78DAFFF1 EQ PUSH2 0x38C JUMPI DUP1 PUSH4 0x80B28DB0 EQ PUSH2 0x3B0 JUMPI PUSH1 0x0 DUP1 REVERT JUMPDEST DUP1 PUSH4 0x2765E88F EQ PUSH2 0x2C0 JUMPI DUP1 PUSH4 0x42842E0E EQ PUSH2 0x31E JUMPI DUP1 PUSH4 0x42966C68 EQ PUSH2 0x331 JUMPI DUP1 PUSH4 0x5EF8D0AE EQ PUSH2 0x344 JUMPI PUSH1 0x0 DUP1 REVERT JUMPDEST DUP1 PUSH4 0x95EA7B3 GT PUSH2 0x1B8 JUMPI DUP1 PUSH4 0x95EA7B3 EQ PUSH2 0x25D JUMPI DUP1 PUSH4 0x18160DDD EQ PUSH2 0x272 JUMPI DUP1 PUSH4 0x2090D27D EQ PUSH2 0x289 JUMPI DUP1 PUSH4 0x23B872DD EQ PUSH2 0x2AD JUMPI PUSH1 0x0 DUP1 REVERT JUMPDEST DUP1 PUSH4 0x1FFC9A7 EQ PUSH2 0x1DF JUMPI DUP1 PUSH4 0x6FDDE03 EQ PUSH2 0x207 JUMPI DUP1 PUSH4 0x81812FC EQ PUSH2 0x21C JUMPI JUMPDEST PUSH1 0x0 DUP1 REVERT JUMPDEST PUSH2 0x1F2 PUSH2 0x1ED CALLDATASIZE PUSH1 0x4 PUSH2 0x36F9 JUMP JUMPDEST PUSH2 0x5D2 JUMP JUMPDEST PUSH1 0x40 MLOAD SWAP1 ISZERO ISZERO DUP2 MSTORE PUSH1 0x20 ADD JUMPDEST PUSH1 0x40 MLOAD DUP1 SWAP2 SUB SWAP1 RETURN JUMPDEST PUSH2 0x20F PUSH2 0x624 JUMP JUMPDEST PUSH1 0x40 MLOAD PUSH2 0x1FE SWAP2 SWAP1 PUSH2 0x3766 JUMP JUMPDEST PUSH2 0x245 PUSH2 0x22A CALLDATASIZE PUSH1 0x4 PUSH2 0x3779 JUMP JUMPDEST PUSH1 0x4 PUSH1 0x20 MSTORE PUSH1 0x0 SWAP1 DUP2 MSTORE PUSH1 0x40 SWAP1 KECCAK256 SLOAD PUSH1 0x1 PUSH1 0x1 PUSH1 0xA0 SHL SUB AND DUP2 JUMP JUMPDEST PUSH1 0x40 MLOAD PUSH1 0x1 PUSH1 0x1 PUSH1 0xA0 SHL SUB SWAP1 SWAP2 AND DUP2 MSTORE PUSH1 0x20 ADD PUSH2 0x1FE JUMP JUMPDEST PUSH2 0x270 PUSH2 0x26B CALLDATASIZE PUSH1 0x4 PUSH2 0x37A7 JUMP JUMPDEST PUSH2 0x6B2 JUMP JUMPDEST STOP JUMPDEST PUSH2 0x27B PUSH1 0x6 SLOAD DUP2 JUMP JUMPDEST PUSH1 0x40 MLOAD SWAP1 DUP2 MSTORE PUSH1 0x20 ADD PUSH2 0x1FE JUMP JUMPDEST PUSH2 0x29C PUSH2 0x297 CALLDATASIZE PUSH1 0x4 PUSH2 0x37D3 JUMP JUMPDEST PUSH2 0x799 JUMP JUMPDEST PUSH1 0x40 MLOAD PUSH2 0x1FE SWAP6 SWAP5 SWAP4 SWAP3 SWAP2 SWAP1 PUSH2 0x3897 JUMP JUMPDEST PUSH2 0x270 PUSH2 0x2BB CALLDATASIZE PUSH1 0x4 PUSH2 0x3928 JUMP JUMPDEST PUSH2 0xACE JUMP JUMPDEST PUSH2 0x2D3 PUSH2 0x2CE CALLDATASIZE PUSH1 0x4 PUSH2 0x3779 JUMP JUMPDEST PUSH2 0xC95 JUMP JUMPDEST PUSH1 0x40 DUP1 MLOAD PUSH1 0x1 PUSH1 0x1 PUSH1 0xA0 SHL SUB SWAP1 SWAP8 AND DUP8 MSTORE PUSH1 0x1 PUSH1 0x1 PUSH1 0x80 SHL SUB SWAP6 DUP7 AND PUSH1 0x20 DUP9 ADD MSTORE SWAP4 DUP6 AND SWAP4 DUP7 ADD SWAP4 SWAP1 SWAP4 MSTORE SWAP3 AND PUSH1 0x60 DUP5 ADD MSTORE PUSH1 0x2 SWAP2 DUP3 SIGNEXTEND PUSH1 0x80 DUP5 ADD MSTORE SWAP1 SIGNEXTEND PUSH1 0xA0 DUP3 ADD MSTORE PUSH1 0xC0 ADD PUSH2 0x1FE JUMP JUMPDEST PUSH2 0x270 PUSH2 0x32C CALLDATASIZE PUSH1 0x4 PUSH2 0x3928 JUMP JUMPDEST PUSH2 0xDBA JUMP JUMPDEST PUSH2 0x270 PUSH2 0x33F CALLDATASIZE PUSH1 0x4 PUSH2 0x3779 JUMP JUMPDEST PUSH2 0xEB2 JUMP JUMPDEST PUSH2 0x357 PUSH2 0x352 CALLDATASIZE PUSH1 0x4 PUSH2 0x37D3 JUMP JUMPDEST PUSH2 0x10DA JUMP JUMPDEST PUSH1 0x40 MLOAD PUSH2 0x1FE SWAP4 SWAP3 SWAP2 SWAP1 PUSH2 0x3969 JUMP JUMPDEST PUSH2 0x245 PUSH2 0x374 CALLDATASIZE PUSH1 0x4 PUSH2 0x3779 JUMP JUMPDEST PUSH2 0x120E JUMP JUMPDEST PUSH2 0x27B PUSH2 0x387 CALLDATASIZE PUSH1 0x4 PUSH2 0x37D3 JUMP JUMPDEST PUSH2 0x1265 JUMP JUMPDEST PUSH2 0x39F PUSH2 0x39A CALLDATASIZE PUSH1 0x4 PUSH2 0x37D3 JUMP JUMPDEST PUSH2 0x12C8 JUMP JUMPDEST PUSH1 0x40 MLOAD PUSH2 0x1FE SWAP6 SWAP5 SWAP4 SWAP3 SWAP2 SWAP1 PUSH2 0x39AC JUMP JUMPDEST PUSH2 0x1F2 PUSH2 0x3BE CALLDATASIZE PUSH1 0x4 PUSH2 0x3779 JUMP JUMPDEST PUSH1 0xB PUSH1 0x20 MSTORE PUSH1 0x0 SWAP1 DUP2 MSTORE PUSH1 0x40 SWAP1 KECCAK256 SLOAD PUSH1 0xFF AND DUP2 JUMP JUMPDEST PUSH2 0x3E6 PUSH2 0x3E1 CALLDATASIZE PUSH1 0x4 PUSH2 0x37D3 JUMP JUMPDEST PUSH2 0x1667 JUMP JUMPDEST PUSH1 0x40 MLOAD PUSH2 0x1FE SWAP2 SWAP1 PUSH2 0x3A0D JUMP JUMPDEST PUSH2 0x406 PUSH2 0x401 CALLDATASIZE PUSH1 0x4 PUSH2 0x3A35 JUMP JUMPDEST PUSH2 0x1780 JUMP JUMPDEST PUSH1 0x40 DUP1 MLOAD SWAP3 DUP4 MSTORE PUSH1 0x20 DUP4 ADD SWAP2 SWAP1 SWAP2 MSTORE ADD PUSH2 0x1FE JUMP JUMPDEST PUSH2 0x20F PUSH2 0x1A18 JUMP JUMPDEST PUSH2 0x464 PUSH2 0x431 CALLDATASIZE PUSH1 0x4 PUSH2 0x3779 JUMP JUMPDEST PUSH1 0x9 PUSH1 0x20 MSTORE PUSH1 0x0 SWAP1 DUP2 MSTORE PUSH1 0x40 SWAP1 KECCAK256 SLOAD PUSH1 0x1 PUSH1 0x1 PUSH1 0xA0 SHL SUB DUP2 AND SWAP1 PUSH1 0x1 PUSH1 0xA0 SHL DUP2 DIV PUSH1 0x2 SWAP1 DUP2 SIGNEXTEND SWAP2 PUSH1 0x1 PUSH1 0xB8 SHL SWAP1 DIV SWAP1 SIGNEXTEND DUP4 JUMP JUMPDEST PUSH1 0x40 DUP1 MLOAD PUSH1 0x1 PUSH1 0x1 PUSH1 0xA0 SHL SUB SWAP1 SWAP5 AND DUP5 MSTORE PUSH1 0x2 SWAP3 DUP4 SIGNEXTEND PUSH1 0x20 DUP6 ADD MSTORE SWAP2 SIGNEXTEND SWAP1 DUP3 ADD MSTORE PUSH1 0x60 ADD PUSH2 0x1FE JUMP JUMPDEST PUSH2 0x270 PUSH2 0x49B CALLDATASIZE PUSH1 0x4 PUSH2 0x3A65 JUMP JUMPDEST PUSH2 0x1A25 JUMP JUMPDEST PUSH2 0x4B3 PUSH2 0x4AE CALLDATASIZE PUSH1 0x4 PUSH2 0x3A98 JUMP JUMPDEST PUSH2 0x1A91 JUMP JUMPDEST PUSH1 0x40 DUP1 MLOAD PUSH1 0x1 PUSH1 0x1 PUSH1 0x80 SHL SUB SWAP1 SWAP5 AND DUP5 MSTORE PUSH1 0x20 DUP5 ADD SWAP3 SWAP1 SWAP3 MSTORE SWAP1 DUP3 ADD MSTORE PUSH1 0x60 ADD PUSH2 0x1FE JUMP JUMPDEST PUSH2 0x270 PUSH2 0x4E6 CALLDATASIZE PUSH1 0x4 PUSH2 0x3B1B JUMP JUMPDEST PUSH2 0x1BB6 JUMP JUMPDEST PUSH2 0x245 PUSH32 0x0 DUP2 JUMP JUMPDEST PUSH2 0x20F PUSH2 0x520 CALLDATASIZE PUSH1 0x4 PUSH2 0x3779 JUMP JUMPDEST PUSH2 0x1C9E JUMP JUMPDEST PUSH2 0x538 PUSH2 0x533 CALLDATASIZE PUSH1 0x4 PUSH2 0x3779 JUMP JUMPDEST PUSH2 0x1F72 JUMP JUMPDEST PUSH1 0x40 DUP1 MLOAD PUSH1 0x1 PUSH1 0x1 PUSH1 0x80 SHL SUB SWAP4 DUP5 AND DUP2 MSTORE SWAP3 SWAP1 SWAP2 AND PUSH1 0x20 DUP4 ADD MSTORE ADD PUSH2 0x1FE JUMP JUMPDEST PUSH2 0x270 PUSH2 0x566 CALLDATASIZE PUSH1 0x4 PUSH2 0x3B8D JUMP JUMPDEST PUSH2 0x219C JUMP JUMPDEST PUSH2 0x27B PUSH2 0x579 CALLDATASIZE PUSH1 0x4 PUSH2 0x3BFF JUMP JUMPDEST PUSH2 0x2294 JUMP JUMPDEST PUSH2 0x27B PUSH2 0x58C CALLDATASIZE PUSH1 0x4 PUSH2 0x37A7 JUMP JUMPDEST PUSH2 0x24AA JUMP JUMPDEST PUSH2 0x1F2 PUSH2 0x59F CALLDATASIZE PUSH1 0x4 PUSH2 0x3CA9 JUMP JUMPDEST PUSH1 0x5 PUSH1 0x20 SWAP1 DUP2 MSTORE PUSH1 0x0 SWAP3 DUP4 MSTORE PUSH1 0x40 DUP1 DUP5 KECCAK256 SWAP1 SWAP2 MSTORE SWAP1 DUP3 MSTORE SWAP1 KECCAK256 SLOAD PUSH1 0xFF AND DUP2 JUMP JUMPDEST PUSH2 0x406 PUSH2 0x5CD CALLDATASIZE PUSH1 0x4 PUSH2 0x3779 JUMP JUMPDEST PUSH2 0x24DB JUMP JUMPDEST PUSH1 0x0 PUSH4 0x1FFC9A7 PUSH1 0xE0 SHL PUSH1 0x1 PUSH1 0x1 PUSH1 0xE0 SHL SUB NOT DUP4 AND EQ DUP1 PUSH2 0x603 JUMPI POP PUSH4 0x80AC58CD PUSH1 0xE0 SHL PUSH1 0x1 PUSH1 0x1 PUSH1 0xE0 SHL SUB NOT DUP4 AND EQ JUMPDEST DUP1 PUSH2 0x61E JUMPI POP PUSH4 0x5B5E139F PUSH1 0xE0 SHL PUSH1 0x1 PUSH1 0x1 PUSH1 0xE0 SHL SUB NOT DUP4 AND EQ JUMPDEST SWAP3 SWAP2 POP POP JUMP JUMPDEST PUSH1 0x0 DUP1 SLOAD PUSH2 0x631 SWAP1 PUSH2 0x3CD7 JUMP JUMPDEST DUP1 PUSH1 0x1F ADD PUSH1 0x20 DUP1 SWAP2 DIV MUL PUSH1 0x20 ADD PUSH1 0x40 MLOAD SWAP1 DUP2 ADD PUSH1 0x40 MSTORE DUP1 SWAP3 SWAP2 SWAP1 DUP2 DUP2 MSTORE PUSH1 0x20 ADD DUP3 DUP1 SLOAD PUSH2 0x65D SWAP1 PUSH2 0x3CD7 JUMP JUMPDEST DUP1 ISZERO PUSH2 0x6AA JUMPI DUP1 PUSH1 0x1F LT PUSH2 0x67F JUMPI PUSH2 0x100 DUP1 DUP4 SLOAD DIV MUL DUP4 MSTORE SWAP2 PUSH1 0x20 ADD SWAP2 PUSH2 0x6AA JUMP JUMPDEST DUP3 ADD SWAP2 SWAP1 PUSH1 0x0 MSTORE PUSH1 0x20 PUSH1 0x0 KECCAK256 SWAP1 JUMPDEST DUP2 SLOAD DUP2 MSTORE SWAP1 PUSH1 0x1 ADD SWAP1 PUSH1 0x20 ADD DUP1 DUP4 GT PUSH2 0x68D JUMPI DUP3 SWAP1 SUB PUSH1 0x1F AND DUP3 ADD SWAP2 JUMPDEST POP POP POP POP POP DUP2 JUMP JUMPDEST PUSH1 0x0 DUP2 DUP2 MSTORE PUSH1 0x2 PUSH1 0x20 MSTORE PUSH1 0x40 SWAP1 KECCAK256 SLOAD PUSH1 0x1 PUSH1 0x1 PUSH1 0xA0 SHL SUB AND CALLER DUP2 EQ DUP1 PUSH2 0x6FB JUMPI POP PUSH1 0x1 PUSH1 0x1 PUSH1 0xA0 SHL SUB DUP2 AND PUSH1 0x0 SWAP1 DUP2 MSTORE PUSH1 0x5 PUSH1 0x20 SWAP1 DUP2 MSTORE PUSH1 0x40 DUP1 DUP4 KECCAK256 CALLER DUP5 MSTORE SWAP1 SWAP2 MSTORE SWAP1 KECCAK256 SLOAD PUSH1 0xFF AND JUMPDEST PUSH2 0x73D JUMPI PUSH1 0x40 MLOAD PUSH3 0x461BCD PUSH1 0xE5 SHL DUP2 MSTORE PUSH1 0x20 PUSH1 0x4 DUP3 ADD MSTORE PUSH1 0xE PUSH1 0x24 DUP3 ADD MSTORE PUSH14 0x1393D517D055551213D492569151 PUSH1 0x92 SHL PUSH1 0x44 DUP3 ADD MSTORE PUSH1 0x64 ADD JUMPDEST PUSH1 0x40 MLOAD DUP1 SWAP2 SUB SWAP1 REVERT JUMPDEST PUSH1 0x0 DUP3 DUP2 MSTORE PUSH1 0x4 PUSH1 0x20 MSTORE PUSH1 0x40 DUP1 DUP3 KECCAK256 DUP1 SLOAD PUSH1 0x1 PUSH1 0x1 PUSH1 0xA0 SHL SUB NOT AND PUSH1 0x1 PUSH1 0x1 PUSH1 0xA0 SHL SUB DUP8 DUP2 AND SWAP2 DUP3 OR SWAP1 SWAP3 SSTORE SWAP2 MLOAD DUP6 SWAP4 SWAP2 DUP6 AND SWAP2 PUSH32 0x8C5BE1E5EBEC7D5BD14F71427D1E84F3DD0314C0F7B2291E5B200AC8C7C3B925 SWAP2 LOG4 POP POP POP JUMP JUMPDEST PUSH1 0x60 DUP1 PUSH1 0x60 DUP1 PUSH1 0x60 PUSH1 0x0 PUSH2 0x7AC DUP8 PUSH2 0x1667 JUMP JUMPDEST SWAP1 POP PUSH1 0x0 DUP2 MLOAD PUSH1 0x1 PUSH1 0x1 PUSH1 0x40 SHL SUB DUP2 GT ISZERO PUSH2 0x7C9 JUMPI PUSH2 0x7C9 PUSH2 0x3D0B JUMP JUMPDEST PUSH1 0x40 MLOAD SWAP1 DUP1 DUP3 MSTORE DUP1 PUSH1 0x20 MUL PUSH1 0x20 ADD DUP3 ADD PUSH1 0x40 MSTORE DUP1 ISZERO PUSH2 0x7F2 JUMPI DUP2 PUSH1 0x20 ADD PUSH1 0x20 DUP3 MUL DUP1 CALLDATASIZE DUP4 CALLDATACOPY ADD SWAP1 POP JUMPDEST POP SWAP1 POP PUSH1 0x0 DUP3 MLOAD PUSH1 0x1 PUSH1 0x1 PUSH1 0x40 SHL SUB DUP2 GT ISZERO PUSH2 0x810 JUMPI PUSH2 0x810 PUSH2 0x3D0B JUMP JUMPDEST PUSH1 0x40 MLOAD SWAP1 DUP1 DUP3 MSTORE DUP1 PUSH1 0x20 MUL PUSH1 0x20 ADD DUP3 ADD PUSH1 0x40 MSTORE DUP1 ISZERO PUSH2 0x839 JUMPI DUP2 PUSH1 0x20 ADD PUSH1 0x20 DUP3 MUL DUP1 CALLDATASIZE DUP4 CALLDATACOPY ADD SWAP1 POP JUMPDEST POP SWAP1 POP PUSH1 0x0 DUP4 MLOAD PUSH1 0x1 PUSH1 0x1 PUSH1 0x40 SHL SUB DUP2 GT ISZERO PUSH2 0x857 JUMPI PUSH2 0x857 PUSH2 0x3D0B JUMP JUMPDEST PUSH1 0x40 MLOAD SWAP1 DUP1 DUP3 MSTORE DUP1 PUSH1 0x20 MUL PUSH1 0x20 ADD DUP3 ADD PUSH1 0x40 MSTORE DUP1 ISZERO PUSH2 0x880 JUMPI DUP2 PUSH1 0x20 ADD PUSH1 0x20 DUP3 MUL DUP1 CALLDATASIZE DUP4 CALLDATACOPY ADD SWAP1 POP JUMPDEST POP SWAP1 POP PUSH1 0x0 DUP5 MLOAD PUSH1 0x1 PUSH1 0x1 PUSH1 0x40 SHL SUB DUP2 GT ISZERO PUSH2 0x89E JUMPI PUSH2 0x89E PUSH2 0x3D0B JUMP JUMPDEST PUSH1 0x40 MLOAD SWAP1 DUP1 DUP3 MSTORE DUP1 PUSH1 0x20 MUL PUSH1 0x20 ADD DUP3 ADD PUSH1 0x40 MSTORE DUP1 ISZERO PUSH2 0x8C7 JUMPI DUP2 PUSH1 0x20 ADD PUSH1 0x20 DUP3 MUL DUP1 CALLDATASIZE DUP4 CALLDATACOPY ADD SWAP1 POP JUMPDEST POP SWAP1 POP PUSH1 0x0 JUMPDEST DUP6 MLOAD DUP2 LT ISZERO PUSH2 0xABB JUMPI PUSH1 0x0 PUSH1 0x9 PUSH1 0x0 DUP9 DUP5 DUP2 MLOAD DUP2 LT PUSH2 0x8EE JUMPI PUSH2 0x8EE PUSH2 0x3D21 JUMP JUMPDEST PUSH1 0x20 SWAP1 DUP2 MUL SWAP2 SWAP1 SWAP2 ADD DUP2 ADD MLOAD DUP3 MSTORE DUP2 DUP2 ADD SWAP3 SWAP1 SWAP3 MSTORE PUSH1 0x40 SWAP1 DUP2 ADD PUSH1 0x0 KECCAK256 DUP2 MLOAD PUSH1 0x60 DUP2 ADD DUP4 MSTORE SWAP1 SLOAD PUSH1 0x1 PUSH1 0x1 PUSH1 0xA0 SHL SUB DUP2 AND DUP1 DUP4 MSTORE PUSH1 0x1 PUSH1 0xA0 SHL DUP3 DIV PUSH1 0x2 SWAP1 DUP2 SIGNEXTEND SWAP6 DUP5 ADD SWAP6 SWAP1 SWAP6 MSTORE PUSH1 0x1 PUSH1 0xB8 SHL SWAP1 SWAP2 DIV SWAP1 SWAP4 SIGNEXTEND SWAP2 DUP2 ADD SWAP2 SWAP1 SWAP2 MSTORE SWAP2 POP PUSH2 0x966 JUMPI PUSH1 0x40 MLOAD PUSH4 0x5079FF75 PUSH1 0xE1 SHL DUP2 MSTORE PUSH1 0x4 ADD PUSH1 0x40 MLOAD DUP1 SWAP2 SUB SWAP1 REVERT JUMPDEST DUP1 MLOAD PUSH1 0x0 PUSH1 0x1 PUSH1 0x1 PUSH1 0xA0 SHL SUB DUP3 AND PUSH4 0x514EA4BF PUSH2 0x982 DUP6 PUSH2 0x25D7 JUMP JUMPDEST PUSH1 0x40 MLOAD DUP3 PUSH4 0xFFFFFFFF AND PUSH1 0xE0 SHL DUP2 MSTORE PUSH1 0x4 ADD PUSH2 0x9A0 SWAP2 DUP2 MSTORE PUSH1 0x20 ADD SWAP1 JUMP JUMPDEST PUSH1 0xA0 PUSH1 0x40 MLOAD DUP1 DUP4 SUB DUP2 DUP7 GAS STATICCALL ISZERO DUP1 ISZERO PUSH2 0x9BD JUMPI RETURNDATASIZE PUSH1 0x0 DUP1 RETURNDATACOPY RETURNDATASIZE PUSH1 0x0 REVERT JUMPDEST POP POP POP POP PUSH1 0x40 MLOAD RETURNDATASIZE PUSH1 0x1F NOT PUSH1 0x1F DUP3 ADD AND DUP3 ADD DUP1 PUSH1 0x40 MSTORE POP DUP2 ADD SWAP1 PUSH2 0x9E1 SWAP2 SWAP1 PUSH2 0x3D37 JUMP JUMPDEST POP POP POP POP SWAP1 POP DUP3 PUSH1 0x0 ADD MLOAD DUP9 DUP6 DUP2 MLOAD DUP2 LT PUSH2 0x9FE JUMPI PUSH2 0x9FE PUSH2 0x3D21 JUMP JUMPDEST PUSH1 0x20 MUL PUSH1 0x20 ADD ADD SWAP1 PUSH1 0x1 PUSH1 0x1 PUSH1 0xA0 SHL SUB AND SWAP1 DUP2 PUSH1 0x1 PUSH1 0x1 PUSH1 0xA0 SHL SUB AND DUP2 MSTORE POP POP DUP1 DUP8 DUP6 DUP2 MLOAD DUP2 LT PUSH2 0xA31 JUMPI PUSH2 0xA31 PUSH2 0x3D21 JUMP JUMPDEST PUSH1 0x20 MUL PUSH1 0x20 ADD ADD SWAP1 PUSH1 0x1 PUSH1 0x1 PUSH1 0x80 SHL SUB AND SWAP1 DUP2 PUSH1 0x1 PUSH1 0x1 PUSH1 0x80 SHL SUB AND DUP2 MSTORE POP POP DUP3 PUSH1 0x20 ADD MLOAD DUP7 DUP6 DUP2 MLOAD DUP2 LT PUSH2 0xA68 JUMPI PUSH2 0xA68 PUSH2 0x3D21 JUMP JUMPDEST PUSH1 0x20 MUL PUSH1 0x20 ADD ADD SWAP1 PUSH1 0x2 SIGNEXTEND SWAP1 DUP2 PUSH1 0x2 SIGNEXTEND DUP2 MSTORE POP POP DUP3 PUSH1 0x40 ADD MLOAD DUP6 DUP6 DUP2 MLOAD DUP2 LT PUSH2 0xA93 JUMPI PUSH2 0xA93 PUSH2 0x3D21 JUMP JUMPDEST PUSH1 0x20 MUL PUSH1 0x20 ADD ADD SWAP1 PUSH1 0x2 SIGNEXTEND SWAP1 DUP2 PUSH1 0x2 SIGNEXTEND DUP2 MSTORE POP POP POP POP POP DUP1 PUSH2 0xAB4 SWAP1 PUSH2 0x3DAF JUMP JUMPDEST SWAP1 POP PUSH2 0x8CD JUMP JUMPDEST POP SWAP4 SWAP11 SWAP3 SWAP10 POP SWAP1 SWAP8 POP SWAP6 POP SWAP1 SWAP4 POP SWAP2 POP POP JUMP JUMPDEST PUSH1 0x0 DUP2 DUP2 MSTORE PUSH1 0x2 PUSH1 0x20 MSTORE PUSH1 0x40 SWAP1 KECCAK256 SLOAD PUSH1 0x1 PUSH1 0x1 PUSH1 0xA0 SHL SUB DUP5 DUP2 AND SWAP2 AND EQ PUSH2 0xB24 JUMPI PUSH1 0x40 MLOAD PUSH3 0x461BCD PUSH1 0xE5 SHL DUP2 MSTORE PUSH1 0x20 PUSH1 0x4 DUP3 ADD MSTORE PUSH1 0xA PUSH1 0x24 DUP3 ADD MSTORE PUSH10 0x57524F4E475F46524F4D PUSH1 0xB0 SHL PUSH1 0x44 DUP3 ADD MSTORE PUSH1 0x64 ADD PUSH2 0x734 JUMP JUMPDEST PUSH1 0x1 PUSH1 0x1 PUSH1 0xA0 SHL SUB DUP3 AND PUSH2 0xB6E JUMPI PUSH1 0x40 MLOAD PUSH3 0x461BCD PUSH1 0xE5 SHL DUP2 MSTORE PUSH1 0x20 PUSH1 0x4 DUP3 ADD MSTORE PUSH1 0x11 PUSH1 0x24 DUP3 ADD MSTORE PUSH17 0x1253959053125117D49150D25412515395 PUSH1 0x7A SHL PUSH1 0x44 DUP3 ADD MSTORE PUSH1 0x64 ADD PUSH2 0x734 JUMP JUMPDEST CALLER PUSH1 0x1 PUSH1 0x1 PUSH1 0xA0 SHL SUB DUP5 AND EQ DUP1 PUSH2 0xBA8 JUMPI POP PUSH1 0x1 PUSH1 0x1 PUSH1 0xA0 SHL SUB DUP4 AND PUSH1 0x0 SWAP1 DUP2 MSTORE PUSH1 0x5 PUSH1 0x20 SWAP1 DUP2 MSTORE PUSH1 0x40 DUP1 DUP4 KECCAK256 CALLER DUP5 MSTORE SWAP1 SWAP2 MSTORE SWAP1 KECCAK256 SLOAD PUSH1 0xFF AND JUMPDEST DUP1 PUSH2 0xBC9 JUMPI POP PUSH1 0x0 DUP2 DUP2 MSTORE PUSH1 0x4 PUSH1 0x20 MSTORE PUSH1 0x40 SWAP1 KECCAK256 SLOAD PUSH1 0x1 PUSH1 0x1 PUSH1 0xA0 SHL SUB AND CALLER EQ JUMPDEST PUSH2 0xC06 JUMPI PUSH1 0x40 MLOAD PUSH3 0x461BCD PUSH1 0xE5 SHL DUP2 MSTORE PUSH1 0x20 PUSH1 0x4 DUP3 ADD MSTORE PUSH1 0xE PUSH1 0x24 DUP3 ADD MSTORE PUSH14 0x1393D517D055551213D492569151 PUSH1 0x92 SHL PUSH1 0x44 DUP3 ADD MSTORE PUSH1 0x64 ADD PUSH2 0x734 JUMP JUMPDEST PUSH1 0x1 PUSH1 0x1 PUSH1 0xA0 SHL SUB DUP1 DUP5 AND PUSH1 0x0 DUP2 DUP2 MSTORE PUSH1 0x3 PUSH1 0x20 SWAP1 DUP2 MSTORE PUSH1 0x40 DUP1 DUP4 KECCAK256 DUP1 SLOAD PUSH1 0x0 NOT ADD SWAP1 SSTORE SWAP4 DUP7 AND DUP1 DUP4 MSTORE DUP5 DUP4 KECCAK256 DUP1 SLOAD PUSH1 0x1 ADD SWAP1 SSTORE DUP6 DUP4 MSTORE PUSH1 0x2 DUP3 MSTORE DUP5 DUP4 KECCAK256 DUP1 SLOAD PUSH1 0x1 PUSH1 0x1 PUSH1 0xA0 SHL SUB NOT SWAP1 DUP2 AND DUP4 OR SWAP1 SWAP2 SSTORE PUSH1 0x4 SWAP1 SWAP3 MSTORE DUP5 DUP4 KECCAK256 DUP1 SLOAD SWAP1 SWAP3 AND SWAP1 SWAP2 SSTORE SWAP3 MLOAD DUP5 SWAP4 SWAP3 SWAP2 PUSH32 0xDDF252AD1BE2C89B69C2B068FC378DAA952BA7F163C4A11628F55A4DF523B3EF SWAP2 LOG4 POP POP POP JUMP JUMPDEST PUSH1 0x0 DUP2 DUP2 MSTORE PUSH1 0x9 PUSH1 0x20 SWAP1 DUP2 MSTORE PUSH1 0x40 DUP1 DUP4 KECCAK256 DUP2 MLOAD PUSH1 0x60 DUP2 ADD DUP4 MSTORE SWAP1 SLOAD PUSH1 0x1 PUSH1 0x1 PUSH1 0xA0 SHL SUB DUP2 AND DUP1 DUP4 MSTORE PUSH1 0x1 PUSH1 0xA0 SHL DUP3 DIV PUSH1 0x2 SWAP1 DUP2 SIGNEXTEND SWAP6 DUP5 ADD SWAP6 SWAP1 SWAP6 MSTORE PUSH1 0x1 PUSH1 0xB8 SHL SWAP1 SWAP2 DIV SWAP1 SWAP4 SIGNEXTEND SWAP2 DUP2 ADD SWAP2 SWAP1 SWAP2 MSTORE DUP3 SWAP2 DUP3 SWAP2 DUP3 SWAP2 DUP3 SWAP2 DUP3 SWAP2 PUSH2 0xD09 JUMPI PUSH1 0x40 MLOAD PUSH4 0x5079FF75 PUSH1 0xE1 SHL DUP2 MSTORE PUSH1 0x4 ADD PUSH1 0x40 MLOAD DUP1 SWAP2 SUB SWAP1 REVERT JUMPDEST DUP1 MLOAD PUSH1 0x0 DUP1 DUP1 PUSH1 0x1 PUSH1 0x1 PUSH1 0xA0 SHL SUB DUP5 AND PUSH4 0x514EA4BF PUSH2 0xD27 DUP8 PUSH2 0x25D7 JUMP JUMPDEST PUSH1 0x40 MLOAD DUP3 PUSH4 0xFFFFFFFF AND PUSH1 0xE0 SHL DUP2 MSTORE PUSH1 0x4 ADD PUSH2 0xD45 SWAP2 DUP2 MSTORE PUSH1 0x20 ADD SWAP1 JUMP JUMPDEST PUSH1 0xA0 PUSH1 0x40 MLOAD DUP1 DUP4 SUB DUP2 DUP7 GAS STATICCALL ISZERO DUP1 ISZERO PUSH2 0xD62 JUMPI RETURNDATASIZE PUSH1 0x0 DUP1 RETURNDATACOPY RETURNDATASIZE PUSH1 0x0 REVERT JUMPDEST POP POP POP POP PUSH1 0x40 MLOAD RETURNDATASIZE PUSH1 0x1F NOT PUSH1 0x1F DUP3 ADD AND DUP3 ADD DUP1 PUSH1 0x40 MSTORE POP DUP2 ADD SWAP1 PUSH2 0xD86 SWAP2 SWAP1 PUSH2 0x3D37 JUMP JUMPDEST SWAP5 POP SWAP5 POP POP POP SWAP3 POP DUP5 PUSH1 0x0 ADD MLOAD DUP4 DUP4 DUP4 DUP9 PUSH1 0x20 ADD MLOAD DUP10 PUSH1 0x40 ADD MLOAD SWAP11 POP SWAP11 POP SWAP11 POP SWAP11 POP SWAP11 POP SWAP11 POP POP POP POP POP POP SWAP2 SWAP4 SWAP6 POP SWAP2 SWAP4 SWAP6 JUMP JUMPDEST PUSH2 0xDC5 DUP4 DUP4 DUP4 PUSH2 0xACE JUMP JUMPDEST PUSH1 0x1 PUSH1 0x1 PUSH1 0xA0 SHL SUB DUP3 AND EXTCODESIZE ISZERO DUP1 PUSH2 0xE6E JUMPI POP PUSH1 0x40 MLOAD PUSH4 0xA85BD01 PUSH1 0xE1 SHL DUP1 DUP3 MSTORE CALLER PUSH1 0x4 DUP4 ADD MSTORE PUSH1 0x1 PUSH1 0x1 PUSH1 0xA0 SHL SUB DUP6 DUP2 AND PUSH1 0x24 DUP5 ADD MSTORE PUSH1 0x44 DUP4 ADD DUP5 SWAP1 MSTORE PUSH1 0x80 PUSH1 0x64 DUP5 ADD MSTORE PUSH1 0x0 PUSH1 0x84 DUP5 ADD MSTORE SWAP1 SWAP2 SWAP1 DUP5 AND SWAP1 PUSH4 0x150B7A02 SWAP1 PUSH1 0xA4 ADD PUSH1 0x20 PUSH1 0x40 MLOAD DUP1 DUP4 SUB DUP2 PUSH1 0x0 DUP8 GAS CALL ISZERO DUP1 ISZERO PUSH2 0xE3E JUMPI RETURNDATASIZE PUSH1 0x0 DUP1 RETURNDATACOPY RETURNDATASIZE PUSH1 0x0 REVERT JUMPDEST POP POP POP POP PUSH1 0x40 MLOAD RETURNDATASIZE PUSH1 0x1F NOT PUSH1 0x1F DUP3 ADD AND DUP3 ADD DUP1 PUSH1 0x40 MSTORE POP DUP2 ADD SWAP1 PUSH2 0xE62 SWAP2 SWAP1 PUSH2 0x3DC8 JUMP JUMPDEST PUSH1 0x1 PUSH1 0x1 PUSH1 0xE0 SHL SUB NOT AND EQ JUMPDEST PUSH2 0xEAD JUMPI PUSH1 0x40 MLOAD PUSH3 0x461BCD PUSH1 0xE5 SHL DUP2 MSTORE PUSH1 0x20 PUSH1 0x4 DUP3 ADD MSTORE PUSH1 0x10 PUSH1 0x24 DUP3 ADD MSTORE PUSH16 0x155394D0519157D49150D25412515395 PUSH1 0x82 SHL PUSH1 0x44 DUP3 ADD MSTORE PUSH1 0x64 ADD PUSH2 0x734 JUMP JUMPDEST POP POP POP JUMP JUMPDEST DUP1 PUSH1 0x0 PUSH2 0xEBE DUP3 PUSH2 0x120E JUMP JUMPDEST SWAP1 POP CALLER PUSH1 0x1 PUSH1 0x1 PUSH1 0xA0 SHL SUB DUP3 AND EQ DUP1 ISZERO SWAP1 PUSH2 0xEFD JUMPI POP PUSH1 0x1 PUSH1 0x1 PUSH1 0xA0 SHL SUB DUP2 AND PUSH1 0x0 SWAP1 DUP2 MSTORE PUSH1 0x5 PUSH1 0x20 SWAP1 DUP2 MSTORE PUSH1 0x40 DUP1 DUP4 KECCAK256 CALLER DUP5 MSTORE SWAP1 SWAP2 MSTORE SWAP1 KECCAK256 SLOAD PUSH1 0xFF AND ISZERO JUMPDEST DUP1 ISZERO PUSH2 0xF20 JUMPI POP PUSH1 0x0 DUP3 DUP2 MSTORE PUSH1 0x4 PUSH1 0x20 MSTORE PUSH1 0x40 SWAP1 KECCAK256 SLOAD PUSH1 0x1 PUSH1 0x1 PUSH1 0xA0 SHL SUB AND CALLER EQ ISZERO JUMPDEST ISZERO PUSH2 0xF3E JUMPI PUSH1 0x40 MLOAD PUSH4 0xEA8E4EB5 PUSH1 0xE0 SHL DUP2 MSTORE PUSH1 0x4 ADD PUSH1 0x40 MLOAD DUP1 SWAP2 SUB SWAP1 REVERT JUMPDEST PUSH1 0x0 DUP4 DUP2 MSTORE PUSH1 0x9 PUSH1 0x20 SWAP1 DUP2 MSTORE PUSH1 0x40 SWAP2 DUP3 SWAP1 KECCAK256 DUP3 MLOAD PUSH1 0x60 DUP2 ADD DUP5 MSTORE SWAP1 SLOAD PUSH1 0x1 PUSH1 0x1 PUSH1 0xA0 SHL SUB DUP2 AND DUP1 DUP4 MSTORE PUSH1 0x1 PUSH1 0xA0 SHL DUP3 DIV PUSH1 0x2 SWAP1 DUP2 SIGNEXTEND SWAP5 DUP5 ADD SWAP5 SWAP1 SWAP5 MSTORE PUSH1 0x1 PUSH1 0xB8 SHL SWAP1 SWAP2 DIV SWAP1 SWAP3 SIGNEXTEND SWAP3 DUP2 ADD SWAP3 SWAP1 SWAP3 MSTORE PUSH2 0xFA9 JUMPI PUSH1 0x40 MLOAD PUSH4 0x5079FF75 PUSH1 0xE1 SHL DUP2 MSTORE PUSH1 0x4 ADD PUSH1 0x40 MLOAD DUP1 SWAP2 SUB SWAP1 REVERT JUMPDEST DUP1 MLOAD PUSH1 0x0 DUP1 DUP1 PUSH1 0x1 PUSH1 0x1 PUSH1 0xA0 SHL SUB DUP5 AND PUSH4 0x514EA4BF PUSH2 0xFC7 DUP8 PUSH2 0x25D7 JUMP JUMPDEST PUSH1 0x40 MLOAD DUP3 PUSH4 0xFFFFFFFF AND PUSH1 0xE0 SHL DUP2 MSTORE PUSH1 0x4 ADD PUSH2 0xFE5 SWAP2 DUP2 MSTORE PUSH1 0x20 ADD SWAP1 JUMP JUMPDEST PUSH1 0xA0 PUSH1 0x40 MLOAD DUP1 DUP4 SUB DUP2 DUP7 GAS STATICCALL ISZERO DUP1 ISZERO PUSH2 0x1002 JUMPI RETURNDATASIZE PUSH1 0x0 DUP1 RETURNDATACOPY RETURNDATASIZE PUSH1 0x0 REVERT JUMPDEST POP POP POP POP PUSH1 0x40 MLOAD RETURNDATASIZE PUSH1 0x1F NOT PUSH1 0x1F DUP3 ADD AND DUP3 ADD DUP1 PUSH1 0x40 MSTORE POP DUP2 ADD SWAP1 PUSH2 0x1026 SWAP2 SWAP1 PUSH2 0x3D37 JUMP JUMPDEST SWAP5 POP SWAP5 POP POP POP SWAP3 POP PUSH1 0x0 DUP4 PUSH1 0x1 PUSH1 0x1 PUSH1 0x80 SHL SUB AND GT DUP1 PUSH2 0x104F JUMPI POP PUSH1 0x0 DUP3 PUSH1 0x1 PUSH1 0x1 PUSH1 0x80 SHL SUB AND GT JUMPDEST DUP1 PUSH2 0x1063 JUMPI POP PUSH1 0x0 DUP2 PUSH1 0x1 PUSH1 0x1 PUSH1 0x80 SHL SUB AND GT JUMPDEST ISZERO PUSH2 0x1081 JUMPI PUSH1 0x40 MLOAD PUSH4 0x6C4E633B PUSH1 0xE1 SHL DUP2 MSTORE PUSH1 0x4 ADD PUSH1 0x40 MLOAD DUP1 SWAP2 SUB SWAP1 REVERT JUMPDEST PUSH1 0x0 DUP9 DUP2 MSTORE PUSH1 0x9 PUSH1 0x20 SWAP1 DUP2 MSTORE PUSH1 0x40 DUP1 DUP4 KECCAK256 DUP1 SLOAD PUSH1 0x1 PUSH1 0x1 PUSH1 0xD0 SHL SUB NOT AND SWAP1 SSTORE PUSH1 0xB SWAP1 SWAP2 MSTORE SWAP1 KECCAK256 DUP1 SLOAD PUSH1 0xFF NOT AND PUSH1 0x1 OR SWAP1 SSTORE PUSH2 0x10BB DUP9 PUSH2 0x2627 JUMP JUMPDEST PUSH1 0x6 DUP1 SLOAD SWAP1 PUSH1 0x0 PUSH2 0x10CB DUP4 PUSH2 0x3DE5 JUMP JUMPDEST SWAP2 SWAP1 POP SSTORE POP POP POP POP POP POP POP POP POP JUMP JUMPDEST PUSH1 0x60 DUP1 PUSH1 0x60 PUSH1 0x0 PUSH2 0x10EA DUP6 PUSH2 0x1667 JUMP JUMPDEST SWAP1 POP PUSH1 0x0 DUP2 MLOAD PUSH1 0x1 PUSH1 0x1 PUSH1 0x40 SHL SUB DUP2 GT ISZERO PUSH2 0x1107 JUMPI PUSH2 0x1107 PUSH2 0x3D0B JUMP JUMPDEST PUSH1 0x40 MLOAD SWAP1 DUP1 DUP3 MSTORE DUP1 PUSH1 0x20 MUL PUSH1 0x20 ADD DUP3 ADD PUSH1 0x40 MSTORE DUP1 ISZERO PUSH2 0x1130 JUMPI DUP2 PUSH1 0x20 ADD PUSH1 0x20 DUP3 MUL DUP1 CALLDATASIZE DUP4 CALLDATACOPY ADD SWAP1 POP JUMPDEST POP SWAP1 POP PUSH1 0x0 DUP3 MLOAD PUSH1 0x1 PUSH1 0x1 PUSH1 0x40 SHL SUB DUP2 GT ISZERO PUSH2 0x114E JUMPI PUSH2 0x114E PUSH2 0x3D0B JUMP JUMPDEST PUSH1 0x40 MLOAD SWAP1 DUP1 DUP3 MSTORE DUP1 PUSH1 0x20 MUL PUSH1 0x20 ADD DUP3 ADD PUSH1 0x40 MSTORE DUP1 ISZERO PUSH2 0x1177 JUMPI DUP2 PUSH1 0x20 ADD PUSH1 0x20 DUP3 MUL DUP1 CALLDATASIZE DUP4 CALLDATACOPY ADD SWAP1 POP JUMPDEST POP SWAP1 POP PUSH1 0x0 JUMPDEST DUP4 MLOAD DUP2 LT ISZERO PUSH2 0x1200 JUMPI PUSH1 0x0 DUP1 PUSH2 0x11AB DUP7 DUP5 DUP2 MLOAD DUP2 LT PUSH2 0x119E JUMPI PUSH2 0x119E PUSH2 0x3D21 JUMP JUMPDEST PUSH1 0x20 MUL PUSH1 0x20 ADD ADD MLOAD PUSH2 0x24DB JUMP JUMPDEST SWAP2 POP SWAP2 POP DUP2 DUP6 DUP5 DUP2 MLOAD DUP2 LT PUSH2 0x11C2 JUMPI PUSH2 0x11C2 PUSH2 0x3D21 JUMP JUMPDEST PUSH1 0x20 MUL PUSH1 0x20 ADD ADD DUP2 DUP2 MSTORE POP POP DUP1 DUP5 DUP5 DUP2 MLOAD DUP2 LT PUSH2 0x11E1 JUMPI PUSH2 0x11E1 PUSH2 0x3D21 JUMP JUMPDEST PUSH1 0x20 MUL PUSH1 0x20 ADD ADD DUP2 DUP2 MSTORE POP POP POP POP DUP1 PUSH2 0x11F9 SWAP1 PUSH2 0x3DAF JUMP JUMPDEST SWAP1 POP PUSH2 0x117D JUMP JUMPDEST POP SWAP2 SWAP7 SWAP1 SWAP6 POP SWAP1 SWAP4 POP SWAP2 POP POP JUMP JUMPDEST PUSH1 0x0 DUP2 DUP2 MSTORE PUSH1 0x2 PUSH1 0x20 MSTORE PUSH1 0x40 SWAP1 KECCAK256 SLOAD PUSH1 0x1 PUSH1 0x1 PUSH1 0xA0 SHL SUB AND DUP1 PUSH2 0x1260 JUMPI PUSH1 0x40 MLOAD PUSH3 0x461BCD PUSH1 0xE5 SHL DUP2 MSTORE PUSH1 0x20 PUSH1 0x4 DUP3 ADD MSTORE PUSH1 0xA PUSH1 0x24 DUP3 ADD MSTORE PUSH10 0x1393D517D35253951151 PUSH1 0xB2 SHL PUSH1 0x44 DUP3 ADD MSTORE PUSH1 0x64 ADD PUSH2 0x734 JUMP JUMPDEST SWAP2 SWAP1 POP JUMP JUMPDEST PUSH1 0x0 PUSH1 0x1 PUSH1 0x1 PUSH1 0xA0 SHL SUB DUP3 AND PUSH2 0x12AC JUMPI PUSH1 0x40 MLOAD PUSH3 0x461BCD PUSH1 0xE5 SHL DUP2 MSTORE PUSH1 0x20 PUSH1 0x4 DUP3 ADD MSTORE PUSH1 0xC PUSH1 0x24 DUP3 ADD MSTORE PUSH12 0x5A45524F5F41444452455353 PUSH1 0xA0 SHL PUSH1 0x44 DUP3 ADD MSTORE PUSH1 0x64 ADD PUSH2 0x734 JUMP JUMPDEST POP PUSH1 0x1 PUSH1 0x1 PUSH1 0xA0 SHL SUB AND PUSH1 0x0 SWAP1 DUP2 MSTORE PUSH1 0x3 PUSH1 0x20 MSTORE PUSH1 0x40 SWAP1 KECCAK256 SLOAD SWAP1 JUMP JUMPDEST PUSH1 0x60 DUP1 PUSH1 0x60 DUP1 PUSH1 0x60 PUSH1 0x0 PUSH2 0x12DB DUP8 PUSH2 0x1667 JUMP JUMPDEST SWAP1 POP PUSH1 0x0 DUP2 MLOAD PUSH1 0x1 PUSH1 0x1 PUSH1 0x40 SHL SUB DUP2 GT ISZERO PUSH2 0x12F8 JUMPI PUSH2 0x12F8 PUSH2 0x3D0B JUMP JUMPDEST PUSH1 0x40 MLOAD SWAP1 DUP1 DUP3 MSTORE DUP1 PUSH1 0x20 MUL PUSH1 0x20 ADD DUP3 ADD PUSH1 0x40 MSTORE DUP1 ISZERO PUSH2 0x1321 JUMPI DUP2 PUSH1 0x20 ADD PUSH1 0x20 DUP3 MUL DUP1 CALLDATASIZE DUP4 CALLDATACOPY ADD SWAP1 POP JUMPDEST POP SWAP1 POP PUSH1 0x0 DUP3 MLOAD PUSH1 0x1 PUSH1 0x1 PUSH1 0x40 SHL SUB DUP2 GT ISZERO PUSH2 0x133F JUMPI PUSH2 0x133F PUSH2 0x3D0B JUMP JUMPDEST PUSH1 0x40 MLOAD SWAP1 DUP1 DUP3 MSTORE DUP1 PUSH1 0x20 MUL PUSH1 0x20 ADD DUP3 ADD PUSH1 0x40 MSTORE DUP1 ISZERO PUSH2 0x1368 JUMPI DUP2 PUSH1 0x20 ADD PUSH1 0x20 DUP3 MUL DUP1 CALLDATASIZE DUP4 CALLDATACOPY ADD SWAP1 POP JUMPDEST POP SWAP1 POP PUSH1 0x0 DUP4 MLOAD PUSH1 0x1 PUSH1 0x1 PUSH1 0x40 SHL SUB DUP2 GT ISZERO PUSH2 0x1386 JUMPI PUSH2 0x1386 PUSH2 0x3D0B JUMP JUMPDEST PUSH1 0x40 MLOAD SWAP1 DUP1 DUP3 MSTORE DUP1 PUSH1 0x20 MUL PUSH1 0x20 ADD DUP3 ADD PUSH1 0x40 MSTORE DUP1 ISZERO PUSH2 0x13AF JUMPI DUP2 PUSH1 0x20 ADD PUSH1 0x20 DUP3 MUL DUP1 CALLDATASIZE DUP4 CALLDATACOPY ADD SWAP1 POP JUMPDEST POP SWAP1 POP PUSH1 0x0 DUP5 MLOAD PUSH1 0x1 PUSH1 0x1 PUSH1 0x40 SHL SUB DUP2 GT ISZERO PUSH2 0x13CD JUMPI PUSH2 0x13CD PUSH2 0x3D0B JUMP JUMPDEST PUSH1 0x40 MLOAD SWAP1 DUP1 DUP3 MSTORE DUP1 PUSH1 0x20 MUL PUSH1 0x20 ADD DUP3 ADD PUSH1 0x40 MSTORE DUP1 ISZERO PUSH2 0x13F6 JUMPI DUP2 PUSH1 0x20 ADD PUSH1 0x20 DUP3 MUL DUP1 CALLDATASIZE DUP4 CALLDATACOPY ADD SWAP1 POP JUMPDEST POP SWAP1 POP PUSH1 0x0 JUMPDEST DUP6 MLOAD DUP2 LT ISZERO PUSH2 0xABB JUMPI PUSH1 0x0 PUSH1 0x9 PUSH1 0x0 DUP9 DUP5 DUP2 MLOAD DUP2 LT PUSH2 0x141D JUMPI PUSH2 0x141D PUSH2 0x3D21 JUMP JUMPDEST PUSH1 0x20 SWAP1 DUP2 MUL SWAP2 SWAP1 SWAP2 ADD DUP2 ADD MLOAD DUP3 MSTORE DUP2 DUP2 ADD SWAP3 SWAP1 SWAP3 MSTORE PUSH1 0x40 SWAP1 DUP2 ADD PUSH1 0x0 KECCAK256 DUP2 MLOAD PUSH1 0x60 DUP2 ADD DUP4 MSTORE SWAP1 SLOAD PUSH1 0x1 PUSH1 0x1 PUSH1 0xA0 SHL SUB DUP2 AND DUP1 DUP4 MSTORE PUSH1 0x1 PUSH1 0xA0 SHL DUP3 DIV PUSH1 0x2 SWAP1 DUP2 SIGNEXTEND SWAP6 DUP5 ADD SWAP6 SWAP1 SWAP6 MSTORE PUSH1 0x1 PUSH1 0xB8 SHL SWAP1 SWAP2 DIV SWAP1 SWAP4 SIGNEXTEND SWAP2 DUP2 ADD SWAP2 SWAP1 SWAP2 MSTORE SWAP2 POP PUSH2 0x1495 JUMPI PUSH1 0x40 MLOAD PUSH4 0x5079FF75 PUSH1 0xE1 SHL DUP2 MSTORE PUSH1 0x4 ADD PUSH1 0x40 MLOAD DUP1 SWAP2 SUB SWAP1 REVERT JUMPDEST DUP1 MLOAD PUSH1 0x0 DUP1 DUP1 PUSH1 0x1 PUSH1 0x1 PUSH1 0xA0 SHL SUB DUP5 AND PUSH4 0x514EA4BF PUSH2 0x14B3 DUP8 PUSH2 0x25D7 JUMP JUMPDEST PUSH1 0x40 MLOAD DUP3 PUSH4 0xFFFFFFFF AND PUSH1 0xE0 SHL DUP2 MSTORE PUSH1 0x4 ADD PUSH2 0x14D1 SWAP2 DUP2 MSTORE PUSH1 0x20 ADD SWAP1 JUMP JUMPDEST PUSH1 0xA0 PUSH1 0x40 MLOAD DUP1 DUP4 SUB DUP2 DUP7 GAS STATICCALL ISZERO DUP1 ISZERO PUSH2 0x14EE JUMPI RETURNDATASIZE PUSH1 0x0 DUP1 RETURNDATACOPY RETURNDATASIZE PUSH1 0x0 REVERT JUMPDEST POP POP POP POP PUSH1 0x40 MLOAD RETURNDATASIZE PUSH1 0x1F NOT PUSH1 0x1F DUP3 ADD AND DUP3 ADD DUP1 PUSH1 0x40 MSTORE POP DUP2 ADD SWAP1 PUSH2 0x1512 SWAP2 SWAP1 PUSH2 0x3D37 JUMP JUMPDEST PUSH1 0x20 DUP11 ADD MLOAD PUSH1 0x40 DUP1 DUP13 ADD MLOAD SWAP1 MLOAD PUSH4 0x5BF87BA1 PUSH1 0xE0 SHL DUP2 MSTORE PUSH1 0x2 SWAP3 DUP4 SIGNEXTEND PUSH1 0x4 DUP3 ADD MSTORE SWAP2 SIGNEXTEND PUSH1 0x24 DUP3 ADD MSTORE PUSH1 0xF DUP7 SWAP1 SIGNEXTEND PUSH1 0x44 DUP3 ADD MSTORE SWAP5 SWAP8 POP SWAP1 SWAP6 POP SWAP4 POP PUSH1 0x0 SWAP3 DUP4 SWAP3 POP PUSH1 0x1 PUSH1 0x1 PUSH1 0xA0 SHL SUB DUP9 AND SWAP2 POP PUSH4 0x5BF87BA1 SWAP1 PUSH1 0x64 ADD PUSH1 0x40 DUP1 MLOAD DUP1 DUP4 SUB DUP2 DUP7 GAS STATICCALL ISZERO DUP1 ISZERO PUSH2 0x1583 JUMPI RETURNDATASIZE PUSH1 0x0 DUP1 RETURNDATACOPY RETURNDATASIZE PUSH1 0x0 REVERT JUMPDEST POP POP POP POP PUSH1 0x40 MLOAD RETURNDATASIZE PUSH1 0x1F NOT PUSH1 0x1F DUP3 ADD AND DUP3 ADD DUP1 PUSH1 0x40 MSTORE POP DUP2 ADD SWAP1 PUSH2 0x15A7 SWAP2 SWAP1 PUSH2 0x3DFC JUMP JUMPDEST SWAP2 POP SWAP2 POP DUP2 DUP13 DUP10 DUP2 MLOAD DUP2 LT PUSH2 0x15BE JUMPI PUSH2 0x15BE PUSH2 0x3D21 JUMP JUMPDEST PUSH1 0x20 MUL PUSH1 0x20 ADD ADD DUP2 DUP2 MSTORE POP POP DUP1 DUP12 DUP10 DUP2 MLOAD DUP2 LT PUSH2 0x15DD JUMPI PUSH2 0x15DD PUSH2 0x3D21 JUMP JUMPDEST PUSH1 0x20 MUL PUSH1 0x20 ADD ADD DUP2 DUP2 MSTORE POP POP DUP4 DUP11 DUP10 DUP2 MLOAD DUP2 LT PUSH2 0x15FC JUMPI PUSH2 0x15FC PUSH2 0x3D21 JUMP JUMPDEST PUSH1 0x20 MUL PUSH1 0x20 ADD ADD SWAP1 PUSH1 0x1 PUSH1 0x1 PUSH1 0x80 SHL SUB AND SWAP1 DUP2 PUSH1 0x1 PUSH1 0x1 PUSH1 0x80 SHL SUB AND DUP2 MSTORE POP POP DUP3 DUP10 DUP10 DUP2 MLOAD DUP2 LT PUSH2 0x162F JUMPI PUSH2 0x162F PUSH2 0x3D21 JUMP JUMPDEST PUSH1 0x20 MUL PUSH1 0x20 ADD ADD SWAP1 PUSH1 0x1 PUSH1 0x1 PUSH1 0x80 SHL SUB AND SWAP1 DUP2 PUSH1 0x1 PUSH1 0x1 PUSH1 0x80 SHL SUB AND DUP2 MSTORE POP POP POP POP POP POP POP POP POP DUP1 PUSH2 0x1660 SWAP1 PUSH2 0x3DAF JUMP JUMPDEST SWAP1 POP PUSH2 0x13FC JUMP JUMPDEST PUSH1 0x60 PUSH1 0x0 PUSH2 0x1674 DUP4 PUSH2 0x1265 JUMP JUMPDEST SWAP1 POP DUP1 PUSH1 0x0 SUB PUSH2 0x1694 JUMPI POP POP PUSH1 0x40 DUP1 MLOAD PUSH1 0x0 DUP2 MSTORE PUSH1 0x20 DUP2 ADD SWAP1 SWAP2 MSTORE SWAP2 SWAP1 POP JUMP JUMPDEST PUSH1 0x0 DUP2 PUSH1 0x1 PUSH1 0x1 PUSH1 0x40 SHL SUB DUP2 GT ISZERO PUSH2 0x16AE JUMPI PUSH2 0x16AE PUSH2 0x3D0B JUMP JUMPDEST PUSH1 0x40 MLOAD SWAP1 DUP1 DUP3 MSTORE DUP1 PUSH1 0x20 MUL PUSH1 0x20 ADD DUP3 ADD PUSH1 0x40 MSTORE DUP1 ISZERO PUSH2 0x16D7 JUMPI DUP2 PUSH1 0x20 ADD PUSH1 0x20 DUP3 MUL DUP1 CALLDATASIZE DUP4 CALLDATACOPY ADD SWAP1 POP JUMPDEST POP PUSH1 0x7 SLOAD SWAP1 SWAP2 POP PUSH1 0x0 DUP1 JUMPDEST DUP3 DUP3 LT DUP1 ISZERO PUSH2 0x16F0 JUMPI POP DUP3 DUP2 LT JUMPDEST ISZERO PUSH2 0x176F JUMPI PUSH1 0x0 DUP2 DUP2 MSTORE PUSH1 0xB PUSH1 0x20 MSTORE PUSH1 0x40 SWAP1 KECCAK256 SLOAD PUSH1 0xFF AND ISZERO ISZERO PUSH1 0x1 EQ PUSH2 0x175D JUMPI DUP7 PUSH1 0x1 PUSH1 0x1 PUSH1 0xA0 SHL SUB AND PUSH2 0x1723 DUP3 PUSH2 0x120E JUMP JUMPDEST PUSH1 0x1 PUSH1 0x1 PUSH1 0xA0 SHL SUB AND SUB PUSH2 0x175D JUMPI DUP1 DUP5 DUP4 DUP2 MLOAD DUP2 LT PUSH2 0x1744 JUMPI PUSH2 0x1744 PUSH2 0x3D21 JUMP JUMPDEST PUSH1 0x20 SWAP1 DUP2 MUL SWAP2 SWAP1 SWAP2 ADD ADD MSTORE DUP2 PUSH2 0x1759 DUP2 PUSH2 0x3DAF JUMP JUMPDEST SWAP3 POP POP JUMPDEST DUP1 PUSH2 0x1767 DUP2 PUSH2 0x3DAF JUMP JUMPDEST SWAP2 POP POP PUSH2 0x16E2 JUMP JUMPDEST POP SWAP2 SWAP6 SWAP5 POP POP POP POP POP JUMP JUMPDEST POP SWAP2 SWAP1 POP JUMP JUMPDEST PUSH1 0x0 DUP1 DUP4 PUSH1 0x0 PUSH2 0x178F DUP3 PUSH2 0x120E JUMP JUMPDEST SWAP1 POP CALLER PUSH1 0x1 PUSH1 0x1 PUSH1 0xA0 SHL SUB DUP3 AND EQ DUP1 ISZERO SWAP1 PUSH2 0x17CE JUMPI POP PUSH1 0x1 PUSH1 0x1 PUSH1 0xA0 SHL SUB DUP2 AND PUSH1 0x0 SWAP1 DUP2 MSTORE PUSH1 0x5 PUSH1 0x20 SWAP1 DUP2 MSTORE PUSH1 0x40 DUP1 DUP4 KECCAK256 CALLER DUP5 MSTORE SWAP1 SWAP2 MSTORE SWAP1 KECCAK256 SLOAD PUSH1 0xFF AND ISZERO JUMPDEST DUP1 ISZERO PUSH2 0x17F1 JUMPI POP PUSH1 0x0 DUP3 DUP2 MSTORE PUSH1 0x4 PUSH1 0x20 MSTORE PUSH1 0x40 SWAP1 KECCAK256 SLOAD PUSH1 0x1 PUSH1 0x1 PUSH1 0xA0 SHL SUB AND CALLER EQ ISZERO JUMPDEST ISZERO PUSH2 0x180F JUMPI PUSH1 0x40 MLOAD PUSH4 0xEA8E4EB5 PUSH1 0xE0 SHL DUP2 MSTORE PUSH1 0x4 ADD PUSH1 0x40 MLOAD DUP1 SWAP2 SUB SWAP1 REVERT JUMPDEST PUSH1 0x0 DUP7 DUP2 MSTORE PUSH1 0x9 PUSH1 0x20 SWAP1 DUP2 MSTORE PUSH1 0x40 SWAP2 DUP3 SWAP1 KECCAK256 DUP3 MLOAD PUSH1 0x60 DUP2 ADD DUP5 MSTORE SWAP1 SLOAD PUSH1 0x1 PUSH1 0x1 PUSH1 0xA0 SHL SUB DUP2 AND DUP1 DUP4 MSTORE PUSH1 0x1 PUSH1 0xA0 SHL DUP3 DIV PUSH1 0x2 SWAP1 DUP2 SIGNEXTEND SWAP5 DUP5 ADD SWAP5 SWAP1 SWAP5 MSTORE PUSH1 0x1 PUSH1 0xB8 SHL SWAP1 SWAP2 DIV SWAP1 SWAP3 SIGNEXTEND SWAP3 DUP2 ADD SWAP3 SWAP1 SWAP3 MSTORE PUSH2 0x187A JUMPI PUSH1 0x40 MLOAD PUSH4 0x5079FF75 PUSH1 0xE1 SHL DUP2 MSTORE PUSH1 0x4 ADD PUSH1 0x40 MLOAD DUP1 SWAP2 SUB SWAP1 REVERT JUMPDEST DUP1 MLOAD PUSH1 0x0 PUSH1 0x1 PUSH1 0x1 PUSH1 0xA0 SHL SUB DUP3 AND PUSH4 0x514EA4BF PUSH2 0x1896 DUP6 PUSH2 0x25D7 JUMP JUMPDEST PUSH1 0x40 MLOAD DUP3 PUSH4 0xFFFFFFFF AND PUSH1 0xE0 SHL DUP2 MSTORE PUSH1 0x4 ADD PUSH2 0x18B4 SWAP2 DUP2 MSTORE PUSH1 0x20 ADD SWAP1 JUMP JUMPDEST PUSH1 0xA0 PUSH1 0x40 MLOAD DUP1 DUP4 SUB DUP2 DUP7 GAS STATICCALL ISZERO DUP1 ISZERO PUSH2 0x18D1 JUMPI RETURNDATASIZE PUSH1 0x0 DUP1 RETURNDATACOPY RETURNDATASIZE PUSH1 0x0 REVERT JUMPDEST POP POP POP POP PUSH1 0x40 MLOAD RETURNDATASIZE PUSH1 0x1F NOT PUSH1 0x1F DUP3 ADD AND DUP3 ADD DUP1 PUSH1 0x40 MSTORE POP DUP2 ADD SWAP1 PUSH2 0x18F5 SWAP2 SWAP1 PUSH2 0x3D37 JUMP JUMPDEST POP POP POP POP SWAP1 POP DUP1 PUSH1 0x1 PUSH1 0x1 PUSH1 0x80 SHL SUB AND DUP9 PUSH1 0x1 PUSH1 0x1 PUSH1 0x80 SHL SUB AND GT ISZERO PUSH2 0x192E JUMPI PUSH1 0x40 MLOAD PUSH4 0x4323A555 PUSH1 0xE0 SHL DUP2 MSTORE PUSH1 0x4 ADD PUSH1 0x40 MLOAD DUP1 SWAP2 SUB SWAP1 REVERT JUMPDEST PUSH1 0x20 DUP4 ADD MLOAD PUSH1 0x40 DUP1 DUP6 ADD MLOAD SWAP1 MLOAD PUSH4 0xA34123A7 PUSH1 0xE0 SHL DUP2 MSTORE PUSH1 0x2 SWAP3 DUP4 SIGNEXTEND PUSH1 0x4 DUP3 ADD MSTORE SWAP2 SIGNEXTEND PUSH1 0x24 DUP3 ADD MSTORE PUSH1 0x1 PUSH1 0x1 PUSH1 0x80 SHL SUB DUP10 AND PUSH1 0x44 DUP3 ADD MSTORE PUSH1 0x1 PUSH1 0x1 PUSH1 0xA0 SHL SUB DUP4 AND SWAP1 PUSH4 0xA34123A7 SWAP1 PUSH1 0x64 ADD PUSH1 0x40 DUP1 MLOAD DUP1 DUP4 SUB DUP2 PUSH1 0x0 DUP8 GAS CALL ISZERO DUP1 ISZERO PUSH2 0x1997 JUMPI RETURNDATASIZE PUSH1 0x0 DUP1 RETURNDATACOPY RETURNDATASIZE PUSH1 0x0 REVERT JUMPDEST POP POP POP POP PUSH1 0x40 MLOAD RETURNDATASIZE PUSH1 0x1F NOT PUSH1 0x1F DUP3 ADD AND DUP3 ADD DUP1 PUSH1 0x40 MSTORE POP DUP2 ADD SWAP1 PUSH2 0x19BB SWAP2 SWAP1 PUSH2 0x3DFC JUMP JUMPDEST PUSH1 0x40 DUP1 MLOAD PUSH1 0x1 PUSH1 0x1 PUSH1 0x80 SHL SUB DUP13 AND DUP2 MSTORE PUSH1 0x20 DUP2 ADD DUP5 SWAP1 MSTORE SWAP1 DUP2 ADD DUP3 SWAP1 MSTORE SWAP2 SWAP9 POP SWAP7 POP DUP10 SWAP1 PUSH32 0x1832D0BE987B5F3CBC73B42F7EE61F47D509F9A14F8D3770969DFDABEF841C3E SWAP1 PUSH1 0x60 ADD PUSH1 0x40 MLOAD DUP1 SWAP2 SUB SWAP1 LOG2 POP POP POP POP POP SWAP3 POP SWAP3 SWAP1 POP JUMP JUMPDEST PUSH1 0x1 DUP1 SLOAD PUSH2 0x631 SWAP1 PUSH2 0x3CD7 JUMP JUMPDEST CALLER PUSH1 0x0 DUP2 DUP2 MSTORE PUSH1 0x5 PUSH1 0x20 SWAP1 DUP2 MSTORE PUSH1 0x40 DUP1 DUP4 KECCAK256 PUSH1 0x1 PUSH1 0x1 PUSH1 0xA0 SHL SUB DUP8 AND DUP1 DUP6 MSTORE SWAP1 DUP4 MSTORE SWAP3 DUP2 SWAP1 KECCAK256 DUP1 SLOAD PUSH1 0xFF NOT AND DUP7 ISZERO ISZERO SWAP1 DUP2 OR SWAP1 SWAP2 SSTORE SWAP1 MLOAD SWAP1 DUP2 MSTORE SWAP2 SWAP3 SWAP2 PUSH32 0x17307EAB39AB6107E8899845AD3D59BD9653F200F220920489CA2B5937696C31 SWAP2 ADD PUSH1 0x40 MLOAD DUP1 SWAP2 SUB SWAP1 LOG3 POP POP JUMP JUMPDEST PUSH1 0x0 DUP6 DUP2 MSTORE PUSH1 0x9 PUSH1 0x20 SWAP1 DUP2 MSTORE PUSH1 0x40 DUP1 DUP4 KECCAK256 DUP2 MLOAD PUSH1 0x60 DUP2 ADD DUP4 MSTORE SWAP1 SLOAD PUSH1 0x1 PUSH1 0x1 PUSH1 0xA0 SHL SUB DUP2 AND DUP1 DUP4 MSTORE PUSH1 0x1 PUSH1 0xA0 SHL DUP3 DIV PUSH1 0x2 SWAP1 DUP2 SIGNEXTEND SWAP6 DUP5 ADD SWAP6 SWAP1 SWAP6 MSTORE PUSH1 0x1 PUSH1 0xB8 SHL SWAP1 SWAP2 DIV SWAP1 SWAP4 SIGNEXTEND SWAP2 DUP2 ADD SWAP2 SWAP1 SWAP2 MSTORE DUP3 SWAP2 DUP3 SWAP2 SWAP1 PUSH2 0x1B00 JUMPI PUSH1 0x40 MLOAD PUSH4 0x5079FF75 PUSH1 0xE1 SHL DUP2 MSTORE PUSH1 0x4 ADD PUSH1 0x40 MLOAD DUP1 SWAP2 SUB SWAP1 REVERT JUMPDEST PUSH2 0x1B56 PUSH1 0x40 MLOAD DUP1 PUSH1 0xE0 ADD PUSH1 0x40 MSTORE DUP1 DUP4 PUSH1 0x0 ADD MLOAD PUSH1 0x1 PUSH1 0x1 PUSH1 0xA0 SHL SUB AND DUP2 MSTORE PUSH1 0x20 ADD DUP4 PUSH1 0x20 ADD MLOAD PUSH1 0x2 SIGNEXTEND DUP2 MSTORE PUSH1 0x20 ADD DUP4 PUSH1 0x40 ADD MLOAD PUSH1 0x2 SIGNEXTEND DUP2 MSTORE PUSH1 0x20 ADD DUP11 DUP2 MSTORE PUSH1 0x20 ADD DUP10 DUP2 MSTORE PUSH1 0x20 ADD DUP9 DUP2 MSTORE PUSH1 0x20 ADD DUP8 DUP2 MSTORE POP PUSH2 0x26F4 JUMP JUMPDEST PUSH1 0x40 DUP1 MLOAD PUSH1 0x1 PUSH1 0x1 PUSH1 0x80 SHL SUB DUP6 AND DUP2 MSTORE PUSH1 0x20 DUP2 ADD DUP5 SWAP1 MSTORE SWAP1 DUP2 ADD DUP3 SWAP1 MSTORE SWAP3 SWAP7 POP SWAP1 SWAP5 POP SWAP3 POP DUP10 SWAP1 PUSH32 0x22FB3C4728E7CC5DD64003F4267D8FB1EB2580F5598050868300738A823D7047 SWAP1 PUSH1 0x60 ADD PUSH1 0x40 MLOAD DUP1 SWAP2 SUB SWAP1 LOG2 POP SWAP6 POP SWAP6 POP SWAP6 SWAP3 POP POP POP JUMP JUMPDEST PUSH2 0x1BC1 DUP6 DUP6 DUP6 PUSH2 0xACE JUMP JUMPDEST PUSH1 0x1 PUSH1 0x1 PUSH1 0xA0 SHL SUB DUP5 AND EXTCODESIZE ISZERO DUP1 PUSH2 0x1C58 JUMPI POP PUSH1 0x40 MLOAD PUSH4 0xA85BD01 PUSH1 0xE1 SHL DUP1 DUP3 MSTORE SWAP1 PUSH1 0x1 PUSH1 0x1 PUSH1 0xA0 SHL SUB DUP7 AND SWAP1 PUSH4 0x150B7A02 SWAP1 PUSH2 0x1C09 SWAP1 CALLER SWAP1 DUP11 SWAP1 DUP10 SWAP1 DUP10 SWAP1 DUP10 SWAP1 PUSH1 0x4 ADD PUSH2 0x3E20 JUMP JUMPDEST PUSH1 0x20 PUSH1 0x40 MLOAD DUP1 DUP4 SUB DUP2 PUSH1 0x0 DUP8 GAS CALL ISZERO DUP1 ISZERO PUSH2 0x1C28 JUMPI RETURNDATASIZE PUSH1 0x0 DUP1 RETURNDATACOPY RETURNDATASIZE PUSH1 0x0 REVERT JUMPDEST POP POP POP POP PUSH1 0x40 MLOAD RETURNDATASIZE PUSH1 0x1F NOT PUSH1 0x1F DUP3 ADD AND DUP3 ADD DUP1 PUSH1 0x40 MSTORE POP DUP2 ADD SWAP1 PUSH2 0x1C4C SWAP2 SWAP1 PUSH2 0x3DC8 JUMP JUMPDEST PUSH1 0x1 PUSH1 0x1 PUSH1 0xE0 SHL SUB NOT AND EQ JUMPDEST PUSH2 0x1C97 JUMPI PUSH1 0x40 MLOAD PUSH3 0x461BCD PUSH1 0xE5 SHL DUP2 MSTORE PUSH1 0x20 PUSH1 0x4 DUP3 ADD MSTORE PUSH1 0x10 PUSH1 0x24 DUP3 ADD MSTORE PUSH16 0x155394D0519157D49150D25412515395 PUSH1 0x82 SHL PUSH1 0x44 DUP3 ADD MSTORE PUSH1 0x64 ADD PUSH2 0x734 JUMP JUMPDEST POP POP POP POP POP JUMP JUMPDEST PUSH1 0x0 DUP2 DUP2 MSTORE PUSH1 0x9 PUSH1 0x20 SWAP1 DUP2 MSTORE PUSH1 0x40 SWAP2 DUP3 SWAP1 KECCAK256 DUP3 MLOAD PUSH1 0x60 DUP2 DUP2 ADD DUP6 MSTORE SWAP2 SLOAD PUSH1 0x1 PUSH1 0x1 PUSH1 0xA0 SHL SUB DUP2 AND DUP1 DUP4 MSTORE PUSH1 0x1 PUSH1 0xA0 SHL DUP3 DIV PUSH1 0x2 SWAP1 DUP2 SIGNEXTEND SWAP6 DUP5 ADD SWAP6 SWAP1 SWAP6 MSTORE PUSH1 0x1 PUSH1 0xB8 SHL SWAP1 SWAP2 DIV SWAP1 SWAP4 SIGNEXTEND SWAP4 DUP2 ADD SWAP4 SWAP1 SWAP4 MSTORE SWAP2 SWAP1 PUSH2 0x1D0C JUMPI PUSH1 0x40 MLOAD PUSH4 0x5079FF75 PUSH1 0xE1 SHL DUP2 MSTORE PUSH1 0x4 ADD PUSH1 0x40 MLOAD DUP1 SWAP2 SUB SWAP1 REVERT JUMPDEST PUSH1 0x0 DUP2 PUSH1 0x0 ADD MLOAD SWAP1 POP PUSH1 0x0 DUP2 PUSH1 0x1 PUSH1 0x1 PUSH1 0xA0 SHL SUB AND PUSH4 0xDFE1681 PUSH1 0x40 MLOAD DUP2 PUSH4 0xFFFFFFFF AND PUSH1 0xE0 SHL DUP2 MSTORE PUSH1 0x4 ADD PUSH1 0x20 PUSH1 0x40 MLOAD DUP1 DUP4 SUB DUP2 DUP7 GAS STATICCALL ISZERO DUP1 ISZERO PUSH2 0x1D55 JUMPI RETURNDATASIZE PUSH1 0x0 DUP1 RETURNDATACOPY RETURNDATASIZE PUSH1 0x0 REVERT JUMPDEST POP POP POP POP PUSH1 0x40 MLOAD RETURNDATASIZE PUSH1 0x1F NOT PUSH1 0x1F DUP3 ADD AND DUP3 ADD DUP1 PUSH1 0x40 MSTORE POP DUP2 ADD SWAP1 PUSH2 0x1D79 SWAP2 SWAP1 PUSH2 0x3E74 JUMP JUMPDEST SWAP1 POP PUSH1 0x0 DUP3 PUSH1 0x1 PUSH1 0x1 PUSH1 0xA0 SHL SUB AND PUSH4 0xD21220A7 PUSH1 0x40 MLOAD DUP2 PUSH4 0xFFFFFFFF AND PUSH1 0xE0 SHL DUP2 MSTORE PUSH1 0x4 ADD PUSH1 0x20 PUSH1 0x40 MLOAD DUP1 DUP4 SUB DUP2 DUP7 GAS STATICCALL ISZERO DUP1 ISZERO PUSH2 0x1DBB JUMPI RETURNDATASIZE PUSH1 0x0 DUP1 RETURNDATACOPY RETURNDATASIZE PUSH1 0x0 REVERT JUMPDEST POP POP POP POP PUSH1 0x40 MLOAD RETURNDATASIZE PUSH1 0x1F NOT PUSH1 0x1F DUP3 ADD AND DUP3 ADD DUP1 PUSH1 0x40 MSTORE POP DUP2 ADD SWAP1 PUSH2 0x1DDF SWAP2 SWAP1 PUSH2 0x3E74 JUMP JUMPDEST SWAP1 POP PUSH1 0x0 DUP3 PUSH1 0x1 PUSH1 0x1 PUSH1 0xA0 SHL SUB AND PUSH4 0x95D89B41 PUSH1 0x40 MLOAD DUP2 PUSH4 0xFFFFFFFF AND PUSH1 0xE0 SHL DUP2 MSTORE PUSH1 0x4 ADD PUSH1 0x0 PUSH1 0x40 MLOAD DUP1 DUP4 SUB DUP2 DUP7 GAS STATICCALL ISZERO DUP1 ISZERO PUSH2 0x1E21 JUMPI RETURNDATASIZE PUSH1 0x0 DUP1 RETURNDATACOPY RETURNDATASIZE PUSH1 0x0 REVERT JUMPDEST POP POP POP POP PUSH1 0x40 MLOAD RETURNDATASIZE PUSH1 0x0 DUP3 RETURNDATACOPY PUSH1 0x1F RETURNDATASIZE SWAP1 DUP2 ADD PUSH1 0x1F NOT AND DUP3 ADD PUSH1 0x40 MSTORE PUSH2 0x1E49 SWAP2 SWAP1 DUP2 ADD SWAP1 PUSH2 0x3E91 JUMP JUMPDEST SWAP1 POP PUSH1 0x0 DUP3 PUSH1 0x1 PUSH1 0x1 PUSH1 0xA0 SHL SUB AND PUSH4 0x95D89B41 PUSH1 0x40 MLOAD DUP2 PUSH4 0xFFFFFFFF AND PUSH1 0xE0 SHL DUP2 MSTORE PUSH1 0x4 ADD PUSH1 0x0 PUSH1 0x40 MLOAD DUP1 DUP4 SUB DUP2 DUP7 GAS STATICCALL ISZERO DUP1 ISZERO PUSH2 0x1E8B JUMPI RETURNDATASIZE PUSH1 0x0 DUP1 RETURNDATACOPY RETURNDATASIZE PUSH1 0x0 REVERT JUMPDEST POP POP POP POP PUSH1 0x40 MLOAD RETURNDATASIZE PUSH1 0x0 DUP3 RETURNDATACOPY PUSH1 0x1F RETURNDATASIZE SWAP1 DUP2 ADD PUSH1 0x1F NOT AND DUP3 ADD PUSH1 0x40 MSTORE PUSH2 0x1EB3 SWAP2 SWAP1 DUP2 ADD SWAP1 PUSH2 0x3E91 JUMP JUMPDEST SWAP1 POP PUSH2 0x1F66 PUSH1 0x40 MLOAD DUP1 PUSH1 0xC0 ADD PUSH1 0x40 MSTORE DUP1 DUP5 DUP2 MSTORE PUSH1 0x20 ADD DUP4 DUP2 MSTORE PUSH1 0x20 ADD ADDRESS PUSH1 0x1 PUSH1 0x1 PUSH1 0xA0 SHL SUB AND DUP2 MSTORE PUSH1 0x20 ADD DUP9 PUSH1 0x20 ADD MLOAD PUSH1 0x2 SIGNEXTEND DUP2 MSTORE PUSH1 0x20 ADD DUP9 PUSH1 0x40 ADD MLOAD PUSH1 0x2 SIGNEXTEND DUP2 MSTORE PUSH1 0x20 ADD DUP8 PUSH1 0x1 PUSH1 0x1 PUSH1 0xA0 SHL SUB AND PUSH4 0xDDCA3F43 PUSH1 0x40 MLOAD DUP2 PUSH4 0xFFFFFFFF AND PUSH1 0xE0 SHL DUP2 MSTORE PUSH1 0x4 ADD PUSH1 0x20 PUSH1 0x40 MLOAD DUP1 DUP4 SUB DUP2 DUP7 GAS STATICCALL ISZERO DUP1 ISZERO PUSH2 0x1F36 JUMPI RETURNDATASIZE PUSH1 0x0 DUP1 RETURNDATACOPY RETURNDATASIZE PUSH1 0x0 REVERT JUMPDEST POP POP POP POP PUSH1 0x40 MLOAD RETURNDATASIZE PUSH1 0x1F NOT PUSH1 0x1F DUP3 ADD AND DUP3 ADD DUP1 PUSH1 0x40 MSTORE POP DUP2 ADD SWAP1 PUSH2 0x1F5A SWAP2 SWAP1 PUSH2 0x3F3D JUMP JUMPDEST PUSH3 0xFFFFFF AND SWAP1 MSTORE PUSH2 0x298E JUMP JUMPDEST SWAP9 SWAP8 POP POP POP POP POP POP POP POP JUMP JUMPDEST PUSH1 0x0 DUP1 DUP3 PUSH1 0x0 PUSH2 0x1F81 DUP3 PUSH2 0x120E JUMP JUMPDEST SWAP1 POP CALLER PUSH1 0x1 PUSH1 0x1 PUSH1 0xA0 SHL SUB DUP3 AND EQ DUP1 ISZERO SWAP1 PUSH2 0x1FC0 JUMPI POP PUSH1 0x1 PUSH1 0x1 PUSH1 0xA0 SHL SUB DUP2 AND PUSH1 0x0 SWAP1 DUP2 MSTORE PUSH1 0x5 PUSH1 0x20 SWAP1 DUP2 MSTORE PUSH1 0x40 DUP1 DUP4 KECCAK256 CALLER DUP5 MSTORE SWAP1 SWAP2 MSTORE SWAP1 KECCAK256 SLOAD PUSH1 0xFF AND ISZERO JUMPDEST DUP1 ISZERO PUSH2 0x1FE3 JUMPI POP PUSH1 0x0 DUP3 DUP2 MSTORE PUSH1 0x4 PUSH1 0x20 MSTORE PUSH1 0x40 SWAP1 KECCAK256 SLOAD PUSH1 0x1 PUSH1 0x1 PUSH1 0xA0 SHL SUB AND CALLER EQ ISZERO JUMPDEST ISZERO PUSH2 0x2001 JUMPI PUSH1 0x40 MLOAD PUSH4 0xEA8E4EB5 PUSH1 0xE0 SHL DUP2 MSTORE PUSH1 0x4 ADD PUSH1 0x40 MLOAD DUP1 SWAP2 SUB SWAP1 REVERT JUMPDEST PUSH1 0x0 DUP6 DUP2 MSTORE PUSH1 0x9 PUSH1 0x20 SWAP1 DUP2 MSTORE PUSH1 0x40 SWAP2 DUP3 SWAP1 KECCAK256 DUP3 MLOAD PUSH1 0x60 DUP2 ADD DUP5 MSTORE SWAP1 SLOAD PUSH1 0x1 PUSH1 0x1 PUSH1 0xA0 SHL SUB DUP2 AND DUP1 DUP4 MSTORE PUSH1 0x1 PUSH1 0xA0 SHL DUP3 DIV PUSH1 0x2 SWAP1 DUP2 SIGNEXTEND SWAP5 DUP5 ADD SWAP5 SWAP1 SWAP5 MSTORE PUSH1 0x1 PUSH1 0xB8 SHL SWAP1 SWAP2 DIV SWAP1 SWAP3 SIGNEXTEND SWAP3 DUP2 ADD SWAP3 SWAP1 SWAP3 MSTORE PUSH2 0x206C JUMPI PUSH1 0x40 MLOAD PUSH4 0x5079FF75 PUSH1 0xE1 SHL DUP2 MSTORE PUSH1 0x4 ADD PUSH1 0x40 MLOAD DUP1 SWAP2 SUB SWAP1 REVERT JUMPDEST DUP1 MLOAD PUSH1 0x0 DUP1 PUSH1 0x1 PUSH1 0x1 PUSH1 0xA0 SHL SUB DUP4 AND PUSH4 0x514EA4BF PUSH2 0x2089 DUP7 PUSH2 0x25D7 JUMP JUMPDEST PUSH1 0x40 MLOAD DUP3 PUSH4 0xFFFFFFFF AND PUSH1 0xE0 SHL DUP2 MSTORE PUSH1 0x4 ADD PUSH2 0x20A7 SWAP2 DUP2 MSTORE PUSH1 0x20 ADD SWAP1 JUMP JUMPDEST PUSH1 0xA0 PUSH1 0x40 MLOAD DUP1 DUP4 SUB DUP2 DUP7 GAS STATICCALL ISZERO DUP1 ISZERO PUSH2 0x20C4 JUMPI RETURNDATASIZE PUSH1 0x0 DUP1 RETURNDATACOPY RETURNDATASIZE PUSH1 0x0 REVERT JUMPDEST POP POP POP POP PUSH1 0x40 MLOAD RETURNDATASIZE PUSH1 0x1F NOT PUSH1 0x1F DUP3 ADD AND DUP3 ADD DUP1 PUSH1 0x40 MSTORE POP DUP2 ADD SWAP1 PUSH2 0x20E8 SWAP2 SWAP1 PUSH2 0x3D37 JUMP JUMPDEST PUSH1 0x20 DUP10 ADD MLOAD PUSH1 0x40 DUP1 DUP12 ADD MLOAD SWAP1 MLOAD PUSH4 0x9E3D67B PUSH1 0xE3 SHL DUP2 MSTORE CALLER PUSH1 0x4 DUP3 ADD MSTORE PUSH1 0x2 SWAP3 DUP4 SIGNEXTEND PUSH1 0x24 DUP3 ADD MSTORE SWAP2 SIGNEXTEND PUSH1 0x44 DUP3 ADD MSTORE PUSH1 0x1 PUSH1 0x1 PUSH1 0x80 SHL SUB DUP1 DUP5 AND PUSH1 0x64 DUP4 ADD MSTORE DUP3 AND PUSH1 0x84 DUP3 ADD MSTORE SWAP2 SWAP7 POP SWAP5 POP PUSH1 0x1 PUSH1 0x1 PUSH1 0xA0 SHL SUB DUP8 AND SWAP4 POP PUSH4 0x4F1EB3D8 SWAP3 POP PUSH1 0xA4 ADD SWAP1 POP PUSH1 0x40 DUP1 MLOAD DUP1 DUP4 SUB DUP2 PUSH1 0x0 DUP8 GAS CALL ISZERO DUP1 ISZERO PUSH2 0x2168 JUMPI RETURNDATASIZE PUSH1 0x0 DUP1 RETURNDATACOPY RETURNDATASIZE PUSH1 0x0 REVERT JUMPDEST POP POP POP POP PUSH1 0x40 MLOAD RETURNDATASIZE PUSH1 0x1F NOT PUSH1 0x1F DUP3 ADD AND DUP3 ADD DUP1 PUSH1 0x40 MSTORE POP DUP2 ADD SWAP1 PUSH2 0x218C SWAP2 SWAP1 PUSH2 0x3F5A JUMP JUMPDEST SWAP1 SWAP11 SWAP1 SWAP10 POP SWAP8 POP POP POP POP POP POP POP POP JUMP JUMPDEST PUSH1 0x0 PUSH2 0x21AA DUP3 DUP5 ADD DUP5 PUSH2 0x3F89 JUMP JUMPDEST DUP1 MLOAD PUSH1 0x40 DUP1 DUP4 ADD MLOAD SWAP1 MLOAD PUSH4 0x23B872DD PUSH1 0xE0 SHL DUP2 MSTORE PUSH1 0x1 PUSH1 0x1 PUSH1 0xA0 SHL SUB SWAP2 DUP3 AND PUSH1 0x4 DUP3 ADD MSTORE CALLER PUSH1 0x24 DUP3 ADD MSTORE PUSH1 0x44 DUP2 ADD DUP10 SWAP1 MSTORE SWAP3 SWAP4 POP AND SWAP1 PUSH4 0x23B872DD SWAP1 PUSH1 0x64 ADD PUSH1 0x0 PUSH1 0x40 MLOAD DUP1 DUP4 SUB DUP2 PUSH1 0x0 DUP8 DUP1 EXTCODESIZE ISZERO DUP1 ISZERO PUSH2 0x2203 JUMPI PUSH1 0x0 DUP1 REVERT JUMPDEST POP GAS CALL ISZERO DUP1 ISZERO PUSH2 0x2217 JUMPI RETURNDATASIZE PUSH1 0x0 DUP1 RETURNDATACOPY RETURNDATASIZE PUSH1 0x0 REVERT JUMPDEST POP POP POP PUSH1 0x20 DUP3 ADD MLOAD PUSH1 0x40 DUP1 DUP5 ADD MLOAD SWAP1 MLOAD PUSH4 0x23B872DD PUSH1 0xE0 SHL DUP2 MSTORE PUSH1 0x1 PUSH1 0x1 PUSH1 0xA0 SHL SUB SWAP2 DUP3 AND PUSH1 0x4 DUP3 ADD MSTORE CALLER PUSH1 0x24 DUP3 ADD MSTORE PUSH1 0x44 DUP2 ADD DUP9 SWAP1 MSTORE SWAP2 AND SWAP2 POP PUSH4 0x23B872DD SWAP1 PUSH1 0x64 ADD PUSH1 0x0 PUSH1 0x40 MLOAD DUP1 DUP4 SUB DUP2 PUSH1 0x0 DUP8 DUP1 EXTCODESIZE ISZERO DUP1 ISZERO PUSH2 0x2275 JUMPI PUSH1 0x0 DUP1 REVERT JUMPDEST POP GAS CALL ISZERO DUP1 ISZERO PUSH2 0x2289 JUMPI RETURNDATASIZE PUSH1 0x0 DUP1 RETURNDATACOPY RETURNDATASIZE PUSH1 0x0 REVERT JUMPDEST POP POP POP POP POP POP POP POP POP JUMP JUMPDEST PUSH1 0x8 SLOAD PUSH1 0x40 MLOAD PUSH4 0x175C1B23 PUSH1 0xE3 SHL DUP2 MSTORE PUSH1 0x1 PUSH1 0x1 PUSH1 0xA0 SHL SUB DUP12 DUP2 AND PUSH1 0x4 DUP4 ADD MSTORE DUP11 DUP2 AND PUSH1 0x24 DUP4 ADD MSTORE PUSH3 0xFFFFFF DUP11 AND PUSH1 0x44 DUP4 ADD MSTORE PUSH1 0x0 SWAP3 DUP4 SWAP3 SWAP2 AND SWAP1 PUSH4 0xBAE0D918 SWAP1 PUSH1 0x64 ADD PUSH1 0x20 PUSH1 0x40 MLOAD DUP1 DUP4 SUB DUP2 DUP7 GAS STATICCALL ISZERO DUP1 ISZERO PUSH2 0x22F5 JUMPI RETURNDATASIZE PUSH1 0x0 DUP1 RETURNDATACOPY RETURNDATASIZE PUSH1 0x0 REVERT JUMPDEST POP POP POP POP PUSH1 0x40 MLOAD RETURNDATASIZE PUSH1 0x1F NOT PUSH1 0x1F DUP3 ADD AND DUP3 ADD DUP1 PUSH1 0x40 MSTORE POP DUP2 ADD SWAP1 PUSH2 0x2319 SWAP2 SWAP1 PUSH2 0x3E74 JUMP JUMPDEST SWAP1 POP PUSH1 0x0 DUP1 PUSH1 0x0 PUSH2 0x236A PUSH1 0x40 MLOAD DUP1 PUSH1 0xE0 ADD PUSH1 0x40 MSTORE DUP1 DUP7 PUSH1 0x1 PUSH1 0x1 PUSH1 0xA0 SHL SUB AND DUP2 MSTORE PUSH1 0x20 ADD DUP14 PUSH1 0x2 SIGNEXTEND DUP2 MSTORE PUSH1 0x20 ADD DUP13 PUSH1 0x2 SIGNEXTEND DUP2 MSTORE PUSH1 0x20 ADD DUP12 DUP2 MSTORE PUSH1 0x20 ADD DUP11 DUP2 MSTORE PUSH1 0x20 ADD DUP10 DUP2 MSTORE PUSH1 0x20 ADD DUP9 DUP2 MSTORE POP PUSH2 0x26F4 JUMP JUMPDEST PUSH1 0x7 DUP1 SLOAD SWAP4 SWAP7 POP SWAP2 SWAP5 POP SWAP3 POP PUSH1 0x0 PUSH2 0x2381 DUP4 PUSH2 0x3DAF JUMP JUMPDEST SWAP2 SWAP1 POP SSTORE SWAP5 POP PUSH2 0x2391 DUP16 DUP7 PUSH2 0x2A7A JUMP JUMPDEST PUSH1 0x6 DUP1 SLOAD SWAP1 PUSH1 0x0 PUSH2 0x23A1 DUP4 PUSH2 0x3DAF JUMP JUMPDEST SWAP1 SWAP2 SSTORE POP POP PUSH1 0x40 DUP1 MLOAD PUSH1 0x60 DUP2 ADD DUP3 MSTORE PUSH1 0x1 PUSH1 0x1 PUSH1 0xA0 SHL SUB DUP1 DUP8 AND DUP3 MSTORE PUSH1 0x2 DUP15 DUP2 SIGNEXTEND PUSH1 0x20 DUP1 DUP6 ADD SWAP2 DUP3 MSTORE SWAP2 DUP16 SWAP1 SIGNEXTEND DUP5 DUP7 ADD SWAP1 DUP2 MSTORE PUSH1 0x0 DUP12 DUP2 MSTORE PUSH1 0x9 DUP5 MSTORE DUP7 DUP2 KECCAK256 DUP7 MLOAD DUP2 SLOAD SWAP5 MLOAD SWAP4 MLOAD PUSH3 0xFFFFFF SWAP1 DUP2 AND PUSH1 0x1 PUSH1 0xB8 SHL MUL PUSH3 0xFFFFFF PUSH1 0xB8 SHL NOT SWAP2 SWAP1 SWAP6 AND PUSH1 0x1 PUSH1 0xA0 SHL MUL PUSH1 0x1 PUSH1 0x1 PUSH1 0xB8 SHL SUB NOT SWAP1 SWAP7 AND SWAP2 SWAP1 SWAP8 AND OR SWAP4 SWAP1 SWAP4 OR SWAP5 SWAP1 SWAP5 AND OR SWAP1 SSTORE CALLER DUP3 MSTORE PUSH1 0xA DUP2 MSTORE DUP4 DUP3 KECCAK256 DUP1 SLOAD PUSH1 0x1 DUP2 ADD DUP3 SSTORE SWAP1 DUP4 MSTORE SWAP2 KECCAK256 ADD DUP8 SWAP1 SSTORE SWAP1 MLOAD DUP7 SWAP1 PUSH32 0x22FB3C4728E7CC5DD64003F4267D8FB1EB2580F5598050868300738A823D7047 SWAP1 PUSH2 0x248F SWAP1 DUP8 SWAP1 DUP8 SWAP1 DUP8 SWAP1 PUSH1 0x1 PUSH1 0x1 PUSH1 0x80 SHL SUB SWAP4 SWAP1 SWAP4 AND DUP4 MSTORE PUSH1 0x20 DUP4 ADD SWAP2 SWAP1 SWAP2 MSTORE PUSH1 0x40 DUP3 ADD MSTORE PUSH1 0x60 ADD SWAP1 JUMP JUMPDEST PUSH1 0x40 MLOAD DUP1 SWAP2 SUB SWAP1 LOG2 POP POP POP POP POP SWAP11 SWAP10 POP POP POP POP POP POP POP POP POP POP JUMP JUMPDEST PUSH1 0xA PUSH1 0x20 MSTORE DUP2 PUSH1 0x0 MSTORE PUSH1 0x40 PUSH1 0x0 KECCAK256 DUP2 DUP2 SLOAD DUP2 LT PUSH2 0x24C6 JUMPI PUSH1 0x0 DUP1 REVERT JUMPDEST SWAP1 PUSH1 0x0 MSTORE PUSH1 0x20 PUSH1 0x0 KECCAK256 ADD PUSH1 0x0 SWAP2 POP SWAP2 POP POP SLOAD DUP2 JUMP JUMPDEST PUSH1 0x0 DUP2 DUP2 MSTORE PUSH1 0x9 PUSH1 0x20 SWAP1 DUP2 MSTORE PUSH1 0x40 DUP1 DUP4 KECCAK256 DUP2 MLOAD PUSH1 0x60 DUP2 ADD DUP4 MSTORE SWAP1 SLOAD PUSH1 0x1 PUSH1 0x1 PUSH1 0xA0 SHL SUB DUP2 AND DUP1 DUP4 MSTORE PUSH1 0x1 PUSH1 0xA0 SHL DUP3 DIV PUSH1 0x2 SWAP1 DUP2 SIGNEXTEND SWAP6 DUP5 ADD SWAP6 SWAP1 SWAP6 MSTORE PUSH1 0x1 PUSH1 0xB8 SHL SWAP1 SWAP2 DIV SWAP1 SWAP4 SIGNEXTEND SWAP2 DUP2 ADD SWAP2 SWAP1 SWAP2 MSTORE DUP3 SWAP2 PUSH2 0x2547 JUMPI PUSH1 0x40 MLOAD PUSH4 0x5079FF75 PUSH1 0xE1 SHL DUP2 MSTORE PUSH1 0x4 ADD PUSH1 0x40 MLOAD DUP1 SWAP2 SUB SWAP1 REVERT JUMPDEST DUP1 MLOAD PUSH1 0x20 DUP3 ADD MLOAD PUSH1 0x40 DUP1 DUP5 ADD MLOAD SWAP1 MLOAD PUSH4 0x6A234AE9 PUSH1 0xE0 SHL DUP2 MSTORE PUSH1 0x2 SWAP3 DUP4 SIGNEXTEND PUSH1 0x4 DUP3 ADD MSTORE SWAP2 SIGNEXTEND PUSH1 0x24 DUP3 ADD MSTORE ADDRESS PUSH1 0x44 DUP3 ADD MSTORE PUSH1 0x1 PUSH1 0x1 PUSH1 0xA0 SHL SUB DUP3 AND SWAP1 PUSH4 0x6A234AE9 SWAP1 PUSH1 0x64 ADD PUSH1 0x40 DUP1 MLOAD DUP1 DUP4 SUB DUP2 DUP7 GAS STATICCALL ISZERO DUP1 ISZERO PUSH2 0x25A7 JUMPI RETURNDATASIZE PUSH1 0x0 DUP1 RETURNDATACOPY RETURNDATASIZE PUSH1 0x0 REVERT JUMPDEST POP POP POP POP PUSH1 0x40 MLOAD RETURNDATASIZE PUSH1 0x1F NOT PUSH1 0x1F DUP3 ADD AND DUP3 ADD DUP1 PUSH1 0x40 MSTORE POP DUP2 ADD SWAP1 PUSH2 0x25CB SWAP2 SWAP1 PUSH2 0x3DFC JUMP JUMPDEST SWAP1 SWAP7 SWAP1 SWAP6 POP SWAP4 POP POP POP POP JUMP JUMPDEST PUSH1 0x20 DUP2 DUP2 ADD MLOAD PUSH1 0x40 SWAP3 DUP4 ADD MLOAD DUP4 MLOAD ADDRESS PUSH1 0x60 SHL PUSH12 0xFFFFFFFFFFFFFFFFFFFFFFFF NOT AND DUP2 DUP6 ADD MSTORE PUSH1 0xE8 SWAP3 DUP4 SHL PUSH1 0x34 DUP3 ADD MSTORE SWAP2 SHL PUSH1 0x37 DUP3 ADD MSTORE DUP3 MLOAD PUSH1 0x1A DUP2 DUP4 SUB ADD DUP2 MSTORE PUSH1 0x3A SWAP1 SWAP2 ADD SWAP1 SWAP3 MSTORE DUP2 MLOAD SWAP2 ADD KECCAK256 SWAP1 JUMP JUMPDEST PUSH1 0x0 DUP2 DUP2 MSTORE PUSH1 0x2 PUSH1 0x20 MSTORE PUSH1 0x40 SWAP1 KECCAK256 SLOAD PUSH1 0x1 PUSH1 0x1 PUSH1 0xA0 SHL SUB AND DUP1 PUSH2 0x2679 JUMPI PUSH1 0x40 MLOAD PUSH3 0x461BCD PUSH1 0xE5 SHL DUP2 MSTORE PUSH1 0x20 PUSH1 0x4 DUP3 ADD MSTORE PUSH1 0xA PUSH1 0x24 DUP3 ADD MSTORE PUSH10 0x1393D517D35253951151 PUSH1 0xB2 SHL PUSH1 0x44 DUP3 ADD MSTORE PUSH1 0x64 ADD PUSH2 0x734 JUMP JUMPDEST PUSH1 0x1 PUSH1 0x1 PUSH1 0xA0 SHL SUB DUP2 AND PUSH1 0x0 DUP2 DUP2 MSTORE PUSH1 0x3 PUSH1 0x20 SWAP1 DUP2 MSTORE PUSH1 0x40 DUP1 DUP4 KECCAK256 DUP1 SLOAD PUSH1 0x0 NOT ADD SWAP1 SSTORE DUP6 DUP4 MSTORE PUSH1 0x2 DUP3 MSTORE DUP1 DUP4 KECCAK256 DUP1 SLOAD PUSH1 0x1 PUSH1 0x1 PUSH1 0xA0 SHL SUB NOT SWAP1 DUP2 AND SWAP1 SWAP2 SSTORE PUSH1 0x4 SWAP1 SWAP3 MSTORE DUP1 DUP4 KECCAK256 DUP1 SLOAD SWAP1 SWAP3 AND SWAP1 SWAP2 SSTORE MLOAD DUP5 SWAP3 SWAP1 PUSH32 0xDDF252AD1BE2C89B69C2B068FC378DAA952BA7F163C4A11628F55A4DF523B3EF SWAP1 DUP4 SWAP1 LOG4 POP POP JUMP JUMPDEST PUSH1 0x0 DUP1 PUSH1 0x0 DUP1 DUP5 PUSH1 0x0 ADD MLOAD PUSH1 0x1 PUSH1 0x1 PUSH1 0xA0 SHL SUB AND PUSH4 0x3850C7BD PUSH1 0x40 MLOAD DUP2 PUSH4 0xFFFFFFFF AND PUSH1 0xE0 SHL DUP2 MSTORE PUSH1 0x4 ADD PUSH1 0xA0 PUSH1 0x40 MLOAD DUP1 DUP4 SUB DUP2 DUP7 GAS STATICCALL ISZERO DUP1 ISZERO PUSH2 0x273C JUMPI RETURNDATASIZE PUSH1 0x0 DUP1 RETURNDATACOPY RETURNDATASIZE PUSH1 0x0 REVERT JUMPDEST POP POP POP POP PUSH1 0x40 MLOAD RETURNDATASIZE PUSH1 0x1F NOT PUSH1 0x1F DUP3 ADD AND DUP3 ADD DUP1 PUSH1 0x40 MSTORE POP DUP2 ADD SWAP1 PUSH2 0x2760 SWAP2 SWAP1 PUSH2 0x400C JUMP JUMPDEST POP POP POP POP SWAP1 POP PUSH2 0x2793 DUP2 PUSH2 0x2777 DUP8 PUSH1 0x20 ADD MLOAD PUSH2 0x2B85 JUMP JUMPDEST PUSH2 0x2784 DUP9 PUSH1 0x40 ADD MLOAD PUSH2 0x2B85 JUMP JUMPDEST DUP9 PUSH1 0x60 ADD MLOAD DUP10 PUSH1 0x80 ADD MLOAD PUSH2 0x2FA7 JUMP JUMPDEST SWAP4 POP DUP5 PUSH1 0x0 ADD MLOAD PUSH1 0x1 PUSH1 0x1 PUSH1 0xA0 SHL SUB AND PUSH4 0x3C8A7D8D ADDRESS DUP8 PUSH1 0x20 ADD MLOAD DUP9 PUSH1 0x40 ADD MLOAD DUP9 PUSH1 0x40 MLOAD DUP1 PUSH1 0x60 ADD PUSH1 0x40 MSTORE DUP1 DUP13 PUSH1 0x0 ADD MLOAD PUSH1 0x1 PUSH1 0x1 PUSH1 0xA0 SHL SUB AND PUSH4 0xDFE1681 PUSH1 0x40 MLOAD DUP2 PUSH4 0xFFFFFFFF AND PUSH1 0xE0 SHL DUP2 MSTORE PUSH1 0x4 ADD PUSH1 0x20 PUSH1 0x40 MLOAD DUP1 DUP4 SUB DUP2 DUP7 GAS STATICCALL ISZERO DUP1 ISZERO PUSH2 0x2801 JUMPI RETURNDATASIZE PUSH1 0x0 DUP1 RETURNDATACOPY RETURNDATASIZE PUSH1 0x0 REVERT JUMPDEST POP POP POP POP PUSH1 0x40 MLOAD RETURNDATASIZE PUSH1 0x1F NOT PUSH1 0x1F DUP3 ADD AND DUP3 ADD DUP1 PUSH1 0x40 MSTORE POP DUP2 ADD SWAP1 PUSH2 0x2825 SWAP2 SWAP1 PUSH2 0x3E74 JUMP JUMPDEST PUSH1 0x1 PUSH1 0x1 PUSH1 0xA0 SHL SUB AND DUP2 MSTORE PUSH1 0x20 ADD DUP13 PUSH1 0x0 ADD MLOAD PUSH1 0x1 PUSH1 0x1 PUSH1 0xA0 SHL SUB AND PUSH4 0xD21220A7 PUSH1 0x40 MLOAD DUP2 PUSH4 0xFFFFFFFF AND PUSH1 0xE0 SHL DUP2 MSTORE PUSH1 0x4 ADD PUSH1 0x20 PUSH1 0x40 MLOAD DUP1 DUP4 SUB DUP2 DUP7 GAS STATICCALL ISZERO DUP1 ISZERO PUSH2 0x2875 JUMPI RETURNDATASIZE PUSH1 0x0 DUP1 RETURNDATACOPY RETURNDATASIZE PUSH1 0x0 REVERT JUMPDEST POP POP POP POP PUSH1 0x40 MLOAD RETURNDATASIZE PUSH1 0x1F NOT PUSH1 0x1F DUP3 ADD AND DUP3 ADD DUP1 PUSH1 0x40 MSTORE POP DUP2 ADD SWAP1 PUSH2 0x2899 SWAP2 SWAP1 PUSH2 0x3E74 JUMP JUMPDEST PUSH1 0x1 PUSH1 0x1 PUSH1 0xA0 SHL SUB SWAP1 DUP2 AND DUP3 MSTORE CALLER PUSH1 0x20 SWAP3 DUP4 ADD MSTORE PUSH1 0x40 DUP1 MLOAD DUP5 MLOAD DUP4 AND DUP2 DUP6 ADD MSTORE SWAP3 DUP5 ADD MLOAD DUP3 AND DUP4 DUP3 ADD MSTORE SWAP3 SWAP1 SWAP3 ADD MLOAD SWAP1 SWAP2 AND PUSH1 0x60 DUP3 ADD MSTORE PUSH1 0x80 ADD PUSH1 0x40 MLOAD PUSH1 0x20 DUP2 DUP4 SUB SUB DUP2 MSTORE SWAP1 PUSH1 0x40 MSTORE PUSH1 0x40 MLOAD DUP7 PUSH4 0xFFFFFFFF AND PUSH1 0xE0 SHL DUP2 MSTORE PUSH1 0x4 ADD PUSH2 0x2902 SWAP6 SWAP5 SWAP4 SWAP3 SWAP2 SWAP1 PUSH2 0x4076 JUMP JUMPDEST PUSH1 0x40 DUP1 MLOAD DUP1 DUP4 SUB DUP2 PUSH1 0x0 DUP8 GAS CALL ISZERO DUP1 ISZERO PUSH2 0x2920 JUMPI RETURNDATASIZE PUSH1 0x0 DUP1 RETURNDATACOPY RETURNDATASIZE PUSH1 0x0 REVERT JUMPDEST POP POP POP POP PUSH1 0x40 MLOAD RETURNDATASIZE PUSH1 0x1F NOT PUSH1 0x1F DUP3 ADD AND DUP3 ADD DUP1 PUSH1 0x40 MSTORE POP DUP2 ADD SWAP1 PUSH2 0x2944 SWAP2 SWAP1 PUSH2 0x3DFC JUMP JUMPDEST PUSH1 0xA0 DUP8 ADD MLOAD SWAP2 SWAP5 POP SWAP3 POP DUP4 LT DUP1 PUSH2 0x295E JUMPI POP DUP5 PUSH1 0xC0 ADD MLOAD DUP3 LT JUMPDEST ISZERO PUSH2 0x2986 JUMPI PUSH1 0x40 MLOAD PUSH4 0xA8F6C8D PUSH1 0xE4 SHL DUP2 MSTORE PUSH1 0x4 DUP2 ADD DUP5 SWAP1 MSTORE PUSH1 0x24 DUP2 ADD DUP4 SWAP1 MSTORE PUSH1 0x44 ADD PUSH2 0x734 JUMP JUMPDEST POP SWAP2 SWAP4 SWAP1 SWAP3 POP JUMP JUMPDEST PUSH1 0x60 PUSH1 0x0 PUSH2 0x29A9 DUP4 PUSH1 0x40 ADD MLOAD DUP5 PUSH1 0x60 ADD MLOAD DUP6 PUSH1 0x80 ADD MLOAD PUSH2 0x306A JUMP JUMPDEST PUSH2 0x29C0 DUP5 PUSH1 0x0 ADD MLOAD DUP6 PUSH1 0x20 ADD MLOAD DUP7 PUSH1 0xA0 ADD MLOAD PUSH2 0x3106 JUMP JUMPDEST PUSH2 0x29D2 DUP6 PUSH1 0x60 ADD MLOAD DUP7 PUSH1 0x80 ADD MLOAD PUSH2 0x3142 JUMP JUMPDEST PUSH1 0x40 MLOAD PUSH1 0x20 ADD PUSH2 0x29E4 SWAP4 SWAP3 SWAP2 SWAP1 PUSH2 0x40D4 JUMP JUMPDEST PUSH1 0x40 MLOAD PUSH1 0x20 DUP2 DUP4 SUB SUB DUP2 MSTORE SWAP1 PUSH1 0x40 MSTORE SWAP1 POP PUSH1 0x0 PUSH2 0x2A18 DUP5 PUSH1 0x0 ADD MLOAD DUP6 PUSH1 0x20 ADD MLOAD DUP7 PUSH1 0xA0 ADD MLOAD DUP8 PUSH1 0x60 ADD MLOAD DUP9 PUSH1 0x80 ADD MLOAD PUSH2 0x317E JUMP JUMPDEST SWAP1 POP PUSH1 0x0 DUP2 PUSH2 0x2A26 DUP5 PUSH2 0x31D0 JUMP JUMPDEST PUSH1 0x40 MLOAD PUSH1 0x20 ADD PUSH2 0x2A37 SWAP3 SWAP2 SWAP1 PUSH2 0x4229 JUMP JUMPDEST PUSH1 0x40 MLOAD PUSH1 0x20 DUP2 DUP4 SUB SUB DUP2 MSTORE SWAP1 PUSH1 0x40 MSTORE SWAP1 POP PUSH2 0x2A51 DUP2 PUSH2 0x31D0 JUMP JUMPDEST PUSH1 0x40 MLOAD PUSH1 0x20 ADD PUSH2 0x2A61 SWAP2 SWAP1 PUSH2 0x42E9 JUMP JUMPDEST PUSH1 0x40 MLOAD PUSH1 0x20 DUP2 DUP4 SUB SUB DUP2 MSTORE SWAP1 PUSH1 0x40 MSTORE SWAP4 POP POP POP POP SWAP2 SWAP1 POP JUMP JUMPDEST PUSH1 0x1 PUSH1 0x1 PUSH1 0xA0 SHL SUB DUP3 AND PUSH2 0x2AC4 JUMPI PUSH1 0x40 MLOAD PUSH3 0x461BCD PUSH1 0xE5 SHL DUP2 MSTORE PUSH1 0x20 PUSH1 0x4 DUP3 ADD MSTORE PUSH1 0x11 PUSH1 0x24 DUP3 ADD MSTORE PUSH17 0x1253959053125117D49150D25412515395 PUSH1 0x7A SHL PUSH1 0x44 DUP3 ADD MSTORE PUSH1 0x64 ADD PUSH2 0x734 JUMP JUMPDEST PUSH1 0x0 DUP2 DUP2 MSTORE PUSH1 0x2 PUSH1 0x20 MSTORE PUSH1 0x40 SWAP1 KECCAK256 SLOAD PUSH1 0x1 PUSH1 0x1 PUSH1 0xA0 SHL SUB AND ISZERO PUSH2 0x2B1A JUMPI PUSH1 0x40 MLOAD PUSH3 0x461BCD PUSH1 0xE5 SHL DUP2 MSTORE PUSH1 0x20 PUSH1 0x4 DUP3 ADD MSTORE PUSH1 0xE PUSH1 0x24 DUP3 ADD MSTORE PUSH14 0x1053149150511657D35253951151 PUSH1 0x92 SHL PUSH1 0x44 DUP3 ADD MSTORE PUSH1 0x64 ADD PUSH2 0x734 JUMP JUMPDEST PUSH1 0x1 PUSH1 0x1 PUSH1 0xA0 SHL SUB DUP3 AND PUSH1 0x0 DUP2 DUP2 MSTORE PUSH1 0x3 PUSH1 0x20 SWAP1 DUP2 MSTORE PUSH1 0x40 DUP1 DUP4 KECCAK256 DUP1 SLOAD PUSH1 0x1 ADD SWAP1 SSTORE DUP5 DUP4 MSTORE PUSH1 0x2 SWAP1 SWAP2 MSTORE DUP1 DUP3 KECCAK256 DUP1 SLOAD PUSH1 0x1 PUSH1 0x1 PUSH1 0xA0 SHL SUB NOT AND DUP5 OR SWAP1 SSTORE MLOAD DUP4 SWAP3 SWAP2 SWAP1 PUSH32 0xDDF252AD1BE2C89B69C2B068FC378DAA952BA7F163C4A11628F55A4DF523B3EF SWAP1 DUP3 SWAP1 LOG4 POP POP JUMP JUMPDEST PUSH1 0x0 DUP1 PUSH1 0x0 DUP4 PUSH1 0x2 SIGNEXTEND SLT PUSH2 0x2B9C JUMPI DUP3 PUSH1 0x2 SIGNEXTEND PUSH2 0x2BA9 JUMP JUMPDEST DUP3 PUSH1 0x2 SIGNEXTEND PUSH2 0x2BA9 SWAP1 PUSH2 0x432E JUMP JUMPDEST SWAP1 POP PUSH2 0x2BB8 PUSH3 0xD89E7 NOT PUSH2 0x434A JUMP JUMPDEST PUSH3 0xFFFFFF AND DUP2 GT ISZERO PUSH2 0x2BF0 JUMPI PUSH1 0x40 MLOAD PUSH3 0x461BCD PUSH1 0xE5 SHL DUP2 MSTORE PUSH1 0x20 PUSH1 0x4 DUP3 ADD MSTORE PUSH1 0x1 PUSH1 0x24 DUP3 ADD MSTORE PUSH1 0x15 PUSH1 0xFA SHL PUSH1 0x44 DUP3 ADD MSTORE PUSH1 0x64 ADD PUSH2 0x734 JUMP JUMPDEST PUSH1 0x0 DUP2 PUSH1 0x1 AND PUSH1 0x0 SUB PUSH2 0x2C07 JUMPI PUSH1 0x1 PUSH1 0x80 SHL PUSH2 0x2C19 JUMP JUMPDEST PUSH16 0xFFFCB933BD6FAD37AA2D162D1A594001 JUMPDEST PUSH17 0xFFFFFFFFFFFFFFFFFFFFFFFFFFFFFFFFFF AND SWAP1 POP PUSH1 0x2 DUP3 AND ISZERO PUSH2 0x2C58 JUMPI PUSH1 0x80 PUSH2 0x2C53 DUP3 PUSH16 0xFFF97272373D413259A46990580E213A PUSH2 0x436C JUMP JUMPDEST SWAP1 SHR SWAP1 POP JUMPDEST PUSH1 0x4 DUP3 AND ISZERO PUSH2 0x2C82 JUMPI PUSH1 0x80 PUSH2 0x2C7D DUP3 PUSH16 0xFFF2E50F5F656932EF12357CF3C7FDCC PUSH2 0x436C JUMP JUMPDEST SWAP1 SHR SWAP1 POP JUMPDEST PUSH1 0x8 DUP3 AND ISZERO PUSH2 0x2CAC JUMPI PUSH1 0x80 PUSH2 0x2CA7 DUP3 PUSH16 0xFFE5CACA7E10E4E61C3624EAA0941CD0 PUSH2 0x436C JUMP JUMPDEST SWAP1 SHR SWAP1 POP JUMPDEST PUSH1 0x10 DUP3 AND ISZERO PUSH2 0x2CD6 JUMPI PUSH1 0x80 PUSH2 0x2CD1 DUP3 PUSH16 0xFFCB9843D60F6159C9DB58835C926644 PUSH2 0x436C JUMP JUMPDEST SWAP1 SHR SWAP1 POP JUMPDEST PUSH1 0x20 DUP3 AND ISZERO PUSH2 0x2D00 JUMPI PUSH1 0x80 PUSH2 0x2CFB DUP3 PUSH16 0xFF973B41FA98C081472E6896DFB254C0 PUSH2 0x436C JUMP JUMPDEST SWAP1 SHR SWAP1 POP JUMPDEST PUSH1 0x40 DUP3 AND ISZERO PUSH2 0x2D2A JUMPI PUSH1 0x80 PUSH2 0x2D25 DUP3 PUSH16 0xFF2EA16466C96A3843EC78B326B52861 PUSH2 0x436C JUMP JUMPDEST SWAP1 SHR SWAP1 POP JUMPDEST PUSH1 0x80 DUP3 AND ISZERO PUSH2 0x2D54 JUMPI PUSH1 0x80 PUSH2 0x2D4F DUP3 PUSH16 0xFE5DEE046A99A2A811C461F1969C3053 PUSH2 0x436C JUMP JUMPDEST SWAP1 SHR SWAP1 POP JUMPDEST PUSH2 0x100 DUP3 AND ISZERO PUSH2 0x2D7F JUMPI PUSH1 0x80 PUSH2 0x2D7A DUP3 PUSH16 0xFCBE86C7900A88AEDCFFC83B479AA3A4 PUSH2 0x436C JUMP JUMPDEST SWAP1 SHR SWAP1 POP JUMPDEST PUSH2 0x200 DUP3 AND ISZERO PUSH2 0x2DAA JUMPI PUSH1 0x80 PUSH2 0x2DA5 DUP3 PUSH16 0xF987A7253AC413176F2B074CF7815E54 PUSH2 0x436C JUMP JUMPDEST SWAP1 SHR SWAP1 POP JUMPDEST PUSH2 0x400 DUP3 AND ISZERO PUSH2 0x2DD5 JUMPI PUSH1 0x80 PUSH2 0x2DD0 DUP3 PUSH16 0xF3392B0822B70005940C7A398E4B70F3 PUSH2 0x436C JUMP JUMPDEST SWAP1 SHR SWAP1 POP JUMPDEST PUSH2 0x800 DUP3 AND ISZERO PUSH2 0x2E00 JUMPI PUSH1 0x80 PUSH2 0x2DFB DUP3 PUSH16 0xE7159475A2C29B7443B29C7FA6E889D9 PUSH2 0x436C JUMP JUMPDEST SWAP1 SHR SWAP1 POP JUMPDEST PUSH2 0x1000 DUP3 AND ISZERO PUSH2 0x2E2B JUMPI PUSH1 0x80 PUSH2 0x2E26 DUP3 PUSH16 0xD097F3BDFD2022B8845AD8F792AA5825 PUSH2 0x436C JUMP JUMPDEST SWAP1 SHR SWAP1 POP JUMPDEST PUSH2 0x2000 DUP3 AND ISZERO PUSH2 0x2E56 JUMPI PUSH1 0x80 PUSH2 0x2E51 DUP3 PUSH16 0xA9F746462D870FDF8A65DC1F90E061E5 PUSH2 0x436C JUMP JUMPDEST SWAP1 SHR SWAP1 POP JUMPDEST PUSH2 0x4000 DUP3 AND ISZERO PUSH2 0x2E81 JUMPI PUSH1 0x80 PUSH2 0x2E7C DUP3 PUSH16 0x70D869A156D2A1B890BB3DF62BAF32F7 PUSH2 0x436C JUMP JUMPDEST SWAP1 SHR SWAP1 POP JUMPDEST PUSH2 0x8000 DUP3 AND ISZERO PUSH2 0x2EAC JUMPI PUSH1 0x80 PUSH2 0x2EA7 DUP3 PUSH16 0x31BE135F97D08FD981231505542FCFA6 PUSH2 0x436C JUMP JUMPDEST SWAP1 SHR SWAP1 POP JUMPDEST PUSH3 0x10000 DUP3 AND ISZERO PUSH2 0x2ED8 JUMPI PUSH1 0x80 PUSH2 0x2ED3 DUP3 PUSH16 0x9AA508B5B7A84E1C677DE54F3E99BC9 PUSH2 0x436C JUMP JUMPDEST SWAP1 SHR SWAP1 POP JUMPDEST PUSH3 0x20000 DUP3 AND ISZERO PUSH2 0x2F03 JUMPI PUSH1 0x80 PUSH2 0x2EFE DUP3 PUSH15 0x5D6AF8DEDB81196699C329225EE604 PUSH2 0x436C JUMP JUMPDEST SWAP1 SHR SWAP1 POP JUMPDEST PUSH3 0x40000 DUP3 AND ISZERO PUSH2 0x2F2D JUMPI PUSH1 0x80 PUSH2 0x2F28 DUP3 PUSH14 0x2216E584F5FA1EA926041BEDFE98 PUSH2 0x436C JUMP JUMPDEST SWAP1 SHR SWAP1 POP JUMPDEST PUSH3 0x80000 DUP3 AND ISZERO PUSH2 0x2F55 JUMPI PUSH1 0x80 PUSH2 0x2F50 DUP3 PUSH12 0x48A170391F7DC42444E8FA2 PUSH2 0x436C JUMP JUMPDEST SWAP1 SHR SWAP1 POP JUMPDEST PUSH1 0x0 DUP5 PUSH1 0x2 SIGNEXTEND SGT ISZERO PUSH2 0x2F70 JUMPI PUSH2 0x2F6D DUP2 PUSH1 0x0 NOT PUSH2 0x4399 JUMP JUMPDEST SWAP1 POP JUMPDEST PUSH2 0x2F7F PUSH5 0x100000000 DUP3 PUSH2 0x43AD JUMP JUMPDEST ISZERO PUSH2 0x2F8B JUMPI PUSH1 0x1 PUSH2 0x2F8E JUMP JUMPDEST PUSH1 0x0 JUMPDEST PUSH2 0x2F9F SWAP1 PUSH1 0xFF AND PUSH1 0x20 DUP4 SWAP1 SHR PUSH2 0x43C1 JUMP JUMPDEST SWAP5 SWAP4 POP POP POP POP JUMP JUMPDEST PUSH1 0x0 DUP4 PUSH1 0x1 PUSH1 0x1 PUSH1 0xA0 SHL SUB AND DUP6 PUSH1 0x1 PUSH1 0x1 PUSH1 0xA0 SHL SUB AND GT ISZERO PUSH2 0x2FC7 JUMPI SWAP3 SWAP4 SWAP3 JUMPDEST DUP5 PUSH1 0x1 PUSH1 0x1 PUSH1 0xA0 SHL SUB AND DUP7 PUSH1 0x1 PUSH1 0x1 PUSH1 0xA0 SHL SUB AND GT PUSH2 0x2FF2 JUMPI PUSH2 0x2FEB DUP6 DUP6 DUP6 PUSH2 0x3321 JUMP JUMPDEST SWAP1 POP PUSH2 0x3061 JUMP JUMPDEST DUP4 PUSH1 0x1 PUSH1 0x1 PUSH1 0xA0 SHL SUB AND DUP7 PUSH1 0x1 PUSH1 0x1 PUSH1 0xA0 SHL SUB AND GT PUSH2 0x3053 JUMPI PUSH1 0x0 PUSH2 0x3018 DUP8 DUP7 DUP7 PUSH2 0x3321 JUMP JUMPDEST SWAP1 POP PUSH1 0x0 PUSH2 0x3027 DUP8 DUP10 DUP7 PUSH2 0x3383 JUMP JUMPDEST SWAP1 POP DUP1 PUSH1 0x1 PUSH1 0x1 PUSH1 0x80 SHL SUB AND DUP3 PUSH1 0x1 PUSH1 0x1 PUSH1 0x80 SHL SUB AND LT PUSH2 0x3048 JUMPI DUP1 PUSH2 0x304A JUMP JUMPDEST DUP2 JUMPDEST SWAP3 POP POP POP PUSH2 0x3061 JUMP JUMPDEST PUSH2 0x305E DUP6 DUP6 DUP5 PUSH2 0x3383 JUMP JUMPDEST SWAP1 POP JUMPDEST SWAP6 SWAP5 POP POP POP POP POP JUMP JUMPDEST PUSH1 0x40 MLOAD PUSH1 0x60 DUP5 DUP2 SHL PUSH12 0xFFFFFFFFFFFFFFFFFFFFFFFF NOT AND PUSH1 0x20 DUP4 ADD MSTORE PUSH1 0xE8 DUP5 DUP2 SHL PUSH1 0x34 DUP5 ADD MSTORE DUP4 SWAP1 SHL PUSH1 0x37 DUP4 ADD MSTORE SWAP1 PUSH1 0x0 SWAP1 PUSH1 0x3A ADD PUSH1 0x40 DUP1 MLOAD PUSH1 0x1F NOT DUP2 DUP5 SUB ADD DUP2 MSTORE SWAP2 SWAP1 MSTORE DUP1 MLOAD PUSH1 0x20 SWAP1 SWAP2 ADD KECCAK256 SWAP1 POP PUSH1 0x0 PUSH2 0x30C7 PUSH2 0x168 DUP4 PUSH2 0x43AD JUMP JUMPDEST SWAP1 POP PUSH2 0x30D2 DUP2 PUSH2 0x33B6 JUMP JUMPDEST PUSH2 0x30DB DUP3 PUSH2 0x33B6 JUMP JUMPDEST PUSH1 0x40 MLOAD PUSH1 0x20 ADD PUSH2 0x30EC SWAP3 SWAP2 SWAP1 PUSH2 0x43D4 JUMP JUMPDEST PUSH1 0x40 MLOAD PUSH1 0x20 DUP2 DUP4 SUB SUB DUP2 MSTORE SWAP1 PUSH1 0x40 MSTORE SWAP3 POP POP POP SWAP4 SWAP3 POP POP POP JUMP JUMPDEST PUSH1 0x60 DUP4 DUP4 PUSH2 0x3118 DUP5 PUSH3 0xFFFFFF AND PUSH2 0x3448 JUMP JUMPDEST PUSH1 0x40 MLOAD PUSH1 0x20 ADD PUSH2 0x312A SWAP4 SWAP3 SWAP2 SWAP1 PUSH2 0x44DC JUMP JUMPDEST PUSH1 0x40 MLOAD PUSH1 0x20 DUP2 DUP4 SUB SUB DUP2 MSTORE SWAP1 PUSH1 0x40 MSTORE SWAP1 POP SWAP4 SWAP3 POP POP POP JUMP JUMPDEST PUSH1 0x60 PUSH2 0x314D DUP4 PUSH2 0x349D JUMP JUMPDEST PUSH2 0x3156 DUP4 PUSH2 0x349D JUMP JUMPDEST PUSH1 0x40 MLOAD PUSH1 0x20 ADD PUSH2 0x3167 SWAP3 SWAP2 SWAP1 PUSH2 0x463E JUMP JUMPDEST PUSH1 0x40 MLOAD PUSH1 0x20 DUP2 DUP4 SUB SUB DUP2 MSTORE SWAP1 PUSH1 0x40 MSTORE SWAP1 POP SWAP3 SWAP2 POP POP JUMP JUMPDEST PUSH1 0x60 DUP6 DUP6 PUSH2 0x3190 DUP7 PUSH3 0xFFFFFF AND PUSH2 0x3448 JUMP JUMPDEST PUSH2 0x3199 DUP7 PUSH2 0x349D JUMP JUMPDEST PUSH2 0x31A2 DUP7 PUSH2 0x349D JUMP JUMPDEST PUSH1 0x40 MLOAD PUSH1 0x20 ADD PUSH2 0x31B6 SWAP6 SWAP5 SWAP4 SWAP3 SWAP2 SWAP1 PUSH2 0x47A0 JUMP JUMPDEST PUSH1 0x40 MLOAD PUSH1 0x20 DUP2 DUP4 SUB SUB DUP2 MSTORE SWAP1 PUSH1 0x40 MSTORE SWAP1 POP SWAP6 SWAP5 POP POP POP POP POP JUMP JUMPDEST PUSH1 0x60 DUP2 MLOAD PUSH1 0x0 SUB PUSH2 0x31EF JUMPI POP POP PUSH1 0x40 DUP1 MLOAD PUSH1 0x20 DUP2 ADD SWAP1 SWAP2 MSTORE PUSH1 0x0 DUP2 MSTORE SWAP1 JUMP JUMPDEST PUSH1 0x0 PUSH1 0x40 MLOAD DUP1 PUSH1 0x60 ADD PUSH1 0x40 MSTORE DUP1 PUSH1 0x40 DUP2 MSTORE PUSH1 0x20 ADD PUSH2 0x48B6 PUSH1 0x40 SWAP2 CODECOPY SWAP1 POP PUSH1 0x0 PUSH1 0x3 DUP5 MLOAD PUSH1 0x2 PUSH2 0x321E SWAP2 SWAP1 PUSH2 0x43C1 JUMP JUMPDEST PUSH2 0x3228 SWAP2 SWAP1 PUSH2 0x4399 JUMP JUMPDEST PUSH2 0x3233 SWAP1 PUSH1 0x4 PUSH2 0x436C JUMP JUMPDEST PUSH1 0x1 PUSH1 0x1 PUSH1 0x40 SHL SUB DUP2 GT ISZERO PUSH2 0x324A JUMPI PUSH2 0x324A PUSH2 0x3D0B JUMP JUMPDEST PUSH1 0x40 MLOAD SWAP1 DUP1 DUP3 MSTORE DUP1 PUSH1 0x1F ADD PUSH1 0x1F NOT AND PUSH1 0x20 ADD DUP3 ADD PUSH1 0x40 MSTORE DUP1 ISZERO PUSH2 0x3274 JUMPI PUSH1 0x20 DUP3 ADD DUP2 DUP1 CALLDATASIZE DUP4 CALLDATACOPY ADD SWAP1 POP JUMPDEST POP SWAP1 POP PUSH1 0x1 DUP3 ADD PUSH1 0x20 DUP3 ADD DUP6 DUP7 MLOAD DUP8 ADD JUMPDEST DUP1 DUP3 LT ISZERO PUSH2 0x32E0 JUMPI PUSH1 0x3 DUP3 ADD SWAP2 POP DUP2 MLOAD PUSH1 0x3F DUP2 PUSH1 0x12 SHR AND DUP6 ADD MLOAD DUP5 MSTORE8 PUSH1 0x1 DUP5 ADD SWAP4 POP PUSH1 0x3F DUP2 PUSH1 0xC SHR AND DUP6 ADD MLOAD DUP5 MSTORE8 PUSH1 0x1 DUP5 ADD SWAP4 POP PUSH1 0x3F DUP2 PUSH1 0x6 SHR AND DUP6 ADD MLOAD DUP5 MSTORE8 PUSH1 0x1 DUP5 ADD SWAP4 POP PUSH1 0x3F DUP2 AND DUP6 ADD MLOAD DUP5 MSTORE8 POP PUSH1 0x1 DUP4 ADD SWAP3 POP PUSH2 0x3285 JUMP JUMPDEST POP POP PUSH1 0x3 DUP7 MLOAD MOD PUSH1 0x1 DUP2 EQ PUSH2 0x32FC JUMPI PUSH1 0x2 DUP2 EQ PUSH2 0x330F JUMPI PUSH2 0x176F JUMP JUMPDEST PUSH1 0x3D PUSH1 0x1 DUP4 SUB MSTORE8 PUSH1 0x3D PUSH1 0x2 DUP4 SUB MSTORE8 PUSH2 0x176F JUMP JUMPDEST PUSH1 0x3D PUSH1 0x1 DUP4 SUB MSTORE8 POP SWAP2 SWAP6 SWAP5 POP POP POP POP POP JUMP JUMPDEST PUSH1 0x0 DUP3 PUSH1 0x1 PUSH1 0x1 PUSH1 0xA0 SHL SUB AND DUP5 PUSH1 0x1 PUSH1 0x1 PUSH1 0xA0 SHL SUB AND GT ISZERO PUSH2 0x3341 JUMPI SWAP2 SWAP3 SWAP2 JUMPDEST PUSH1 0x0 PUSH2 0x3364 DUP6 PUSH1 0x1 PUSH1 0x1 PUSH1 0xA0 SHL SUB AND DUP6 PUSH1 0x1 PUSH1 0x1 PUSH1 0xA0 SHL SUB AND PUSH1 0x1 PUSH1 0x60 SHL PUSH2 0x3535 JUMP JUMPDEST SWAP1 POP PUSH2 0x3061 DUP4 DUP3 PUSH2 0x3375 DUP9 DUP9 PUSH2 0x485F JUMP JUMPDEST PUSH1 0x1 PUSH1 0x1 PUSH1 0xA0 SHL SUB AND PUSH2 0x3535 JUMP JUMPDEST PUSH1 0x0 DUP3 PUSH1 0x1 PUSH1 0x1 PUSH1 0xA0 SHL SUB AND DUP5 PUSH1 0x1 PUSH1 0x1 PUSH1 0xA0 SHL SUB AND GT ISZERO PUSH2 0x33A3 JUMPI SWAP2 SWAP3 SWAP2 JUMPDEST PUSH2 0x2F9F DUP3 PUSH1 0x1 PUSH1 0x60 SHL PUSH2 0x3375 DUP8 DUP8 PUSH2 0x485F JUMP JUMPDEST PUSH1 0x60 PUSH1 0x0 PUSH2 0x33C3 DUP4 PUSH2 0x3608 JUMP JUMPDEST PUSH1 0x1 ADD SWAP1 POP PUSH1 0x0 DUP2 PUSH1 0x1 PUSH1 0x1 PUSH1 0x40 SHL SUB DUP2 GT ISZERO PUSH2 0x33E2 JUMPI PUSH2 0x33E2 PUSH2 0x3D0B JUMP JUMPDEST PUSH1 0x40 MLOAD SWAP1 DUP1 DUP3 MSTORE DUP1 PUSH1 0x1F ADD PUSH1 0x1F NOT AND PUSH1 0x20 ADD DUP3 ADD PUSH1 0x40 MSTORE DUP1 ISZERO PUSH2 0x340C JUMPI PUSH1 0x20 DUP3 ADD DUP2 DUP1 CALLDATASIZE DUP4 CALLDATACOPY ADD SWAP1 POP JUMPDEST POP SWAP1 POP DUP2 DUP2 ADD PUSH1 0x20 ADD JUMPDEST PUSH1 0x0 NOT ADD PUSH16 0x181899199A1A9B1B9C1CB0B131B232B3 PUSH1 0x81 SHL PUSH1 0xA DUP7 MOD BYTE DUP2 MSTORE8 PUSH1 0xA DUP6 DIV SWAP5 POP DUP5 PUSH2 0x3416 JUMPI POP SWAP4 SWAP3 POP POP POP JUMP JUMPDEST PUSH1 0x60 DUP2 PUSH2 0x1F4 SUB PUSH2 0x3474 JUMPI POP POP PUSH1 0x40 DUP1 MLOAD DUP1 DUP3 ADD SWAP1 SWAP2 MSTORE PUSH1 0x5 DUP2 MSTORE PUSH5 0x302E303525 PUSH1 0xD8 SHL PUSH1 0x20 DUP3 ADD MSTORE SWAP1 JUMP JUMPDEST DUP2 PUSH2 0xBB8 SUB PUSH2 0x1260 JUMPI POP POP PUSH1 0x40 DUP1 MLOAD DUP1 DUP3 ADD SWAP1 SWAP2 MSTORE PUSH1 0x4 DUP2 MSTORE PUSH4 0x302E3325 PUSH1 0xE0 SHL PUSH1 0x20 DUP3 ADD MSTORE SWAP1 JUMP JUMPDEST PUSH1 0x60 PUSH1 0x0 DUP3 PUSH1 0x2 SIGNEXTEND SLT PUSH2 0x34BF JUMPI PUSH1 0x40 MLOAD DUP1 PUSH1 0x20 ADD PUSH1 0x40 MSTORE DUP1 PUSH1 0x0 DUP2 MSTORE POP PUSH2 0x34DA JUMP JUMPDEST PUSH1 0x40 MLOAD DUP1 PUSH1 0x40 ADD PUSH1 0x40 MSTORE DUP1 PUSH1 0x1 DUP2 MSTORE PUSH1 0x20 ADD PUSH1 0x2D PUSH1 0xF8 SHL DUP2 MSTORE POP JUMPDEST PUSH1 0x0 DUP4 PUSH1 0x2 SIGNEXTEND SLT PUSH2 0x34F8 JUMPI PUSH2 0x34F3 DUP4 PUSH3 0xFFFFFF AND PUSH2 0x33B6 JUMP JUMPDEST PUSH2 0x350E JUMP JUMPDEST PUSH2 0x350E PUSH2 0x3504 DUP5 PUSH2 0x434A JUMP JUMPDEST PUSH3 0xFFFFFF AND PUSH2 0x33B6 JUMP JUMPDEST PUSH1 0x40 MLOAD PUSH1 0x20 ADD PUSH2 0x351F SWAP3 SWAP2 SWAP1 PUSH2 0x4886 JUMP JUMPDEST PUSH1 0x40 MLOAD PUSH1 0x20 DUP2 DUP4 SUB SUB DUP2 MSTORE SWAP1 PUSH1 0x40 MSTORE SWAP1 POP SWAP2 SWAP1 POP JUMP JUMPDEST PUSH1 0x0 DUP1 DUP1 PUSH1 0x0 NOT DUP6 DUP8 MULMOD DUP6 DUP8 MUL SWAP3 POP DUP3 DUP2 LT DUP4 DUP3 SUB SUB SWAP2 POP POP DUP1 PUSH1 0x0 SUB PUSH2 0x356F JUMPI DUP4 DUP3 DUP2 PUSH2 0x3565 JUMPI PUSH2 0x3565 PUSH2 0x4383 JUMP JUMPDEST DIV SWAP3 POP POP POP PUSH2 0x3601 JUMP JUMPDEST DUP4 DUP2 LT PUSH2 0x3599 JUMPI PUSH1 0x40 MLOAD PUSH4 0x1DCF3063 PUSH1 0xE2 SHL DUP2 MSTORE PUSH1 0x4 DUP2 ADD DUP3 SWAP1 MSTORE PUSH1 0x24 DUP2 ADD DUP6 SWAP1 MSTORE PUSH1 0x44 ADD PUSH2 0x734 JUMP JUMPDEST PUSH1 0x0 DUP5 DUP7 DUP9 MULMOD DUP6 NOT PUSH1 0x1 SWAP1 DUP2 ADD DUP8 AND SWAP7 DUP8 SWAP1 DIV SWAP7 DUP3 DUP7 SUB DUP2 SWAP1 DIV SWAP6 SWAP1 SWAP3 GT SWAP1 SWAP4 SUB PUSH1 0x0 DUP3 SWAP1 SUB SWAP2 SWAP1 SWAP2 DIV SWAP1 SWAP3 ADD SWAP2 SWAP1 SWAP2 MUL SWAP2 SWAP1 SWAP2 OR PUSH1 0x3 DUP5 MUL PUSH1 0x2 SWAP1 DUP2 XOR DUP1 DUP7 MUL DUP3 SUB MUL DUP1 DUP7 MUL DUP3 SUB MUL DUP1 DUP7 MUL DUP3 SUB MUL DUP1 DUP7 MUL DUP3 SUB MUL DUP1 DUP7 MUL DUP3 SUB MUL DUP1 DUP7 MUL SWAP1 SWAP2 SUB MUL MUL SWAP2 POP POP JUMPDEST SWAP4 SWAP3 POP POP POP JUMP JUMPDEST PUSH1 0x0 DUP1 PUSH19 0x184F03E93FF9F4DAA797ED6E38ED64BF6A1F01 PUSH1 0x40 SHL DUP4 LT PUSH2 0x3647 JUMPI PUSH19 0x184F03E93FF9F4DAA797ED6E38ED64BF6A1F01 PUSH1 0x40 SHL DUP4 DIV SWAP3 POP PUSH1 0x40 ADD JUMPDEST PUSH14 0x4EE2D6D415B85ACEF8100000000 DUP4 LT PUSH2 0x3673 JUMPI PUSH14 0x4EE2D6D415B85ACEF8100000000 DUP4 DIV SWAP3 POP PUSH1 0x20 ADD JUMPDEST PUSH7 0x2386F26FC10000 DUP4 LT PUSH2 0x3691 JUMPI PUSH7 0x2386F26FC10000 DUP4 DIV SWAP3 POP PUSH1 0x10 ADD JUMPDEST PUSH4 0x5F5E100 DUP4 LT PUSH2 0x36A9 JUMPI PUSH4 0x5F5E100 DUP4 DIV SWAP3 POP PUSH1 0x8 ADD JUMPDEST PUSH2 0x2710 DUP4 LT PUSH2 0x36BD JUMPI PUSH2 0x2710 DUP4 DIV SWAP3 POP PUSH1 0x4 ADD JUMPDEST PUSH1 0x64 DUP4 LT PUSH2 0x36CF JUMPI PUSH1 0x64 DUP4 DIV SWAP3 POP PUSH1 0x2 ADD JUMPDEST PUSH1 0xA DUP4 LT PUSH2 0x61E JUMPI PUSH1 0x1 ADD SWAP3 SWAP2 POP POP JUMP JUMPDEST PUSH1 0x1 PUSH1 0x1 PUSH1 0xE0 SHL SUB NOT DUP2 AND DUP2 EQ PUSH2 0x36F6 JUMPI PUSH1 0x0 DUP1 REVERT JUMPDEST POP JUMP JUMPDEST PUSH1 0x0 PUSH1 0x20 DUP3 DUP5 SUB SLT ISZERO PUSH2 0x370B JUMPI PUSH1 0x0 DUP1 REVERT JUMPDEST DUP2 CALLDATALOAD PUSH2 0x3601 DUP2 PUSH2 0x36E0 JUMP JUMPDEST PUSH1 0x0 JUMPDEST DUP4 DUP2 LT ISZERO PUSH2 0x3731 JUMPI DUP2 DUP2 ADD MLOAD DUP4 DUP3 ADD MSTORE PUSH1 0x20 ADD PUSH2 0x3719 JUMP JUMPDEST POP POP PUSH1 0x0 SWAP2 ADD MSTORE JUMP JUMPDEST PUSH1 0x0 DUP2 MLOAD DUP1 DUP5 MSTORE PUSH2 0x3752 DUP2 PUSH1 0x20 DUP7 ADD PUSH1 0x20 DUP7 ADD PUSH2 0x3716 JUMP JUMPDEST PUSH1 0x1F ADD PUSH1 0x1F NOT AND SWAP3 SWAP1 SWAP3 ADD PUSH1 0x20 ADD SWAP3 SWAP2 POP POP JUMP JUMPDEST PUSH1 0x20 DUP2 MSTORE PUSH1 0x0 PUSH2 0x3601 PUSH1 0x20 DUP4 ADD DUP5 PUSH2 0x373A JUMP JUMPDEST PUSH1 0x0 PUSH1 0x20 DUP3 DUP5 SUB SLT ISZERO PUSH2 0x378B JUMPI PUSH1 0x0 DUP1 REVERT JUMPDEST POP CALLDATALOAD SWAP2 SWAP1 POP JUMP JUMPDEST PUSH1 0x1 PUSH1 0x1 PUSH1 0xA0 SHL SUB DUP2 AND DUP2 EQ PUSH2 0x36F6 JUMPI PUSH1 0x0 DUP1 REVERT JUMPDEST PUSH1 0x0 DUP1 PUSH1 0x40 DUP4 DUP6 SUB SLT ISZERO PUSH2 0x37BA JUMPI PUSH1 0x0 DUP1 REVERT JUMPDEST DUP3 CALLDATALOAD PUSH2 0x37C5 DUP2 PUSH2 0x3792 JUMP JUMPDEST SWAP5 PUSH1 0x20 SWAP4 SWAP1 SWAP4 ADD CALLDATALOAD SWAP4 POP POP POP JUMP JUMPDEST PUSH1 0x0 PUSH1 0x20 DUP3 DUP5 SUB SLT ISZERO PUSH2 0x37E5 JUMPI PUSH1 0x0 DUP1 REVERT JUMPDEST DUP2 CALLDATALOAD PUSH2 0x3601 DUP2 PUSH2 0x3792 JUMP JUMPDEST PUSH1 0x0 DUP2 MLOAD DUP1 DUP5 MSTORE PUSH1 0x20 DUP1 DUP6 ADD SWAP5 POP DUP1 DUP5 ADD PUSH1 0x0 JUMPDEST DUP4 DUP2 LT ISZERO PUSH2 0x3820 JUMPI DUP2 MLOAD DUP8 MSTORE SWAP6 DUP3 ADD SWAP6 SWAP1 DUP3 ADD SWAP1 PUSH1 0x1 ADD PUSH2 0x3804 JUMP JUMPDEST POP SWAP5 SWAP6 SWAP5 POP POP POP POP POP JUMP JUMPDEST PUSH1 0x0 DUP2 MLOAD DUP1 DUP5 MSTORE PUSH1 0x20 DUP1 DUP6 ADD SWAP5 POP DUP1 DUP5 ADD PUSH1 0x0 JUMPDEST DUP4 DUP2 LT ISZERO PUSH2 0x3820 JUMPI DUP2 MLOAD PUSH1 0x1 PUSH1 0x1 PUSH1 0x80 SHL SUB AND DUP8 MSTORE SWAP6 DUP3 ADD SWAP6 SWAP1 DUP3 ADD SWAP1 PUSH1 0x1 ADD PUSH2 0x383F JUMP JUMPDEST PUSH1 0x0 DUP2 MLOAD DUP1 DUP5 MSTORE PUSH1 0x20 DUP1 DUP6 ADD SWAP5 POP DUP1 DUP5 ADD PUSH1 0x0 JUMPDEST DUP4 DUP2 LT ISZERO PUSH2 0x3820 JUMPI DUP2 MLOAD PUSH1 0x2 SIGNEXTEND DUP8 MSTORE SWAP6 DUP3 ADD SWAP6 SWAP1 DUP3 ADD SWAP1 PUSH1 0x1 ADD PUSH2 0x3878 JUMP JUMPDEST PUSH1 0xA0 DUP2 MSTORE PUSH1 0x0 PUSH2 0x38AA PUSH1 0xA0 DUP4 ADD DUP9 PUSH2 0x37F0 JUMP JUMPDEST DUP3 DUP2 SUB PUSH1 0x20 DUP5 DUP2 ADD SWAP2 SWAP1 SWAP2 MSTORE DUP8 MLOAD DUP1 DUP4 MSTORE DUP9 DUP3 ADD SWAP3 DUP3 ADD SWAP1 PUSH1 0x0 JUMPDEST DUP2 DUP2 LT ISZERO PUSH2 0x38EA JUMPI DUP5 MLOAD PUSH1 0x1 PUSH1 0x1 PUSH1 0xA0 SHL SUB AND DUP4 MSTORE SWAP4 DUP4 ADD SWAP4 SWAP2 DUP4 ADD SWAP2 PUSH1 0x1 ADD PUSH2 0x38C5 JUMP JUMPDEST POP POP DUP5 DUP2 SUB PUSH1 0x40 DUP7 ADD MSTORE PUSH2 0x38FE DUP2 DUP10 PUSH2 0x382B JUMP JUMPDEST SWAP3 POP POP POP DUP3 DUP2 SUB PUSH1 0x60 DUP5 ADD MSTORE PUSH2 0x3914 DUP2 DUP7 PUSH2 0x3864 JUMP JUMPDEST SWAP1 POP DUP3 DUP2 SUB PUSH1 0x80 DUP5 ADD MSTORE PUSH2 0x1F66 DUP2 DUP6 PUSH2 0x3864 JUMP JUMPDEST PUSH1 0x0 DUP1 PUSH1 0x0 PUSH1 0x60 DUP5 DUP7 SUB SLT ISZERO PUSH2 0x393D JUMPI PUSH1 0x0 DUP1 REVERT JUMPDEST DUP4 CALLDATALOAD PUSH2 0x3948 DUP2 PUSH2 0x3792 JUMP JUMPDEST SWAP3 POP PUSH1 0x20 DUP5 ADD CALLDATALOAD PUSH2 0x3958 DUP2 PUSH2 0x3792 JUMP JUMPDEST SWAP3 SWAP6 SWAP3 SWAP5 POP POP POP PUSH1 0x40 SWAP2 SWAP1 SWAP2 ADD CALLDATALOAD SWAP1 JUMP JUMPDEST PUSH1 0x60 DUP2 MSTORE PUSH1 0x0 PUSH2 0x397C PUSH1 0x60 DUP4 ADD DUP7 PUSH2 0x37F0 JUMP JUMPDEST DUP3 DUP2 SUB PUSH1 0x20 DUP5 ADD MSTORE PUSH2 0x398E DUP2 DUP7 PUSH2 0x37F0 JUMP JUMPDEST SWAP1 POP DUP3 DUP2 SUB PUSH1 0x40 DUP5 ADD MSTORE PUSH2 0x39A2 DUP2 DUP6 PUSH2 0x37F0 JUMP JUMPDEST SWAP7 SWAP6 POP POP POP POP POP POP JUMP JUMPDEST PUSH1 0xA0 DUP2 MSTORE PUSH1 0x0 PUSH2 0x39BF PUSH1 0xA0 DUP4 ADD DUP9 PUSH2 0x37F0 JUMP JUMPDEST DUP3 DUP2 SUB PUSH1 0x20 DUP5 ADD MSTORE PUSH2 0x39D1 DUP2 DUP9 PUSH2 0x37F0 JUMP JUMPDEST SWAP1 POP DUP3 DUP2 SUB PUSH1 0x40 DUP5 ADD MSTORE PUSH2 0x39E5 DUP2 DUP8 PUSH2 0x37F0 JUMP JUMPDEST SWAP1 POP DUP3 DUP2 SUB PUSH1 0x60 DUP5 ADD MSTORE PUSH2 0x39F9 DUP2 DUP7 PUSH2 0x382B JUMP JUMPDEST SWAP1 POP DUP3 DUP2 SUB PUSH1 0x80 DUP5 ADD MSTORE PUSH2 0x1F66 DUP2 DUP6 PUSH2 0x382B JUMP JUMPDEST PUSH1 0x20 DUP2 MSTORE PUSH1 0x0 PUSH2 0x3601 PUSH1 0x20 DUP4 ADD DUP5 PUSH2 0x37F0 JUMP JUMPDEST PUSH1 0x1 PUSH1 0x1 PUSH1 0x80 SHL SUB DUP2 AND DUP2 EQ PUSH2 0x36F6 JUMPI PUSH1 0x0 DUP1 REVERT JUMPDEST PUSH1 0x0 DUP1 PUSH1 0x40 DUP4 DUP6 SUB SLT ISZERO PUSH2 0x3A48 JUMPI PUSH1 0x0 DUP1 REVERT JUMPDEST DUP3 CALLDATALOAD SWAP2 POP PUSH1 0x20 DUP4 ADD CALLDATALOAD PUSH2 0x3A5A DUP2 PUSH2 0x3A20 JUMP JUMPDEST DUP1 SWAP2 POP POP SWAP3 POP SWAP3 SWAP1 POP JUMP JUMPDEST PUSH1 0x0 DUP1 PUSH1 0x40 DUP4 DUP6 SUB SLT ISZERO PUSH2 0x3A78 JUMPI PUSH1 0x0 DUP1 REVERT JUMPDEST DUP3 CALLDATALOAD PUSH2 0x3A83 DUP2 PUSH2 0x3792 JUMP JUMPDEST SWAP2 POP PUSH1 0x20 DUP4 ADD CALLDATALOAD DUP1 ISZERO ISZERO DUP2 EQ PUSH2 0x3A5A JUMPI PUSH1 0x0 DUP1 REVERT JUMPDEST PUSH1 0x0 DUP1 PUSH1 0x0 DUP1 PUSH1 0x0 PUSH1 0xA0 DUP7 DUP9 SUB SLT ISZERO PUSH2 0x3AB0 JUMPI PUSH1 0x0 DUP1 REVERT JUMPDEST POP POP DUP4 CALLDATALOAD SWAP6 PUSH1 0x20 DUP6 ADD CALLDATALOAD SWAP6 POP PUSH1 0x40 DUP6 ADD CALLDATALOAD SWAP5 PUSH1 0x60 DUP2 ADD CALLDATALOAD SWAP5 POP PUSH1 0x80 ADD CALLDATALOAD SWAP3 POP SWAP1 POP JUMP JUMPDEST PUSH1 0x0 DUP1 DUP4 PUSH1 0x1F DUP5 ADD SLT PUSH2 0x3AE5 JUMPI PUSH1 0x0 DUP1 REVERT JUMPDEST POP DUP2 CALLDATALOAD PUSH1 0x1 PUSH1 0x1 PUSH1 0x40 SHL SUB DUP2 GT ISZERO PUSH2 0x3AFC JUMPI PUSH1 0x0 DUP1 REVERT JUMPDEST PUSH1 0x20 DUP4 ADD SWAP2 POP DUP4 PUSH1 0x20 DUP3 DUP6 ADD ADD GT ISZERO PUSH2 0x3B14 JUMPI PUSH1 0x0 DUP1 REVERT JUMPDEST SWAP3 POP SWAP3 SWAP1 POP JUMP JUMPDEST PUSH1 0x0 DUP1 PUSH1 0x0 DUP1 PUSH1 0x0 PUSH1 0x80 DUP7 DUP9 SUB SLT ISZERO PUSH2 0x3B33 JUMPI PUSH1 0x0 DUP1 REVERT JUMPDEST DUP6 CALLDATALOAD PUSH2 0x3B3E DUP2 PUSH2 0x3792 JUMP JUMPDEST SWAP5 POP PUSH1 0x20 DUP7 ADD CALLDATALOAD PUSH2 0x3B4E DUP2 PUSH2 0x3792 JUMP JUMPDEST SWAP4 POP PUSH1 0x40 DUP7 ADD CALLDATALOAD SWAP3 POP PUSH1 0x60 DUP7 ADD CALLDATALOAD PUSH1 0x1 PUSH1 0x1 PUSH1 0x40 SHL SUB DUP2 GT ISZERO PUSH2 0x3B70 JUMPI PUSH1 0x0 DUP1 REVERT JUMPDEST PUSH2 0x3B7C DUP9 DUP3 DUP10 ADD PUSH2 0x3AD3 JUMP JUMPDEST SWAP7 SWAP10 SWAP6 SWAP9 POP SWAP4 SWAP7 POP SWAP3 SWAP5 SWAP4 SWAP3 POP POP POP JUMP JUMPDEST PUSH1 0x0 DUP1 PUSH1 0x0 DUP1 PUSH1 0x60 DUP6 DUP8 SUB SLT ISZERO PUSH2 0x3BA3 JUMPI PUSH1 0x0 DUP1 REVERT JUMPDEST DUP5 CALLDATALOAD SWAP4 POP PUSH1 0x20 DUP6 ADD CALLDATALOAD SWAP3 POP PUSH1 0x40 DUP6 ADD CALLDATALOAD PUSH1 0x1 PUSH1 0x1 PUSH1 0x40 SHL SUB DUP2 GT ISZERO PUSH2 0x3BC7 JUMPI PUSH1 0x0 DUP1 REVERT JUMPDEST PUSH2 0x3BD3 DUP8 DUP3 DUP9 ADD PUSH2 0x3AD3 JUMP JUMPDEST SWAP6 SWAP9 SWAP5 SWAP8 POP SWAP6 POP POP POP POP JUMP JUMPDEST PUSH3 0xFFFFFF DUP2 AND DUP2 EQ PUSH2 0x36F6 JUMPI PUSH1 0x0 DUP1 REVERT JUMPDEST DUP1 PUSH1 0x2 SIGNEXTEND DUP2 EQ PUSH2 0x36F6 JUMPI PUSH1 0x0 DUP1 REVERT JUMPDEST PUSH1 0x0 DUP1 PUSH1 0x0 DUP1 PUSH1 0x0 DUP1 PUSH1 0x0 DUP1 PUSH1 0x0 DUP1 PUSH2 0x140 DUP12 DUP14 SUB SLT ISZERO PUSH2 0x3C1F JUMPI PUSH1 0x0 DUP1 REVERT JUMPDEST DUP11 CALLDATALOAD PUSH2 0x3C2A DUP2 PUSH2 0x3792 JUMP JUMPDEST SWAP10 POP PUSH1 0x20 DUP12 ADD CALLDATALOAD PUSH2 0x3C3A DUP2 PUSH2 0x3792 JUMP JUMPDEST SWAP9 POP PUSH1 0x40 DUP12 ADD CALLDATALOAD PUSH2 0x3C4A DUP2 PUSH2 0x3792 JUMP JUMPDEST SWAP8 POP PUSH1 0x60 DUP12 ADD CALLDATALOAD PUSH2 0x3C5A DUP2 PUSH2 0x3BDF JUMP JUMPDEST SWAP7 POP PUSH1 0x80 DUP12 ADD CALLDATALOAD PUSH2 0x3C6A DUP2 PUSH2 0x3BF0 JUMP JUMPDEST SWAP6 POP PUSH1 0xA0 DUP12 ADD CALLDATALOAD PUSH2 0x3C7A DUP2 PUSH2 0x3BF0 JUMP JUMPDEST SWAP10 SWAP13 SWAP9 SWAP12 POP SWAP7 SWAP10 SWAP6 SWAP9 SWAP5 SWAP8 SWAP5 SWAP7 POP POP POP POP PUSH1 0xC0 DUP4 ADD CALLDATALOAD SWAP3 PUSH1 0xE0 DUP2 ADD CALLDATALOAD SWAP3 PUSH2 0x100 DUP3 ADD CALLDATALOAD SWAP3 POP PUSH2 0x120 SWAP1 SWAP2 ADD CALLDATALOAD SWAP1 JUMP JUMPDEST PUSH1 0x0 DUP1 PUSH1 0x40 DUP4 DUP6 SUB SLT ISZERO PUSH2 0x3CBC JUMPI PUSH1 0x0 DUP1 REVERT JUMPDEST DUP3 CALLDATALOAD PUSH2 0x3CC7 DUP2 PUSH2 0x3792 JUMP JUMPDEST SWAP2 POP PUSH1 0x20 DUP4 ADD CALLDATALOAD PUSH2 0x3A5A DUP2 PUSH2 0x3792 JUMP JUMPDEST PUSH1 0x1 DUP2 DUP2 SHR SWAP1 DUP3 AND DUP1 PUSH2 0x3CEB JUMPI PUSH1 0x7F DUP3 AND SWAP2 POP JUMPDEST PUSH1 0x20 DUP3 LT DUP2 SUB PUSH2 0x177A JUMPI PUSH4 0x4E487B71 PUSH1 0xE0 SHL PUSH1 0x0 MSTORE PUSH1 0x22 PUSH1 0x4 MSTORE PUSH1 0x24 PUSH1 0x0 REVERT JUMPDEST PUSH4 0x4E487B71 PUSH1 0xE0 SHL PUSH1 0x0 MSTORE PUSH1 0x41 PUSH1 0x4 MSTORE PUSH1 0x24 PUSH1 0x0 REVERT JUMPDEST PUSH4 0x4E487B71 PUSH1 0xE0 SHL PUSH1 0x0 MSTORE PUSH1 0x32 PUSH1 0x4 MSTORE PUSH1 0x24 PUSH1 0x0 REVERT JUMPDEST PUSH1 0x0 DUP1 PUSH1 0x0 DUP1 PUSH1 0x0 PUSH1 0xA0 DUP7 DUP9 SUB SLT ISZERO PUSH2 0x3D4F JUMPI PUSH1 0x0 DUP1 REVERT JUMPDEST DUP6 MLOAD PUSH2 0x3D5A DUP2 PUSH2 0x3A20 JUMP JUMPDEST DUP1 SWAP6 POP POP PUSH1 0x20 DUP7 ADD MLOAD SWAP4 POP PUSH1 0x40 DUP7 ADD MLOAD SWAP3 POP PUSH1 0x60 DUP7 ADD MLOAD PUSH2 0x3D7A DUP2 PUSH2 0x3A20 JUMP JUMPDEST PUSH1 0x80 DUP8 ADD MLOAD SWAP1 SWAP3 POP PUSH2 0x3D8B DUP2 PUSH2 0x3A20 JUMP JUMPDEST DUP1 SWAP2 POP POP SWAP3 SWAP6 POP SWAP3 SWAP6 SWAP1 SWAP4 POP JUMP JUMPDEST PUSH4 0x4E487B71 PUSH1 0xE0 SHL PUSH1 0x0 MSTORE PUSH1 0x11 PUSH1 0x4 MSTORE PUSH1 0x24 PUSH1 0x0 REVERT JUMPDEST PUSH1 0x0 PUSH1 0x1 DUP3 ADD PUSH2 0x3DC1 JUMPI PUSH2 0x3DC1 PUSH2 0x3D99 JUMP JUMPDEST POP PUSH1 0x1 ADD SWAP1 JUMP JUMPDEST PUSH1 0x0 PUSH1 0x20 DUP3 DUP5 SUB SLT ISZERO PUSH2 0x3DDA JUMPI PUSH1 0x0 DUP1 REVERT JUMPDEST DUP2 MLOAD PUSH2 0x3601 DUP2 PUSH2 0x36E0 JUMP JUMPDEST PUSH1 0x0 DUP2 PUSH2 0x3DF4 JUMPI PUSH2 0x3DF4 PUSH2 0x3D99 JUMP JUMPDEST POP PUSH1 0x0 NOT ADD SWAP1 JUMP JUMPDEST PUSH1 0x0 DUP1 PUSH1 0x40 DUP4 DUP6 SUB SLT ISZERO PUSH2 0x3E0F JUMPI PUSH1 0x0 DUP1 REVERT JUMPDEST POP POP DUP1 MLOAD PUSH1 0x20 SWAP1 SWAP2 ADD MLOAD SWAP1 SWAP3 SWAP1 SWAP2 POP JUMP JUMPDEST PUSH1 0x1 PUSH1 0x1 PUSH1 0xA0 SHL SUB DUP7 DUP2 AND DUP3 MSTORE DUP6 AND PUSH1 0x20 DUP3 ADD MSTORE PUSH1 0x40 DUP2 ADD DUP5 SWAP1 MSTORE PUSH1 0x80 PUSH1 0x60 DUP3 ADD DUP2 SWAP1 MSTORE DUP2 ADD DUP3 SWAP1 MSTORE PUSH1 0x0 DUP3 DUP5 PUSH1 0xA0 DUP5 ADD CALLDATACOPY PUSH1 0x0 PUSH1 0xA0 DUP5 DUP5 ADD ADD MSTORE PUSH1 0xA0 PUSH1 0x1F NOT PUSH1 0x1F DUP6 ADD AND DUP4 ADD ADD SWAP1 POP SWAP7 SWAP6 POP POP POP POP POP POP JUMP JUMPDEST PUSH1 0x0 PUSH1 0x20 DUP3 DUP5 SUB SLT ISZERO PUSH2 0x3E86 JUMPI PUSH1 0x0 DUP1 REVERT JUMPDEST DUP2 MLOAD PUSH2 0x3601 DUP2 PUSH2 0x3792 JUMP JUMPDEST PUSH1 0x0 PUSH1 0x20 DUP3 DUP5 SUB SLT ISZERO PUSH2 0x3EA3 JUMPI PUSH1 0x0 DUP1 REVERT JUMPDEST DUP2 MLOAD PUSH1 0x1 PUSH1 0x1 PUSH1 0x40 SHL SUB DUP1 DUP3 GT ISZERO PUSH2 0x3EBA JUMPI PUSH1 0x0 DUP1 REVERT JUMPDEST DUP2 DUP5 ADD SWAP2 POP DUP5 PUSH1 0x1F DUP4 ADD SLT PUSH2 0x3ECE JUMPI PUSH1 0x0 DUP1 REVERT JUMPDEST DUP2 MLOAD DUP2 DUP2 GT ISZERO PUSH2 0x3EE0 JUMPI PUSH2 0x3EE0 PUSH2 0x3D0B JUMP JUMPDEST PUSH1 0x40 MLOAD PUSH1 0x1F DUP3 ADD PUSH1 0x1F NOT SWAP1 DUP2 AND PUSH1 0x3F ADD AND DUP2 ADD SWAP1 DUP4 DUP3 GT DUP2 DUP4 LT OR ISZERO PUSH2 0x3F08 JUMPI PUSH2 0x3F08 PUSH2 0x3D0B JUMP JUMPDEST DUP2 PUSH1 0x40 MSTORE DUP3 DUP2 MSTORE DUP8 PUSH1 0x20 DUP5 DUP8 ADD ADD GT ISZERO PUSH2 0x3F21 JUMPI PUSH1 0x0 DUP1 REVERT JUMPDEST PUSH2 0x3F32 DUP4 PUSH1 0x20 DUP4 ADD PUSH1 0x20 DUP9 ADD PUSH2 0x3716 JUMP JUMPDEST SWAP8 SWAP7 POP POP POP POP POP POP POP JUMP JUMPDEST PUSH1 0x0 PUSH1 0x20 DUP3 DUP5 SUB SLT ISZERO PUSH2 0x3F4F JUMPI PUSH1 0x0 DUP1 REVERT JUMPDEST DUP2 MLOAD PUSH2 0x3601 DUP2 PUSH2 0x3BDF JUMP JUMPDEST PUSH1 0x0 DUP1 PUSH1 0x40 DUP4 DUP6 SUB SLT ISZERO PUSH2 0x3F6D JUMPI PUSH1 0x0 DUP1 REVERT JUMPDEST DUP3 MLOAD PUSH2 0x3F78 DUP2 PUSH2 0x3A20 JUMP JUMPDEST PUSH1 0x20 DUP5 ADD MLOAD SWAP1 SWAP3 POP PUSH2 0x3A5A DUP2 PUSH2 0x3A20 JUMP JUMPDEST PUSH1 0x0 PUSH1 0x60 DUP3 DUP5 SUB SLT ISZERO PUSH2 0x3F9B JUMPI PUSH1 0x0 DUP1 REVERT JUMPDEST PUSH1 0x40 MLOAD PUSH1 0x60 DUP2 ADD DUP2 DUP2 LT PUSH1 0x1 PUSH1 0x1 PUSH1 0x40 SHL SUB DUP3 GT OR ISZERO PUSH2 0x3FBD JUMPI PUSH2 0x3FBD PUSH2 0x3D0B JUMP JUMPDEST PUSH1 0x40 MSTORE DUP3 CALLDATALOAD PUSH2 0x3FCB DUP2 PUSH2 0x3792 JUMP JUMPDEST DUP2 MSTORE PUSH1 0x20 DUP4 ADD CALLDATALOAD PUSH2 0x3FDB DUP2 PUSH2 0x3792 JUMP JUMPDEST PUSH1 0x20 DUP3 ADD MSTORE PUSH1 0x40 DUP4 ADD CALLDATALOAD PUSH2 0x3FEE DUP2 PUSH2 0x3792 JUMP JUMPDEST PUSH1 0x40 DUP3 ADD MSTORE SWAP4 SWAP3 POP POP POP JUMP JUMPDEST DUP1 MLOAD PUSH2 0xFFFF DUP2 AND DUP2 EQ PUSH2 0x1260 JUMPI PUSH1 0x0 DUP1 REVERT JUMPDEST PUSH1 0x0 DUP1 PUSH1 0x0 DUP1 PUSH1 0x0 PUSH1 0xA0 DUP7 DUP9 SUB SLT ISZERO PUSH2 0x4024 JUMPI PUSH1 0x0 DUP1 REVERT JUMPDEST DUP6 MLOAD PUSH2 0x402F DUP2 PUSH2 0x3792 JUMP JUMPDEST PUSH1 0x20 DUP8 ADD MLOAD SWAP1 SWAP6 POP PUSH2 0x4040 DUP2 PUSH2 0x3BF0 JUMP JUMPDEST SWAP4 POP PUSH2 0x404E PUSH1 0x40 DUP8 ADD PUSH2 0x3FFA JUMP JUMPDEST SWAP3 POP PUSH2 0x405C PUSH1 0x60 DUP8 ADD PUSH2 0x3FFA JUMP JUMPDEST SWAP2 POP PUSH2 0x406A PUSH1 0x80 DUP8 ADD PUSH2 0x3FFA JUMP JUMPDEST SWAP1 POP SWAP3 SWAP6 POP SWAP3 SWAP6 SWAP1 SWAP4 POP JUMP JUMPDEST PUSH1 0x1 DUP1 PUSH1 0xA0 SHL SUB DUP7 AND DUP2 MSTORE DUP5 PUSH1 0x2 SIGNEXTEND PUSH1 0x20 DUP3 ADD MSTORE DUP4 PUSH1 0x2 SIGNEXTEND PUSH1 0x40 DUP3 ADD MSTORE PUSH1 0x1 PUSH1 0x1 PUSH1 0x80 SHL SUB DUP4 AND PUSH1 0x60 DUP3 ADD MSTORE PUSH1 0xA0 PUSH1 0x80 DUP3 ADD MSTORE PUSH1 0x0 PUSH2 0x3F32 PUSH1 0xA0 DUP4 ADD DUP5 PUSH2 0x373A JUMP JUMPDEST PUSH1 0x0 DUP2 MLOAD PUSH2 0x40CA DUP2 DUP6 PUSH1 0x20 DUP7 ADD PUSH2 0x3716 JUMP JUMPDEST SWAP3 SWAP1 SWAP3 ADD SWAP3 SWAP2 POP POP JUMP JUMPDEST PUSH32 0x3C73766720786D6C6E733D27687474703A2F2F7777772E77332E6F72672F3230 DUP2 MSTORE PUSH32 0x30302F737667272076696577426F783D273020302033303020343830273E0000 PUSH1 0x20 DUP3 ADD MSTORE PUSH32 0x3C7374796C653E2E746F6B656E73207B20666F6E743A20626F6C642033307078 PUSH1 0x3E DUP3 ADD MSTORE PUSH14 0x2073616E732D73657269663B207D PUSH1 0x90 SHL PUSH1 0x5E DUP3 ADD MSTORE PUSH32 0x2E666565207B20666F6E743A206E6F726D616C20323670782073616E732D7365 PUSH1 0x6C DUP3 ADD MSTORE PUSH6 0x7269663B207D PUSH1 0xD0 SHL PUSH1 0x8C DUP3 ADD MSTORE PUSH32 0x2E7469636B207B20666F6E743A206E6F726D616C20313870782073616E732D73 PUSH1 0x92 DUP3 ADD MSTORE PUSH15 0x32B934B31D903E9E17B9BA3CB6329F PUSH1 0x89 SHL PUSH1 0xB2 DUP3 ADD MSTORE PUSH1 0x0 DUP5 MLOAD PUSH2 0x41E2 DUP2 PUSH1 0xC1 DUP6 ADD PUSH1 0x20 DUP10 ADD PUSH2 0x3716 JUMP JUMPDEST DUP5 MLOAD SWAP1 DUP4 ADD SWAP1 PUSH2 0x41F9 DUP2 PUSH1 0xC1 DUP5 ADD PUSH1 0x20 DUP10 ADD PUSH2 0x3716 JUMP JUMPDEST PUSH2 0x4208 PUSH1 0xC1 DUP3 DUP5 ADD ADD DUP7 PUSH2 0x40B8 JUMP JUMPDEST SWAP2 POP POP PUSH2 0x421D DUP2 PUSH6 0x1E17B9BB339F PUSH1 0xD1 SHL SWAP1 MSTORE JUMP JUMPDEST PUSH1 0x6 ADD SWAP6 SWAP5 POP POP POP POP POP JUMP JUMPDEST PUSH32 0x7B226E616D65223A22556E697377617020563320506F736974696F6E222C0000 DUP2 MSTORE PUSH15 0x113232B9B1B934B83A34B7B7111D11 PUSH1 0x89 SHL PUSH1 0x1E DUP3 ADD MSTORE DUP3 MLOAD PUSH1 0x0 SWAP1 PUSH2 0x427A DUP2 PUSH1 0x2D DUP6 ADD PUSH1 0x20 DUP9 ADD PUSH2 0x3716 JUMP JUMPDEST PUSH2 0x88B PUSH1 0xF2 SHL PUSH1 0x2D SWAP2 DUP5 ADD SWAP2 DUP3 ADD MSTORE PUSH32 0x22696D616765223A22646174613A696D6167652F7376672B786D6C3B62617365 PUSH1 0x2F DUP3 ADD MSTORE PUSH3 0xD8D0B PUSH1 0xEA SHL PUSH1 0x4F DUP3 ADD MSTORE DUP4 MLOAD PUSH2 0x42CE DUP2 PUSH1 0x52 DUP5 ADD PUSH1 0x20 DUP9 ADD PUSH2 0x3716 JUMP JUMPDEST PUSH2 0x227D PUSH1 0xF0 SHL PUSH1 0x52 SWAP3 SWAP1 SWAP2 ADD SWAP2 DUP3 ADD MSTORE PUSH1 0x54 ADD SWAP5 SWAP4 POP POP POP POP JUMP JUMPDEST PUSH32 0x646174613A6170706C69636174696F6E2F6A736F6E3B6261736536342C000000 DUP2 MSTORE PUSH1 0x0 DUP3 MLOAD PUSH2 0x4321 DUP2 PUSH1 0x1D DUP6 ADD PUSH1 0x20 DUP8 ADD PUSH2 0x3716 JUMP JUMPDEST SWAP2 SWAP1 SWAP2 ADD PUSH1 0x1D ADD SWAP3 SWAP2 POP POP JUMP JUMPDEST PUSH1 0x0 PUSH1 0x1 PUSH1 0xFF SHL DUP3 ADD PUSH2 0x4343 JUMPI PUSH2 0x4343 PUSH2 0x3D99 JUMP JUMPDEST POP PUSH1 0x0 SUB SWAP1 JUMP JUMPDEST PUSH1 0x0 DUP2 PUSH1 0x2 SIGNEXTEND PUSH3 0x7FFFFF NOT DUP2 SUB PUSH2 0x4363 JUMPI PUSH2 0x4363 PUSH2 0x3D99 JUMP JUMPDEST PUSH1 0x0 SUB SWAP3 SWAP2 POP POP JUMP JUMPDEST DUP1 DUP3 MUL DUP2 ISZERO DUP3 DUP3 DIV DUP5 EQ OR PUSH2 0x61E JUMPI PUSH2 0x61E PUSH2 0x3D99 JUMP JUMPDEST PUSH4 0x4E487B71 PUSH1 0xE0 SHL PUSH1 0x0 MSTORE PUSH1 0x12 PUSH1 0x4 MSTORE PUSH1 0x24 PUSH1 0x0 REVERT JUMPDEST PUSH1 0x0 DUP3 PUSH2 0x43A8 JUMPI PUSH2 0x43A8 PUSH2 0x4383 JUMP JUMPDEST POP DIV SWAP1 JUMP JUMPDEST PUSH1 0x0 DUP3 PUSH2 0x43BC JUMPI PUSH2 0x43BC PUSH2 0x4383 JUMP JUMPDEST POP MOD SWAP1 JUMP JUMPDEST DUP1 DUP3 ADD DUP1 DUP3 GT ISZERO PUSH2 0x61E JUMPI PUSH2 0x61E PUSH2 0x3D99 JUMP JUMPDEST PUSH32 0x3C726563742077696474683D2233303022206865696768743D22343830222066 DUP2 MSTORE PUSH9 0xD2D8D87A44D0E6D85 PUSH1 0xBB SHL PUSH1 0x20 DUP3 ADD MSTORE PUSH1 0x0 DUP4 MLOAD PUSH2 0x441E DUP2 PUSH1 0x29 DUP6 ADD PUSH1 0x20 DUP9 ADD PUSH2 0x3716 JUMP JUMPDEST PUSH12 0x161A1812961A18129491179F PUSH1 0xA1 SHL PUSH1 0x29 SWAP2 DUP5 ADD SWAP2 DUP3 ADD MSTORE PUSH32 0x3C7265637420783D2233302220793D223330222077696474683D223234302220 PUSH1 0x35 DUP3 ADD MSTORE PUSH32 0x6865696768743D22343230222072783D223135222072793D223135222066696C PUSH1 0x55 DUP3 ADD MSTORE PUSH7 0xD87A44D0E6D85 PUSH1 0xCB SHL PUSH1 0x75 DUP3 ADD MSTORE DUP4 MLOAD PUSH2 0x44A6 DUP2 PUSH1 0x7C DUP5 ADD PUSH1 0x20 DUP9 ADD PUSH2 0x3716 JUMP JUMPDEST PUSH32 0x2C313030252C3530252922207374726F6B653D2223303030222F3E0000000000 PUSH1 0x7C SWAP3 SWAP1 SWAP2 ADD SWAP2 DUP3 ADD MSTORE PUSH1 0x97 ADD SWAP5 SWAP4 POP POP POP POP JUMP JUMPDEST PUSH32 0x3C7265637420783D2233302220793D223837222077696474683D223234302220 DUP2 MSTORE PUSH13 0x3432B4B3B43A1E911A1911179F PUSH1 0x99 SHL PUSH1 0x20 DUP3 ADD MSTORE PUSH32 0x3C7465787420783D2233392220793D223132302220636C6173733D22746F6B65 PUSH1 0x2D DUP3 ADD MSTORE PUSH16 0x373991103334B6361E9111B33333111F PUSH1 0x81 SHL PUSH1 0x4D DUP3 ADD MSTORE PUSH1 0x0 DUP5 MLOAD PUSH2 0x4569 DUP2 PUSH1 0x5D DUP6 ADD PUSH1 0x20 DUP10 ADD PUSH2 0x3716 JUMP JUMPDEST PUSH1 0x2F PUSH1 0xF8 SHL PUSH1 0x5D SWAP2 DUP5 ADD SWAP2 DUP3 ADD MSTORE DUP5 MLOAD PUSH2 0x458A DUP2 PUSH1 0x5E DUP5 ADD PUSH1 0x20 DUP10 ADD PUSH2 0x3716 JUMP JUMPDEST PUSH32 0x3C2F746578743E3C7265637420783D2233302220793D22313332222077696474 PUSH1 0x5E SWAP3 SWAP1 SWAP2 ADD SWAP2 DUP3 ADD MSTORE PUSH21 0x341E91191A1811103432B4B3B43A1E91199811179F PUSH1 0x59 SHL PUSH1 0x7E DUP3 ADD MSTORE PUSH32 0x3C7465787420783D2233392220793D22313230222064793D2233362220636C61 PUSH1 0x93 DUP3 ADD MSTORE PUSH21 0x39B99E913332B291103334B6361E9111B33333111F PUSH1 0x59 SHL PUSH1 0xB3 DUP3 ADD MSTORE PUSH2 0x4624 PUSH1 0xC8 DUP3 ADD DUP6 PUSH2 0x40B8 JUMP JUMPDEST PUSH7 0x1E17BA32BC3A1F PUSH1 0xC9 SHL DUP2 MSTORE PUSH1 0x7 ADD SWAP7 SWAP6 POP POP POP POP POP POP JUMP JUMPDEST PUSH32 0x3C7265637420783D2233302220793D22333432222077696474683D2232343022 DUP2 MSTORE PUSH1 0x0 PUSH14 0x103432B4B3B43A1E91191A11179F PUSH1 0x91 SHL DUP1 PUSH1 0x20 DUP5 ADD MSTORE PUSH32 0x3C7465787420783D2233392220793D223336302220636C6173733D227469636B PUSH1 0x2E DUP5 ADD MSTORE PUSH32 0x222066696C6C3D2223666666223E4C6F776572207469636B3A20000000000000 PUSH1 0x4E DUP5 ADD MSTORE DUP5 MLOAD PUSH2 0x46DA DUP2 PUSH1 0x68 DUP7 ADD PUSH1 0x20 DUP10 ADD PUSH2 0x3716 JUMP JUMPDEST DUP1 DUP5 ADD SWAP1 POP PUSH7 0x1E17BA32BC3A1F PUSH1 0xC9 SHL PUSH1 0x68 DUP3 ADD MSTORE PUSH32 0x3C7265637420783D2233302220793D22333732222077696474683D2232343022 PUSH1 0x6F DUP3 ADD MSTORE DUP2 PUSH1 0x8F DUP3 ADD MSTORE PUSH32 0x3C7465787420783D2233392220793D22333630222064793D2233302220636C61 PUSH1 0x9D DUP3 ADD MSTORE PUSH32 0x73733D227469636B222066696C6C3D2223666666223E5570706572207469636B PUSH1 0xBD DUP3 ADD MSTORE PUSH2 0x1D1 PUSH1 0xF5 SHL PUSH1 0xDD DUP3 ADD MSTORE PUSH2 0x477F PUSH1 0xDF DUP3 ADD DUP7 PUSH2 0x40B8 JUMP JUMPDEST SWAP2 POP POP PUSH2 0x4795 DUP2 PUSH7 0x1E17BA32BC3A1F PUSH1 0xC9 SHL SWAP1 MSTORE JUMP JUMPDEST PUSH1 0x7 ADD SWAP5 SWAP4 POP POP POP POP JUMP JUMPDEST PUSH1 0x0 DUP7 MLOAD PUSH2 0x47B2 DUP2 DUP5 PUSH1 0x20 DUP12 ADD PUSH2 0x3716 JUMP JUMPDEST PUSH1 0x2F PUSH1 0xF8 SHL SWAP1 DUP4 ADD SWAP1 DUP2 MSTORE DUP7 MLOAD PUSH2 0x47D0 DUP2 PUSH1 0x1 DUP5 ADD PUSH1 0x20 DUP12 ADD PUSH2 0x3716 JUMP JUMPDEST PUSH1 0x1 PUSH1 0xFD SHL PUSH1 0x1 SWAP3 SWAP1 SWAP2 ADD SWAP2 DUP3 ADD MSTORE DUP6 MLOAD PUSH2 0x47F2 DUP2 PUSH1 0x2 DUP5 ADD PUSH1 0x20 DUP11 ADD PUSH2 0x3716 JUMP JUMPDEST PUSH14 0x16102637BBB2B9103A34B1B59D1 PUSH1 0x95 SHL PUSH1 0x2 SWAP3 SWAP1 SWAP2 ADD SWAP2 DUP3 ADD MSTORE DUP5 MLOAD PUSH2 0x4821 DUP2 PUSH1 0x10 DUP5 ADD PUSH1 0x20 DUP10 ADD PUSH2 0x3716 JUMP JUMPDEST PUSH14 0x16102AB83832B9103A32BC3A1D1 PUSH1 0x95 SHL PUSH1 0x10 SWAP3 SWAP1 SWAP2 ADD SWAP2 DUP3 ADD MSTORE DUP4 MLOAD PUSH2 0x4850 DUP2 PUSH1 0x1E DUP5 ADD PUSH1 0x20 DUP9 ADD PUSH2 0x3716 JUMP JUMPDEST ADD PUSH1 0x1E ADD SWAP8 SWAP7 POP POP POP POP POP POP POP JUMP JUMPDEST PUSH1 0x1 PUSH1 0x1 PUSH1 0xA0 SHL SUB DUP3 DUP2 AND DUP3 DUP3 AND SUB SWAP1 DUP1 DUP3 GT ISZERO PUSH2 0x487F JUMPI PUSH2 0x487F PUSH2 0x3D99 JUMP JUMPDEST POP SWAP3 SWAP2 POP POP JUMP JUMPDEST PUSH1 0x0 DUP4 MLOAD PUSH2 0x4898 DUP2 DUP5 PUSH1 0x20 DUP9 ADD PUSH2 0x3716 JUMP JUMPDEST DUP4 MLOAD SWAP1 DUP4 ADD SWAP1 PUSH2 0x48AC DUP2 DUP4 PUSH1 0x20 DUP9 ADD PUSH2 0x3716 JUMP JUMPDEST ADD SWAP5 SWAP4 POP POP POP POP JUMP INVALID COINBASE TIMESTAMP NUMBER DIFFICULTY GASLIMIT CHAINID SELFBALANCE BASEFEE 0x49 0x4A 0x4B 0x4C 0x4D 0x4E 0x4F POP MLOAD MSTORE MSTORE8 SLOAD SSTORE JUMP JUMPI PC MSIZE GAS PUSH2 0x6263 PUSH5 0x6566676869 PUSH11 0x6B6C6D6E6F707172737475 PUSH23 0x7778797A303132333435363738392B2FA2646970667358 0x22 SLT KECCAK256 DIV 0xEC PUSH20 0x9CB366C4ED10F29672374BD3C0AF06FF8F55F168 0xB6 0x24 MSTORE 0xC1 0x2F JUMP 0xEC DUP9 0x1E PUSH5 0x736F6C6343 STOP ADDMOD EQ STOP CALLER ",
  "sha1": "56cff01b37ec22a5b814cd0d5e1f3b5755fb6041",
  "source": "// SPDX-License-Identifier: GPL-2.0-or-later\npragma solidity ^0.8.14;\n\nimport \"./PoolFactory.sol\";\nimport \"./ERC721.sol\";\nimport \"./HelpFunctions.sol\";\nimport \"../interface_contracts/IERC20.sol\";\nimport \"../interface_contracts/IUniswapV3Pool.sol\";\nimport \"./lib/LiquidityMath.sol\";\nimport \"./lib/NFTRenderer.sol\";\nimport \"./lib/TickMath.sol\";\n\ncontract NFT is ERC721 {\n    error WrongToken();\n    error PositionNotCleared();\n    error SlippageCheckFailed(uint256 amount0, uint256 amount1);\n    error TooLittleReceived(uint256 amountOut);\n\n    /*\n    Custom Errors\n    */\n    error NotAuthorized();\n    error NotEnoughLiquidity();\n\n    /*\n    Events\n    */\n    event AddLiquidity(\n        uint256 indexed tokenId,\n        uint128 liquidity,\n        uint256 amount0,\n        uint256 amount1\n    );\n\n    event RemoveLiquidity(\n        uint256 indexed tokenId,\n        uint128 liquidity,\n        uint256 amount0,\n        uint256 amount1\n    );\n\n    /*\n    Structs\n    */\n    struct AddLiquidityInternalParams {\n        IUniswapV3Pool pool;\n        int24 lowerTick;\n        int24 upperTick;\n        uint256 amount0Desired;\n        uint256 amount1Desired;\n        uint256 amount0Min;\n        uint256 amount1Min;\n    }\n\n    struct TokenPosition {\n        address pool;\n        int24 lowerTick;\n        int24 upperTick;\n    }\n    /*\n    Variables\n    */\n    uint256 public totalSupply;\n    uint256 private nextTokenId;\n\n    address public immutable factory;\n    PoolFactory poolfactory;\n\n    /*\n    Mappings\n    */\n    mapping(uint256 => TokenPosition) public positions;\n    mapping(address => uint256[]) public userOwnedPositions;\n    mapping(uint256 => bool) public burnedIds;\n\n    /*\n    Modifiers\n    */\n    modifier isApprovedOrOwner(uint256 tokenId) {\n        address owner = ownerOf(tokenId);\n        if (\n            msg.sender != owner &&\n            !isApprovedForAll[owner][msg.sender] &&\n            getApproved[tokenId] != msg.sender\n        ) revert NotAuthorized();\n\n        _;\n    }\n\n    /*\n    Constructor\n    */\n    constructor(address factoryAddress) ERC721(\"NFT Positions\", \"PosNFT\") {\n        factory = factoryAddress;\n        poolfactory = PoolFactory(factory);\n    }\n\n    /*\n    Public \n    */\n    /// @notice Used for setting new positions. Mints an NFT connected to the created position\n    /// An array with the following parameters:\n    ///             recipient: the user who is minting the new position\n    ///             tokenA: first token in the pool where the position is being minted\n    ///             tokenB: second token in the pool where the position is being minted\n    ///             fee: fee of the pool where the position is being minted\n    ///             lowerTick: lower tick of the position being minted\n    ///             upperTick: upper tick of the position being minted\n    ///             amount0Desired:amount of first token we want to add to the position as liquidity\n    ///             amount1Desired:amount of second token we want to add to the position as liquidity\n    ///             amount0Min: min amount of first token we want to add to the position as liquidity\n    ///             amount1Min: min amount of second token we want to add to the position as liquidity\n    function mint(address recipient,\n                address tokenA,\n                address tokenB,\n                uint24 fee,\n        int24 lowerTick,\n        int24 upperTick,\n        uint256 amount0Desired,\n        uint256 amount1Desired,\n        uint256 amount0Min,\n        uint256 amount1Min) public returns (uint256 tokenId) {\n        IUniswapV3Pool pool = IUniswapV3Pool(poolfactory.pools(\n            tokenA,\n            tokenB,\n            fee\n        )); \n \n        (uint128 liquidity, uint256 amount0, uint256 amount1) = _addLiquidity(\n            AddLiquidityInternalParams({\n                pool: pool,\n                lowerTick: lowerTick,\n                upperTick: upperTick,\n                amount0Desired: amount0Desired,\n                amount1Desired: amount1Desired,\n                amount0Min: amount0Min,\n                amount1Min: amount1Min\n            })\n        );\n        \n        tokenId = nextTokenId++;\n\n        _mint(recipient, tokenId);\n        totalSupply++;\n\n        TokenPosition memory tokenPosition = TokenPosition({\n            pool: address(pool),\n            lowerTick: lowerTick,\n            upperTick: upperTick\n        });\n\n        positions[tokenId] = tokenPosition;\n        userOwnedPositions[msg.sender].push(tokenId);\n\n        emit AddLiquidity(tokenId, liquidity, amount0, amount1);\n    }\n\n    /// @notice Burns an NFT related to a liquidity position\n    /// @param tokenId The id of the NFT we wish to burn\n    /// @dev This method will fail if called before the user removes all liquidity from the corresponding positions\n    ///      and collects the corresponding tokens\n    function burn(uint256 tokenId) public isApprovedOrOwner(tokenId) {\n        TokenPosition memory tokenPosition = positions[tokenId];\n        if (tokenPosition.pool == address(0x00))\n            revert HelpFunctions.WrongToken();\n\n        IUniswapV3Pool pool = IUniswapV3Pool(tokenPosition.pool);\n        (uint128 liquidity, , , uint128 tokensOwed0, uint128 tokensOwed1) = pool\n            .positions(_poolPositionKey(tokenPosition));\n\n        if (liquidity > 0 || tokensOwed0 > 0 || tokensOwed1 > 0)\n            revert HelpFunctions.PositionNotCleared();\n\n        delete positions[tokenId];\n        burnedIds[tokenId] = true;\n        _burn(tokenId);\n        totalSupply--;\n    }\n\n    /// @notice collects the tokens relative to a cleared (or partially cleared) position.\n    /// @param tokenId: the token Id of the position we wish to collect\n    /// @dev Can only be called after the user has removed some liquidity from the position\n    function collect(\n        uint256 tokenId\n    )\n        public\n        isApprovedOrOwner(tokenId)\n        returns (uint128 amount0, uint128 amount1)\n    {\n        TokenPosition memory tokenPosition = positions[tokenId];\n        if (tokenPosition.pool == address(0x00))\n            revert HelpFunctions.WrongToken();\n\n        IUniswapV3Pool pool = IUniswapV3Pool(tokenPosition.pool);\n\n        (, , , uint128 tokensOwed0, uint128 tokensOwed1) = pool.positions(\n            _poolPositionKey(tokenPosition)\n        );\n\n        (amount0, amount1) = pool.collect(\n            msg.sender,\n            tokenPosition.lowerTick,\n            tokenPosition.upperTick,\n            tokensOwed0,\n            tokensOwed1\n        );\n    }\n\n    /// @notice adds liquidity to an existing position.\n    /// An array with the following parameters:\n    ///             tokenId: the token Id of the position we wish to add liquidity too\n    ///             amount0Desired: amount of token 0 we want to add\n    ///             amount1Desired: amount of token 1 we want to add\n    ///             amount0Min: min amount of token 0 we want to add\n    ///             amount1Min: min amount of token 1 we want to add\n    /// @dev does not mint a new NFT. It only updates the position info\n    function addLiquidity(\n        uint256 tokenId,\n        uint256 amount0Desired,\n        uint256 amount1Desired,\n        uint256 amount0Min,\n        uint256 amount1Min\n    ) public returns (uint128 liquidity, uint256 amount0, uint256 amount1) {\n        TokenPosition memory tokenPosition = positions[tokenId];\n\n        if (tokenPosition.pool == address(0x00))\n            revert HelpFunctions.WrongToken();\n\n        (liquidity, amount0, amount1) = _addLiquidity(\n            AddLiquidityInternalParams({\n                pool: IUniswapV3Pool(tokenPosition.pool),\n                lowerTick: tokenPosition.lowerTick,\n                upperTick: tokenPosition.upperTick,\n                amount0Desired: amount0Desired,\n                amount1Desired: amount1Desired,\n                amount0Min: amount0Min,\n                amount1Min: amount1Min\n            })\n        );\n\n        emit AddLiquidity(tokenId, liquidity, amount0, amount1);\n    }\n\n    /// @notice removes liquidity from an existing position.\n    /// An array with the following parameters:\n    ///             tokenId: the token Id of the position we wish to remove liquidity from\n    ///             liquidity: the liquidity amount we wish to remove\n    /// @dev does not burn the NFT and does not return the tokens to the user (use collect for that).\n    ///     It only updates the position info\n    function removeLiquidity(\n        uint256 tokenId,\n        uint128 liquidity\n    )\n        public\n        isApprovedOrOwner(tokenId)\n        returns (uint256 amount0, uint256 amount1)\n    {\n        TokenPosition memory tokenPosition = positions[tokenId];\n\n        if (tokenPosition.pool == address(0x00))\n            revert HelpFunctions.WrongToken();\n\n        IUniswapV3Pool pool = IUniswapV3Pool(tokenPosition.pool);\n\n        (uint128 availableLiquidity, , , , ) = pool.positions(\n            _poolPositionKey(tokenPosition)\n        );\n        if (liquidity > availableLiquidity) revert NotEnoughLiquidity();\n\n        (amount0, amount1) = pool.burn(\n            tokenPosition.lowerTick,\n            tokenPosition.upperTick,\n            liquidity\n        );\n\n        emit RemoveLiquidity(\n            tokenId,\n            liquidity,\n            amount0,\n            amount1\n        );\n    }\n\n    /// @notice help function to transfer the tokens.\n    function uniswapV3MintCallback(\n        uint256 amount0,\n        uint256 amount1,\n        bytes calldata data\n    ) public {\n        IUniswapV3Pool.CallbackData memory extra = abi.decode(\n            data,\n            (IUniswapV3Pool.CallbackData)\n        );\n        IERC20(extra.token0).transferFrom(extra.payer, msg.sender, amount0);\n        IERC20(extra.token1).transferFrom(extra.payer, msg.sender, amount1);\n    }\n\n    /*\n    Public - View\n     */\n\n    /// @notice Returns a list of all Liquidity Token IDs assigned to an address.\n    /// @param _owner The owner whose nfts we are interested in.\n    /// @dev This method MUST NEVER be called by smart contract code. First, it's fairly\n    ///  expensive (it walks the entire token array looking for tokens belonging to owner),\n    ///  but it also returns a dynamic array, which is only supported for web3 calls, and\n    ///  not contract-to-contract calls.\n    function tokensOfOwner(\n        address _owner\n    ) public view returns (uint256[] memory ownerTokens) {\n        uint256 tokenCount = balanceOf(_owner);\n\n        if (tokenCount == 0) {\n            // Return an empty array\n            return new uint256[](0);\n        } else {\n            uint256[] memory result = new uint256[](tokenCount);\n            uint256 totalTokens = nextTokenId;\n            uint256 resultIndex = 0;\n\n            // We count on the fact that all tokens have IDs starting at 0 and increasing\n            // sequentially up to the totalTokens count.\n            uint256 tokenId;\n\n            while (resultIndex < totalTokens && tokenId < totalTokens) {\n                if (burnedIds[tokenId] != true) {\n                    if (ownerOf(tokenId) == _owner) {\n                        result[resultIndex] = tokenId;\n                        resultIndex++;\n                    }\n                }\n                tokenId++;\n            }\n\n            return result;\n        }\n    }\n\n    /// @notice receives a tokenId and returns all the information regarding that tokens position.\n    /// @param tokenId: the token Id\n    function tokenIDtoPosition(\n        uint256 tokenId\n    ) public view returns (address, uint128, uint128, uint128, int24, int24) {\n        TokenPosition memory tokenPosition = positions[tokenId];\n        if (tokenPosition.pool == address(0x00))\n            revert HelpFunctions.WrongToken();\n\n        IUniswapV3Pool pool = IUniswapV3Pool(tokenPosition.pool);\n        (uint128 liquidity, , , uint128 tokensOwed0, uint128 tokensOwed1) = pool\n            .positions(_poolPositionKey(tokenPosition));\n        return (\n            tokenPosition.pool,\n            liquidity,\n            tokensOwed0,\n            tokensOwed1,\n            tokenPosition.lowerTick,\n            tokenPosition.upperTick\n        );\n    }\n\n    /// @notice Gets a positions owed fees\n    /// @param tokenId The id of the NFT we wish to know the owed fees\n    function _getFees(\n        uint256 tokenId\n    )\n        public\n        view\n        returns (uint256 updatedTokensOwed0, uint256 updatedTokensOwed1)\n    {\n        TokenPosition memory tokenPosition = positions[tokenId];\n        if (tokenPosition.pool == address(0x00))\n            revert HelpFunctions.WrongToken();\n\n        IUniswapV3Pool pool = IUniswapV3Pool(tokenPosition.pool);\n\n        (updatedTokensOwed0, updatedTokensOwed1) = pool.getFees(\n            tokenPosition.lowerTick,\n            tokenPosition.upperTick,\n            address(this)\n        );\n    }\n\n    /// @notice receives an user address and returns all the information regarding all the token positions he has.\n    /// @param user: address of an user\n    function userToAllPositionsOne(\n        address user\n    )\n        public\n        view\n        returns (\n            uint256[] memory,\n            address[] memory,\n            uint128[] memory,\n            int24[] memory,\n            int24[] memory\n        )\n    {\n        uint256[] memory _tokensOfOwner = tokensOfOwner(user);\n        address[] memory poolAdresses = new address[](_tokensOfOwner.length);\n        uint128[] memory liquidities = new uint128[](_tokensOfOwner.length);\n\n        int24[] memory lowerTicks = new int24[](_tokensOfOwner.length);\n        int24[] memory upperTicks = new int24[](_tokensOfOwner.length);\n\n        for (uint i = 0; i < _tokensOfOwner.length; ++i) {\n            TokenPosition memory tokenPosition = positions[_tokensOfOwner[i]];\n            if (tokenPosition.pool == address(0x00))\n                revert HelpFunctions.WrongToken();\n\n            IUniswapV3Pool pool = IUniswapV3Pool(tokenPosition.pool);\n            (\n                uint128 liquidity,\n                ,\n                ,\n                ,\n                \n            ) = pool.positions(_poolPositionKey(tokenPosition));\n\n            poolAdresses[i] = tokenPosition.pool;\n            liquidities[i] = liquidity;\n            lowerTicks[i] = tokenPosition.lowerTick;\n            upperTicks[i] = tokenPosition.upperTick;\n        }\n        return (\n            _tokensOfOwner,\n            poolAdresses,\n            liquidities,\n            lowerTicks,\n            upperTicks\n        );\n    }\n\n    /// @notice receives an user address and returns atokens owed to the user\n    /// @param user: address of an user\n    function userToAllPositionsTwo(\n        address user\n    )\n        public\n        view\n        returns (\n            uint256[] memory,\n            int256[] memory,\n            int256[] memory,\n            uint128[] memory,\n            uint128[] memory\n        )\n    {\n        uint256[] memory _tokensOfOwner = tokensOfOwner(user);\n        int256[] memory _amount0 = new int256[](_tokensOfOwner.length);\n        int256[] memory _amount1 = new int256[](_tokensOfOwner.length);\n        uint128[] memory _tokensOwed0 = new uint128[](_tokensOfOwner.length);\n        uint128[] memory _tokensOwed1 = new uint128[](_tokensOfOwner.length);\n\n        for (uint i = 0; i < _tokensOfOwner.length; ++i) {\n            \n            TokenPosition memory tokenPosition = positions[_tokensOfOwner[i]];\n\n            if (tokenPosition.pool == address(0x00))\n                revert HelpFunctions.WrongToken();\n\n            IUniswapV3Pool pool = IUniswapV3Pool(tokenPosition.pool);\n\n            (uint128 liquidity,\n                ,\n                ,\n                uint128 tokensOwed0,\n                uint128 tokensOwed1\n            ) = pool.positions(_poolPositionKey(tokenPosition));\n\n            (int256 amount0, int256 amount1) = pool.getPosTokenBalances(tokenPosition.lowerTick, \n                                                                        tokenPosition.upperTick, \n                                                                        int128(liquidity));\n            _amount0[i] = amount0;\n            _amount1[i] = amount1;\n            _tokensOwed0[i] = tokensOwed0;\n            _tokensOwed1[i] = tokensOwed1;\n        }\n        return (\n            _tokensOfOwner,\n            _amount0,\n            _amount1,\n            _tokensOwed0,\n            _tokensOwed1\n        );\n    }\n\n    /// @notice receives an user address and returns all the fees regarding all the token positions he has.\n    /// @param user: address of an user\n    function userToAllPositionsFees(\n        address user\n    ) public view returns (uint256[] memory, uint256[] memory, uint256[] memory) {\n        uint256[] memory _tokensOfOwner = tokensOfOwner(user);\n\n        uint256[] memory _updatedTokensOwed0 = new uint256[](\n            _tokensOfOwner.length\n        );\n        uint256[] memory _updatedTokensOwed1 = new uint256[](\n            _tokensOfOwner.length\n        );\n\n        for (uint i = 0; i < _tokensOfOwner.length; ++i) {\n            (uint256 updatedTokensOwed0, uint256 updatedTokensOwed1) = _getFees(\n                _tokensOfOwner[i]\n            );\n            _updatedTokensOwed0[i] = updatedTokensOwed0;\n            _updatedTokensOwed1[i] = updatedTokensOwed1;\n        }\n        return (_tokensOfOwner, _updatedTokensOwed0, _updatedTokensOwed1);\n    }\n\n    /// @notice returns the URI of the image of an NFT token.\n    /// @param tokenId: the token Id\n    function tokenURI(\n        uint256 tokenId\n    ) public view override returns (string memory) {\n        TokenPosition memory tokenPosition = positions[tokenId];\n\n        if (tokenPosition.pool == address(0x00))\n            revert HelpFunctions.WrongToken();\n\n        IUniswapV3Pool pool = IUniswapV3Pool(tokenPosition.pool);\n\n        IERC20 token0 = IERC20(pool.token0());\n        IERC20 token1 = IERC20(pool.token1());\n\n        string memory symbol0 = token0.symbol();\n        string memory symbol1 = token1.symbol();\n\n        return\n            NFTRenderer.render(\n                NFTRenderer.RenderParams({\n                    symbol0: symbol0,\n                    symbol1: symbol1,\n                    owner: address(this),\n                    lowerTick: tokenPosition.lowerTick,\n                    upperTick: tokenPosition.upperTick,\n                    fee: pool.fee()\n                })\n            );\n    }\n\n    /*\n    Internal\n    */\n    /// @notice returns position ID within a pool\n    /// @param position: an array with the following parameters:\n    ///             pool: the token Id\n    ///             lowerTick: the token Id\n    ///             upperTick: the token Id\n    function _poolPositionKey(\n        TokenPosition memory position\n    ) internal view returns (bytes32 key) {\n        key = keccak256(\n            abi.encodePacked(\n                address(this),\n                position.lowerTick,\n                position.upperTick\n            )\n        );\n    }\n\n    /// @notice help function to add liquidity anytime we mint or add liquidity to an existing position\n    function _addLiquidity(\n        AddLiquidityInternalParams memory params\n    ) internal returns (uint128 liquidity, uint256 amount0, uint256 amount1) {\n        \n        (uint160 sqrtPriceX96, , , , ) = params.pool.slot0();\n\n        liquidity = LiquidityMath.getLiquidityForAmounts(\n            sqrtPriceX96,\n            TickMath.getSqrtRatioAtTick(params.lowerTick),\n            TickMath.getSqrtRatioAtTick(params.upperTick),\n            params.amount0Desired,\n            params.amount1Desired\n        );\n        \n        (amount0, amount1) = params.pool.mint(\n            address(this),\n            params.lowerTick,\n            params.upperTick,\n            liquidity,\n            abi.encode(\n                IUniswapV3Pool.CallbackData({\n                    token0: params.pool.token0(),\n                    token1: params.pool.token1(),\n                    payer: msg.sender\n                })\n            )\n        );\n\n        if (amount0 < params.amount0Min || amount1 < params.amount1Min)\n            revert HelpFunctions.SlippageCheckFailed(amount0, amount1);\n    }\n}\n",
  "sourcePath": "contracts/NFT.sol",
  "type": "contract"
}