{
    "abi": [
        {
            "inputs": [],
            "stateMutability": "nonpayable",
            "type": "constructor"
        },
        {
            "inputs": [],
            "name": "AlreadyInitialized",
            "type": "error"
        },
        {
            "inputs": [],
            "name": "FlashLoanNotPaid",
            "type": "error"
        },
        {
            "inputs": [],
            "name": "InsufficientInputAmount",
            "type": "error"
        },
        {
            "inputs": [],
            "name": "InvalidPriceLimit",
            "type": "error"
        },
        {
            "inputs": [],
            "name": "InvalidTickRange",
            "type": "error"
        },
        {
            "inputs": [],
            "name": "NotEnoughLiquidity",
            "type": "error"
        },
        {
            "inputs": [
                {
                    "internalType": "uint256",
                    "name": "prod1",
                    "type": "uint256"
                },
                {
                    "internalType": "uint256",
                    "name": "denominator",
                    "type": "uint256"
                }
            ],
            "name": "PRBMath__MulDivOverflow",
            "type": "error"
        },
        {
            "inputs": [],
            "name": "ZeroLiquidity",
            "type": "error"
        },
        {
            "anonymous": false,
            "inputs": [
                {
                    "indexed": true,
                    "internalType": "address",
                    "name": "owner",
                    "type": "address"
                },
                {
                    "indexed": true,
                    "internalType": "int24",
                    "name": "tickLower",
                    "type": "int24"
                },
                {
                    "indexed": true,
                    "internalType": "int24",
                    "name": "tickUpper",
                    "type": "int24"
                },
                {
                    "indexed": false,
                    "internalType": "uint128",
                    "name": "amount",
                    "type": "uint128"
                },
                {
                    "indexed": false,
                    "internalType": "uint256",
                    "name": "amount0",
                    "type": "uint256"
                },
                {
                    "indexed": false,
                    "internalType": "uint256",
                    "name": "amount1",
                    "type": "uint256"
                }
            ],
            "name": "Burn",
            "type": "event"
        },
        {
            "anonymous": false,
            "inputs": [
                {
                    "indexed": true,
                    "internalType": "address",
                    "name": "owner",
                    "type": "address"
                },
                {
                    "indexed": false,
                    "internalType": "address",
                    "name": "recipient",
                    "type": "address"
                },
                {
                    "indexed": true,
                    "internalType": "int24",
                    "name": "tickLower",
                    "type": "int24"
                },
                {
                    "indexed": true,
                    "internalType": "int24",
                    "name": "tickUpper",
                    "type": "int24"
                },
                {
                    "indexed": false,
                    "internalType": "uint256",
                    "name": "amount0",
                    "type": "uint256"
                },
                {
                    "indexed": false,
                    "internalType": "uint256",
                    "name": "amount1",
                    "type": "uint256"
                }
            ],
            "name": "Collect",
            "type": "event"
        },
        {
            "anonymous": false,
            "inputs": [
                {
                    "indexed": true,
                    "internalType": "address",
                    "name": "recipient",
                    "type": "address"
                },
                {
                    "indexed": false,
                    "internalType": "uint256",
                    "name": "amount0",
                    "type": "uint256"
                },
                {
                    "indexed": false,
                    "internalType": "uint256",
                    "name": "amount1",
                    "type": "uint256"
                }
            ],
            "name": "Flash",
            "type": "event"
        },
        {
            "anonymous": false,
            "inputs": [
                {
                    "indexed": false,
                    "internalType": "uint16",
                    "name": "observationCardinalityNextOld",
                    "type": "uint16"
                },
                {
                    "indexed": false,
                    "internalType": "uint16",
                    "name": "observationCardinalityNextNew",
                    "type": "uint16"
                }
            ],
            "name": "IncreaseObservationCardinalityNext",
            "type": "event"
        },
        {
            "anonymous": false,
            "inputs": [
                {
                    "indexed": false,
                    "internalType": "address",
                    "name": "sender",
                    "type": "address"
                },
                {
                    "indexed": true,
                    "internalType": "address",
                    "name": "owner",
                    "type": "address"
                },
                {
                    "indexed": true,
                    "internalType": "int24",
                    "name": "tickLower",
                    "type": "int24"
                },
                {
                    "indexed": true,
                    "internalType": "int24",
                    "name": "tickUpper",
                    "type": "int24"
                },
                {
                    "indexed": false,
                    "internalType": "uint128",
                    "name": "amount",
                    "type": "uint128"
                },
                {
                    "indexed": false,
                    "internalType": "uint256",
                    "name": "amount0",
                    "type": "uint256"
                },
                {
                    "indexed": false,
                    "internalType": "uint256",
                    "name": "amount1",
                    "type": "uint256"
                }
            ],
            "name": "Mint",
            "type": "event"
        },
        {
            "anonymous": false,
            "inputs": [
                {
                    "indexed": true,
                    "internalType": "address",
                    "name": "sender",
                    "type": "address"
                },
                {
                    "indexed": true,
                    "internalType": "address",
                    "name": "recipient",
                    "type": "address"
                },
                {
                    "indexed": false,
                    "internalType": "int256",
                    "name": "amount0",
                    "type": "int256"
                },
                {
                    "indexed": false,
                    "internalType": "int256",
                    "name": "amount1",
                    "type": "int256"
                },
                {
                    "indexed": false,
                    "internalType": "uint160",
                    "name": "sqrtPriceX96",
                    "type": "uint160"
                },
                {
                    "indexed": false,
                    "internalType": "uint128",
                    "name": "liquidity",
                    "type": "uint128"
                },
                {
                    "indexed": false,
                    "internalType": "int24",
                    "name": "tick",
                    "type": "int24"
                }
            ],
            "name": "Swap",
            "type": "event"
        },
        {
            "inputs": [
                {
                    "internalType": "int24",
                    "name": "lowerTick",
                    "type": "int24"
                },
                {
                    "internalType": "int24",
                    "name": "upperTick",
                    "type": "int24"
                },
                {
                    "internalType": "uint128",
                    "name": "amount",
                    "type": "uint128"
                }
            ],
            "name": "burn",
            "outputs": [
                {
                    "internalType": "uint256",
                    "name": "amount0",
                    "type": "uint256"
                },
                {
                    "internalType": "uint256",
                    "name": "amount1",
                    "type": "uint256"
                }
            ],
            "stateMutability": "nonpayable",
            "type": "function"
        },
        {
            "inputs": [
                {
                    "internalType": "address",
                    "name": "recipient",
                    "type": "address"
                },
                {
                    "internalType": "int24",
                    "name": "lowerTick",
                    "type": "int24"
                },
                {
                    "internalType": "int24",
                    "name": "upperTick",
                    "type": "int24"
                },
                {
                    "internalType": "uint128",
                    "name": "amount0Requested",
                    "type": "uint128"
                },
                {
                    "internalType": "uint128",
                    "name": "amount1Requested",
                    "type": "uint128"
                }
            ],
            "name": "collect",
            "outputs": [
                {
                    "internalType": "uint128",
                    "name": "amount0",
                    "type": "uint128"
                },
                {
                    "internalType": "uint128",
                    "name": "amount1",
                    "type": "uint128"
                }
            ],
            "stateMutability": "nonpayable",
            "type": "function"
        },
        {
            "inputs": [],
            "name": "factory",
            "outputs": [
                {
                    "internalType": "address",
                    "name": "",
                    "type": "address"
                }
            ],
            "stateMutability": "view",
            "type": "function"
        },
        {
            "inputs": [],
            "name": "fee",
            "outputs": [
                {
                    "internalType": "uint24",
                    "name": "",
                    "type": "uint24"
                }
            ],
            "stateMutability": "view",
            "type": "function"
        },
        {
            "inputs": [],
            "name": "feeGrowthGlobal0X128",
            "outputs": [
                {
                    "internalType": "uint256",
                    "name": "",
                    "type": "uint256"
                }
            ],
            "stateMutability": "view",
            "type": "function"
        },
        {
            "inputs": [],
            "name": "feeGrowthGlobal1X128",
            "outputs": [
                {
                    "internalType": "uint256",
                    "name": "",
                    "type": "uint256"
                }
            ],
            "stateMutability": "view",
            "type": "function"
        },
        {
            "inputs": [
                {
                    "internalType": "uint256",
                    "name": "amount0",
                    "type": "uint256"
                },
                {
                    "internalType": "uint256",
                    "name": "amount1",
                    "type": "uint256"
                },
                {
                    "internalType": "bytes",
                    "name": "data",
                    "type": "bytes"
                }
            ],
            "name": "flash",
            "outputs": [],
            "stateMutability": "nonpayable",
            "type": "function"
        },
        {
            "inputs": [
                {
                    "internalType": "int24",
                    "name": "lowerTick",
                    "type": "int24"
                },
                {
                    "internalType": "int24",
                    "name": "upperTick",
                    "type": "int24"
                },
                {
                    "internalType": "address",
                    "name": "owner",
                    "type": "address"
                }
            ],
            "name": "getFees",
            "outputs": [
                {
                    "internalType": "uint256",
                    "name": "updatedTokensOwed0",
                    "type": "uint256"
                },
                {
                    "internalType": "uint256",
                    "name": "updatedTokensOwed1",
                    "type": "uint256"
                }
            ],
            "stateMutability": "view",
            "type": "function"
        },
        {
            "inputs": [
                {
                    "internalType": "uint16",
                    "name": "observationCardinalityNext",
                    "type": "uint16"
                }
            ],
            "name": "increaseObservationCardinalityNext",
            "outputs": [],
            "stateMutability": "nonpayable",
            "type": "function"
        },
        {
            "inputs": [
                {
                    "internalType": "uint256",
                    "name": "price",
                    "type": "uint256"
                }
            ],
            "name": "initialize",
            "outputs": [],
            "stateMutability": "nonpayable",
            "type": "function"
        },
        {
            "inputs": [],
            "name": "liquidity",
            "outputs": [
                {
                    "internalType": "uint128",
                    "name": "",
                    "type": "uint128"
                }
            ],
            "stateMutability": "view",
            "type": "function"
        },
        {
            "inputs": [
                {
                    "internalType": "address",
                    "name": "owner",
                    "type": "address"
                },
                {
                    "internalType": "int24",
                    "name": "lowerTick",
                    "type": "int24"
                },
                {
                    "internalType": "int24",
                    "name": "upperTick",
                    "type": "int24"
                },
                {
                    "internalType": "uint128",
                    "name": "amount",
                    "type": "uint128"
                },
                {
                    "internalType": "bytes",
                    "name": "data",
                    "type": "bytes"
                }
            ],
            "name": "mint",
            "outputs": [
                {
                    "internalType": "uint256",
                    "name": "amount0",
                    "type": "uint256"
                },
                {
                    "internalType": "uint256",
                    "name": "amount1",
                    "type": "uint256"
                }
            ],
            "stateMutability": "nonpayable",
            "type": "function"
        },
        {
            "inputs": [
                {
                    "internalType": "uint256",
                    "name": "",
                    "type": "uint256"
                }
            ],
            "name": "observations",
            "outputs": [
                {
                    "internalType": "uint32",
                    "name": "timestamp",
                    "type": "uint32"
                },
                {
                    "internalType": "int56",
                    "name": "tickCumulative",
                    "type": "int56"
                },
                {
                    "internalType": "bool",
                    "name": "initialized",
                    "type": "bool"
                }
            ],
            "stateMutability": "view",
            "type": "function"
        },
        {
            "inputs": [
                {
                    "internalType": "uint32[]",
                    "name": "secondsAgos",
                    "type": "uint32[]"
                }
            ],
            "name": "observe",
            "outputs": [
                {
                    "internalType": "int56[]",
                    "name": "tickCumulatives",
                    "type": "int56[]"
                }
            ],
            "stateMutability": "view",
            "type": "function"
        },
        {
            "inputs": [
                {
                    "internalType": "bytes32",
                    "name": "",
                    "type": "bytes32"
                }
            ],
            "name": "positions",
            "outputs": [
                {
                    "internalType": "uint128",
                    "name": "liquidity",
                    "type": "uint128"
                },
                {
                    "internalType": "uint256",
                    "name": "feeGrowthInside0LastX128",
                    "type": "uint256"
                },
                {
                    "internalType": "uint256",
                    "name": "feeGrowthInside1LastX128",
                    "type": "uint256"
                },
                {
                    "internalType": "uint128",
                    "name": "tokensOwed0",
                    "type": "uint128"
                },
                {
                    "internalType": "uint128",
                    "name": "tokensOwed1",
                    "type": "uint128"
                }
            ],
            "stateMutability": "view",
            "type": "function"
        },
        {
            "inputs": [],
            "name": "slot0",
            "outputs": [
                {
                    "internalType": "uint160",
                    "name": "sqrtPriceX96",
                    "type": "uint160"
                },
                {
                    "internalType": "int24",
                    "name": "tick",
                    "type": "int24"
                },
                {
                    "internalType": "uint16",
                    "name": "observationIndex",
                    "type": "uint16"
                },
                {
                    "internalType": "uint16",
                    "name": "observationCardinality",
                    "type": "uint16"
                },
                {
                    "internalType": "uint16",
                    "name": "observationCardinalityNext",
                    "type": "uint16"
                }
            ],
            "stateMutability": "view",
            "type": "function"
        },
        {
            "inputs": [
                {
                    "internalType": "address",
                    "name": "recipient",
                    "type": "address"
                },
                {
                    "internalType": "bool",
                    "name": "zeroForOne",
                    "type": "bool"
                },
                {
                    "internalType": "uint256",
                    "name": "amountSpecified",
                    "type": "uint256"
                },
                {
                    "internalType": "uint160",
                    "name": "sqrtPriceLimitX96",
                    "type": "uint160"
                },
                {
                    "internalType": "bytes",
                    "name": "data",
                    "type": "bytes"
                }
            ],
            "name": "swap",
            "outputs": [
                {
                    "internalType": "int256",
                    "name": "amount0",
                    "type": "int256"
                },
                {
                    "internalType": "int256",
                    "name": "amount1",
                    "type": "int256"
                }
            ],
            "stateMutability": "nonpayable",
            "type": "function"
        },
        {
            "inputs": [
                {
                    "internalType": "int16",
                    "name": "",
                    "type": "int16"
                }
            ],
            "name": "tickBitmap",
            "outputs": [
                {
                    "internalType": "uint256",
                    "name": "",
                    "type": "uint256"
                }
            ],
            "stateMutability": "view",
            "type": "function"
        },
        {
            "inputs": [],
            "name": "tickSpacing",
            "outputs": [
                {
                    "internalType": "uint24",
                    "name": "",
                    "type": "uint24"
                }
            ],
            "stateMutability": "view",
            "type": "function"
        },
        {
            "inputs": [
                {
                    "internalType": "int24",
                    "name": "",
                    "type": "int24"
                }
            ],
            "name": "ticks",
            "outputs": [
                {
                    "internalType": "bool",
                    "name": "initialized",
                    "type": "bool"
                },
                {
                    "internalType": "uint128",
                    "name": "liquidityGross",
                    "type": "uint128"
                },
                {
                    "internalType": "int128",
                    "name": "liquidityNet",
                    "type": "int128"
                },
                {
                    "internalType": "uint256",
                    "name": "feeGrowthOutside0X128",
                    "type": "uint256"
                },
                {
                    "internalType": "uint256",
                    "name": "feeGrowthOutside1X128",
                    "type": "uint256"
                }
            ],
            "stateMutability": "view",
            "type": "function"
        },
        {
            "inputs": [],
            "name": "token0",
            "outputs": [
                {
                    "internalType": "address",
                    "name": "",
                    "type": "address"
                }
            ],
            "stateMutability": "view",
            "type": "function"
        },
        {
            "inputs": [],
            "name": "token1",
            "outputs": [
                {
                    "internalType": "address",
                    "name": "",
                    "type": "address"
                }
            ],
            "stateMutability": "view",
            "type": "function"
        }
    ],
    "bytecode": "6101206040523480156200001257600080fd5b50336001600160a01b031663890357306040518163ffffffff1660e01b815260040160a0604051808303816000875af115801562000054573d6000803e3d6000fd5b505050506040513d601f19601f820116820180604052508101906200007a9190620000d8565b62ffffff908116610100521660e0526001600160a01b0390811660c05290811660a0521660805262000148565b80516001600160a01b0381168114620000bf57600080fd5b919050565b805162ffffff81168114620000bf57600080fd5b600080600080600060a08688031215620000f157600080fd5b620000fc86620000a7565b94506200010c60208701620000a7565b93506200011c60408701620000a7565b92506200012c60608701620000c4565b91506200013c60808701620000c4565b90509295509295909350565b60805160a05160c05160e051610100516149456200020b60003960008181610491015281816108610152818161089801526114c301526000818161041c0152818161141d01528181611dab0152611de30152600081816104570152818161097801528181610a9001528181610c2401528181610eca0152818161183a0152611ff601526000818161014c015281816108e801528181610a0901528181610b7101528181610dd3015281816119700152611f63015260006103f501526149456000f3fe608060405234801561001057600080fd5b50600436106101425760003560e01c80636a234ae9116100b8578063d21220a71161007c578063d21220a714610452578063dd5a12d814610479578063ddca3f431461048c578063f3058399146104b3578063f30dba93146104bc578063fe4b84df1461054557600080fd5b80636a234ae9146103aa578063883bdbfd146103bd578063a34123a7146103dd578063c45a0155146103f0578063d0c93a7c1461041757600080fd5b80633c8a7d8d1161010a5780633c8a7d8d1461028457806346141319146102ac5780634a182392146102c35780634f1eb3d8146102d6578063514ea4bf146103095780635339c2961461038a57600080fd5b80630dfe1681146101475780631a6865021461018b578063252c09d7146101b657806332148f67146101f05780633850c7bd14610205575b600080fd5b61016e7f000000000000000000000000000000000000000000000000000000000000000081565b6040516001600160a01b0390911681526020015b60405180910390f35b60035461019e906001600160801b031681565b6040516001600160801b039091168152602001610182565b6101c96101c436600461401e565b610558565b6040805163ffffffff909416845260069290920b6020840152151590820152606001610182565b6102036101fe366004614037565b61058c565b005b60028054610246916001600160a01b03821691600160a01b810490910b9061ffff600160b81b8204811691600160c81b8104821691600160d81b9091041685565b604080516001600160a01b03909616865260029490940b602086015261ffff928316938501939093528116606084015216608082015260a001610182565b6102976102923660046140e5565b61061c565b60408051928352602083019190915201610182565b6102b560015481565b604051908152602001610182565b6102036102d136600461416d565b610859565b6102e96102e43660046141c0565b610cfd565b604080516001600160801b03938416815292909116602083015201610182565b61035461031736600461401e565b60066020526000908152604090208054600182015460028301546003909301546001600160801b0392831693919281811691600160801b90041685565b604080516001600160801b039687168152602081019590955284019290925283166060830152909116608082015260a001610182565b6102b5610398366004614227565b60056020526000908152604090205481565b6102976103b836600461424a565b610fd1565b6103d06103cb366004614291565b61108d565b6040516101829190614306565b6102976103eb36600461434d565b6110fd565b61016e7f000000000000000000000000000000000000000000000000000000000000000081565b61043e7f000000000000000000000000000000000000000000000000000000000000000081565b60405162ffffff9091168152602001610182565b61016e7f000000000000000000000000000000000000000000000000000000000000000081565b610297610487366004614390565b611238565b61043e7f000000000000000000000000000000000000000000000000000000000000000081565b6102b560005481565b61050a6104ca3660046143e0565b600460205260009081526040902080546001820154600283015460039093015460ff8316936101009093046001600160801b031692600f9290920b919085565b6040805195151586526001600160801b039094166020860152600f9290920b928401929092526060830191909152608082015260a001610182565b61020361055336600461401e565b611b1e565b60078161ffff811061056957600080fd5b015463ffffffff81169150600160201b810460060b90600160581b900460ff1683565b600254600160d81b900461ffff1660006105a860078385611c4d565b90508161ffff168161ffff1614610617576002805461ffff60d81b1916600160d81b61ffff8481169182029290921790925560408051918516825260208201929092527fac49e518f90a358f652e4400164f05a5d8f7e35e7747279bc3a93dbf584e125a910160405180910390a15b505050565b6000808560020b8760020b12158061063b5750620d89e719600288900b125b80610657575061064e620d89e719614411565b60020b8660020b135b15610674576040516264847d60e41b815260040160405180910390fd5b846001600160801b031660000361069e57604051630200e8a960e31b815260040160405180910390fd5b6000806106dc60405180608001604052808c6001600160a01b031681526020018b60020b81526020018a60020b815260200189600f0b815250611cc7565b925092505081935080925060008060008611156106fe576106fb611f4b565b91505b841561070f5761070c611fde565b90505b60405163d348799760e01b8152339063d34879979061073890899089908d908d9060040161445c565b600060405180830381600087803b15801561075257600080fd5b505af1158015610766573d6000803e3d6000fd5b50505050600086118015610789575061077d611f4b565b610787878461447c565b115b156107a75760405163098fb56160e01b815260040160405180910390fd5b6000851180156107c657506107ba611fde565b6107c4868361447c565b115b156107e45760405163098fb56160e01b815260040160405180910390fd5b604080513381526001600160801b038b1660208201529081018790526060810186905260028b810b91908d900b906001600160a01b038f16907f7a53080ba414158be7ec69b987b5fb7d07dee101fe85488f0853ae16239d0bde9060800160405180910390a450505050965096945050505050565b600061088e857f000000000000000000000000000000000000000000000000000000000000000062ffffff16620f424061202d565b905060006108c5857f000000000000000000000000000000000000000000000000000000000000000062ffffff16620f424061202d565b6040516370a0823160e01b81523060048201529091506000906001600160a01b037f000000000000000000000000000000000000000000000000000000000000000016906370a08231906024016020604051808303816000875af1158015610931573d6000803e3d6000fd5b505050506040513d601f19601f82011682018060405250810190610955919061448f565b6040516370a0823160e01b81523060048201529091506000906001600160a01b037f000000000000000000000000000000000000000000000000000000000000000016906370a08231906024016020604051808303816000875af11580156109c1573d6000803e3d6000fd5b505050506040513d601f19601f820116820180604052508101906109e5919061448f565b90508715610a6e5760405163a9059cbb60e01b8152336004820152602481018990527f00000000000000000000000000000000000000000000000000000000000000006001600160a01b03169063a9059cbb90604401600060405180830381600087803b158015610a5557600080fd5b505af1158015610a69573d6000803e3d6000fd5b505050505b8615610af55760405163a9059cbb60e01b8152336004820152602481018890527f00000000000000000000000000000000000000000000000000000000000000006001600160a01b03169063a9059cbb90604401600060405180830381600087803b158015610adc57600080fd5b505af1158015610af0573d6000803e3d6000fd5b505050505b604051630e9cbafb60e41b8152339063e9cbafb090610b1e90879087908b908b9060040161445c565b600060405180830381600087803b158015610b3857600080fd5b505af1158015610b4c573d6000803e3d6000fd5b505050508382610b5c919061447c565b6040516370a0823160e01b81523060048201527f00000000000000000000000000000000000000000000000000000000000000006001600160a01b0316906370a08231906024016020604051808303816000875af1158015610bc2573d6000803e3d6000fd5b505050506040513d601f19601f82011682018060405250810190610be6919061448f565b1015610c0557604051637bc35e0560e01b815260040160405180910390fd5b610c0f838261447c565b6040516370a0823160e01b81523060048201527f00000000000000000000000000000000000000000000000000000000000000006001600160a01b0316906370a08231906024016020604051808303816000875af1158015610c75573d6000803e3d6000fd5b505050506040513d601f19601f82011682018060405250810190610c99919061448f565b1015610cb857604051637bc35e0560e01b815260040160405180910390fd5b604080518981526020810189905233917f1c1db1f1d6a01e51fec24bb54087b65fe5430f692280e70d92f718eb72ae76b7910160405180910390a25050505050505050565b60008080610d0e6006338989612076565b60038101549091506001600160801b0390811690861611610d2f5784610d3e565b60038101546001600160801b03165b60038201549093506001600160801b03600160801b909104811690851611610d665783610d7c565b6003810154600160801b90046001600160801b03165b91506001600160801b03831615610e6f57600381018054849190600090610dad9084906001600160801b03166144a8565b92506101000a8154816001600160801b0302191690836001600160801b031602179055507f00000000000000000000000000000000000000000000000000000000000000006001600160a01b031663a9059cbb89856040518363ffffffff1660e01b8152600401610e3c9291906001600160a01b039290921682526001600160801b0316602082015260400190565b600060405180830381600087803b158015610e5657600080fd5b505af1158015610e6a573d6000803e3d6000fd5b505050505b6001600160801b03821615610f6657818160030160108282829054906101000a90046001600160801b0316610ea491906144a8565b92506101000a8154816001600160801b0302191690836001600160801b031602179055507f00000000000000000000000000000000000000000000000000000000000000006001600160a01b031663a9059cbb89846040518363ffffffff1660e01b8152600401610f339291906001600160a01b039290921682526001600160801b0316602082015260400190565b600060405180830381600087803b158015610f4d57600080fd5b505af1158015610f61573d6000803e3d6000fd5b505050505b604080516001600160a01b038a1681526001600160801b0385811660208301528416818301529051600288810b92908a900b9133917fa89c1c8a741251492622c95237828c75d1dbb03ea956f09e3792ff2a14f4fe62919081900360600190a4509550959350505050565b6040805160a081018252600280546001600160a01b0381168352600160a01b810490910b602083015261ffff600160b81b8204811693830193909352600160c81b810483166060830152600160d81b900490911660808201526000805460015491928392909190836110466006888b8b612076565b905060008061106b8b8b8860200151888860046120d39095949392919063ffffffff16565b909250905061107b8383836121bd565b909c909b509950505050505050505050565b60606110f4428484808060200260200160405190810160405280939291908181526020018383602002808284376000920191909152505060028054600795949350600160a01b810490910b915061ffff600160b81b8204811691600160c81b9004166122af565b90505b92915050565b60008060008060006111486040518060800160405280336001600160a01b031681526020018a60020b81526020018960020b81526020018861113e906144cf565b600f0b9052611cc7565b92509250925081611158906144f5565b9450611163816144f5565b935060008511806111745750600084115b156111d65760038301546111929086906001600160801b0316614511565b60038401546111b2908690600160801b90046001600160801b0316614511565b6001600160801b039182169116600160801b026001600160801b0319161760038401555b604080516001600160801b038816815260208101879052908101859052600288810b91908a900b9033907f0c396cd989a39f4459b5fa1aed6a9a8dcdbc45908acfd67e028cd568da98982c9060600160405180910390a4505050935093915050565b6040805160a081018252600280546001600160a01b0381168352600160a01b810490910b602083015261ffff600160b81b8204811693830193909352600160c81b810483166060830152600160d81b9004909116608082015260035460009182916001600160801b0316886112ec5781600001516001600160a01b0316876001600160a01b031610806112e7575073fffd8963efd1fc6a506488495d951d5263988d266001600160a01b038816115b61131d565b81600001516001600160a01b0316876001600160a01b0316118061131d57506401000276a36001600160a01b038816105b1561133b57604051632d4eeeb360e21b815260040160405180910390fd5b60006040518060c001604052808a81526020016000815260200184600001516001600160a01b03168152602001846020015160020b81526020018b61138257600154611386565b6000545b8152602001836001600160801b031681525090505b8051158015906113c15750876001600160a01b031681604001516001600160a01b031614155b156116a6576040805160e081018252600080825260208201819052918101829052606081018290526080810182905260a0810182905260c081019190915260408201516001600160a01b031681526060820151611442906005907f00000000000000000000000000000000000000000000000000000000000000008e61236e565b5060020b602082018190526114569061252b565b6001600160a01b0316606082015260408201516114e7908c611490578a6001600160a01b031683606001516001600160a01b0316116114aa565b8a6001600160a01b031683606001516001600160a01b0316105b6114b85782606001516114ba565b8a5b60a085015185517f0000000000000000000000000000000000000000000000000000000000000000612951565b60c0850190815260a0850191909152608084019182526001600160a01b0390921660408501529051905161151b919061447c565b8251839061152a908390614531565b90525060a081015160208301805161154390839061447c565b90525060a08201516001600160801b03161561158e576115798160c00151600160801b8460a001516001600160801b0316612a84565b8260800181815161158a919061447c565b9052505b80606001516001600160a01b031682604001516001600160a01b0316036116695760006115e982602001518d6115c6576000546115cc565b84608001515b8e6115db5785608001516115df565b6001545b6004929190612b51565b90508b156115fd576115fa816144cf565b90505b61160b8360a0015182612b9e565b6001600160801b031660a0840181905260000361163b57604051634323a55560e01b815260040160405180910390fd5b8b61164a57816020015161165b565b6001826020015161165b9190614544565b60020b6060840152506116a0565b80600001516001600160a01b031682604001516001600160a01b0316146116a0576116978260400151612bcf565b60020b60608301525b5061139b565b826020015160020b816060015160020b14611764576000806116e885604001516116cd4290565b6020880151606089015160808a015160079493929190612f09565b604085015160608601516002805463ffffffff60b81b1916600160c81b61ffff9586160261ffff60b81b191617600160b81b9590941694909402929092176001600160b81b031916600160a01b62ffffff909316929092026001600160a01b031916919091176001600160a01b03909116179055506117899050565b6040810151600280546001600160a01b0319166001600160a01b039092169190911790555b8060a001516001600160801b0316826001600160801b0316146117cb5760a0810151600380546001600160801b0319166001600160801b039092169190911790555b89156117de5760808101516000556117e7565b60808101516001555b8961180b5780602001516117fa906144f5565b8151611806908b614531565b611825565b8051611817908a614531565b8160200151611825906144f5565b90955093508915611966576001600160a01b037f00000000000000000000000000000000000000000000000000000000000000001663a9059cbb8c611869876144f5565b6040516001600160e01b031960e085901b1681526001600160a01b0390921660048301526024820152604401600060405180830381600087803b1580156118af57600080fd5b505af11580156118c3573d6000803e3d6000fd5b5050505060006118d1611f4b565b60405163fa461e3360e01b8152909150339063fa461e33906118fd90899089908d908d9060040161445c565b600060405180830381600087803b15801561191757600080fd5b505af115801561192b573d6000803e3d6000fd5b50505050611937611f4b565b611941878361447c565b11156119605760405163098fb56160e01b815260040160405180910390fd5b50611a98565b6001600160a01b037f00000000000000000000000000000000000000000000000000000000000000001663a9059cbb8c61199f886144f5565b6040516001600160e01b031960e085901b1681526001600160a01b0390921660048301526024820152604401600060405180830381600087803b1580156119e557600080fd5b505af11580156119f9573d6000803e3d6000fd5b505050506000611a07611fde565b60405163fa461e3360e01b8152909150339063fa461e3390611a3390899089908d908d9060040161445c565b600060405180830381600087803b158015611a4d57600080fd5b505af1158015611a61573d6000803e3d6000fd5b50505050611a6d611fde565b611a77868361447c565b1115611a965760405163098fb56160e01b815260040160405180910390fd5b505b6002805460a083810151604080518a8152602081018a90526001600160a01b03808616828401526001600160801b039093166060820152600160a01b90940490940b60808401529251928e169233927fc42079f94a6350d7e6235f29174924f928cc2ac818eb64fed8004e115fbcca6792908290030190a3505050965096945050505050565b6002546001600160a01b031615611b475760405162dc149f60e41b815260040160405180910390fd5b6000611b528261304e565b90506000611b5f82612bcf565b9050600080611bb1426007906040805160608101825263ffffffff929092168083526000602084015260019290910182905282546bffffffffffffffffffffffff191617600160581b17909155908190565b6040805160a0810182526001600160a01b0397909716808852600287810b60208a015260009289019290925261ffff9384166060890181905292909316608090970187905280546001600160b81b031916909217600160a01b62ffffff909616959095029490941765ffffffffffff60b81b1916600160c81b90940261ffff60d81b191693909317600160d81b90940293909317909155505050565b60008261ffff168261ffff1611611c65575081611cc0565b825b8261ffff168161ffff161015611cbb576001858261ffff1661ffff8110611c9057611c90614569565b01805463ffffffff191663ffffffff9290921691909117905580611cb38161457f565b915050611c67565b508190505b9392505050565b6040805160a081018252600280546001600160a01b0381168352600160a01b810490910b60208084019190915261ffff600160b81b8304811684860152600160c81b830481166060850152600160d81b909204909116608083015260008054600154865193870151958701519295869586959094611d489260069291612076565b6020808901519085015160608a0151929850600092611d6e92600492909187878761307b565b6040890151602086015160608b0151929350600092611d959260049290918888600161307b565b90508115611dcf576020890151611dcf906005907f0000000000000000000000000000000000000000000000000000000000000000613182565b8015611e07576040890151611e07906005907f0000000000000000000000000000000000000000000000000000000000000000613182565b6020808a015160408b0151918701516000928392611e2a92600492908a8a6120d3565b60608d01519193509150611e41908b908484613218565b8a6020015160020b876020015160020b1215611e8557611e7e611e678c6020015161252b565b611e748d6040015161252b565b8d6060015161334d565b9850611f3d565b8a6040015160020b876020015160020b1215611f1357611eb08760000151611e748d6040015161252b565b9850611ece611ec28c6020015161252b565b885160608e0151613389565b60035460608d0151919950611eee916001600160801b0390911690612b9e565b600380546001600160801b0319166001600160801b0392909216919091179055611f3d565b611f3a611f238c6020015161252b565b611f308d6040015161252b565b8d60600151613389565b97505b505050505050509193909250565b6040516370a0823160e01b81523060048201526000907f00000000000000000000000000000000000000000000000000000000000000006001600160a01b0316906370a08231906024015b6020604051808303816000875af1158015611fb5573d6000803e3d6000fd5b505050506040513d601f19601f82011682018060405250810190611fd9919061448f565b905090565b6040516370a0823160e01b81523060048201526000907f00000000000000000000000000000000000000000000000000000000000000006001600160a01b0316906370a0823190602401611f96565b600061203a848484612a84565b90506000828061204c5761204c6145a0565b8486091115611cc057600019811061206357600080fd5b8061206d816145b6565b95945050505050565b6040805160609490941b6bffffffffffffffffffffffff191660208086019190915260e893841b60348601529190921b60378401528151601a818503018152603a9093018252825192810192909220600090815292909152902090565b600285810b60008181526020899052604080822088850b83529082209193849391929184918291908a900b1261211457505060028201546003830154612138565b60028401546121239089614531565b91508360030154876121359190614531565b90505b6000808b60020b8b60020b121561215a5750506002830154600384015461217e565b6002850154612169908b614531565b915084600301548961217b9190614531565b90505b81612189858c614531565b6121939190614531565b9750806121a0848b614531565b6121aa9190614531565b9650505050505050965096945050505050565b60008060006121ea8660010154866121d59190614531565b87546001600160801b0316600160801b612a84565b905060006122168760020154866122019190614531565b88546001600160801b0316600160801b612a84565b90506000826001600160801b0316118061223957506000816001600160801b0316115b1561228c5760038701546122579083906001600160801b0316614511565b60038801546001600160801b03918216955061227c918391600160801b900416614511565b6001600160801b031692506122a5565b816001600160801b03169350806001600160801b031692505b5050935093915050565b6060845167ffffffffffffffff8111156122cb576122cb6145cf565b6040519080825280602002602001820160405280156122f4578160200160208202803683370190505b50905060005b85518110156123635761232a888888848151811061231a5761231a614569565b60200260200101518888886133b7565b82828151811061233c5761233c614569565b602002602001019060060b908160060b81525050808061235b906145b6565b9150506122fa565b509695505050505050565b6000808061237c85876145e5565b905060008660020b12801561239c5750612396858761461f565b60020b15155b156123af57806123ab81614641565b9150505b831561245c576000806123c18361352b565b90925090506000600160ff831681901b906123dc9082614531565b6123e6919061447c565b600184900b600090815260208c905260409020548116801515965090915085612426578861241760ff851687614544565b6124219190614664565b612451565b8861243082613548565b61243a9085614684565b6124479060ff1687614544565b6124519190614664565b965050505050612521565b60008061247261246d84600161469d565b61352b565b9092509050600061248a600160ff841681901b614531565b600184900b600090815260208c9052604090205490199081168015159650909150856124e357886124bc8460ff614684565b60ff166124ca87600161469d565b6124d4919061469d565b6124de9190614664565b61251a565b88836124ee8361363a565b6124f89190614684565b60ff1661250687600161469d565b612510919061469d565b61251a9190614664565b9650505050505b5094509492505050565b60008060008360020b12612542578260020b61254f565b8260020b61254f906144f5565b905061255e620d89e719614411565b62ffffff1681111561259b5760405162461bcd60e51b81526020600482015260016024820152601560fa1b60448201526064015b60405180910390fd5b6000816001166000036125b257600160801b6125c4565b6ffffcb933bd6fad37aa2d162d1a5940015b70ffffffffffffffffffffffffffffffffff16905060028216156126035760806125fe826ffff97272373d413259a46990580e213a6146c2565b901c90505b600482161561262d576080612628826ffff2e50f5f656932ef12357cf3c7fdcc6146c2565b901c90505b6008821615612657576080612652826fffe5caca7e10e4e61c3624eaa0941cd06146c2565b901c90505b601082161561268157608061267c826fffcb9843d60f6159c9db58835c9266446146c2565b901c90505b60208216156126ab5760806126a6826fff973b41fa98c081472e6896dfb254c06146c2565b901c90505b60408216156126d55760806126d0826fff2ea16466c96a3843ec78b326b528616146c2565b901c90505b60808216156126ff5760806126fa826ffe5dee046a99a2a811c461f1969c30536146c2565b901c90505b61010082161561272a576080612725826ffcbe86c7900a88aedcffc83b479aa3a46146c2565b901c90505b610200821615612755576080612750826ff987a7253ac413176f2b074cf7815e546146c2565b901c90505b61040082161561278057608061277b826ff3392b0822b70005940c7a398e4b70f36146c2565b901c90505b6108008216156127ab5760806127a6826fe7159475a2c29b7443b29c7fa6e889d96146c2565b901c90505b6110008216156127d65760806127d1826fd097f3bdfd2022b8845ad8f792aa58256146c2565b901c90505b6120008216156128015760806127fc826fa9f746462d870fdf8a65dc1f90e061e56146c2565b901c90505b61400082161561282c576080612827826f70d869a156d2a1b890bb3df62baf32f76146c2565b901c90505b618000821615612857576080612852826f31be135f97d08fd981231505542fcfa66146c2565b901c90505b6201000082161561288357608061287e826f09aa508b5b7a84e1c677de54f3e99bc96146c2565b901c90505b620200008216156128ae5760806128a9826e5d6af8dedb81196699c329225ee6046146c2565b901c90505b620400008216156128d85760806128d3826d2216e584f5fa1ea926041bedfe986146c2565b901c90505b620800008216156129005760806128fb826b048a170391f7dc42444e8fa26146c2565b901c90505b60008460020b131561291b57612918816000196146d9565b90505b612929600160201b826146ed565b15612935576001612938565b60005b6129499060ff16602083901c61447c565b949350505050565b60008080806001600160a01b03808916908a161015816129868861297889620f4240614701565b62ffffff16620f4240612a84565b90508161299f5761299a8b8b8b6001613765565b6129ac565b6129ac8b8b8b60016137e6565b94508481106129bd578995506129cc565b6129c98b8a83856138b2565b95505b6001600160a01b03868116908b16148215612a1057806129f8576129f38c888c60016137e6565b6129fa565b855b9550612a098c888c6000613765565b9450612a3b565b80612a2757612a228c888c6001613765565b612a29565b855b9550612a388c888c60006137e6565b94505b80612a5157612a4a868a614531565b9350612a75565b612a728662ffffff8a16612a688b620f4240614701565b62ffffff1661202d565b93505b50505095509550955095915050565b6000808060001985870985870292508281108382030391505080600003612abe57838281612ab457612ab46145a0565b0492505050611cc0565b838110612ae857604051631dcf306360e21b81526004810182905260248101859052604401612592565b60008486880960026001871981018816978890046003810283188082028403028082028403028082028403028082028403028082028403029081029092039091026000889003889004909101858311909403939093029303949094049190911702949350505050565b600283810b600090815260208690526040812091820154909190612b759085614531565b60028201556003810154612b899084614531565b600382015560010154600f0b95945050505050565b60008082600f0b1215612bc557612bb4826144cf565b612bbe90846144a8565b90506110f7565b6110f48284614511565b60006401000276a36001600160a01b03831610801590612c0b575073fffd8963efd1fc6a506488495d951d5263988d266001600160a01b038316105b612c3b5760405162461bcd60e51b81526020600482015260016024820152602960f91b6044820152606401612592565b640100000000600160c01b03602083901b166001600160801b03811160071b81811c67ffffffffffffffff811160061b90811c63ffffffff811160051b90811c61ffff811160041b90811c60ff8111600390811b91821c600f811160021b90811c918211600190811b92831c97908811961790941790921717909117171760808110612cd657612ccc607f82614531565b83901c9150612ce7565b612ce181607f614531565b83901b91505b60006040612cf660808461471d565b901b9050828302607f1c92508260801c80603f1b8217915083811c935050828302607f1c92508260801c80603e1b8217915083811c935050828302607f1c92508260801c80603d1b8217915083811c935050828302607f1c92508260801c80603c1b8217915083811c935050828302607f1c92508260801c80603b1b8217915083811c935050828302607f1c92508260801c80603a1b8217915083811c935050828302607f1c92508260801c8060391b8217915083811c935050828302607f1c92508260801c8060381b8217915083811c935050828302607f1c92508260801c8060371b8217915083811c935050828302607f1c92508260801c8060361b8217915083811c935050828302607f1c92508260801c8060351b8217915083811c935050828302607f1c92508260801c8060341b8217915083811c935050828302607f1c92508260801c8060331b8217915083811c935050828302607f1c92508260801c8060321b8217915050600081693627a301d71055774c85612e79919061473d565b905060006080612e996f028f6481ab7f045a5af012a19d003aaa8461471d565b901d905060006080612ebb846fdb2df09e81959a81455e260799a0632f61476d565b901d90508060020b8260020b14612efa57886001600160a01b0316612edf8261252b565b6001600160a01b03161115612ef45781612efc565b80612efc565b815b9998505050505050505050565b6000806000888861ffff1661ffff8110612f2557612f25614569565b60408051606081018252919092015463ffffffff808216808452600160201b830460060b6020850152600160581b90920460ff161515938301939093529092509088169003612f7a5787859250925050613043565b8461ffff168461ffff16118015612fa25750612f97600186614795565b61ffff168861ffff16145b15612faf57839150612fb3565b8491505b81612fbf8960016147b0565b612fc991906147cb565b9250612fd68188886138d4565b898461ffff1661ffff8110612fed57612fed614569565b82519101805460208401516040909401511515600160581b0260ff60581b1966ffffffffffffff909516600160201b026affffffffffffffffffffff1990921663ffffffff909416939093171792909216179055505b965096945050505050565b600061305c60406060614684565b60ff1661306c604084901b613953565b600f0b901b600f0b9050919050565b600286900b6000908152602088905260408120805461010090046001600160801b0316826130a98289612b9e565b6001600160801b03808216159084168015919091141595509091506000036130f3578860020b8a60020b136130e75760028301879055600383018690555b825460ff191660011783555b825470ffffffffffffffffffffffffffffffff0019166101006001600160801b038316021783558461313a57600183015461313590600f8a810b91900b61476d565b613150565b600183015461315090600f8a810b91900b61471d565b60019390930180546001600160801b0319166001600160801b0390941693909317909255509098975050505050505050565b61318c818361461f565b60020b156131dc5760405162461bcd60e51b815260206004820152601c60248201527f5469636b206973206e6f7420636f72726563746c7920737061636564000000006044820152606401612592565b6000806131ec61246d84866145e5565b600191820b60009081526020979097526040909620805460ff9097169190911b90951890945550505050565b600061324285600101548461322d9190614531565b86546001600160801b0316600160801b612a84565b905060006132598660020154846121d59190614531565b8654909150613271906001600160801b031686612b9e565b86546001600160801b0319166001600160801b03918216178755600187018590556002870184905582161515806132b157506000816001600160801b0316115b15613345576003860180548391906000906132d69084906001600160801b0316614511565b92506101000a8154816001600160801b0302191690836001600160801b03160217905550808660030160108282829054906101000a90046001600160801b03166133209190614511565b92506101000a8154816001600160801b0302191690836001600160801b031602179055505b505050505050565b60008082600f0b1261336b5761336684848460016137e6565b612949565b6133808484613379856144cf565b60006137e6565b612949906144f5565b60008082600f0b126133a2576133668484846001613765565b61338084846133b0856144cf565b6000613765565b60008463ffffffff16600003613441576000878461ffff1661ffff81106133e0576133e0614569565b60408051606081018252919092015463ffffffff808216808452600160201b830460060b6020850152600160581b90920460ff1615159383019390935290925090881614613436576134338188876138d4565b90505b602001519050613521565b600061344d86886147ec565b90506000806134608a8a858a8a8a613975565b91509150816000015163ffffffff168363ffffffff160361348957506020015191506135219050565b806000015163ffffffff168363ffffffff16036134ae57602001519250613521915050565b815181516000916134be916147ec565b63ffffffff16905060008360000151856134d891906147ec565b63ffffffff1690508082856020015185602001516134f69190614809565b6135009190614836565b61350a919061486b565b8460200151613519919061488b565b955050505050505b9695505050505050565b600281900b60081d60006135416101008461461f565b9050915091565b600080821161355657600080fd5b600160801b821061357457608091821c9161357190826148b8565b90505b600160401b821061359257604091821c9161358f90826148b8565b90505b600160201b82106135b057602091821c916135ad90826148b8565b90505b6201000082106135cd57601091821c916135ca90826148b8565b90505b61010082106135e957600891821c916135e690826148b8565b90505b6010821061360457600491821c9161360190826148b8565b90505b6004821061361f57600291821c9161361c90826148b8565b90505b60028210613635576136326001826148b8565b90505b919050565b600080821161364857600080fd5b5060ff6001600160801b0382161561366c57613665608082614684565b9050613674565b608082901c91505b67ffffffffffffffff8216156136965761368f604082614684565b905061369e565b604082901c91505b63ffffffff8216156136bc576136b5602082614684565b90506136c4565b602082901c91505b61ffff8216156136e0576136d9601082614684565b90506136e8565b601082901c91505b60ff821615613703576136fc600882614684565b905061370b565b600882901c91505b600f8216156137265761371f600482614684565b905061372e565b600482901c91505b600382161561374957613742600282614684565b9050613751565b600282901c91505b600182161561363557613632600182614684565b6000836001600160a01b0316856001600160a01b03161115613785579293925b81156137bc576137b56001600160801b0384166137a287876148d1565b6001600160a01b0316600160601b61202d565b9050612949565b61206d6001600160801b0384166137d387876148d1565b6001600160a01b0316600160601b612a84565b6000836001600160a01b0316856001600160a01b03161115613806579293925b6000856001600160a01b03161161381c57600080fd5b600160601b600160e01b03606084901b16600061383987876148d1565b6001600160a01b03169050831561387d576138766138618383896001600160a01b031661202d565b886001600160a01b0316808204910615150190565b92506138a8565b866001600160a01b031661389b8383896001600160a01b0316612a84565b6138a591906146d9565b92505b5050949350505050565b6000816138c9576138c4858585613b3d565b61206d565b61206d858585613b6a565b6040805160608101825260008082526020820181905291810191909152835160009061390090856147ec565b63ffffffff16905060405180606001604052808563ffffffff168152602001828560020b61392e919061486b565b876020015161393d919061488b565b60060b8152600160209091015295945050505050565b60008082600f0b121561396557600080fd5b613632604083600f0b901b613c0e565b60408051606081018252600080825260208201819052918101919091526040805160608101825260008082526020820181905291810191909152878461ffff1661ffff81106139c6576139c6614569565b60408051606081018252919092015463ffffffff8116808352600160201b820460060b6020840152600160581b90910460ff161515928201929092529250613a1090889088613d7e565b15613a3b57815163ffffffff8781169116146130435781613a328388886138d4565b91509150613043565b8783613a488660016147b0565b613a5291906147cb565b61ffff1661ffff8110613a6757613a67614569565b60408051606081018252919092015463ffffffff81168252600160201b810460060b6020830152600160581b900460ff1615159181018290529250613ae05760408051606081018252895463ffffffff81168252600160201b810460060b6020830152600160581b900460ff1615159181019190915291505b613aef87836000015188613d7e565b613b215760405162461bcd60e51b815260206004820152600360248201526213d31160ea1b6044820152606401612592565b613b2e8888888787613e4d565b91509150965096945050505050565b6000613b5782600160601b856001600160801b0316612a84565b612949906001600160a01b03861661447c565b6000600160601b600160e01b03606084901b1681613b916001600160a01b038716856146c2565b90506001600160a01b038616613ba785836146d9565b03613be1576000613bb8828461447c565b9050828110613bdf57613bd583886001600160a01b03168361202d565b9350505050611cc0565b505b6135218285613bf96001600160a01b038a16836146d9565b613c03919061447c565b808204910615150190565b600081600003613c2057506000919050565b816001600160801b8210613c395760809190911c9060401b5b600160401b8210613c4f5760409190911c9060201b5b600160201b8210613c655760209190911c9060101b5b620100008210613c7a5760109190911c9060081b5b6101008210613c8e5760089190911c9060041b5b60108210613ca15760049190911c9060021b5b60048210613cad5760011b5b6001818581613cbe57613cbe6145a0565b048201901c90506001818581613cd657613cd66145a0565b048201901c90506001818581613cee57613cee6145a0565b048201901c90506001818581613d0657613d066145a0565b048201901c90506001818581613d1e57613d1e6145a0565b048201901c90506001818581613d3657613d366145a0565b048201901c90506001818581613d4e57613d4e6145a0565b048201901c90506000818581613d6657613d666145a0565b049050808210613d76578061206d565b509392505050565b60008363ffffffff168363ffffffff1611158015613da857508363ffffffff168263ffffffff1611155b15613dc4578163ffffffff168363ffffffff1611159050611cc0565b60008463ffffffff168463ffffffff1611613df257613ded63ffffffff8516600160201b6148f1565b613dfa565b8363ffffffff165b64ffffffffff16905060008563ffffffff168463ffffffff1611613e3157613e2c63ffffffff8516600160201b6148f1565b613e39565b8363ffffffff165b64ffffffffff169091111595945050505050565b604080516060808201835260008083526020808401829052838501829052845192830185528183528201819052928101839052909183613e8e8660016147b0565b613e9891906147cb565b61ffff169050600060018561ffff1683613eb2919061447c565b613ebc9190614531565b905060005b6002613ecd838561447c565b613ed791906146d9565b905089613ee861ffff8816836146ed565b61ffff8110613ef957613ef9614569565b60408051606081018252919092015463ffffffff81168252600160201b810460060b6020830152600160581b900460ff1615159181018290529550613f4a57613f4381600161447c565b9250613ec1565b8961ffff8716613f5b83600161447c565b613f6591906146ed565b61ffff8110613f7657613f76614569565b60408051606081018252929091015463ffffffff81168352600160201b810460060b602084015260ff600160581b909104161515908201528551909450600090613fc2908b908b613d7e565b9050808015613fdb5750613fdb8a8a8760000151613d7e565b15613fe65750614011565b80613ffd57613ff6600183614531565b925061400b565b61400882600161447c565b93505b50613ec1565b5050509550959350505050565b60006020828403121561403057600080fd5b5035919050565b60006020828403121561404957600080fd5b813561ffff81168114611cc057600080fd5b6001600160a01b038116811461407057600080fd5b50565b8035600281900b811461363557600080fd5b80356001600160801b038116811461363557600080fd5b60008083601f8401126140ae57600080fd5b50813567ffffffffffffffff8111156140c657600080fd5b6020830191508360208285010111156140de57600080fd5b9250929050565b60008060008060008060a087890312156140fe57600080fd5b86356141098161405b565b955061411760208801614073565b945061412560408801614073565b935061413360608801614085565b9250608087013567ffffffffffffffff81111561414f57600080fd5b61415b89828a0161409c565b979a9699509497509295939492505050565b6000806000806060858703121561418357600080fd5b8435935060208501359250604085013567ffffffffffffffff8111156141a857600080fd5b6141b48782880161409c565b95989497509550505050565b600080600080600060a086880312156141d857600080fd5b85356141e38161405b565b94506141f160208701614073565b93506141ff60408701614073565b925061420d60608701614085565b915061421b60808701614085565b90509295509295909350565b60006020828403121561423957600080fd5b81358060010b8114611cc057600080fd5b60008060006060848603121561425f57600080fd5b61426884614073565b925061427660208501614073565b915060408401356142868161405b565b809150509250925092565b600080602083850312156142a457600080fd5b823567ffffffffffffffff808211156142bc57600080fd5b818501915085601f8301126142d057600080fd5b8135818111156142df57600080fd5b8660208260051b85010111156142f457600080fd5b60209290920196919550909350505050565b6020808252825182820181905260009190848201906040850190845b8181101561434157835160060b83529284019291840191600101614322565b50909695505050505050565b60008060006060848603121561436257600080fd5b61436b84614073565b925061437960208501614073565b915061438760408501614085565b90509250925092565b60008060008060008060a087890312156143a957600080fd5b86356143b48161405b565b9550602087013580151581146143c957600080fd5b94506040870135935060608701356141338161405b565b6000602082840312156143f257600080fd5b6110f482614073565b634e487b7160e01b600052601160045260246000fd5b60008160020b627fffff19810361442a5761442a6143fb565b60000392915050565b81835281816020850137506000828201602090810191909152601f909101601f19169091010190565b848152836020820152606060408201526000613521606083018486614433565b808201808211156110f7576110f76143fb565b6000602082840312156144a157600080fd5b5051919050565b6001600160801b038281168282160390808211156144c8576144c86143fb565b5092915050565b600081600f0b6f7fffffffffffffffffffffffffffffff19810361442a5761442a6143fb565b6000600160ff1b820161450a5761450a6143fb565b5060000390565b6001600160801b038181168382160190808211156144c8576144c86143fb565b818103818111156110f7576110f76143fb565b600282810b9082900b03627fffff198112627fffff821317156110f7576110f76143fb565b634e487b7160e01b600052603260045260246000fd5b600061ffff808316818103614596576145966143fb565b6001019392505050565b634e487b7160e01b600052601260045260246000fd5b6000600182016145c8576145c86143fb565b5060010190565b634e487b7160e01b600052604160045260246000fd5b60008160020b8360020b806145fc576145fc6145a0565b627fffff19821460001982141615614616576146166143fb565b90059392505050565b60008260020b80614632576146326145a0565b808360020b0791505092915050565b60008160020b627fffff19810361465a5761465a6143fb565b6000190192915050565b60008260020b8260020b028060020b91508082146144c8576144c86143fb565b60ff82811682821603908111156110f7576110f76143fb565b600281810b9083900b01627fffff8113627fffff19821217156110f7576110f76143fb565b80820281158282048414176110f7576110f76143fb565b6000826146e8576146e86145a0565b500490565b6000826146fc576146fc6145a0565b500690565b62ffffff8281168282160390808211156144c8576144c86143fb565b81810360008312801583831316838312821617156144c8576144c86143fb565b80820260008212600160ff1b84141615614759576147596143fb565b81810583148215176110f7576110f76143fb565b808201828112600083128015821682158216171561478d5761478d6143fb565b505092915050565b61ffff8281168282160390808211156144c8576144c86143fb565b61ffff8181168382160190808211156144c8576144c86143fb565b600061ffff808416806147e0576147e06145a0565b92169190910692915050565b63ffffffff8281168282160390808211156144c8576144c86143fb565b600682810b9082900b03667fffffffffffff198112667fffffffffffff821317156110f7576110f76143fb565b60008160060b8360060b8061484d5761484d6145a0565b667fffffffffffff19821460001982141615614616576146166143fb565b60008260060b8260060b028060060b91508082146144c8576144c86143fb565b600681810b9083900b01667fffffffffffff8113667fffffffffffff19821217156110f7576110f76143fb565b60ff81811683821601908111156110f7576110f76143fb565b6001600160a01b038281168282160390808211156144c8576144c86143fb565b64ffffffffff8181168382160190808211156144c8576144c86143fb56fea2646970667358221220cdd32f52fe3c0a18480a3327d3997701a37d2186f12b7000089f143dc3c4dafd64736f6c63430008140033",
    "bytecodeSha1": "0c754ad44d4b54480798656fd9bf82ce936f2d0d",
    "compiler": {
        "evm_version": "istanbul",
        "optimizer": {
            "enabled": true,
            "runs": 200
        },
        "version": "0.8.20+commit.a1b79de6"
    },
    "contractName": "Pool",
    "language": "Solidity",
    "natspec": {
        "errors": {
            "PRBMath__MulDivOverflow(uint256,uint256)": [
                {
                    "notice": "Emitted when the result overflows uint256."
                }
            ]
        },
        "kind": "dev",
        "methods": {},
        "version": 1
    },
    "opcodes": "PUSH1 0x80 PUSH1 0x40 MSTORE CALLVALUE DUP1 ISZERO PUSH2 0x10 JUMPI PUSH1 0x0 DUP1 REVERT JUMPDEST POP PUSH1 0x4 CALLDATASIZE LT PUSH2 0x142 JUMPI PUSH1 0x0 CALLDATALOAD PUSH1 0xE0 SHR DUP1 PUSH4 0x6A234AE9 GT PUSH2 0xB8 JUMPI DUP1 PUSH4 0xD21220A7 GT PUSH2 0x7C JUMPI DUP1 PUSH4 0xD21220A7 EQ PUSH2 0x452 JUMPI DUP1 PUSH4 0xDD5A12D8 EQ PUSH2 0x479 JUMPI DUP1 PUSH4 0xDDCA3F43 EQ PUSH2 0x48C JUMPI DUP1 PUSH4 0xF3058399 EQ PUSH2 0x4B3 JUMPI DUP1 PUSH4 0xF30DBA93 EQ PUSH2 0x4BC JUMPI DUP1 PUSH4 0xFE4B84DF EQ PUSH2 0x545 JUMPI PUSH1 0x0 DUP1 REVERT JUMPDEST DUP1 PUSH4 0x6A234AE9 EQ PUSH2 0x3AA JUMPI DUP1 PUSH4 0x883BDBFD EQ PUSH2 0x3BD JUMPI DUP1 PUSH4 0xA34123A7 EQ PUSH2 0x3DD JUMPI DUP1 PUSH4 0xC45A0155 EQ PUSH2 0x3F0 JUMPI DUP1 PUSH4 0xD0C93A7C EQ PUSH2 0x417 JUMPI PUSH1 0x0 DUP1 REVERT JUMPDEST DUP1 PUSH4 0x3C8A7D8D GT PUSH2 0x10A JUMPI DUP1 PUSH4 0x3C8A7D8D EQ PUSH2 0x284 JUMPI DUP1 PUSH4 0x46141319 EQ PUSH2 0x2AC JUMPI DUP1 PUSH4 0x4A182392 EQ PUSH2 0x2C3 JUMPI DUP1 PUSH4 0x4F1EB3D8 EQ PUSH2 0x2D6 JUMPI DUP1 PUSH4 0x514EA4BF EQ PUSH2 0x309 JUMPI DUP1 PUSH4 0x5339C296 EQ PUSH2 0x38A JUMPI PUSH1 0x0 DUP1 REVERT JUMPDEST DUP1 PUSH4 0xDFE1681 EQ PUSH2 0x147 JUMPI DUP1 PUSH4 0x1A686502 EQ PUSH2 0x18B JUMPI DUP1 PUSH4 0x252C09D7 EQ PUSH2 0x1B6 JUMPI DUP1 PUSH4 0x32148F67 EQ PUSH2 0x1F0 JUMPI DUP1 PUSH4 0x3850C7BD EQ PUSH2 0x205 JUMPI JUMPDEST PUSH1 0x0 DUP1 REVERT JUMPDEST PUSH2 0x16E PUSH32 0x0 DUP2 JUMP JUMPDEST PUSH1 0x40 MLOAD PUSH1 0x1 PUSH1 0x1 PUSH1 0xA0 SHL SUB SWAP1 SWAP2 AND DUP2 MSTORE PUSH1 0x20 ADD JUMPDEST PUSH1 0x40 MLOAD DUP1 SWAP2 SUB SWAP1 RETURN JUMPDEST PUSH1 0x3 SLOAD PUSH2 0x19E SWAP1 PUSH1 0x1 PUSH1 0x1 PUSH1 0x80 SHL SUB AND DUP2 JUMP JUMPDEST PUSH1 0x40 MLOAD PUSH1 0x1 PUSH1 0x1 PUSH1 0x80 SHL SUB SWAP1 SWAP2 AND DUP2 MSTORE PUSH1 0x20 ADD PUSH2 0x182 JUMP JUMPDEST PUSH2 0x1C9 PUSH2 0x1C4 CALLDATASIZE PUSH1 0x4 PUSH2 0x401E JUMP JUMPDEST PUSH2 0x558 JUMP JUMPDEST PUSH1 0x40 DUP1 MLOAD PUSH4 0xFFFFFFFF SWAP1 SWAP5 AND DUP5 MSTORE PUSH1 0x6 SWAP3 SWAP1 SWAP3 SIGNEXTEND PUSH1 0x20 DUP5 ADD MSTORE ISZERO ISZERO SWAP1 DUP3 ADD MSTORE PUSH1 0x60 ADD PUSH2 0x182 JUMP JUMPDEST PUSH2 0x203 PUSH2 0x1FE CALLDATASIZE PUSH1 0x4 PUSH2 0x4037 JUMP JUMPDEST PUSH2 0x58C JUMP JUMPDEST STOP JUMPDEST PUSH1 0x2 DUP1 SLOAD PUSH2 0x246 SWAP2 PUSH1 0x1 PUSH1 0x1 PUSH1 0xA0 SHL SUB DUP3 AND SWAP2 PUSH1 0x1 PUSH1 0xA0 SHL DUP2 DIV SWAP1 SWAP2 SIGNEXTEND SWAP1 PUSH2 0xFFFF PUSH1 0x1 PUSH1 0xB8 SHL DUP3 DIV DUP2 AND SWAP2 PUSH1 0x1 PUSH1 0xC8 SHL DUP2 DIV DUP3 AND SWAP2 PUSH1 0x1 PUSH1 0xD8 SHL SWAP1 SWAP2 DIV AND DUP6 JUMP JUMPDEST PUSH1 0x40 DUP1 MLOAD PUSH1 0x1 PUSH1 0x1 PUSH1 0xA0 SHL SUB SWAP1 SWAP7 AND DUP7 MSTORE PUSH1 0x2 SWAP5 SWAP1 SWAP5 SIGNEXTEND PUSH1 0x20 DUP7 ADD MSTORE PUSH2 0xFFFF SWAP3 DUP4 AND SWAP4 DUP6 ADD SWAP4 SWAP1 SWAP4 MSTORE DUP2 AND PUSH1 0x60 DUP5 ADD MSTORE AND PUSH1 0x80 DUP3 ADD MSTORE PUSH1 0xA0 ADD PUSH2 0x182 JUMP JUMPDEST PUSH2 0x297 PUSH2 0x292 CALLDATASIZE PUSH1 0x4 PUSH2 0x40E5 JUMP JUMPDEST PUSH2 0x61C JUMP JUMPDEST PUSH1 0x40 DUP1 MLOAD SWAP3 DUP4 MSTORE PUSH1 0x20 DUP4 ADD SWAP2 SWAP1 SWAP2 MSTORE ADD PUSH2 0x182 JUMP JUMPDEST PUSH2 0x2B5 PUSH1 0x1 SLOAD DUP2 JUMP JUMPDEST PUSH1 0x40 MLOAD SWAP1 DUP2 MSTORE PUSH1 0x20 ADD PUSH2 0x182 JUMP JUMPDEST PUSH2 0x203 PUSH2 0x2D1 CALLDATASIZE PUSH1 0x4 PUSH2 0x416D JUMP JUMPDEST PUSH2 0x859 JUMP JUMPDEST PUSH2 0x2E9 PUSH2 0x2E4 CALLDATASIZE PUSH1 0x4 PUSH2 0x41C0 JUMP JUMPDEST PUSH2 0xCFD JUMP JUMPDEST PUSH1 0x40 DUP1 MLOAD PUSH1 0x1 PUSH1 0x1 PUSH1 0x80 SHL SUB SWAP4 DUP5 AND DUP2 MSTORE SWAP3 SWAP1 SWAP2 AND PUSH1 0x20 DUP4 ADD MSTORE ADD PUSH2 0x182 JUMP JUMPDEST PUSH2 0x354 PUSH2 0x317 CALLDATASIZE PUSH1 0x4 PUSH2 0x401E JUMP JUMPDEST PUSH1 0x6 PUSH1 0x20 MSTORE PUSH1 0x0 SWAP1 DUP2 MSTORE PUSH1 0x40 SWAP1 KECCAK256 DUP1 SLOAD PUSH1 0x1 DUP3 ADD SLOAD PUSH1 0x2 DUP4 ADD SLOAD PUSH1 0x3 SWAP1 SWAP4 ADD SLOAD PUSH1 0x1 PUSH1 0x1 PUSH1 0x80 SHL SUB SWAP3 DUP4 AND SWAP4 SWAP2 SWAP3 DUP2 DUP2 AND SWAP2 PUSH1 0x1 PUSH1 0x80 SHL SWAP1 DIV AND DUP6 JUMP JUMPDEST PUSH1 0x40 DUP1 MLOAD PUSH1 0x1 PUSH1 0x1 PUSH1 0x80 SHL SUB SWAP7 DUP8 AND DUP2 MSTORE PUSH1 0x20 DUP2 ADD SWAP6 SWAP1 SWAP6 MSTORE DUP5 ADD SWAP3 SWAP1 SWAP3 MSTORE DUP4 AND PUSH1 0x60 DUP4 ADD MSTORE SWAP1 SWAP2 AND PUSH1 0x80 DUP3 ADD MSTORE PUSH1 0xA0 ADD PUSH2 0x182 JUMP JUMPDEST PUSH2 0x2B5 PUSH2 0x398 CALLDATASIZE PUSH1 0x4 PUSH2 0x4227 JUMP JUMPDEST PUSH1 0x5 PUSH1 0x20 MSTORE PUSH1 0x0 SWAP1 DUP2 MSTORE PUSH1 0x40 SWAP1 KECCAK256 SLOAD DUP2 JUMP JUMPDEST PUSH2 0x297 PUSH2 0x3B8 CALLDATASIZE PUSH1 0x4 PUSH2 0x424A JUMP JUMPDEST PUSH2 0xFD1 JUMP JUMPDEST PUSH2 0x3D0 PUSH2 0x3CB CALLDATASIZE PUSH1 0x4 PUSH2 0x4291 JUMP JUMPDEST PUSH2 0x108D JUMP JUMPDEST PUSH1 0x40 MLOAD PUSH2 0x182 SWAP2 SWAP1 PUSH2 0x4306 JUMP JUMPDEST PUSH2 0x297 PUSH2 0x3EB CALLDATASIZE PUSH1 0x4 PUSH2 0x434D JUMP JUMPDEST PUSH2 0x10FD JUMP JUMPDEST PUSH2 0x16E PUSH32 0x0 DUP2 JUMP JUMPDEST PUSH2 0x43E PUSH32 0x0 DUP2 JUMP JUMPDEST PUSH1 0x40 MLOAD PUSH3 0xFFFFFF SWAP1 SWAP2 AND DUP2 MSTORE PUSH1 0x20 ADD PUSH2 0x182 JUMP JUMPDEST PUSH2 0x16E PUSH32 0x0 DUP2 JUMP JUMPDEST PUSH2 0x297 PUSH2 0x487 CALLDATASIZE PUSH1 0x4 PUSH2 0x4390 JUMP JUMPDEST PUSH2 0x1238 JUMP JUMPDEST PUSH2 0x43E PUSH32 0x0 DUP2 JUMP JUMPDEST PUSH2 0x2B5 PUSH1 0x0 SLOAD DUP2 JUMP JUMPDEST PUSH2 0x50A PUSH2 0x4CA CALLDATASIZE PUSH1 0x4 PUSH2 0x43E0 JUMP JUMPDEST PUSH1 0x4 PUSH1 0x20 MSTORE PUSH1 0x0 SWAP1 DUP2 MSTORE PUSH1 0x40 SWAP1 KECCAK256 DUP1 SLOAD PUSH1 0x1 DUP3 ADD SLOAD PUSH1 0x2 DUP4 ADD SLOAD PUSH1 0x3 SWAP1 SWAP4 ADD SLOAD PUSH1 0xFF DUP4 AND SWAP4 PUSH2 0x100 SWAP1 SWAP4 DIV PUSH1 0x1 PUSH1 0x1 PUSH1 0x80 SHL SUB AND SWAP3 PUSH1 0xF SWAP3 SWAP1 SWAP3 SIGNEXTEND SWAP2 SWAP1 DUP6 JUMP JUMPDEST PUSH1 0x40 DUP1 MLOAD SWAP6 ISZERO ISZERO DUP7 MSTORE PUSH1 0x1 PUSH1 0x1 PUSH1 0x80 SHL SUB SWAP1 SWAP5 AND PUSH1 0x20 DUP7 ADD MSTORE PUSH1 0xF SWAP3 SWAP1 SWAP3 SIGNEXTEND SWAP3 DUP5 ADD SWAP3 SWAP1 SWAP3 MSTORE PUSH1 0x60 DUP4 ADD SWAP2 SWAP1 SWAP2 MSTORE PUSH1 0x80 DUP3 ADD MSTORE PUSH1 0xA0 ADD PUSH2 0x182 JUMP JUMPDEST PUSH2 0x203 PUSH2 0x553 CALLDATASIZE PUSH1 0x4 PUSH2 0x401E JUMP JUMPDEST PUSH2 0x1B1E JUMP JUMPDEST PUSH1 0x7 DUP2 PUSH2 0xFFFF DUP2 LT PUSH2 0x569 JUMPI PUSH1 0x0 DUP1 REVERT JUMPDEST ADD SLOAD PUSH4 0xFFFFFFFF DUP2 AND SWAP2 POP PUSH1 0x1 PUSH1 0x20 SHL DUP2 DIV PUSH1 0x6 SIGNEXTEND SWAP1 PUSH1 0x1 PUSH1 0x58 SHL SWAP1 DIV PUSH1 0xFF AND DUP4 JUMP JUMPDEST PUSH1 0x2 SLOAD PUSH1 0x1 PUSH1 0xD8 SHL SWAP1 DIV PUSH2 0xFFFF AND PUSH1 0x0 PUSH2 0x5A8 PUSH1 0x7 DUP4 DUP6 PUSH2 0x1C4D JUMP JUMPDEST SWAP1 POP DUP2 PUSH2 0xFFFF AND DUP2 PUSH2 0xFFFF AND EQ PUSH2 0x617 JUMPI PUSH1 0x2 DUP1 SLOAD PUSH2 0xFFFF PUSH1 0xD8 SHL NOT AND PUSH1 0x1 PUSH1 0xD8 SHL PUSH2 0xFFFF DUP5 DUP2 AND SWAP2 DUP3 MUL SWAP3 SWAP1 SWAP3 OR SWAP1 SWAP3 SSTORE PUSH1 0x40 DUP1 MLOAD SWAP2 DUP6 AND DUP3 MSTORE PUSH1 0x20 DUP3 ADD SWAP3 SWAP1 SWAP3 MSTORE PUSH32 0xAC49E518F90A358F652E4400164F05A5D8F7E35E7747279BC3A93DBF584E125A SWAP2 ADD PUSH1 0x40 MLOAD DUP1 SWAP2 SUB SWAP1 LOG1 JUMPDEST POP POP POP JUMP JUMPDEST PUSH1 0x0 DUP1 DUP6 PUSH1 0x2 SIGNEXTEND DUP8 PUSH1 0x2 SIGNEXTEND SLT ISZERO DUP1 PUSH2 0x63B JUMPI POP PUSH3 0xD89E7 NOT PUSH1 0x2 DUP9 SWAP1 SIGNEXTEND SLT JUMPDEST DUP1 PUSH2 0x657 JUMPI POP PUSH2 0x64E PUSH3 0xD89E7 NOT PUSH2 0x4411 JUMP JUMPDEST PUSH1 0x2 SIGNEXTEND DUP7 PUSH1 0x2 SIGNEXTEND SGT JUMPDEST ISZERO PUSH2 0x674 JUMPI PUSH1 0x40 MLOAD PUSH3 0x64847D PUSH1 0xE4 SHL DUP2 MSTORE PUSH1 0x4 ADD PUSH1 0x40 MLOAD DUP1 SWAP2 SUB SWAP1 REVERT JUMPDEST DUP5 PUSH1 0x1 PUSH1 0x1 PUSH1 0x80 SHL SUB AND PUSH1 0x0 SUB PUSH2 0x69E JUMPI PUSH1 0x40 MLOAD PUSH4 0x200E8A9 PUSH1 0xE3 SHL DUP2 MSTORE PUSH1 0x4 ADD PUSH1 0x40 MLOAD DUP1 SWAP2 SUB SWAP1 REVERT JUMPDEST PUSH1 0x0 DUP1 PUSH2 0x6DC PUSH1 0x40 MLOAD DUP1 PUSH1 0x80 ADD PUSH1 0x40 MSTORE DUP1 DUP13 PUSH1 0x1 PUSH1 0x1 PUSH1 0xA0 SHL SUB AND DUP2 MSTORE PUSH1 0x20 ADD DUP12 PUSH1 0x2 SIGNEXTEND DUP2 MSTORE PUSH1 0x20 ADD DUP11 PUSH1 0x2 SIGNEXTEND DUP2 MSTORE PUSH1 0x20 ADD DUP10 PUSH1 0xF SIGNEXTEND DUP2 MSTORE POP PUSH2 0x1CC7 JUMP JUMPDEST SWAP3 POP SWAP3 POP POP DUP2 SWAP4 POP DUP1 SWAP3 POP PUSH1 0x0 DUP1 PUSH1 0x0 DUP7 GT ISZERO PUSH2 0x6FE JUMPI PUSH2 0x6FB PUSH2 0x1F4B JUMP JUMPDEST SWAP2 POP JUMPDEST DUP5 ISZERO PUSH2 0x70F JUMPI PUSH2 0x70C PUSH2 0x1FDE JUMP JUMPDEST SWAP1 POP JUMPDEST PUSH1 0x40 MLOAD PUSH4 0xD3487997 PUSH1 0xE0 SHL DUP2 MSTORE CALLER SWAP1 PUSH4 0xD3487997 SWAP1 PUSH2 0x738 SWAP1 DUP10 SWAP1 DUP10 SWAP1 DUP14 SWAP1 DUP14 SWAP1 PUSH1 0x4 ADD PUSH2 0x445C JUMP JUMPDEST PUSH1 0x0 PUSH1 0x40 MLOAD DUP1 DUP4 SUB DUP2 PUSH1 0x0 DUP8 DUP1 EXTCODESIZE ISZERO DUP1 ISZERO PUSH2 0x752 JUMPI PUSH1 0x0 DUP1 REVERT JUMPDEST POP GAS CALL ISZERO DUP1 ISZERO PUSH2 0x766 JUMPI RETURNDATASIZE PUSH1 0x0 DUP1 RETURNDATACOPY RETURNDATASIZE PUSH1 0x0 REVERT JUMPDEST POP POP POP POP PUSH1 0x0 DUP7 GT DUP1 ISZERO PUSH2 0x789 JUMPI POP PUSH2 0x77D PUSH2 0x1F4B JUMP JUMPDEST PUSH2 0x787 DUP8 DUP5 PUSH2 0x447C JUMP JUMPDEST GT JUMPDEST ISZERO PUSH2 0x7A7 JUMPI PUSH1 0x40 MLOAD PUSH4 0x98FB561 PUSH1 0xE0 SHL DUP2 MSTORE PUSH1 0x4 ADD PUSH1 0x40 MLOAD DUP1 SWAP2 SUB SWAP1 REVERT JUMPDEST PUSH1 0x0 DUP6 GT DUP1 ISZERO PUSH2 0x7C6 JUMPI POP PUSH2 0x7BA PUSH2 0x1FDE JUMP JUMPDEST PUSH2 0x7C4 DUP7 DUP4 PUSH2 0x447C JUMP JUMPDEST GT JUMPDEST ISZERO PUSH2 0x7E4 JUMPI PUSH1 0x40 MLOAD PUSH4 0x98FB561 PUSH1 0xE0 SHL DUP2 MSTORE PUSH1 0x4 ADD PUSH1 0x40 MLOAD DUP1 SWAP2 SUB SWAP1 REVERT JUMPDEST PUSH1 0x40 DUP1 MLOAD CALLER DUP2 MSTORE PUSH1 0x1 PUSH1 0x1 PUSH1 0x80 SHL SUB DUP12 AND PUSH1 0x20 DUP3 ADD MSTORE SWAP1 DUP2 ADD DUP8 SWAP1 MSTORE PUSH1 0x60 DUP2 ADD DUP7 SWAP1 MSTORE PUSH1 0x2 DUP12 DUP2 SIGNEXTEND SWAP2 SWAP1 DUP14 SWAP1 SIGNEXTEND SWAP1 PUSH1 0x1 PUSH1 0x1 PUSH1 0xA0 SHL SUB DUP16 AND SWAP1 PUSH32 0x7A53080BA414158BE7EC69B987B5FB7D07DEE101FE85488F0853AE16239D0BDE SWAP1 PUSH1 0x80 ADD PUSH1 0x40 MLOAD DUP1 SWAP2 SUB SWAP1 LOG4 POP POP POP POP SWAP7 POP SWAP7 SWAP5 POP POP POP POP POP JUMP JUMPDEST PUSH1 0x0 PUSH2 0x88E DUP6 PUSH32 0x0 PUSH3 0xFFFFFF AND PUSH3 0xF4240 PUSH2 0x202D JUMP JUMPDEST SWAP1 POP PUSH1 0x0 PUSH2 0x8C5 DUP6 PUSH32 0x0 PUSH3 0xFFFFFF AND PUSH3 0xF4240 PUSH2 0x202D JUMP JUMPDEST PUSH1 0x40 MLOAD PUSH4 0x70A08231 PUSH1 0xE0 SHL DUP2 MSTORE ADDRESS PUSH1 0x4 DUP3 ADD MSTORE SWAP1 SWAP2 POP PUSH1 0x0 SWAP1 PUSH1 0x1 PUSH1 0x1 PUSH1 0xA0 SHL SUB PUSH32 0x0 AND SWAP1 PUSH4 0x70A08231 SWAP1 PUSH1 0x24 ADD PUSH1 0x20 PUSH1 0x40 MLOAD DUP1 DUP4 SUB DUP2 PUSH1 0x0 DUP8 GAS CALL ISZERO DUP1 ISZERO PUSH2 0x931 JUMPI RETURNDATASIZE PUSH1 0x0 DUP1 RETURNDATACOPY RETURNDATASIZE PUSH1 0x0 REVERT JUMPDEST POP POP POP POP PUSH1 0x40 MLOAD RETURNDATASIZE PUSH1 0x1F NOT PUSH1 0x1F DUP3 ADD AND DUP3 ADD DUP1 PUSH1 0x40 MSTORE POP DUP2 ADD SWAP1 PUSH2 0x955 SWAP2 SWAP1 PUSH2 0x448F JUMP JUMPDEST PUSH1 0x40 MLOAD PUSH4 0x70A08231 PUSH1 0xE0 SHL DUP2 MSTORE ADDRESS PUSH1 0x4 DUP3 ADD MSTORE SWAP1 SWAP2 POP PUSH1 0x0 SWAP1 PUSH1 0x1 PUSH1 0x1 PUSH1 0xA0 SHL SUB PUSH32 0x0 AND SWAP1 PUSH4 0x70A08231 SWAP1 PUSH1 0x24 ADD PUSH1 0x20 PUSH1 0x40 MLOAD DUP1 DUP4 SUB DUP2 PUSH1 0x0 DUP8 GAS CALL ISZERO DUP1 ISZERO PUSH2 0x9C1 JUMPI RETURNDATASIZE PUSH1 0x0 DUP1 RETURNDATACOPY RETURNDATASIZE PUSH1 0x0 REVERT JUMPDEST POP POP POP POP PUSH1 0x40 MLOAD RETURNDATASIZE PUSH1 0x1F NOT PUSH1 0x1F DUP3 ADD AND DUP3 ADD DUP1 PUSH1 0x40 MSTORE POP DUP2 ADD SWAP1 PUSH2 0x9E5 SWAP2 SWAP1 PUSH2 0x448F JUMP JUMPDEST SWAP1 POP DUP8 ISZERO PUSH2 0xA6E JUMPI PUSH1 0x40 MLOAD PUSH4 0xA9059CBB PUSH1 0xE0 SHL DUP2 MSTORE CALLER PUSH1 0x4 DUP3 ADD MSTORE PUSH1 0x24 DUP2 ADD DUP10 SWAP1 MSTORE PUSH32 0x0 PUSH1 0x1 PUSH1 0x1 PUSH1 0xA0 SHL SUB AND SWAP1 PUSH4 0xA9059CBB SWAP1 PUSH1 0x44 ADD PUSH1 0x0 PUSH1 0x40 MLOAD DUP1 DUP4 SUB DUP2 PUSH1 0x0 DUP8 DUP1 EXTCODESIZE ISZERO DUP1 ISZERO PUSH2 0xA55 JUMPI PUSH1 0x0 DUP1 REVERT JUMPDEST POP GAS CALL ISZERO DUP1 ISZERO PUSH2 0xA69 JUMPI RETURNDATASIZE PUSH1 0x0 DUP1 RETURNDATACOPY RETURNDATASIZE PUSH1 0x0 REVERT JUMPDEST POP POP POP POP JUMPDEST DUP7 ISZERO PUSH2 0xAF5 JUMPI PUSH1 0x40 MLOAD PUSH4 0xA9059CBB PUSH1 0xE0 SHL DUP2 MSTORE CALLER PUSH1 0x4 DUP3 ADD MSTORE PUSH1 0x24 DUP2 ADD DUP9 SWAP1 MSTORE PUSH32 0x0 PUSH1 0x1 PUSH1 0x1 PUSH1 0xA0 SHL SUB AND SWAP1 PUSH4 0xA9059CBB SWAP1 PUSH1 0x44 ADD PUSH1 0x0 PUSH1 0x40 MLOAD DUP1 DUP4 SUB DUP2 PUSH1 0x0 DUP8 DUP1 EXTCODESIZE ISZERO DUP1 ISZERO PUSH2 0xADC JUMPI PUSH1 0x0 DUP1 REVERT JUMPDEST POP GAS CALL ISZERO DUP1 ISZERO PUSH2 0xAF0 JUMPI RETURNDATASIZE PUSH1 0x0 DUP1 RETURNDATACOPY RETURNDATASIZE PUSH1 0x0 REVERT JUMPDEST POP POP POP POP JUMPDEST PUSH1 0x40 MLOAD PUSH4 0xE9CBAFB PUSH1 0xE4 SHL DUP2 MSTORE CALLER SWAP1 PUSH4 0xE9CBAFB0 SWAP1 PUSH2 0xB1E SWAP1 DUP8 SWAP1 DUP8 SWAP1 DUP12 SWAP1 DUP12 SWAP1 PUSH1 0x4 ADD PUSH2 0x445C JUMP JUMPDEST PUSH1 0x0 PUSH1 0x40 MLOAD DUP1 DUP4 SUB DUP2 PUSH1 0x0 DUP8 DUP1 EXTCODESIZE ISZERO DUP1 ISZERO PUSH2 0xB38 JUMPI PUSH1 0x0 DUP1 REVERT JUMPDEST POP GAS CALL ISZERO DUP1 ISZERO PUSH2 0xB4C JUMPI RETURNDATASIZE PUSH1 0x0 DUP1 RETURNDATACOPY RETURNDATASIZE PUSH1 0x0 REVERT JUMPDEST POP POP POP POP DUP4 DUP3 PUSH2 0xB5C SWAP2 SWAP1 PUSH2 0x447C JUMP JUMPDEST PUSH1 0x40 MLOAD PUSH4 0x70A08231 PUSH1 0xE0 SHL DUP2 MSTORE ADDRESS PUSH1 0x4 DUP3 ADD MSTORE PUSH32 0x0 PUSH1 0x1 PUSH1 0x1 PUSH1 0xA0 SHL SUB AND SWAP1 PUSH4 0x70A08231 SWAP1 PUSH1 0x24 ADD PUSH1 0x20 PUSH1 0x40 MLOAD DUP1 DUP4 SUB DUP2 PUSH1 0x0 DUP8 GAS CALL ISZERO DUP1 ISZERO PUSH2 0xBC2 JUMPI RETURNDATASIZE PUSH1 0x0 DUP1 RETURNDATACOPY RETURNDATASIZE PUSH1 0x0 REVERT JUMPDEST POP POP POP POP PUSH1 0x40 MLOAD RETURNDATASIZE PUSH1 0x1F NOT PUSH1 0x1F DUP3 ADD AND DUP3 ADD DUP1 PUSH1 0x40 MSTORE POP DUP2 ADD SWAP1 PUSH2 0xBE6 SWAP2 SWAP1 PUSH2 0x448F JUMP JUMPDEST LT ISZERO PUSH2 0xC05 JUMPI PUSH1 0x40 MLOAD PUSH4 0x7BC35E05 PUSH1 0xE0 SHL DUP2 MSTORE PUSH1 0x4 ADD PUSH1 0x40 MLOAD DUP1 SWAP2 SUB SWAP1 REVERT JUMPDEST PUSH2 0xC0F DUP4 DUP3 PUSH2 0x447C JUMP JUMPDEST PUSH1 0x40 MLOAD PUSH4 0x70A08231 PUSH1 0xE0 SHL DUP2 MSTORE ADDRESS PUSH1 0x4 DUP3 ADD MSTORE PUSH32 0x0 PUSH1 0x1 PUSH1 0x1 PUSH1 0xA0 SHL SUB AND SWAP1 PUSH4 0x70A08231 SWAP1 PUSH1 0x24 ADD PUSH1 0x20 PUSH1 0x40 MLOAD DUP1 DUP4 SUB DUP2 PUSH1 0x0 DUP8 GAS CALL ISZERO DUP1 ISZERO PUSH2 0xC75 JUMPI RETURNDATASIZE PUSH1 0x0 DUP1 RETURNDATACOPY RETURNDATASIZE PUSH1 0x0 REVERT JUMPDEST POP POP POP POP PUSH1 0x40 MLOAD RETURNDATASIZE PUSH1 0x1F NOT PUSH1 0x1F DUP3 ADD AND DUP3 ADD DUP1 PUSH1 0x40 MSTORE POP DUP2 ADD SWAP1 PUSH2 0xC99 SWAP2 SWAP1 PUSH2 0x448F JUMP JUMPDEST LT ISZERO PUSH2 0xCB8 JUMPI PUSH1 0x40 MLOAD PUSH4 0x7BC35E05 PUSH1 0xE0 SHL DUP2 MSTORE PUSH1 0x4 ADD PUSH1 0x40 MLOAD DUP1 SWAP2 SUB SWAP1 REVERT JUMPDEST PUSH1 0x40 DUP1 MLOAD DUP10 DUP2 MSTORE PUSH1 0x20 DUP2 ADD DUP10 SWAP1 MSTORE CALLER SWAP2 PUSH32 0x1C1DB1F1D6A01E51FEC24BB54087B65FE5430F692280E70D92F718EB72AE76B7 SWAP2 ADD PUSH1 0x40 MLOAD DUP1 SWAP2 SUB SWAP1 LOG2 POP POP POP POP POP POP POP POP JUMP JUMPDEST PUSH1 0x0 DUP1 DUP1 PUSH2 0xD0E PUSH1 0x6 CALLER DUP10 DUP10 PUSH2 0x2076 JUMP JUMPDEST PUSH1 0x3 DUP2 ADD SLOAD SWAP1 SWAP2 POP PUSH1 0x1 PUSH1 0x1 PUSH1 0x80 SHL SUB SWAP1 DUP2 AND SWAP1 DUP7 AND GT PUSH2 0xD2F JUMPI DUP5 PUSH2 0xD3E JUMP JUMPDEST PUSH1 0x3 DUP2 ADD SLOAD PUSH1 0x1 PUSH1 0x1 PUSH1 0x80 SHL SUB AND JUMPDEST PUSH1 0x3 DUP3 ADD SLOAD SWAP1 SWAP4 POP PUSH1 0x1 PUSH1 0x1 PUSH1 0x80 SHL SUB PUSH1 0x1 PUSH1 0x80 SHL SWAP1 SWAP2 DIV DUP2 AND SWAP1 DUP6 AND GT PUSH2 0xD66 JUMPI DUP4 PUSH2 0xD7C JUMP JUMPDEST PUSH1 0x3 DUP2 ADD SLOAD PUSH1 0x1 PUSH1 0x80 SHL SWAP1 DIV PUSH1 0x1 PUSH1 0x1 PUSH1 0x80 SHL SUB AND JUMPDEST SWAP2 POP PUSH1 0x1 PUSH1 0x1 PUSH1 0x80 SHL SUB DUP4 AND ISZERO PUSH2 0xE6F JUMPI PUSH1 0x3 DUP2 ADD DUP1 SLOAD DUP5 SWAP2 SWAP1 PUSH1 0x0 SWAP1 PUSH2 0xDAD SWAP1 DUP5 SWAP1 PUSH1 0x1 PUSH1 0x1 PUSH1 0x80 SHL SUB AND PUSH2 0x44A8 JUMP JUMPDEST SWAP3 POP PUSH2 0x100 EXP DUP2 SLOAD DUP2 PUSH1 0x1 PUSH1 0x1 PUSH1 0x80 SHL SUB MUL NOT AND SWAP1 DUP4 PUSH1 0x1 PUSH1 0x1 PUSH1 0x80 SHL SUB AND MUL OR SWAP1 SSTORE POP PUSH32 0x0 PUSH1 0x1 PUSH1 0x1 PUSH1 0xA0 SHL SUB AND PUSH4 0xA9059CBB DUP10 DUP6 PUSH1 0x40 MLOAD DUP4 PUSH4 0xFFFFFFFF AND PUSH1 0xE0 SHL DUP2 MSTORE PUSH1 0x4 ADD PUSH2 0xE3C SWAP3 SWAP2 SWAP1 PUSH1 0x1 PUSH1 0x1 PUSH1 0xA0 SHL SUB SWAP3 SWAP1 SWAP3 AND DUP3 MSTORE PUSH1 0x1 PUSH1 0x1 PUSH1 0x80 SHL SUB AND PUSH1 0x20 DUP3 ADD MSTORE PUSH1 0x40 ADD SWAP1 JUMP JUMPDEST PUSH1 0x0 PUSH1 0x40 MLOAD DUP1 DUP4 SUB DUP2 PUSH1 0x0 DUP8 DUP1 EXTCODESIZE ISZERO DUP1 ISZERO PUSH2 0xE56 JUMPI PUSH1 0x0 DUP1 REVERT JUMPDEST POP GAS CALL ISZERO DUP1 ISZERO PUSH2 0xE6A JUMPI RETURNDATASIZE PUSH1 0x0 DUP1 RETURNDATACOPY RETURNDATASIZE PUSH1 0x0 REVERT JUMPDEST POP POP POP POP JUMPDEST PUSH1 0x1 PUSH1 0x1 PUSH1 0x80 SHL SUB DUP3 AND ISZERO PUSH2 0xF66 JUMPI DUP2 DUP2 PUSH1 0x3 ADD PUSH1 0x10 DUP3 DUP3 DUP3 SWAP1 SLOAD SWAP1 PUSH2 0x100 EXP SWAP1 DIV PUSH1 0x1 PUSH1 0x1 PUSH1 0x80 SHL SUB AND PUSH2 0xEA4 SWAP2 SWAP1 PUSH2 0x44A8 JUMP JUMPDEST SWAP3 POP PUSH2 0x100 EXP DUP2 SLOAD DUP2 PUSH1 0x1 PUSH1 0x1 PUSH1 0x80 SHL SUB MUL NOT AND SWAP1 DUP4 PUSH1 0x1 PUSH1 0x1 PUSH1 0x80 SHL SUB AND MUL OR SWAP1 SSTORE POP PUSH32 0x0 PUSH1 0x1 PUSH1 0x1 PUSH1 0xA0 SHL SUB AND PUSH4 0xA9059CBB DUP10 DUP5 PUSH1 0x40 MLOAD DUP4 PUSH4 0xFFFFFFFF AND PUSH1 0xE0 SHL DUP2 MSTORE PUSH1 0x4 ADD PUSH2 0xF33 SWAP3 SWAP2 SWAP1 PUSH1 0x1 PUSH1 0x1 PUSH1 0xA0 SHL SUB SWAP3 SWAP1 SWAP3 AND DUP3 MSTORE PUSH1 0x1 PUSH1 0x1 PUSH1 0x80 SHL SUB AND PUSH1 0x20 DUP3 ADD MSTORE PUSH1 0x40 ADD SWAP1 JUMP JUMPDEST PUSH1 0x0 PUSH1 0x40 MLOAD DUP1 DUP4 SUB DUP2 PUSH1 0x0 DUP8 DUP1 EXTCODESIZE ISZERO DUP1 ISZERO PUSH2 0xF4D JUMPI PUSH1 0x0 DUP1 REVERT JUMPDEST POP GAS CALL ISZERO DUP1 ISZERO PUSH2 0xF61 JUMPI RETURNDATASIZE PUSH1 0x0 DUP1 RETURNDATACOPY RETURNDATASIZE PUSH1 0x0 REVERT JUMPDEST POP POP POP POP JUMPDEST PUSH1 0x40 DUP1 MLOAD PUSH1 0x1 PUSH1 0x1 PUSH1 0xA0 SHL SUB DUP11 AND DUP2 MSTORE PUSH1 0x1 PUSH1 0x1 PUSH1 0x80 SHL SUB DUP6 DUP2 AND PUSH1 0x20 DUP4 ADD MSTORE DUP5 AND DUP2 DUP4 ADD MSTORE SWAP1 MLOAD PUSH1 0x2 DUP9 DUP2 SIGNEXTEND SWAP3 SWAP1 DUP11 SWAP1 SIGNEXTEND SWAP2 CALLER SWAP2 PUSH32 0xA89C1C8A741251492622C95237828C75D1DBB03EA956F09E3792FF2A14F4FE62 SWAP2 SWAP1 DUP2 SWAP1 SUB PUSH1 0x60 ADD SWAP1 LOG4 POP SWAP6 POP SWAP6 SWAP4 POP POP POP POP JUMP JUMPDEST PUSH1 0x40 DUP1 MLOAD PUSH1 0xA0 DUP2 ADD DUP3 MSTORE PUSH1 0x2 DUP1 SLOAD PUSH1 0x1 PUSH1 0x1 PUSH1 0xA0 SHL SUB DUP2 AND DUP4 MSTORE PUSH1 0x1 PUSH1 0xA0 SHL DUP2 DIV SWAP1 SWAP2 SIGNEXTEND PUSH1 0x20 DUP4 ADD MSTORE PUSH2 0xFFFF PUSH1 0x1 PUSH1 0xB8 SHL DUP3 DIV DUP2 AND SWAP4 DUP4 ADD SWAP4 SWAP1 SWAP4 MSTORE PUSH1 0x1 PUSH1 0xC8 SHL DUP2 DIV DUP4 AND PUSH1 0x60 DUP4 ADD MSTORE PUSH1 0x1 PUSH1 0xD8 SHL SWAP1 DIV SWAP1 SWAP2 AND PUSH1 0x80 DUP3 ADD MSTORE PUSH1 0x0 DUP1 SLOAD PUSH1 0x1 SLOAD SWAP2 SWAP3 DUP4 SWAP3 SWAP1 SWAP2 SWAP1 DUP4 PUSH2 0x1046 PUSH1 0x6 DUP9 DUP12 DUP12 PUSH2 0x2076 JUMP JUMPDEST SWAP1 POP PUSH1 0x0 DUP1 PUSH2 0x106B DUP12 DUP12 DUP9 PUSH1 0x20 ADD MLOAD DUP9 DUP9 PUSH1 0x4 PUSH2 0x20D3 SWAP1 SWAP6 SWAP5 SWAP4 SWAP3 SWAP2 SWAP1 PUSH4 0xFFFFFFFF AND JUMP JUMPDEST SWAP1 SWAP3 POP SWAP1 POP PUSH2 0x107B DUP4 DUP4 DUP4 PUSH2 0x21BD JUMP JUMPDEST SWAP1 SWAP13 SWAP1 SWAP12 POP SWAP10 POP POP POP POP POP POP POP POP POP POP JUMP JUMPDEST PUSH1 0x60 PUSH2 0x10F4 TIMESTAMP DUP5 DUP5 DUP1 DUP1 PUSH1 0x20 MUL PUSH1 0x20 ADD PUSH1 0x40 MLOAD SWAP1 DUP2 ADD PUSH1 0x40 MSTORE DUP1 SWAP4 SWAP3 SWAP2 SWAP1 DUP2 DUP2 MSTORE PUSH1 0x20 ADD DUP4 DUP4 PUSH1 0x20 MUL DUP1 DUP3 DUP5 CALLDATACOPY PUSH1 0x0 SWAP3 ADD SWAP2 SWAP1 SWAP2 MSTORE POP POP PUSH1 0x2 DUP1 SLOAD PUSH1 0x7 SWAP6 SWAP5 SWAP4 POP PUSH1 0x1 PUSH1 0xA0 SHL DUP2 DIV SWAP1 SWAP2 SIGNEXTEND SWAP2 POP PUSH2 0xFFFF PUSH1 0x1 PUSH1 0xB8 SHL DUP3 DIV DUP2 AND SWAP2 PUSH1 0x1 PUSH1 0xC8 SHL SWAP1 DIV AND PUSH2 0x22AF JUMP JUMPDEST SWAP1 POP JUMPDEST SWAP3 SWAP2 POP POP JUMP JUMPDEST PUSH1 0x0 DUP1 PUSH1 0x0 DUP1 PUSH1 0x0 PUSH2 0x1148 PUSH1 0x40 MLOAD DUP1 PUSH1 0x80 ADD PUSH1 0x40 MSTORE DUP1 CALLER PUSH1 0x1 PUSH1 0x1 PUSH1 0xA0 SHL SUB AND DUP2 MSTORE PUSH1 0x20 ADD DUP11 PUSH1 0x2 SIGNEXTEND DUP2 MSTORE PUSH1 0x20 ADD DUP10 PUSH1 0x2 SIGNEXTEND DUP2 MSTORE PUSH1 0x20 ADD DUP9 PUSH2 0x113E SWAP1 PUSH2 0x44CF JUMP JUMPDEST PUSH1 0xF SIGNEXTEND SWAP1 MSTORE PUSH2 0x1CC7 JUMP JUMPDEST SWAP3 POP SWAP3 POP SWAP3 POP DUP2 PUSH2 0x1158 SWAP1 PUSH2 0x44F5 JUMP JUMPDEST SWAP5 POP PUSH2 0x1163 DUP2 PUSH2 0x44F5 JUMP JUMPDEST SWAP4 POP PUSH1 0x0 DUP6 GT DUP1 PUSH2 0x1174 JUMPI POP PUSH1 0x0 DUP5 GT JUMPDEST ISZERO PUSH2 0x11D6 JUMPI PUSH1 0x3 DUP4 ADD SLOAD PUSH2 0x1192 SWAP1 DUP7 SWAP1 PUSH1 0x1 PUSH1 0x1 PUSH1 0x80 SHL SUB AND PUSH2 0x4511 JUMP JUMPDEST PUSH1 0x3 DUP5 ADD SLOAD PUSH2 0x11B2 SWAP1 DUP7 SWAP1 PUSH1 0x1 PUSH1 0x80 SHL SWAP1 DIV PUSH1 0x1 PUSH1 0x1 PUSH1 0x80 SHL SUB AND PUSH2 0x4511 JUMP JUMPDEST PUSH1 0x1 PUSH1 0x1 PUSH1 0x80 SHL SUB SWAP2 DUP3 AND SWAP2 AND PUSH1 0x1 PUSH1 0x80 SHL MUL PUSH1 0x1 PUSH1 0x1 PUSH1 0x80 SHL SUB NOT AND OR PUSH1 0x3 DUP5 ADD SSTORE JUMPDEST PUSH1 0x40 DUP1 MLOAD PUSH1 0x1 PUSH1 0x1 PUSH1 0x80 SHL SUB DUP9 AND DUP2 MSTORE PUSH1 0x20 DUP2 ADD DUP8 SWAP1 MSTORE SWAP1 DUP2 ADD DUP6 SWAP1 MSTORE PUSH1 0x2 DUP9 DUP2 SIGNEXTEND SWAP2 SWAP1 DUP11 SWAP1 SIGNEXTEND SWAP1 CALLER SWAP1 PUSH32 0xC396CD989A39F4459B5FA1AED6A9A8DCDBC45908ACFD67E028CD568DA98982C SWAP1 PUSH1 0x60 ADD PUSH1 0x40 MLOAD DUP1 SWAP2 SUB SWAP1 LOG4 POP POP POP SWAP4 POP SWAP4 SWAP2 POP POP JUMP JUMPDEST PUSH1 0x40 DUP1 MLOAD PUSH1 0xA0 DUP2 ADD DUP3 MSTORE PUSH1 0x2 DUP1 SLOAD PUSH1 0x1 PUSH1 0x1 PUSH1 0xA0 SHL SUB DUP2 AND DUP4 MSTORE PUSH1 0x1 PUSH1 0xA0 SHL DUP2 DIV SWAP1 SWAP2 SIGNEXTEND PUSH1 0x20 DUP4 ADD MSTORE PUSH2 0xFFFF PUSH1 0x1 PUSH1 0xB8 SHL DUP3 DIV DUP2 AND SWAP4 DUP4 ADD SWAP4 SWAP1 SWAP4 MSTORE PUSH1 0x1 PUSH1 0xC8 SHL DUP2 DIV DUP4 AND PUSH1 0x60 DUP4 ADD MSTORE PUSH1 0x1 PUSH1 0xD8 SHL SWAP1 DIV SWAP1 SWAP2 AND PUSH1 0x80 DUP3 ADD MSTORE PUSH1 0x3 SLOAD PUSH1 0x0 SWAP2 DUP3 SWAP2 PUSH1 0x1 PUSH1 0x1 PUSH1 0x80 SHL SUB AND DUP9 PUSH2 0x12EC JUMPI DUP2 PUSH1 0x0 ADD MLOAD PUSH1 0x1 PUSH1 0x1 PUSH1 0xA0 SHL SUB AND DUP8 PUSH1 0x1 PUSH1 0x1 PUSH1 0xA0 SHL SUB AND LT DUP1 PUSH2 0x12E7 JUMPI POP PUSH20 0xFFFD8963EFD1FC6A506488495D951D5263988D26 PUSH1 0x1 PUSH1 0x1 PUSH1 0xA0 SHL SUB DUP9 AND GT JUMPDEST PUSH2 0x131D JUMP JUMPDEST DUP2 PUSH1 0x0 ADD MLOAD PUSH1 0x1 PUSH1 0x1 PUSH1 0xA0 SHL SUB AND DUP8 PUSH1 0x1 PUSH1 0x1 PUSH1 0xA0 SHL SUB AND GT DUP1 PUSH2 0x131D JUMPI POP PUSH5 0x1000276A3 PUSH1 0x1 PUSH1 0x1 PUSH1 0xA0 SHL SUB DUP9 AND LT JUMPDEST ISZERO PUSH2 0x133B JUMPI PUSH1 0x40 MLOAD PUSH4 0x2D4EEEB3 PUSH1 0xE2 SHL DUP2 MSTORE PUSH1 0x4 ADD PUSH1 0x40 MLOAD DUP1 SWAP2 SUB SWAP1 REVERT JUMPDEST PUSH1 0x0 PUSH1 0x40 MLOAD DUP1 PUSH1 0xC0 ADD PUSH1 0x40 MSTORE DUP1 DUP11 DUP2 MSTORE PUSH1 0x20 ADD PUSH1 0x0 DUP2 MSTORE PUSH1 0x20 ADD DUP5 PUSH1 0x0 ADD MLOAD PUSH1 0x1 PUSH1 0x1 PUSH1 0xA0 SHL SUB AND DUP2 MSTORE PUSH1 0x20 ADD DUP5 PUSH1 0x20 ADD MLOAD PUSH1 0x2 SIGNEXTEND DUP2 MSTORE PUSH1 0x20 ADD DUP12 PUSH2 0x1382 JUMPI PUSH1 0x1 SLOAD PUSH2 0x1386 JUMP JUMPDEST PUSH1 0x0 SLOAD JUMPDEST DUP2 MSTORE PUSH1 0x20 ADD DUP4 PUSH1 0x1 PUSH1 0x1 PUSH1 0x80 SHL SUB AND DUP2 MSTORE POP SWAP1 POP JUMPDEST DUP1 MLOAD ISZERO DUP1 ISZERO SWAP1 PUSH2 0x13C1 JUMPI POP DUP8 PUSH1 0x1 PUSH1 0x1 PUSH1 0xA0 SHL SUB AND DUP2 PUSH1 0x40 ADD MLOAD PUSH1 0x1 PUSH1 0x1 PUSH1 0xA0 SHL SUB AND EQ ISZERO JUMPDEST ISZERO PUSH2 0x16A6 JUMPI PUSH1 0x40 DUP1 MLOAD PUSH1 0xE0 DUP2 ADD DUP3 MSTORE PUSH1 0x0 DUP1 DUP3 MSTORE PUSH1 0x20 DUP3 ADD DUP2 SWAP1 MSTORE SWAP2 DUP2 ADD DUP3 SWAP1 MSTORE PUSH1 0x60 DUP2 ADD DUP3 SWAP1 MSTORE PUSH1 0x80 DUP2 ADD DUP3 SWAP1 MSTORE PUSH1 0xA0 DUP2 ADD DUP3 SWAP1 MSTORE PUSH1 0xC0 DUP2 ADD SWAP2 SWAP1 SWAP2 MSTORE PUSH1 0x40 DUP3 ADD MLOAD PUSH1 0x1 PUSH1 0x1 PUSH1 0xA0 SHL SUB AND DUP2 MSTORE PUSH1 0x60 DUP3 ADD MLOAD PUSH2 0x1442 SWAP1 PUSH1 0x5 SWAP1 PUSH32 0x0 DUP15 PUSH2 0x236E JUMP JUMPDEST POP PUSH1 0x2 SIGNEXTEND PUSH1 0x20 DUP3 ADD DUP2 SWAP1 MSTORE PUSH2 0x1456 SWAP1 PUSH2 0x252B JUMP JUMPDEST PUSH1 0x1 PUSH1 0x1 PUSH1 0xA0 SHL SUB AND PUSH1 0x60 DUP3 ADD MSTORE PUSH1 0x40 DUP3 ADD MLOAD PUSH2 0x14E7 SWAP1 DUP13 PUSH2 0x1490 JUMPI DUP11 PUSH1 0x1 PUSH1 0x1 PUSH1 0xA0 SHL SUB AND DUP4 PUSH1 0x60 ADD MLOAD PUSH1 0x1 PUSH1 0x1 PUSH1 0xA0 SHL SUB AND GT PUSH2 0x14AA JUMP JUMPDEST DUP11 PUSH1 0x1 PUSH1 0x1 PUSH1 0xA0 SHL SUB AND DUP4 PUSH1 0x60 ADD MLOAD PUSH1 0x1 PUSH1 0x1 PUSH1 0xA0 SHL SUB AND LT JUMPDEST PUSH2 0x14B8 JUMPI DUP3 PUSH1 0x60 ADD MLOAD PUSH2 0x14BA JUMP JUMPDEST DUP11 JUMPDEST PUSH1 0xA0 DUP6 ADD MLOAD DUP6 MLOAD PUSH32 0x0 PUSH2 0x2951 JUMP JUMPDEST PUSH1 0xC0 DUP6 ADD SWAP1 DUP2 MSTORE PUSH1 0xA0 DUP6 ADD SWAP2 SWAP1 SWAP2 MSTORE PUSH1 0x80 DUP5 ADD SWAP2 DUP3 MSTORE PUSH1 0x1 PUSH1 0x1 PUSH1 0xA0 SHL SUB SWAP1 SWAP3 AND PUSH1 0x40 DUP6 ADD MSTORE SWAP1 MLOAD SWAP1 MLOAD PUSH2 0x151B SWAP2 SWAP1 PUSH2 0x447C JUMP JUMPDEST DUP3 MLOAD DUP4 SWAP1 PUSH2 0x152A SWAP1 DUP4 SWAP1 PUSH2 0x4531 JUMP JUMPDEST SWAP1 MSTORE POP PUSH1 0xA0 DUP2 ADD MLOAD PUSH1 0x20 DUP4 ADD DUP1 MLOAD PUSH2 0x1543 SWAP1 DUP4 SWAP1 PUSH2 0x447C JUMP JUMPDEST SWAP1 MSTORE POP PUSH1 0xA0 DUP3 ADD MLOAD PUSH1 0x1 PUSH1 0x1 PUSH1 0x80 SHL SUB AND ISZERO PUSH2 0x158E JUMPI PUSH2 0x1579 DUP2 PUSH1 0xC0 ADD MLOAD PUSH1 0x1 PUSH1 0x80 SHL DUP5 PUSH1 0xA0 ADD MLOAD PUSH1 0x1 PUSH1 0x1 PUSH1 0x80 SHL SUB AND PUSH2 0x2A84 JUMP JUMPDEST DUP3 PUSH1 0x80 ADD DUP2 DUP2 MLOAD PUSH2 0x158A SWAP2 SWAP1 PUSH2 0x447C JUMP JUMPDEST SWAP1 MSTORE POP JUMPDEST DUP1 PUSH1 0x60 ADD MLOAD PUSH1 0x1 PUSH1 0x1 PUSH1 0xA0 SHL SUB AND DUP3 PUSH1 0x40 ADD MLOAD PUSH1 0x1 PUSH1 0x1 PUSH1 0xA0 SHL SUB AND SUB PUSH2 0x1669 JUMPI PUSH1 0x0 PUSH2 0x15E9 DUP3 PUSH1 0x20 ADD MLOAD DUP14 PUSH2 0x15C6 JUMPI PUSH1 0x0 SLOAD PUSH2 0x15CC JUMP JUMPDEST DUP5 PUSH1 0x80 ADD MLOAD JUMPDEST DUP15 PUSH2 0x15DB JUMPI DUP6 PUSH1 0x80 ADD MLOAD PUSH2 0x15DF JUMP JUMPDEST PUSH1 0x1 SLOAD JUMPDEST PUSH1 0x4 SWAP3 SWAP2 SWAP1 PUSH2 0x2B51 JUMP JUMPDEST SWAP1 POP DUP12 ISZERO PUSH2 0x15FD JUMPI PUSH2 0x15FA DUP2 PUSH2 0x44CF JUMP JUMPDEST SWAP1 POP JUMPDEST PUSH2 0x160B DUP4 PUSH1 0xA0 ADD MLOAD DUP3 PUSH2 0x2B9E JUMP JUMPDEST PUSH1 0x1 PUSH1 0x1 PUSH1 0x80 SHL SUB AND PUSH1 0xA0 DUP5 ADD DUP2 SWAP1 MSTORE PUSH1 0x0 SUB PUSH2 0x163B JUMPI PUSH1 0x40 MLOAD PUSH4 0x4323A555 PUSH1 0xE0 SHL DUP2 MSTORE PUSH1 0x4 ADD PUSH1 0x40 MLOAD DUP1 SWAP2 SUB SWAP1 REVERT JUMPDEST DUP12 PUSH2 0x164A JUMPI DUP2 PUSH1 0x20 ADD MLOAD PUSH2 0x165B JUMP JUMPDEST PUSH1 0x1 DUP3 PUSH1 0x20 ADD MLOAD PUSH2 0x165B SWAP2 SWAP1 PUSH2 0x4544 JUMP JUMPDEST PUSH1 0x2 SIGNEXTEND PUSH1 0x60 DUP5 ADD MSTORE POP PUSH2 0x16A0 JUMP JUMPDEST DUP1 PUSH1 0x0 ADD MLOAD PUSH1 0x1 PUSH1 0x1 PUSH1 0xA0 SHL SUB AND DUP3 PUSH1 0x40 ADD MLOAD PUSH1 0x1 PUSH1 0x1 PUSH1 0xA0 SHL SUB AND EQ PUSH2 0x16A0 JUMPI PUSH2 0x1697 DUP3 PUSH1 0x40 ADD MLOAD PUSH2 0x2BCF JUMP JUMPDEST PUSH1 0x2 SIGNEXTEND PUSH1 0x60 DUP4 ADD MSTORE JUMPDEST POP PUSH2 0x139B JUMP JUMPDEST DUP3 PUSH1 0x20 ADD MLOAD PUSH1 0x2 SIGNEXTEND DUP2 PUSH1 0x60 ADD MLOAD PUSH1 0x2 SIGNEXTEND EQ PUSH2 0x1764 JUMPI PUSH1 0x0 DUP1 PUSH2 0x16E8 DUP6 PUSH1 0x40 ADD MLOAD PUSH2 0x16CD TIMESTAMP SWAP1 JUMP JUMPDEST PUSH1 0x20 DUP9 ADD MLOAD PUSH1 0x60 DUP10 ADD MLOAD PUSH1 0x80 DUP11 ADD MLOAD PUSH1 0x7 SWAP5 SWAP4 SWAP3 SWAP2 SWAP1 PUSH2 0x2F09 JUMP JUMPDEST PUSH1 0x40 DUP6 ADD MLOAD PUSH1 0x60 DUP7 ADD MLOAD PUSH1 0x2 DUP1 SLOAD PUSH4 0xFFFFFFFF PUSH1 0xB8 SHL NOT AND PUSH1 0x1 PUSH1 0xC8 SHL PUSH2 0xFFFF SWAP6 DUP7 AND MUL PUSH2 0xFFFF PUSH1 0xB8 SHL NOT AND OR PUSH1 0x1 PUSH1 0xB8 SHL SWAP6 SWAP1 SWAP5 AND SWAP5 SWAP1 SWAP5 MUL SWAP3 SWAP1 SWAP3 OR PUSH1 0x1 PUSH1 0x1 PUSH1 0xB8 SHL SUB NOT AND PUSH1 0x1 PUSH1 0xA0 SHL PUSH3 0xFFFFFF SWAP1 SWAP4 AND SWAP3 SWAP1 SWAP3 MUL PUSH1 0x1 PUSH1 0x1 PUSH1 0xA0 SHL SUB NOT AND SWAP2 SWAP1 SWAP2 OR PUSH1 0x1 PUSH1 0x1 PUSH1 0xA0 SHL SUB SWAP1 SWAP2 AND OR SWAP1 SSTORE POP PUSH2 0x1789 SWAP1 POP JUMP JUMPDEST PUSH1 0x40 DUP2 ADD MLOAD PUSH1 0x2 DUP1 SLOAD PUSH1 0x1 PUSH1 0x1 PUSH1 0xA0 SHL SUB NOT AND PUSH1 0x1 PUSH1 0x1 PUSH1 0xA0 SHL SUB SWAP1 SWAP3 AND SWAP2 SWAP1 SWAP2 OR SWAP1 SSTORE JUMPDEST DUP1 PUSH1 0xA0 ADD MLOAD PUSH1 0x1 PUSH1 0x1 PUSH1 0x80 SHL SUB AND DUP3 PUSH1 0x1 PUSH1 0x1 PUSH1 0x80 SHL SUB AND EQ PUSH2 0x17CB JUMPI PUSH1 0xA0 DUP2 ADD MLOAD PUSH1 0x3 DUP1 SLOAD PUSH1 0x1 PUSH1 0x1 PUSH1 0x80 SHL SUB NOT AND PUSH1 0x1 PUSH1 0x1 PUSH1 0x80 SHL SUB SWAP1 SWAP3 AND SWAP2 SWAP1 SWAP2 OR SWAP1 SSTORE JUMPDEST DUP10 ISZERO PUSH2 0x17DE JUMPI PUSH1 0x80 DUP2 ADD MLOAD PUSH1 0x0 SSTORE PUSH2 0x17E7 JUMP JUMPDEST PUSH1 0x80 DUP2 ADD MLOAD PUSH1 0x1 SSTORE JUMPDEST DUP10 PUSH2 0x180B JUMPI DUP1 PUSH1 0x20 ADD MLOAD PUSH2 0x17FA SWAP1 PUSH2 0x44F5 JUMP JUMPDEST DUP2 MLOAD PUSH2 0x1806 SWAP1 DUP12 PUSH2 0x4531 JUMP JUMPDEST PUSH2 0x1825 JUMP JUMPDEST DUP1 MLOAD PUSH2 0x1817 SWAP1 DUP11 PUSH2 0x4531 JUMP JUMPDEST DUP2 PUSH1 0x20 ADD MLOAD PUSH2 0x1825 SWAP1 PUSH2 0x44F5 JUMP JUMPDEST SWAP1 SWAP6 POP SWAP4 POP DUP10 ISZERO PUSH2 0x1966 JUMPI PUSH1 0x1 PUSH1 0x1 PUSH1 0xA0 SHL SUB PUSH32 0x0 AND PUSH4 0xA9059CBB DUP13 PUSH2 0x1869 DUP8 PUSH2 0x44F5 JUMP JUMPDEST PUSH1 0x40 MLOAD PUSH1 0x1 PUSH1 0x1 PUSH1 0xE0 SHL SUB NOT PUSH1 0xE0 DUP6 SWAP1 SHL AND DUP2 MSTORE PUSH1 0x1 PUSH1 0x1 PUSH1 0xA0 SHL SUB SWAP1 SWAP3 AND PUSH1 0x4 DUP4 ADD MSTORE PUSH1 0x24 DUP3 ADD MSTORE PUSH1 0x44 ADD PUSH1 0x0 PUSH1 0x40 MLOAD DUP1 DUP4 SUB DUP2 PUSH1 0x0 DUP8 DUP1 EXTCODESIZE ISZERO DUP1 ISZERO PUSH2 0x18AF JUMPI PUSH1 0x0 DUP1 REVERT JUMPDEST POP GAS CALL ISZERO DUP1 ISZERO PUSH2 0x18C3 JUMPI RETURNDATASIZE PUSH1 0x0 DUP1 RETURNDATACOPY RETURNDATASIZE PUSH1 0x0 REVERT JUMPDEST POP POP POP POP PUSH1 0x0 PUSH2 0x18D1 PUSH2 0x1F4B JUMP JUMPDEST PUSH1 0x40 MLOAD PUSH4 0xFA461E33 PUSH1 0xE0 SHL DUP2 MSTORE SWAP1 SWAP2 POP CALLER SWAP1 PUSH4 0xFA461E33 SWAP1 PUSH2 0x18FD SWAP1 DUP10 SWAP1 DUP10 SWAP1 DUP14 SWAP1 DUP14 SWAP1 PUSH1 0x4 ADD PUSH2 0x445C JUMP JUMPDEST PUSH1 0x0 PUSH1 0x40 MLOAD DUP1 DUP4 SUB DUP2 PUSH1 0x0 DUP8 DUP1 EXTCODESIZE ISZERO DUP1 ISZERO PUSH2 0x1917 JUMPI PUSH1 0x0 DUP1 REVERT JUMPDEST POP GAS CALL ISZERO DUP1 ISZERO PUSH2 0x192B JUMPI RETURNDATASIZE PUSH1 0x0 DUP1 RETURNDATACOPY RETURNDATASIZE PUSH1 0x0 REVERT JUMPDEST POP POP POP POP PUSH2 0x1937 PUSH2 0x1F4B JUMP JUMPDEST PUSH2 0x1941 DUP8 DUP4 PUSH2 0x447C JUMP JUMPDEST GT ISZERO PUSH2 0x1960 JUMPI PUSH1 0x40 MLOAD PUSH4 0x98FB561 PUSH1 0xE0 SHL DUP2 MSTORE PUSH1 0x4 ADD PUSH1 0x40 MLOAD DUP1 SWAP2 SUB SWAP1 REVERT JUMPDEST POP PUSH2 0x1A98 JUMP JUMPDEST PUSH1 0x1 PUSH1 0x1 PUSH1 0xA0 SHL SUB PUSH32 0x0 AND PUSH4 0xA9059CBB DUP13 PUSH2 0x199F DUP9 PUSH2 0x44F5 JUMP JUMPDEST PUSH1 0x40 MLOAD PUSH1 0x1 PUSH1 0x1 PUSH1 0xE0 SHL SUB NOT PUSH1 0xE0 DUP6 SWAP1 SHL AND DUP2 MSTORE PUSH1 0x1 PUSH1 0x1 PUSH1 0xA0 SHL SUB SWAP1 SWAP3 AND PUSH1 0x4 DUP4 ADD MSTORE PUSH1 0x24 DUP3 ADD MSTORE PUSH1 0x44 ADD PUSH1 0x0 PUSH1 0x40 MLOAD DUP1 DUP4 SUB DUP2 PUSH1 0x0 DUP8 DUP1 EXTCODESIZE ISZERO DUP1 ISZERO PUSH2 0x19E5 JUMPI PUSH1 0x0 DUP1 REVERT JUMPDEST POP GAS CALL ISZERO DUP1 ISZERO PUSH2 0x19F9 JUMPI RETURNDATASIZE PUSH1 0x0 DUP1 RETURNDATACOPY RETURNDATASIZE PUSH1 0x0 REVERT JUMPDEST POP POP POP POP PUSH1 0x0 PUSH2 0x1A07 PUSH2 0x1FDE JUMP JUMPDEST PUSH1 0x40 MLOAD PUSH4 0xFA461E33 PUSH1 0xE0 SHL DUP2 MSTORE SWAP1 SWAP2 POP CALLER SWAP1 PUSH4 0xFA461E33 SWAP1 PUSH2 0x1A33 SWAP1 DUP10 SWAP1 DUP10 SWAP1 DUP14 SWAP1 DUP14 SWAP1 PUSH1 0x4 ADD PUSH2 0x445C JUMP JUMPDEST PUSH1 0x0 PUSH1 0x40 MLOAD DUP1 DUP4 SUB DUP2 PUSH1 0x0 DUP8 DUP1 EXTCODESIZE ISZERO DUP1 ISZERO PUSH2 0x1A4D JUMPI PUSH1 0x0 DUP1 REVERT JUMPDEST POP GAS CALL ISZERO DUP1 ISZERO PUSH2 0x1A61 JUMPI RETURNDATASIZE PUSH1 0x0 DUP1 RETURNDATACOPY RETURNDATASIZE PUSH1 0x0 REVERT JUMPDEST POP POP POP POP PUSH2 0x1A6D PUSH2 0x1FDE JUMP JUMPDEST PUSH2 0x1A77 DUP7 DUP4 PUSH2 0x447C JUMP JUMPDEST GT ISZERO PUSH2 0x1A96 JUMPI PUSH1 0x40 MLOAD PUSH4 0x98FB561 PUSH1 0xE0 SHL DUP2 MSTORE PUSH1 0x4 ADD PUSH1 0x40 MLOAD DUP1 SWAP2 SUB SWAP1 REVERT JUMPDEST POP JUMPDEST PUSH1 0x2 DUP1 SLOAD PUSH1 0xA0 DUP4 DUP2 ADD MLOAD PUSH1 0x40 DUP1 MLOAD DUP11 DUP2 MSTORE PUSH1 0x20 DUP2 ADD DUP11 SWAP1 MSTORE PUSH1 0x1 PUSH1 0x1 PUSH1 0xA0 SHL SUB DUP1 DUP7 AND DUP3 DUP5 ADD MSTORE PUSH1 0x1 PUSH1 0x1 PUSH1 0x80 SHL SUB SWAP1 SWAP4 AND PUSH1 0x60 DUP3 ADD MSTORE PUSH1 0x1 PUSH1 0xA0 SHL SWAP1 SWAP5 DIV SWAP1 SWAP5 SIGNEXTEND PUSH1 0x80 DUP5 ADD MSTORE SWAP3 MLOAD SWAP3 DUP15 AND SWAP3 CALLER SWAP3 PUSH32 0xC42079F94A6350D7E6235F29174924F928CC2AC818EB64FED8004E115FBCCA67 SWAP3 SWAP1 DUP3 SWAP1 SUB ADD SWAP1 LOG3 POP POP POP SWAP7 POP SWAP7 SWAP5 POP POP POP POP POP JUMP JUMPDEST PUSH1 0x2 SLOAD PUSH1 0x1 PUSH1 0x1 PUSH1 0xA0 SHL SUB AND ISZERO PUSH2 0x1B47 JUMPI PUSH1 0x40 MLOAD PUSH3 0xDC149F PUSH1 0xE4 SHL DUP2 MSTORE PUSH1 0x4 ADD PUSH1 0x40 MLOAD DUP1 SWAP2 SUB SWAP1 REVERT JUMPDEST PUSH1 0x0 PUSH2 0x1B52 DUP3 PUSH2 0x304E JUMP JUMPDEST SWAP1 POP PUSH1 0x0 PUSH2 0x1B5F DUP3 PUSH2 0x2BCF JUMP JUMPDEST SWAP1 POP PUSH1 0x0 DUP1 PUSH2 0x1BB1 TIMESTAMP PUSH1 0x7 SWAP1 PUSH1 0x40 DUP1 MLOAD PUSH1 0x60 DUP2 ADD DUP3 MSTORE PUSH4 0xFFFFFFFF SWAP3 SWAP1 SWAP3 AND DUP1 DUP4 MSTORE PUSH1 0x0 PUSH1 0x20 DUP5 ADD MSTORE PUSH1 0x1 SWAP3 SWAP1 SWAP2 ADD DUP3 SWAP1 MSTORE DUP3 SLOAD PUSH12 0xFFFFFFFFFFFFFFFFFFFFFFFF NOT AND OR PUSH1 0x1 PUSH1 0x58 SHL OR SWAP1 SWAP2 SSTORE SWAP1 DUP2 SWAP1 JUMP JUMPDEST PUSH1 0x40 DUP1 MLOAD PUSH1 0xA0 DUP2 ADD DUP3 MSTORE PUSH1 0x1 PUSH1 0x1 PUSH1 0xA0 SHL SUB SWAP8 SWAP1 SWAP8 AND DUP1 DUP9 MSTORE PUSH1 0x2 DUP8 DUP2 SIGNEXTEND PUSH1 0x20 DUP11 ADD MSTORE PUSH1 0x0 SWAP3 DUP10 ADD SWAP3 SWAP1 SWAP3 MSTORE PUSH2 0xFFFF SWAP4 DUP5 AND PUSH1 0x60 DUP10 ADD DUP2 SWAP1 MSTORE SWAP3 SWAP1 SWAP4 AND PUSH1 0x80 SWAP1 SWAP8 ADD DUP8 SWAP1 MSTORE DUP1 SLOAD PUSH1 0x1 PUSH1 0x1 PUSH1 0xB8 SHL SUB NOT AND SWAP1 SWAP3 OR PUSH1 0x1 PUSH1 0xA0 SHL PUSH3 0xFFFFFF SWAP1 SWAP7 AND SWAP6 SWAP1 SWAP6 MUL SWAP5 SWAP1 SWAP5 OR PUSH6 0xFFFFFFFFFFFF PUSH1 0xB8 SHL NOT AND PUSH1 0x1 PUSH1 0xC8 SHL SWAP1 SWAP5 MUL PUSH2 0xFFFF PUSH1 0xD8 SHL NOT AND SWAP4 SWAP1 SWAP4 OR PUSH1 0x1 PUSH1 0xD8 SHL SWAP1 SWAP5 MUL SWAP4 SWAP1 SWAP4 OR SWAP1 SWAP2 SSTORE POP POP POP JUMP JUMPDEST PUSH1 0x0 DUP3 PUSH2 0xFFFF AND DUP3 PUSH2 0xFFFF AND GT PUSH2 0x1C65 JUMPI POP DUP2 PUSH2 0x1CC0 JUMP JUMPDEST DUP3 JUMPDEST DUP3 PUSH2 0xFFFF AND DUP2 PUSH2 0xFFFF AND LT ISZERO PUSH2 0x1CBB JUMPI PUSH1 0x1 DUP6 DUP3 PUSH2 0xFFFF AND PUSH2 0xFFFF DUP2 LT PUSH2 0x1C90 JUMPI PUSH2 0x1C90 PUSH2 0x4569 JUMP JUMPDEST ADD DUP1 SLOAD PUSH4 0xFFFFFFFF NOT AND PUSH4 0xFFFFFFFF SWAP3 SWAP1 SWAP3 AND SWAP2 SWAP1 SWAP2 OR SWAP1 SSTORE DUP1 PUSH2 0x1CB3 DUP2 PUSH2 0x457F JUMP JUMPDEST SWAP2 POP POP PUSH2 0x1C67 JUMP JUMPDEST POP DUP2 SWAP1 POP JUMPDEST SWAP4 SWAP3 POP POP POP JUMP JUMPDEST PUSH1 0x40 DUP1 MLOAD PUSH1 0xA0 DUP2 ADD DUP3 MSTORE PUSH1 0x2 DUP1 SLOAD PUSH1 0x1 PUSH1 0x1 PUSH1 0xA0 SHL SUB DUP2 AND DUP4 MSTORE PUSH1 0x1 PUSH1 0xA0 SHL DUP2 DIV SWAP1 SWAP2 SIGNEXTEND PUSH1 0x20 DUP1 DUP5 ADD SWAP2 SWAP1 SWAP2 MSTORE PUSH2 0xFFFF PUSH1 0x1 PUSH1 0xB8 SHL DUP4 DIV DUP2 AND DUP5 DUP7 ADD MSTORE PUSH1 0x1 PUSH1 0xC8 SHL DUP4 DIV DUP2 AND PUSH1 0x60 DUP6 ADD MSTORE PUSH1 0x1 PUSH1 0xD8 SHL SWAP1 SWAP3 DIV SWAP1 SWAP2 AND PUSH1 0x80 DUP4 ADD MSTORE PUSH1 0x0 DUP1 SLOAD PUSH1 0x1 SLOAD DUP7 MLOAD SWAP4 DUP8 ADD MLOAD SWAP6 DUP8 ADD MLOAD SWAP3 SWAP6 DUP7 SWAP6 DUP7 SWAP6 SWAP1 SWAP5 PUSH2 0x1D48 SWAP3 PUSH1 0x6 SWAP3 SWAP2 PUSH2 0x2076 JUMP JUMPDEST PUSH1 0x20 DUP1 DUP10 ADD MLOAD SWAP1 DUP6 ADD MLOAD PUSH1 0x60 DUP11 ADD MLOAD SWAP3 SWAP9 POP PUSH1 0x0 SWAP3 PUSH2 0x1D6E SWAP3 PUSH1 0x4 SWAP3 SWAP1 SWAP2 DUP8 DUP8 DUP8 PUSH2 0x307B JUMP JUMPDEST PUSH1 0x40 DUP10 ADD MLOAD PUSH1 0x20 DUP7 ADD MLOAD PUSH1 0x60 DUP12 ADD MLOAD SWAP3 SWAP4 POP PUSH1 0x0 SWAP3 PUSH2 0x1D95 SWAP3 PUSH1 0x4 SWAP3 SWAP1 SWAP2 DUP9 DUP9 PUSH1 0x1 PUSH2 0x307B JUMP JUMPDEST SWAP1 POP DUP2 ISZERO PUSH2 0x1DCF JUMPI PUSH1 0x20 DUP10 ADD MLOAD PUSH2 0x1DCF SWAP1 PUSH1 0x5 SWAP1 PUSH32 0x0 PUSH2 0x3182 JUMP JUMPDEST DUP1 ISZERO PUSH2 0x1E07 JUMPI PUSH1 0x40 DUP10 ADD MLOAD PUSH2 0x1E07 SWAP1 PUSH1 0x5 SWAP1 PUSH32 0x0 PUSH2 0x3182 JUMP JUMPDEST PUSH1 0x20 DUP1 DUP11 ADD MLOAD PUSH1 0x40 DUP12 ADD MLOAD SWAP2 DUP8 ADD MLOAD PUSH1 0x0 SWAP3 DUP4 SWAP3 PUSH2 0x1E2A SWAP3 PUSH1 0x4 SWAP3 SWAP1 DUP11 DUP11 PUSH2 0x20D3 JUMP JUMPDEST PUSH1 0x60 DUP14 ADD MLOAD SWAP2 SWAP4 POP SWAP2 POP PUSH2 0x1E41 SWAP1 DUP12 SWAP1 DUP5 DUP5 PUSH2 0x3218 JUMP JUMPDEST DUP11 PUSH1 0x20 ADD MLOAD PUSH1 0x2 SIGNEXTEND DUP8 PUSH1 0x20 ADD MLOAD PUSH1 0x2 SIGNEXTEND SLT ISZERO PUSH2 0x1E85 JUMPI PUSH2 0x1E7E PUSH2 0x1E67 DUP13 PUSH1 0x20 ADD MLOAD PUSH2 0x252B JUMP JUMPDEST PUSH2 0x1E74 DUP14 PUSH1 0x40 ADD MLOAD PUSH2 0x252B JUMP JUMPDEST DUP14 PUSH1 0x60 ADD MLOAD PUSH2 0x334D JUMP JUMPDEST SWAP9 POP PUSH2 0x1F3D JUMP JUMPDEST DUP11 PUSH1 0x40 ADD MLOAD PUSH1 0x2 SIGNEXTEND DUP8 PUSH1 0x20 ADD MLOAD PUSH1 0x2 SIGNEXTEND SLT ISZERO PUSH2 0x1F13 JUMPI PUSH2 0x1EB0 DUP8 PUSH1 0x0 ADD MLOAD PUSH2 0x1E74 DUP14 PUSH1 0x40 ADD MLOAD PUSH2 0x252B JUMP JUMPDEST SWAP9 POP PUSH2 0x1ECE PUSH2 0x1EC2 DUP13 PUSH1 0x20 ADD MLOAD PUSH2 0x252B JUMP JUMPDEST DUP9 MLOAD PUSH1 0x60 DUP15 ADD MLOAD PUSH2 0x3389 JUMP JUMPDEST PUSH1 0x3 SLOAD PUSH1 0x60 DUP14 ADD MLOAD SWAP2 SWAP10 POP PUSH2 0x1EEE SWAP2 PUSH1 0x1 PUSH1 0x1 PUSH1 0x80 SHL SUB SWAP1 SWAP2 AND SWAP1 PUSH2 0x2B9E JUMP JUMPDEST PUSH1 0x3 DUP1 SLOAD PUSH1 0x1 PUSH1 0x1 PUSH1 0x80 SHL SUB NOT AND PUSH1 0x1 PUSH1 0x1 PUSH1 0x80 SHL SUB SWAP3 SWAP1 SWAP3 AND SWAP2 SWAP1 SWAP2 OR SWAP1 SSTORE PUSH2 0x1F3D JUMP JUMPDEST PUSH2 0x1F3A PUSH2 0x1F23 DUP13 PUSH1 0x20 ADD MLOAD PUSH2 0x252B JUMP JUMPDEST PUSH2 0x1F30 DUP14 PUSH1 0x40 ADD MLOAD PUSH2 0x252B JUMP JUMPDEST DUP14 PUSH1 0x60 ADD MLOAD PUSH2 0x3389 JUMP JUMPDEST SWAP8 POP JUMPDEST POP POP POP POP POP POP POP SWAP2 SWAP4 SWAP1 SWAP3 POP JUMP JUMPDEST PUSH1 0x40 MLOAD PUSH4 0x70A08231 PUSH1 0xE0 SHL DUP2 MSTORE ADDRESS PUSH1 0x4 DUP3 ADD MSTORE PUSH1 0x0 SWAP1 PUSH32 0x0 PUSH1 0x1 PUSH1 0x1 PUSH1 0xA0 SHL SUB AND SWAP1 PUSH4 0x70A08231 SWAP1 PUSH1 0x24 ADD JUMPDEST PUSH1 0x20 PUSH1 0x40 MLOAD DUP1 DUP4 SUB DUP2 PUSH1 0x0 DUP8 GAS CALL ISZERO DUP1 ISZERO PUSH2 0x1FB5 JUMPI RETURNDATASIZE PUSH1 0x0 DUP1 RETURNDATACOPY RETURNDATASIZE PUSH1 0x0 REVERT JUMPDEST POP POP POP POP PUSH1 0x40 MLOAD RETURNDATASIZE PUSH1 0x1F NOT PUSH1 0x1F DUP3 ADD AND DUP3 ADD DUP1 PUSH1 0x40 MSTORE POP DUP2 ADD SWAP1 PUSH2 0x1FD9 SWAP2 SWAP1 PUSH2 0x448F JUMP JUMPDEST SWAP1 POP SWAP1 JUMP JUMPDEST PUSH1 0x40 MLOAD PUSH4 0x70A08231 PUSH1 0xE0 SHL DUP2 MSTORE ADDRESS PUSH1 0x4 DUP3 ADD MSTORE PUSH1 0x0 SWAP1 PUSH32 0x0 PUSH1 0x1 PUSH1 0x1 PUSH1 0xA0 SHL SUB AND SWAP1 PUSH4 0x70A08231 SWAP1 PUSH1 0x24 ADD PUSH2 0x1F96 JUMP JUMPDEST PUSH1 0x0 PUSH2 0x203A DUP5 DUP5 DUP5 PUSH2 0x2A84 JUMP JUMPDEST SWAP1 POP PUSH1 0x0 DUP3 DUP1 PUSH2 0x204C JUMPI PUSH2 0x204C PUSH2 0x45A0 JUMP JUMPDEST DUP5 DUP7 MULMOD GT ISZERO PUSH2 0x1CC0 JUMPI PUSH1 0x0 NOT DUP2 LT PUSH2 0x2063 JUMPI PUSH1 0x0 DUP1 REVERT JUMPDEST DUP1 PUSH2 0x206D DUP2 PUSH2 0x45B6 JUMP JUMPDEST SWAP6 SWAP5 POP POP POP POP POP JUMP JUMPDEST PUSH1 0x40 DUP1 MLOAD PUSH1 0x60 SWAP5 SWAP1 SWAP5 SHL PUSH12 0xFFFFFFFFFFFFFFFFFFFFFFFF NOT AND PUSH1 0x20 DUP1 DUP7 ADD SWAP2 SWAP1 SWAP2 MSTORE PUSH1 0xE8 SWAP4 DUP5 SHL PUSH1 0x34 DUP7 ADD MSTORE SWAP2 SWAP1 SWAP3 SHL PUSH1 0x37 DUP5 ADD MSTORE DUP2 MLOAD PUSH1 0x1A DUP2 DUP6 SUB ADD DUP2 MSTORE PUSH1 0x3A SWAP1 SWAP4 ADD DUP3 MSTORE DUP3 MLOAD SWAP3 DUP2 ADD SWAP3 SWAP1 SWAP3 KECCAK256 PUSH1 0x0 SWAP1 DUP2 MSTORE SWAP3 SWAP1 SWAP2 MSTORE SWAP1 KECCAK256 SWAP1 JUMP JUMPDEST PUSH1 0x2 DUP6 DUP2 SIGNEXTEND PUSH1 0x0 DUP2 DUP2 MSTORE PUSH1 0x20 DUP10 SWAP1 MSTORE PUSH1 0x40 DUP1 DUP3 KECCAK256 DUP9 DUP6 SIGNEXTEND DUP4 MSTORE SWAP1 DUP3 KECCAK256 SWAP2 SWAP4 DUP5 SWAP4 SWAP2 SWAP3 SWAP2 DUP5 SWAP2 DUP3 SWAP2 SWAP1 DUP11 SWAP1 SIGNEXTEND SLT PUSH2 0x2114 JUMPI POP POP PUSH1 0x2 DUP3 ADD SLOAD PUSH1 0x3 DUP4 ADD SLOAD PUSH2 0x2138 JUMP JUMPDEST PUSH1 0x2 DUP5 ADD SLOAD PUSH2 0x2123 SWAP1 DUP10 PUSH2 0x4531 JUMP JUMPDEST SWAP2 POP DUP4 PUSH1 0x3 ADD SLOAD DUP8 PUSH2 0x2135 SWAP2 SWAP1 PUSH2 0x4531 JUMP JUMPDEST SWAP1 POP JUMPDEST PUSH1 0x0 DUP1 DUP12 PUSH1 0x2 SIGNEXTEND DUP12 PUSH1 0x2 SIGNEXTEND SLT ISZERO PUSH2 0x215A JUMPI POP POP PUSH1 0x2 DUP4 ADD SLOAD PUSH1 0x3 DUP5 ADD SLOAD PUSH2 0x217E JUMP JUMPDEST PUSH1 0x2 DUP6 ADD SLOAD PUSH2 0x2169 SWAP1 DUP12 PUSH2 0x4531 JUMP JUMPDEST SWAP2 POP DUP5 PUSH1 0x3 ADD SLOAD DUP10 PUSH2 0x217B SWAP2 SWAP1 PUSH2 0x4531 JUMP JUMPDEST SWAP1 POP JUMPDEST DUP2 PUSH2 0x2189 DUP6 DUP13 PUSH2 0x4531 JUMP JUMPDEST PUSH2 0x2193 SWAP2 SWAP1 PUSH2 0x4531 JUMP JUMPDEST SWAP8 POP DUP1 PUSH2 0x21A0 DUP5 DUP12 PUSH2 0x4531 JUMP JUMPDEST PUSH2 0x21AA SWAP2 SWAP1 PUSH2 0x4531 JUMP JUMPDEST SWAP7 POP POP POP POP POP POP POP SWAP7 POP SWAP7 SWAP5 POP POP POP POP POP JUMP JUMPDEST PUSH1 0x0 DUP1 PUSH1 0x0 PUSH2 0x21EA DUP7 PUSH1 0x1 ADD SLOAD DUP7 PUSH2 0x21D5 SWAP2 SWAP1 PUSH2 0x4531 JUMP JUMPDEST DUP8 SLOAD PUSH1 0x1 PUSH1 0x1 PUSH1 0x80 SHL SUB AND PUSH1 0x1 PUSH1 0x80 SHL PUSH2 0x2A84 JUMP JUMPDEST SWAP1 POP PUSH1 0x0 PUSH2 0x2216 DUP8 PUSH1 0x2 ADD SLOAD DUP7 PUSH2 0x2201 SWAP2 SWAP1 PUSH2 0x4531 JUMP JUMPDEST DUP9 SLOAD PUSH1 0x1 PUSH1 0x1 PUSH1 0x80 SHL SUB AND PUSH1 0x1 PUSH1 0x80 SHL PUSH2 0x2A84 JUMP JUMPDEST SWAP1 POP PUSH1 0x0 DUP3 PUSH1 0x1 PUSH1 0x1 PUSH1 0x80 SHL SUB AND GT DUP1 PUSH2 0x2239 JUMPI POP PUSH1 0x0 DUP2 PUSH1 0x1 PUSH1 0x1 PUSH1 0x80 SHL SUB AND GT JUMPDEST ISZERO PUSH2 0x228C JUMPI PUSH1 0x3 DUP8 ADD SLOAD PUSH2 0x2257 SWAP1 DUP4 SWAP1 PUSH1 0x1 PUSH1 0x1 PUSH1 0x80 SHL SUB AND PUSH2 0x4511 JUMP JUMPDEST PUSH1 0x3 DUP9 ADD SLOAD PUSH1 0x1 PUSH1 0x1 PUSH1 0x80 SHL SUB SWAP2 DUP3 AND SWAP6 POP PUSH2 0x227C SWAP2 DUP4 SWAP2 PUSH1 0x1 PUSH1 0x80 SHL SWAP1 DIV AND PUSH2 0x4511 JUMP JUMPDEST PUSH1 0x1 PUSH1 0x1 PUSH1 0x80 SHL SUB AND SWAP3 POP PUSH2 0x22A5 JUMP JUMPDEST DUP2 PUSH1 0x1 PUSH1 0x1 PUSH1 0x80 SHL SUB AND SWAP4 POP DUP1 PUSH1 0x1 PUSH1 0x1 PUSH1 0x80 SHL SUB AND SWAP3 POP JUMPDEST POP POP SWAP4 POP SWAP4 SWAP2 POP POP JUMP JUMPDEST PUSH1 0x60 DUP5 MLOAD PUSH8 0xFFFFFFFFFFFFFFFF DUP2 GT ISZERO PUSH2 0x22CB JUMPI PUSH2 0x22CB PUSH2 0x45CF JUMP JUMPDEST PUSH1 0x40 MLOAD SWAP1 DUP1 DUP3 MSTORE DUP1 PUSH1 0x20 MUL PUSH1 0x20 ADD DUP3 ADD PUSH1 0x40 MSTORE DUP1 ISZERO PUSH2 0x22F4 JUMPI DUP2 PUSH1 0x20 ADD PUSH1 0x20 DUP3 MUL DUP1 CALLDATASIZE DUP4 CALLDATACOPY ADD SWAP1 POP JUMPDEST POP SWAP1 POP PUSH1 0x0 JUMPDEST DUP6 MLOAD DUP2 LT ISZERO PUSH2 0x2363 JUMPI PUSH2 0x232A DUP9 DUP9 DUP9 DUP5 DUP2 MLOAD DUP2 LT PUSH2 0x231A JUMPI PUSH2 0x231A PUSH2 0x4569 JUMP JUMPDEST PUSH1 0x20 MUL PUSH1 0x20 ADD ADD MLOAD DUP9 DUP9 DUP9 PUSH2 0x33B7 JUMP JUMPDEST DUP3 DUP3 DUP2 MLOAD DUP2 LT PUSH2 0x233C JUMPI PUSH2 0x233C PUSH2 0x4569 JUMP JUMPDEST PUSH1 0x20 MUL PUSH1 0x20 ADD ADD SWAP1 PUSH1 0x6 SIGNEXTEND SWAP1 DUP2 PUSH1 0x6 SIGNEXTEND DUP2 MSTORE POP POP DUP1 DUP1 PUSH2 0x235B SWAP1 PUSH2 0x45B6 JUMP JUMPDEST SWAP2 POP POP PUSH2 0x22FA JUMP JUMPDEST POP SWAP7 SWAP6 POP POP POP POP POP POP JUMP JUMPDEST PUSH1 0x0 DUP1 DUP1 PUSH2 0x237C DUP6 DUP8 PUSH2 0x45E5 JUMP JUMPDEST SWAP1 POP PUSH1 0x0 DUP7 PUSH1 0x2 SIGNEXTEND SLT DUP1 ISZERO PUSH2 0x239C JUMPI POP PUSH2 0x2396 DUP6 DUP8 PUSH2 0x461F JUMP JUMPDEST PUSH1 0x2 SIGNEXTEND ISZERO ISZERO JUMPDEST ISZERO PUSH2 0x23AF JUMPI DUP1 PUSH2 0x23AB DUP2 PUSH2 0x4641 JUMP JUMPDEST SWAP2 POP POP JUMPDEST DUP4 ISZERO PUSH2 0x245C JUMPI PUSH1 0x0 DUP1 PUSH2 0x23C1 DUP4 PUSH2 0x352B JUMP JUMPDEST SWAP1 SWAP3 POP SWAP1 POP PUSH1 0x0 PUSH1 0x1 PUSH1 0xFF DUP4 AND DUP2 SWAP1 SHL SWAP1 PUSH2 0x23DC SWAP1 DUP3 PUSH2 0x4531 JUMP JUMPDEST PUSH2 0x23E6 SWAP2 SWAP1 PUSH2 0x447C JUMP JUMPDEST PUSH1 0x1 DUP5 SWAP1 SIGNEXTEND PUSH1 0x0 SWAP1 DUP2 MSTORE PUSH1 0x20 DUP13 SWAP1 MSTORE PUSH1 0x40 SWAP1 KECCAK256 SLOAD DUP2 AND DUP1 ISZERO ISZERO SWAP7 POP SWAP1 SWAP2 POP DUP6 PUSH2 0x2426 JUMPI DUP9 PUSH2 0x2417 PUSH1 0xFF DUP6 AND DUP8 PUSH2 0x4544 JUMP JUMPDEST PUSH2 0x2421 SWAP2 SWAP1 PUSH2 0x4664 JUMP JUMPDEST PUSH2 0x2451 JUMP JUMPDEST DUP9 PUSH2 0x2430 DUP3 PUSH2 0x3548 JUMP JUMPDEST PUSH2 0x243A SWAP1 DUP6 PUSH2 0x4684 JUMP JUMPDEST PUSH2 0x2447 SWAP1 PUSH1 0xFF AND DUP8 PUSH2 0x4544 JUMP JUMPDEST PUSH2 0x2451 SWAP2 SWAP1 PUSH2 0x4664 JUMP JUMPDEST SWAP7 POP POP POP POP POP PUSH2 0x2521 JUMP JUMPDEST PUSH1 0x0 DUP1 PUSH2 0x2472 PUSH2 0x246D DUP5 PUSH1 0x1 PUSH2 0x469D JUMP JUMPDEST PUSH2 0x352B JUMP JUMPDEST SWAP1 SWAP3 POP SWAP1 POP PUSH1 0x0 PUSH2 0x248A PUSH1 0x1 PUSH1 0xFF DUP5 AND DUP2 SWAP1 SHL PUSH2 0x4531 JUMP JUMPDEST PUSH1 0x1 DUP5 SWAP1 SIGNEXTEND PUSH1 0x0 SWAP1 DUP2 MSTORE PUSH1 0x20 DUP13 SWAP1 MSTORE PUSH1 0x40 SWAP1 KECCAK256 SLOAD SWAP1 NOT SWAP1 DUP2 AND DUP1 ISZERO ISZERO SWAP7 POP SWAP1 SWAP2 POP DUP6 PUSH2 0x24E3 JUMPI DUP9 PUSH2 0x24BC DUP5 PUSH1 0xFF PUSH2 0x4684 JUMP JUMPDEST PUSH1 0xFF AND PUSH2 0x24CA DUP8 PUSH1 0x1 PUSH2 0x469D JUMP JUMPDEST PUSH2 0x24D4 SWAP2 SWAP1 PUSH2 0x469D JUMP JUMPDEST PUSH2 0x24DE SWAP2 SWAP1 PUSH2 0x4664 JUMP JUMPDEST PUSH2 0x251A JUMP JUMPDEST DUP9 DUP4 PUSH2 0x24EE DUP4 PUSH2 0x363A JUMP JUMPDEST PUSH2 0x24F8 SWAP2 SWAP1 PUSH2 0x4684 JUMP JUMPDEST PUSH1 0xFF AND PUSH2 0x2506 DUP8 PUSH1 0x1 PUSH2 0x469D JUMP JUMPDEST PUSH2 0x2510 SWAP2 SWAP1 PUSH2 0x469D JUMP JUMPDEST PUSH2 0x251A SWAP2 SWAP1 PUSH2 0x4664 JUMP JUMPDEST SWAP7 POP POP POP POP POP JUMPDEST POP SWAP5 POP SWAP5 SWAP3 POP POP POP JUMP JUMPDEST PUSH1 0x0 DUP1 PUSH1 0x0 DUP4 PUSH1 0x2 SIGNEXTEND SLT PUSH2 0x2542 JUMPI DUP3 PUSH1 0x2 SIGNEXTEND PUSH2 0x254F JUMP JUMPDEST DUP3 PUSH1 0x2 SIGNEXTEND PUSH2 0x254F SWAP1 PUSH2 0x44F5 JUMP JUMPDEST SWAP1 POP PUSH2 0x255E PUSH3 0xD89E7 NOT PUSH2 0x4411 JUMP JUMPDEST PUSH3 0xFFFFFF AND DUP2 GT ISZERO PUSH2 0x259B JUMPI PUSH1 0x40 MLOAD PUSH3 0x461BCD PUSH1 0xE5 SHL DUP2 MSTORE PUSH1 0x20 PUSH1 0x4 DUP3 ADD MSTORE PUSH1 0x1 PUSH1 0x24 DUP3 ADD MSTORE PUSH1 0x15 PUSH1 0xFA SHL PUSH1 0x44 DUP3 ADD MSTORE PUSH1 0x64 ADD JUMPDEST PUSH1 0x40 MLOAD DUP1 SWAP2 SUB SWAP1 REVERT JUMPDEST PUSH1 0x0 DUP2 PUSH1 0x1 AND PUSH1 0x0 SUB PUSH2 0x25B2 JUMPI PUSH1 0x1 PUSH1 0x80 SHL PUSH2 0x25C4 JUMP JUMPDEST PUSH16 0xFFFCB933BD6FAD37AA2D162D1A594001 JUMPDEST PUSH17 0xFFFFFFFFFFFFFFFFFFFFFFFFFFFFFFFFFF AND SWAP1 POP PUSH1 0x2 DUP3 AND ISZERO PUSH2 0x2603 JUMPI PUSH1 0x80 PUSH2 0x25FE DUP3 PUSH16 0xFFF97272373D413259A46990580E213A PUSH2 0x46C2 JUMP JUMPDEST SWAP1 SHR SWAP1 POP JUMPDEST PUSH1 0x4 DUP3 AND ISZERO PUSH2 0x262D JUMPI PUSH1 0x80 PUSH2 0x2628 DUP3 PUSH16 0xFFF2E50F5F656932EF12357CF3C7FDCC PUSH2 0x46C2 JUMP JUMPDEST SWAP1 SHR SWAP1 POP JUMPDEST PUSH1 0x8 DUP3 AND ISZERO PUSH2 0x2657 JUMPI PUSH1 0x80 PUSH2 0x2652 DUP3 PUSH16 0xFFE5CACA7E10E4E61C3624EAA0941CD0 PUSH2 0x46C2 JUMP JUMPDEST SWAP1 SHR SWAP1 POP JUMPDEST PUSH1 0x10 DUP3 AND ISZERO PUSH2 0x2681 JUMPI PUSH1 0x80 PUSH2 0x267C DUP3 PUSH16 0xFFCB9843D60F6159C9DB58835C926644 PUSH2 0x46C2 JUMP JUMPDEST SWAP1 SHR SWAP1 POP JUMPDEST PUSH1 0x20 DUP3 AND ISZERO PUSH2 0x26AB JUMPI PUSH1 0x80 PUSH2 0x26A6 DUP3 PUSH16 0xFF973B41FA98C081472E6896DFB254C0 PUSH2 0x46C2 JUMP JUMPDEST SWAP1 SHR SWAP1 POP JUMPDEST PUSH1 0x40 DUP3 AND ISZERO PUSH2 0x26D5 JUMPI PUSH1 0x80 PUSH2 0x26D0 DUP3 PUSH16 0xFF2EA16466C96A3843EC78B326B52861 PUSH2 0x46C2 JUMP JUMPDEST SWAP1 SHR SWAP1 POP JUMPDEST PUSH1 0x80 DUP3 AND ISZERO PUSH2 0x26FF JUMPI PUSH1 0x80 PUSH2 0x26FA DUP3 PUSH16 0xFE5DEE046A99A2A811C461F1969C3053 PUSH2 0x46C2 JUMP JUMPDEST SWAP1 SHR SWAP1 POP JUMPDEST PUSH2 0x100 DUP3 AND ISZERO PUSH2 0x272A JUMPI PUSH1 0x80 PUSH2 0x2725 DUP3 PUSH16 0xFCBE86C7900A88AEDCFFC83B479AA3A4 PUSH2 0x46C2 JUMP JUMPDEST SWAP1 SHR SWAP1 POP JUMPDEST PUSH2 0x200 DUP3 AND ISZERO PUSH2 0x2755 JUMPI PUSH1 0x80 PUSH2 0x2750 DUP3 PUSH16 0xF987A7253AC413176F2B074CF7815E54 PUSH2 0x46C2 JUMP JUMPDEST SWAP1 SHR SWAP1 POP JUMPDEST PUSH2 0x400 DUP3 AND ISZERO PUSH2 0x2780 JUMPI PUSH1 0x80 PUSH2 0x277B DUP3 PUSH16 0xF3392B0822B70005940C7A398E4B70F3 PUSH2 0x46C2 JUMP JUMPDEST SWAP1 SHR SWAP1 POP JUMPDEST PUSH2 0x800 DUP3 AND ISZERO PUSH2 0x27AB JUMPI PUSH1 0x80 PUSH2 0x27A6 DUP3 PUSH16 0xE7159475A2C29B7443B29C7FA6E889D9 PUSH2 0x46C2 JUMP JUMPDEST SWAP1 SHR SWAP1 POP JUMPDEST PUSH2 0x1000 DUP3 AND ISZERO PUSH2 0x27D6 JUMPI PUSH1 0x80 PUSH2 0x27D1 DUP3 PUSH16 0xD097F3BDFD2022B8845AD8F792AA5825 PUSH2 0x46C2 JUMP JUMPDEST SWAP1 SHR SWAP1 POP JUMPDEST PUSH2 0x2000 DUP3 AND ISZERO PUSH2 0x2801 JUMPI PUSH1 0x80 PUSH2 0x27FC DUP3 PUSH16 0xA9F746462D870FDF8A65DC1F90E061E5 PUSH2 0x46C2 JUMP JUMPDEST SWAP1 SHR SWAP1 POP JUMPDEST PUSH2 0x4000 DUP3 AND ISZERO PUSH2 0x282C JUMPI PUSH1 0x80 PUSH2 0x2827 DUP3 PUSH16 0x70D869A156D2A1B890BB3DF62BAF32F7 PUSH2 0x46C2 JUMP JUMPDEST SWAP1 SHR SWAP1 POP JUMPDEST PUSH2 0x8000 DUP3 AND ISZERO PUSH2 0x2857 JUMPI PUSH1 0x80 PUSH2 0x2852 DUP3 PUSH16 0x31BE135F97D08FD981231505542FCFA6 PUSH2 0x46C2 JUMP JUMPDEST SWAP1 SHR SWAP1 POP JUMPDEST PUSH3 0x10000 DUP3 AND ISZERO PUSH2 0x2883 JUMPI PUSH1 0x80 PUSH2 0x287E DUP3 PUSH16 0x9AA508B5B7A84E1C677DE54F3E99BC9 PUSH2 0x46C2 JUMP JUMPDEST SWAP1 SHR SWAP1 POP JUMPDEST PUSH3 0x20000 DUP3 AND ISZERO PUSH2 0x28AE JUMPI PUSH1 0x80 PUSH2 0x28A9 DUP3 PUSH15 0x5D6AF8DEDB81196699C329225EE604 PUSH2 0x46C2 JUMP JUMPDEST SWAP1 SHR SWAP1 POP JUMPDEST PUSH3 0x40000 DUP3 AND ISZERO PUSH2 0x28D8 JUMPI PUSH1 0x80 PUSH2 0x28D3 DUP3 PUSH14 0x2216E584F5FA1EA926041BEDFE98 PUSH2 0x46C2 JUMP JUMPDEST SWAP1 SHR SWAP1 POP JUMPDEST PUSH3 0x80000 DUP3 AND ISZERO PUSH2 0x2900 JUMPI PUSH1 0x80 PUSH2 0x28FB DUP3 PUSH12 0x48A170391F7DC42444E8FA2 PUSH2 0x46C2 JUMP JUMPDEST SWAP1 SHR SWAP1 POP JUMPDEST PUSH1 0x0 DUP5 PUSH1 0x2 SIGNEXTEND SGT ISZERO PUSH2 0x291B JUMPI PUSH2 0x2918 DUP2 PUSH1 0x0 NOT PUSH2 0x46D9 JUMP JUMPDEST SWAP1 POP JUMPDEST PUSH2 0x2929 PUSH1 0x1 PUSH1 0x20 SHL DUP3 PUSH2 0x46ED JUMP JUMPDEST ISZERO PUSH2 0x2935 JUMPI PUSH1 0x1 PUSH2 0x2938 JUMP JUMPDEST PUSH1 0x0 JUMPDEST PUSH2 0x2949 SWAP1 PUSH1 0xFF AND PUSH1 0x20 DUP4 SWAP1 SHR PUSH2 0x447C JUMP JUMPDEST SWAP5 SWAP4 POP POP POP POP JUMP JUMPDEST PUSH1 0x0 DUP1 DUP1 DUP1 PUSH1 0x1 PUSH1 0x1 PUSH1 0xA0 SHL SUB DUP1 DUP10 AND SWAP1 DUP11 AND LT ISZERO DUP2 PUSH2 0x2986 DUP9 PUSH2 0x2978 DUP10 PUSH3 0xF4240 PUSH2 0x4701 JUMP JUMPDEST PUSH3 0xFFFFFF AND PUSH3 0xF4240 PUSH2 0x2A84 JUMP JUMPDEST SWAP1 POP DUP2 PUSH2 0x299F JUMPI PUSH2 0x299A DUP12 DUP12 DUP12 PUSH1 0x1 PUSH2 0x3765 JUMP JUMPDEST PUSH2 0x29AC JUMP JUMPDEST PUSH2 0x29AC DUP12 DUP12 DUP12 PUSH1 0x1 PUSH2 0x37E6 JUMP JUMPDEST SWAP5 POP DUP5 DUP2 LT PUSH2 0x29BD JUMPI DUP10 SWAP6 POP PUSH2 0x29CC JUMP JUMPDEST PUSH2 0x29C9 DUP12 DUP11 DUP4 DUP6 PUSH2 0x38B2 JUMP JUMPDEST SWAP6 POP JUMPDEST PUSH1 0x1 PUSH1 0x1 PUSH1 0xA0 SHL SUB DUP7 DUP2 AND SWAP1 DUP12 AND EQ DUP3 ISZERO PUSH2 0x2A10 JUMPI DUP1 PUSH2 0x29F8 JUMPI PUSH2 0x29F3 DUP13 DUP9 DUP13 PUSH1 0x1 PUSH2 0x37E6 JUMP JUMPDEST PUSH2 0x29FA JUMP JUMPDEST DUP6 JUMPDEST SWAP6 POP PUSH2 0x2A09 DUP13 DUP9 DUP13 PUSH1 0x0 PUSH2 0x3765 JUMP JUMPDEST SWAP5 POP PUSH2 0x2A3B JUMP JUMPDEST DUP1 PUSH2 0x2A27 JUMPI PUSH2 0x2A22 DUP13 DUP9 DUP13 PUSH1 0x1 PUSH2 0x3765 JUMP JUMPDEST PUSH2 0x2A29 JUMP JUMPDEST DUP6 JUMPDEST SWAP6 POP PUSH2 0x2A38 DUP13 DUP9 DUP13 PUSH1 0x0 PUSH2 0x37E6 JUMP JUMPDEST SWAP5 POP JUMPDEST DUP1 PUSH2 0x2A51 JUMPI PUSH2 0x2A4A DUP7 DUP11 PUSH2 0x4531 JUMP JUMPDEST SWAP4 POP PUSH2 0x2A75 JUMP JUMPDEST PUSH2 0x2A72 DUP7 PUSH3 0xFFFFFF DUP11 AND PUSH2 0x2A68 DUP12 PUSH3 0xF4240 PUSH2 0x4701 JUMP JUMPDEST PUSH3 0xFFFFFF AND PUSH2 0x202D JUMP JUMPDEST SWAP4 POP JUMPDEST POP POP POP SWAP6 POP SWAP6 POP SWAP6 POP SWAP6 SWAP2 POP POP JUMP JUMPDEST PUSH1 0x0 DUP1 DUP1 PUSH1 0x0 NOT DUP6 DUP8 MULMOD DUP6 DUP8 MUL SWAP3 POP DUP3 DUP2 LT DUP4 DUP3 SUB SUB SWAP2 POP POP DUP1 PUSH1 0x0 SUB PUSH2 0x2ABE JUMPI DUP4 DUP3 DUP2 PUSH2 0x2AB4 JUMPI PUSH2 0x2AB4 PUSH2 0x45A0 JUMP JUMPDEST DIV SWAP3 POP POP POP PUSH2 0x1CC0 JUMP JUMPDEST DUP4 DUP2 LT PUSH2 0x2AE8 JUMPI PUSH1 0x40 MLOAD PUSH4 0x1DCF3063 PUSH1 0xE2 SHL DUP2 MSTORE PUSH1 0x4 DUP2 ADD DUP3 SWAP1 MSTORE PUSH1 0x24 DUP2 ADD DUP6 SWAP1 MSTORE PUSH1 0x44 ADD PUSH2 0x2592 JUMP JUMPDEST PUSH1 0x0 DUP5 DUP7 DUP9 MULMOD PUSH1 0x2 PUSH1 0x1 DUP8 NOT DUP2 ADD DUP9 AND SWAP8 DUP9 SWAP1 DIV PUSH1 0x3 DUP2 MUL DUP4 XOR DUP1 DUP3 MUL DUP5 SUB MUL DUP1 DUP3 MUL DUP5 SUB MUL DUP1 DUP3 MUL DUP5 SUB MUL DUP1 DUP3 MUL DUP5 SUB MUL DUP1 DUP3 MUL DUP5 SUB MUL SWAP1 DUP2 MUL SWAP1 SWAP3 SUB SWAP1 SWAP2 MUL PUSH1 0x0 DUP9 SWAP1 SUB DUP9 SWAP1 DIV SWAP1 SWAP2 ADD DUP6 DUP4 GT SWAP1 SWAP5 SUB SWAP4 SWAP1 SWAP4 MUL SWAP4 SUB SWAP5 SWAP1 SWAP5 DIV SWAP2 SWAP1 SWAP2 OR MUL SWAP5 SWAP4 POP POP POP POP JUMP JUMPDEST PUSH1 0x2 DUP4 DUP2 SIGNEXTEND PUSH1 0x0 SWAP1 DUP2 MSTORE PUSH1 0x20 DUP7 SWAP1 MSTORE PUSH1 0x40 DUP2 KECCAK256 SWAP2 DUP3 ADD SLOAD SWAP1 SWAP2 SWAP1 PUSH2 0x2B75 SWAP1 DUP6 PUSH2 0x4531 JUMP JUMPDEST PUSH1 0x2 DUP3 ADD SSTORE PUSH1 0x3 DUP2 ADD SLOAD PUSH2 0x2B89 SWAP1 DUP5 PUSH2 0x4531 JUMP JUMPDEST PUSH1 0x3 DUP3 ADD SSTORE PUSH1 0x1 ADD SLOAD PUSH1 0xF SIGNEXTEND SWAP6 SWAP5 POP POP POP POP POP JUMP JUMPDEST PUSH1 0x0 DUP1 DUP3 PUSH1 0xF SIGNEXTEND SLT ISZERO PUSH2 0x2BC5 JUMPI PUSH2 0x2BB4 DUP3 PUSH2 0x44CF JUMP JUMPDEST PUSH2 0x2BBE SWAP1 DUP5 PUSH2 0x44A8 JUMP JUMPDEST SWAP1 POP PUSH2 0x10F7 JUMP JUMPDEST PUSH2 0x10F4 DUP3 DUP5 PUSH2 0x4511 JUMP JUMPDEST PUSH1 0x0 PUSH5 0x1000276A3 PUSH1 0x1 PUSH1 0x1 PUSH1 0xA0 SHL SUB DUP4 AND LT DUP1 ISZERO SWAP1 PUSH2 0x2C0B JUMPI POP PUSH20 0xFFFD8963EFD1FC6A506488495D951D5263988D26 PUSH1 0x1 PUSH1 0x1 PUSH1 0xA0 SHL SUB DUP4 AND LT JUMPDEST PUSH2 0x2C3B JUMPI PUSH1 0x40 MLOAD PUSH3 0x461BCD PUSH1 0xE5 SHL DUP2 MSTORE PUSH1 0x20 PUSH1 0x4 DUP3 ADD MSTORE PUSH1 0x1 PUSH1 0x24 DUP3 ADD MSTORE PUSH1 0x29 PUSH1 0xF9 SHL PUSH1 0x44 DUP3 ADD MSTORE PUSH1 0x64 ADD PUSH2 0x2592 JUMP JUMPDEST PUSH5 0x100000000 PUSH1 0x1 PUSH1 0xC0 SHL SUB PUSH1 0x20 DUP4 SWAP1 SHL AND PUSH1 0x1 PUSH1 0x1 PUSH1 0x80 SHL SUB DUP2 GT PUSH1 0x7 SHL DUP2 DUP2 SHR PUSH8 0xFFFFFFFFFFFFFFFF DUP2 GT PUSH1 0x6 SHL SWAP1 DUP2 SHR PUSH4 0xFFFFFFFF DUP2 GT PUSH1 0x5 SHL SWAP1 DUP2 SHR PUSH2 0xFFFF DUP2 GT PUSH1 0x4 SHL SWAP1 DUP2 SHR PUSH1 0xFF DUP2 GT PUSH1 0x3 SWAP1 DUP2 SHL SWAP2 DUP3 SHR PUSH1 0xF DUP2 GT PUSH1 0x2 SHL SWAP1 DUP2 SHR SWAP2 DUP3 GT PUSH1 0x1 SWAP1 DUP2 SHL SWAP3 DUP4 SHR SWAP8 SWAP1 DUP9 GT SWAP7 OR SWAP1 SWAP5 OR SWAP1 SWAP3 OR OR SWAP1 SWAP2 OR OR OR PUSH1 0x80 DUP2 LT PUSH2 0x2CD6 JUMPI PUSH2 0x2CCC PUSH1 0x7F DUP3 PUSH2 0x4531 JUMP JUMPDEST DUP4 SWAP1 SHR SWAP2 POP PUSH2 0x2CE7 JUMP JUMPDEST PUSH2 0x2CE1 DUP2 PUSH1 0x7F PUSH2 0x4531 JUMP JUMPDEST DUP4 SWAP1 SHL SWAP2 POP JUMPDEST PUSH1 0x0 PUSH1 0x40 PUSH2 0x2CF6 PUSH1 0x80 DUP5 PUSH2 0x471D JUMP JUMPDEST SWAP1 SHL SWAP1 POP DUP3 DUP4 MUL PUSH1 0x7F SHR SWAP3 POP DUP3 PUSH1 0x80 SHR DUP1 PUSH1 0x3F SHL DUP3 OR SWAP2 POP DUP4 DUP2 SHR SWAP4 POP POP DUP3 DUP4 MUL PUSH1 0x7F SHR SWAP3 POP DUP3 PUSH1 0x80 SHR DUP1 PUSH1 0x3E SHL DUP3 OR SWAP2 POP DUP4 DUP2 SHR SWAP4 POP POP DUP3 DUP4 MUL PUSH1 0x7F SHR SWAP3 POP DUP3 PUSH1 0x80 SHR DUP1 PUSH1 0x3D SHL DUP3 OR SWAP2 POP DUP4 DUP2 SHR SWAP4 POP POP DUP3 DUP4 MUL PUSH1 0x7F SHR SWAP3 POP DUP3 PUSH1 0x80 SHR DUP1 PUSH1 0x3C SHL DUP3 OR SWAP2 POP DUP4 DUP2 SHR SWAP4 POP POP DUP3 DUP4 MUL PUSH1 0x7F SHR SWAP3 POP DUP3 PUSH1 0x80 SHR DUP1 PUSH1 0x3B SHL DUP3 OR SWAP2 POP DUP4 DUP2 SHR SWAP4 POP POP DUP3 DUP4 MUL PUSH1 0x7F SHR SWAP3 POP DUP3 PUSH1 0x80 SHR DUP1 PUSH1 0x3A SHL DUP3 OR SWAP2 POP DUP4 DUP2 SHR SWAP4 POP POP DUP3 DUP4 MUL PUSH1 0x7F SHR SWAP3 POP DUP3 PUSH1 0x80 SHR DUP1 PUSH1 0x39 SHL DUP3 OR SWAP2 POP DUP4 DUP2 SHR SWAP4 POP POP DUP3 DUP4 MUL PUSH1 0x7F SHR SWAP3 POP DUP3 PUSH1 0x80 SHR DUP1 PUSH1 0x38 SHL DUP3 OR SWAP2 POP DUP4 DUP2 SHR SWAP4 POP POP DUP3 DUP4 MUL PUSH1 0x7F SHR SWAP3 POP DUP3 PUSH1 0x80 SHR DUP1 PUSH1 0x37 SHL DUP3 OR SWAP2 POP DUP4 DUP2 SHR SWAP4 POP POP DUP3 DUP4 MUL PUSH1 0x7F SHR SWAP3 POP DUP3 PUSH1 0x80 SHR DUP1 PUSH1 0x36 SHL DUP3 OR SWAP2 POP DUP4 DUP2 SHR SWAP4 POP POP DUP3 DUP4 MUL PUSH1 0x7F SHR SWAP3 POP DUP3 PUSH1 0x80 SHR DUP1 PUSH1 0x35 SHL DUP3 OR SWAP2 POP DUP4 DUP2 SHR SWAP4 POP POP DUP3 DUP4 MUL PUSH1 0x7F SHR SWAP3 POP DUP3 PUSH1 0x80 SHR DUP1 PUSH1 0x34 SHL DUP3 OR SWAP2 POP DUP4 DUP2 SHR SWAP4 POP POP DUP3 DUP4 MUL PUSH1 0x7F SHR SWAP3 POP DUP3 PUSH1 0x80 SHR DUP1 PUSH1 0x33 SHL DUP3 OR SWAP2 POP DUP4 DUP2 SHR SWAP4 POP POP DUP3 DUP4 MUL PUSH1 0x7F SHR SWAP3 POP DUP3 PUSH1 0x80 SHR DUP1 PUSH1 0x32 SHL DUP3 OR SWAP2 POP POP PUSH1 0x0 DUP2 PUSH10 0x3627A301D71055774C85 PUSH2 0x2E79 SWAP2 SWAP1 PUSH2 0x473D JUMP JUMPDEST SWAP1 POP PUSH1 0x0 PUSH1 0x80 PUSH2 0x2E99 PUSH16 0x28F6481AB7F045A5AF012A19D003AAA DUP5 PUSH2 0x471D JUMP JUMPDEST SWAP1 SAR SWAP1 POP PUSH1 0x0 PUSH1 0x80 PUSH2 0x2EBB DUP5 PUSH16 0xDB2DF09E81959A81455E260799A0632F PUSH2 0x476D JUMP JUMPDEST SWAP1 SAR SWAP1 POP DUP1 PUSH1 0x2 SIGNEXTEND DUP3 PUSH1 0x2 SIGNEXTEND EQ PUSH2 0x2EFA JUMPI DUP9 PUSH1 0x1 PUSH1 0x1 PUSH1 0xA0 SHL SUB AND PUSH2 0x2EDF DUP3 PUSH2 0x252B JUMP JUMPDEST PUSH1 0x1 PUSH1 0x1 PUSH1 0xA0 SHL SUB AND GT ISZERO PUSH2 0x2EF4 JUMPI DUP2 PUSH2 0x2EFC JUMP JUMPDEST DUP1 PUSH2 0x2EFC JUMP JUMPDEST DUP2 JUMPDEST SWAP10 SWAP9 POP POP POP POP POP POP POP POP POP JUMP JUMPDEST PUSH1 0x0 DUP1 PUSH1 0x0 DUP9 DUP9 PUSH2 0xFFFF AND PUSH2 0xFFFF DUP2 LT PUSH2 0x2F25 JUMPI PUSH2 0x2F25 PUSH2 0x4569 JUMP JUMPDEST PUSH1 0x40 DUP1 MLOAD PUSH1 0x60 DUP2 ADD DUP3 MSTORE SWAP2 SWAP1 SWAP3 ADD SLOAD PUSH4 0xFFFFFFFF DUP1 DUP3 AND DUP1 DUP5 MSTORE PUSH1 0x1 PUSH1 0x20 SHL DUP4 DIV PUSH1 0x6 SIGNEXTEND PUSH1 0x20 DUP6 ADD MSTORE PUSH1 0x1 PUSH1 0x58 SHL SWAP1 SWAP3 DIV PUSH1 0xFF AND ISZERO ISZERO SWAP4 DUP4 ADD SWAP4 SWAP1 SWAP4 MSTORE SWAP1 SWAP3 POP SWAP1 DUP9 AND SWAP1 SUB PUSH2 0x2F7A JUMPI DUP8 DUP6 SWAP3 POP SWAP3 POP POP PUSH2 0x3043 JUMP JUMPDEST DUP5 PUSH2 0xFFFF AND DUP5 PUSH2 0xFFFF AND GT DUP1 ISZERO PUSH2 0x2FA2 JUMPI POP PUSH2 0x2F97 PUSH1 0x1 DUP7 PUSH2 0x4795 JUMP JUMPDEST PUSH2 0xFFFF AND DUP9 PUSH2 0xFFFF AND EQ JUMPDEST ISZERO PUSH2 0x2FAF JUMPI DUP4 SWAP2 POP PUSH2 0x2FB3 JUMP JUMPDEST DUP5 SWAP2 POP JUMPDEST DUP2 PUSH2 0x2FBF DUP10 PUSH1 0x1 PUSH2 0x47B0 JUMP JUMPDEST PUSH2 0x2FC9 SWAP2 SWAP1 PUSH2 0x47CB JUMP JUMPDEST SWAP3 POP PUSH2 0x2FD6 DUP2 DUP9 DUP9 PUSH2 0x38D4 JUMP JUMPDEST DUP10 DUP5 PUSH2 0xFFFF AND PUSH2 0xFFFF DUP2 LT PUSH2 0x2FED JUMPI PUSH2 0x2FED PUSH2 0x4569 JUMP JUMPDEST DUP3 MLOAD SWAP2 ADD DUP1 SLOAD PUSH1 0x20 DUP5 ADD MLOAD PUSH1 0x40 SWAP1 SWAP5 ADD MLOAD ISZERO ISZERO PUSH1 0x1 PUSH1 0x58 SHL MUL PUSH1 0xFF PUSH1 0x58 SHL NOT PUSH7 0xFFFFFFFFFFFFFF SWAP1 SWAP6 AND PUSH1 0x1 PUSH1 0x20 SHL MUL PUSH11 0xFFFFFFFFFFFFFFFFFFFFFF NOT SWAP1 SWAP3 AND PUSH4 0xFFFFFFFF SWAP1 SWAP5 AND SWAP4 SWAP1 SWAP4 OR OR SWAP3 SWAP1 SWAP3 AND OR SWAP1 SSTORE POP JUMPDEST SWAP7 POP SWAP7 SWAP5 POP POP POP POP POP JUMP JUMPDEST PUSH1 0x0 PUSH2 0x305C PUSH1 0x40 PUSH1 0x60 PUSH2 0x4684 JUMP JUMPDEST PUSH1 0xFF AND PUSH2 0x306C PUSH1 0x40 DUP5 SWAP1 SHL PUSH2 0x3953 JUMP JUMPDEST PUSH1 0xF SIGNEXTEND SWAP1 SHL PUSH1 0xF SIGNEXTEND SWAP1 POP SWAP2 SWAP1 POP JUMP JUMPDEST PUSH1 0x2 DUP7 SWAP1 SIGNEXTEND PUSH1 0x0 SWAP1 DUP2 MSTORE PUSH1 0x20 DUP9 SWAP1 MSTORE PUSH1 0x40 DUP2 KECCAK256 DUP1 SLOAD PUSH2 0x100 SWAP1 DIV PUSH1 0x1 PUSH1 0x1 PUSH1 0x80 SHL SUB AND DUP3 PUSH2 0x30A9 DUP3 DUP10 PUSH2 0x2B9E JUMP JUMPDEST PUSH1 0x1 PUSH1 0x1 PUSH1 0x80 SHL SUB DUP1 DUP3 AND ISZERO SWAP1 DUP5 AND DUP1 ISZERO SWAP2 SWAP1 SWAP2 EQ ISZERO SWAP6 POP SWAP1 SWAP2 POP PUSH1 0x0 SUB PUSH2 0x30F3 JUMPI DUP9 PUSH1 0x2 SIGNEXTEND DUP11 PUSH1 0x2 SIGNEXTEND SGT PUSH2 0x30E7 JUMPI PUSH1 0x2 DUP4 ADD DUP8 SWAP1 SSTORE PUSH1 0x3 DUP4 ADD DUP7 SWAP1 SSTORE JUMPDEST DUP3 SLOAD PUSH1 0xFF NOT AND PUSH1 0x1 OR DUP4 SSTORE JUMPDEST DUP3 SLOAD PUSH17 0xFFFFFFFFFFFFFFFFFFFFFFFFFFFFFFFF00 NOT AND PUSH2 0x100 PUSH1 0x1 PUSH1 0x1 PUSH1 0x80 SHL SUB DUP4 AND MUL OR DUP4 SSTORE DUP5 PUSH2 0x313A JUMPI PUSH1 0x1 DUP4 ADD SLOAD PUSH2 0x3135 SWAP1 PUSH1 0xF DUP11 DUP2 SIGNEXTEND SWAP2 SWAP1 SIGNEXTEND PUSH2 0x476D JUMP JUMPDEST PUSH2 0x3150 JUMP JUMPDEST PUSH1 0x1 DUP4 ADD SLOAD PUSH2 0x3150 SWAP1 PUSH1 0xF DUP11 DUP2 SIGNEXTEND SWAP2 SWAP1 SIGNEXTEND PUSH2 0x471D JUMP JUMPDEST PUSH1 0x1 SWAP4 SWAP1 SWAP4 ADD DUP1 SLOAD PUSH1 0x1 PUSH1 0x1 PUSH1 0x80 SHL SUB NOT AND PUSH1 0x1 PUSH1 0x1 PUSH1 0x80 SHL SUB SWAP1 SWAP5 AND SWAP4 SWAP1 SWAP4 OR SWAP1 SWAP3 SSTORE POP SWAP1 SWAP9 SWAP8 POP POP POP POP POP POP POP POP JUMP JUMPDEST PUSH2 0x318C DUP2 DUP4 PUSH2 0x461F JUMP JUMPDEST PUSH1 0x2 SIGNEXTEND ISZERO PUSH2 0x31DC JUMPI PUSH1 0x40 MLOAD PUSH3 0x461BCD PUSH1 0xE5 SHL DUP2 MSTORE PUSH1 0x20 PUSH1 0x4 DUP3 ADD MSTORE PUSH1 0x1C PUSH1 0x24 DUP3 ADD MSTORE PUSH32 0x5469636B206973206E6F7420636F72726563746C792073706163656400000000 PUSH1 0x44 DUP3 ADD MSTORE PUSH1 0x64 ADD PUSH2 0x2592 JUMP JUMPDEST PUSH1 0x0 DUP1 PUSH2 0x31EC PUSH2 0x246D DUP5 DUP7 PUSH2 0x45E5 JUMP JUMPDEST PUSH1 0x1 SWAP2 DUP3 SIGNEXTEND PUSH1 0x0 SWAP1 DUP2 MSTORE PUSH1 0x20 SWAP8 SWAP1 SWAP8 MSTORE PUSH1 0x40 SWAP1 SWAP7 KECCAK256 DUP1 SLOAD PUSH1 0xFF SWAP1 SWAP8 AND SWAP2 SWAP1 SWAP2 SHL SWAP1 SWAP6 XOR SWAP1 SWAP5 SSTORE POP POP POP POP JUMP JUMPDEST PUSH1 0x0 PUSH2 0x3242 DUP6 PUSH1 0x1 ADD SLOAD DUP5 PUSH2 0x322D SWAP2 SWAP1 PUSH2 0x4531 JUMP JUMPDEST DUP7 SLOAD PUSH1 0x1 PUSH1 0x1 PUSH1 0x80 SHL SUB AND PUSH1 0x1 PUSH1 0x80 SHL PUSH2 0x2A84 JUMP JUMPDEST SWAP1 POP PUSH1 0x0 PUSH2 0x3259 DUP7 PUSH1 0x2 ADD SLOAD DUP5 PUSH2 0x21D5 SWAP2 SWAP1 PUSH2 0x4531 JUMP JUMPDEST DUP7 SLOAD SWAP1 SWAP2 POP PUSH2 0x3271 SWAP1 PUSH1 0x1 PUSH1 0x1 PUSH1 0x80 SHL SUB AND DUP7 PUSH2 0x2B9E JUMP JUMPDEST DUP7 SLOAD PUSH1 0x1 PUSH1 0x1 PUSH1 0x80 SHL SUB NOT AND PUSH1 0x1 PUSH1 0x1 PUSH1 0x80 SHL SUB SWAP2 DUP3 AND OR DUP8 SSTORE PUSH1 0x1 DUP8 ADD DUP6 SWAP1 SSTORE PUSH1 0x2 DUP8 ADD DUP5 SWAP1 SSTORE DUP3 AND ISZERO ISZERO DUP1 PUSH2 0x32B1 JUMPI POP PUSH1 0x0 DUP2 PUSH1 0x1 PUSH1 0x1 PUSH1 0x80 SHL SUB AND GT JUMPDEST ISZERO PUSH2 0x3345 JUMPI PUSH1 0x3 DUP7 ADD DUP1 SLOAD DUP4 SWAP2 SWAP1 PUSH1 0x0 SWAP1 PUSH2 0x32D6 SWAP1 DUP5 SWAP1 PUSH1 0x1 PUSH1 0x1 PUSH1 0x80 SHL SUB AND PUSH2 0x4511 JUMP JUMPDEST SWAP3 POP PUSH2 0x100 EXP DUP2 SLOAD DUP2 PUSH1 0x1 PUSH1 0x1 PUSH1 0x80 SHL SUB MUL NOT AND SWAP1 DUP4 PUSH1 0x1 PUSH1 0x1 PUSH1 0x80 SHL SUB AND MUL OR SWAP1 SSTORE POP DUP1 DUP7 PUSH1 0x3 ADD PUSH1 0x10 DUP3 DUP3 DUP3 SWAP1 SLOAD SWAP1 PUSH2 0x100 EXP SWAP1 DIV PUSH1 0x1 PUSH1 0x1 PUSH1 0x80 SHL SUB AND PUSH2 0x3320 SWAP2 SWAP1 PUSH2 0x4511 JUMP JUMPDEST SWAP3 POP PUSH2 0x100 EXP DUP2 SLOAD DUP2 PUSH1 0x1 PUSH1 0x1 PUSH1 0x80 SHL SUB MUL NOT AND SWAP1 DUP4 PUSH1 0x1 PUSH1 0x1 PUSH1 0x80 SHL SUB AND MUL OR SWAP1 SSTORE POP JUMPDEST POP POP POP POP POP POP JUMP JUMPDEST PUSH1 0x0 DUP1 DUP3 PUSH1 0xF SIGNEXTEND SLT PUSH2 0x336B JUMPI PUSH2 0x3366 DUP5 DUP5 DUP5 PUSH1 0x1 PUSH2 0x37E6 JUMP JUMPDEST PUSH2 0x2949 JUMP JUMPDEST PUSH2 0x3380 DUP5 DUP5 PUSH2 0x3379 DUP6 PUSH2 0x44CF JUMP JUMPDEST PUSH1 0x0 PUSH2 0x37E6 JUMP JUMPDEST PUSH2 0x2949 SWAP1 PUSH2 0x44F5 JUMP JUMPDEST PUSH1 0x0 DUP1 DUP3 PUSH1 0xF SIGNEXTEND SLT PUSH2 0x33A2 JUMPI PUSH2 0x3366 DUP5 DUP5 DUP5 PUSH1 0x1 PUSH2 0x3765 JUMP JUMPDEST PUSH2 0x3380 DUP5 DUP5 PUSH2 0x33B0 DUP6 PUSH2 0x44CF JUMP JUMPDEST PUSH1 0x0 PUSH2 0x3765 JUMP JUMPDEST PUSH1 0x0 DUP5 PUSH4 0xFFFFFFFF AND PUSH1 0x0 SUB PUSH2 0x3441 JUMPI PUSH1 0x0 DUP8 DUP5 PUSH2 0xFFFF AND PUSH2 0xFFFF DUP2 LT PUSH2 0x33E0 JUMPI PUSH2 0x33E0 PUSH2 0x4569 JUMP JUMPDEST PUSH1 0x40 DUP1 MLOAD PUSH1 0x60 DUP2 ADD DUP3 MSTORE SWAP2 SWAP1 SWAP3 ADD SLOAD PUSH4 0xFFFFFFFF DUP1 DUP3 AND DUP1 DUP5 MSTORE PUSH1 0x1 PUSH1 0x20 SHL DUP4 DIV PUSH1 0x6 SIGNEXTEND PUSH1 0x20 DUP6 ADD MSTORE PUSH1 0x1 PUSH1 0x58 SHL SWAP1 SWAP3 DIV PUSH1 0xFF AND ISZERO ISZERO SWAP4 DUP4 ADD SWAP4 SWAP1 SWAP4 MSTORE SWAP1 SWAP3 POP SWAP1 DUP9 AND EQ PUSH2 0x3436 JUMPI PUSH2 0x3433 DUP2 DUP9 DUP8 PUSH2 0x38D4 JUMP JUMPDEST SWAP1 POP JUMPDEST PUSH1 0x20 ADD MLOAD SWAP1 POP PUSH2 0x3521 JUMP JUMPDEST PUSH1 0x0 PUSH2 0x344D DUP7 DUP9 PUSH2 0x47EC JUMP JUMPDEST SWAP1 POP PUSH1 0x0 DUP1 PUSH2 0x3460 DUP11 DUP11 DUP6 DUP11 DUP11 DUP11 PUSH2 0x3975 JUMP JUMPDEST SWAP2 POP SWAP2 POP DUP2 PUSH1 0x0 ADD MLOAD PUSH4 0xFFFFFFFF AND DUP4 PUSH4 0xFFFFFFFF AND SUB PUSH2 0x3489 JUMPI POP PUSH1 0x20 ADD MLOAD SWAP2 POP PUSH2 0x3521 SWAP1 POP JUMP JUMPDEST DUP1 PUSH1 0x0 ADD MLOAD PUSH4 0xFFFFFFFF AND DUP4 PUSH4 0xFFFFFFFF AND SUB PUSH2 0x34AE JUMPI PUSH1 0x20 ADD MLOAD SWAP3 POP PUSH2 0x3521 SWAP2 POP POP JUMP JUMPDEST DUP2 MLOAD DUP2 MLOAD PUSH1 0x0 SWAP2 PUSH2 0x34BE SWAP2 PUSH2 0x47EC JUMP JUMPDEST PUSH4 0xFFFFFFFF AND SWAP1 POP PUSH1 0x0 DUP4 PUSH1 0x0 ADD MLOAD DUP6 PUSH2 0x34D8 SWAP2 SWAP1 PUSH2 0x47EC JUMP JUMPDEST PUSH4 0xFFFFFFFF AND SWAP1 POP DUP1 DUP3 DUP6 PUSH1 0x20 ADD MLOAD DUP6 PUSH1 0x20 ADD MLOAD PUSH2 0x34F6 SWAP2 SWAP1 PUSH2 0x4809 JUMP JUMPDEST PUSH2 0x3500 SWAP2 SWAP1 PUSH2 0x4836 JUMP JUMPDEST PUSH2 0x350A SWAP2 SWAP1 PUSH2 0x486B JUMP JUMPDEST DUP5 PUSH1 0x20 ADD MLOAD PUSH2 0x3519 SWAP2 SWAP1 PUSH2 0x488B JUMP JUMPDEST SWAP6 POP POP POP POP POP POP JUMPDEST SWAP7 SWAP6 POP POP POP POP POP POP JUMP JUMPDEST PUSH1 0x2 DUP2 SWAP1 SIGNEXTEND PUSH1 0x8 SAR PUSH1 0x0 PUSH2 0x3541 PUSH2 0x100 DUP5 PUSH2 0x461F JUMP JUMPDEST SWAP1 POP SWAP2 POP SWAP2 JUMP JUMPDEST PUSH1 0x0 DUP1 DUP3 GT PUSH2 0x3556 JUMPI PUSH1 0x0 DUP1 REVERT JUMPDEST PUSH1 0x1 PUSH1 0x80 SHL DUP3 LT PUSH2 0x3574 JUMPI PUSH1 0x80 SWAP2 DUP3 SHR SWAP2 PUSH2 0x3571 SWAP1 DUP3 PUSH2 0x48B8 JUMP JUMPDEST SWAP1 POP JUMPDEST PUSH1 0x1 PUSH1 0x40 SHL DUP3 LT PUSH2 0x3592 JUMPI PUSH1 0x40 SWAP2 DUP3 SHR SWAP2 PUSH2 0x358F SWAP1 DUP3 PUSH2 0x48B8 JUMP JUMPDEST SWAP1 POP JUMPDEST PUSH1 0x1 PUSH1 0x20 SHL DUP3 LT PUSH2 0x35B0 JUMPI PUSH1 0x20 SWAP2 DUP3 SHR SWAP2 PUSH2 0x35AD SWAP1 DUP3 PUSH2 0x48B8 JUMP JUMPDEST SWAP1 POP JUMPDEST PUSH3 0x10000 DUP3 LT PUSH2 0x35CD JUMPI PUSH1 0x10 SWAP2 DUP3 SHR SWAP2 PUSH2 0x35CA SWAP1 DUP3 PUSH2 0x48B8 JUMP JUMPDEST SWAP1 POP JUMPDEST PUSH2 0x100 DUP3 LT PUSH2 0x35E9 JUMPI PUSH1 0x8 SWAP2 DUP3 SHR SWAP2 PUSH2 0x35E6 SWAP1 DUP3 PUSH2 0x48B8 JUMP JUMPDEST SWAP1 POP JUMPDEST PUSH1 0x10 DUP3 LT PUSH2 0x3604 JUMPI PUSH1 0x4 SWAP2 DUP3 SHR SWAP2 PUSH2 0x3601 SWAP1 DUP3 PUSH2 0x48B8 JUMP JUMPDEST SWAP1 POP JUMPDEST PUSH1 0x4 DUP3 LT PUSH2 0x361F JUMPI PUSH1 0x2 SWAP2 DUP3 SHR SWAP2 PUSH2 0x361C SWAP1 DUP3 PUSH2 0x48B8 JUMP JUMPDEST SWAP1 POP JUMPDEST PUSH1 0x2 DUP3 LT PUSH2 0x3635 JUMPI PUSH2 0x3632 PUSH1 0x1 DUP3 PUSH2 0x48B8 JUMP JUMPDEST SWAP1 POP JUMPDEST SWAP2 SWAP1 POP JUMP JUMPDEST PUSH1 0x0 DUP1 DUP3 GT PUSH2 0x3648 JUMPI PUSH1 0x0 DUP1 REVERT JUMPDEST POP PUSH1 0xFF PUSH1 0x1 PUSH1 0x1 PUSH1 0x80 SHL SUB DUP3 AND ISZERO PUSH2 0x366C JUMPI PUSH2 0x3665 PUSH1 0x80 DUP3 PUSH2 0x4684 JUMP JUMPDEST SWAP1 POP PUSH2 0x3674 JUMP JUMPDEST PUSH1 0x80 DUP3 SWAP1 SHR SWAP2 POP JUMPDEST PUSH8 0xFFFFFFFFFFFFFFFF DUP3 AND ISZERO PUSH2 0x3696 JUMPI PUSH2 0x368F PUSH1 0x40 DUP3 PUSH2 0x4684 JUMP JUMPDEST SWAP1 POP PUSH2 0x369E JUMP JUMPDEST PUSH1 0x40 DUP3 SWAP1 SHR SWAP2 POP JUMPDEST PUSH4 0xFFFFFFFF DUP3 AND ISZERO PUSH2 0x36BC JUMPI PUSH2 0x36B5 PUSH1 0x20 DUP3 PUSH2 0x4684 JUMP JUMPDEST SWAP1 POP PUSH2 0x36C4 JUMP JUMPDEST PUSH1 0x20 DUP3 SWAP1 SHR SWAP2 POP JUMPDEST PUSH2 0xFFFF DUP3 AND ISZERO PUSH2 0x36E0 JUMPI PUSH2 0x36D9 PUSH1 0x10 DUP3 PUSH2 0x4684 JUMP JUMPDEST SWAP1 POP PUSH2 0x36E8 JUMP JUMPDEST PUSH1 0x10 DUP3 SWAP1 SHR SWAP2 POP JUMPDEST PUSH1 0xFF DUP3 AND ISZERO PUSH2 0x3703 JUMPI PUSH2 0x36FC PUSH1 0x8 DUP3 PUSH2 0x4684 JUMP JUMPDEST SWAP1 POP PUSH2 0x370B JUMP JUMPDEST PUSH1 0x8 DUP3 SWAP1 SHR SWAP2 POP JUMPDEST PUSH1 0xF DUP3 AND ISZERO PUSH2 0x3726 JUMPI PUSH2 0x371F PUSH1 0x4 DUP3 PUSH2 0x4684 JUMP JUMPDEST SWAP1 POP PUSH2 0x372E JUMP JUMPDEST PUSH1 0x4 DUP3 SWAP1 SHR SWAP2 POP JUMPDEST PUSH1 0x3 DUP3 AND ISZERO PUSH2 0x3749 JUMPI PUSH2 0x3742 PUSH1 0x2 DUP3 PUSH2 0x4684 JUMP JUMPDEST SWAP1 POP PUSH2 0x3751 JUMP JUMPDEST PUSH1 0x2 DUP3 SWAP1 SHR SWAP2 POP JUMPDEST PUSH1 0x1 DUP3 AND ISZERO PUSH2 0x3635 JUMPI PUSH2 0x3632 PUSH1 0x1 DUP3 PUSH2 0x4684 JUMP JUMPDEST PUSH1 0x0 DUP4 PUSH1 0x1 PUSH1 0x1 PUSH1 0xA0 SHL SUB AND DUP6 PUSH1 0x1 PUSH1 0x1 PUSH1 0xA0 SHL SUB AND GT ISZERO PUSH2 0x3785 JUMPI SWAP3 SWAP4 SWAP3 JUMPDEST DUP2 ISZERO PUSH2 0x37BC JUMPI PUSH2 0x37B5 PUSH1 0x1 PUSH1 0x1 PUSH1 0x80 SHL SUB DUP5 AND PUSH2 0x37A2 DUP8 DUP8 PUSH2 0x48D1 JUMP JUMPDEST PUSH1 0x1 PUSH1 0x1 PUSH1 0xA0 SHL SUB AND PUSH1 0x1 PUSH1 0x60 SHL PUSH2 0x202D JUMP JUMPDEST SWAP1 POP PUSH2 0x2949 JUMP JUMPDEST PUSH2 0x206D PUSH1 0x1 PUSH1 0x1 PUSH1 0x80 SHL SUB DUP5 AND PUSH2 0x37D3 DUP8 DUP8 PUSH2 0x48D1 JUMP JUMPDEST PUSH1 0x1 PUSH1 0x1 PUSH1 0xA0 SHL SUB AND PUSH1 0x1 PUSH1 0x60 SHL PUSH2 0x2A84 JUMP JUMPDEST PUSH1 0x0 DUP4 PUSH1 0x1 PUSH1 0x1 PUSH1 0xA0 SHL SUB AND DUP6 PUSH1 0x1 PUSH1 0x1 PUSH1 0xA0 SHL SUB AND GT ISZERO PUSH2 0x3806 JUMPI SWAP3 SWAP4 SWAP3 JUMPDEST PUSH1 0x0 DUP6 PUSH1 0x1 PUSH1 0x1 PUSH1 0xA0 SHL SUB AND GT PUSH2 0x381C JUMPI PUSH1 0x0 DUP1 REVERT JUMPDEST PUSH1 0x1 PUSH1 0x60 SHL PUSH1 0x1 PUSH1 0xE0 SHL SUB PUSH1 0x60 DUP5 SWAP1 SHL AND PUSH1 0x0 PUSH2 0x3839 DUP8 DUP8 PUSH2 0x48D1 JUMP JUMPDEST PUSH1 0x1 PUSH1 0x1 PUSH1 0xA0 SHL SUB AND SWAP1 POP DUP4 ISZERO PUSH2 0x387D JUMPI PUSH2 0x3876 PUSH2 0x3861 DUP4 DUP4 DUP10 PUSH1 0x1 PUSH1 0x1 PUSH1 0xA0 SHL SUB AND PUSH2 0x202D JUMP JUMPDEST DUP9 PUSH1 0x1 PUSH1 0x1 PUSH1 0xA0 SHL SUB AND DUP1 DUP3 DIV SWAP2 MOD ISZERO ISZERO ADD SWAP1 JUMP JUMPDEST SWAP3 POP PUSH2 0x38A8 JUMP JUMPDEST DUP7 PUSH1 0x1 PUSH1 0x1 PUSH1 0xA0 SHL SUB AND PUSH2 0x389B DUP4 DUP4 DUP10 PUSH1 0x1 PUSH1 0x1 PUSH1 0xA0 SHL SUB AND PUSH2 0x2A84 JUMP JUMPDEST PUSH2 0x38A5 SWAP2 SWAP1 PUSH2 0x46D9 JUMP JUMPDEST SWAP3 POP JUMPDEST POP POP SWAP5 SWAP4 POP POP POP POP JUMP JUMPDEST PUSH1 0x0 DUP2 PUSH2 0x38C9 JUMPI PUSH2 0x38C4 DUP6 DUP6 DUP6 PUSH2 0x3B3D JUMP JUMPDEST PUSH2 0x206D JUMP JUMPDEST PUSH2 0x206D DUP6 DUP6 DUP6 PUSH2 0x3B6A JUMP JUMPDEST PUSH1 0x40 DUP1 MLOAD PUSH1 0x60 DUP2 ADD DUP3 MSTORE PUSH1 0x0 DUP1 DUP3 MSTORE PUSH1 0x20 DUP3 ADD DUP2 SWAP1 MSTORE SWAP2 DUP2 ADD SWAP2 SWAP1 SWAP2 MSTORE DUP4 MLOAD PUSH1 0x0 SWAP1 PUSH2 0x3900 SWAP1 DUP6 PUSH2 0x47EC JUMP JUMPDEST PUSH4 0xFFFFFFFF AND SWAP1 POP PUSH1 0x40 MLOAD DUP1 PUSH1 0x60 ADD PUSH1 0x40 MSTORE DUP1 DUP6 PUSH4 0xFFFFFFFF AND DUP2 MSTORE PUSH1 0x20 ADD DUP3 DUP6 PUSH1 0x2 SIGNEXTEND PUSH2 0x392E SWAP2 SWAP1 PUSH2 0x486B JUMP JUMPDEST DUP8 PUSH1 0x20 ADD MLOAD PUSH2 0x393D SWAP2 SWAP1 PUSH2 0x488B JUMP JUMPDEST PUSH1 0x6 SIGNEXTEND DUP2 MSTORE PUSH1 0x1 PUSH1 0x20 SWAP1 SWAP2 ADD MSTORE SWAP6 SWAP5 POP POP POP POP POP JUMP JUMPDEST PUSH1 0x0 DUP1 DUP3 PUSH1 0xF SIGNEXTEND SLT ISZERO PUSH2 0x3965 JUMPI PUSH1 0x0 DUP1 REVERT JUMPDEST PUSH2 0x3632 PUSH1 0x40 DUP4 PUSH1 0xF SIGNEXTEND SWAP1 SHL PUSH2 0x3C0E JUMP JUMPDEST PUSH1 0x40 DUP1 MLOAD PUSH1 0x60 DUP2 ADD DUP3 MSTORE PUSH1 0x0 DUP1 DUP3 MSTORE PUSH1 0x20 DUP3 ADD DUP2 SWAP1 MSTORE SWAP2 DUP2 ADD SWAP2 SWAP1 SWAP2 MSTORE PUSH1 0x40 DUP1 MLOAD PUSH1 0x60 DUP2 ADD DUP3 MSTORE PUSH1 0x0 DUP1 DUP3 MSTORE PUSH1 0x20 DUP3 ADD DUP2 SWAP1 MSTORE SWAP2 DUP2 ADD SWAP2 SWAP1 SWAP2 MSTORE DUP8 DUP5 PUSH2 0xFFFF AND PUSH2 0xFFFF DUP2 LT PUSH2 0x39C6 JUMPI PUSH2 0x39C6 PUSH2 0x4569 JUMP JUMPDEST PUSH1 0x40 DUP1 MLOAD PUSH1 0x60 DUP2 ADD DUP3 MSTORE SWAP2 SWAP1 SWAP3 ADD SLOAD PUSH4 0xFFFFFFFF DUP2 AND DUP1 DUP4 MSTORE PUSH1 0x1 PUSH1 0x20 SHL DUP3 DIV PUSH1 0x6 SIGNEXTEND PUSH1 0x20 DUP5 ADD MSTORE PUSH1 0x1 PUSH1 0x58 SHL SWAP1 SWAP2 DIV PUSH1 0xFF AND ISZERO ISZERO SWAP3 DUP3 ADD SWAP3 SWAP1 SWAP3 MSTORE SWAP3 POP PUSH2 0x3A10 SWAP1 DUP9 SWAP1 DUP9 PUSH2 0x3D7E JUMP JUMPDEST ISZERO PUSH2 0x3A3B JUMPI DUP2 MLOAD PUSH4 0xFFFFFFFF DUP8 DUP2 AND SWAP2 AND EQ PUSH2 0x3043 JUMPI DUP2 PUSH2 0x3A32 DUP4 DUP9 DUP9 PUSH2 0x38D4 JUMP JUMPDEST SWAP2 POP SWAP2 POP PUSH2 0x3043 JUMP JUMPDEST DUP8 DUP4 PUSH2 0x3A48 DUP7 PUSH1 0x1 PUSH2 0x47B0 JUMP JUMPDEST PUSH2 0x3A52 SWAP2 SWAP1 PUSH2 0x47CB JUMP JUMPDEST PUSH2 0xFFFF AND PUSH2 0xFFFF DUP2 LT PUSH2 0x3A67 JUMPI PUSH2 0x3A67 PUSH2 0x4569 JUMP JUMPDEST PUSH1 0x40 DUP1 MLOAD PUSH1 0x60 DUP2 ADD DUP3 MSTORE SWAP2 SWAP1 SWAP3 ADD SLOAD PUSH4 0xFFFFFFFF DUP2 AND DUP3 MSTORE PUSH1 0x1 PUSH1 0x20 SHL DUP2 DIV PUSH1 0x6 SIGNEXTEND PUSH1 0x20 DUP4 ADD MSTORE PUSH1 0x1 PUSH1 0x58 SHL SWAP1 DIV PUSH1 0xFF AND ISZERO ISZERO SWAP2 DUP2 ADD DUP3 SWAP1 MSTORE SWAP3 POP PUSH2 0x3AE0 JUMPI PUSH1 0x40 DUP1 MLOAD PUSH1 0x60 DUP2 ADD DUP3 MSTORE DUP10 SLOAD PUSH4 0xFFFFFFFF DUP2 AND DUP3 MSTORE PUSH1 0x1 PUSH1 0x20 SHL DUP2 DIV PUSH1 0x6 SIGNEXTEND PUSH1 0x20 DUP4 ADD MSTORE PUSH1 0x1 PUSH1 0x58 SHL SWAP1 DIV PUSH1 0xFF AND ISZERO ISZERO SWAP2 DUP2 ADD SWAP2 SWAP1 SWAP2 MSTORE SWAP2 POP JUMPDEST PUSH2 0x3AEF DUP8 DUP4 PUSH1 0x0 ADD MLOAD DUP9 PUSH2 0x3D7E JUMP JUMPDEST PUSH2 0x3B21 JUMPI PUSH1 0x40 MLOAD PUSH3 0x461BCD PUSH1 0xE5 SHL DUP2 MSTORE PUSH1 0x20 PUSH1 0x4 DUP3 ADD MSTORE PUSH1 0x3 PUSH1 0x24 DUP3 ADD MSTORE PUSH3 0x13D311 PUSH1 0xEA SHL PUSH1 0x44 DUP3 ADD MSTORE PUSH1 0x64 ADD PUSH2 0x2592 JUMP JUMPDEST PUSH2 0x3B2E DUP9 DUP9 DUP9 DUP8 DUP8 PUSH2 0x3E4D JUMP JUMPDEST SWAP2 POP SWAP2 POP SWAP7 POP SWAP7 SWAP5 POP POP POP POP POP JUMP JUMPDEST PUSH1 0x0 PUSH2 0x3B57 DUP3 PUSH1 0x1 PUSH1 0x60 SHL DUP6 PUSH1 0x1 PUSH1 0x1 PUSH1 0x80 SHL SUB AND PUSH2 0x2A84 JUMP JUMPDEST PUSH2 0x2949 SWAP1 PUSH1 0x1 PUSH1 0x1 PUSH1 0xA0 SHL SUB DUP7 AND PUSH2 0x447C JUMP JUMPDEST PUSH1 0x0 PUSH1 0x1 PUSH1 0x60 SHL PUSH1 0x1 PUSH1 0xE0 SHL SUB PUSH1 0x60 DUP5 SWAP1 SHL AND DUP2 PUSH2 0x3B91 PUSH1 0x1 PUSH1 0x1 PUSH1 0xA0 SHL SUB DUP8 AND DUP6 PUSH2 0x46C2 JUMP JUMPDEST SWAP1 POP PUSH1 0x1 PUSH1 0x1 PUSH1 0xA0 SHL SUB DUP7 AND PUSH2 0x3BA7 DUP6 DUP4 PUSH2 0x46D9 JUMP JUMPDEST SUB PUSH2 0x3BE1 JUMPI PUSH1 0x0 PUSH2 0x3BB8 DUP3 DUP5 PUSH2 0x447C JUMP JUMPDEST SWAP1 POP DUP3 DUP2 LT PUSH2 0x3BDF JUMPI PUSH2 0x3BD5 DUP4 DUP9 PUSH1 0x1 PUSH1 0x1 PUSH1 0xA0 SHL SUB AND DUP4 PUSH2 0x202D JUMP JUMPDEST SWAP4 POP POP POP POP PUSH2 0x1CC0 JUMP JUMPDEST POP JUMPDEST PUSH2 0x3521 DUP3 DUP6 PUSH2 0x3BF9 PUSH1 0x1 PUSH1 0x1 PUSH1 0xA0 SHL SUB DUP11 AND DUP4 PUSH2 0x46D9 JUMP JUMPDEST PUSH2 0x3C03 SWAP2 SWAP1 PUSH2 0x447C JUMP JUMPDEST DUP1 DUP3 DIV SWAP2 MOD ISZERO ISZERO ADD SWAP1 JUMP JUMPDEST PUSH1 0x0 DUP2 PUSH1 0x0 SUB PUSH2 0x3C20 JUMPI POP PUSH1 0x0 SWAP2 SWAP1 POP JUMP JUMPDEST DUP2 PUSH1 0x1 PUSH1 0x1 PUSH1 0x80 SHL DUP3 LT PUSH2 0x3C39 JUMPI PUSH1 0x80 SWAP2 SWAP1 SWAP2 SHR SWAP1 PUSH1 0x40 SHL JUMPDEST PUSH1 0x1 PUSH1 0x40 SHL DUP3 LT PUSH2 0x3C4F JUMPI PUSH1 0x40 SWAP2 SWAP1 SWAP2 SHR SWAP1 PUSH1 0x20 SHL JUMPDEST PUSH1 0x1 PUSH1 0x20 SHL DUP3 LT PUSH2 0x3C65 JUMPI PUSH1 0x20 SWAP2 SWAP1 SWAP2 SHR SWAP1 PUSH1 0x10 SHL JUMPDEST PUSH3 0x10000 DUP3 LT PUSH2 0x3C7A JUMPI PUSH1 0x10 SWAP2 SWAP1 SWAP2 SHR SWAP1 PUSH1 0x8 SHL JUMPDEST PUSH2 0x100 DUP3 LT PUSH2 0x3C8E JUMPI PUSH1 0x8 SWAP2 SWAP1 SWAP2 SHR SWAP1 PUSH1 0x4 SHL JUMPDEST PUSH1 0x10 DUP3 LT PUSH2 0x3CA1 JUMPI PUSH1 0x4 SWAP2 SWAP1 SWAP2 SHR SWAP1 PUSH1 0x2 SHL JUMPDEST PUSH1 0x4 DUP3 LT PUSH2 0x3CAD JUMPI PUSH1 0x1 SHL JUMPDEST PUSH1 0x1 DUP2 DUP6 DUP2 PUSH2 0x3CBE JUMPI PUSH2 0x3CBE PUSH2 0x45A0 JUMP JUMPDEST DIV DUP3 ADD SWAP1 SHR SWAP1 POP PUSH1 0x1 DUP2 DUP6 DUP2 PUSH2 0x3CD6 JUMPI PUSH2 0x3CD6 PUSH2 0x45A0 JUMP JUMPDEST DIV DUP3 ADD SWAP1 SHR SWAP1 POP PUSH1 0x1 DUP2 DUP6 DUP2 PUSH2 0x3CEE JUMPI PUSH2 0x3CEE PUSH2 0x45A0 JUMP JUMPDEST DIV DUP3 ADD SWAP1 SHR SWAP1 POP PUSH1 0x1 DUP2 DUP6 DUP2 PUSH2 0x3D06 JUMPI PUSH2 0x3D06 PUSH2 0x45A0 JUMP JUMPDEST DIV DUP3 ADD SWAP1 SHR SWAP1 POP PUSH1 0x1 DUP2 DUP6 DUP2 PUSH2 0x3D1E JUMPI PUSH2 0x3D1E PUSH2 0x45A0 JUMP JUMPDEST DIV DUP3 ADD SWAP1 SHR SWAP1 POP PUSH1 0x1 DUP2 DUP6 DUP2 PUSH2 0x3D36 JUMPI PUSH2 0x3D36 PUSH2 0x45A0 JUMP JUMPDEST DIV DUP3 ADD SWAP1 SHR SWAP1 POP PUSH1 0x1 DUP2 DUP6 DUP2 PUSH2 0x3D4E JUMPI PUSH2 0x3D4E PUSH2 0x45A0 JUMP JUMPDEST DIV DUP3 ADD SWAP1 SHR SWAP1 POP PUSH1 0x0 DUP2 DUP6 DUP2 PUSH2 0x3D66 JUMPI PUSH2 0x3D66 PUSH2 0x45A0 JUMP JUMPDEST DIV SWAP1 POP DUP1 DUP3 LT PUSH2 0x3D76 JUMPI DUP1 PUSH2 0x206D JUMP JUMPDEST POP SWAP4 SWAP3 POP POP POP JUMP JUMPDEST PUSH1 0x0 DUP4 PUSH4 0xFFFFFFFF AND DUP4 PUSH4 0xFFFFFFFF AND GT ISZERO DUP1 ISZERO PUSH2 0x3DA8 JUMPI POP DUP4 PUSH4 0xFFFFFFFF AND DUP3 PUSH4 0xFFFFFFFF AND GT ISZERO JUMPDEST ISZERO PUSH2 0x3DC4 JUMPI DUP2 PUSH4 0xFFFFFFFF AND DUP4 PUSH4 0xFFFFFFFF AND GT ISZERO SWAP1 POP PUSH2 0x1CC0 JUMP JUMPDEST PUSH1 0x0 DUP5 PUSH4 0xFFFFFFFF AND DUP5 PUSH4 0xFFFFFFFF AND GT PUSH2 0x3DF2 JUMPI PUSH2 0x3DED PUSH4 0xFFFFFFFF DUP6 AND PUSH1 0x1 PUSH1 0x20 SHL PUSH2 0x48F1 JUMP JUMPDEST PUSH2 0x3DFA JUMP JUMPDEST DUP4 PUSH4 0xFFFFFFFF AND JUMPDEST PUSH5 0xFFFFFFFFFF AND SWAP1 POP PUSH1 0x0 DUP6 PUSH4 0xFFFFFFFF AND DUP5 PUSH4 0xFFFFFFFF AND GT PUSH2 0x3E31 JUMPI PUSH2 0x3E2C PUSH4 0xFFFFFFFF DUP6 AND PUSH1 0x1 PUSH1 0x20 SHL PUSH2 0x48F1 JUMP JUMPDEST PUSH2 0x3E39 JUMP JUMPDEST DUP4 PUSH4 0xFFFFFFFF AND JUMPDEST PUSH5 0xFFFFFFFFFF AND SWAP1 SWAP2 GT ISZERO SWAP6 SWAP5 POP POP POP POP POP JUMP JUMPDEST PUSH1 0x40 DUP1 MLOAD PUSH1 0x60 DUP1 DUP3 ADD DUP4 MSTORE PUSH1 0x0 DUP1 DUP4 MSTORE PUSH1 0x20 DUP1 DUP5 ADD DUP3 SWAP1 MSTORE DUP4 DUP6 ADD DUP3 SWAP1 MSTORE DUP5 MLOAD SWAP3 DUP4 ADD DUP6 MSTORE DUP2 DUP4 MSTORE DUP3 ADD DUP2 SWAP1 MSTORE SWAP3 DUP2 ADD DUP4 SWAP1 MSTORE SWAP1 SWAP2 DUP4 PUSH2 0x3E8E DUP7 PUSH1 0x1 PUSH2 0x47B0 JUMP JUMPDEST PUSH2 0x3E98 SWAP2 SWAP1 PUSH2 0x47CB JUMP JUMPDEST PUSH2 0xFFFF AND SWAP1 POP PUSH1 0x0 PUSH1 0x1 DUP6 PUSH2 0xFFFF AND DUP4 PUSH2 0x3EB2 SWAP2 SWAP1 PUSH2 0x447C JUMP JUMPDEST PUSH2 0x3EBC SWAP2 SWAP1 PUSH2 0x4531 JUMP JUMPDEST SWAP1 POP PUSH1 0x0 JUMPDEST PUSH1 0x2 PUSH2 0x3ECD DUP4 DUP6 PUSH2 0x447C JUMP JUMPDEST PUSH2 0x3ED7 SWAP2 SWAP1 PUSH2 0x46D9 JUMP JUMPDEST SWAP1 POP DUP10 PUSH2 0x3EE8 PUSH2 0xFFFF DUP9 AND DUP4 PUSH2 0x46ED JUMP JUMPDEST PUSH2 0xFFFF DUP2 LT PUSH2 0x3EF9 JUMPI PUSH2 0x3EF9 PUSH2 0x4569 JUMP JUMPDEST PUSH1 0x40 DUP1 MLOAD PUSH1 0x60 DUP2 ADD DUP3 MSTORE SWAP2 SWAP1 SWAP3 ADD SLOAD PUSH4 0xFFFFFFFF DUP2 AND DUP3 MSTORE PUSH1 0x1 PUSH1 0x20 SHL DUP2 DIV PUSH1 0x6 SIGNEXTEND PUSH1 0x20 DUP4 ADD MSTORE PUSH1 0x1 PUSH1 0x58 SHL SWAP1 DIV PUSH1 0xFF AND ISZERO ISZERO SWAP2 DUP2 ADD DUP3 SWAP1 MSTORE SWAP6 POP PUSH2 0x3F4A JUMPI PUSH2 0x3F43 DUP2 PUSH1 0x1 PUSH2 0x447C JUMP JUMPDEST SWAP3 POP PUSH2 0x3EC1 JUMP JUMPDEST DUP10 PUSH2 0xFFFF DUP8 AND PUSH2 0x3F5B DUP4 PUSH1 0x1 PUSH2 0x447C JUMP JUMPDEST PUSH2 0x3F65 SWAP2 SWAP1 PUSH2 0x46ED JUMP JUMPDEST PUSH2 0xFFFF DUP2 LT PUSH2 0x3F76 JUMPI PUSH2 0x3F76 PUSH2 0x4569 JUMP JUMPDEST PUSH1 0x40 DUP1 MLOAD PUSH1 0x60 DUP2 ADD DUP3 MSTORE SWAP3 SWAP1 SWAP2 ADD SLOAD PUSH4 0xFFFFFFFF DUP2 AND DUP4 MSTORE PUSH1 0x1 PUSH1 0x20 SHL DUP2 DIV PUSH1 0x6 SIGNEXTEND PUSH1 0x20 DUP5 ADD MSTORE PUSH1 0xFF PUSH1 0x1 PUSH1 0x58 SHL SWAP1 SWAP2 DIV AND ISZERO ISZERO SWAP1 DUP3 ADD MSTORE DUP6 MLOAD SWAP1 SWAP5 POP PUSH1 0x0 SWAP1 PUSH2 0x3FC2 SWAP1 DUP12 SWAP1 DUP12 PUSH2 0x3D7E JUMP JUMPDEST SWAP1 POP DUP1 DUP1 ISZERO PUSH2 0x3FDB JUMPI POP PUSH2 0x3FDB DUP11 DUP11 DUP8 PUSH1 0x0 ADD MLOAD PUSH2 0x3D7E JUMP JUMPDEST ISZERO PUSH2 0x3FE6 JUMPI POP PUSH2 0x4011 JUMP JUMPDEST DUP1 PUSH2 0x3FFD JUMPI PUSH2 0x3FF6 PUSH1 0x1 DUP4 PUSH2 0x4531 JUMP JUMPDEST SWAP3 POP PUSH2 0x400B JUMP JUMPDEST PUSH2 0x4008 DUP3 PUSH1 0x1 PUSH2 0x447C JUMP JUMPDEST SWAP4 POP JUMPDEST POP PUSH2 0x3EC1 JUMP JUMPDEST POP POP POP SWAP6 POP SWAP6 SWAP4 POP POP POP POP JUMP JUMPDEST PUSH1 0x0 PUSH1 0x20 DUP3 DUP5 SUB SLT ISZERO PUSH2 0x4030 JUMPI PUSH1 0x0 DUP1 REVERT JUMPDEST POP CALLDATALOAD SWAP2 SWAP1 POP JUMP JUMPDEST PUSH1 0x0 PUSH1 0x20 DUP3 DUP5 SUB SLT ISZERO PUSH2 0x4049 JUMPI PUSH1 0x0 DUP1 REVERT JUMPDEST DUP2 CALLDATALOAD PUSH2 0xFFFF DUP2 AND DUP2 EQ PUSH2 0x1CC0 JUMPI PUSH1 0x0 DUP1 REVERT JUMPDEST PUSH1 0x1 PUSH1 0x1 PUSH1 0xA0 SHL SUB DUP2 AND DUP2 EQ PUSH2 0x4070 JUMPI PUSH1 0x0 DUP1 REVERT JUMPDEST POP JUMP JUMPDEST DUP1 CALLDATALOAD PUSH1 0x2 DUP2 SWAP1 SIGNEXTEND DUP2 EQ PUSH2 0x3635 JUMPI PUSH1 0x0 DUP1 REVERT JUMPDEST DUP1 CALLDATALOAD PUSH1 0x1 PUSH1 0x1 PUSH1 0x80 SHL SUB DUP2 AND DUP2 EQ PUSH2 0x3635 JUMPI PUSH1 0x0 DUP1 REVERT JUMPDEST PUSH1 0x0 DUP1 DUP4 PUSH1 0x1F DUP5 ADD SLT PUSH2 0x40AE JUMPI PUSH1 0x0 DUP1 REVERT JUMPDEST POP DUP2 CALLDATALOAD PUSH8 0xFFFFFFFFFFFFFFFF DUP2 GT ISZERO PUSH2 0x40C6 JUMPI PUSH1 0x0 DUP1 REVERT JUMPDEST PUSH1 0x20 DUP4 ADD SWAP2 POP DUP4 PUSH1 0x20 DUP3 DUP6 ADD ADD GT ISZERO PUSH2 0x40DE JUMPI PUSH1 0x0 DUP1 REVERT JUMPDEST SWAP3 POP SWAP3 SWAP1 POP JUMP JUMPDEST PUSH1 0x0 DUP1 PUSH1 0x0 DUP1 PUSH1 0x0 DUP1 PUSH1 0xA0 DUP8 DUP10 SUB SLT ISZERO PUSH2 0x40FE JUMPI PUSH1 0x0 DUP1 REVERT JUMPDEST DUP7 CALLDATALOAD PUSH2 0x4109 DUP2 PUSH2 0x405B JUMP JUMPDEST SWAP6 POP PUSH2 0x4117 PUSH1 0x20 DUP9 ADD PUSH2 0x4073 JUMP JUMPDEST SWAP5 POP PUSH2 0x4125 PUSH1 0x40 DUP9 ADD PUSH2 0x4073 JUMP JUMPDEST SWAP4 POP PUSH2 0x4133 PUSH1 0x60 DUP9 ADD PUSH2 0x4085 JUMP JUMPDEST SWAP3 POP PUSH1 0x80 DUP8 ADD CALLDATALOAD PUSH8 0xFFFFFFFFFFFFFFFF DUP2 GT ISZERO PUSH2 0x414F JUMPI PUSH1 0x0 DUP1 REVERT JUMPDEST PUSH2 0x415B DUP10 DUP3 DUP11 ADD PUSH2 0x409C JUMP JUMPDEST SWAP8 SWAP11 SWAP7 SWAP10 POP SWAP5 SWAP8 POP SWAP3 SWAP6 SWAP4 SWAP5 SWAP3 POP POP POP JUMP JUMPDEST PUSH1 0x0 DUP1 PUSH1 0x0 DUP1 PUSH1 0x60 DUP6 DUP8 SUB SLT ISZERO PUSH2 0x4183 JUMPI PUSH1 0x0 DUP1 REVERT JUMPDEST DUP5 CALLDATALOAD SWAP4 POP PUSH1 0x20 DUP6 ADD CALLDATALOAD SWAP3 POP PUSH1 0x40 DUP6 ADD CALLDATALOAD PUSH8 0xFFFFFFFFFFFFFFFF DUP2 GT ISZERO PUSH2 0x41A8 JUMPI PUSH1 0x0 DUP1 REVERT JUMPDEST PUSH2 0x41B4 DUP8 DUP3 DUP9 ADD PUSH2 0x409C JUMP JUMPDEST SWAP6 SWAP9 SWAP5 SWAP8 POP SWAP6 POP POP POP POP JUMP JUMPDEST PUSH1 0x0 DUP1 PUSH1 0x0 DUP1 PUSH1 0x0 PUSH1 0xA0 DUP7 DUP9 SUB SLT ISZERO PUSH2 0x41D8 JUMPI PUSH1 0x0 DUP1 REVERT JUMPDEST DUP6 CALLDATALOAD PUSH2 0x41E3 DUP2 PUSH2 0x405B JUMP JUMPDEST SWAP5 POP PUSH2 0x41F1 PUSH1 0x20 DUP8 ADD PUSH2 0x4073 JUMP JUMPDEST SWAP4 POP PUSH2 0x41FF PUSH1 0x40 DUP8 ADD PUSH2 0x4073 JUMP JUMPDEST SWAP3 POP PUSH2 0x420D PUSH1 0x60 DUP8 ADD PUSH2 0x4085 JUMP JUMPDEST SWAP2 POP PUSH2 0x421B PUSH1 0x80 DUP8 ADD PUSH2 0x4085 JUMP JUMPDEST SWAP1 POP SWAP3 SWAP6 POP SWAP3 SWAP6 SWAP1 SWAP4 POP JUMP JUMPDEST PUSH1 0x0 PUSH1 0x20 DUP3 DUP5 SUB SLT ISZERO PUSH2 0x4239 JUMPI PUSH1 0x0 DUP1 REVERT JUMPDEST DUP2 CALLDATALOAD DUP1 PUSH1 0x1 SIGNEXTEND DUP2 EQ PUSH2 0x1CC0 JUMPI PUSH1 0x0 DUP1 REVERT JUMPDEST PUSH1 0x0 DUP1 PUSH1 0x0 PUSH1 0x60 DUP5 DUP7 SUB SLT ISZERO PUSH2 0x425F JUMPI PUSH1 0x0 DUP1 REVERT JUMPDEST PUSH2 0x4268 DUP5 PUSH2 0x4073 JUMP JUMPDEST SWAP3 POP PUSH2 0x4276 PUSH1 0x20 DUP6 ADD PUSH2 0x4073 JUMP JUMPDEST SWAP2 POP PUSH1 0x40 DUP5 ADD CALLDATALOAD PUSH2 0x4286 DUP2 PUSH2 0x405B JUMP JUMPDEST DUP1 SWAP2 POP POP SWAP3 POP SWAP3 POP SWAP3 JUMP JUMPDEST PUSH1 0x0 DUP1 PUSH1 0x20 DUP4 DUP6 SUB SLT ISZERO PUSH2 0x42A4 JUMPI PUSH1 0x0 DUP1 REVERT JUMPDEST DUP3 CALLDATALOAD PUSH8 0xFFFFFFFFFFFFFFFF DUP1 DUP3 GT ISZERO PUSH2 0x42BC JUMPI PUSH1 0x0 DUP1 REVERT JUMPDEST DUP2 DUP6 ADD SWAP2 POP DUP6 PUSH1 0x1F DUP4 ADD SLT PUSH2 0x42D0 JUMPI PUSH1 0x0 DUP1 REVERT JUMPDEST DUP2 CALLDATALOAD DUP2 DUP2 GT ISZERO PUSH2 0x42DF JUMPI PUSH1 0x0 DUP1 REVERT JUMPDEST DUP7 PUSH1 0x20 DUP3 PUSH1 0x5 SHL DUP6 ADD ADD GT ISZERO PUSH2 0x42F4 JUMPI PUSH1 0x0 DUP1 REVERT JUMPDEST PUSH1 0x20 SWAP3 SWAP1 SWAP3 ADD SWAP7 SWAP2 SWAP6 POP SWAP1 SWAP4 POP POP POP POP JUMP JUMPDEST PUSH1 0x20 DUP1 DUP3 MSTORE DUP3 MLOAD DUP3 DUP3 ADD DUP2 SWAP1 MSTORE PUSH1 0x0 SWAP2 SWAP1 DUP5 DUP3 ADD SWAP1 PUSH1 0x40 DUP6 ADD SWAP1 DUP5 JUMPDEST DUP2 DUP2 LT ISZERO PUSH2 0x4341 JUMPI DUP4 MLOAD PUSH1 0x6 SIGNEXTEND DUP4 MSTORE SWAP3 DUP5 ADD SWAP3 SWAP2 DUP5 ADD SWAP2 PUSH1 0x1 ADD PUSH2 0x4322 JUMP JUMPDEST POP SWAP1 SWAP7 SWAP6 POP POP POP POP POP POP JUMP JUMPDEST PUSH1 0x0 DUP1 PUSH1 0x0 PUSH1 0x60 DUP5 DUP7 SUB SLT ISZERO PUSH2 0x4362 JUMPI PUSH1 0x0 DUP1 REVERT JUMPDEST PUSH2 0x436B DUP5 PUSH2 0x4073 JUMP JUMPDEST SWAP3 POP PUSH2 0x4379 PUSH1 0x20 DUP6 ADD PUSH2 0x4073 JUMP JUMPDEST SWAP2 POP PUSH2 0x4387 PUSH1 0x40 DUP6 ADD PUSH2 0x4085 JUMP JUMPDEST SWAP1 POP SWAP3 POP SWAP3 POP SWAP3 JUMP JUMPDEST PUSH1 0x0 DUP1 PUSH1 0x0 DUP1 PUSH1 0x0 DUP1 PUSH1 0xA0 DUP8 DUP10 SUB SLT ISZERO PUSH2 0x43A9 JUMPI PUSH1 0x0 DUP1 REVERT JUMPDEST DUP7 CALLDATALOAD PUSH2 0x43B4 DUP2 PUSH2 0x405B JUMP JUMPDEST SWAP6 POP PUSH1 0x20 DUP8 ADD CALLDATALOAD DUP1 ISZERO ISZERO DUP2 EQ PUSH2 0x43C9 JUMPI PUSH1 0x0 DUP1 REVERT JUMPDEST SWAP5 POP PUSH1 0x40 DUP8 ADD CALLDATALOAD SWAP4 POP PUSH1 0x60 DUP8 ADD CALLDATALOAD PUSH2 0x4133 DUP2 PUSH2 0x405B JUMP JUMPDEST PUSH1 0x0 PUSH1 0x20 DUP3 DUP5 SUB SLT ISZERO PUSH2 0x43F2 JUMPI PUSH1 0x0 DUP1 REVERT JUMPDEST PUSH2 0x10F4 DUP3 PUSH2 0x4073 JUMP JUMPDEST PUSH4 0x4E487B71 PUSH1 0xE0 SHL PUSH1 0x0 MSTORE PUSH1 0x11 PUSH1 0x4 MSTORE PUSH1 0x24 PUSH1 0x0 REVERT JUMPDEST PUSH1 0x0 DUP2 PUSH1 0x2 SIGNEXTEND PUSH3 0x7FFFFF NOT DUP2 SUB PUSH2 0x442A JUMPI PUSH2 0x442A PUSH2 0x43FB JUMP JUMPDEST PUSH1 0x0 SUB SWAP3 SWAP2 POP POP JUMP JUMPDEST DUP2 DUP4 MSTORE DUP2 DUP2 PUSH1 0x20 DUP6 ADD CALLDATACOPY POP PUSH1 0x0 DUP3 DUP3 ADD PUSH1 0x20 SWAP1 DUP2 ADD SWAP2 SWAP1 SWAP2 MSTORE PUSH1 0x1F SWAP1 SWAP2 ADD PUSH1 0x1F NOT AND SWAP1 SWAP2 ADD ADD SWAP1 JUMP JUMPDEST DUP5 DUP2 MSTORE DUP4 PUSH1 0x20 DUP3 ADD MSTORE PUSH1 0x60 PUSH1 0x40 DUP3 ADD MSTORE PUSH1 0x0 PUSH2 0x3521 PUSH1 0x60 DUP4 ADD DUP5 DUP7 PUSH2 0x4433 JUMP JUMPDEST DUP1 DUP3 ADD DUP1 DUP3 GT ISZERO PUSH2 0x10F7 JUMPI PUSH2 0x10F7 PUSH2 0x43FB JUMP JUMPDEST PUSH1 0x0 PUSH1 0x20 DUP3 DUP5 SUB SLT ISZERO PUSH2 0x44A1 JUMPI PUSH1 0x0 DUP1 REVERT JUMPDEST POP MLOAD SWAP2 SWAP1 POP JUMP JUMPDEST PUSH1 0x1 PUSH1 0x1 PUSH1 0x80 SHL SUB DUP3 DUP2 AND DUP3 DUP3 AND SUB SWAP1 DUP1 DUP3 GT ISZERO PUSH2 0x44C8 JUMPI PUSH2 0x44C8 PUSH2 0x43FB JUMP JUMPDEST POP SWAP3 SWAP2 POP POP JUMP JUMPDEST PUSH1 0x0 DUP2 PUSH1 0xF SIGNEXTEND PUSH16 0x7FFFFFFFFFFFFFFFFFFFFFFFFFFFFFFF NOT DUP2 SUB PUSH2 0x442A JUMPI PUSH2 0x442A PUSH2 0x43FB JUMP JUMPDEST PUSH1 0x0 PUSH1 0x1 PUSH1 0xFF SHL DUP3 ADD PUSH2 0x450A JUMPI PUSH2 0x450A PUSH2 0x43FB JUMP JUMPDEST POP PUSH1 0x0 SUB SWAP1 JUMP JUMPDEST PUSH1 0x1 PUSH1 0x1 PUSH1 0x80 SHL SUB DUP2 DUP2 AND DUP4 DUP3 AND ADD SWAP1 DUP1 DUP3 GT ISZERO PUSH2 0x44C8 JUMPI PUSH2 0x44C8 PUSH2 0x43FB JUMP JUMPDEST DUP2 DUP2 SUB DUP2 DUP2 GT ISZERO PUSH2 0x10F7 JUMPI PUSH2 0x10F7 PUSH2 0x43FB JUMP JUMPDEST PUSH1 0x2 DUP3 DUP2 SIGNEXTEND SWAP1 DUP3 SWAP1 SIGNEXTEND SUB PUSH3 0x7FFFFF NOT DUP2 SLT PUSH3 0x7FFFFF DUP3 SGT OR ISZERO PUSH2 0x10F7 JUMPI PUSH2 0x10F7 PUSH2 0x43FB JUMP JUMPDEST PUSH4 0x4E487B71 PUSH1 0xE0 SHL PUSH1 0x0 MSTORE PUSH1 0x32 PUSH1 0x4 MSTORE PUSH1 0x24 PUSH1 0x0 REVERT JUMPDEST PUSH1 0x0 PUSH2 0xFFFF DUP1 DUP4 AND DUP2 DUP2 SUB PUSH2 0x4596 JUMPI PUSH2 0x4596 PUSH2 0x43FB JUMP JUMPDEST PUSH1 0x1 ADD SWAP4 SWAP3 POP POP POP JUMP JUMPDEST PUSH4 0x4E487B71 PUSH1 0xE0 SHL PUSH1 0x0 MSTORE PUSH1 0x12 PUSH1 0x4 MSTORE PUSH1 0x24 PUSH1 0x0 REVERT JUMPDEST PUSH1 0x0 PUSH1 0x1 DUP3 ADD PUSH2 0x45C8 JUMPI PUSH2 0x45C8 PUSH2 0x43FB JUMP JUMPDEST POP PUSH1 0x1 ADD SWAP1 JUMP JUMPDEST PUSH4 0x4E487B71 PUSH1 0xE0 SHL PUSH1 0x0 MSTORE PUSH1 0x41 PUSH1 0x4 MSTORE PUSH1 0x24 PUSH1 0x0 REVERT JUMPDEST PUSH1 0x0 DUP2 PUSH1 0x2 SIGNEXTEND DUP4 PUSH1 0x2 SIGNEXTEND DUP1 PUSH2 0x45FC JUMPI PUSH2 0x45FC PUSH2 0x45A0 JUMP JUMPDEST PUSH3 0x7FFFFF NOT DUP3 EQ PUSH1 0x0 NOT DUP3 EQ AND ISZERO PUSH2 0x4616 JUMPI PUSH2 0x4616 PUSH2 0x43FB JUMP JUMPDEST SWAP1 SDIV SWAP4 SWAP3 POP POP POP JUMP JUMPDEST PUSH1 0x0 DUP3 PUSH1 0x2 SIGNEXTEND DUP1 PUSH2 0x4632 JUMPI PUSH2 0x4632 PUSH2 0x45A0 JUMP JUMPDEST DUP1 DUP4 PUSH1 0x2 SIGNEXTEND SMOD SWAP2 POP POP SWAP3 SWAP2 POP POP JUMP JUMPDEST PUSH1 0x0 DUP2 PUSH1 0x2 SIGNEXTEND PUSH3 0x7FFFFF NOT DUP2 SUB PUSH2 0x465A JUMPI PUSH2 0x465A PUSH2 0x43FB JUMP JUMPDEST PUSH1 0x0 NOT ADD SWAP3 SWAP2 POP POP JUMP JUMPDEST PUSH1 0x0 DUP3 PUSH1 0x2 SIGNEXTEND DUP3 PUSH1 0x2 SIGNEXTEND MUL DUP1 PUSH1 0x2 SIGNEXTEND SWAP2 POP DUP1 DUP3 EQ PUSH2 0x44C8 JUMPI PUSH2 0x44C8 PUSH2 0x43FB JUMP JUMPDEST PUSH1 0xFF DUP3 DUP2 AND DUP3 DUP3 AND SUB SWAP1 DUP2 GT ISZERO PUSH2 0x10F7 JUMPI PUSH2 0x10F7 PUSH2 0x43FB JUMP JUMPDEST PUSH1 0x2 DUP2 DUP2 SIGNEXTEND SWAP1 DUP4 SWAP1 SIGNEXTEND ADD PUSH3 0x7FFFFF DUP2 SGT PUSH3 0x7FFFFF NOT DUP3 SLT OR ISZERO PUSH2 0x10F7 JUMPI PUSH2 0x10F7 PUSH2 0x43FB JUMP JUMPDEST DUP1 DUP3 MUL DUP2 ISZERO DUP3 DUP3 DIV DUP5 EQ OR PUSH2 0x10F7 JUMPI PUSH2 0x10F7 PUSH2 0x43FB JUMP JUMPDEST PUSH1 0x0 DUP3 PUSH2 0x46E8 JUMPI PUSH2 0x46E8 PUSH2 0x45A0 JUMP JUMPDEST POP DIV SWAP1 JUMP JUMPDEST PUSH1 0x0 DUP3 PUSH2 0x46FC JUMPI PUSH2 0x46FC PUSH2 0x45A0 JUMP JUMPDEST POP MOD SWAP1 JUMP JUMPDEST PUSH3 0xFFFFFF DUP3 DUP2 AND DUP3 DUP3 AND SUB SWAP1 DUP1 DUP3 GT ISZERO PUSH2 0x44C8 JUMPI PUSH2 0x44C8 PUSH2 0x43FB JUMP JUMPDEST DUP2 DUP2 SUB PUSH1 0x0 DUP4 SLT DUP1 ISZERO DUP4 DUP4 SGT AND DUP4 DUP4 SLT DUP3 AND OR ISZERO PUSH2 0x44C8 JUMPI PUSH2 0x44C8 PUSH2 0x43FB JUMP JUMPDEST DUP1 DUP3 MUL PUSH1 0x0 DUP3 SLT PUSH1 0x1 PUSH1 0xFF SHL DUP5 EQ AND ISZERO PUSH2 0x4759 JUMPI PUSH2 0x4759 PUSH2 0x43FB JUMP JUMPDEST DUP2 DUP2 SDIV DUP4 EQ DUP3 ISZERO OR PUSH2 0x10F7 JUMPI PUSH2 0x10F7 PUSH2 0x43FB JUMP JUMPDEST DUP1 DUP3 ADD DUP3 DUP2 SLT PUSH1 0x0 DUP4 SLT DUP1 ISZERO DUP3 AND DUP3 ISZERO DUP3 AND OR ISZERO PUSH2 0x478D JUMPI PUSH2 0x478D PUSH2 0x43FB JUMP JUMPDEST POP POP SWAP3 SWAP2 POP POP JUMP JUMPDEST PUSH2 0xFFFF DUP3 DUP2 AND DUP3 DUP3 AND SUB SWAP1 DUP1 DUP3 GT ISZERO PUSH2 0x44C8 JUMPI PUSH2 0x44C8 PUSH2 0x43FB JUMP JUMPDEST PUSH2 0xFFFF DUP2 DUP2 AND DUP4 DUP3 AND ADD SWAP1 DUP1 DUP3 GT ISZERO PUSH2 0x44C8 JUMPI PUSH2 0x44C8 PUSH2 0x43FB JUMP JUMPDEST PUSH1 0x0 PUSH2 0xFFFF DUP1 DUP5 AND DUP1 PUSH2 0x47E0 JUMPI PUSH2 0x47E0 PUSH2 0x45A0 JUMP JUMPDEST SWAP3 AND SWAP2 SWAP1 SWAP2 MOD SWAP3 SWAP2 POP POP JUMP JUMPDEST PUSH4 0xFFFFFFFF DUP3 DUP2 AND DUP3 DUP3 AND SUB SWAP1 DUP1 DUP3 GT ISZERO PUSH2 0x44C8 JUMPI PUSH2 0x44C8 PUSH2 0x43FB JUMP JUMPDEST PUSH1 0x6 DUP3 DUP2 SIGNEXTEND SWAP1 DUP3 SWAP1 SIGNEXTEND SUB PUSH7 0x7FFFFFFFFFFFFF NOT DUP2 SLT PUSH7 0x7FFFFFFFFFFFFF DUP3 SGT OR ISZERO PUSH2 0x10F7 JUMPI PUSH2 0x10F7 PUSH2 0x43FB JUMP JUMPDEST PUSH1 0x0 DUP2 PUSH1 0x6 SIGNEXTEND DUP4 PUSH1 0x6 SIGNEXTEND DUP1 PUSH2 0x484D JUMPI PUSH2 0x484D PUSH2 0x45A0 JUMP JUMPDEST PUSH7 0x7FFFFFFFFFFFFF NOT DUP3 EQ PUSH1 0x0 NOT DUP3 EQ AND ISZERO PUSH2 0x4616 JUMPI PUSH2 0x4616 PUSH2 0x43FB JUMP JUMPDEST PUSH1 0x0 DUP3 PUSH1 0x6 SIGNEXTEND DUP3 PUSH1 0x6 SIGNEXTEND MUL DUP1 PUSH1 0x6 SIGNEXTEND SWAP2 POP DUP1 DUP3 EQ PUSH2 0x44C8 JUMPI PUSH2 0x44C8 PUSH2 0x43FB JUMP JUMPDEST PUSH1 0x6 DUP2 DUP2 SIGNEXTEND SWAP1 DUP4 SWAP1 SIGNEXTEND ADD PUSH7 0x7FFFFFFFFFFFFF DUP2 SGT PUSH7 0x7FFFFFFFFFFFFF NOT DUP3 SLT OR ISZERO PUSH2 0x10F7 JUMPI PUSH2 0x10F7 PUSH2 0x43FB JUMP JUMPDEST PUSH1 0xFF DUP2 DUP2 AND DUP4 DUP3 AND ADD SWAP1 DUP2 GT ISZERO PUSH2 0x10F7 JUMPI PUSH2 0x10F7 PUSH2 0x43FB JUMP JUMPDEST PUSH1 0x1 PUSH1 0x1 PUSH1 0xA0 SHL SUB DUP3 DUP2 AND DUP3 DUP3 AND SUB SWAP1 DUP1 DUP3 GT ISZERO PUSH2 0x44C8 JUMPI PUSH2 0x44C8 PUSH2 0x43FB JUMP JUMPDEST PUSH5 0xFFFFFFFFFF DUP2 DUP2 AND DUP4 DUP3 AND ADD SWAP1 DUP1 DUP3 GT ISZERO PUSH2 0x44C8 JUMPI PUSH2 0x44C8 PUSH2 0x43FB JUMP INVALID LOG2 PUSH5 0x6970667358 0x22 SLT KECCAK256 0xCD 0xD3 0x2F MSTORE INVALID EXTCODECOPY EXP XOR BASEFEE EXP CALLER 0x27 0xD3 SWAP10 PUSH24 0x1A37D2186F12B7000089F143DC3C4DAFD64736F6C634300 ADDMOD EQ STOP CALLER ",
    "sha1": "3da24f364374931193c0a196cf34ec12001a092f",
    "source": "// SPDX-License-Identifier: BUSL-1.1\npragma solidity ^0.8.14;\n\nimport \"./new/Utils.sol\";\n\nimport \"../interface_contracts/IERC20.sol\";\nimport \"../interface_contracts/IUniswapV3FlashCallback.sol\";\nimport \"../interface_contracts/IUniswapV3MintCallback.sol\";\nimport \"../interface_contracts/IUniswapV3Pool.sol\";\nimport \"../interface_contracts/IUniswapV3PoolDeployer.sol\";\nimport \"../interface_contracts/IUniswapV3SwapCallback.sol\";\n\nimport \"../lib/prb-math/PRBMath.sol\";\nimport \"./lib/FixedPoint128.sol\";\nimport \"./lib/LiquidityMath.sol\";\nimport \"./lib/Math.sol\";\nimport \"./lib/Oracle.sol\";\nimport \"./lib/Position.sol\";\nimport \"./lib/SwapMath.sol\";\nimport \"./lib/Tick.sol\";\nimport \"./lib/TickBitmap.sol\";\nimport \"./lib/TickMath.sol\";\n\ncontract Pool is IUniswapV3Pool {\n    using Oracle for Oracle.Observation[65535];\n    using Position for Position.Info;\n    using Position for mapping(bytes32 => Position.Info);\n    using Tick for mapping(int24 => Tick.Info);\n    using TickBitmap for mapping(int16 => uint256);\n\n    error AlreadyInitialized();\n    error FlashLoanNotPaid();\n    error InsufficientInputAmount();\n    error InvalidPriceLimit();\n    error InvalidTickRange();\n    error NotEnoughLiquidity();\n    error ZeroLiquidity();\n\n    event Burn(\n        address indexed owner,\n        int24 indexed tickLower,\n        int24 indexed tickUpper,\n        uint128 amount,\n        uint256 amount0,\n        uint256 amount1\n    );\n\n    event Collect(\n        address indexed owner,\n        address recipient,\n        int24 indexed tickLower,\n        int24 indexed tickUpper,\n        uint256 amount0,\n        uint256 amount1\n    );\n\n    event Flash(address indexed recipient, uint256 amount0, uint256 amount1);\n\n    event IncreaseObservationCardinalityNext(\n        uint16 observationCardinalityNextOld,\n        uint16 observationCardinalityNextNew\n    );\n\n    event Mint(\n        address sender,\n        address indexed owner,\n        int24 indexed tickLower,\n        int24 indexed tickUpper,\n        uint128 amount,\n        uint256 amount0,\n        uint256 amount1\n    );\n\n    event Swap(\n        address indexed sender,\n        address indexed recipient,\n        int256 amount0,\n        int256 amount1,\n        uint160 sqrtPriceX96,\n        uint128 liquidity,\n        int24 tick\n    );\n\n    // Pool parameters\n    address public immutable factory;\n    address public immutable token0;\n    address public immutable token1;\n    uint24 public immutable tickSpacing;\n    uint24 public immutable fee;\n\n    uint256 public feeGrowthGlobal0X128;\n    uint256 public feeGrowthGlobal1X128;\n\n    // First slot will contain essential data\n    struct Slot0 {\n        // Current sqrt(P)\n        uint160 sqrtPriceX96;\n        // Current tick\n        int24 tick;\n        // Most recent observation index\n        uint16 observationIndex;\n        // Maximum number of observations\n        uint16 observationCardinality;\n        // Next maximum number of observations\n        uint16 observationCardinalityNext;\n    }\n\n    struct SwapState {\n        uint256 amountSpecifiedRemaining;\n        uint256 amountCalculated;\n        uint160 sqrtPriceX96;\n        int24 tick;\n        uint256 feeGrowthGlobalX128;\n        uint128 liquidity;\n    }\n\n    struct StepState {\n        uint160 sqrtPriceStartX96;\n        int24 nextTick;\n        bool initialized;\n        uint160 sqrtPriceNextX96;\n        uint256 amountIn;\n        uint256 amountOut;\n        uint256 feeAmount;\n    }\n\n    Slot0 public slot0;\n\n    // Amount of liquidity, L.\n    uint128 public liquidity;\n\n    mapping(int24 => Tick.Info) public ticks;\n    mapping(int16 => uint256) public tickBitmap;\n    mapping(bytes32 => Position.Info) public positions;\n    Oracle.Observation[65535] public observations;\n\n    constructor() {\n        (factory, token0, token1, tickSpacing, fee) = IUniswapV3PoolDeployer(\n            msg.sender\n        ).parameters();\n    }\n\n    function initialize(uint256 price) public {\n        if (slot0.sqrtPriceX96 != 0) revert AlreadyInitialized();\n\n        uint160 sqrtPriceX96 = Utils.sqrtP(price);\n\n        int24 tick = TickMath.getTickAtSqrtRatio(sqrtPriceX96);\n\n        (uint16 cardinality, uint16 cardinalityNext) = observations.initialize(\n            _blockTimestamp()\n        );\n\n        slot0 = Slot0({\n            sqrtPriceX96: sqrtPriceX96,\n            tick: tick,\n            observationIndex: 0,\n            observationCardinality: cardinality,\n            observationCardinalityNext: cardinalityNext\n        });\n    }\n\n    struct ModifyPositionParams {\n        address owner;\n        int24 lowerTick;\n        int24 upperTick;\n        int128 liquidityDelta;\n    }\n\n    function _modifyPosition(\n        ModifyPositionParams memory params\n    )\n        internal\n        returns (Position.Info storage position, int256 amount0, int256 amount1)\n    {\n        // gas optimizations\n        Slot0 memory slot0_ = slot0;\n        uint256 feeGrowthGlobal0X128_ = feeGrowthGlobal0X128;\n        uint256 feeGrowthGlobal1X128_ = feeGrowthGlobal1X128;\n\n        position = positions.get(\n            params.owner,\n            params.lowerTick,\n            params.upperTick\n        );\n\n        bool flippedLower = ticks.update(\n            params.lowerTick,\n            slot0_.tick,\n            int128(params.liquidityDelta),\n            feeGrowthGlobal0X128_,\n            feeGrowthGlobal1X128_,\n            false\n        );\n        bool flippedUpper = ticks.update(\n            params.upperTick,\n            slot0_.tick,\n            int128(params.liquidityDelta),\n            feeGrowthGlobal0X128_,\n            feeGrowthGlobal1X128_,\n            true\n        );\n\n        if (flippedLower) {\n            tickBitmap.flipTick(params.lowerTick, int24(tickSpacing));\n        }\n\n        if (flippedUpper) {\n            tickBitmap.flipTick(params.upperTick, int24(tickSpacing));\n        }\n\n        (uint256 feeGrowthInside0X128, uint256 feeGrowthInside1X128) = ticks\n            .getFeeGrowthInside(\n                params.lowerTick,\n                params.upperTick,\n                slot0_.tick,\n                feeGrowthGlobal0X128_,\n                feeGrowthGlobal1X128_\n            );\n\n        position.update(\n            params.liquidityDelta,\n            feeGrowthInside0X128,\n            feeGrowthInside1X128\n        );\n\n        if (slot0_.tick < params.lowerTick) {\n            amount0 = Math.calcAmount0Delta(\n                TickMath.getSqrtRatioAtTick(params.lowerTick),\n                TickMath.getSqrtRatioAtTick(params.upperTick),\n                params.liquidityDelta\n            );\n        } else if (slot0_.tick < params.upperTick) {\n            amount0 = Math.calcAmount0Delta(\n                slot0_.sqrtPriceX96,\n                TickMath.getSqrtRatioAtTick(params.upperTick),\n                params.liquidityDelta\n            );\n\n            amount1 = Math.calcAmount1Delta(\n                TickMath.getSqrtRatioAtTick(params.lowerTick),\n                slot0_.sqrtPriceX96,\n                params.liquidityDelta\n            );\n\n            liquidity = LiquidityMath.addLiquidity(\n                liquidity,\n                params.liquidityDelta\n            );\n        } else {\n            amount1 = Math.calcAmount1Delta(\n                TickMath.getSqrtRatioAtTick(params.lowerTick),\n                TickMath.getSqrtRatioAtTick(params.upperTick),\n                params.liquidityDelta\n            );\n        }\n    }\n\n    function mint(\n        address owner,\n        int24 lowerTick,\n        int24 upperTick,\n        uint128 amount,\n        bytes calldata data\n    ) external returns (uint256 amount0, uint256 amount1) {\n        if (\n            lowerTick >= upperTick ||\n            lowerTick < TickMath.MIN_TICK ||\n            upperTick > TickMath.MAX_TICK\n        ) revert InvalidTickRange();\n\n        if (amount == 0) revert ZeroLiquidity();\n        (, int256 amount0Int, int256 amount1Int) = _modifyPosition(\n            ModifyPositionParams({\n                owner: owner,\n                lowerTick: lowerTick,\n                upperTick: upperTick,\n                liquidityDelta: int128(amount)\n            })\n        );\n\n        amount0 = uint256(amount0Int);\n        amount1 = uint256(amount1Int);\n        uint256 balance0Before;\n        uint256 balance1Before;\n        if (amount0 > 0) balance0Before = balance0();\n        if (amount1 > 0) balance1Before = balance1();\n\n        IUniswapV3MintCallback(msg.sender).uniswapV3MintCallback(\n            amount0,\n            amount1,\n            data\n        );\n\n        if (amount0 > 0 && balance0Before + amount0 > balance0())\n            revert InsufficientInputAmount();\n        if (amount1 > 0 && balance1Before + amount1 > balance1())\n            revert InsufficientInputAmount();\n        emit Mint(\n            msg.sender,\n            owner,\n            lowerTick,\n            upperTick,\n            amount,\n            amount0,\n            amount1\n        );\n    }\n\n    function burn(\n        int24 lowerTick,\n        int24 upperTick,\n        uint128 amount\n    ) public returns (uint256 amount0, uint256 amount1) {\n        (\n            Position.Info storage position,\n            int256 amount0Int,\n            int256 amount1Int\n        ) = _modifyPosition(\n                ModifyPositionParams({\n                    owner: msg.sender,\n                    lowerTick: lowerTick,\n                    upperTick: upperTick,\n                    liquidityDelta: -(int128(amount))\n                })\n            );\n\n        amount0 = uint256(-amount0Int);\n        amount1 = uint256(-amount1Int);\n\n        if (amount0 > 0 || amount1 > 0) {\n            (position.tokensOwed0, position.tokensOwed1) = (\n                position.tokensOwed0 + uint128(amount0),\n                position.tokensOwed1 + uint128(amount1)\n            );\n        }\n\n        emit Burn(msg.sender, lowerTick, upperTick, amount, amount0, amount1);\n    }\n\n    function collect(\n        address recipient,\n        int24 lowerTick,\n        int24 upperTick,\n        uint128 amount0Requested,\n        uint128 amount1Requested\n    ) public returns (uint128 amount0, uint128 amount1) {\n        Position.Info storage position = positions.get(\n            msg.sender,\n            lowerTick,\n            upperTick\n        );\n\n        amount0 = amount0Requested > position.tokensOwed0\n            ? position.tokensOwed0\n            : amount0Requested;\n        amount1 = amount1Requested > position.tokensOwed1\n            ? position.tokensOwed1\n            : amount1Requested;\n\n        if (amount0 > 0) {\n            position.tokensOwed0 -= amount0;\n            IERC20(token0).transfer(recipient, amount0);\n        }\n\n        if (amount1 > 0) {\n            position.tokensOwed1 -= amount1;\n            IERC20(token1).transfer(recipient, amount1);\n        }\n\n        emit Collect(\n            msg.sender,\n            recipient,\n            lowerTick,\n            upperTick,\n            amount0,\n            amount1\n        );\n    }\n\n    function swap(\n        address recipient,\n        bool zeroForOne,\n        uint256 amountSpecified,\n        uint160 sqrtPriceLimitX96,\n        bytes calldata data\n    ) public returns (int256 amount0, int256 amount1) {\n        // Caching for gas saving\n        Slot0 memory slot0_ = slot0;\n        uint128 liquidity_ = liquidity;\n\n        if (\n            zeroForOne\n                ? sqrtPriceLimitX96 > slot0_.sqrtPriceX96 ||\n                    sqrtPriceLimitX96 < TickMath.MIN_SQRT_RATIO\n                : sqrtPriceLimitX96 < slot0_.sqrtPriceX96 ||\n                    sqrtPriceLimitX96 > TickMath.MAX_SQRT_RATIO\n        ) revert InvalidPriceLimit();\n\n        SwapState memory state = SwapState({\n            amountSpecifiedRemaining: amountSpecified,\n            amountCalculated: 0,\n            sqrtPriceX96: slot0_.sqrtPriceX96,\n            tick: slot0_.tick,\n            feeGrowthGlobalX128: zeroForOne\n                ? feeGrowthGlobal0X128\n                : feeGrowthGlobal1X128,\n            liquidity: liquidity_\n        });\n\n        while (\n            state.amountSpecifiedRemaining > 0 &&\n            state.sqrtPriceX96 != sqrtPriceLimitX96\n        ) {\n            StepState memory step;\n\n            step.sqrtPriceStartX96 = state.sqrtPriceX96;\n\n            (step.nextTick, ) = tickBitmap.nextInitializedTickWithinOneWord(\n                state.tick,\n                int24(tickSpacing),\n                zeroForOne\n            );\n\n            step.sqrtPriceNextX96 = TickMath.getSqrtRatioAtTick(step.nextTick);\n\n            (\n                state.sqrtPriceX96,\n                step.amountIn,\n                step.amountOut,\n                step.feeAmount\n            ) = SwapMath.computeSwapStep(\n                state.sqrtPriceX96,\n                (\n                    zeroForOne\n                        ? step.sqrtPriceNextX96 < sqrtPriceLimitX96\n                        : step.sqrtPriceNextX96 > sqrtPriceLimitX96\n                )\n                    ? sqrtPriceLimitX96\n                    : step.sqrtPriceNextX96,\n                state.liquidity,\n                state.amountSpecifiedRemaining,\n                fee\n            );\n\n            state.amountSpecifiedRemaining -= step.amountIn + step.feeAmount;\n            state.amountCalculated += step.amountOut;\n\n            if (state.liquidity > 0) {\n                state.feeGrowthGlobalX128 += PRBMath.mulDiv(\n                    step.feeAmount,\n                    FixedPoint128.Q128,\n                    state.liquidity\n                );\n            }\n\n            if (state.sqrtPriceX96 == step.sqrtPriceNextX96) {\n                int128 liquidityDelta = ticks.cross(\n                    step.nextTick,\n                    (\n                        zeroForOne\n                            ? state.feeGrowthGlobalX128\n                            : feeGrowthGlobal0X128\n                    ),\n                    (\n                        zeroForOne\n                            ? feeGrowthGlobal1X128\n                            : state.feeGrowthGlobalX128\n                    )\n                );\n\n                if (zeroForOne) liquidityDelta = -liquidityDelta;\n\n                state.liquidity = LiquidityMath.addLiquidity(\n                    state.liquidity,\n                    liquidityDelta\n                );\n\n                if (state.liquidity == 0) revert NotEnoughLiquidity();\n\n                state.tick = zeroForOne ? step.nextTick - 1 : step.nextTick;\n            } else if (state.sqrtPriceX96 != step.sqrtPriceStartX96) {\n                state.tick = TickMath.getTickAtSqrtRatio(state.sqrtPriceX96);\n            }\n        }\n\n        if (state.tick != slot0_.tick) {\n            (\n                uint16 observationIndex,\n                uint16 observationCardinality\n            ) = observations.write(\n                    slot0_.observationIndex,\n                    _blockTimestamp(),\n                    slot0_.tick,\n                    slot0_.observationCardinality,\n                    slot0_.observationCardinalityNext\n                );\n\n            (\n                slot0.sqrtPriceX96,\n                slot0.tick,\n                slot0.observationIndex,\n                slot0.observationCardinality\n            ) = (\n                state.sqrtPriceX96,\n                state.tick,\n                observationIndex,\n                observationCardinality\n            );\n        } else {\n            slot0.sqrtPriceX96 = state.sqrtPriceX96;\n        }\n\n        if (liquidity_ != state.liquidity) liquidity = state.liquidity;\n\n        if (zeroForOne) {\n            feeGrowthGlobal0X128 = state.feeGrowthGlobalX128;\n        } else {\n            feeGrowthGlobal1X128 = state.feeGrowthGlobalX128;\n        }\n\n        (amount0, amount1) = zeroForOne\n            ? (\n                int256(amountSpecified - state.amountSpecifiedRemaining),\n                -int256(state.amountCalculated)\n            )\n            : (\n                -int256(state.amountCalculated),\n                int256(amountSpecified - state.amountSpecifiedRemaining)\n            );\n\n        if (zeroForOne) {\n            IERC20(token1).transfer(recipient, uint256(-amount1));\n\n            uint256 balance0Before = balance0();\n            IUniswapV3SwapCallback(msg.sender).uniswapV3SwapCallback(\n                amount0,\n                amount1,\n                data\n            );\n            if (balance0Before + uint256(amount0) > balance0())\n                revert InsufficientInputAmount();\n        } else {\n            IERC20(token0).transfer(recipient, uint256(-amount0));\n\n            uint256 balance1Before = balance1();\n            IUniswapV3SwapCallback(msg.sender).uniswapV3SwapCallback(\n                amount0,\n                amount1,\n                data\n            );\n            if (balance1Before + uint256(amount1) > balance1())\n                revert InsufficientInputAmount();\n        }\n\n        emit Swap(\n            msg.sender,\n            recipient,\n            amount0,\n            amount1,\n            slot0.sqrtPriceX96,\n            state.liquidity,\n            slot0.tick\n        );\n    }\n\n    function flash(\n        uint256 amount0,\n        uint256 amount1,\n        bytes calldata data\n    ) public {\n        uint256 fee0 = Math.mulDivRoundingUp(amount0, fee, 1e6);\n        uint256 fee1 = Math.mulDivRoundingUp(amount1, fee, 1e6);\n\n        uint256 balance0Before = IERC20(token0).balanceOf(address(this));\n        uint256 balance1Before = IERC20(token1).balanceOf(address(this));\n\n        if (amount0 > 0) IERC20(token0).transfer(msg.sender, amount0);\n        if (amount1 > 0) IERC20(token1).transfer(msg.sender, amount1);\n\n        IUniswapV3FlashCallback(msg.sender).uniswapV3FlashCallback(\n            fee0,\n            fee1,\n            data\n        );\n\n        if (IERC20(token0).balanceOf(address(this)) < balance0Before + fee0)\n            revert FlashLoanNotPaid();\n        if (IERC20(token1).balanceOf(address(this)) < balance1Before + fee1)\n            revert FlashLoanNotPaid();\n\n        emit Flash(msg.sender, amount0, amount1);\n    }\n\n    function observe(\n        uint32[] calldata secondsAgos\n    ) public view returns (int56[] memory tickCumulatives) {\n        return\n            observations.observe(\n                _blockTimestamp(),\n                secondsAgos,\n                slot0.tick,\n                slot0.observationIndex,\n                slot0.observationCardinality\n            );\n    }\n\n    function increaseObservationCardinalityNext(\n        uint16 observationCardinalityNext\n    ) public {\n        uint16 observationCardinalityNextOld = slot0.observationCardinalityNext;\n        uint16 observationCardinalityNextNew = observations.grow(\n            observationCardinalityNextOld,\n            observationCardinalityNext\n        );\n\n        if (observationCardinalityNextNew != observationCardinalityNextOld) {\n            slot0.observationCardinalityNext = observationCardinalityNextNew;\n            emit IncreaseObservationCardinalityNext(\n                observationCardinalityNextOld,\n                observationCardinalityNextNew\n            );\n        }\n    }\n\n    ////////////////////////////////////////////////////////////////////////////\n    //\n    // INTERNAL\n    //\n    ////////////////////////////////////////////////////////////////////////////\n    function balance0() internal returns (uint256 balance) {\n        balance = IERC20(token0).balanceOf(address(this));\n    }\n\n    function balance1() internal returns (uint256 balance) {\n        balance = IERC20(token1).balanceOf(address(this));\n    }\n\n    function _blockTimestamp() internal view returns (uint32 timestamp) {\n        timestamp = uint32(block.timestamp);\n    }\n\n    function getFees(\n        int24 lowerTick,\n        int24 upperTick,\n        address owner\n    )\n        public\n        view\n        returns (uint256 updatedTokensOwed0, uint256 updatedTokensOwed1)\n    {\n        Slot0 memory slot0_ = slot0;\n        uint256 feeGrowthGlobal0X128_ = feeGrowthGlobal0X128;\n        uint256 feeGrowthGlobal1X128_ = feeGrowthGlobal1X128;\n\n        Position.Info storage position = positions.get(\n            owner,\n            lowerTick,\n            upperTick\n        );\n\n        (uint256 feeGrowthInside0X128, uint256 feeGrowthInside1X128) = ticks\n            .getFeeGrowthInside(\n                lowerTick,\n                upperTick,\n                slot0_.tick,\n                feeGrowthGlobal0X128_,\n                feeGrowthGlobal1X128_\n            );\n\n        (updatedTokensOwed0, updatedTokensOwed1) = position._simulateUpdate(\n            feeGrowthInside0X128,\n            feeGrowthInside1X128\n        );\n    }\n}\n",
    "sourcePath": "contracts/Pool.sol",
    "type": "contract"
}