{
    "abi": [
        {
            "inputs": [
                {
                    "internalType": "address",
                    "name": "factory_",
                    "type": "address"
                }
            ],
            "stateMutability": "nonpayable",
            "type": "constructor"
        },
        {
            "inputs": [
                {
                    "internalType": "uint256",
                    "name": "prod1",
                    "type": "uint256"
                },
                {
                    "internalType": "uint256",
                    "name": "denominator",
                    "type": "uint256"
                }
            ],
            "name": "PRBMath__MulDivOverflow",
            "type": "error"
        },
        {
            "inputs": [],
            "name": "factory",
            "outputs": [
                {
                    "internalType": "address",
                    "name": "",
                    "type": "address"
                }
            ],
            "stateMutability": "view",
            "type": "function"
        },
        {
            "inputs": [
                {
                    "components": [
                        {
                            "internalType": "address",
                            "name": "tokenIn",
                            "type": "address"
                        },
                        {
                            "internalType": "address",
                            "name": "tokenOut",
                            "type": "address"
                        },
                        {
                            "internalType": "uint24",
                            "name": "fee",
                            "type": "uint24"
                        },
                        {
                            "internalType": "int24",
                            "name": "lowerTick",
                            "type": "int24"
                        },
                        {
                            "internalType": "int24",
                            "name": "upperTick",
                            "type": "int24"
                        },
                        {
                            "internalType": "uint256",
                            "name": "amountInDesired",
                            "type": "uint256"
                        }
                    ],
                    "internalType": "struct Quoter.LiqInputTokenParams",
                    "name": "params",
                    "type": "tuple"
                }
            ],
            "name": "quoteLiqInputToken0",
            "outputs": [
                {
                    "internalType": "uint256",
                    "name": "amount1",
                    "type": "uint256"
                }
            ],
            "stateMutability": "view",
            "type": "function"
        },
        {
            "inputs": [
                {
                    "components": [
                        {
                            "internalType": "address",
                            "name": "tokenIn",
                            "type": "address"
                        },
                        {
                            "internalType": "address",
                            "name": "tokenOut",
                            "type": "address"
                        },
                        {
                            "internalType": "uint24",
                            "name": "fee",
                            "type": "uint24"
                        },
                        {
                            "internalType": "int24",
                            "name": "lowerTick",
                            "type": "int24"
                        },
                        {
                            "internalType": "int24",
                            "name": "upperTick",
                            "type": "int24"
                        },
                        {
                            "internalType": "uint256",
                            "name": "amountInDesired",
                            "type": "uint256"
                        }
                    ],
                    "internalType": "struct Quoter.LiqInputTokenParams",
                    "name": "params",
                    "type": "tuple"
                }
            ],
            "name": "quoteLiqInputToken1",
            "outputs": [
                {
                    "internalType": "uint256",
                    "name": "amount0",
                    "type": "uint256"
                }
            ],
            "stateMutability": "view",
            "type": "function"
        },
        {
            "inputs": [
                {
                    "internalType": "bytes",
                    "name": "path",
                    "type": "bytes"
                },
                {
                    "internalType": "uint256",
                    "name": "amountIn",
                    "type": "uint256"
                }
            ],
            "name": "quoteMulti",
            "outputs": [
                {
                    "internalType": "uint256",
                    "name": "amountOut",
                    "type": "uint256"
                },
                {
                    "internalType": "uint160[]",
                    "name": "sqrtPriceX96AfterList",
                    "type": "uint160[]"
                },
                {
                    "internalType": "int24[]",
                    "name": "tickAfterList",
                    "type": "int24[]"
                }
            ],
            "stateMutability": "nonpayable",
            "type": "function"
        },
        {
            "inputs": [
                {
                    "internalType": "address",
                    "name": "tokenIn",
                    "type": "address"
                },
                {
                    "internalType": "address",
                    "name": "tokenOut",
                    "type": "address"
                },
                {
                    "internalType": "uint24",
                    "name": "fee",
                    "type": "uint24"
                },
                {
                    "internalType": "uint256",
                    "name": "amountIn",
                    "type": "uint256"
                },
                {
                    "internalType": "uint160",
                    "name": "sqrtPriceLimitX96",
                    "type": "uint160"
                }
            ],
            "name": "quoteSingle",
            "outputs": [
                {
                    "internalType": "uint256",
                    "name": "amountOut",
                    "type": "uint256"
                },
                {
                    "internalType": "uint160",
                    "name": "sqrtPriceX96After",
                    "type": "uint160"
                },
                {
                    "internalType": "int24",
                    "name": "tickAfter",
                    "type": "int24"
                }
            ],
            "stateMutability": "nonpayable",
            "type": "function"
        },
        {
            "inputs": [
                {
                    "internalType": "int256",
                    "name": "amount0Delta",
                    "type": "int256"
                },
                {
                    "internalType": "int256",
                    "name": "amount1Delta",
                    "type": "int256"
                },
                {
                    "internalType": "bytes",
                    "name": "data",
                    "type": "bytes"
                }
            ],
            "name": "uniswapV3SwapCallback",
            "outputs": [],
            "stateMutability": "view",
            "type": "function"
        }
    ],
    "bytecode": "60a060405234801561001057600080fd5b50604051611b6b380380611b6b83398101604081905261002f91610040565b6001600160a01b0316608052610070565b60006020828403121561005257600080fd5b81516001600160a01b038116811461006957600080fd5b9392505050565b608051611acc61009f6000396000818160cb015281816102eb015281816104ac01526106510152611acc6000f3fe608060405234801561001057600080fd5b50600436106100625760003560e01c8063260a5b03146100675780637a19fd6514610092578063b3006639146100b3578063c45a0155146100c6578063e95dbb6914610105578063fa461e331461013e575b600080fd5b61007a610075366004611448565b610153565b6040516100899392919061148d565b60405180910390f35b6100a56100a036600461155e565b6102cc565b604051908152602001610089565b6100a56100c136600461155e565b61048d565b6100ed7f000000000000000000000000000000000000000000000000000000000000000081565b6040516001600160a01b039091168152602001610089565b610118610113366004611600565b61062f565b604080519384526001600160a01b03909216602084015260020b90820152606001610089565b61015161014c366004611666565b610833565b005b6000606080610161856108f0565b67ffffffffffffffff811115610179576101796113a5565b6040519080825280602002602001820160405280156101a2578160200160208202803683370190505b5091506101ae856108f0565b67ffffffffffffffff8111156101c6576101c66113a5565b6040519080825280602002602001820160405280156101ef578160200160208202803683370190505b50905060005b60008060006102038961091c565b925092509250600080600061021c8686868e600061062f565b92509250925081898881518110610235576102356116b6565b60200260200101906001600160a01b031690816001600160a01b03168152505080888881518110610268576102686116b6565b602002602001019060020b908160020b81525050829a50868061028a906116e2565b9750506102968c610958565b156102ab576102a48c610992565b9b506102b9565b8a99505050505050506102c4565b5050505050506101f5565b509250925092565b600080739828dc171e405abf5282769f90461a6e284fa58363e4cab7687f00000000000000000000000000000000000000000000000000000000000000008560000151866020015187604001516040518563ffffffff1660e01b815260040161033894939291906116fb565b602060405180830381865af4158015610355573d6000803e3d6000fd5b505050506040513d601f19601f820116820180604052508101906103799190611729565b9050600080826001600160a01b0316633850c7bd6040518163ffffffff1660e01b815260040160a060405180830381865afa1580156103bc573d6000803e3d6000fd5b505050506040513d601f19601f820116820180604052508101906103e09190611758565b50505091509150846080015160020b8160020b1280156104095750846060015160020b8160020b135b156104855760a0850151600160601b6001600160a01b038416046bffffffffffffffffffffffff8416151501808206151591040193506000610466866060015187608001518560028961045c91906118a6565b8a60a001516109c3565b90506104818361047988608001516109ec565b836000610e13565b9450505b505050919050565b600080739828dc171e405abf5282769f90461a6e284fa58363e4cab7687f00000000000000000000000000000000000000000000000000000000000000008560000151866020015187604001516040518563ffffffff1660e01b81526004016104f994939291906116fb565b602060405180830381865af4158015610516573d6000803e3d6000fd5b505050506040513d601f19601f8201168201806040525081019061053a9190611729565b9050600080826001600160a01b0316633850c7bd6040518163ffffffff1660e01b815260040160a060405180830381865afa15801561057d573d6000803e3d6000fd5b505050506040513d601f19601f820116820180604052508101906105a19190611758565b50505091509150846080015160020b8160020b1280156105ca5750846060015160020b8160020b135b15610485576105eb826001600160a01b03168660a00151600160601b610ee8565b9350600061061486606001518760800151858960a0015160028a61060f91906118a6565b6109c3565b905061048161062687606001516109ec565b84836000610f33565b600080600080739828dc171e405abf5282769f90461a6e284fa58363e4cab7687f00000000000000000000000000000000000000000000000000000000000000008b8b8b6040518563ffffffff1660e01b815260040161069294939291906116fb565b602060405180830381865af41580156106af573d6000803e3d6000fd5b505050506040513d601f19601f820116820180604052508101906106d39190611729565b90506000886001600160a01b03168a6001600160a01b0316109050816001600160a01b031663dd5a12d830838a8a6001600160a01b0316600014610717578a610750565b856107405761073b600173fffd8963efd1fc6a506488495d951d5263988d266118b5565b610750565b6107506401000276a360016118dc565b604080516001600160a01b038a166020820152016040516020818303038152906040526040518663ffffffff1660e01b81526004016107939594939291906118fc565b60408051808303816000875af19250505080156107cd575060408051601f3d908101601f191682019092526107ca91810190611976565b60015b610823573d8080156107fb576040519150601f19603f3d011682016040523d82523d6000602084013e610800565b606091505b5080806020019051810190610815919061199a565b955095509550505050610828565b505050505b955095509592505050565b6000818060200190518101906108499190611729565b905060008085136108625761085d856119dd565b61086b565b61086b846119dd565b9050600080836001600160a01b0316633850c7bd6040518163ffffffff1660e01b815260040160a060405180830381865afa1580156108ae573d6000803e3d6000fd5b505050506040513d601f19601f820116820180604052508101906108d29190611758565b50505091509150604051838152826020820152816040820152606081fd5b60006108fe600360146119f9565b6014835161090c9190611a0c565b6109169190611a35565b92915050565b6000808061092a8482610fbd565b9250610937846014611022565b905061094f610948600360146119f9565b8590610fbd565b91509193909250565b6000610966600360146119f9565b60146109736003826119f9565b61097d91906119f9565b61098791906119f9565b825110159050919050565b60606109166109a3600360146119f9565b6109af600360146119f9565b84516109bb9190611a0c565b84919061107f565b60006109e2846109d2886109ec565b6109db886109ec565b868661118c565b9695505050505050565b60008060008360020b12610a03578260020b610a10565b8260020b610a10906119dd565b9050610a1f620d89e719611a49565b62ffffff16811115610a5c5760405162461bcd60e51b81526020600482015260016024820152601560fa1b60448201526064015b60405180910390fd5b600081600116600003610a7357600160801b610a85565b6ffffcb933bd6fad37aa2d162d1a5940015b70ffffffffffffffffffffffffffffffffff1690506002821615610ac4576080610abf826ffff97272373d413259a46990580e213a611a6b565b901c90505b6004821615610aee576080610ae9826ffff2e50f5f656932ef12357cf3c7fdcc611a6b565b901c90505b6008821615610b18576080610b13826fffe5caca7e10e4e61c3624eaa0941cd0611a6b565b901c90505b6010821615610b42576080610b3d826fffcb9843d60f6159c9db58835c926644611a6b565b901c90505b6020821615610b6c576080610b67826fff973b41fa98c081472e6896dfb254c0611a6b565b901c90505b6040821615610b96576080610b91826fff2ea16466c96a3843ec78b326b52861611a6b565b901c90505b6080821615610bc0576080610bbb826ffe5dee046a99a2a811c461f1969c3053611a6b565b901c90505b610100821615610beb576080610be6826ffcbe86c7900a88aedcffc83b479aa3a4611a6b565b901c90505b610200821615610c16576080610c11826ff987a7253ac413176f2b074cf7815e54611a6b565b901c90505b610400821615610c41576080610c3c826ff3392b0822b70005940c7a398e4b70f3611a6b565b901c90505b610800821615610c6c576080610c67826fe7159475a2c29b7443b29c7fa6e889d9611a6b565b901c90505b611000821615610c97576080610c92826fd097f3bdfd2022b8845ad8f792aa5825611a6b565b901c90505b612000821615610cc2576080610cbd826fa9f746462d870fdf8a65dc1f90e061e5611a6b565b901c90505b614000821615610ced576080610ce8826f70d869a156d2a1b890bb3df62baf32f7611a6b565b901c90505b618000821615610d18576080610d13826f31be135f97d08fd981231505542fcfa6611a6b565b901c90505b62010000821615610d44576080610d3f826f09aa508b5b7a84e1c677de54f3e99bc9611a6b565b901c90505b62020000821615610d6f576080610d6a826e5d6af8dedb81196699c329225ee604611a6b565b901c90505b62040000821615610d99576080610d94826d2216e584f5fa1ea926041bedfe98611a6b565b901c90505b62080000821615610dc1576080610dbc826b048a170391f7dc42444e8fa2611a6b565b901c90505b60008460020b1315610ddc57610dd981600019611a35565b90505b610deb64010000000082611a82565b15610df7576001610dfa565b60005b610e0b9060ff16602083901c6119f9565b949350505050565b6000836001600160a01b0316856001600160a01b03161115610e33579293925b6000856001600160a01b031611610e4957600080fd5b6fffffffffffffffffffffffffffffffff60601b606084901b166000610e6f87876118b5565b6001600160a01b031690508315610eb357610eac610e978383896001600160a01b0316610ee8565b886001600160a01b0316808204910615150190565b9250610ede565b866001600160a01b0316610ed18383896001600160a01b0316611243565b610edb9190611a35565b92505b5050949350505050565b6000610ef5848484611243565b905060008280610f0757610f07611a1f565b8486091115610f2c576000198110610f1e57600080fd5b80610f28816116e2565b9150505b9392505050565b6000836001600160a01b0316856001600160a01b03161115610f53579293925b8115610f8a57610f836001600160801b038416610f7087876118b5565b6001600160a01b0316600160601b610ee8565b9050610e0b565b610fb46001600160801b038416610fa187876118b5565b6001600160a01b0316600160601b611243565b95945050505050565b6000610fca8260146119f9565b835110156110125760405162461bcd60e51b8152602060048201526015602482015274746f416464726573735f6f75744f66426f756e647360581b6044820152606401610a53565b500160200151600160601b900490565b600061102f8260036119f9565b835110156110765760405162461bcd60e51b8152602060048201526014602482015273746f55696e7432345f6f75744f66426f756e647360601b6044820152606401610a53565b50016003015190565b60608161108d81601f6119f9565b10156110cc5760405162461bcd60e51b815260206004820152600e60248201526d736c6963655f6f766572666c6f7760901b6044820152606401610a53565b6110d682846119f9565b8451101561111a5760405162461bcd60e51b8152602060048201526011602482015270736c6963655f6f75744f66426f756e647360781b6044820152606401610a53565b6060821580156111395760405191506000825260208201604052611183565b6040519150601f8416801560200281840101858101878315602002848b0101015b8183101561117257805183526020928301920161115a565b5050858452601f01601f1916604052505b50949350505050565b6000836001600160a01b0316856001600160a01b031611156111ac579293925b846001600160a01b0316866001600160a01b0316116111d7576111d0858585611310565b9050610fb4565b836001600160a01b0316866001600160a01b0316116112385760006111fd878686611310565b9050600061120c878986611372565b9050806001600160801b0316826001600160801b03161061122d578061122f565b815b92505050610fb4565b6109e2858584611372565b600080806000198587098587029250828110838203039150508060000361127d5783828161127357611273611a1f565b0492505050610f2c565b8381106112a757604051631dcf306360e21b81526004810182905260248101859052604401610a53565b60008486880960026001871981018816978890046003810283188082028403028082028403028082028403028082028403028082028403029081029092039091026000889003889004909101858311909403939093029303949094049190911702949350505050565b6000826001600160a01b0316846001600160a01b03161115611330579192915b6000611353856001600160a01b0316856001600160a01b0316600160601b611243565b9050610f28838261136488886118b5565b6001600160a01b0316611243565b6000826001600160a01b0316846001600160a01b03161115611392579192915b610e0b82600160601b61136487876118b5565b634e487b7160e01b600052604160045260246000fd5b600082601f8301126113cc57600080fd5b813567ffffffffffffffff808211156113e7576113e76113a5565b604051601f8301601f19908116603f0116810190828211818310171561140f5761140f6113a5565b8160405283815286602085880101111561142857600080fd5b836020870160208301376000602085830101528094505050505092915050565b6000806040838503121561145b57600080fd5b823567ffffffffffffffff81111561147257600080fd5b61147e858286016113bb565b95602094909401359450505050565b6000606082018583526020606081850152818651808452608086019150828801935060005b818110156114d75784516001600160a01b0316835293830193918301916001016114b2565b50508481036040860152855180825290820192508186019060005b8181101561151157825160020b855293830193918301916001016114f2565b509298975050505050505050565b6001600160a01b038116811461153457600080fd5b50565b803562ffffff8116811461154a57600080fd5b919050565b8060020b811461153457600080fd5b600060c0828403121561157057600080fd5b60405160c0810181811067ffffffffffffffff82111715611593576115936113a5565b60405282356115a18161151f565b815260208301356115b18161151f565b60208201526115c260408401611537565b604082015260608301356115d58161154f565b606082015260808301356115e88161154f565b608082015260a0928301359281019290925250919050565b600080600080600060a0868803121561161857600080fd5b85356116238161151f565b945060208601356116338161151f565b935061164160408701611537565b92506060860135915060808601356116588161151f565b809150509295509295909350565b60008060006060848603121561167b57600080fd5b8335925060208401359150604084013567ffffffffffffffff8111156116a057600080fd5b6116ac868287016113bb565b9150509250925092565b634e487b7160e01b600052603260045260246000fd5b634e487b7160e01b600052601160045260246000fd5b6000600182016116f4576116f46116cc565b5060010190565b6001600160a01b03948516815292841660208401529216604082015262ffffff909116606082015260800190565b60006020828403121561173b57600080fd5b8151610f2c8161151f565b805161ffff8116811461154a57600080fd5b600080600080600060a0868803121561177057600080fd5b855161177b8161151f565b602087015190955061178c8161154f565b935061179a60408701611746565b92506117a860608701611746565b91506117b660808701611746565b90509295509295909350565b600181815b808511156117fd5781600019048211156117e3576117e36116cc565b808516156117f057918102915b93841c93908002906117c7565b509250929050565b60008261181457506001610916565b8161182157506000610916565b816001811461183757600281146118415761185d565b6001915050610916565b60ff841115611852576118526116cc565b50506001821b610916565b5060208310610133831016604e8410600b8410161715611880575081810a610916565b61188a83836117c2565b806000190482111561189e5761189e6116cc565b029392505050565b6000610f2c60ff841683611805565b6001600160a01b038281168282160390808211156118d5576118d56116cc565b5092915050565b6001600160a01b038181168382160190808211156118d5576118d56116cc565b600060018060a01b038088168352602087151581850152866040850152818616606085015260a06080850152845191508160a085015260005b828110156119515785810182015185820160c001528101611935565b5050600060c0828501015260c0601f19601f8301168401019150509695505050505050565b6000806040838503121561198957600080fd5b505080516020909101519092909150565b6000806000606084860312156119af57600080fd5b8351925060208401516119c18161151f565b60408501519092506119d28161154f565b809150509250925092565b6000600160ff1b82016119f2576119f26116cc565b5060000390565b80820180821115610916576109166116cc565b81810381811115610916576109166116cc565b634e487b7160e01b600052601260045260246000fd5b600082611a4457611a44611a1f565b500490565b60008160020b627fffff198103611a6257611a626116cc565b60000392915050565b8082028115828204841417610916576109166116cc565b600082611a9157611a91611a1f565b50069056fea2646970667358221220b8a4f06b7883df8885e76290d667c7f77ecdfa25d7030a61855b78bee97ea7c464736f6c63430008140033",
    "bytecodeSha1": "508d53abb110754623eafa4c88f4186debe33a29",
    "compiler": {
        "evm_version": "istanbul",
        "optimizer": {
            "enabled": true,
            "runs": 200
        },
        "version": "0.8.20+commit.a1b79de6"
    },
    "contractName": "Quoter",
    "deployedBytecode": "608060405234801561001057600080fd5b50600436106100625760003560e01c8063260a5b03146100675780637a19fd6514610092578063b3006639146100b3578063c45a0155146100c6578063e95dbb6914610105578063fa461e331461013e575b600080fd5b61007a610075366004611448565b610153565b6040516100899392919061148d565b60405180910390f35b6100a56100a036600461155e565b6102cc565b604051908152602001610089565b6100a56100c136600461155e565b61048d565b6100ed7f000000000000000000000000000000000000000000000000000000000000000081565b6040516001600160a01b039091168152602001610089565b610118610113366004611600565b61062f565b604080519384526001600160a01b03909216602084015260020b90820152606001610089565b61015161014c366004611666565b610833565b005b6000606080610161856108f0565b67ffffffffffffffff811115610179576101796113a5565b6040519080825280602002602001820160405280156101a2578160200160208202803683370190505b5091506101ae856108f0565b67ffffffffffffffff8111156101c6576101c66113a5565b6040519080825280602002602001820160405280156101ef578160200160208202803683370190505b50905060005b60008060006102038961091c565b925092509250600080600061021c8686868e600061062f565b92509250925081898881518110610235576102356116b6565b60200260200101906001600160a01b031690816001600160a01b03168152505080888881518110610268576102686116b6565b602002602001019060020b908160020b81525050829a50868061028a906116e2565b9750506102968c610958565b156102ab576102a48c610992565b9b506102b9565b8a99505050505050506102c4565b5050505050506101f5565b509250925092565b60008073__$0298c9f31864cd8aa139f2173091fa1ee4$__63e4cab7687f00000000000000000000000000000000000000000000000000000000000000008560000151866020015187604001516040518563ffffffff1660e01b815260040161033894939291906116fb565b602060405180830381865af4158015610355573d6000803e3d6000fd5b505050506040513d601f19601f820116820180604052508101906103799190611729565b9050600080826001600160a01b0316633850c7bd6040518163ffffffff1660e01b815260040160a060405180830381865afa1580156103bc573d6000803e3d6000fd5b505050506040513d601f19601f820116820180604052508101906103e09190611758565b50505091509150846080015160020b8160020b1280156104095750846060015160020b8160020b135b156104855760a0850151600160601b6001600160a01b038416046bffffffffffffffffffffffff8416151501808206151591040193506000610466866060015187608001518560028961045c91906118a6565b8a60a001516109c3565b90506104818361047988608001516109ec565b836000610e13565b9450505b505050919050565b60008073__$0298c9f31864cd8aa139f2173091fa1ee4$__63e4cab7687f00000000000000000000000000000000000000000000000000000000000000008560000151866020015187604001516040518563ffffffff1660e01b81526004016104f994939291906116fb565b602060405180830381865af4158015610516573d6000803e3d6000fd5b505050506040513d601f19601f8201168201806040525081019061053a9190611729565b9050600080826001600160a01b0316633850c7bd6040518163ffffffff1660e01b815260040160a060405180830381865afa15801561057d573d6000803e3d6000fd5b505050506040513d601f19601f820116820180604052508101906105a19190611758565b50505091509150846080015160020b8160020b1280156105ca5750846060015160020b8160020b135b15610485576105eb826001600160a01b03168660a00151600160601b610ee8565b9350600061061486606001518760800151858960a0015160028a61060f91906118a6565b6109c3565b905061048161062687606001516109ec565b84836000610f33565b60008060008073__$0298c9f31864cd8aa139f2173091fa1ee4$__63e4cab7687f00000000000000000000000000000000000000000000000000000000000000008b8b8b6040518563ffffffff1660e01b815260040161069294939291906116fb565b602060405180830381865af41580156106af573d6000803e3d6000fd5b505050506040513d601f19601f820116820180604052508101906106d39190611729565b90506000886001600160a01b03168a6001600160a01b0316109050816001600160a01b031663dd5a12d830838a8a6001600160a01b0316600014610717578a610750565b856107405761073b600173fffd8963efd1fc6a506488495d951d5263988d266118b5565b610750565b6107506401000276a360016118dc565b604080516001600160a01b038a166020820152016040516020818303038152906040526040518663ffffffff1660e01b81526004016107939594939291906118fc565b60408051808303816000875af19250505080156107cd575060408051601f3d908101601f191682019092526107ca91810190611976565b60015b610823573d8080156107fb576040519150601f19603f3d011682016040523d82523d6000602084013e610800565b606091505b5080806020019051810190610815919061199a565b955095509550505050610828565b505050505b955095509592505050565b6000818060200190518101906108499190611729565b905060008085136108625761085d856119dd565b61086b565b61086b846119dd565b9050600080836001600160a01b0316633850c7bd6040518163ffffffff1660e01b815260040160a060405180830381865afa1580156108ae573d6000803e3d6000fd5b505050506040513d601f19601f820116820180604052508101906108d29190611758565b50505091509150604051838152826020820152816040820152606081fd5b60006108fe600360146119f9565b6014835161090c9190611a0c565b6109169190611a35565b92915050565b6000808061092a8482610fbd565b9250610937846014611022565b905061094f610948600360146119f9565b8590610fbd565b91509193909250565b6000610966600360146119f9565b60146109736003826119f9565b61097d91906119f9565b61098791906119f9565b825110159050919050565b60606109166109a3600360146119f9565b6109af600360146119f9565b84516109bb9190611a0c565b84919061107f565b60006109e2846109d2886109ec565b6109db886109ec565b868661118c565b9695505050505050565b60008060008360020b12610a03578260020b610a10565b8260020b610a10906119dd565b9050610a1f620d89e719611a49565b62ffffff16811115610a5c5760405162461bcd60e51b81526020600482015260016024820152601560fa1b60448201526064015b60405180910390fd5b600081600116600003610a7357600160801b610a85565b6ffffcb933bd6fad37aa2d162d1a5940015b70ffffffffffffffffffffffffffffffffff1690506002821615610ac4576080610abf826ffff97272373d413259a46990580e213a611a6b565b901c90505b6004821615610aee576080610ae9826ffff2e50f5f656932ef12357cf3c7fdcc611a6b565b901c90505b6008821615610b18576080610b13826fffe5caca7e10e4e61c3624eaa0941cd0611a6b565b901c90505b6010821615610b42576080610b3d826fffcb9843d60f6159c9db58835c926644611a6b565b901c90505b6020821615610b6c576080610b67826fff973b41fa98c081472e6896dfb254c0611a6b565b901c90505b6040821615610b96576080610b91826fff2ea16466c96a3843ec78b326b52861611a6b565b901c90505b6080821615610bc0576080610bbb826ffe5dee046a99a2a811c461f1969c3053611a6b565b901c90505b610100821615610beb576080610be6826ffcbe86c7900a88aedcffc83b479aa3a4611a6b565b901c90505b610200821615610c16576080610c11826ff987a7253ac413176f2b074cf7815e54611a6b565b901c90505b610400821615610c41576080610c3c826ff3392b0822b70005940c7a398e4b70f3611a6b565b901c90505b610800821615610c6c576080610c67826fe7159475a2c29b7443b29c7fa6e889d9611a6b565b901c90505b611000821615610c97576080610c92826fd097f3bdfd2022b8845ad8f792aa5825611a6b565b901c90505b612000821615610cc2576080610cbd826fa9f746462d870fdf8a65dc1f90e061e5611a6b565b901c90505b614000821615610ced576080610ce8826f70d869a156d2a1b890bb3df62baf32f7611a6b565b901c90505b618000821615610d18576080610d13826f31be135f97d08fd981231505542fcfa6611a6b565b901c90505b62010000821615610d44576080610d3f826f09aa508b5b7a84e1c677de54f3e99bc9611a6b565b901c90505b62020000821615610d6f576080610d6a826e5d6af8dedb81196699c329225ee604611a6b565b901c90505b62040000821615610d99576080610d94826d2216e584f5fa1ea926041bedfe98611a6b565b901c90505b62080000821615610dc1576080610dbc826b048a170391f7dc42444e8fa2611a6b565b901c90505b60008460020b1315610ddc57610dd981600019611a35565b90505b610deb64010000000082611a82565b15610df7576001610dfa565b60005b610e0b9060ff16602083901c6119f9565b949350505050565b6000836001600160a01b0316856001600160a01b03161115610e33579293925b6000856001600160a01b031611610e4957600080fd5b6fffffffffffffffffffffffffffffffff60601b606084901b166000610e6f87876118b5565b6001600160a01b031690508315610eb357610eac610e978383896001600160a01b0316610ee8565b886001600160a01b0316808204910615150190565b9250610ede565b866001600160a01b0316610ed18383896001600160a01b0316611243565b610edb9190611a35565b92505b5050949350505050565b6000610ef5848484611243565b905060008280610f0757610f07611a1f565b8486091115610f2c576000198110610f1e57600080fd5b80610f28816116e2565b9150505b9392505050565b6000836001600160a01b0316856001600160a01b03161115610f53579293925b8115610f8a57610f836001600160801b038416610f7087876118b5565b6001600160a01b0316600160601b610ee8565b9050610e0b565b610fb46001600160801b038416610fa187876118b5565b6001600160a01b0316600160601b611243565b95945050505050565b6000610fca8260146119f9565b835110156110125760405162461bcd60e51b8152602060048201526015602482015274746f416464726573735f6f75744f66426f756e647360581b6044820152606401610a53565b500160200151600160601b900490565b600061102f8260036119f9565b835110156110765760405162461bcd60e51b8152602060048201526014602482015273746f55696e7432345f6f75744f66426f756e647360601b6044820152606401610a53565b50016003015190565b60608161108d81601f6119f9565b10156110cc5760405162461bcd60e51b815260206004820152600e60248201526d736c6963655f6f766572666c6f7760901b6044820152606401610a53565b6110d682846119f9565b8451101561111a5760405162461bcd60e51b8152602060048201526011602482015270736c6963655f6f75744f66426f756e647360781b6044820152606401610a53565b6060821580156111395760405191506000825260208201604052611183565b6040519150601f8416801560200281840101858101878315602002848b0101015b8183101561117257805183526020928301920161115a565b5050858452601f01601f1916604052505b50949350505050565b6000836001600160a01b0316856001600160a01b031611156111ac579293925b846001600160a01b0316866001600160a01b0316116111d7576111d0858585611310565b9050610fb4565b836001600160a01b0316866001600160a01b0316116112385760006111fd878686611310565b9050600061120c878986611372565b9050806001600160801b0316826001600160801b03161061122d578061122f565b815b92505050610fb4565b6109e2858584611372565b600080806000198587098587029250828110838203039150508060000361127d5783828161127357611273611a1f565b0492505050610f2c565b8381106112a757604051631dcf306360e21b81526004810182905260248101859052604401610a53565b60008486880960026001871981018816978890046003810283188082028403028082028403028082028403028082028403028082028403029081029092039091026000889003889004909101858311909403939093029303949094049190911702949350505050565b6000826001600160a01b0316846001600160a01b03161115611330579192915b6000611353856001600160a01b0316856001600160a01b0316600160601b611243565b9050610f28838261136488886118b5565b6001600160a01b0316611243565b6000826001600160a01b0316846001600160a01b03161115611392579192915b610e0b82600160601b61136487876118b5565b634e487b7160e01b600052604160045260246000fd5b600082601f8301126113cc57600080fd5b813567ffffffffffffffff808211156113e7576113e76113a5565b604051601f8301601f19908116603f0116810190828211818310171561140f5761140f6113a5565b8160405283815286602085880101111561142857600080fd5b836020870160208301376000602085830101528094505050505092915050565b6000806040838503121561145b57600080fd5b823567ffffffffffffffff81111561147257600080fd5b61147e858286016113bb565b95602094909401359450505050565b6000606082018583526020606081850152818651808452608086019150828801935060005b818110156114d75784516001600160a01b0316835293830193918301916001016114b2565b50508481036040860152855180825290820192508186019060005b8181101561151157825160020b855293830193918301916001016114f2565b509298975050505050505050565b6001600160a01b038116811461153457600080fd5b50565b803562ffffff8116811461154a57600080fd5b919050565b8060020b811461153457600080fd5b600060c0828403121561157057600080fd5b60405160c0810181811067ffffffffffffffff82111715611593576115936113a5565b60405282356115a18161151f565b815260208301356115b18161151f565b60208201526115c260408401611537565b604082015260608301356115d58161154f565b606082015260808301356115e88161154f565b608082015260a0928301359281019290925250919050565b600080600080600060a0868803121561161857600080fd5b85356116238161151f565b945060208601356116338161151f565b935061164160408701611537565b92506060860135915060808601356116588161151f565b809150509295509295909350565b60008060006060848603121561167b57600080fd5b8335925060208401359150604084013567ffffffffffffffff8111156116a057600080fd5b6116ac868287016113bb565b9150509250925092565b634e487b7160e01b600052603260045260246000fd5b634e487b7160e01b600052601160045260246000fd5b6000600182016116f4576116f46116cc565b5060010190565b6001600160a01b03948516815292841660208401529216604082015262ffffff909116606082015260800190565b60006020828403121561173b57600080fd5b8151610f2c8161151f565b805161ffff8116811461154a57600080fd5b600080600080600060a0868803121561177057600080fd5b855161177b8161151f565b602087015190955061178c8161154f565b935061179a60408701611746565b92506117a860608701611746565b91506117b660808701611746565b90509295509295909350565b600181815b808511156117fd5781600019048211156117e3576117e36116cc565b808516156117f057918102915b93841c93908002906117c7565b509250929050565b60008261181457506001610916565b8161182157506000610916565b816001811461183757600281146118415761185d565b6001915050610916565b60ff841115611852576118526116cc565b50506001821b610916565b5060208310610133831016604e8410600b8410161715611880575081810a610916565b61188a83836117c2565b806000190482111561189e5761189e6116cc565b029392505050565b6000610f2c60ff841683611805565b6001600160a01b038281168282160390808211156118d5576118d56116cc565b5092915050565b6001600160a01b038181168382160190808211156118d5576118d56116cc565b600060018060a01b038088168352602087151581850152866040850152818616606085015260a06080850152845191508160a085015260005b828110156119515785810182015185820160c001528101611935565b5050600060c0828501015260c0601f19601f8301168401019150509695505050505050565b6000806040838503121561198957600080fd5b505080516020909101519092909150565b6000806000606084860312156119af57600080fd5b8351925060208401516119c18161151f565b60408501519092506119d28161154f565b809150509250925092565b6000600160ff1b82016119f2576119f26116cc565b5060000390565b80820180821115610916576109166116cc565b81810381811115610916576109166116cc565b634e487b7160e01b600052601260045260246000fd5b600082611a4457611a44611a1f565b500490565b60008160020b627fffff198103611a6257611a626116cc565b60000392915050565b8082028115828204841417610916576109166116cc565b600082611a9157611a91611a1f565b50069056fea2646970667358221220b8a4f06b7883df8885e76290d667c7f77ecdfa25d7030a61855b78bee97ea7c464736f6c63430008140033",
    "language": "Solidity",
    "natspec": {
        "errors": {
            "PRBMath__MulDivOverflow(uint256,uint256)": [
                {
                    "notice": "Emitted when the result overflows uint256."
                }
            ]
        },
        "kind": "dev",
        "methods": {},
        "version": 1
    },
    "opcodes": "PUSH1 0x80 PUSH1 0x40 MSTORE CALLVALUE DUP1 ISZERO PUSH2 0x10 JUMPI PUSH1 0x0 DUP1 REVERT JUMPDEST POP PUSH1 0x4 CALLDATASIZE LT PUSH2 0x62 JUMPI PUSH1 0x0 CALLDATALOAD PUSH1 0xE0 SHR DUP1 PUSH4 0x260A5B03 EQ PUSH2 0x67 JUMPI DUP1 PUSH4 0x7A19FD65 EQ PUSH2 0x92 JUMPI DUP1 PUSH4 0xB3006639 EQ PUSH2 0xB3 JUMPI DUP1 PUSH4 0xC45A0155 EQ PUSH2 0xC6 JUMPI DUP1 PUSH4 0xE95DBB69 EQ PUSH2 0x105 JUMPI DUP1 PUSH4 0xFA461E33 EQ PUSH2 0x13E JUMPI JUMPDEST PUSH1 0x0 DUP1 REVERT JUMPDEST PUSH2 0x7A PUSH2 0x75 CALLDATASIZE PUSH1 0x4 PUSH2 0x1448 JUMP JUMPDEST PUSH2 0x153 JUMP JUMPDEST PUSH1 0x40 MLOAD PUSH2 0x89 SWAP4 SWAP3 SWAP2 SWAP1 PUSH2 0x148D JUMP JUMPDEST PUSH1 0x40 MLOAD DUP1 SWAP2 SUB SWAP1 RETURN JUMPDEST PUSH2 0xA5 PUSH2 0xA0 CALLDATASIZE PUSH1 0x4 PUSH2 0x155E JUMP JUMPDEST PUSH2 0x2CC JUMP JUMPDEST PUSH1 0x40 MLOAD SWAP1 DUP2 MSTORE PUSH1 0x20 ADD PUSH2 0x89 JUMP JUMPDEST PUSH2 0xA5 PUSH2 0xC1 CALLDATASIZE PUSH1 0x4 PUSH2 0x155E JUMP JUMPDEST PUSH2 0x48D JUMP JUMPDEST PUSH2 0xED PUSH32 0x0 DUP2 JUMP JUMPDEST PUSH1 0x40 MLOAD PUSH1 0x1 PUSH1 0x1 PUSH1 0xA0 SHL SUB SWAP1 SWAP2 AND DUP2 MSTORE PUSH1 0x20 ADD PUSH2 0x89 JUMP JUMPDEST PUSH2 0x118 PUSH2 0x113 CALLDATASIZE PUSH1 0x4 PUSH2 0x1600 JUMP JUMPDEST PUSH2 0x62F JUMP JUMPDEST PUSH1 0x40 DUP1 MLOAD SWAP4 DUP5 MSTORE PUSH1 0x1 PUSH1 0x1 PUSH1 0xA0 SHL SUB SWAP1 SWAP3 AND PUSH1 0x20 DUP5 ADD MSTORE PUSH1 0x2 SIGNEXTEND SWAP1 DUP3 ADD MSTORE PUSH1 0x60 ADD PUSH2 0x89 JUMP JUMPDEST PUSH2 0x151 PUSH2 0x14C CALLDATASIZE PUSH1 0x4 PUSH2 0x1666 JUMP JUMPDEST PUSH2 0x833 JUMP JUMPDEST STOP JUMPDEST PUSH1 0x0 PUSH1 0x60 DUP1 PUSH2 0x161 DUP6 PUSH2 0x8F0 JUMP JUMPDEST PUSH8 0xFFFFFFFFFFFFFFFF DUP2 GT ISZERO PUSH2 0x179 JUMPI PUSH2 0x179 PUSH2 0x13A5 JUMP JUMPDEST PUSH1 0x40 MLOAD SWAP1 DUP1 DUP3 MSTORE DUP1 PUSH1 0x20 MUL PUSH1 0x20 ADD DUP3 ADD PUSH1 0x40 MSTORE DUP1 ISZERO PUSH2 0x1A2 JUMPI DUP2 PUSH1 0x20 ADD PUSH1 0x20 DUP3 MUL DUP1 CALLDATASIZE DUP4 CALLDATACOPY ADD SWAP1 POP JUMPDEST POP SWAP2 POP PUSH2 0x1AE DUP6 PUSH2 0x8F0 JUMP JUMPDEST PUSH8 0xFFFFFFFFFFFFFFFF DUP2 GT ISZERO PUSH2 0x1C6 JUMPI PUSH2 0x1C6 PUSH2 0x13A5 JUMP JUMPDEST PUSH1 0x40 MLOAD SWAP1 DUP1 DUP3 MSTORE DUP1 PUSH1 0x20 MUL PUSH1 0x20 ADD DUP3 ADD PUSH1 0x40 MSTORE DUP1 ISZERO PUSH2 0x1EF JUMPI DUP2 PUSH1 0x20 ADD PUSH1 0x20 DUP3 MUL DUP1 CALLDATASIZE DUP4 CALLDATACOPY ADD SWAP1 POP JUMPDEST POP SWAP1 POP PUSH1 0x0 JUMPDEST PUSH1 0x0 DUP1 PUSH1 0x0 PUSH2 0x203 DUP10 PUSH2 0x91C JUMP JUMPDEST SWAP3 POP SWAP3 POP SWAP3 POP PUSH1 0x0 DUP1 PUSH1 0x0 PUSH2 0x21C DUP7 DUP7 DUP7 DUP15 PUSH1 0x0 PUSH2 0x62F JUMP JUMPDEST SWAP3 POP SWAP3 POP SWAP3 POP DUP2 DUP10 DUP9 DUP2 MLOAD DUP2 LT PUSH2 0x235 JUMPI PUSH2 0x235 PUSH2 0x16B6 JUMP JUMPDEST PUSH1 0x20 MUL PUSH1 0x20 ADD ADD SWAP1 PUSH1 0x1 PUSH1 0x1 PUSH1 0xA0 SHL SUB AND SWAP1 DUP2 PUSH1 0x1 PUSH1 0x1 PUSH1 0xA0 SHL SUB AND DUP2 MSTORE POP POP DUP1 DUP9 DUP9 DUP2 MLOAD DUP2 LT PUSH2 0x268 JUMPI PUSH2 0x268 PUSH2 0x16B6 JUMP JUMPDEST PUSH1 0x20 MUL PUSH1 0x20 ADD ADD SWAP1 PUSH1 0x2 SIGNEXTEND SWAP1 DUP2 PUSH1 0x2 SIGNEXTEND DUP2 MSTORE POP POP DUP3 SWAP11 POP DUP7 DUP1 PUSH2 0x28A SWAP1 PUSH2 0x16E2 JUMP JUMPDEST SWAP8 POP POP PUSH2 0x296 DUP13 PUSH2 0x958 JUMP JUMPDEST ISZERO PUSH2 0x2AB JUMPI PUSH2 0x2A4 DUP13 PUSH2 0x992 JUMP JUMPDEST SWAP12 POP PUSH2 0x2B9 JUMP JUMPDEST DUP11 SWAP10 POP POP POP POP POP POP POP PUSH2 0x2C4 JUMP JUMPDEST POP POP POP POP POP POP PUSH2 0x1F5 JUMP JUMPDEST POP SWAP3 POP SWAP3 POP SWAP3 JUMP JUMPDEST PUSH1 0x0 DUP1 PUSH20 0x0 PUSH4 0xE4CAB768 PUSH32 0x0 DUP6 PUSH1 0x0 ADD MLOAD DUP7 PUSH1 0x20 ADD MLOAD DUP8 PUSH1 0x40 ADD MLOAD PUSH1 0x40 MLOAD DUP6 PUSH4 0xFFFFFFFF AND PUSH1 0xE0 SHL DUP2 MSTORE PUSH1 0x4 ADD PUSH2 0x338 SWAP5 SWAP4 SWAP3 SWAP2 SWAP1 PUSH2 0x16FB JUMP JUMPDEST PUSH1 0x20 PUSH1 0x40 MLOAD DUP1 DUP4 SUB DUP2 DUP7 GAS DELEGATECALL ISZERO DUP1 ISZERO PUSH2 0x355 JUMPI RETURNDATASIZE PUSH1 0x0 DUP1 RETURNDATACOPY RETURNDATASIZE PUSH1 0x0 REVERT JUMPDEST POP POP POP POP PUSH1 0x40 MLOAD RETURNDATASIZE PUSH1 0x1F NOT PUSH1 0x1F DUP3 ADD AND DUP3 ADD DUP1 PUSH1 0x40 MSTORE POP DUP2 ADD SWAP1 PUSH2 0x379 SWAP2 SWAP1 PUSH2 0x1729 JUMP JUMPDEST SWAP1 POP PUSH1 0x0 DUP1 DUP3 PUSH1 0x1 PUSH1 0x1 PUSH1 0xA0 SHL SUB AND PUSH4 0x3850C7BD PUSH1 0x40 MLOAD DUP2 PUSH4 0xFFFFFFFF AND PUSH1 0xE0 SHL DUP2 MSTORE PUSH1 0x4 ADD PUSH1 0xA0 PUSH1 0x40 MLOAD DUP1 DUP4 SUB DUP2 DUP7 GAS STATICCALL ISZERO DUP1 ISZERO PUSH2 0x3BC JUMPI RETURNDATASIZE PUSH1 0x0 DUP1 RETURNDATACOPY RETURNDATASIZE PUSH1 0x0 REVERT JUMPDEST POP POP POP POP PUSH1 0x40 MLOAD RETURNDATASIZE PUSH1 0x1F NOT PUSH1 0x1F DUP3 ADD AND DUP3 ADD DUP1 PUSH1 0x40 MSTORE POP DUP2 ADD SWAP1 PUSH2 0x3E0 SWAP2 SWAP1 PUSH2 0x1758 JUMP JUMPDEST POP POP POP SWAP2 POP SWAP2 POP DUP5 PUSH1 0x80 ADD MLOAD PUSH1 0x2 SIGNEXTEND DUP2 PUSH1 0x2 SIGNEXTEND SLT DUP1 ISZERO PUSH2 0x409 JUMPI POP DUP5 PUSH1 0x60 ADD MLOAD PUSH1 0x2 SIGNEXTEND DUP2 PUSH1 0x2 SIGNEXTEND SGT JUMPDEST ISZERO PUSH2 0x485 JUMPI PUSH1 0xA0 DUP6 ADD MLOAD PUSH1 0x1 PUSH1 0x60 SHL PUSH1 0x1 PUSH1 0x1 PUSH1 0xA0 SHL SUB DUP5 AND DIV PUSH12 0xFFFFFFFFFFFFFFFFFFFFFFFF DUP5 AND ISZERO ISZERO ADD DUP1 DUP3 MOD ISZERO ISZERO SWAP2 DIV ADD SWAP4 POP PUSH1 0x0 PUSH2 0x466 DUP7 PUSH1 0x60 ADD MLOAD DUP8 PUSH1 0x80 ADD MLOAD DUP6 PUSH1 0x2 DUP10 PUSH2 0x45C SWAP2 SWAP1 PUSH2 0x18A6 JUMP JUMPDEST DUP11 PUSH1 0xA0 ADD MLOAD PUSH2 0x9C3 JUMP JUMPDEST SWAP1 POP PUSH2 0x481 DUP4 PUSH2 0x479 DUP9 PUSH1 0x80 ADD MLOAD PUSH2 0x9EC JUMP JUMPDEST DUP4 PUSH1 0x0 PUSH2 0xE13 JUMP JUMPDEST SWAP5 POP POP JUMPDEST POP POP POP SWAP2 SWAP1 POP JUMP JUMPDEST PUSH1 0x0 DUP1 PUSH20 0x0 PUSH4 0xE4CAB768 PUSH32 0x0 DUP6 PUSH1 0x0 ADD MLOAD DUP7 PUSH1 0x20 ADD MLOAD DUP8 PUSH1 0x40 ADD MLOAD PUSH1 0x40 MLOAD DUP6 PUSH4 0xFFFFFFFF AND PUSH1 0xE0 SHL DUP2 MSTORE PUSH1 0x4 ADD PUSH2 0x4F9 SWAP5 SWAP4 SWAP3 SWAP2 SWAP1 PUSH2 0x16FB JUMP JUMPDEST PUSH1 0x20 PUSH1 0x40 MLOAD DUP1 DUP4 SUB DUP2 DUP7 GAS DELEGATECALL ISZERO DUP1 ISZERO PUSH2 0x516 JUMPI RETURNDATASIZE PUSH1 0x0 DUP1 RETURNDATACOPY RETURNDATASIZE PUSH1 0x0 REVERT JUMPDEST POP POP POP POP PUSH1 0x40 MLOAD RETURNDATASIZE PUSH1 0x1F NOT PUSH1 0x1F DUP3 ADD AND DUP3 ADD DUP1 PUSH1 0x40 MSTORE POP DUP2 ADD SWAP1 PUSH2 0x53A SWAP2 SWAP1 PUSH2 0x1729 JUMP JUMPDEST SWAP1 POP PUSH1 0x0 DUP1 DUP3 PUSH1 0x1 PUSH1 0x1 PUSH1 0xA0 SHL SUB AND PUSH4 0x3850C7BD PUSH1 0x40 MLOAD DUP2 PUSH4 0xFFFFFFFF AND PUSH1 0xE0 SHL DUP2 MSTORE PUSH1 0x4 ADD PUSH1 0xA0 PUSH1 0x40 MLOAD DUP1 DUP4 SUB DUP2 DUP7 GAS STATICCALL ISZERO DUP1 ISZERO PUSH2 0x57D JUMPI RETURNDATASIZE PUSH1 0x0 DUP1 RETURNDATACOPY RETURNDATASIZE PUSH1 0x0 REVERT JUMPDEST POP POP POP POP PUSH1 0x40 MLOAD RETURNDATASIZE PUSH1 0x1F NOT PUSH1 0x1F DUP3 ADD AND DUP3 ADD DUP1 PUSH1 0x40 MSTORE POP DUP2 ADD SWAP1 PUSH2 0x5A1 SWAP2 SWAP1 PUSH2 0x1758 JUMP JUMPDEST POP POP POP SWAP2 POP SWAP2 POP DUP5 PUSH1 0x80 ADD MLOAD PUSH1 0x2 SIGNEXTEND DUP2 PUSH1 0x2 SIGNEXTEND SLT DUP1 ISZERO PUSH2 0x5CA JUMPI POP DUP5 PUSH1 0x60 ADD MLOAD PUSH1 0x2 SIGNEXTEND DUP2 PUSH1 0x2 SIGNEXTEND SGT JUMPDEST ISZERO PUSH2 0x485 JUMPI PUSH2 0x5EB DUP3 PUSH1 0x1 PUSH1 0x1 PUSH1 0xA0 SHL SUB AND DUP7 PUSH1 0xA0 ADD MLOAD PUSH1 0x1 PUSH1 0x60 SHL PUSH2 0xEE8 JUMP JUMPDEST SWAP4 POP PUSH1 0x0 PUSH2 0x614 DUP7 PUSH1 0x60 ADD MLOAD DUP8 PUSH1 0x80 ADD MLOAD DUP6 DUP10 PUSH1 0xA0 ADD MLOAD PUSH1 0x2 DUP11 PUSH2 0x60F SWAP2 SWAP1 PUSH2 0x18A6 JUMP JUMPDEST PUSH2 0x9C3 JUMP JUMPDEST SWAP1 POP PUSH2 0x481 PUSH2 0x626 DUP8 PUSH1 0x60 ADD MLOAD PUSH2 0x9EC JUMP JUMPDEST DUP5 DUP4 PUSH1 0x0 PUSH2 0xF33 JUMP JUMPDEST PUSH1 0x0 DUP1 PUSH1 0x0 DUP1 PUSH20 0x0 PUSH4 0xE4CAB768 PUSH32 0x0 DUP12 DUP12 DUP12 PUSH1 0x40 MLOAD DUP6 PUSH4 0xFFFFFFFF AND PUSH1 0xE0 SHL DUP2 MSTORE PUSH1 0x4 ADD PUSH2 0x692 SWAP5 SWAP4 SWAP3 SWAP2 SWAP1 PUSH2 0x16FB JUMP JUMPDEST PUSH1 0x20 PUSH1 0x40 MLOAD DUP1 DUP4 SUB DUP2 DUP7 GAS DELEGATECALL ISZERO DUP1 ISZERO PUSH2 0x6AF JUMPI RETURNDATASIZE PUSH1 0x0 DUP1 RETURNDATACOPY RETURNDATASIZE PUSH1 0x0 REVERT JUMPDEST POP POP POP POP PUSH1 0x40 MLOAD RETURNDATASIZE PUSH1 0x1F NOT PUSH1 0x1F DUP3 ADD AND DUP3 ADD DUP1 PUSH1 0x40 MSTORE POP DUP2 ADD SWAP1 PUSH2 0x6D3 SWAP2 SWAP1 PUSH2 0x1729 JUMP JUMPDEST SWAP1 POP PUSH1 0x0 DUP9 PUSH1 0x1 PUSH1 0x1 PUSH1 0xA0 SHL SUB AND DUP11 PUSH1 0x1 PUSH1 0x1 PUSH1 0xA0 SHL SUB AND LT SWAP1 POP DUP2 PUSH1 0x1 PUSH1 0x1 PUSH1 0xA0 SHL SUB AND PUSH4 0xDD5A12D8 ADDRESS DUP4 DUP11 DUP11 PUSH1 0x1 PUSH1 0x1 PUSH1 0xA0 SHL SUB AND PUSH1 0x0 EQ PUSH2 0x717 JUMPI DUP11 PUSH2 0x750 JUMP JUMPDEST DUP6 PUSH2 0x740 JUMPI PUSH2 0x73B PUSH1 0x1 PUSH20 0xFFFD8963EFD1FC6A506488495D951D5263988D26 PUSH2 0x18B5 JUMP JUMPDEST PUSH2 0x750 JUMP JUMPDEST PUSH2 0x750 PUSH5 0x1000276A3 PUSH1 0x1 PUSH2 0x18DC JUMP JUMPDEST PUSH1 0x40 DUP1 MLOAD PUSH1 0x1 PUSH1 0x1 PUSH1 0xA0 SHL SUB DUP11 AND PUSH1 0x20 DUP3 ADD MSTORE ADD PUSH1 0x40 MLOAD PUSH1 0x20 DUP2 DUP4 SUB SUB DUP2 MSTORE SWAP1 PUSH1 0x40 MSTORE PUSH1 0x40 MLOAD DUP7 PUSH4 0xFFFFFFFF AND PUSH1 0xE0 SHL DUP2 MSTORE PUSH1 0x4 ADD PUSH2 0x793 SWAP6 SWAP5 SWAP4 SWAP3 SWAP2 SWAP1 PUSH2 0x18FC JUMP JUMPDEST PUSH1 0x40 DUP1 MLOAD DUP1 DUP4 SUB DUP2 PUSH1 0x0 DUP8 GAS CALL SWAP3 POP POP POP DUP1 ISZERO PUSH2 0x7CD JUMPI POP PUSH1 0x40 DUP1 MLOAD PUSH1 0x1F RETURNDATASIZE SWAP1 DUP2 ADD PUSH1 0x1F NOT AND DUP3 ADD SWAP1 SWAP3 MSTORE PUSH2 0x7CA SWAP2 DUP2 ADD SWAP1 PUSH2 0x1976 JUMP JUMPDEST PUSH1 0x1 JUMPDEST PUSH2 0x823 JUMPI RETURNDATASIZE DUP1 DUP1 ISZERO PUSH2 0x7FB JUMPI PUSH1 0x40 MLOAD SWAP2 POP PUSH1 0x1F NOT PUSH1 0x3F RETURNDATASIZE ADD AND DUP3 ADD PUSH1 0x40 MSTORE RETURNDATASIZE DUP3 MSTORE RETURNDATASIZE PUSH1 0x0 PUSH1 0x20 DUP5 ADD RETURNDATACOPY PUSH2 0x800 JUMP JUMPDEST PUSH1 0x60 SWAP2 POP JUMPDEST POP DUP1 DUP1 PUSH1 0x20 ADD SWAP1 MLOAD DUP2 ADD SWAP1 PUSH2 0x815 SWAP2 SWAP1 PUSH2 0x199A JUMP JUMPDEST SWAP6 POP SWAP6 POP SWAP6 POP POP POP POP PUSH2 0x828 JUMP JUMPDEST POP POP POP POP JUMPDEST SWAP6 POP SWAP6 POP SWAP6 SWAP3 POP POP POP JUMP JUMPDEST PUSH1 0x0 DUP2 DUP1 PUSH1 0x20 ADD SWAP1 MLOAD DUP2 ADD SWAP1 PUSH2 0x849 SWAP2 SWAP1 PUSH2 0x1729 JUMP JUMPDEST SWAP1 POP PUSH1 0x0 DUP1 DUP6 SGT PUSH2 0x862 JUMPI PUSH2 0x85D DUP6 PUSH2 0x19DD JUMP JUMPDEST PUSH2 0x86B JUMP JUMPDEST PUSH2 0x86B DUP5 PUSH2 0x19DD JUMP JUMPDEST SWAP1 POP PUSH1 0x0 DUP1 DUP4 PUSH1 0x1 PUSH1 0x1 PUSH1 0xA0 SHL SUB AND PUSH4 0x3850C7BD PUSH1 0x40 MLOAD DUP2 PUSH4 0xFFFFFFFF AND PUSH1 0xE0 SHL DUP2 MSTORE PUSH1 0x4 ADD PUSH1 0xA0 PUSH1 0x40 MLOAD DUP1 DUP4 SUB DUP2 DUP7 GAS STATICCALL ISZERO DUP1 ISZERO PUSH2 0x8AE JUMPI RETURNDATASIZE PUSH1 0x0 DUP1 RETURNDATACOPY RETURNDATASIZE PUSH1 0x0 REVERT JUMPDEST POP POP POP POP PUSH1 0x40 MLOAD RETURNDATASIZE PUSH1 0x1F NOT PUSH1 0x1F DUP3 ADD AND DUP3 ADD DUP1 PUSH1 0x40 MSTORE POP DUP2 ADD SWAP1 PUSH2 0x8D2 SWAP2 SWAP1 PUSH2 0x1758 JUMP JUMPDEST POP POP POP SWAP2 POP SWAP2 POP PUSH1 0x40 MLOAD DUP4 DUP2 MSTORE DUP3 PUSH1 0x20 DUP3 ADD MSTORE DUP2 PUSH1 0x40 DUP3 ADD MSTORE PUSH1 0x60 DUP2 REVERT JUMPDEST PUSH1 0x0 PUSH2 0x8FE PUSH1 0x3 PUSH1 0x14 PUSH2 0x19F9 JUMP JUMPDEST PUSH1 0x14 DUP4 MLOAD PUSH2 0x90C SWAP2 SWAP1 PUSH2 0x1A0C JUMP JUMPDEST PUSH2 0x916 SWAP2 SWAP1 PUSH2 0x1A35 JUMP JUMPDEST SWAP3 SWAP2 POP POP JUMP JUMPDEST PUSH1 0x0 DUP1 DUP1 PUSH2 0x92A DUP5 DUP3 PUSH2 0xFBD JUMP JUMPDEST SWAP3 POP PUSH2 0x937 DUP5 PUSH1 0x14 PUSH2 0x1022 JUMP JUMPDEST SWAP1 POP PUSH2 0x94F PUSH2 0x948 PUSH1 0x3 PUSH1 0x14 PUSH2 0x19F9 JUMP JUMPDEST DUP6 SWAP1 PUSH2 0xFBD JUMP JUMPDEST SWAP2 POP SWAP2 SWAP4 SWAP1 SWAP3 POP JUMP JUMPDEST PUSH1 0x0 PUSH2 0x966 PUSH1 0x3 PUSH1 0x14 PUSH2 0x19F9 JUMP JUMPDEST PUSH1 0x14 PUSH2 0x973 PUSH1 0x3 DUP3 PUSH2 0x19F9 JUMP JUMPDEST PUSH2 0x97D SWAP2 SWAP1 PUSH2 0x19F9 JUMP JUMPDEST PUSH2 0x987 SWAP2 SWAP1 PUSH2 0x19F9 JUMP JUMPDEST DUP3 MLOAD LT ISZERO SWAP1 POP SWAP2 SWAP1 POP JUMP JUMPDEST PUSH1 0x60 PUSH2 0x916 PUSH2 0x9A3 PUSH1 0x3 PUSH1 0x14 PUSH2 0x19F9 JUMP JUMPDEST PUSH2 0x9AF PUSH1 0x3 PUSH1 0x14 PUSH2 0x19F9 JUMP JUMPDEST DUP5 MLOAD PUSH2 0x9BB SWAP2 SWAP1 PUSH2 0x1A0C JUMP JUMPDEST DUP5 SWAP2 SWAP1 PUSH2 0x107F JUMP JUMPDEST PUSH1 0x0 PUSH2 0x9E2 DUP5 PUSH2 0x9D2 DUP9 PUSH2 0x9EC JUMP JUMPDEST PUSH2 0x9DB DUP9 PUSH2 0x9EC JUMP JUMPDEST DUP7 DUP7 PUSH2 0x118C JUMP JUMPDEST SWAP7 SWAP6 POP POP POP POP POP POP JUMP JUMPDEST PUSH1 0x0 DUP1 PUSH1 0x0 DUP4 PUSH1 0x2 SIGNEXTEND SLT PUSH2 0xA03 JUMPI DUP3 PUSH1 0x2 SIGNEXTEND PUSH2 0xA10 JUMP JUMPDEST DUP3 PUSH1 0x2 SIGNEXTEND PUSH2 0xA10 SWAP1 PUSH2 0x19DD JUMP JUMPDEST SWAP1 POP PUSH2 0xA1F PUSH3 0xD89E7 NOT PUSH2 0x1A49 JUMP JUMPDEST PUSH3 0xFFFFFF AND DUP2 GT ISZERO PUSH2 0xA5C JUMPI PUSH1 0x40 MLOAD PUSH3 0x461BCD PUSH1 0xE5 SHL DUP2 MSTORE PUSH1 0x20 PUSH1 0x4 DUP3 ADD MSTORE PUSH1 0x1 PUSH1 0x24 DUP3 ADD MSTORE PUSH1 0x15 PUSH1 0xFA SHL PUSH1 0x44 DUP3 ADD MSTORE PUSH1 0x64 ADD JUMPDEST PUSH1 0x40 MLOAD DUP1 SWAP2 SUB SWAP1 REVERT JUMPDEST PUSH1 0x0 DUP2 PUSH1 0x1 AND PUSH1 0x0 SUB PUSH2 0xA73 JUMPI PUSH1 0x1 PUSH1 0x80 SHL PUSH2 0xA85 JUMP JUMPDEST PUSH16 0xFFFCB933BD6FAD37AA2D162D1A594001 JUMPDEST PUSH17 0xFFFFFFFFFFFFFFFFFFFFFFFFFFFFFFFFFF AND SWAP1 POP PUSH1 0x2 DUP3 AND ISZERO PUSH2 0xAC4 JUMPI PUSH1 0x80 PUSH2 0xABF DUP3 PUSH16 0xFFF97272373D413259A46990580E213A PUSH2 0x1A6B JUMP JUMPDEST SWAP1 SHR SWAP1 POP JUMPDEST PUSH1 0x4 DUP3 AND ISZERO PUSH2 0xAEE JUMPI PUSH1 0x80 PUSH2 0xAE9 DUP3 PUSH16 0xFFF2E50F5F656932EF12357CF3C7FDCC PUSH2 0x1A6B JUMP JUMPDEST SWAP1 SHR SWAP1 POP JUMPDEST PUSH1 0x8 DUP3 AND ISZERO PUSH2 0xB18 JUMPI PUSH1 0x80 PUSH2 0xB13 DUP3 PUSH16 0xFFE5CACA7E10E4E61C3624EAA0941CD0 PUSH2 0x1A6B JUMP JUMPDEST SWAP1 SHR SWAP1 POP JUMPDEST PUSH1 0x10 DUP3 AND ISZERO PUSH2 0xB42 JUMPI PUSH1 0x80 PUSH2 0xB3D DUP3 PUSH16 0xFFCB9843D60F6159C9DB58835C926644 PUSH2 0x1A6B JUMP JUMPDEST SWAP1 SHR SWAP1 POP JUMPDEST PUSH1 0x20 DUP3 AND ISZERO PUSH2 0xB6C JUMPI PUSH1 0x80 PUSH2 0xB67 DUP3 PUSH16 0xFF973B41FA98C081472E6896DFB254C0 PUSH2 0x1A6B JUMP JUMPDEST SWAP1 SHR SWAP1 POP JUMPDEST PUSH1 0x40 DUP3 AND ISZERO PUSH2 0xB96 JUMPI PUSH1 0x80 PUSH2 0xB91 DUP3 PUSH16 0xFF2EA16466C96A3843EC78B326B52861 PUSH2 0x1A6B JUMP JUMPDEST SWAP1 SHR SWAP1 POP JUMPDEST PUSH1 0x80 DUP3 AND ISZERO PUSH2 0xBC0 JUMPI PUSH1 0x80 PUSH2 0xBBB DUP3 PUSH16 0xFE5DEE046A99A2A811C461F1969C3053 PUSH2 0x1A6B JUMP JUMPDEST SWAP1 SHR SWAP1 POP JUMPDEST PUSH2 0x100 DUP3 AND ISZERO PUSH2 0xBEB JUMPI PUSH1 0x80 PUSH2 0xBE6 DUP3 PUSH16 0xFCBE86C7900A88AEDCFFC83B479AA3A4 PUSH2 0x1A6B JUMP JUMPDEST SWAP1 SHR SWAP1 POP JUMPDEST PUSH2 0x200 DUP3 AND ISZERO PUSH2 0xC16 JUMPI PUSH1 0x80 PUSH2 0xC11 DUP3 PUSH16 0xF987A7253AC413176F2B074CF7815E54 PUSH2 0x1A6B JUMP JUMPDEST SWAP1 SHR SWAP1 POP JUMPDEST PUSH2 0x400 DUP3 AND ISZERO PUSH2 0xC41 JUMPI PUSH1 0x80 PUSH2 0xC3C DUP3 PUSH16 0xF3392B0822B70005940C7A398E4B70F3 PUSH2 0x1A6B JUMP JUMPDEST SWAP1 SHR SWAP1 POP JUMPDEST PUSH2 0x800 DUP3 AND ISZERO PUSH2 0xC6C JUMPI PUSH1 0x80 PUSH2 0xC67 DUP3 PUSH16 0xE7159475A2C29B7443B29C7FA6E889D9 PUSH2 0x1A6B JUMP JUMPDEST SWAP1 SHR SWAP1 POP JUMPDEST PUSH2 0x1000 DUP3 AND ISZERO PUSH2 0xC97 JUMPI PUSH1 0x80 PUSH2 0xC92 DUP3 PUSH16 0xD097F3BDFD2022B8845AD8F792AA5825 PUSH2 0x1A6B JUMP JUMPDEST SWAP1 SHR SWAP1 POP JUMPDEST PUSH2 0x2000 DUP3 AND ISZERO PUSH2 0xCC2 JUMPI PUSH1 0x80 PUSH2 0xCBD DUP3 PUSH16 0xA9F746462D870FDF8A65DC1F90E061E5 PUSH2 0x1A6B JUMP JUMPDEST SWAP1 SHR SWAP1 POP JUMPDEST PUSH2 0x4000 DUP3 AND ISZERO PUSH2 0xCED JUMPI PUSH1 0x80 PUSH2 0xCE8 DUP3 PUSH16 0x70D869A156D2A1B890BB3DF62BAF32F7 PUSH2 0x1A6B JUMP JUMPDEST SWAP1 SHR SWAP1 POP JUMPDEST PUSH2 0x8000 DUP3 AND ISZERO PUSH2 0xD18 JUMPI PUSH1 0x80 PUSH2 0xD13 DUP3 PUSH16 0x31BE135F97D08FD981231505542FCFA6 PUSH2 0x1A6B JUMP JUMPDEST SWAP1 SHR SWAP1 POP JUMPDEST PUSH3 0x10000 DUP3 AND ISZERO PUSH2 0xD44 JUMPI PUSH1 0x80 PUSH2 0xD3F DUP3 PUSH16 0x9AA508B5B7A84E1C677DE54F3E99BC9 PUSH2 0x1A6B JUMP JUMPDEST SWAP1 SHR SWAP1 POP JUMPDEST PUSH3 0x20000 DUP3 AND ISZERO PUSH2 0xD6F JUMPI PUSH1 0x80 PUSH2 0xD6A DUP3 PUSH15 0x5D6AF8DEDB81196699C329225EE604 PUSH2 0x1A6B JUMP JUMPDEST SWAP1 SHR SWAP1 POP JUMPDEST PUSH3 0x40000 DUP3 AND ISZERO PUSH2 0xD99 JUMPI PUSH1 0x80 PUSH2 0xD94 DUP3 PUSH14 0x2216E584F5FA1EA926041BEDFE98 PUSH2 0x1A6B JUMP JUMPDEST SWAP1 SHR SWAP1 POP JUMPDEST PUSH3 0x80000 DUP3 AND ISZERO PUSH2 0xDC1 JUMPI PUSH1 0x80 PUSH2 0xDBC DUP3 PUSH12 0x48A170391F7DC42444E8FA2 PUSH2 0x1A6B JUMP JUMPDEST SWAP1 SHR SWAP1 POP JUMPDEST PUSH1 0x0 DUP5 PUSH1 0x2 SIGNEXTEND SGT ISZERO PUSH2 0xDDC JUMPI PUSH2 0xDD9 DUP2 PUSH1 0x0 NOT PUSH2 0x1A35 JUMP JUMPDEST SWAP1 POP JUMPDEST PUSH2 0xDEB PUSH5 0x100000000 DUP3 PUSH2 0x1A82 JUMP JUMPDEST ISZERO PUSH2 0xDF7 JUMPI PUSH1 0x1 PUSH2 0xDFA JUMP JUMPDEST PUSH1 0x0 JUMPDEST PUSH2 0xE0B SWAP1 PUSH1 0xFF AND PUSH1 0x20 DUP4 SWAP1 SHR PUSH2 0x19F9 JUMP JUMPDEST SWAP5 SWAP4 POP POP POP POP JUMP JUMPDEST PUSH1 0x0 DUP4 PUSH1 0x1 PUSH1 0x1 PUSH1 0xA0 SHL SUB AND DUP6 PUSH1 0x1 PUSH1 0x1 PUSH1 0xA0 SHL SUB AND GT ISZERO PUSH2 0xE33 JUMPI SWAP3 SWAP4 SWAP3 JUMPDEST PUSH1 0x0 DUP6 PUSH1 0x1 PUSH1 0x1 PUSH1 0xA0 SHL SUB AND GT PUSH2 0xE49 JUMPI PUSH1 0x0 DUP1 REVERT JUMPDEST PUSH16 0xFFFFFFFFFFFFFFFFFFFFFFFFFFFFFFFF PUSH1 0x60 SHL PUSH1 0x60 DUP5 SWAP1 SHL AND PUSH1 0x0 PUSH2 0xE6F DUP8 DUP8 PUSH2 0x18B5 JUMP JUMPDEST PUSH1 0x1 PUSH1 0x1 PUSH1 0xA0 SHL SUB AND SWAP1 POP DUP4 ISZERO PUSH2 0xEB3 JUMPI PUSH2 0xEAC PUSH2 0xE97 DUP4 DUP4 DUP10 PUSH1 0x1 PUSH1 0x1 PUSH1 0xA0 SHL SUB AND PUSH2 0xEE8 JUMP JUMPDEST DUP9 PUSH1 0x1 PUSH1 0x1 PUSH1 0xA0 SHL SUB AND DUP1 DUP3 DIV SWAP2 MOD ISZERO ISZERO ADD SWAP1 JUMP JUMPDEST SWAP3 POP PUSH2 0xEDE JUMP JUMPDEST DUP7 PUSH1 0x1 PUSH1 0x1 PUSH1 0xA0 SHL SUB AND PUSH2 0xED1 DUP4 DUP4 DUP10 PUSH1 0x1 PUSH1 0x1 PUSH1 0xA0 SHL SUB AND PUSH2 0x1243 JUMP JUMPDEST PUSH2 0xEDB SWAP2 SWAP1 PUSH2 0x1A35 JUMP JUMPDEST SWAP3 POP JUMPDEST POP POP SWAP5 SWAP4 POP POP POP POP JUMP JUMPDEST PUSH1 0x0 PUSH2 0xEF5 DUP5 DUP5 DUP5 PUSH2 0x1243 JUMP JUMPDEST SWAP1 POP PUSH1 0x0 DUP3 DUP1 PUSH2 0xF07 JUMPI PUSH2 0xF07 PUSH2 0x1A1F JUMP JUMPDEST DUP5 DUP7 MULMOD GT ISZERO PUSH2 0xF2C JUMPI PUSH1 0x0 NOT DUP2 LT PUSH2 0xF1E JUMPI PUSH1 0x0 DUP1 REVERT JUMPDEST DUP1 PUSH2 0xF28 DUP2 PUSH2 0x16E2 JUMP JUMPDEST SWAP2 POP POP JUMPDEST SWAP4 SWAP3 POP POP POP JUMP JUMPDEST PUSH1 0x0 DUP4 PUSH1 0x1 PUSH1 0x1 PUSH1 0xA0 SHL SUB AND DUP6 PUSH1 0x1 PUSH1 0x1 PUSH1 0xA0 SHL SUB AND GT ISZERO PUSH2 0xF53 JUMPI SWAP3 SWAP4 SWAP3 JUMPDEST DUP2 ISZERO PUSH2 0xF8A JUMPI PUSH2 0xF83 PUSH1 0x1 PUSH1 0x1 PUSH1 0x80 SHL SUB DUP5 AND PUSH2 0xF70 DUP8 DUP8 PUSH2 0x18B5 JUMP JUMPDEST PUSH1 0x1 PUSH1 0x1 PUSH1 0xA0 SHL SUB AND PUSH1 0x1 PUSH1 0x60 SHL PUSH2 0xEE8 JUMP JUMPDEST SWAP1 POP PUSH2 0xE0B JUMP JUMPDEST PUSH2 0xFB4 PUSH1 0x1 PUSH1 0x1 PUSH1 0x80 SHL SUB DUP5 AND PUSH2 0xFA1 DUP8 DUP8 PUSH2 0x18B5 JUMP JUMPDEST PUSH1 0x1 PUSH1 0x1 PUSH1 0xA0 SHL SUB AND PUSH1 0x1 PUSH1 0x60 SHL PUSH2 0x1243 JUMP JUMPDEST SWAP6 SWAP5 POP POP POP POP POP JUMP JUMPDEST PUSH1 0x0 PUSH2 0xFCA DUP3 PUSH1 0x14 PUSH2 0x19F9 JUMP JUMPDEST DUP4 MLOAD LT ISZERO PUSH2 0x1012 JUMPI PUSH1 0x40 MLOAD PUSH3 0x461BCD PUSH1 0xE5 SHL DUP2 MSTORE PUSH1 0x20 PUSH1 0x4 DUP3 ADD MSTORE PUSH1 0x15 PUSH1 0x24 DUP3 ADD MSTORE PUSH21 0x746F416464726573735F6F75744F66426F756E6473 PUSH1 0x58 SHL PUSH1 0x44 DUP3 ADD MSTORE PUSH1 0x64 ADD PUSH2 0xA53 JUMP JUMPDEST POP ADD PUSH1 0x20 ADD MLOAD PUSH1 0x1 PUSH1 0x60 SHL SWAP1 DIV SWAP1 JUMP JUMPDEST PUSH1 0x0 PUSH2 0x102F DUP3 PUSH1 0x3 PUSH2 0x19F9 JUMP JUMPDEST DUP4 MLOAD LT ISZERO PUSH2 0x1076 JUMPI PUSH1 0x40 MLOAD PUSH3 0x461BCD PUSH1 0xE5 SHL DUP2 MSTORE PUSH1 0x20 PUSH1 0x4 DUP3 ADD MSTORE PUSH1 0x14 PUSH1 0x24 DUP3 ADD MSTORE PUSH20 0x746F55696E7432345F6F75744F66426F756E6473 PUSH1 0x60 SHL PUSH1 0x44 DUP3 ADD MSTORE PUSH1 0x64 ADD PUSH2 0xA53 JUMP JUMPDEST POP ADD PUSH1 0x3 ADD MLOAD SWAP1 JUMP JUMPDEST PUSH1 0x60 DUP2 PUSH2 0x108D DUP2 PUSH1 0x1F PUSH2 0x19F9 JUMP JUMPDEST LT ISZERO PUSH2 0x10CC JUMPI PUSH1 0x40 MLOAD PUSH3 0x461BCD PUSH1 0xE5 SHL DUP2 MSTORE PUSH1 0x20 PUSH1 0x4 DUP3 ADD MSTORE PUSH1 0xE PUSH1 0x24 DUP3 ADD MSTORE PUSH14 0x736C6963655F6F766572666C6F77 PUSH1 0x90 SHL PUSH1 0x44 DUP3 ADD MSTORE PUSH1 0x64 ADD PUSH2 0xA53 JUMP JUMPDEST PUSH2 0x10D6 DUP3 DUP5 PUSH2 0x19F9 JUMP JUMPDEST DUP5 MLOAD LT ISZERO PUSH2 0x111A JUMPI PUSH1 0x40 MLOAD PUSH3 0x461BCD PUSH1 0xE5 SHL DUP2 MSTORE PUSH1 0x20 PUSH1 0x4 DUP3 ADD MSTORE PUSH1 0x11 PUSH1 0x24 DUP3 ADD MSTORE PUSH17 0x736C6963655F6F75744F66426F756E6473 PUSH1 0x78 SHL PUSH1 0x44 DUP3 ADD MSTORE PUSH1 0x64 ADD PUSH2 0xA53 JUMP JUMPDEST PUSH1 0x60 DUP3 ISZERO DUP1 ISZERO PUSH2 0x1139 JUMPI PUSH1 0x40 MLOAD SWAP2 POP PUSH1 0x0 DUP3 MSTORE PUSH1 0x20 DUP3 ADD PUSH1 0x40 MSTORE PUSH2 0x1183 JUMP JUMPDEST PUSH1 0x40 MLOAD SWAP2 POP PUSH1 0x1F DUP5 AND DUP1 ISZERO PUSH1 0x20 MUL DUP2 DUP5 ADD ADD DUP6 DUP2 ADD DUP8 DUP4 ISZERO PUSH1 0x20 MUL DUP5 DUP12 ADD ADD ADD JUMPDEST DUP2 DUP4 LT ISZERO PUSH2 0x1172 JUMPI DUP1 MLOAD DUP4 MSTORE PUSH1 0x20 SWAP3 DUP4 ADD SWAP3 ADD PUSH2 0x115A JUMP JUMPDEST POP POP DUP6 DUP5 MSTORE PUSH1 0x1F ADD PUSH1 0x1F NOT AND PUSH1 0x40 MSTORE POP JUMPDEST POP SWAP5 SWAP4 POP POP POP POP JUMP JUMPDEST PUSH1 0x0 DUP4 PUSH1 0x1 PUSH1 0x1 PUSH1 0xA0 SHL SUB AND DUP6 PUSH1 0x1 PUSH1 0x1 PUSH1 0xA0 SHL SUB AND GT ISZERO PUSH2 0x11AC JUMPI SWAP3 SWAP4 SWAP3 JUMPDEST DUP5 PUSH1 0x1 PUSH1 0x1 PUSH1 0xA0 SHL SUB AND DUP7 PUSH1 0x1 PUSH1 0x1 PUSH1 0xA0 SHL SUB AND GT PUSH2 0x11D7 JUMPI PUSH2 0x11D0 DUP6 DUP6 DUP6 PUSH2 0x1310 JUMP JUMPDEST SWAP1 POP PUSH2 0xFB4 JUMP JUMPDEST DUP4 PUSH1 0x1 PUSH1 0x1 PUSH1 0xA0 SHL SUB AND DUP7 PUSH1 0x1 PUSH1 0x1 PUSH1 0xA0 SHL SUB AND GT PUSH2 0x1238 JUMPI PUSH1 0x0 PUSH2 0x11FD DUP8 DUP7 DUP7 PUSH2 0x1310 JUMP JUMPDEST SWAP1 POP PUSH1 0x0 PUSH2 0x120C DUP8 DUP10 DUP7 PUSH2 0x1372 JUMP JUMPDEST SWAP1 POP DUP1 PUSH1 0x1 PUSH1 0x1 PUSH1 0x80 SHL SUB AND DUP3 PUSH1 0x1 PUSH1 0x1 PUSH1 0x80 SHL SUB AND LT PUSH2 0x122D JUMPI DUP1 PUSH2 0x122F JUMP JUMPDEST DUP2 JUMPDEST SWAP3 POP POP POP PUSH2 0xFB4 JUMP JUMPDEST PUSH2 0x9E2 DUP6 DUP6 DUP5 PUSH2 0x1372 JUMP JUMPDEST PUSH1 0x0 DUP1 DUP1 PUSH1 0x0 NOT DUP6 DUP8 MULMOD DUP6 DUP8 MUL SWAP3 POP DUP3 DUP2 LT DUP4 DUP3 SUB SUB SWAP2 POP POP DUP1 PUSH1 0x0 SUB PUSH2 0x127D JUMPI DUP4 DUP3 DUP2 PUSH2 0x1273 JUMPI PUSH2 0x1273 PUSH2 0x1A1F JUMP JUMPDEST DIV SWAP3 POP POP POP PUSH2 0xF2C JUMP JUMPDEST DUP4 DUP2 LT PUSH2 0x12A7 JUMPI PUSH1 0x40 MLOAD PUSH4 0x1DCF3063 PUSH1 0xE2 SHL DUP2 MSTORE PUSH1 0x4 DUP2 ADD DUP3 SWAP1 MSTORE PUSH1 0x24 DUP2 ADD DUP6 SWAP1 MSTORE PUSH1 0x44 ADD PUSH2 0xA53 JUMP JUMPDEST PUSH1 0x0 DUP5 DUP7 DUP9 MULMOD PUSH1 0x2 PUSH1 0x1 DUP8 NOT DUP2 ADD DUP9 AND SWAP8 DUP9 SWAP1 DIV PUSH1 0x3 DUP2 MUL DUP4 XOR DUP1 DUP3 MUL DUP5 SUB MUL DUP1 DUP3 MUL DUP5 SUB MUL DUP1 DUP3 MUL DUP5 SUB MUL DUP1 DUP3 MUL DUP5 SUB MUL DUP1 DUP3 MUL DUP5 SUB MUL SWAP1 DUP2 MUL SWAP1 SWAP3 SUB SWAP1 SWAP2 MUL PUSH1 0x0 DUP9 SWAP1 SUB DUP9 SWAP1 DIV SWAP1 SWAP2 ADD DUP6 DUP4 GT SWAP1 SWAP5 SUB SWAP4 SWAP1 SWAP4 MUL SWAP4 SUB SWAP5 SWAP1 SWAP5 DIV SWAP2 SWAP1 SWAP2 OR MUL SWAP5 SWAP4 POP POP POP POP JUMP JUMPDEST PUSH1 0x0 DUP3 PUSH1 0x1 PUSH1 0x1 PUSH1 0xA0 SHL SUB AND DUP5 PUSH1 0x1 PUSH1 0x1 PUSH1 0xA0 SHL SUB AND GT ISZERO PUSH2 0x1330 JUMPI SWAP2 SWAP3 SWAP2 JUMPDEST PUSH1 0x0 PUSH2 0x1353 DUP6 PUSH1 0x1 PUSH1 0x1 PUSH1 0xA0 SHL SUB AND DUP6 PUSH1 0x1 PUSH1 0x1 PUSH1 0xA0 SHL SUB AND PUSH1 0x1 PUSH1 0x60 SHL PUSH2 0x1243 JUMP JUMPDEST SWAP1 POP PUSH2 0xF28 DUP4 DUP3 PUSH2 0x1364 DUP9 DUP9 PUSH2 0x18B5 JUMP JUMPDEST PUSH1 0x1 PUSH1 0x1 PUSH1 0xA0 SHL SUB AND PUSH2 0x1243 JUMP JUMPDEST PUSH1 0x0 DUP3 PUSH1 0x1 PUSH1 0x1 PUSH1 0xA0 SHL SUB AND DUP5 PUSH1 0x1 PUSH1 0x1 PUSH1 0xA0 SHL SUB AND GT ISZERO PUSH2 0x1392 JUMPI SWAP2 SWAP3 SWAP2 JUMPDEST PUSH2 0xE0B DUP3 PUSH1 0x1 PUSH1 0x60 SHL PUSH2 0x1364 DUP8 DUP8 PUSH2 0x18B5 JUMP JUMPDEST PUSH4 0x4E487B71 PUSH1 0xE0 SHL PUSH1 0x0 MSTORE PUSH1 0x41 PUSH1 0x4 MSTORE PUSH1 0x24 PUSH1 0x0 REVERT JUMPDEST PUSH1 0x0 DUP3 PUSH1 0x1F DUP4 ADD SLT PUSH2 0x13CC JUMPI PUSH1 0x0 DUP1 REVERT JUMPDEST DUP2 CALLDATALOAD PUSH8 0xFFFFFFFFFFFFFFFF DUP1 DUP3 GT ISZERO PUSH2 0x13E7 JUMPI PUSH2 0x13E7 PUSH2 0x13A5 JUMP JUMPDEST PUSH1 0x40 MLOAD PUSH1 0x1F DUP4 ADD PUSH1 0x1F NOT SWAP1 DUP2 AND PUSH1 0x3F ADD AND DUP2 ADD SWAP1 DUP3 DUP3 GT DUP2 DUP4 LT OR ISZERO PUSH2 0x140F JUMPI PUSH2 0x140F PUSH2 0x13A5 JUMP JUMPDEST DUP2 PUSH1 0x40 MSTORE DUP4 DUP2 MSTORE DUP7 PUSH1 0x20 DUP6 DUP9 ADD ADD GT ISZERO PUSH2 0x1428 JUMPI PUSH1 0x0 DUP1 REVERT JUMPDEST DUP4 PUSH1 0x20 DUP8 ADD PUSH1 0x20 DUP4 ADD CALLDATACOPY PUSH1 0x0 PUSH1 0x20 DUP6 DUP4 ADD ADD MSTORE DUP1 SWAP5 POP POP POP POP POP SWAP3 SWAP2 POP POP JUMP JUMPDEST PUSH1 0x0 DUP1 PUSH1 0x40 DUP4 DUP6 SUB SLT ISZERO PUSH2 0x145B JUMPI PUSH1 0x0 DUP1 REVERT JUMPDEST DUP3 CALLDATALOAD PUSH8 0xFFFFFFFFFFFFFFFF DUP2 GT ISZERO PUSH2 0x1472 JUMPI PUSH1 0x0 DUP1 REVERT JUMPDEST PUSH2 0x147E DUP6 DUP3 DUP7 ADD PUSH2 0x13BB JUMP JUMPDEST SWAP6 PUSH1 0x20 SWAP5 SWAP1 SWAP5 ADD CALLDATALOAD SWAP5 POP POP POP POP JUMP JUMPDEST PUSH1 0x0 PUSH1 0x60 DUP3 ADD DUP6 DUP4 MSTORE PUSH1 0x20 PUSH1 0x60 DUP2 DUP6 ADD MSTORE DUP2 DUP7 MLOAD DUP1 DUP5 MSTORE PUSH1 0x80 DUP7 ADD SWAP2 POP DUP3 DUP9 ADD SWAP4 POP PUSH1 0x0 JUMPDEST DUP2 DUP2 LT ISZERO PUSH2 0x14D7 JUMPI DUP5 MLOAD PUSH1 0x1 PUSH1 0x1 PUSH1 0xA0 SHL SUB AND DUP4 MSTORE SWAP4 DUP4 ADD SWAP4 SWAP2 DUP4 ADD SWAP2 PUSH1 0x1 ADD PUSH2 0x14B2 JUMP JUMPDEST POP POP DUP5 DUP2 SUB PUSH1 0x40 DUP7 ADD MSTORE DUP6 MLOAD DUP1 DUP3 MSTORE SWAP1 DUP3 ADD SWAP3 POP DUP2 DUP7 ADD SWAP1 PUSH1 0x0 JUMPDEST DUP2 DUP2 LT ISZERO PUSH2 0x1511 JUMPI DUP3 MLOAD PUSH1 0x2 SIGNEXTEND DUP6 MSTORE SWAP4 DUP4 ADD SWAP4 SWAP2 DUP4 ADD SWAP2 PUSH1 0x1 ADD PUSH2 0x14F2 JUMP JUMPDEST POP SWAP3 SWAP9 SWAP8 POP POP POP POP POP POP POP POP JUMP JUMPDEST PUSH1 0x1 PUSH1 0x1 PUSH1 0xA0 SHL SUB DUP2 AND DUP2 EQ PUSH2 0x1534 JUMPI PUSH1 0x0 DUP1 REVERT JUMPDEST POP JUMP JUMPDEST DUP1 CALLDATALOAD PUSH3 0xFFFFFF DUP2 AND DUP2 EQ PUSH2 0x154A JUMPI PUSH1 0x0 DUP1 REVERT JUMPDEST SWAP2 SWAP1 POP JUMP JUMPDEST DUP1 PUSH1 0x2 SIGNEXTEND DUP2 EQ PUSH2 0x1534 JUMPI PUSH1 0x0 DUP1 REVERT JUMPDEST PUSH1 0x0 PUSH1 0xC0 DUP3 DUP5 SUB SLT ISZERO PUSH2 0x1570 JUMPI PUSH1 0x0 DUP1 REVERT JUMPDEST PUSH1 0x40 MLOAD PUSH1 0xC0 DUP2 ADD DUP2 DUP2 LT PUSH8 0xFFFFFFFFFFFFFFFF DUP3 GT OR ISZERO PUSH2 0x1593 JUMPI PUSH2 0x1593 PUSH2 0x13A5 JUMP JUMPDEST PUSH1 0x40 MSTORE DUP3 CALLDATALOAD PUSH2 0x15A1 DUP2 PUSH2 0x151F JUMP JUMPDEST DUP2 MSTORE PUSH1 0x20 DUP4 ADD CALLDATALOAD PUSH2 0x15B1 DUP2 PUSH2 0x151F JUMP JUMPDEST PUSH1 0x20 DUP3 ADD MSTORE PUSH2 0x15C2 PUSH1 0x40 DUP5 ADD PUSH2 0x1537 JUMP JUMPDEST PUSH1 0x40 DUP3 ADD MSTORE PUSH1 0x60 DUP4 ADD CALLDATALOAD PUSH2 0x15D5 DUP2 PUSH2 0x154F JUMP JUMPDEST PUSH1 0x60 DUP3 ADD MSTORE PUSH1 0x80 DUP4 ADD CALLDATALOAD PUSH2 0x15E8 DUP2 PUSH2 0x154F JUMP JUMPDEST PUSH1 0x80 DUP3 ADD MSTORE PUSH1 0xA0 SWAP3 DUP4 ADD CALLDATALOAD SWAP3 DUP2 ADD SWAP3 SWAP1 SWAP3 MSTORE POP SWAP2 SWAP1 POP JUMP JUMPDEST PUSH1 0x0 DUP1 PUSH1 0x0 DUP1 PUSH1 0x0 PUSH1 0xA0 DUP7 DUP9 SUB SLT ISZERO PUSH2 0x1618 JUMPI PUSH1 0x0 DUP1 REVERT JUMPDEST DUP6 CALLDATALOAD PUSH2 0x1623 DUP2 PUSH2 0x151F JUMP JUMPDEST SWAP5 POP PUSH1 0x20 DUP7 ADD CALLDATALOAD PUSH2 0x1633 DUP2 PUSH2 0x151F JUMP JUMPDEST SWAP4 POP PUSH2 0x1641 PUSH1 0x40 DUP8 ADD PUSH2 0x1537 JUMP JUMPDEST SWAP3 POP PUSH1 0x60 DUP7 ADD CALLDATALOAD SWAP2 POP PUSH1 0x80 DUP7 ADD CALLDATALOAD PUSH2 0x1658 DUP2 PUSH2 0x151F JUMP JUMPDEST DUP1 SWAP2 POP POP SWAP3 SWAP6 POP SWAP3 SWAP6 SWAP1 SWAP4 POP JUMP JUMPDEST PUSH1 0x0 DUP1 PUSH1 0x0 PUSH1 0x60 DUP5 DUP7 SUB SLT ISZERO PUSH2 0x167B JUMPI PUSH1 0x0 DUP1 REVERT JUMPDEST DUP4 CALLDATALOAD SWAP3 POP PUSH1 0x20 DUP5 ADD CALLDATALOAD SWAP2 POP PUSH1 0x40 DUP5 ADD CALLDATALOAD PUSH8 0xFFFFFFFFFFFFFFFF DUP2 GT ISZERO PUSH2 0x16A0 JUMPI PUSH1 0x0 DUP1 REVERT JUMPDEST PUSH2 0x16AC DUP7 DUP3 DUP8 ADD PUSH2 0x13BB JUMP JUMPDEST SWAP2 POP POP SWAP3 POP SWAP3 POP SWAP3 JUMP JUMPDEST PUSH4 0x4E487B71 PUSH1 0xE0 SHL PUSH1 0x0 MSTORE PUSH1 0x32 PUSH1 0x4 MSTORE PUSH1 0x24 PUSH1 0x0 REVERT JUMPDEST PUSH4 0x4E487B71 PUSH1 0xE0 SHL PUSH1 0x0 MSTORE PUSH1 0x11 PUSH1 0x4 MSTORE PUSH1 0x24 PUSH1 0x0 REVERT JUMPDEST PUSH1 0x0 PUSH1 0x1 DUP3 ADD PUSH2 0x16F4 JUMPI PUSH2 0x16F4 PUSH2 0x16CC JUMP JUMPDEST POP PUSH1 0x1 ADD SWAP1 JUMP JUMPDEST PUSH1 0x1 PUSH1 0x1 PUSH1 0xA0 SHL SUB SWAP5 DUP6 AND DUP2 MSTORE SWAP3 DUP5 AND PUSH1 0x20 DUP5 ADD MSTORE SWAP3 AND PUSH1 0x40 DUP3 ADD MSTORE PUSH3 0xFFFFFF SWAP1 SWAP2 AND PUSH1 0x60 DUP3 ADD MSTORE PUSH1 0x80 ADD SWAP1 JUMP JUMPDEST PUSH1 0x0 PUSH1 0x20 DUP3 DUP5 SUB SLT ISZERO PUSH2 0x173B JUMPI PUSH1 0x0 DUP1 REVERT JUMPDEST DUP2 MLOAD PUSH2 0xF2C DUP2 PUSH2 0x151F JUMP JUMPDEST DUP1 MLOAD PUSH2 0xFFFF DUP2 AND DUP2 EQ PUSH2 0x154A JUMPI PUSH1 0x0 DUP1 REVERT JUMPDEST PUSH1 0x0 DUP1 PUSH1 0x0 DUP1 PUSH1 0x0 PUSH1 0xA0 DUP7 DUP9 SUB SLT ISZERO PUSH2 0x1770 JUMPI PUSH1 0x0 DUP1 REVERT JUMPDEST DUP6 MLOAD PUSH2 0x177B DUP2 PUSH2 0x151F JUMP JUMPDEST PUSH1 0x20 DUP8 ADD MLOAD SWAP1 SWAP6 POP PUSH2 0x178C DUP2 PUSH2 0x154F JUMP JUMPDEST SWAP4 POP PUSH2 0x179A PUSH1 0x40 DUP8 ADD PUSH2 0x1746 JUMP JUMPDEST SWAP3 POP PUSH2 0x17A8 PUSH1 0x60 DUP8 ADD PUSH2 0x1746 JUMP JUMPDEST SWAP2 POP PUSH2 0x17B6 PUSH1 0x80 DUP8 ADD PUSH2 0x1746 JUMP JUMPDEST SWAP1 POP SWAP3 SWAP6 POP SWAP3 SWAP6 SWAP1 SWAP4 POP JUMP JUMPDEST PUSH1 0x1 DUP2 DUP2 JUMPDEST DUP1 DUP6 GT ISZERO PUSH2 0x17FD JUMPI DUP2 PUSH1 0x0 NOT DIV DUP3 GT ISZERO PUSH2 0x17E3 JUMPI PUSH2 0x17E3 PUSH2 0x16CC JUMP JUMPDEST DUP1 DUP6 AND ISZERO PUSH2 0x17F0 JUMPI SWAP2 DUP2 MUL SWAP2 JUMPDEST SWAP4 DUP5 SHR SWAP4 SWAP1 DUP1 MUL SWAP1 PUSH2 0x17C7 JUMP JUMPDEST POP SWAP3 POP SWAP3 SWAP1 POP JUMP JUMPDEST PUSH1 0x0 DUP3 PUSH2 0x1814 JUMPI POP PUSH1 0x1 PUSH2 0x916 JUMP JUMPDEST DUP2 PUSH2 0x1821 JUMPI POP PUSH1 0x0 PUSH2 0x916 JUMP JUMPDEST DUP2 PUSH1 0x1 DUP2 EQ PUSH2 0x1837 JUMPI PUSH1 0x2 DUP2 EQ PUSH2 0x1841 JUMPI PUSH2 0x185D JUMP JUMPDEST PUSH1 0x1 SWAP2 POP POP PUSH2 0x916 JUMP JUMPDEST PUSH1 0xFF DUP5 GT ISZERO PUSH2 0x1852 JUMPI PUSH2 0x1852 PUSH2 0x16CC JUMP JUMPDEST POP POP PUSH1 0x1 DUP3 SHL PUSH2 0x916 JUMP JUMPDEST POP PUSH1 0x20 DUP4 LT PUSH2 0x133 DUP4 LT AND PUSH1 0x4E DUP5 LT PUSH1 0xB DUP5 LT AND OR ISZERO PUSH2 0x1880 JUMPI POP DUP2 DUP2 EXP PUSH2 0x916 JUMP JUMPDEST PUSH2 0x188A DUP4 DUP4 PUSH2 0x17C2 JUMP JUMPDEST DUP1 PUSH1 0x0 NOT DIV DUP3 GT ISZERO PUSH2 0x189E JUMPI PUSH2 0x189E PUSH2 0x16CC JUMP JUMPDEST MUL SWAP4 SWAP3 POP POP POP JUMP JUMPDEST PUSH1 0x0 PUSH2 0xF2C PUSH1 0xFF DUP5 AND DUP4 PUSH2 0x1805 JUMP JUMPDEST PUSH1 0x1 PUSH1 0x1 PUSH1 0xA0 SHL SUB DUP3 DUP2 AND DUP3 DUP3 AND SUB SWAP1 DUP1 DUP3 GT ISZERO PUSH2 0x18D5 JUMPI PUSH2 0x18D5 PUSH2 0x16CC JUMP JUMPDEST POP SWAP3 SWAP2 POP POP JUMP JUMPDEST PUSH1 0x1 PUSH1 0x1 PUSH1 0xA0 SHL SUB DUP2 DUP2 AND DUP4 DUP3 AND ADD SWAP1 DUP1 DUP3 GT ISZERO PUSH2 0x18D5 JUMPI PUSH2 0x18D5 PUSH2 0x16CC JUMP JUMPDEST PUSH1 0x0 PUSH1 0x1 DUP1 PUSH1 0xA0 SHL SUB DUP1 DUP9 AND DUP4 MSTORE PUSH1 0x20 DUP8 ISZERO ISZERO DUP2 DUP6 ADD MSTORE DUP7 PUSH1 0x40 DUP6 ADD MSTORE DUP2 DUP7 AND PUSH1 0x60 DUP6 ADD MSTORE PUSH1 0xA0 PUSH1 0x80 DUP6 ADD MSTORE DUP5 MLOAD SWAP2 POP DUP2 PUSH1 0xA0 DUP6 ADD MSTORE PUSH1 0x0 JUMPDEST DUP3 DUP2 LT ISZERO PUSH2 0x1951 JUMPI DUP6 DUP2 ADD DUP3 ADD MLOAD DUP6 DUP3 ADD PUSH1 0xC0 ADD MSTORE DUP2 ADD PUSH2 0x1935 JUMP JUMPDEST POP POP PUSH1 0x0 PUSH1 0xC0 DUP3 DUP6 ADD ADD MSTORE PUSH1 0xC0 PUSH1 0x1F NOT PUSH1 0x1F DUP4 ADD AND DUP5 ADD ADD SWAP2 POP POP SWAP7 SWAP6 POP POP POP POP POP POP JUMP JUMPDEST PUSH1 0x0 DUP1 PUSH1 0x40 DUP4 DUP6 SUB SLT ISZERO PUSH2 0x1989 JUMPI PUSH1 0x0 DUP1 REVERT JUMPDEST POP POP DUP1 MLOAD PUSH1 0x20 SWAP1 SWAP2 ADD MLOAD SWAP1 SWAP3 SWAP1 SWAP2 POP JUMP JUMPDEST PUSH1 0x0 DUP1 PUSH1 0x0 PUSH1 0x60 DUP5 DUP7 SUB SLT ISZERO PUSH2 0x19AF JUMPI PUSH1 0x0 DUP1 REVERT JUMPDEST DUP4 MLOAD SWAP3 POP PUSH1 0x20 DUP5 ADD MLOAD PUSH2 0x19C1 DUP2 PUSH2 0x151F JUMP JUMPDEST PUSH1 0x40 DUP6 ADD MLOAD SWAP1 SWAP3 POP PUSH2 0x19D2 DUP2 PUSH2 0x154F JUMP JUMPDEST DUP1 SWAP2 POP POP SWAP3 POP SWAP3 POP SWAP3 JUMP JUMPDEST PUSH1 0x0 PUSH1 0x1 PUSH1 0xFF SHL DUP3 ADD PUSH2 0x19F2 JUMPI PUSH2 0x19F2 PUSH2 0x16CC JUMP JUMPDEST POP PUSH1 0x0 SUB SWAP1 JUMP JUMPDEST DUP1 DUP3 ADD DUP1 DUP3 GT ISZERO PUSH2 0x916 JUMPI PUSH2 0x916 PUSH2 0x16CC JUMP JUMPDEST DUP2 DUP2 SUB DUP2 DUP2 GT ISZERO PUSH2 0x916 JUMPI PUSH2 0x916 PUSH2 0x16CC JUMP JUMPDEST PUSH4 0x4E487B71 PUSH1 0xE0 SHL PUSH1 0x0 MSTORE PUSH1 0x12 PUSH1 0x4 MSTORE PUSH1 0x24 PUSH1 0x0 REVERT JUMPDEST PUSH1 0x0 DUP3 PUSH2 0x1A44 JUMPI PUSH2 0x1A44 PUSH2 0x1A1F JUMP JUMPDEST POP DIV SWAP1 JUMP JUMPDEST PUSH1 0x0 DUP2 PUSH1 0x2 SIGNEXTEND PUSH3 0x7FFFFF NOT DUP2 SUB PUSH2 0x1A62 JUMPI PUSH2 0x1A62 PUSH2 0x16CC JUMP JUMPDEST PUSH1 0x0 SUB SWAP3 SWAP2 POP POP JUMP JUMPDEST DUP1 DUP3 MUL DUP2 ISZERO DUP3 DUP3 DIV DUP5 EQ OR PUSH2 0x916 JUMPI PUSH2 0x916 PUSH2 0x16CC JUMP JUMPDEST PUSH1 0x0 DUP3 PUSH2 0x1A91 JUMPI PUSH2 0x1A91 PUSH2 0x1A1F JUMP JUMPDEST POP MOD SWAP1 JUMP INVALID LOG2 PUSH5 0x6970667358 0x22 SLT KECCAK256 0xB8 LOG4 CREATE PUSH12 0x7883DF8885E76290D667C7F7 PUSH31 0xCDFA25D7030A61855B78BEE97EA7C464736F6C634300081400330000000000 ",
    "sha1": "46f0edb7eda97ee591fd8181f11b62f5ccb6249c",
    "source": "// SPDX-License-Identifier: BUSL-1.1\npragma solidity ^0.8.14;\n\nimport \"./HelpFunctions.sol\";\n\nimport \"../interface_contracts/IUniswapV3Pool.sol\";\n\nimport \"./lib/Math.sol\";\nimport \"./lib/Path.sol\";\nimport \"./lib/PoolAddress.sol\";\nimport \"./lib/TickMath.sol\";\nimport \"./lib/LiquidityMath.sol\";\n\ncontract Quoter {\n    using Path for bytes;\n\n    struct QuoteSingleParams {\n        address tokenIn;\n        address tokenOut;\n        uint24 fee;\n        uint256 amountIn;\n        uint160 sqrtPriceLimitX96;\n    }\n\n    struct LiqInputTokenParams {\n        address tokenIn;\n        address tokenOut;\n        uint24 fee;\n        int24 lowerTick;\n        int24 upperTick;\n        uint256 amountInDesired;\n    }\n\n    address public immutable factory;\n\n    constructor(address factory_) {\n        factory = factory_;\n    }\n\n    /*\n    External\n     */\n    function uniswapV3SwapCallback(\n        int256 amount0Delta,\n        int256 amount1Delta,\n        bytes memory data\n    ) external view {\n        address pool = abi.decode(data, (address));\n        uint256 amountOut = amount0Delta > 0\n            ? uint256(-amount1Delta)\n            : uint256(-amount0Delta);\n        (uint160 sqrtPriceX96After, int24 tickAfter, , , ) = IUniswapV3Pool(\n            pool\n        ).slot0();\n        assembly {\n            let ptr := mload(0x40)\n            mstore(ptr, amountOut)\n            mstore(add(ptr, 0x20), sqrtPriceX96After)\n            mstore(add(ptr, 0x40), tickAfter)\n            revert(ptr, 96)\n        }\n    }\n\n    /*\n    Public\n     */\n    function quoteMulti(\n        bytes memory path,\n        uint256 amountIn\n    )\n        public\n        returns (\n            uint256 amountOut,\n            uint160[] memory sqrtPriceX96AfterList,\n            int24[] memory tickAfterList\n        )\n    {\n        sqrtPriceX96AfterList = new uint160[](path.numPools());\n        tickAfterList = new int24[](path.numPools());\n\n        uint256 i = 0;\n        while (true) {\n            (address tokenIn, address tokenOut, uint24 fee) = path\n                .decodeFirstPool();\n\n            (\n                uint256 amountOut_,\n                uint160 sqrtPriceX96After,\n                int24 tickAfter\n            ) = quoteSingle(tokenIn, tokenOut, fee,  amountIn, 0\n                );\n\n            sqrtPriceX96AfterList[i] = sqrtPriceX96After;\n            tickAfterList[i] = tickAfter;\n            amountIn = amountOut_;\n            i++;\n\n            if (path.hasMultiplePools()) {\n                path = path.skipToken();\n            } else {\n                amountOut = amountIn;\n                break;\n            }\n        }\n    }\n\n    function quoteSingle(\n        address tokenIn,\n        address tokenOut,\n        uint24 fee,\n        uint256 amountIn,\n        uint160 sqrtPriceLimitX96\n    )\n        public\n        returns (uint256 amountOut, uint160 sqrtPriceX96After, int24 tickAfter)\n    {\n        IUniswapV3Pool pool = HelpFunctions._getPool(\n            factory,\n            tokenIn,\n            tokenOut,\n            fee\n        );\n\n        bool zeroForOne = tokenIn < tokenOut;\n\n        try\n            pool.swap(\n                address(this),\n                zeroForOne,\n                amountIn,\n                sqrtPriceLimitX96 == 0\n                    ? (\n                        zeroForOne\n                            ? TickMath.MIN_SQRT_RATIO + 1\n                            : TickMath.MAX_SQRT_RATIO - 1\n                    )\n                    : sqrtPriceLimitX96,\n                abi.encode(address(pool))\n            )\n        {} catch (bytes memory reason) {\n            return abi.decode(reason, (uint256, uint160, int24));\n        }\n    }\n\n    /*\n    Public - View\n     */\n    function quoteLiqInputToken0(\n        LiqInputTokenParams memory params\n    ) public view returns (uint256 amount1) {\n        IUniswapV3Pool pool = HelpFunctions._getPool(\n            factory,\n            params.tokenIn,\n            params.tokenOut,\n            params.fee\n        );\n\n        (uint160 sqrtPriceX96, int24 tick, , , ) = pool.slot0();\n\n        if (tick < params.upperTick && tick > params.lowerTick) {\n            amount1 = Math.mulDivRoundingUp(\n                uint256(sqrtPriceX96),\n                uint256(params.amountInDesired),\n                uint256(2 ** 96)\n            );\n\n            uint128 liquidity = _getLiquidity(\n                params.lowerTick,\n                params.upperTick,\n                sqrtPriceX96,\n                params.amountInDesired,\n                amount1 ** 2\n            );\n\n            amount1 = Math.calcAmount1Delta(\n                TickMath.getSqrtRatioAtTick(params.lowerTick),\n                sqrtPriceX96,\n                liquidity,\n                false\n            );\n        }\n    }\n\n    function quoteLiqInputToken1(\n        LiqInputTokenParams memory params\n    ) public view returns (uint256 amount0) {\n        IUniswapV3Pool pool = HelpFunctions._getPool(\n            factory,\n            params.tokenIn,\n            params.tokenOut,\n            params.fee\n        );\n\n        (uint160 sqrtPriceX96, int24 tick, , , ) = pool.slot0();\n\n        if (tick < params.upperTick && tick > params.lowerTick) {\n            amount0 = Math.divRoundingUp(\n                params.amountInDesired,\n                Math.divRoundingUp(uint256(sqrtPriceX96), uint256(2 ** 96))\n            );\n\n            uint128 liquidity = _getLiquidity(\n                params.lowerTick,\n                params.upperTick,\n                sqrtPriceX96,\n                amount0 ** 2,\n                params.amountInDesired\n            );\n\n            amount0 = Math.calcAmount0Delta(\n                sqrtPriceX96,\n                TickMath.getSqrtRatioAtTick(params.upperTick),\n                liquidity,\n                false\n            );\n        }\n    }\n\n    /*\n    Internal - Pure\n     */\n    function _getLiquidity(\n        int24 lowerTick,\n        int24 upperTick,\n        uint160 sqrtPriceX96,\n        uint256 amountInDesired,\n        uint256 amountOutDesired\n    ) internal pure returns (uint128 liquidity) {\n        liquidity = LiquidityMath.getLiquidityForAmounts(\n            sqrtPriceX96,\n            TickMath.getSqrtRatioAtTick(lowerTick),\n            TickMath.getSqrtRatioAtTick(upperTick),\n            amountInDesired,\n            amountOutDesired\n        );\n    }\n}\n",
    "sourcePath": "contracts/Quoter.sol",
    "type": "contract"
}