{
    "abi": [
        {
            "inputs": [
                {
                    "internalType": "address",
                    "name": "factory_",
                    "type": "address"
                }
            ],
            "stateMutability": "nonpayable",
            "type": "constructor"
        },
        {
            "inputs": [
                {
                    "internalType": "uint256",
                    "name": "prod1",
                    "type": "uint256"
                },
                {
                    "internalType": "uint256",
                    "name": "denominator",
                    "type": "uint256"
                }
            ],
            "name": "PRBMath__MulDivOverflow",
            "type": "error"
        },
        {
            "inputs": [],
            "name": "factory",
            "outputs": [
                {
                    "internalType": "address",
                    "name": "",
                    "type": "address"
                }
            ],
            "stateMutability": "view",
            "type": "function"
        },
        {
            "inputs": [
                {
                    "internalType": "address",
                    "name": "tokenIn",
                    "type": "address"
                },
                {
                    "internalType": "address",
                    "name": "tokenOut",
                    "type": "address"
                },
                {
                    "internalType": "uint24",
                    "name": "fee",
                    "type": "uint24"
                },
                {
                    "internalType": "int24",
                    "name": "lowerTick",
                    "type": "int24"
                },
                {
                    "internalType": "int24",
                    "name": "upperTick",
                    "type": "int24"
                },
                {
                    "internalType": "uint256",
                    "name": "amountInDesired",
                    "type": "uint256"
                }
            ],
            "name": "quoteLiqInputToken0",
            "outputs": [
                {
                    "internalType": "uint256",
                    "name": "amount1",
                    "type": "uint256"
                }
            ],
            "stateMutability": "view",
            "type": "function"
        },
        {
            "inputs": [
                {
                    "internalType": "address",
                    "name": "tokenIn",
                    "type": "address"
                },
                {
                    "internalType": "address",
                    "name": "tokenOut",
                    "type": "address"
                },
                {
                    "internalType": "uint24",
                    "name": "fee",
                    "type": "uint24"
                },
                {
                    "internalType": "int24",
                    "name": "lowerTick",
                    "type": "int24"
                },
                {
                    "internalType": "int24",
                    "name": "upperTick",
                    "type": "int24"
                },
                {
                    "internalType": "uint256",
                    "name": "amountInDesired",
                    "type": "uint256"
                }
            ],
            "name": "quoteLiqInputToken1",
            "outputs": [
                {
                    "internalType": "uint256",
                    "name": "amount0",
                    "type": "uint256"
                }
            ],
            "stateMutability": "view",
            "type": "function"
        },
        {
            "inputs": [
                {
                    "internalType": "bytes",
                    "name": "path",
                    "type": "bytes"
                },
                {
                    "internalType": "uint256",
                    "name": "amountIn",
                    "type": "uint256"
                }
            ],
            "name": "quoteMulti",
            "outputs": [
                {
                    "internalType": "uint256",
                    "name": "amountOut",
                    "type": "uint256"
                },
                {
                    "internalType": "uint160[]",
                    "name": "sqrtPriceX96AfterList",
                    "type": "uint160[]"
                },
                {
                    "internalType": "int24[]",
                    "name": "tickAfterList",
                    "type": "int24[]"
                }
            ],
            "stateMutability": "nonpayable",
            "type": "function"
        },
        {
            "inputs": [
                {
                    "internalType": "address",
                    "name": "tokenIn",
                    "type": "address"
                },
                {
                    "internalType": "address",
                    "name": "tokenOut",
                    "type": "address"
                },
                {
                    "internalType": "uint24",
                    "name": "fee",
                    "type": "uint24"
                },
                {
                    "internalType": "uint256",
                    "name": "amountIn",
                    "type": "uint256"
                },
                {
                    "internalType": "uint160",
                    "name": "sqrtPriceLimitX96",
                    "type": "uint160"
                }
            ],
            "name": "quoteSingle",
            "outputs": [
                {
                    "internalType": "uint256",
                    "name": "amountOut",
                    "type": "uint256"
                },
                {
                    "internalType": "uint160",
                    "name": "sqrtPriceX96After",
                    "type": "uint160"
                },
                {
                    "internalType": "int24",
                    "name": "tickAfter",
                    "type": "int24"
                }
            ],
            "stateMutability": "nonpayable",
            "type": "function"
        },
        {
            "inputs": [
                {
                    "internalType": "int256",
                    "name": "amount0Delta",
                    "type": "int256"
                },
                {
                    "internalType": "int256",
                    "name": "amount1Delta",
                    "type": "int256"
                },
                {
                    "internalType": "bytes",
                    "name": "data",
                    "type": "bytes"
                }
            ],
            "name": "uniswapV3SwapCallback",
            "outputs": [],
            "stateMutability": "view",
            "type": "function"
        }
    ],
    "bytecode": "60a060405234801561001057600080fd5b50604051611bd8380380611bd883398101604081905261002f91610055565b6001600160a01b03166080819052600080546001600160a01b0319169091179055610085565b60006020828403121561006757600080fd5b81516001600160a01b038116811461007e57600080fd5b9392505050565b608051611b2b6100ad600039600081816097015281816102e301526107610152611b2b6000f3fe608060405234801561001057600080fd5b50600436106100625760003560e01c8063260a5b0314610067578063c45a015514610092578063cbe76c3c146100d1578063e95dbb69146100f2578063f898a0681461012b578063fa461e331461013e575b600080fd5b61007a610075366004611500565b610153565b60405161008993929190611545565b60405180910390f35b6100b97f000000000000000000000000000000000000000000000000000000000000000081565b6040516001600160a01b039091168152602001610089565b6100e46100df366004611616565b6102cc565b604051908152602001610089565b61010561010036600461168d565b610470565b604080519384526001600160a01b03909216602084015260020b90820152606001610089565b6100e4610139366004611616565b61074a565b61015161014c3660046116f3565b6108f0565b005b6000606080610161856109ad565b67ffffffffffffffff8111156101795761017961145d565b6040519080825280602002602001820160405280156101a2578160200160208202803683370190505b5091506101ae856109ad565b67ffffffffffffffff8111156101c6576101c661145d565b6040519080825280602002602001820160405280156101ef578160200160208202803683370190505b50905060005b6000806000610203896109d9565b925092509250600080600061021c8686868e6000610470565b9250925092508189888151811061023557610235611743565b60200260200101906001600160a01b031690816001600160a01b0316815250508088888151811061026857610268611743565b602002602001019060020b908160020b81525050829a50868061028a9061176f565b9750506102968c610a15565b156102ab576102a48c610a4f565b9b506102b9565b8a99505050505050506102c4565b5050505050506101f5565b509250925092565b604051631c9956ed60e31b81526001600160a01b037f00000000000000000000000000000000000000000000000000000000000000008116600483015280881660248301528616604482015262ffffff851660648201526000908190739828dc171e405abf5282769f90461a6e284fa5839063e4cab76890608401602060405180830381865af4158015610364573d6000803e3d6000fd5b505050506040513d601f19601f820116820180604052508101906103889190611788565b9050600080826001600160a01b0316633850c7bd6040518163ffffffff1660e01b815260040160a060405180830381865afa1580156103cb573d6000803e3d6000fd5b505050506040513d601f19601f820116820180604052508101906103ef91906117b7565b505050915091508560020b8160020b12801561041057508660020b8160020b135b156104635761042d826001600160a01b031686600160601b610a80565b935060006104488888858961044360028b611905565b610acb565b905061045f61045689610af4565b84836000610f16565b9450505b5050509695505050505050565b6000805460405163175c1b2360e31b81526001600160a01b038881166004830152878116602483015262ffffff871660448301528392839283929091169063bae0d91890606401602060405180830381865afa1580156104d4573d6000803e3d6000fd5b505050506040513d601f19601f820116820180604052508101906104f89190611788565b90506000886001600160a01b03168a6001600160a01b0316109050816001600160a01b031663dd5a12d830838a8a6001600160a01b031660001461053c578a610575565b8561056557610560600173fffd8963efd1fc6a506488495d951d5263988d26611914565b610575565b6105756401000276a3600161193b565b604080516001600160a01b038a166020820152016040516020818303038152906040526040518663ffffffff1660e01b81526004016105b895949392919061195b565b60408051808303816000875af19250505080156105f2575060408051601f3d908101601f191682019092526105ef918101906119d5565b60015b61073a573d808015610620576040519150601f19603f3d011682016040523d82523d6000602084013e610625565b606091505b50805160208083019190912060408051600481526024810190915291820180516001600160e01b0316632d4eeeb360e21b17815291519091208190036106a65760405162461bcd60e51b8152602060048201526011602482015270125b9d985b1a59141c9a58d9531a5b5a5d607a1b60448201526064015b60405180910390fd5b6040805160048152602481019091526020810180516001600160e01b0316634323a55560e01b178152905190208190036107175760405162461bcd60e51b81526020600482015260126024820152714e6f74456e6f7567684c697175696469747960701b604482015260640161069d565b8180602001905181019061072b91906119f9565b9650965096505050505061073f565b505050505b955095509592505050565b604051631c9956ed60e31b81526001600160a01b037f00000000000000000000000000000000000000000000000000000000000000008116600483015280881660248301528616604482015262ffffff851660648201526000908190739828dc171e405abf5282769f90461a6e284fa5839063e4cab76890608401602060405180830381865af41580156107e2573d6000803e3d6000fd5b505050506040513d601f19601f820116820180604052508101906108069190611788565b9050600080826001600160a01b0316633850c7bd6040518163ffffffff1660e01b815260040160a060405180830381865afa158015610849573d6000803e3d6000fd5b505050506040513d601f19601f8201168201806040525081019061086d91906117b7565b505050915091508560020b8160020b12801561088e57508660020b8160020b135b1561046357600160601b6001600160a01b038316046bffffffffffffffffffffffff8316151501808606151590860401935060006108d98888856108d360028a611905565b8a610acb565b905061045f836108e889610af4565b836000610fa0565b6000818060200190518101906109069190611788565b9050600080851361091f5761091a85611a3c565b610928565b61092884611a3c565b9050600080836001600160a01b0316633850c7bd6040518163ffffffff1660e01b815260040160a060405180830381865afa15801561096b573d6000803e3d6000fd5b505050506040513d601f19601f8201168201806040525081019061098f91906117b7565b50505091509150604051838152826020820152816040820152606081fd5b60006109bb60036014611a58565b601483516109c99190611a6b565b6109d39190611a94565b92915050565b600080806109e78482611075565b92506109f48460146110da565b9050610a0c610a0560036014611a58565b8590611075565b91509193909250565b6000610a2360036014611a58565b6014610a30600382611a58565b610a3a9190611a58565b610a449190611a58565b825110159050919050565b60606109d3610a6060036014611a58565b610a6c60036014611a58565b8451610a789190611a6b565b849190611137565b6000610a8d848484611244565b905060008280610a9f57610a9f611a7e565b8486091115610ac4576000198110610ab657600080fd5b80610ac08161176f565b9150505b9392505050565b6000610aea84610ada88610af4565b610ae388610af4565b8686611311565b9695505050505050565b60008060008360020b12610b0b578260020b610b18565b8260020b610b1890611a3c565b9050610b27620d89e719611aa8565b62ffffff16811115610b5f5760405162461bcd60e51b81526020600482015260016024820152601560fa1b604482015260640161069d565b600081600116600003610b7657600160801b610b88565b6ffffcb933bd6fad37aa2d162d1a5940015b70ffffffffffffffffffffffffffffffffff1690506002821615610bc7576080610bc2826ffff97272373d413259a46990580e213a611aca565b901c90505b6004821615610bf1576080610bec826ffff2e50f5f656932ef12357cf3c7fdcc611aca565b901c90505b6008821615610c1b576080610c16826fffe5caca7e10e4e61c3624eaa0941cd0611aca565b901c90505b6010821615610c45576080610c40826fffcb9843d60f6159c9db58835c926644611aca565b901c90505b6020821615610c6f576080610c6a826fff973b41fa98c081472e6896dfb254c0611aca565b901c90505b6040821615610c99576080610c94826fff2ea16466c96a3843ec78b326b52861611aca565b901c90505b6080821615610cc3576080610cbe826ffe5dee046a99a2a811c461f1969c3053611aca565b901c90505b610100821615610cee576080610ce9826ffcbe86c7900a88aedcffc83b479aa3a4611aca565b901c90505b610200821615610d19576080610d14826ff987a7253ac413176f2b074cf7815e54611aca565b901c90505b610400821615610d44576080610d3f826ff3392b0822b70005940c7a398e4b70f3611aca565b901c90505b610800821615610d6f576080610d6a826fe7159475a2c29b7443b29c7fa6e889d9611aca565b901c90505b611000821615610d9a576080610d95826fd097f3bdfd2022b8845ad8f792aa5825611aca565b901c90505b612000821615610dc5576080610dc0826fa9f746462d870fdf8a65dc1f90e061e5611aca565b901c90505b614000821615610df0576080610deb826f70d869a156d2a1b890bb3df62baf32f7611aca565b901c90505b618000821615610e1b576080610e16826f31be135f97d08fd981231505542fcfa6611aca565b901c90505b62010000821615610e47576080610e42826f09aa508b5b7a84e1c677de54f3e99bc9611aca565b901c90505b62020000821615610e72576080610e6d826e5d6af8dedb81196699c329225ee604611aca565b901c90505b62040000821615610e9c576080610e97826d2216e584f5fa1ea926041bedfe98611aca565b901c90505b62080000821615610ec4576080610ebf826b048a170391f7dc42444e8fa2611aca565b901c90505b60008460020b1315610edf57610edc81600019611a94565b90505b610eee64010000000082611ae1565b15610efa576001610efd565b60005b610f0e9060ff16602083901c611a58565b949350505050565b6000836001600160a01b0316856001600160a01b03161115610f36579293925b8115610f6d57610f666001600160801b038416610f538787611914565b6001600160a01b0316600160601b610a80565b9050610f0e565b610f976001600160801b038416610f848787611914565b6001600160a01b0316600160601b611244565b95945050505050565b6000836001600160a01b0316856001600160a01b03161115610fc0579293925b6000856001600160a01b031611610fd657600080fd5b6fffffffffffffffffffffffffffffffff60601b606084901b166000610ffc8787611914565b6001600160a01b031690508315611040576110396110248383896001600160a01b0316610a80565b886001600160a01b0316808204910615150190565b925061106b565b866001600160a01b031661105e8383896001600160a01b0316611244565b6110689190611a94565b92505b5050949350505050565b6000611082826014611a58565b835110156110ca5760405162461bcd60e51b8152602060048201526015602482015274746f416464726573735f6f75744f66426f756e647360581b604482015260640161069d565b500160200151600160601b900490565b60006110e7826003611a58565b8351101561112e5760405162461bcd60e51b8152602060048201526014602482015273746f55696e7432345f6f75744f66426f756e647360601b604482015260640161069d565b50016003015190565b60608161114581601f611a58565b10156111845760405162461bcd60e51b815260206004820152600e60248201526d736c6963655f6f766572666c6f7760901b604482015260640161069d565b61118e8284611a58565b845110156111d25760405162461bcd60e51b8152602060048201526011602482015270736c6963655f6f75744f66426f756e647360781b604482015260640161069d565b6060821580156111f1576040519150600082526020820160405261123b565b6040519150601f8416801560200281840101858101878315602002848b0101015b8183101561122a578051835260209283019201611212565b5050858452601f01601f1916604052505b50949350505050565b600080806000198587098587029250828110838203039150508060000361127e5783828161127457611274611a7e565b0492505050610ac4565b8381106112a857604051631dcf306360e21b8152600481018290526024810185905260440161069d565b60008486880960026001871981018816978890046003810283188082028403028082028403028082028403028082028403028082028403029081029092039091026000889003889004909101858311909403939093029303949094049190911702949350505050565b6000836001600160a01b0316856001600160a01b03161115611331579293925b846001600160a01b0316866001600160a01b03161161135c576113558585856113c8565b9050610f97565b836001600160a01b0316866001600160a01b0316116113bd5760006113828786866113c8565b9050600061139187898661142a565b9050806001600160801b0316826001600160801b0316106113b257806113b4565b815b92505050610f97565b610aea85858461142a565b6000826001600160a01b0316846001600160a01b031611156113e8579192915b600061140b856001600160a01b0316856001600160a01b0316600160601b611244565b9050610ac0838261141c8888611914565b6001600160a01b0316611244565b6000826001600160a01b0316846001600160a01b0316111561144a579192915b610f0e82600160601b61141c8787611914565b634e487b7160e01b600052604160045260246000fd5b600082601f83011261148457600080fd5b813567ffffffffffffffff8082111561149f5761149f61145d565b604051601f8301601f19908116603f011681019082821181831017156114c7576114c761145d565b816040528381528660208588010111156114e057600080fd5b836020870160208301376000602085830101528094505050505092915050565b6000806040838503121561151357600080fd5b823567ffffffffffffffff81111561152a57600080fd5b61153685828601611473565b95602094909401359450505050565b6000606082018583526020606081850152818651808452608086019150828801935060005b8181101561158f5784516001600160a01b03168352938301939183019160010161156a565b50508481036040860152855180825290820192508186019060005b818110156115c957825160020b855293830193918301916001016115aa565b509298975050505050505050565b6001600160a01b03811681146115ec57600080fd5b50565b803562ffffff8116811461160257600080fd5b919050565b8060020b81146115ec57600080fd5b60008060008060008060c0878903121561162f57600080fd5b863561163a816115d7565b9550602087013561164a816115d7565b9450611658604088016115ef565b9350606087013561166881611607565b9250608087013561167881611607565b8092505060a087013590509295509295509295565b600080600080600060a086880312156116a557600080fd5b85356116b0816115d7565b945060208601356116c0816115d7565b93506116ce604087016115ef565b92506060860135915060808601356116e5816115d7565b809150509295509295909350565b60008060006060848603121561170857600080fd5b8335925060208401359150604084013567ffffffffffffffff81111561172d57600080fd5b61173986828701611473565b9150509250925092565b634e487b7160e01b600052603260045260246000fd5b634e487b7160e01b600052601160045260246000fd5b60006001820161178157611781611759565b5060010190565b60006020828403121561179a57600080fd5b8151610ac4816115d7565b805161ffff8116811461160257600080fd5b600080600080600060a086880312156117cf57600080fd5b85516117da816115d7565b60208701519095506117eb81611607565b93506117f9604087016117a5565b9250611807606087016117a5565b9150611815608087016117a5565b90509295509295909350565b600181815b8085111561185c57816000190482111561184257611842611759565b8085161561184f57918102915b93841c9390800290611826565b509250929050565b600082611873575060016109d3565b81611880575060006109d3565b816001811461189657600281146118a0576118bc565b60019150506109d3565b60ff8411156118b1576118b1611759565b50506001821b6109d3565b5060208310610133831016604e8410600b84101617156118df575081810a6109d3565b6118e98383611821565b80600019048211156118fd576118fd611759565b029392505050565b6000610ac460ff841683611864565b6001600160a01b0382811682821603908082111561193457611934611759565b5092915050565b6001600160a01b0381811683821601908082111561193457611934611759565b600060018060a01b038088168352602087151581850152866040850152818616606085015260a06080850152845191508160a085015260005b828110156119b05785810182015185820160c001528101611994565b5050600060c0828501015260c0601f19601f8301168401019150509695505050505050565b600080604083850312156119e857600080fd5b505080516020909101519092909150565b600080600060608486031215611a0e57600080fd5b835192506020840151611a20816115d7565b6040850151909250611a3181611607565b809150509250925092565b6000600160ff1b8201611a5157611a51611759565b5060000390565b808201808211156109d3576109d3611759565b818103818111156109d3576109d3611759565b634e487b7160e01b600052601260045260246000fd5b600082611aa357611aa3611a7e565b500490565b60008160020b627fffff198103611ac157611ac1611759565b60000392915050565b80820281158282048414176109d3576109d3611759565b600082611af057611af0611a7e565b50069056fea26469706673582212202023e08c202621d838f630c1b5d3fcaa6ef24400dd82f180f37691c196c47d2564736f6c63430008140033",
    "bytecodeSha1": "097cd8f93c264fbff98c2d2fe1b78d35d32079df",
    "compiler": {
        "evm_version": "istanbul",
        "optimizer": {
            "enabled": true,
            "runs": 200
        },
        "version": "0.8.20+commit.a1b79de6"
    },
    "contractName": "Quoter",
    "deployedBytecode": "608060405234801561001057600080fd5b50600436106100625760003560e01c8063260a5b0314610067578063c45a015514610092578063cbe76c3c146100d1578063e95dbb69146100f2578063f898a0681461012b578063fa461e331461013e575b600080fd5b61007a610075366004611500565b610153565b60405161008993929190611545565b60405180910390f35b6100b97f000000000000000000000000000000000000000000000000000000000000000081565b6040516001600160a01b039091168152602001610089565b6100e46100df366004611616565b6102cc565b604051908152602001610089565b61010561010036600461168d565b610470565b604080519384526001600160a01b03909216602084015260020b90820152606001610089565b6100e4610139366004611616565b61074a565b61015161014c3660046116f3565b6108f0565b005b6000606080610161856109ad565b67ffffffffffffffff8111156101795761017961145d565b6040519080825280602002602001820160405280156101a2578160200160208202803683370190505b5091506101ae856109ad565b67ffffffffffffffff8111156101c6576101c661145d565b6040519080825280602002602001820160405280156101ef578160200160208202803683370190505b50905060005b6000806000610203896109d9565b925092509250600080600061021c8686868e6000610470565b9250925092508189888151811061023557610235611743565b60200260200101906001600160a01b031690816001600160a01b0316815250508088888151811061026857610268611743565b602002602001019060020b908160020b81525050829a50868061028a9061176f565b9750506102968c610a15565b156102ab576102a48c610a4f565b9b506102b9565b8a99505050505050506102c4565b5050505050506101f5565b509250925092565b604051631c9956ed60e31b81526001600160a01b037f00000000000000000000000000000000000000000000000000000000000000008116600483015280881660248301528616604482015262ffffff85166064820152600090819073__$0298c9f31864cd8aa139f2173091fa1ee4$__9063e4cab76890608401602060405180830381865af4158015610364573d6000803e3d6000fd5b505050506040513d601f19601f820116820180604052508101906103889190611788565b9050600080826001600160a01b0316633850c7bd6040518163ffffffff1660e01b815260040160a060405180830381865afa1580156103cb573d6000803e3d6000fd5b505050506040513d601f19601f820116820180604052508101906103ef91906117b7565b505050915091508560020b8160020b12801561041057508660020b8160020b135b156104635761042d826001600160a01b031686600160601b610a80565b935060006104488888858961044360028b611905565b610acb565b905061045f61045689610af4565b84836000610f16565b9450505b5050509695505050505050565b6000805460405163175c1b2360e31b81526001600160a01b038881166004830152878116602483015262ffffff871660448301528392839283929091169063bae0d91890606401602060405180830381865afa1580156104d4573d6000803e3d6000fd5b505050506040513d601f19601f820116820180604052508101906104f89190611788565b90506000886001600160a01b03168a6001600160a01b0316109050816001600160a01b031663dd5a12d830838a8a6001600160a01b031660001461053c578a610575565b8561056557610560600173fffd8963efd1fc6a506488495d951d5263988d26611914565b610575565b6105756401000276a3600161193b565b604080516001600160a01b038a166020820152016040516020818303038152906040526040518663ffffffff1660e01b81526004016105b895949392919061195b565b60408051808303816000875af19250505080156105f2575060408051601f3d908101601f191682019092526105ef918101906119d5565b60015b61073a573d808015610620576040519150601f19603f3d011682016040523d82523d6000602084013e610625565b606091505b50805160208083019190912060408051600481526024810190915291820180516001600160e01b0316632d4eeeb360e21b17815291519091208190036106a65760405162461bcd60e51b8152602060048201526011602482015270125b9d985b1a59141c9a58d9531a5b5a5d607a1b60448201526064015b60405180910390fd5b6040805160048152602481019091526020810180516001600160e01b0316634323a55560e01b178152905190208190036107175760405162461bcd60e51b81526020600482015260126024820152714e6f74456e6f7567684c697175696469747960701b604482015260640161069d565b8180602001905181019061072b91906119f9565b9650965096505050505061073f565b505050505b955095509592505050565b604051631c9956ed60e31b81526001600160a01b037f00000000000000000000000000000000000000000000000000000000000000008116600483015280881660248301528616604482015262ffffff85166064820152600090819073__$0298c9f31864cd8aa139f2173091fa1ee4$__9063e4cab76890608401602060405180830381865af41580156107e2573d6000803e3d6000fd5b505050506040513d601f19601f820116820180604052508101906108069190611788565b9050600080826001600160a01b0316633850c7bd6040518163ffffffff1660e01b815260040160a060405180830381865afa158015610849573d6000803e3d6000fd5b505050506040513d601f19601f8201168201806040525081019061086d91906117b7565b505050915091508560020b8160020b12801561088e57508660020b8160020b135b1561046357600160601b6001600160a01b038316046bffffffffffffffffffffffff8316151501808606151590860401935060006108d98888856108d360028a611905565b8a610acb565b905061045f836108e889610af4565b836000610fa0565b6000818060200190518101906109069190611788565b9050600080851361091f5761091a85611a3c565b610928565b61092884611a3c565b9050600080836001600160a01b0316633850c7bd6040518163ffffffff1660e01b815260040160a060405180830381865afa15801561096b573d6000803e3d6000fd5b505050506040513d601f19601f8201168201806040525081019061098f91906117b7565b50505091509150604051838152826020820152816040820152606081fd5b60006109bb60036014611a58565b601483516109c99190611a6b565b6109d39190611a94565b92915050565b600080806109e78482611075565b92506109f48460146110da565b9050610a0c610a0560036014611a58565b8590611075565b91509193909250565b6000610a2360036014611a58565b6014610a30600382611a58565b610a3a9190611a58565b610a449190611a58565b825110159050919050565b60606109d3610a6060036014611a58565b610a6c60036014611a58565b8451610a789190611a6b565b849190611137565b6000610a8d848484611244565b905060008280610a9f57610a9f611a7e565b8486091115610ac4576000198110610ab657600080fd5b80610ac08161176f565b9150505b9392505050565b6000610aea84610ada88610af4565b610ae388610af4565b8686611311565b9695505050505050565b60008060008360020b12610b0b578260020b610b18565b8260020b610b1890611a3c565b9050610b27620d89e719611aa8565b62ffffff16811115610b5f5760405162461bcd60e51b81526020600482015260016024820152601560fa1b604482015260640161069d565b600081600116600003610b7657600160801b610b88565b6ffffcb933bd6fad37aa2d162d1a5940015b70ffffffffffffffffffffffffffffffffff1690506002821615610bc7576080610bc2826ffff97272373d413259a46990580e213a611aca565b901c90505b6004821615610bf1576080610bec826ffff2e50f5f656932ef12357cf3c7fdcc611aca565b901c90505b6008821615610c1b576080610c16826fffe5caca7e10e4e61c3624eaa0941cd0611aca565b901c90505b6010821615610c45576080610c40826fffcb9843d60f6159c9db58835c926644611aca565b901c90505b6020821615610c6f576080610c6a826fff973b41fa98c081472e6896dfb254c0611aca565b901c90505b6040821615610c99576080610c94826fff2ea16466c96a3843ec78b326b52861611aca565b901c90505b6080821615610cc3576080610cbe826ffe5dee046a99a2a811c461f1969c3053611aca565b901c90505b610100821615610cee576080610ce9826ffcbe86c7900a88aedcffc83b479aa3a4611aca565b901c90505b610200821615610d19576080610d14826ff987a7253ac413176f2b074cf7815e54611aca565b901c90505b610400821615610d44576080610d3f826ff3392b0822b70005940c7a398e4b70f3611aca565b901c90505b610800821615610d6f576080610d6a826fe7159475a2c29b7443b29c7fa6e889d9611aca565b901c90505b611000821615610d9a576080610d95826fd097f3bdfd2022b8845ad8f792aa5825611aca565b901c90505b612000821615610dc5576080610dc0826fa9f746462d870fdf8a65dc1f90e061e5611aca565b901c90505b614000821615610df0576080610deb826f70d869a156d2a1b890bb3df62baf32f7611aca565b901c90505b618000821615610e1b576080610e16826f31be135f97d08fd981231505542fcfa6611aca565b901c90505b62010000821615610e47576080610e42826f09aa508b5b7a84e1c677de54f3e99bc9611aca565b901c90505b62020000821615610e72576080610e6d826e5d6af8dedb81196699c329225ee604611aca565b901c90505b62040000821615610e9c576080610e97826d2216e584f5fa1ea926041bedfe98611aca565b901c90505b62080000821615610ec4576080610ebf826b048a170391f7dc42444e8fa2611aca565b901c90505b60008460020b1315610edf57610edc81600019611a94565b90505b610eee64010000000082611ae1565b15610efa576001610efd565b60005b610f0e9060ff16602083901c611a58565b949350505050565b6000836001600160a01b0316856001600160a01b03161115610f36579293925b8115610f6d57610f666001600160801b038416610f538787611914565b6001600160a01b0316600160601b610a80565b9050610f0e565b610f976001600160801b038416610f848787611914565b6001600160a01b0316600160601b611244565b95945050505050565b6000836001600160a01b0316856001600160a01b03161115610fc0579293925b6000856001600160a01b031611610fd657600080fd5b6fffffffffffffffffffffffffffffffff60601b606084901b166000610ffc8787611914565b6001600160a01b031690508315611040576110396110248383896001600160a01b0316610a80565b886001600160a01b0316808204910615150190565b925061106b565b866001600160a01b031661105e8383896001600160a01b0316611244565b6110689190611a94565b92505b5050949350505050565b6000611082826014611a58565b835110156110ca5760405162461bcd60e51b8152602060048201526015602482015274746f416464726573735f6f75744f66426f756e647360581b604482015260640161069d565b500160200151600160601b900490565b60006110e7826003611a58565b8351101561112e5760405162461bcd60e51b8152602060048201526014602482015273746f55696e7432345f6f75744f66426f756e647360601b604482015260640161069d565b50016003015190565b60608161114581601f611a58565b10156111845760405162461bcd60e51b815260206004820152600e60248201526d736c6963655f6f766572666c6f7760901b604482015260640161069d565b61118e8284611a58565b845110156111d25760405162461bcd60e51b8152602060048201526011602482015270736c6963655f6f75744f66426f756e647360781b604482015260640161069d565b6060821580156111f1576040519150600082526020820160405261123b565b6040519150601f8416801560200281840101858101878315602002848b0101015b8183101561122a578051835260209283019201611212565b5050858452601f01601f1916604052505b50949350505050565b600080806000198587098587029250828110838203039150508060000361127e5783828161127457611274611a7e565b0492505050610ac4565b8381106112a857604051631dcf306360e21b8152600481018290526024810185905260440161069d565b60008486880960026001871981018816978890046003810283188082028403028082028403028082028403028082028403028082028403029081029092039091026000889003889004909101858311909403939093029303949094049190911702949350505050565b6000836001600160a01b0316856001600160a01b03161115611331579293925b846001600160a01b0316866001600160a01b03161161135c576113558585856113c8565b9050610f97565b836001600160a01b0316866001600160a01b0316116113bd5760006113828786866113c8565b9050600061139187898661142a565b9050806001600160801b0316826001600160801b0316106113b257806113b4565b815b92505050610f97565b610aea85858461142a565b6000826001600160a01b0316846001600160a01b031611156113e8579192915b600061140b856001600160a01b0316856001600160a01b0316600160601b611244565b9050610ac0838261141c8888611914565b6001600160a01b0316611244565b6000826001600160a01b0316846001600160a01b0316111561144a579192915b610f0e82600160601b61141c8787611914565b634e487b7160e01b600052604160045260246000fd5b600082601f83011261148457600080fd5b813567ffffffffffffffff8082111561149f5761149f61145d565b604051601f8301601f19908116603f011681019082821181831017156114c7576114c761145d565b816040528381528660208588010111156114e057600080fd5b836020870160208301376000602085830101528094505050505092915050565b6000806040838503121561151357600080fd5b823567ffffffffffffffff81111561152a57600080fd5b61153685828601611473565b95602094909401359450505050565b6000606082018583526020606081850152818651808452608086019150828801935060005b8181101561158f5784516001600160a01b03168352938301939183019160010161156a565b50508481036040860152855180825290820192508186019060005b818110156115c957825160020b855293830193918301916001016115aa565b509298975050505050505050565b6001600160a01b03811681146115ec57600080fd5b50565b803562ffffff8116811461160257600080fd5b919050565b8060020b81146115ec57600080fd5b60008060008060008060c0878903121561162f57600080fd5b863561163a816115d7565b9550602087013561164a816115d7565b9450611658604088016115ef565b9350606087013561166881611607565b9250608087013561167881611607565b8092505060a087013590509295509295509295565b600080600080600060a086880312156116a557600080fd5b85356116b0816115d7565b945060208601356116c0816115d7565b93506116ce604087016115ef565b92506060860135915060808601356116e5816115d7565b809150509295509295909350565b60008060006060848603121561170857600080fd5b8335925060208401359150604084013567ffffffffffffffff81111561172d57600080fd5b61173986828701611473565b9150509250925092565b634e487b7160e01b600052603260045260246000fd5b634e487b7160e01b600052601160045260246000fd5b60006001820161178157611781611759565b5060010190565b60006020828403121561179a57600080fd5b8151610ac4816115d7565b805161ffff8116811461160257600080fd5b600080600080600060a086880312156117cf57600080fd5b85516117da816115d7565b60208701519095506117eb81611607565b93506117f9604087016117a5565b9250611807606087016117a5565b9150611815608087016117a5565b90509295509295909350565b600181815b8085111561185c57816000190482111561184257611842611759565b8085161561184f57918102915b93841c9390800290611826565b509250929050565b600082611873575060016109d3565b81611880575060006109d3565b816001811461189657600281146118a0576118bc565b60019150506109d3565b60ff8411156118b1576118b1611759565b50506001821b6109d3565b5060208310610133831016604e8410600b84101617156118df575081810a6109d3565b6118e98383611821565b80600019048211156118fd576118fd611759565b029392505050565b6000610ac460ff841683611864565b6001600160a01b0382811682821603908082111561193457611934611759565b5092915050565b6001600160a01b0381811683821601908082111561193457611934611759565b600060018060a01b038088168352602087151581850152866040850152818616606085015260a06080850152845191508160a085015260005b828110156119b05785810182015185820160c001528101611994565b5050600060c0828501015260c0601f19601f8301168401019150509695505050505050565b600080604083850312156119e857600080fd5b505080516020909101519092909150565b600080600060608486031215611a0e57600080fd5b835192506020840151611a20816115d7565b6040850151909250611a3181611607565b809150509250925092565b6000600160ff1b8201611a5157611a51611759565b5060000390565b808201808211156109d3576109d3611759565b818103818111156109d3576109d3611759565b634e487b7160e01b600052601260045260246000fd5b600082611aa357611aa3611a7e565b500490565b60008160020b627fffff198103611ac157611ac1611759565b60000392915050565b80820281158282048414176109d3576109d3611759565b600082611af057611af0611a7e565b50069056fea26469706673582212202023e08c202621d838f630c1b5d3fcaa6ef24400dd82f180f37691c196c47d2564736f6c63430008140033",
    "language": "Solidity",
    "natspec": {
        "errors": {
            "PRBMath__MulDivOverflow(uint256,uint256)": [
                {
                    "notice": "Emitted when the result overflows uint256."
                }
            ]
        },
        "kind": "dev",
        "methods": {},
        "version": 1
    },
    "opcodes": "PUSH1 0x80 PUSH1 0x40 MSTORE CALLVALUE DUP1 ISZERO PUSH2 0x10 JUMPI PUSH1 0x0 DUP1 REVERT JUMPDEST POP PUSH1 0x4 CALLDATASIZE LT PUSH2 0x62 JUMPI PUSH1 0x0 CALLDATALOAD PUSH1 0xE0 SHR DUP1 PUSH4 0x260A5B03 EQ PUSH2 0x67 JUMPI DUP1 PUSH4 0xC45A0155 EQ PUSH2 0x92 JUMPI DUP1 PUSH4 0xCBE76C3C EQ PUSH2 0xD1 JUMPI DUP1 PUSH4 0xE95DBB69 EQ PUSH2 0xF2 JUMPI DUP1 PUSH4 0xF898A068 EQ PUSH2 0x12B JUMPI DUP1 PUSH4 0xFA461E33 EQ PUSH2 0x13E JUMPI JUMPDEST PUSH1 0x0 DUP1 REVERT JUMPDEST PUSH2 0x7A PUSH2 0x75 CALLDATASIZE PUSH1 0x4 PUSH2 0x1500 JUMP JUMPDEST PUSH2 0x153 JUMP JUMPDEST PUSH1 0x40 MLOAD PUSH2 0x89 SWAP4 SWAP3 SWAP2 SWAP1 PUSH2 0x1545 JUMP JUMPDEST PUSH1 0x40 MLOAD DUP1 SWAP2 SUB SWAP1 RETURN JUMPDEST PUSH2 0xB9 PUSH32 0x0 DUP2 JUMP JUMPDEST PUSH1 0x40 MLOAD PUSH1 0x1 PUSH1 0x1 PUSH1 0xA0 SHL SUB SWAP1 SWAP2 AND DUP2 MSTORE PUSH1 0x20 ADD PUSH2 0x89 JUMP JUMPDEST PUSH2 0xE4 PUSH2 0xDF CALLDATASIZE PUSH1 0x4 PUSH2 0x1616 JUMP JUMPDEST PUSH2 0x2CC JUMP JUMPDEST PUSH1 0x40 MLOAD SWAP1 DUP2 MSTORE PUSH1 0x20 ADD PUSH2 0x89 JUMP JUMPDEST PUSH2 0x105 PUSH2 0x100 CALLDATASIZE PUSH1 0x4 PUSH2 0x168D JUMP JUMPDEST PUSH2 0x470 JUMP JUMPDEST PUSH1 0x40 DUP1 MLOAD SWAP4 DUP5 MSTORE PUSH1 0x1 PUSH1 0x1 PUSH1 0xA0 SHL SUB SWAP1 SWAP3 AND PUSH1 0x20 DUP5 ADD MSTORE PUSH1 0x2 SIGNEXTEND SWAP1 DUP3 ADD MSTORE PUSH1 0x60 ADD PUSH2 0x89 JUMP JUMPDEST PUSH2 0xE4 PUSH2 0x139 CALLDATASIZE PUSH1 0x4 PUSH2 0x1616 JUMP JUMPDEST PUSH2 0x74A JUMP JUMPDEST PUSH2 0x151 PUSH2 0x14C CALLDATASIZE PUSH1 0x4 PUSH2 0x16F3 JUMP JUMPDEST PUSH2 0x8F0 JUMP JUMPDEST STOP JUMPDEST PUSH1 0x0 PUSH1 0x60 DUP1 PUSH2 0x161 DUP6 PUSH2 0x9AD JUMP JUMPDEST PUSH8 0xFFFFFFFFFFFFFFFF DUP2 GT ISZERO PUSH2 0x179 JUMPI PUSH2 0x179 PUSH2 0x145D JUMP JUMPDEST PUSH1 0x40 MLOAD SWAP1 DUP1 DUP3 MSTORE DUP1 PUSH1 0x20 MUL PUSH1 0x20 ADD DUP3 ADD PUSH1 0x40 MSTORE DUP1 ISZERO PUSH2 0x1A2 JUMPI DUP2 PUSH1 0x20 ADD PUSH1 0x20 DUP3 MUL DUP1 CALLDATASIZE DUP4 CALLDATACOPY ADD SWAP1 POP JUMPDEST POP SWAP2 POP PUSH2 0x1AE DUP6 PUSH2 0x9AD JUMP JUMPDEST PUSH8 0xFFFFFFFFFFFFFFFF DUP2 GT ISZERO PUSH2 0x1C6 JUMPI PUSH2 0x1C6 PUSH2 0x145D JUMP JUMPDEST PUSH1 0x40 MLOAD SWAP1 DUP1 DUP3 MSTORE DUP1 PUSH1 0x20 MUL PUSH1 0x20 ADD DUP3 ADD PUSH1 0x40 MSTORE DUP1 ISZERO PUSH2 0x1EF JUMPI DUP2 PUSH1 0x20 ADD PUSH1 0x20 DUP3 MUL DUP1 CALLDATASIZE DUP4 CALLDATACOPY ADD SWAP1 POP JUMPDEST POP SWAP1 POP PUSH1 0x0 JUMPDEST PUSH1 0x0 DUP1 PUSH1 0x0 PUSH2 0x203 DUP10 PUSH2 0x9D9 JUMP JUMPDEST SWAP3 POP SWAP3 POP SWAP3 POP PUSH1 0x0 DUP1 PUSH1 0x0 PUSH2 0x21C DUP7 DUP7 DUP7 DUP15 PUSH1 0x0 PUSH2 0x470 JUMP JUMPDEST SWAP3 POP SWAP3 POP SWAP3 POP DUP2 DUP10 DUP9 DUP2 MLOAD DUP2 LT PUSH2 0x235 JUMPI PUSH2 0x235 PUSH2 0x1743 JUMP JUMPDEST PUSH1 0x20 MUL PUSH1 0x20 ADD ADD SWAP1 PUSH1 0x1 PUSH1 0x1 PUSH1 0xA0 SHL SUB AND SWAP1 DUP2 PUSH1 0x1 PUSH1 0x1 PUSH1 0xA0 SHL SUB AND DUP2 MSTORE POP POP DUP1 DUP9 DUP9 DUP2 MLOAD DUP2 LT PUSH2 0x268 JUMPI PUSH2 0x268 PUSH2 0x1743 JUMP JUMPDEST PUSH1 0x20 MUL PUSH1 0x20 ADD ADD SWAP1 PUSH1 0x2 SIGNEXTEND SWAP1 DUP2 PUSH1 0x2 SIGNEXTEND DUP2 MSTORE POP POP DUP3 SWAP11 POP DUP7 DUP1 PUSH2 0x28A SWAP1 PUSH2 0x176F JUMP JUMPDEST SWAP8 POP POP PUSH2 0x296 DUP13 PUSH2 0xA15 JUMP JUMPDEST ISZERO PUSH2 0x2AB JUMPI PUSH2 0x2A4 DUP13 PUSH2 0xA4F JUMP JUMPDEST SWAP12 POP PUSH2 0x2B9 JUMP JUMPDEST DUP11 SWAP10 POP POP POP POP POP POP POP PUSH2 0x2C4 JUMP JUMPDEST POP POP POP POP POP POP PUSH2 0x1F5 JUMP JUMPDEST POP SWAP3 POP SWAP3 POP SWAP3 JUMP JUMPDEST PUSH1 0x40 MLOAD PUSH4 0x1C9956ED PUSH1 0xE3 SHL DUP2 MSTORE PUSH1 0x1 PUSH1 0x1 PUSH1 0xA0 SHL SUB PUSH32 0x0 DUP2 AND PUSH1 0x4 DUP4 ADD MSTORE DUP1 DUP9 AND PUSH1 0x24 DUP4 ADD MSTORE DUP7 AND PUSH1 0x44 DUP3 ADD MSTORE PUSH3 0xFFFFFF DUP6 AND PUSH1 0x64 DUP3 ADD MSTORE PUSH1 0x0 SWAP1 DUP2 SWAP1 PUSH20 0x0 SWAP1 PUSH4 0xE4CAB768 SWAP1 PUSH1 0x84 ADD PUSH1 0x20 PUSH1 0x40 MLOAD DUP1 DUP4 SUB DUP2 DUP7 GAS DELEGATECALL ISZERO DUP1 ISZERO PUSH2 0x364 JUMPI RETURNDATASIZE PUSH1 0x0 DUP1 RETURNDATACOPY RETURNDATASIZE PUSH1 0x0 REVERT JUMPDEST POP POP POP POP PUSH1 0x40 MLOAD RETURNDATASIZE PUSH1 0x1F NOT PUSH1 0x1F DUP3 ADD AND DUP3 ADD DUP1 PUSH1 0x40 MSTORE POP DUP2 ADD SWAP1 PUSH2 0x388 SWAP2 SWAP1 PUSH2 0x1788 JUMP JUMPDEST SWAP1 POP PUSH1 0x0 DUP1 DUP3 PUSH1 0x1 PUSH1 0x1 PUSH1 0xA0 SHL SUB AND PUSH4 0x3850C7BD PUSH1 0x40 MLOAD DUP2 PUSH4 0xFFFFFFFF AND PUSH1 0xE0 SHL DUP2 MSTORE PUSH1 0x4 ADD PUSH1 0xA0 PUSH1 0x40 MLOAD DUP1 DUP4 SUB DUP2 DUP7 GAS STATICCALL ISZERO DUP1 ISZERO PUSH2 0x3CB JUMPI RETURNDATASIZE PUSH1 0x0 DUP1 RETURNDATACOPY RETURNDATASIZE PUSH1 0x0 REVERT JUMPDEST POP POP POP POP PUSH1 0x40 MLOAD RETURNDATASIZE PUSH1 0x1F NOT PUSH1 0x1F DUP3 ADD AND DUP3 ADD DUP1 PUSH1 0x40 MSTORE POP DUP2 ADD SWAP1 PUSH2 0x3EF SWAP2 SWAP1 PUSH2 0x17B7 JUMP JUMPDEST POP POP POP SWAP2 POP SWAP2 POP DUP6 PUSH1 0x2 SIGNEXTEND DUP2 PUSH1 0x2 SIGNEXTEND SLT DUP1 ISZERO PUSH2 0x410 JUMPI POP DUP7 PUSH1 0x2 SIGNEXTEND DUP2 PUSH1 0x2 SIGNEXTEND SGT JUMPDEST ISZERO PUSH2 0x463 JUMPI PUSH2 0x42D DUP3 PUSH1 0x1 PUSH1 0x1 PUSH1 0xA0 SHL SUB AND DUP7 PUSH1 0x1 PUSH1 0x60 SHL PUSH2 0xA80 JUMP JUMPDEST SWAP4 POP PUSH1 0x0 PUSH2 0x448 DUP9 DUP9 DUP6 DUP10 PUSH2 0x443 PUSH1 0x2 DUP12 PUSH2 0x1905 JUMP JUMPDEST PUSH2 0xACB JUMP JUMPDEST SWAP1 POP PUSH2 0x45F PUSH2 0x456 DUP10 PUSH2 0xAF4 JUMP JUMPDEST DUP5 DUP4 PUSH1 0x0 PUSH2 0xF16 JUMP JUMPDEST SWAP5 POP POP JUMPDEST POP POP POP SWAP7 SWAP6 POP POP POP POP POP POP JUMP JUMPDEST PUSH1 0x0 DUP1 SLOAD PUSH1 0x40 MLOAD PUSH4 0x175C1B23 PUSH1 0xE3 SHL DUP2 MSTORE PUSH1 0x1 PUSH1 0x1 PUSH1 0xA0 SHL SUB DUP9 DUP2 AND PUSH1 0x4 DUP4 ADD MSTORE DUP8 DUP2 AND PUSH1 0x24 DUP4 ADD MSTORE PUSH3 0xFFFFFF DUP8 AND PUSH1 0x44 DUP4 ADD MSTORE DUP4 SWAP3 DUP4 SWAP3 DUP4 SWAP3 SWAP1 SWAP2 AND SWAP1 PUSH4 0xBAE0D918 SWAP1 PUSH1 0x64 ADD PUSH1 0x20 PUSH1 0x40 MLOAD DUP1 DUP4 SUB DUP2 DUP7 GAS STATICCALL ISZERO DUP1 ISZERO PUSH2 0x4D4 JUMPI RETURNDATASIZE PUSH1 0x0 DUP1 RETURNDATACOPY RETURNDATASIZE PUSH1 0x0 REVERT JUMPDEST POP POP POP POP PUSH1 0x40 MLOAD RETURNDATASIZE PUSH1 0x1F NOT PUSH1 0x1F DUP3 ADD AND DUP3 ADD DUP1 PUSH1 0x40 MSTORE POP DUP2 ADD SWAP1 PUSH2 0x4F8 SWAP2 SWAP1 PUSH2 0x1788 JUMP JUMPDEST SWAP1 POP PUSH1 0x0 DUP9 PUSH1 0x1 PUSH1 0x1 PUSH1 0xA0 SHL SUB AND DUP11 PUSH1 0x1 PUSH1 0x1 PUSH1 0xA0 SHL SUB AND LT SWAP1 POP DUP2 PUSH1 0x1 PUSH1 0x1 PUSH1 0xA0 SHL SUB AND PUSH4 0xDD5A12D8 ADDRESS DUP4 DUP11 DUP11 PUSH1 0x1 PUSH1 0x1 PUSH1 0xA0 SHL SUB AND PUSH1 0x0 EQ PUSH2 0x53C JUMPI DUP11 PUSH2 0x575 JUMP JUMPDEST DUP6 PUSH2 0x565 JUMPI PUSH2 0x560 PUSH1 0x1 PUSH20 0xFFFD8963EFD1FC6A506488495D951D5263988D26 PUSH2 0x1914 JUMP JUMPDEST PUSH2 0x575 JUMP JUMPDEST PUSH2 0x575 PUSH5 0x1000276A3 PUSH1 0x1 PUSH2 0x193B JUMP JUMPDEST PUSH1 0x40 DUP1 MLOAD PUSH1 0x1 PUSH1 0x1 PUSH1 0xA0 SHL SUB DUP11 AND PUSH1 0x20 DUP3 ADD MSTORE ADD PUSH1 0x40 MLOAD PUSH1 0x20 DUP2 DUP4 SUB SUB DUP2 MSTORE SWAP1 PUSH1 0x40 MSTORE PUSH1 0x40 MLOAD DUP7 PUSH4 0xFFFFFFFF AND PUSH1 0xE0 SHL DUP2 MSTORE PUSH1 0x4 ADD PUSH2 0x5B8 SWAP6 SWAP5 SWAP4 SWAP3 SWAP2 SWAP1 PUSH2 0x195B JUMP JUMPDEST PUSH1 0x40 DUP1 MLOAD DUP1 DUP4 SUB DUP2 PUSH1 0x0 DUP8 GAS CALL SWAP3 POP POP POP DUP1 ISZERO PUSH2 0x5F2 JUMPI POP PUSH1 0x40 DUP1 MLOAD PUSH1 0x1F RETURNDATASIZE SWAP1 DUP2 ADD PUSH1 0x1F NOT AND DUP3 ADD SWAP1 SWAP3 MSTORE PUSH2 0x5EF SWAP2 DUP2 ADD SWAP1 PUSH2 0x19D5 JUMP JUMPDEST PUSH1 0x1 JUMPDEST PUSH2 0x73A JUMPI RETURNDATASIZE DUP1 DUP1 ISZERO PUSH2 0x620 JUMPI PUSH1 0x40 MLOAD SWAP2 POP PUSH1 0x1F NOT PUSH1 0x3F RETURNDATASIZE ADD AND DUP3 ADD PUSH1 0x40 MSTORE RETURNDATASIZE DUP3 MSTORE RETURNDATASIZE PUSH1 0x0 PUSH1 0x20 DUP5 ADD RETURNDATACOPY PUSH2 0x625 JUMP JUMPDEST PUSH1 0x60 SWAP2 POP JUMPDEST POP DUP1 MLOAD PUSH1 0x20 DUP1 DUP4 ADD SWAP2 SWAP1 SWAP2 KECCAK256 PUSH1 0x40 DUP1 MLOAD PUSH1 0x4 DUP2 MSTORE PUSH1 0x24 DUP2 ADD SWAP1 SWAP2 MSTORE SWAP2 DUP3 ADD DUP1 MLOAD PUSH1 0x1 PUSH1 0x1 PUSH1 0xE0 SHL SUB AND PUSH4 0x2D4EEEB3 PUSH1 0xE2 SHL OR DUP2 MSTORE SWAP2 MLOAD SWAP1 SWAP2 KECCAK256 DUP2 SWAP1 SUB PUSH2 0x6A6 JUMPI PUSH1 0x40 MLOAD PUSH3 0x461BCD PUSH1 0xE5 SHL DUP2 MSTORE PUSH1 0x20 PUSH1 0x4 DUP3 ADD MSTORE PUSH1 0x11 PUSH1 0x24 DUP3 ADD MSTORE PUSH17 0x125B9D985B1A59141C9A58D9531A5B5A5D PUSH1 0x7A SHL PUSH1 0x44 DUP3 ADD MSTORE PUSH1 0x64 ADD JUMPDEST PUSH1 0x40 MLOAD DUP1 SWAP2 SUB SWAP1 REVERT JUMPDEST PUSH1 0x40 DUP1 MLOAD PUSH1 0x4 DUP2 MSTORE PUSH1 0x24 DUP2 ADD SWAP1 SWAP2 MSTORE PUSH1 0x20 DUP2 ADD DUP1 MLOAD PUSH1 0x1 PUSH1 0x1 PUSH1 0xE0 SHL SUB AND PUSH4 0x4323A555 PUSH1 0xE0 SHL OR DUP2 MSTORE SWAP1 MLOAD SWAP1 KECCAK256 DUP2 SWAP1 SUB PUSH2 0x717 JUMPI PUSH1 0x40 MLOAD PUSH3 0x461BCD PUSH1 0xE5 SHL DUP2 MSTORE PUSH1 0x20 PUSH1 0x4 DUP3 ADD MSTORE PUSH1 0x12 PUSH1 0x24 DUP3 ADD MSTORE PUSH18 0x4E6F74456E6F7567684C6971756964697479 PUSH1 0x70 SHL PUSH1 0x44 DUP3 ADD MSTORE PUSH1 0x64 ADD PUSH2 0x69D JUMP JUMPDEST DUP2 DUP1 PUSH1 0x20 ADD SWAP1 MLOAD DUP2 ADD SWAP1 PUSH2 0x72B SWAP2 SWAP1 PUSH2 0x19F9 JUMP JUMPDEST SWAP7 POP SWAP7 POP SWAP7 POP POP POP POP POP PUSH2 0x73F JUMP JUMPDEST POP POP POP POP JUMPDEST SWAP6 POP SWAP6 POP SWAP6 SWAP3 POP POP POP JUMP JUMPDEST PUSH1 0x40 MLOAD PUSH4 0x1C9956ED PUSH1 0xE3 SHL DUP2 MSTORE PUSH1 0x1 PUSH1 0x1 PUSH1 0xA0 SHL SUB PUSH32 0x0 DUP2 AND PUSH1 0x4 DUP4 ADD MSTORE DUP1 DUP9 AND PUSH1 0x24 DUP4 ADD MSTORE DUP7 AND PUSH1 0x44 DUP3 ADD MSTORE PUSH3 0xFFFFFF DUP6 AND PUSH1 0x64 DUP3 ADD MSTORE PUSH1 0x0 SWAP1 DUP2 SWAP1 PUSH20 0x0 SWAP1 PUSH4 0xE4CAB768 SWAP1 PUSH1 0x84 ADD PUSH1 0x20 PUSH1 0x40 MLOAD DUP1 DUP4 SUB DUP2 DUP7 GAS DELEGATECALL ISZERO DUP1 ISZERO PUSH2 0x7E2 JUMPI RETURNDATASIZE PUSH1 0x0 DUP1 RETURNDATACOPY RETURNDATASIZE PUSH1 0x0 REVERT JUMPDEST POP POP POP POP PUSH1 0x40 MLOAD RETURNDATASIZE PUSH1 0x1F NOT PUSH1 0x1F DUP3 ADD AND DUP3 ADD DUP1 PUSH1 0x40 MSTORE POP DUP2 ADD SWAP1 PUSH2 0x806 SWAP2 SWAP1 PUSH2 0x1788 JUMP JUMPDEST SWAP1 POP PUSH1 0x0 DUP1 DUP3 PUSH1 0x1 PUSH1 0x1 PUSH1 0xA0 SHL SUB AND PUSH4 0x3850C7BD PUSH1 0x40 MLOAD DUP2 PUSH4 0xFFFFFFFF AND PUSH1 0xE0 SHL DUP2 MSTORE PUSH1 0x4 ADD PUSH1 0xA0 PUSH1 0x40 MLOAD DUP1 DUP4 SUB DUP2 DUP7 GAS STATICCALL ISZERO DUP1 ISZERO PUSH2 0x849 JUMPI RETURNDATASIZE PUSH1 0x0 DUP1 RETURNDATACOPY RETURNDATASIZE PUSH1 0x0 REVERT JUMPDEST POP POP POP POP PUSH1 0x40 MLOAD RETURNDATASIZE PUSH1 0x1F NOT PUSH1 0x1F DUP3 ADD AND DUP3 ADD DUP1 PUSH1 0x40 MSTORE POP DUP2 ADD SWAP1 PUSH2 0x86D SWAP2 SWAP1 PUSH2 0x17B7 JUMP JUMPDEST POP POP POP SWAP2 POP SWAP2 POP DUP6 PUSH1 0x2 SIGNEXTEND DUP2 PUSH1 0x2 SIGNEXTEND SLT DUP1 ISZERO PUSH2 0x88E JUMPI POP DUP7 PUSH1 0x2 SIGNEXTEND DUP2 PUSH1 0x2 SIGNEXTEND SGT JUMPDEST ISZERO PUSH2 0x463 JUMPI PUSH1 0x1 PUSH1 0x60 SHL PUSH1 0x1 PUSH1 0x1 PUSH1 0xA0 SHL SUB DUP4 AND DIV PUSH12 0xFFFFFFFFFFFFFFFFFFFFFFFF DUP4 AND ISZERO ISZERO ADD DUP1 DUP7 MOD ISZERO ISZERO SWAP1 DUP7 DIV ADD SWAP4 POP PUSH1 0x0 PUSH2 0x8D9 DUP9 DUP9 DUP6 PUSH2 0x8D3 PUSH1 0x2 DUP11 PUSH2 0x1905 JUMP JUMPDEST DUP11 PUSH2 0xACB JUMP JUMPDEST SWAP1 POP PUSH2 0x45F DUP4 PUSH2 0x8E8 DUP10 PUSH2 0xAF4 JUMP JUMPDEST DUP4 PUSH1 0x0 PUSH2 0xFA0 JUMP JUMPDEST PUSH1 0x0 DUP2 DUP1 PUSH1 0x20 ADD SWAP1 MLOAD DUP2 ADD SWAP1 PUSH2 0x906 SWAP2 SWAP1 PUSH2 0x1788 JUMP JUMPDEST SWAP1 POP PUSH1 0x0 DUP1 DUP6 SGT PUSH2 0x91F JUMPI PUSH2 0x91A DUP6 PUSH2 0x1A3C JUMP JUMPDEST PUSH2 0x928 JUMP JUMPDEST PUSH2 0x928 DUP5 PUSH2 0x1A3C JUMP JUMPDEST SWAP1 POP PUSH1 0x0 DUP1 DUP4 PUSH1 0x1 PUSH1 0x1 PUSH1 0xA0 SHL SUB AND PUSH4 0x3850C7BD PUSH1 0x40 MLOAD DUP2 PUSH4 0xFFFFFFFF AND PUSH1 0xE0 SHL DUP2 MSTORE PUSH1 0x4 ADD PUSH1 0xA0 PUSH1 0x40 MLOAD DUP1 DUP4 SUB DUP2 DUP7 GAS STATICCALL ISZERO DUP1 ISZERO PUSH2 0x96B JUMPI RETURNDATASIZE PUSH1 0x0 DUP1 RETURNDATACOPY RETURNDATASIZE PUSH1 0x0 REVERT JUMPDEST POP POP POP POP PUSH1 0x40 MLOAD RETURNDATASIZE PUSH1 0x1F NOT PUSH1 0x1F DUP3 ADD AND DUP3 ADD DUP1 PUSH1 0x40 MSTORE POP DUP2 ADD SWAP1 PUSH2 0x98F SWAP2 SWAP1 PUSH2 0x17B7 JUMP JUMPDEST POP POP POP SWAP2 POP SWAP2 POP PUSH1 0x40 MLOAD DUP4 DUP2 MSTORE DUP3 PUSH1 0x20 DUP3 ADD MSTORE DUP2 PUSH1 0x40 DUP3 ADD MSTORE PUSH1 0x60 DUP2 REVERT JUMPDEST PUSH1 0x0 PUSH2 0x9BB PUSH1 0x3 PUSH1 0x14 PUSH2 0x1A58 JUMP JUMPDEST PUSH1 0x14 DUP4 MLOAD PUSH2 0x9C9 SWAP2 SWAP1 PUSH2 0x1A6B JUMP JUMPDEST PUSH2 0x9D3 SWAP2 SWAP1 PUSH2 0x1A94 JUMP JUMPDEST SWAP3 SWAP2 POP POP JUMP JUMPDEST PUSH1 0x0 DUP1 DUP1 PUSH2 0x9E7 DUP5 DUP3 PUSH2 0x1075 JUMP JUMPDEST SWAP3 POP PUSH2 0x9F4 DUP5 PUSH1 0x14 PUSH2 0x10DA JUMP JUMPDEST SWAP1 POP PUSH2 0xA0C PUSH2 0xA05 PUSH1 0x3 PUSH1 0x14 PUSH2 0x1A58 JUMP JUMPDEST DUP6 SWAP1 PUSH2 0x1075 JUMP JUMPDEST SWAP2 POP SWAP2 SWAP4 SWAP1 SWAP3 POP JUMP JUMPDEST PUSH1 0x0 PUSH2 0xA23 PUSH1 0x3 PUSH1 0x14 PUSH2 0x1A58 JUMP JUMPDEST PUSH1 0x14 PUSH2 0xA30 PUSH1 0x3 DUP3 PUSH2 0x1A58 JUMP JUMPDEST PUSH2 0xA3A SWAP2 SWAP1 PUSH2 0x1A58 JUMP JUMPDEST PUSH2 0xA44 SWAP2 SWAP1 PUSH2 0x1A58 JUMP JUMPDEST DUP3 MLOAD LT ISZERO SWAP1 POP SWAP2 SWAP1 POP JUMP JUMPDEST PUSH1 0x60 PUSH2 0x9D3 PUSH2 0xA60 PUSH1 0x3 PUSH1 0x14 PUSH2 0x1A58 JUMP JUMPDEST PUSH2 0xA6C PUSH1 0x3 PUSH1 0x14 PUSH2 0x1A58 JUMP JUMPDEST DUP5 MLOAD PUSH2 0xA78 SWAP2 SWAP1 PUSH2 0x1A6B JUMP JUMPDEST DUP5 SWAP2 SWAP1 PUSH2 0x1137 JUMP JUMPDEST PUSH1 0x0 PUSH2 0xA8D DUP5 DUP5 DUP5 PUSH2 0x1244 JUMP JUMPDEST SWAP1 POP PUSH1 0x0 DUP3 DUP1 PUSH2 0xA9F JUMPI PUSH2 0xA9F PUSH2 0x1A7E JUMP JUMPDEST DUP5 DUP7 MULMOD GT ISZERO PUSH2 0xAC4 JUMPI PUSH1 0x0 NOT DUP2 LT PUSH2 0xAB6 JUMPI PUSH1 0x0 DUP1 REVERT JUMPDEST DUP1 PUSH2 0xAC0 DUP2 PUSH2 0x176F JUMP JUMPDEST SWAP2 POP POP JUMPDEST SWAP4 SWAP3 POP POP POP JUMP JUMPDEST PUSH1 0x0 PUSH2 0xAEA DUP5 PUSH2 0xADA DUP9 PUSH2 0xAF4 JUMP JUMPDEST PUSH2 0xAE3 DUP9 PUSH2 0xAF4 JUMP JUMPDEST DUP7 DUP7 PUSH2 0x1311 JUMP JUMPDEST SWAP7 SWAP6 POP POP POP POP POP POP JUMP JUMPDEST PUSH1 0x0 DUP1 PUSH1 0x0 DUP4 PUSH1 0x2 SIGNEXTEND SLT PUSH2 0xB0B JUMPI DUP3 PUSH1 0x2 SIGNEXTEND PUSH2 0xB18 JUMP JUMPDEST DUP3 PUSH1 0x2 SIGNEXTEND PUSH2 0xB18 SWAP1 PUSH2 0x1A3C JUMP JUMPDEST SWAP1 POP PUSH2 0xB27 PUSH3 0xD89E7 NOT PUSH2 0x1AA8 JUMP JUMPDEST PUSH3 0xFFFFFF AND DUP2 GT ISZERO PUSH2 0xB5F JUMPI PUSH1 0x40 MLOAD PUSH3 0x461BCD PUSH1 0xE5 SHL DUP2 MSTORE PUSH1 0x20 PUSH1 0x4 DUP3 ADD MSTORE PUSH1 0x1 PUSH1 0x24 DUP3 ADD MSTORE PUSH1 0x15 PUSH1 0xFA SHL PUSH1 0x44 DUP3 ADD MSTORE PUSH1 0x64 ADD PUSH2 0x69D JUMP JUMPDEST PUSH1 0x0 DUP2 PUSH1 0x1 AND PUSH1 0x0 SUB PUSH2 0xB76 JUMPI PUSH1 0x1 PUSH1 0x80 SHL PUSH2 0xB88 JUMP JUMPDEST PUSH16 0xFFFCB933BD6FAD37AA2D162D1A594001 JUMPDEST PUSH17 0xFFFFFFFFFFFFFFFFFFFFFFFFFFFFFFFFFF AND SWAP1 POP PUSH1 0x2 DUP3 AND ISZERO PUSH2 0xBC7 JUMPI PUSH1 0x80 PUSH2 0xBC2 DUP3 PUSH16 0xFFF97272373D413259A46990580E213A PUSH2 0x1ACA JUMP JUMPDEST SWAP1 SHR SWAP1 POP JUMPDEST PUSH1 0x4 DUP3 AND ISZERO PUSH2 0xBF1 JUMPI PUSH1 0x80 PUSH2 0xBEC DUP3 PUSH16 0xFFF2E50F5F656932EF12357CF3C7FDCC PUSH2 0x1ACA JUMP JUMPDEST SWAP1 SHR SWAP1 POP JUMPDEST PUSH1 0x8 DUP3 AND ISZERO PUSH2 0xC1B JUMPI PUSH1 0x80 PUSH2 0xC16 DUP3 PUSH16 0xFFE5CACA7E10E4E61C3624EAA0941CD0 PUSH2 0x1ACA JUMP JUMPDEST SWAP1 SHR SWAP1 POP JUMPDEST PUSH1 0x10 DUP3 AND ISZERO PUSH2 0xC45 JUMPI PUSH1 0x80 PUSH2 0xC40 DUP3 PUSH16 0xFFCB9843D60F6159C9DB58835C926644 PUSH2 0x1ACA JUMP JUMPDEST SWAP1 SHR SWAP1 POP JUMPDEST PUSH1 0x20 DUP3 AND ISZERO PUSH2 0xC6F JUMPI PUSH1 0x80 PUSH2 0xC6A DUP3 PUSH16 0xFF973B41FA98C081472E6896DFB254C0 PUSH2 0x1ACA JUMP JUMPDEST SWAP1 SHR SWAP1 POP JUMPDEST PUSH1 0x40 DUP3 AND ISZERO PUSH2 0xC99 JUMPI PUSH1 0x80 PUSH2 0xC94 DUP3 PUSH16 0xFF2EA16466C96A3843EC78B326B52861 PUSH2 0x1ACA JUMP JUMPDEST SWAP1 SHR SWAP1 POP JUMPDEST PUSH1 0x80 DUP3 AND ISZERO PUSH2 0xCC3 JUMPI PUSH1 0x80 PUSH2 0xCBE DUP3 PUSH16 0xFE5DEE046A99A2A811C461F1969C3053 PUSH2 0x1ACA JUMP JUMPDEST SWAP1 SHR SWAP1 POP JUMPDEST PUSH2 0x100 DUP3 AND ISZERO PUSH2 0xCEE JUMPI PUSH1 0x80 PUSH2 0xCE9 DUP3 PUSH16 0xFCBE86C7900A88AEDCFFC83B479AA3A4 PUSH2 0x1ACA JUMP JUMPDEST SWAP1 SHR SWAP1 POP JUMPDEST PUSH2 0x200 DUP3 AND ISZERO PUSH2 0xD19 JUMPI PUSH1 0x80 PUSH2 0xD14 DUP3 PUSH16 0xF987A7253AC413176F2B074CF7815E54 PUSH2 0x1ACA JUMP JUMPDEST SWAP1 SHR SWAP1 POP JUMPDEST PUSH2 0x400 DUP3 AND ISZERO PUSH2 0xD44 JUMPI PUSH1 0x80 PUSH2 0xD3F DUP3 PUSH16 0xF3392B0822B70005940C7A398E4B70F3 PUSH2 0x1ACA JUMP JUMPDEST SWAP1 SHR SWAP1 POP JUMPDEST PUSH2 0x800 DUP3 AND ISZERO PUSH2 0xD6F JUMPI PUSH1 0x80 PUSH2 0xD6A DUP3 PUSH16 0xE7159475A2C29B7443B29C7FA6E889D9 PUSH2 0x1ACA JUMP JUMPDEST SWAP1 SHR SWAP1 POP JUMPDEST PUSH2 0x1000 DUP3 AND ISZERO PUSH2 0xD9A JUMPI PUSH1 0x80 PUSH2 0xD95 DUP3 PUSH16 0xD097F3BDFD2022B8845AD8F792AA5825 PUSH2 0x1ACA JUMP JUMPDEST SWAP1 SHR SWAP1 POP JUMPDEST PUSH2 0x2000 DUP3 AND ISZERO PUSH2 0xDC5 JUMPI PUSH1 0x80 PUSH2 0xDC0 DUP3 PUSH16 0xA9F746462D870FDF8A65DC1F90E061E5 PUSH2 0x1ACA JUMP JUMPDEST SWAP1 SHR SWAP1 POP JUMPDEST PUSH2 0x4000 DUP3 AND ISZERO PUSH2 0xDF0 JUMPI PUSH1 0x80 PUSH2 0xDEB DUP3 PUSH16 0x70D869A156D2A1B890BB3DF62BAF32F7 PUSH2 0x1ACA JUMP JUMPDEST SWAP1 SHR SWAP1 POP JUMPDEST PUSH2 0x8000 DUP3 AND ISZERO PUSH2 0xE1B JUMPI PUSH1 0x80 PUSH2 0xE16 DUP3 PUSH16 0x31BE135F97D08FD981231505542FCFA6 PUSH2 0x1ACA JUMP JUMPDEST SWAP1 SHR SWAP1 POP JUMPDEST PUSH3 0x10000 DUP3 AND ISZERO PUSH2 0xE47 JUMPI PUSH1 0x80 PUSH2 0xE42 DUP3 PUSH16 0x9AA508B5B7A84E1C677DE54F3E99BC9 PUSH2 0x1ACA JUMP JUMPDEST SWAP1 SHR SWAP1 POP JUMPDEST PUSH3 0x20000 DUP3 AND ISZERO PUSH2 0xE72 JUMPI PUSH1 0x80 PUSH2 0xE6D DUP3 PUSH15 0x5D6AF8DEDB81196699C329225EE604 PUSH2 0x1ACA JUMP JUMPDEST SWAP1 SHR SWAP1 POP JUMPDEST PUSH3 0x40000 DUP3 AND ISZERO PUSH2 0xE9C JUMPI PUSH1 0x80 PUSH2 0xE97 DUP3 PUSH14 0x2216E584F5FA1EA926041BEDFE98 PUSH2 0x1ACA JUMP JUMPDEST SWAP1 SHR SWAP1 POP JUMPDEST PUSH3 0x80000 DUP3 AND ISZERO PUSH2 0xEC4 JUMPI PUSH1 0x80 PUSH2 0xEBF DUP3 PUSH12 0x48A170391F7DC42444E8FA2 PUSH2 0x1ACA JUMP JUMPDEST SWAP1 SHR SWAP1 POP JUMPDEST PUSH1 0x0 DUP5 PUSH1 0x2 SIGNEXTEND SGT ISZERO PUSH2 0xEDF JUMPI PUSH2 0xEDC DUP2 PUSH1 0x0 NOT PUSH2 0x1A94 JUMP JUMPDEST SWAP1 POP JUMPDEST PUSH2 0xEEE PUSH5 0x100000000 DUP3 PUSH2 0x1AE1 JUMP JUMPDEST ISZERO PUSH2 0xEFA JUMPI PUSH1 0x1 PUSH2 0xEFD JUMP JUMPDEST PUSH1 0x0 JUMPDEST PUSH2 0xF0E SWAP1 PUSH1 0xFF AND PUSH1 0x20 DUP4 SWAP1 SHR PUSH2 0x1A58 JUMP JUMPDEST SWAP5 SWAP4 POP POP POP POP JUMP JUMPDEST PUSH1 0x0 DUP4 PUSH1 0x1 PUSH1 0x1 PUSH1 0xA0 SHL SUB AND DUP6 PUSH1 0x1 PUSH1 0x1 PUSH1 0xA0 SHL SUB AND GT ISZERO PUSH2 0xF36 JUMPI SWAP3 SWAP4 SWAP3 JUMPDEST DUP2 ISZERO PUSH2 0xF6D JUMPI PUSH2 0xF66 PUSH1 0x1 PUSH1 0x1 PUSH1 0x80 SHL SUB DUP5 AND PUSH2 0xF53 DUP8 DUP8 PUSH2 0x1914 JUMP JUMPDEST PUSH1 0x1 PUSH1 0x1 PUSH1 0xA0 SHL SUB AND PUSH1 0x1 PUSH1 0x60 SHL PUSH2 0xA80 JUMP JUMPDEST SWAP1 POP PUSH2 0xF0E JUMP JUMPDEST PUSH2 0xF97 PUSH1 0x1 PUSH1 0x1 PUSH1 0x80 SHL SUB DUP5 AND PUSH2 0xF84 DUP8 DUP8 PUSH2 0x1914 JUMP JUMPDEST PUSH1 0x1 PUSH1 0x1 PUSH1 0xA0 SHL SUB AND PUSH1 0x1 PUSH1 0x60 SHL PUSH2 0x1244 JUMP JUMPDEST SWAP6 SWAP5 POP POP POP POP POP JUMP JUMPDEST PUSH1 0x0 DUP4 PUSH1 0x1 PUSH1 0x1 PUSH1 0xA0 SHL SUB AND DUP6 PUSH1 0x1 PUSH1 0x1 PUSH1 0xA0 SHL SUB AND GT ISZERO PUSH2 0xFC0 JUMPI SWAP3 SWAP4 SWAP3 JUMPDEST PUSH1 0x0 DUP6 PUSH1 0x1 PUSH1 0x1 PUSH1 0xA0 SHL SUB AND GT PUSH2 0xFD6 JUMPI PUSH1 0x0 DUP1 REVERT JUMPDEST PUSH16 0xFFFFFFFFFFFFFFFFFFFFFFFFFFFFFFFF PUSH1 0x60 SHL PUSH1 0x60 DUP5 SWAP1 SHL AND PUSH1 0x0 PUSH2 0xFFC DUP8 DUP8 PUSH2 0x1914 JUMP JUMPDEST PUSH1 0x1 PUSH1 0x1 PUSH1 0xA0 SHL SUB AND SWAP1 POP DUP4 ISZERO PUSH2 0x1040 JUMPI PUSH2 0x1039 PUSH2 0x1024 DUP4 DUP4 DUP10 PUSH1 0x1 PUSH1 0x1 PUSH1 0xA0 SHL SUB AND PUSH2 0xA80 JUMP JUMPDEST DUP9 PUSH1 0x1 PUSH1 0x1 PUSH1 0xA0 SHL SUB AND DUP1 DUP3 DIV SWAP2 MOD ISZERO ISZERO ADD SWAP1 JUMP JUMPDEST SWAP3 POP PUSH2 0x106B JUMP JUMPDEST DUP7 PUSH1 0x1 PUSH1 0x1 PUSH1 0xA0 SHL SUB AND PUSH2 0x105E DUP4 DUP4 DUP10 PUSH1 0x1 PUSH1 0x1 PUSH1 0xA0 SHL SUB AND PUSH2 0x1244 JUMP JUMPDEST PUSH2 0x1068 SWAP2 SWAP1 PUSH2 0x1A94 JUMP JUMPDEST SWAP3 POP JUMPDEST POP POP SWAP5 SWAP4 POP POP POP POP JUMP JUMPDEST PUSH1 0x0 PUSH2 0x1082 DUP3 PUSH1 0x14 PUSH2 0x1A58 JUMP JUMPDEST DUP4 MLOAD LT ISZERO PUSH2 0x10CA JUMPI PUSH1 0x40 MLOAD PUSH3 0x461BCD PUSH1 0xE5 SHL DUP2 MSTORE PUSH1 0x20 PUSH1 0x4 DUP3 ADD MSTORE PUSH1 0x15 PUSH1 0x24 DUP3 ADD MSTORE PUSH21 0x746F416464726573735F6F75744F66426F756E6473 PUSH1 0x58 SHL PUSH1 0x44 DUP3 ADD MSTORE PUSH1 0x64 ADD PUSH2 0x69D JUMP JUMPDEST POP ADD PUSH1 0x20 ADD MLOAD PUSH1 0x1 PUSH1 0x60 SHL SWAP1 DIV SWAP1 JUMP JUMPDEST PUSH1 0x0 PUSH2 0x10E7 DUP3 PUSH1 0x3 PUSH2 0x1A58 JUMP JUMPDEST DUP4 MLOAD LT ISZERO PUSH2 0x112E JUMPI PUSH1 0x40 MLOAD PUSH3 0x461BCD PUSH1 0xE5 SHL DUP2 MSTORE PUSH1 0x20 PUSH1 0x4 DUP3 ADD MSTORE PUSH1 0x14 PUSH1 0x24 DUP3 ADD MSTORE PUSH20 0x746F55696E7432345F6F75744F66426F756E6473 PUSH1 0x60 SHL PUSH1 0x44 DUP3 ADD MSTORE PUSH1 0x64 ADD PUSH2 0x69D JUMP JUMPDEST POP ADD PUSH1 0x3 ADD MLOAD SWAP1 JUMP JUMPDEST PUSH1 0x60 DUP2 PUSH2 0x1145 DUP2 PUSH1 0x1F PUSH2 0x1A58 JUMP JUMPDEST LT ISZERO PUSH2 0x1184 JUMPI PUSH1 0x40 MLOAD PUSH3 0x461BCD PUSH1 0xE5 SHL DUP2 MSTORE PUSH1 0x20 PUSH1 0x4 DUP3 ADD MSTORE PUSH1 0xE PUSH1 0x24 DUP3 ADD MSTORE PUSH14 0x736C6963655F6F766572666C6F77 PUSH1 0x90 SHL PUSH1 0x44 DUP3 ADD MSTORE PUSH1 0x64 ADD PUSH2 0x69D JUMP JUMPDEST PUSH2 0x118E DUP3 DUP5 PUSH2 0x1A58 JUMP JUMPDEST DUP5 MLOAD LT ISZERO PUSH2 0x11D2 JUMPI PUSH1 0x40 MLOAD PUSH3 0x461BCD PUSH1 0xE5 SHL DUP2 MSTORE PUSH1 0x20 PUSH1 0x4 DUP3 ADD MSTORE PUSH1 0x11 PUSH1 0x24 DUP3 ADD MSTORE PUSH17 0x736C6963655F6F75744F66426F756E6473 PUSH1 0x78 SHL PUSH1 0x44 DUP3 ADD MSTORE PUSH1 0x64 ADD PUSH2 0x69D JUMP JUMPDEST PUSH1 0x60 DUP3 ISZERO DUP1 ISZERO PUSH2 0x11F1 JUMPI PUSH1 0x40 MLOAD SWAP2 POP PUSH1 0x0 DUP3 MSTORE PUSH1 0x20 DUP3 ADD PUSH1 0x40 MSTORE PUSH2 0x123B JUMP JUMPDEST PUSH1 0x40 MLOAD SWAP2 POP PUSH1 0x1F DUP5 AND DUP1 ISZERO PUSH1 0x20 MUL DUP2 DUP5 ADD ADD DUP6 DUP2 ADD DUP8 DUP4 ISZERO PUSH1 0x20 MUL DUP5 DUP12 ADD ADD ADD JUMPDEST DUP2 DUP4 LT ISZERO PUSH2 0x122A JUMPI DUP1 MLOAD DUP4 MSTORE PUSH1 0x20 SWAP3 DUP4 ADD SWAP3 ADD PUSH2 0x1212 JUMP JUMPDEST POP POP DUP6 DUP5 MSTORE PUSH1 0x1F ADD PUSH1 0x1F NOT AND PUSH1 0x40 MSTORE POP JUMPDEST POP SWAP5 SWAP4 POP POP POP POP JUMP JUMPDEST PUSH1 0x0 DUP1 DUP1 PUSH1 0x0 NOT DUP6 DUP8 MULMOD DUP6 DUP8 MUL SWAP3 POP DUP3 DUP2 LT DUP4 DUP3 SUB SUB SWAP2 POP POP DUP1 PUSH1 0x0 SUB PUSH2 0x127E JUMPI DUP4 DUP3 DUP2 PUSH2 0x1274 JUMPI PUSH2 0x1274 PUSH2 0x1A7E JUMP JUMPDEST DIV SWAP3 POP POP POP PUSH2 0xAC4 JUMP JUMPDEST DUP4 DUP2 LT PUSH2 0x12A8 JUMPI PUSH1 0x40 MLOAD PUSH4 0x1DCF3063 PUSH1 0xE2 SHL DUP2 MSTORE PUSH1 0x4 DUP2 ADD DUP3 SWAP1 MSTORE PUSH1 0x24 DUP2 ADD DUP6 SWAP1 MSTORE PUSH1 0x44 ADD PUSH2 0x69D JUMP JUMPDEST PUSH1 0x0 DUP5 DUP7 DUP9 MULMOD PUSH1 0x2 PUSH1 0x1 DUP8 NOT DUP2 ADD DUP9 AND SWAP8 DUP9 SWAP1 DIV PUSH1 0x3 DUP2 MUL DUP4 XOR DUP1 DUP3 MUL DUP5 SUB MUL DUP1 DUP3 MUL DUP5 SUB MUL DUP1 DUP3 MUL DUP5 SUB MUL DUP1 DUP3 MUL DUP5 SUB MUL DUP1 DUP3 MUL DUP5 SUB MUL SWAP1 DUP2 MUL SWAP1 SWAP3 SUB SWAP1 SWAP2 MUL PUSH1 0x0 DUP9 SWAP1 SUB DUP9 SWAP1 DIV SWAP1 SWAP2 ADD DUP6 DUP4 GT SWAP1 SWAP5 SUB SWAP4 SWAP1 SWAP4 MUL SWAP4 SUB SWAP5 SWAP1 SWAP5 DIV SWAP2 SWAP1 SWAP2 OR MUL SWAP5 SWAP4 POP POP POP POP JUMP JUMPDEST PUSH1 0x0 DUP4 PUSH1 0x1 PUSH1 0x1 PUSH1 0xA0 SHL SUB AND DUP6 PUSH1 0x1 PUSH1 0x1 PUSH1 0xA0 SHL SUB AND GT ISZERO PUSH2 0x1331 JUMPI SWAP3 SWAP4 SWAP3 JUMPDEST DUP5 PUSH1 0x1 PUSH1 0x1 PUSH1 0xA0 SHL SUB AND DUP7 PUSH1 0x1 PUSH1 0x1 PUSH1 0xA0 SHL SUB AND GT PUSH2 0x135C JUMPI PUSH2 0x1355 DUP6 DUP6 DUP6 PUSH2 0x13C8 JUMP JUMPDEST SWAP1 POP PUSH2 0xF97 JUMP JUMPDEST DUP4 PUSH1 0x1 PUSH1 0x1 PUSH1 0xA0 SHL SUB AND DUP7 PUSH1 0x1 PUSH1 0x1 PUSH1 0xA0 SHL SUB AND GT PUSH2 0x13BD JUMPI PUSH1 0x0 PUSH2 0x1382 DUP8 DUP7 DUP7 PUSH2 0x13C8 JUMP JUMPDEST SWAP1 POP PUSH1 0x0 PUSH2 0x1391 DUP8 DUP10 DUP7 PUSH2 0x142A JUMP JUMPDEST SWAP1 POP DUP1 PUSH1 0x1 PUSH1 0x1 PUSH1 0x80 SHL SUB AND DUP3 PUSH1 0x1 PUSH1 0x1 PUSH1 0x80 SHL SUB AND LT PUSH2 0x13B2 JUMPI DUP1 PUSH2 0x13B4 JUMP JUMPDEST DUP2 JUMPDEST SWAP3 POP POP POP PUSH2 0xF97 JUMP JUMPDEST PUSH2 0xAEA DUP6 DUP6 DUP5 PUSH2 0x142A JUMP JUMPDEST PUSH1 0x0 DUP3 PUSH1 0x1 PUSH1 0x1 PUSH1 0xA0 SHL SUB AND DUP5 PUSH1 0x1 PUSH1 0x1 PUSH1 0xA0 SHL SUB AND GT ISZERO PUSH2 0x13E8 JUMPI SWAP2 SWAP3 SWAP2 JUMPDEST PUSH1 0x0 PUSH2 0x140B DUP6 PUSH1 0x1 PUSH1 0x1 PUSH1 0xA0 SHL SUB AND DUP6 PUSH1 0x1 PUSH1 0x1 PUSH1 0xA0 SHL SUB AND PUSH1 0x1 PUSH1 0x60 SHL PUSH2 0x1244 JUMP JUMPDEST SWAP1 POP PUSH2 0xAC0 DUP4 DUP3 PUSH2 0x141C DUP9 DUP9 PUSH2 0x1914 JUMP JUMPDEST PUSH1 0x1 PUSH1 0x1 PUSH1 0xA0 SHL SUB AND PUSH2 0x1244 JUMP JUMPDEST PUSH1 0x0 DUP3 PUSH1 0x1 PUSH1 0x1 PUSH1 0xA0 SHL SUB AND DUP5 PUSH1 0x1 PUSH1 0x1 PUSH1 0xA0 SHL SUB AND GT ISZERO PUSH2 0x144A JUMPI SWAP2 SWAP3 SWAP2 JUMPDEST PUSH2 0xF0E DUP3 PUSH1 0x1 PUSH1 0x60 SHL PUSH2 0x141C DUP8 DUP8 PUSH2 0x1914 JUMP JUMPDEST PUSH4 0x4E487B71 PUSH1 0xE0 SHL PUSH1 0x0 MSTORE PUSH1 0x41 PUSH1 0x4 MSTORE PUSH1 0x24 PUSH1 0x0 REVERT JUMPDEST PUSH1 0x0 DUP3 PUSH1 0x1F DUP4 ADD SLT PUSH2 0x1484 JUMPI PUSH1 0x0 DUP1 REVERT JUMPDEST DUP2 CALLDATALOAD PUSH8 0xFFFFFFFFFFFFFFFF DUP1 DUP3 GT ISZERO PUSH2 0x149F JUMPI PUSH2 0x149F PUSH2 0x145D JUMP JUMPDEST PUSH1 0x40 MLOAD PUSH1 0x1F DUP4 ADD PUSH1 0x1F NOT SWAP1 DUP2 AND PUSH1 0x3F ADD AND DUP2 ADD SWAP1 DUP3 DUP3 GT DUP2 DUP4 LT OR ISZERO PUSH2 0x14C7 JUMPI PUSH2 0x14C7 PUSH2 0x145D JUMP JUMPDEST DUP2 PUSH1 0x40 MSTORE DUP4 DUP2 MSTORE DUP7 PUSH1 0x20 DUP6 DUP9 ADD ADD GT ISZERO PUSH2 0x14E0 JUMPI PUSH1 0x0 DUP1 REVERT JUMPDEST DUP4 PUSH1 0x20 DUP8 ADD PUSH1 0x20 DUP4 ADD CALLDATACOPY PUSH1 0x0 PUSH1 0x20 DUP6 DUP4 ADD ADD MSTORE DUP1 SWAP5 POP POP POP POP POP SWAP3 SWAP2 POP POP JUMP JUMPDEST PUSH1 0x0 DUP1 PUSH1 0x40 DUP4 DUP6 SUB SLT ISZERO PUSH2 0x1513 JUMPI PUSH1 0x0 DUP1 REVERT JUMPDEST DUP3 CALLDATALOAD PUSH8 0xFFFFFFFFFFFFFFFF DUP2 GT ISZERO PUSH2 0x152A JUMPI PUSH1 0x0 DUP1 REVERT JUMPDEST PUSH2 0x1536 DUP6 DUP3 DUP7 ADD PUSH2 0x1473 JUMP JUMPDEST SWAP6 PUSH1 0x20 SWAP5 SWAP1 SWAP5 ADD CALLDATALOAD SWAP5 POP POP POP POP JUMP JUMPDEST PUSH1 0x0 PUSH1 0x60 DUP3 ADD DUP6 DUP4 MSTORE PUSH1 0x20 PUSH1 0x60 DUP2 DUP6 ADD MSTORE DUP2 DUP7 MLOAD DUP1 DUP5 MSTORE PUSH1 0x80 DUP7 ADD SWAP2 POP DUP3 DUP9 ADD SWAP4 POP PUSH1 0x0 JUMPDEST DUP2 DUP2 LT ISZERO PUSH2 0x158F JUMPI DUP5 MLOAD PUSH1 0x1 PUSH1 0x1 PUSH1 0xA0 SHL SUB AND DUP4 MSTORE SWAP4 DUP4 ADD SWAP4 SWAP2 DUP4 ADD SWAP2 PUSH1 0x1 ADD PUSH2 0x156A JUMP JUMPDEST POP POP DUP5 DUP2 SUB PUSH1 0x40 DUP7 ADD MSTORE DUP6 MLOAD DUP1 DUP3 MSTORE SWAP1 DUP3 ADD SWAP3 POP DUP2 DUP7 ADD SWAP1 PUSH1 0x0 JUMPDEST DUP2 DUP2 LT ISZERO PUSH2 0x15C9 JUMPI DUP3 MLOAD PUSH1 0x2 SIGNEXTEND DUP6 MSTORE SWAP4 DUP4 ADD SWAP4 SWAP2 DUP4 ADD SWAP2 PUSH1 0x1 ADD PUSH2 0x15AA JUMP JUMPDEST POP SWAP3 SWAP9 SWAP8 POP POP POP POP POP POP POP POP JUMP JUMPDEST PUSH1 0x1 PUSH1 0x1 PUSH1 0xA0 SHL SUB DUP2 AND DUP2 EQ PUSH2 0x15EC JUMPI PUSH1 0x0 DUP1 REVERT JUMPDEST POP JUMP JUMPDEST DUP1 CALLDATALOAD PUSH3 0xFFFFFF DUP2 AND DUP2 EQ PUSH2 0x1602 JUMPI PUSH1 0x0 DUP1 REVERT JUMPDEST SWAP2 SWAP1 POP JUMP JUMPDEST DUP1 PUSH1 0x2 SIGNEXTEND DUP2 EQ PUSH2 0x15EC JUMPI PUSH1 0x0 DUP1 REVERT JUMPDEST PUSH1 0x0 DUP1 PUSH1 0x0 DUP1 PUSH1 0x0 DUP1 PUSH1 0xC0 DUP8 DUP10 SUB SLT ISZERO PUSH2 0x162F JUMPI PUSH1 0x0 DUP1 REVERT JUMPDEST DUP7 CALLDATALOAD PUSH2 0x163A DUP2 PUSH2 0x15D7 JUMP JUMPDEST SWAP6 POP PUSH1 0x20 DUP8 ADD CALLDATALOAD PUSH2 0x164A DUP2 PUSH2 0x15D7 JUMP JUMPDEST SWAP5 POP PUSH2 0x1658 PUSH1 0x40 DUP9 ADD PUSH2 0x15EF JUMP JUMPDEST SWAP4 POP PUSH1 0x60 DUP8 ADD CALLDATALOAD PUSH2 0x1668 DUP2 PUSH2 0x1607 JUMP JUMPDEST SWAP3 POP PUSH1 0x80 DUP8 ADD CALLDATALOAD PUSH2 0x1678 DUP2 PUSH2 0x1607 JUMP JUMPDEST DUP1 SWAP3 POP POP PUSH1 0xA0 DUP8 ADD CALLDATALOAD SWAP1 POP SWAP3 SWAP6 POP SWAP3 SWAP6 POP SWAP3 SWAP6 JUMP JUMPDEST PUSH1 0x0 DUP1 PUSH1 0x0 DUP1 PUSH1 0x0 PUSH1 0xA0 DUP7 DUP9 SUB SLT ISZERO PUSH2 0x16A5 JUMPI PUSH1 0x0 DUP1 REVERT JUMPDEST DUP6 CALLDATALOAD PUSH2 0x16B0 DUP2 PUSH2 0x15D7 JUMP JUMPDEST SWAP5 POP PUSH1 0x20 DUP7 ADD CALLDATALOAD PUSH2 0x16C0 DUP2 PUSH2 0x15D7 JUMP JUMPDEST SWAP4 POP PUSH2 0x16CE PUSH1 0x40 DUP8 ADD PUSH2 0x15EF JUMP JUMPDEST SWAP3 POP PUSH1 0x60 DUP7 ADD CALLDATALOAD SWAP2 POP PUSH1 0x80 DUP7 ADD CALLDATALOAD PUSH2 0x16E5 DUP2 PUSH2 0x15D7 JUMP JUMPDEST DUP1 SWAP2 POP POP SWAP3 SWAP6 POP SWAP3 SWAP6 SWAP1 SWAP4 POP JUMP JUMPDEST PUSH1 0x0 DUP1 PUSH1 0x0 PUSH1 0x60 DUP5 DUP7 SUB SLT ISZERO PUSH2 0x1708 JUMPI PUSH1 0x0 DUP1 REVERT JUMPDEST DUP4 CALLDATALOAD SWAP3 POP PUSH1 0x20 DUP5 ADD CALLDATALOAD SWAP2 POP PUSH1 0x40 DUP5 ADD CALLDATALOAD PUSH8 0xFFFFFFFFFFFFFFFF DUP2 GT ISZERO PUSH2 0x172D JUMPI PUSH1 0x0 DUP1 REVERT JUMPDEST PUSH2 0x1739 DUP7 DUP3 DUP8 ADD PUSH2 0x1473 JUMP JUMPDEST SWAP2 POP POP SWAP3 POP SWAP3 POP SWAP3 JUMP JUMPDEST PUSH4 0x4E487B71 PUSH1 0xE0 SHL PUSH1 0x0 MSTORE PUSH1 0x32 PUSH1 0x4 MSTORE PUSH1 0x24 PUSH1 0x0 REVERT JUMPDEST PUSH4 0x4E487B71 PUSH1 0xE0 SHL PUSH1 0x0 MSTORE PUSH1 0x11 PUSH1 0x4 MSTORE PUSH1 0x24 PUSH1 0x0 REVERT JUMPDEST PUSH1 0x0 PUSH1 0x1 DUP3 ADD PUSH2 0x1781 JUMPI PUSH2 0x1781 PUSH2 0x1759 JUMP JUMPDEST POP PUSH1 0x1 ADD SWAP1 JUMP JUMPDEST PUSH1 0x0 PUSH1 0x20 DUP3 DUP5 SUB SLT ISZERO PUSH2 0x179A JUMPI PUSH1 0x0 DUP1 REVERT JUMPDEST DUP2 MLOAD PUSH2 0xAC4 DUP2 PUSH2 0x15D7 JUMP JUMPDEST DUP1 MLOAD PUSH2 0xFFFF DUP2 AND DUP2 EQ PUSH2 0x1602 JUMPI PUSH1 0x0 DUP1 REVERT JUMPDEST PUSH1 0x0 DUP1 PUSH1 0x0 DUP1 PUSH1 0x0 PUSH1 0xA0 DUP7 DUP9 SUB SLT ISZERO PUSH2 0x17CF JUMPI PUSH1 0x0 DUP1 REVERT JUMPDEST DUP6 MLOAD PUSH2 0x17DA DUP2 PUSH2 0x15D7 JUMP JUMPDEST PUSH1 0x20 DUP8 ADD MLOAD SWAP1 SWAP6 POP PUSH2 0x17EB DUP2 PUSH2 0x1607 JUMP JUMPDEST SWAP4 POP PUSH2 0x17F9 PUSH1 0x40 DUP8 ADD PUSH2 0x17A5 JUMP JUMPDEST SWAP3 POP PUSH2 0x1807 PUSH1 0x60 DUP8 ADD PUSH2 0x17A5 JUMP JUMPDEST SWAP2 POP PUSH2 0x1815 PUSH1 0x80 DUP8 ADD PUSH2 0x17A5 JUMP JUMPDEST SWAP1 POP SWAP3 SWAP6 POP SWAP3 SWAP6 SWAP1 SWAP4 POP JUMP JUMPDEST PUSH1 0x1 DUP2 DUP2 JUMPDEST DUP1 DUP6 GT ISZERO PUSH2 0x185C JUMPI DUP2 PUSH1 0x0 NOT DIV DUP3 GT ISZERO PUSH2 0x1842 JUMPI PUSH2 0x1842 PUSH2 0x1759 JUMP JUMPDEST DUP1 DUP6 AND ISZERO PUSH2 0x184F JUMPI SWAP2 DUP2 MUL SWAP2 JUMPDEST SWAP4 DUP5 SHR SWAP4 SWAP1 DUP1 MUL SWAP1 PUSH2 0x1826 JUMP JUMPDEST POP SWAP3 POP SWAP3 SWAP1 POP JUMP JUMPDEST PUSH1 0x0 DUP3 PUSH2 0x1873 JUMPI POP PUSH1 0x1 PUSH2 0x9D3 JUMP JUMPDEST DUP2 PUSH2 0x1880 JUMPI POP PUSH1 0x0 PUSH2 0x9D3 JUMP JUMPDEST DUP2 PUSH1 0x1 DUP2 EQ PUSH2 0x1896 JUMPI PUSH1 0x2 DUP2 EQ PUSH2 0x18A0 JUMPI PUSH2 0x18BC JUMP JUMPDEST PUSH1 0x1 SWAP2 POP POP PUSH2 0x9D3 JUMP JUMPDEST PUSH1 0xFF DUP5 GT ISZERO PUSH2 0x18B1 JUMPI PUSH2 0x18B1 PUSH2 0x1759 JUMP JUMPDEST POP POP PUSH1 0x1 DUP3 SHL PUSH2 0x9D3 JUMP JUMPDEST POP PUSH1 0x20 DUP4 LT PUSH2 0x133 DUP4 LT AND PUSH1 0x4E DUP5 LT PUSH1 0xB DUP5 LT AND OR ISZERO PUSH2 0x18DF JUMPI POP DUP2 DUP2 EXP PUSH2 0x9D3 JUMP JUMPDEST PUSH2 0x18E9 DUP4 DUP4 PUSH2 0x1821 JUMP JUMPDEST DUP1 PUSH1 0x0 NOT DIV DUP3 GT ISZERO PUSH2 0x18FD JUMPI PUSH2 0x18FD PUSH2 0x1759 JUMP JUMPDEST MUL SWAP4 SWAP3 POP POP POP JUMP JUMPDEST PUSH1 0x0 PUSH2 0xAC4 PUSH1 0xFF DUP5 AND DUP4 PUSH2 0x1864 JUMP JUMPDEST PUSH1 0x1 PUSH1 0x1 PUSH1 0xA0 SHL SUB DUP3 DUP2 AND DUP3 DUP3 AND SUB SWAP1 DUP1 DUP3 GT ISZERO PUSH2 0x1934 JUMPI PUSH2 0x1934 PUSH2 0x1759 JUMP JUMPDEST POP SWAP3 SWAP2 POP POP JUMP JUMPDEST PUSH1 0x1 PUSH1 0x1 PUSH1 0xA0 SHL SUB DUP2 DUP2 AND DUP4 DUP3 AND ADD SWAP1 DUP1 DUP3 GT ISZERO PUSH2 0x1934 JUMPI PUSH2 0x1934 PUSH2 0x1759 JUMP JUMPDEST PUSH1 0x0 PUSH1 0x1 DUP1 PUSH1 0xA0 SHL SUB DUP1 DUP9 AND DUP4 MSTORE PUSH1 0x20 DUP8 ISZERO ISZERO DUP2 DUP6 ADD MSTORE DUP7 PUSH1 0x40 DUP6 ADD MSTORE DUP2 DUP7 AND PUSH1 0x60 DUP6 ADD MSTORE PUSH1 0xA0 PUSH1 0x80 DUP6 ADD MSTORE DUP5 MLOAD SWAP2 POP DUP2 PUSH1 0xA0 DUP6 ADD MSTORE PUSH1 0x0 JUMPDEST DUP3 DUP2 LT ISZERO PUSH2 0x19B0 JUMPI DUP6 DUP2 ADD DUP3 ADD MLOAD DUP6 DUP3 ADD PUSH1 0xC0 ADD MSTORE DUP2 ADD PUSH2 0x1994 JUMP JUMPDEST POP POP PUSH1 0x0 PUSH1 0xC0 DUP3 DUP6 ADD ADD MSTORE PUSH1 0xC0 PUSH1 0x1F NOT PUSH1 0x1F DUP4 ADD AND DUP5 ADD ADD SWAP2 POP POP SWAP7 SWAP6 POP POP POP POP POP POP JUMP JUMPDEST PUSH1 0x0 DUP1 PUSH1 0x40 DUP4 DUP6 SUB SLT ISZERO PUSH2 0x19E8 JUMPI PUSH1 0x0 DUP1 REVERT JUMPDEST POP POP DUP1 MLOAD PUSH1 0x20 SWAP1 SWAP2 ADD MLOAD SWAP1 SWAP3 SWAP1 SWAP2 POP JUMP JUMPDEST PUSH1 0x0 DUP1 PUSH1 0x0 PUSH1 0x60 DUP5 DUP7 SUB SLT ISZERO PUSH2 0x1A0E JUMPI PUSH1 0x0 DUP1 REVERT JUMPDEST DUP4 MLOAD SWAP3 POP PUSH1 0x20 DUP5 ADD MLOAD PUSH2 0x1A20 DUP2 PUSH2 0x15D7 JUMP JUMPDEST PUSH1 0x40 DUP6 ADD MLOAD SWAP1 SWAP3 POP PUSH2 0x1A31 DUP2 PUSH2 0x1607 JUMP JUMPDEST DUP1 SWAP2 POP POP SWAP3 POP SWAP3 POP SWAP3 JUMP JUMPDEST PUSH1 0x0 PUSH1 0x1 PUSH1 0xFF SHL DUP3 ADD PUSH2 0x1A51 JUMPI PUSH2 0x1A51 PUSH2 0x1759 JUMP JUMPDEST POP PUSH1 0x0 SUB SWAP1 JUMP JUMPDEST DUP1 DUP3 ADD DUP1 DUP3 GT ISZERO PUSH2 0x9D3 JUMPI PUSH2 0x9D3 PUSH2 0x1759 JUMP JUMPDEST DUP2 DUP2 SUB DUP2 DUP2 GT ISZERO PUSH2 0x9D3 JUMPI PUSH2 0x9D3 PUSH2 0x1759 JUMP JUMPDEST PUSH4 0x4E487B71 PUSH1 0xE0 SHL PUSH1 0x0 MSTORE PUSH1 0x12 PUSH1 0x4 MSTORE PUSH1 0x24 PUSH1 0x0 REVERT JUMPDEST PUSH1 0x0 DUP3 PUSH2 0x1AA3 JUMPI PUSH2 0x1AA3 PUSH2 0x1A7E JUMP JUMPDEST POP DIV SWAP1 JUMP JUMPDEST PUSH1 0x0 DUP2 PUSH1 0x2 SIGNEXTEND PUSH3 0x7FFFFF NOT DUP2 SUB PUSH2 0x1AC1 JUMPI PUSH2 0x1AC1 PUSH2 0x1759 JUMP JUMPDEST PUSH1 0x0 SUB SWAP3 SWAP2 POP POP JUMP JUMPDEST DUP1 DUP3 MUL DUP2 ISZERO DUP3 DUP3 DIV DUP5 EQ OR PUSH2 0x9D3 JUMPI PUSH2 0x9D3 PUSH2 0x1759 JUMP JUMPDEST PUSH1 0x0 DUP3 PUSH2 0x1AF0 JUMPI PUSH2 0x1AF0 PUSH2 0x1A7E JUMP JUMPDEST POP MOD SWAP1 JUMP INVALID LOG2 PUSH5 0x6970667358 0x22 SLT KECCAK256 KECCAK256 0x23 0xE0 DUP13 KECCAK256 0x26 0x21 0xD8 CODESIZE 0xF6 ADDRESS 0xC1 0xB5 0xD3 0xFC 0xAA PUSH15 0xF24400DD82F180F37691C196C47D25 PUSH5 0x736F6C6343 STOP ADDMOD EQ STOP CALLER ",
    "sha1": "0e8f23343b993b772a74d352f82fd2e81430219e",
    "source": "// SPDX-License-Identifier: BUSL-1.1\npragma solidity ^0.8.14;\n\nimport \"./HelpFunctions.sol\";\nimport \"./PoolFactory.sol\";\n\nimport \"../interface_contracts/IUniswapV3Pool.sol\";\n\nimport \"./lib/Math.sol\";\nimport \"./lib/Path.sol\";\nimport \"./lib/PoolAddress.sol\";\nimport \"./lib/TickMath.sol\";\nimport \"./lib/LiquidityMath.sol\";\n\ncontract Quoter {\n    using Path for bytes;\n\n    address public immutable factory;\n    PoolFactory poolfactory;\n\n    constructor(address factory_) {\n        factory = factory_;\n        poolfactory = PoolFactory(factory);\n    }\n\n    /*\n    External\n     */\n    function uniswapV3SwapCallback(\n        int256 amount0Delta,\n        int256 amount1Delta,\n        bytes memory data\n    ) external view {\n        address pool = abi.decode(data, (address));\n        uint256 amountOut = amount0Delta > 0\n            ? uint256(-amount1Delta)\n            : uint256(-amount0Delta);\n        (uint160 sqrtPriceX96After, int24 tickAfter, , , ) = IUniswapV3Pool(\n            pool\n        ).slot0();\n        assembly {\n            let ptr := mload(0x40)\n            mstore(ptr, amountOut)\n            mstore(add(ptr, 0x20), sqrtPriceX96After)\n            mstore(add(ptr, 0x40), tickAfter)\n            revert(ptr, 96)\n        }\n    }\n\n    /*\n    Public\n     */\n    function quoteMulti(\n        bytes memory path,\n        uint256 amountIn\n    )\n        public\n        returns (\n            uint256 amountOut,\n            uint160[] memory sqrtPriceX96AfterList,\n            int24[] memory tickAfterList\n        )\n    {\n        sqrtPriceX96AfterList = new uint160[](path.numPools());\n        tickAfterList = new int24[](path.numPools());\n\n        uint256 i = 0;\n        while (true) {\n            (address tokenIn, address tokenOut, uint24 fee) = path\n                .decodeFirstPool();\n\n            (\n                uint256 amountOut_,\n                uint160 sqrtPriceX96After,\n                int24 tickAfter\n            ) = quoteSingle(tokenIn, tokenOut, fee,  amountIn, 0\n                );\n\n            sqrtPriceX96AfterList[i] = sqrtPriceX96After;\n            tickAfterList[i] = tickAfter;\n            amountIn = amountOut_;\n            i++;\n\n            if (path.hasMultiplePools()) {\n                path = path.skipToken();\n            } else {\n                amountOut = amountIn;\n                break;\n            }\n        }\n    }\n\n    function quoteSingle(\n        address tokenIn,\n        address tokenOut,\n        uint24 fee,\n        uint256 amountIn,\n        uint160 sqrtPriceLimitX96\n    )\n        public\n        returns (uint256 amountOut, uint160 sqrtPriceX96After, int24 tickAfter)\n    {\n        IUniswapV3Pool pool = IUniswapV3Pool(poolfactory.pools(\n            tokenIn,\n            tokenOut,\n            fee\n        )); \n \n        bool zeroForOne = tokenIn < tokenOut;\n\n        try\n            pool.swap(\n                address(this),\n                zeroForOne,\n                amountIn,\n                sqrtPriceLimitX96 == 0\n                    ? (\n                        zeroForOne\n                            ? TickMath.MIN_SQRT_RATIO + 1\n                            : TickMath.MAX_SQRT_RATIO - 1\n                    )\n                    : sqrtPriceLimitX96,\n                abi.encode(address(pool))\n            )\n        {} catch (bytes memory reason) {\n            bytes32 hashedRes = keccak256(reason);\n            if (keccak256(abi.encodeWithSignature(\"InvalidPriceLimit()\")) == hashedRes) {\n                revert('InvalidPriceLimit');\n            }else if (keccak256(abi.encodeWithSignature(\"NotEnoughLiquidity()\")) == hashedRes){\n                revert('NotEnoughLiquidity');\n            }\n            return abi.decode(reason, (uint256, uint160, int24));\n        } \n    }\n\n    /*\n    Public - View\n     */\n    function quoteLiqInputToken0(\n                address tokenIn,\n        address tokenOut,\n        uint24 fee,\n        int24 lowerTick,\n        int24 upperTick,\n        uint256 amountInDesired\n    ) public view returns (uint256 amount1) {\n        IUniswapV3Pool pool = HelpFunctions._getPool(\n            factory,\n            tokenIn,\n            tokenOut,\n            fee\n        );\n\n        (uint160 sqrtPriceX96, int24 tick, , , ) = pool.slot0();\n\n        if (tick < upperTick && tick > lowerTick) {\n            amount1 = Math.mulDivRoundingUp(\n                uint256(sqrtPriceX96),\n                uint256(amountInDesired),\n                uint256(2 ** 96)\n            );\n\n            uint128 liquidity = _getLiquidity(\n                lowerTick,\n                upperTick,\n                sqrtPriceX96,\n                amountInDesired,\n                amount1 ** 2\n            );\n\n            amount1 = Math.calcAmount1Delta(\n                TickMath.getSqrtRatioAtTick(lowerTick),\n                sqrtPriceX96,\n                liquidity,\n                false\n            );\n        }\n    }\n\n    function quoteLiqInputToken1(\n                address tokenIn,\n        address tokenOut,\n        uint24 fee,\n        int24 lowerTick,\n        int24 upperTick,\n        uint256 amountInDesired\n    ) public view returns (uint256 amount0) {\n        IUniswapV3Pool pool = HelpFunctions._getPool(\n            factory,\n            tokenIn,\n            tokenOut,\n            fee\n        );\n\n        (uint160 sqrtPriceX96, int24 tick, , , ) = pool.slot0();\n\n        if (tick < upperTick && tick > lowerTick) {\n            amount0 = Math.divRoundingUp(\n                amountInDesired,\n                Math.divRoundingUp(uint256(sqrtPriceX96), uint256(2 ** 96))\n            );\n\n            uint128 liquidity = _getLiquidity(\n                lowerTick,\n                upperTick,\n                sqrtPriceX96,\n                amount0 ** 2,\n                amountInDesired\n            );\n\n            amount0 = Math.calcAmount0Delta(\n                sqrtPriceX96,\n                TickMath.getSqrtRatioAtTick(upperTick),\n                liquidity,\n                false\n            );\n        }\n    }\n\n    /*\n    Internal - Pure\n     */\n    function _getLiquidity(\n        int24 lowerTick,\n        int24 upperTick,\n        uint160 sqrtPriceX96,\n        uint256 amountInDesired,\n        uint256 amountOutDesired\n    ) internal pure returns (uint128 liquidity) {\n        liquidity = LiquidityMath.getLiquidityForAmounts(\n            sqrtPriceX96,\n            TickMath.getSqrtRatioAtTick(lowerTick),\n            TickMath.getSqrtRatioAtTick(upperTick),\n            amountInDesired,\n            amountOutDesired\n        );\n    }\n}\n",
    "sourcePath": "contracts/Quoter.sol",
    "type": "contract"
}