{
    "abi": [
        {
            "inputs": [
                {
                    "internalType": "address",
                    "name": "factory_",
                    "type": "address"
                }
            ],
            "stateMutability": "nonpayable",
            "type": "constructor"
        },
        {
            "inputs": [
                {
                    "internalType": "uint256",
                    "name": "prod1",
                    "type": "uint256"
                },
                {
                    "internalType": "uint256",
                    "name": "denominator",
                    "type": "uint256"
                }
            ],
            "name": "PRBMath__MulDivOverflow",
            "type": "error"
        },
        {
            "inputs": [],
            "name": "factory",
            "outputs": [
                {
                    "internalType": "address",
                    "name": "",
                    "type": "address"
                }
            ],
            "stateMutability": "view",
            "type": "function"
        },
        {
            "inputs": [
                {
                    "components": [
                        {
                            "internalType": "address",
                            "name": "tokenIn",
                            "type": "address"
                        },
                        {
                            "internalType": "address",
                            "name": "tokenOut",
                            "type": "address"
                        },
                        {
                            "internalType": "uint24",
                            "name": "fee",
                            "type": "uint24"
                        },
                        {
                            "internalType": "int24",
                            "name": "lowerTick",
                            "type": "int24"
                        },
                        {
                            "internalType": "int24",
                            "name": "upperTick",
                            "type": "int24"
                        },
                        {
                            "internalType": "uint256",
                            "name": "amountInDesired",
                            "type": "uint256"
                        }
                    ],
                    "internalType": "struct Quoter.LiqInputTokenParams",
                    "name": "params",
                    "type": "tuple"
                }
            ],
            "name": "quoteLiqInputToken0",
            "outputs": [
                {
                    "internalType": "uint256",
                    "name": "amount1",
                    "type": "uint256"
                }
            ],
            "stateMutability": "view",
            "type": "function"
        },
        {
            "inputs": [
                {
                    "components": [
                        {
                            "internalType": "address",
                            "name": "tokenIn",
                            "type": "address"
                        },
                        {
                            "internalType": "address",
                            "name": "tokenOut",
                            "type": "address"
                        },
                        {
                            "internalType": "uint24",
                            "name": "fee",
                            "type": "uint24"
                        },
                        {
                            "internalType": "int24",
                            "name": "lowerTick",
                            "type": "int24"
                        },
                        {
                            "internalType": "int24",
                            "name": "upperTick",
                            "type": "int24"
                        },
                        {
                            "internalType": "uint256",
                            "name": "amountInDesired",
                            "type": "uint256"
                        }
                    ],
                    "internalType": "struct Quoter.LiqInputTokenParams",
                    "name": "params",
                    "type": "tuple"
                }
            ],
            "name": "quoteLiqInputToken1",
            "outputs": [
                {
                    "internalType": "uint256",
                    "name": "amount0",
                    "type": "uint256"
                }
            ],
            "stateMutability": "view",
            "type": "function"
        },
        {
            "inputs": [
                {
                    "internalType": "bytes",
                    "name": "path",
                    "type": "bytes"
                },
                {
                    "internalType": "uint256",
                    "name": "amountIn",
                    "type": "uint256"
                }
            ],
            "name": "quoteMulti",
            "outputs": [
                {
                    "internalType": "uint256",
                    "name": "amountOut",
                    "type": "uint256"
                },
                {
                    "internalType": "uint160[]",
                    "name": "sqrtPriceX96AfterList",
                    "type": "uint160[]"
                },
                {
                    "internalType": "int24[]",
                    "name": "tickAfterList",
                    "type": "int24[]"
                }
            ],
            "stateMutability": "nonpayable",
            "type": "function"
        },
        {
            "inputs": [
                {
                    "internalType": "address",
                    "name": "tokenIn",
                    "type": "address"
                },
                {
                    "internalType": "address",
                    "name": "tokenOut",
                    "type": "address"
                },
                {
                    "internalType": "uint24",
                    "name": "fee",
                    "type": "uint24"
                },
                {
                    "internalType": "uint256",
                    "name": "amountIn",
                    "type": "uint256"
                },
                {
                    "internalType": "uint160",
                    "name": "sqrtPriceLimitX96",
                    "type": "uint160"
                }
            ],
            "name": "quoteSingle",
            "outputs": [
                {
                    "internalType": "uint256",
                    "name": "amountOut",
                    "type": "uint256"
                },
                {
                    "internalType": "uint160",
                    "name": "sqrtPriceX96After",
                    "type": "uint160"
                },
                {
                    "internalType": "int24",
                    "name": "tickAfter",
                    "type": "int24"
                }
            ],
            "stateMutability": "nonpayable",
            "type": "function"
        },
        {
            "inputs": [
                {
                    "internalType": "int256",
                    "name": "amount0Delta",
                    "type": "int256"
                },
                {
                    "internalType": "int256",
                    "name": "amount1Delta",
                    "type": "int256"
                },
                {
                    "internalType": "bytes",
                    "name": "data",
                    "type": "bytes"
                }
            ],
            "name": "uniswapV3SwapCallback",
            "outputs": [],
            "stateMutability": "view",
            "type": "function"
        }
    ],
    "bytecode": "60a060405234801561001057600080fd5b50604051611b67380380611b6783398101604081905261002f91610055565b6001600160a01b03166080819052600080546001600160a01b0319169091179055610085565b60006020828403121561006757600080fd5b81516001600160a01b038116811461007e57600080fd5b9392505050565b608051611aba6100ad6000396000818160cb015281816102ef01526104cc0152611aba6000f3fe608060405234801561001057600080fd5b50600436106100625760003560e01c8063260a5b03146100675780637a19fd6514610092578063b3006639146100b3578063c45a0155146100c6578063e95dbb6914610105578063fa461e331461013e575b600080fd5b61007a610075366004611464565b610153565b604051610089939291906114a9565b60405180910390f35b6100a56100a036600461157a565b6102cc565b604051908152602001610089565b6100a56100c136600461157a565b6104a9565b6100ed7f000000000000000000000000000000000000000000000000000000000000000081565b6040516001600160a01b039091168152602001610089565b61011861011336600461161c565b610667565b604080519384526001600160a01b03909216602084015260020b90820152606001610089565b61015161014c366004611682565b61084f565b005b60006060806101618561090c565b67ffffffffffffffff811115610179576101796113c1565b6040519080825280602002602001820160405280156101a2578160200160208202803683370190505b5091506101ae8561090c565b67ffffffffffffffff8111156101c6576101c66113c1565b6040519080825280602002602001820160405280156101ef578160200160208202803683370190505b50905060005b600080600061020389610938565b925092509250600080600061021c8686868e6000610667565b92509250925081898881518110610235576102356116d2565b60200260200101906001600160a01b031690816001600160a01b03168152505080888881518110610268576102686116d2565b602002602001019060020b908160020b81525050829a50868061028a906116fe565b9750506102968c610974565b156102ab576102a48c6109ae565b9b506102b9565b8a99505050505050506102c4565b5050505050506101f5565b509250925092565b805160208201516040808401519051631c9956ed60e31b81526001600160a01b037f000000000000000000000000000000000000000000000000000000000000000081166004830152938416602482015292909116604483015262ffffff1660648201526000908190739828dc171e405abf5282769f90461a6e284fa5839063e4cab76890608401602060405180830381865af4158015610371573d6000803e3d6000fd5b505050506040513d601f19601f820116820180604052508101906103959190611717565b9050600080826001600160a01b0316633850c7bd6040518163ffffffff1660e01b815260040160a060405180830381865afa1580156103d8573d6000803e3d6000fd5b505050506040513d601f19601f820116820180604052508101906103fc9190611746565b50505091509150846080015160020b8160020b1280156104255750846060015160020b8160020b135b156104a15760a0850151600160601b6001600160a01b038416046bffffffffffffffffffffffff841615150180820615159104019350600061048286606001518760800151856002896104789190611894565b8a60a001516109df565b905061049d836104958860800151610a08565b836000610e2f565b9450505b505050919050565b805160208201516040808401519051631c9956ed60e31b81526001600160a01b037f000000000000000000000000000000000000000000000000000000000000000081166004830152938416602482015292909116604483015262ffffff1660648201526000908190739828dc171e405abf5282769f90461a6e284fa5839063e4cab76890608401602060405180830381865af415801561054e573d6000803e3d6000fd5b505050506040513d601f19601f820116820180604052508101906105729190611717565b9050600080826001600160a01b0316633850c7bd6040518163ffffffff1660e01b815260040160a060405180830381865afa1580156105b5573d6000803e3d6000fd5b505050506040513d601f19601f820116820180604052508101906105d99190611746565b50505091509150846080015160020b8160020b1280156106025750846060015160020b8160020b135b156104a157610623826001600160a01b03168660a00151600160601b610f04565b9350600061064c86606001518760800151858960a0015160028a6106479190611894565b6109df565b905061049d61065e8760600151610a08565b84836000610f4f565b6000805460405163175c1b2360e31b81526001600160a01b038881166004830152878116602483015262ffffff871660448301528392839283929091169063bae0d91890606401602060405180830381865afa1580156106cb573d6000803e3d6000fd5b505050506040513d601f19601f820116820180604052508101906106ef9190611717565b90506000886001600160a01b03168a6001600160a01b0316109050816001600160a01b031663dd5a12d830838a8a6001600160a01b0316600014610733578a61076c565b8561075c57610757600173fffd8963efd1fc6a506488495d951d5263988d266118a3565b61076c565b61076c6401000276a360016118ca565b604080516001600160a01b038a166020820152016040516020818303038152906040526040518663ffffffff1660e01b81526004016107af9594939291906118ea565b60408051808303816000875af19250505080156107e9575060408051601f3d908101601f191682019092526107e691810190611964565b60015b61083f573d808015610817576040519150601f19603f3d011682016040523d82523d6000602084013e61081c565b606091505b50808060200190518101906108319190611988565b955095509550505050610844565b505050505b955095509592505050565b6000818060200190518101906108659190611717565b9050600080851361087e57610879856119cb565b610887565b610887846119cb565b9050600080836001600160a01b0316633850c7bd6040518163ffffffff1660e01b815260040160a060405180830381865afa1580156108ca573d6000803e3d6000fd5b505050506040513d601f19601f820116820180604052508101906108ee9190611746565b50505091509150604051838152826020820152816040820152606081fd5b600061091a600360146119e7565b6014835161092891906119fa565b6109329190611a23565b92915050565b600080806109468482610fd9565b925061095384601461103e565b905061096b610964600360146119e7565b8590610fd9565b91509193909250565b6000610982600360146119e7565b601461098f6003826119e7565b61099991906119e7565b6109a391906119e7565b825110159050919050565b60606109326109bf600360146119e7565b6109cb600360146119e7565b84516109d791906119fa565b84919061109b565b60006109fe846109ee88610a08565b6109f788610a08565b86866111a8565b9695505050505050565b60008060008360020b12610a1f578260020b610a2c565b8260020b610a2c906119cb565b9050610a3b620d89e719611a37565b62ffffff16811115610a785760405162461bcd60e51b81526020600482015260016024820152601560fa1b60448201526064015b60405180910390fd5b600081600116600003610a8f57600160801b610aa1565b6ffffcb933bd6fad37aa2d162d1a5940015b70ffffffffffffffffffffffffffffffffff1690506002821615610ae0576080610adb826ffff97272373d413259a46990580e213a611a59565b901c90505b6004821615610b0a576080610b05826ffff2e50f5f656932ef12357cf3c7fdcc611a59565b901c90505b6008821615610b34576080610b2f826fffe5caca7e10e4e61c3624eaa0941cd0611a59565b901c90505b6010821615610b5e576080610b59826fffcb9843d60f6159c9db58835c926644611a59565b901c90505b6020821615610b88576080610b83826fff973b41fa98c081472e6896dfb254c0611a59565b901c90505b6040821615610bb2576080610bad826fff2ea16466c96a3843ec78b326b52861611a59565b901c90505b6080821615610bdc576080610bd7826ffe5dee046a99a2a811c461f1969c3053611a59565b901c90505b610100821615610c07576080610c02826ffcbe86c7900a88aedcffc83b479aa3a4611a59565b901c90505b610200821615610c32576080610c2d826ff987a7253ac413176f2b074cf7815e54611a59565b901c90505b610400821615610c5d576080610c58826ff3392b0822b70005940c7a398e4b70f3611a59565b901c90505b610800821615610c88576080610c83826fe7159475a2c29b7443b29c7fa6e889d9611a59565b901c90505b611000821615610cb3576080610cae826fd097f3bdfd2022b8845ad8f792aa5825611a59565b901c90505b612000821615610cde576080610cd9826fa9f746462d870fdf8a65dc1f90e061e5611a59565b901c90505b614000821615610d09576080610d04826f70d869a156d2a1b890bb3df62baf32f7611a59565b901c90505b618000821615610d34576080610d2f826f31be135f97d08fd981231505542fcfa6611a59565b901c90505b62010000821615610d60576080610d5b826f09aa508b5b7a84e1c677de54f3e99bc9611a59565b901c90505b62020000821615610d8b576080610d86826e5d6af8dedb81196699c329225ee604611a59565b901c90505b62040000821615610db5576080610db0826d2216e584f5fa1ea926041bedfe98611a59565b901c90505b62080000821615610ddd576080610dd8826b048a170391f7dc42444e8fa2611a59565b901c90505b60008460020b1315610df857610df581600019611a23565b90505b610e0764010000000082611a70565b15610e13576001610e16565b60005b610e279060ff16602083901c6119e7565b949350505050565b6000836001600160a01b0316856001600160a01b03161115610e4f579293925b6000856001600160a01b031611610e6557600080fd5b6fffffffffffffffffffffffffffffffff60601b606084901b166000610e8b87876118a3565b6001600160a01b031690508315610ecf57610ec8610eb38383896001600160a01b0316610f04565b886001600160a01b0316808204910615150190565b9250610efa565b866001600160a01b0316610eed8383896001600160a01b031661125f565b610ef79190611a23565b92505b5050949350505050565b6000610f1184848461125f565b905060008280610f2357610f23611a0d565b8486091115610f48576000198110610f3a57600080fd5b80610f44816116fe565b9150505b9392505050565b6000836001600160a01b0316856001600160a01b03161115610f6f579293925b8115610fa657610f9f6001600160801b038416610f8c87876118a3565b6001600160a01b0316600160601b610f04565b9050610e27565b610fd06001600160801b038416610fbd87876118a3565b6001600160a01b0316600160601b61125f565b95945050505050565b6000610fe68260146119e7565b8351101561102e5760405162461bcd60e51b8152602060048201526015602482015274746f416464726573735f6f75744f66426f756e647360581b6044820152606401610a6f565b500160200151600160601b900490565b600061104b8260036119e7565b835110156110925760405162461bcd60e51b8152602060048201526014602482015273746f55696e7432345f6f75744f66426f756e647360601b6044820152606401610a6f565b50016003015190565b6060816110a981601f6119e7565b10156110e85760405162461bcd60e51b815260206004820152600e60248201526d736c6963655f6f766572666c6f7760901b6044820152606401610a6f565b6110f282846119e7565b845110156111365760405162461bcd60e51b8152602060048201526011602482015270736c6963655f6f75744f66426f756e647360781b6044820152606401610a6f565b606082158015611155576040519150600082526020820160405261119f565b6040519150601f8416801560200281840101858101878315602002848b0101015b8183101561118e578051835260209283019201611176565b5050858452601f01601f1916604052505b50949350505050565b6000836001600160a01b0316856001600160a01b031611156111c8579293925b846001600160a01b0316866001600160a01b0316116111f3576111ec85858561132c565b9050610fd0565b836001600160a01b0316866001600160a01b03161161125457600061121987868661132c565b9050600061122887898661138e565b9050806001600160801b0316826001600160801b031610611249578061124b565b815b92505050610fd0565b6109fe85858461138e565b60008080600019858709858702925082811083820303915050806000036112995783828161128f5761128f611a0d565b0492505050610f48565b8381106112c357604051631dcf306360e21b81526004810182905260248101859052604401610a6f565b60008486880960026001871981018816978890046003810283188082028403028082028403028082028403028082028403028082028403029081029092039091026000889003889004909101858311909403939093029303949094049190911702949350505050565b6000826001600160a01b0316846001600160a01b0316111561134c579192915b600061136f856001600160a01b0316856001600160a01b0316600160601b61125f565b9050610f44838261138088886118a3565b6001600160a01b031661125f565b6000826001600160a01b0316846001600160a01b031611156113ae579192915b610e2782600160601b61138087876118a3565b634e487b7160e01b600052604160045260246000fd5b600082601f8301126113e857600080fd5b813567ffffffffffffffff80821115611403576114036113c1565b604051601f8301601f19908116603f0116810190828211818310171561142b5761142b6113c1565b8160405283815286602085880101111561144457600080fd5b836020870160208301376000602085830101528094505050505092915050565b6000806040838503121561147757600080fd5b823567ffffffffffffffff81111561148e57600080fd5b61149a858286016113d7565b95602094909401359450505050565b6000606082018583526020606081850152818651808452608086019150828801935060005b818110156114f35784516001600160a01b0316835293830193918301916001016114ce565b50508481036040860152855180825290820192508186019060005b8181101561152d57825160020b8552938301939183019160010161150e565b509298975050505050505050565b6001600160a01b038116811461155057600080fd5b50565b803562ffffff8116811461156657600080fd5b919050565b8060020b811461155057600080fd5b600060c0828403121561158c57600080fd5b60405160c0810181811067ffffffffffffffff821117156115af576115af6113c1565b60405282356115bd8161153b565b815260208301356115cd8161153b565b60208201526115de60408401611553565b604082015260608301356115f18161156b565b606082015260808301356116048161156b565b608082015260a0928301359281019290925250919050565b600080600080600060a0868803121561163457600080fd5b853561163f8161153b565b9450602086013561164f8161153b565b935061165d60408701611553565b92506060860135915060808601356116748161153b565b809150509295509295909350565b60008060006060848603121561169757600080fd5b8335925060208401359150604084013567ffffffffffffffff8111156116bc57600080fd5b6116c8868287016113d7565b9150509250925092565b634e487b7160e01b600052603260045260246000fd5b634e487b7160e01b600052601160045260246000fd5b600060018201611710576117106116e8565b5060010190565b60006020828403121561172957600080fd5b8151610f488161153b565b805161ffff8116811461156657600080fd5b600080600080600060a0868803121561175e57600080fd5b85516117698161153b565b602087015190955061177a8161156b565b935061178860408701611734565b925061179660608701611734565b91506117a460808701611734565b90509295509295909350565b600181815b808511156117eb5781600019048211156117d1576117d16116e8565b808516156117de57918102915b93841c93908002906117b5565b509250929050565b60008261180257506001610932565b8161180f57506000610932565b8160018114611825576002811461182f5761184b565b6001915050610932565b60ff841115611840576118406116e8565b50506001821b610932565b5060208310610133831016604e8410600b841016171561186e575081810a610932565b61187883836117b0565b806000190482111561188c5761188c6116e8565b029392505050565b6000610f4860ff8416836117f3565b6001600160a01b038281168282160390808211156118c3576118c36116e8565b5092915050565b6001600160a01b038181168382160190808211156118c3576118c36116e8565b600060018060a01b038088168352602087151581850152866040850152818616606085015260a06080850152845191508160a085015260005b8281101561193f5785810182015185820160c001528101611923565b5050600060c0828501015260c0601f19601f8301168401019150509695505050505050565b6000806040838503121561197757600080fd5b505080516020909101519092909150565b60008060006060848603121561199d57600080fd5b8351925060208401516119af8161153b565b60408501519092506119c08161156b565b809150509250925092565b6000600160ff1b82016119e0576119e06116e8565b5060000390565b80820180821115610932576109326116e8565b81810381811115610932576109326116e8565b634e487b7160e01b600052601260045260246000fd5b600082611a3257611a32611a0d565b500490565b60008160020b627fffff198103611a5057611a506116e8565b60000392915050565b8082028115828204841417610932576109326116e8565b600082611a7f57611a7f611a0d565b50069056fea2646970667358221220bc7d7a738fc8ef90093b6affb80b52cf68d90dc339a9d5d555841d8e1445646964736f6c63430008140033",
    "bytecodeSha1": "e834bc4532bdeada49363853858bb95bd9bcda49",
    "compiler": {
        "evm_version": "istanbul",
        "optimizer": {
            "enabled": true,
            "runs": 200
        },
        "version": "0.8.20+commit.a1b79de6"
    },
    "contractName": "Quoter",
    "deployedBytecode": "608060405234801561001057600080fd5b50600436106100625760003560e01c8063260a5b03146100675780637a19fd6514610092578063b3006639146100b3578063c45a0155146100c6578063e95dbb6914610105578063fa461e331461013e575b600080fd5b61007a610075366004611464565b610153565b604051610089939291906114a9565b60405180910390f35b6100a56100a036600461157a565b6102cc565b604051908152602001610089565b6100a56100c136600461157a565b6104a9565b6100ed7f000000000000000000000000000000000000000000000000000000000000000081565b6040516001600160a01b039091168152602001610089565b61011861011336600461161c565b610667565b604080519384526001600160a01b03909216602084015260020b90820152606001610089565b61015161014c366004611682565b61084f565b005b60006060806101618561090c565b67ffffffffffffffff811115610179576101796113c1565b6040519080825280602002602001820160405280156101a2578160200160208202803683370190505b5091506101ae8561090c565b67ffffffffffffffff8111156101c6576101c66113c1565b6040519080825280602002602001820160405280156101ef578160200160208202803683370190505b50905060005b600080600061020389610938565b925092509250600080600061021c8686868e6000610667565b92509250925081898881518110610235576102356116d2565b60200260200101906001600160a01b031690816001600160a01b03168152505080888881518110610268576102686116d2565b602002602001019060020b908160020b81525050829a50868061028a906116fe565b9750506102968c610974565b156102ab576102a48c6109ae565b9b506102b9565b8a99505050505050506102c4565b5050505050506101f5565b509250925092565b805160208201516040808401519051631c9956ed60e31b81526001600160a01b037f000000000000000000000000000000000000000000000000000000000000000081166004830152938416602482015292909116604483015262ffffff166064820152600090819073__$0298c9f31864cd8aa139f2173091fa1ee4$__9063e4cab76890608401602060405180830381865af4158015610371573d6000803e3d6000fd5b505050506040513d601f19601f820116820180604052508101906103959190611717565b9050600080826001600160a01b0316633850c7bd6040518163ffffffff1660e01b815260040160a060405180830381865afa1580156103d8573d6000803e3d6000fd5b505050506040513d601f19601f820116820180604052508101906103fc9190611746565b50505091509150846080015160020b8160020b1280156104255750846060015160020b8160020b135b156104a15760a0850151600160601b6001600160a01b038416046bffffffffffffffffffffffff841615150180820615159104019350600061048286606001518760800151856002896104789190611894565b8a60a001516109df565b905061049d836104958860800151610a08565b836000610e2f565b9450505b505050919050565b805160208201516040808401519051631c9956ed60e31b81526001600160a01b037f000000000000000000000000000000000000000000000000000000000000000081166004830152938416602482015292909116604483015262ffffff166064820152600090819073__$0298c9f31864cd8aa139f2173091fa1ee4$__9063e4cab76890608401602060405180830381865af415801561054e573d6000803e3d6000fd5b505050506040513d601f19601f820116820180604052508101906105729190611717565b9050600080826001600160a01b0316633850c7bd6040518163ffffffff1660e01b815260040160a060405180830381865afa1580156105b5573d6000803e3d6000fd5b505050506040513d601f19601f820116820180604052508101906105d99190611746565b50505091509150846080015160020b8160020b1280156106025750846060015160020b8160020b135b156104a157610623826001600160a01b03168660a00151600160601b610f04565b9350600061064c86606001518760800151858960a0015160028a6106479190611894565b6109df565b905061049d61065e8760600151610a08565b84836000610f4f565b6000805460405163175c1b2360e31b81526001600160a01b038881166004830152878116602483015262ffffff871660448301528392839283929091169063bae0d91890606401602060405180830381865afa1580156106cb573d6000803e3d6000fd5b505050506040513d601f19601f820116820180604052508101906106ef9190611717565b90506000886001600160a01b03168a6001600160a01b0316109050816001600160a01b031663dd5a12d830838a8a6001600160a01b0316600014610733578a61076c565b8561075c57610757600173fffd8963efd1fc6a506488495d951d5263988d266118a3565b61076c565b61076c6401000276a360016118ca565b604080516001600160a01b038a166020820152016040516020818303038152906040526040518663ffffffff1660e01b81526004016107af9594939291906118ea565b60408051808303816000875af19250505080156107e9575060408051601f3d908101601f191682019092526107e691810190611964565b60015b61083f573d808015610817576040519150601f19603f3d011682016040523d82523d6000602084013e61081c565b606091505b50808060200190518101906108319190611988565b955095509550505050610844565b505050505b955095509592505050565b6000818060200190518101906108659190611717565b9050600080851361087e57610879856119cb565b610887565b610887846119cb565b9050600080836001600160a01b0316633850c7bd6040518163ffffffff1660e01b815260040160a060405180830381865afa1580156108ca573d6000803e3d6000fd5b505050506040513d601f19601f820116820180604052508101906108ee9190611746565b50505091509150604051838152826020820152816040820152606081fd5b600061091a600360146119e7565b6014835161092891906119fa565b6109329190611a23565b92915050565b600080806109468482610fd9565b925061095384601461103e565b905061096b610964600360146119e7565b8590610fd9565b91509193909250565b6000610982600360146119e7565b601461098f6003826119e7565b61099991906119e7565b6109a391906119e7565b825110159050919050565b60606109326109bf600360146119e7565b6109cb600360146119e7565b84516109d791906119fa565b84919061109b565b60006109fe846109ee88610a08565b6109f788610a08565b86866111a8565b9695505050505050565b60008060008360020b12610a1f578260020b610a2c565b8260020b610a2c906119cb565b9050610a3b620d89e719611a37565b62ffffff16811115610a785760405162461bcd60e51b81526020600482015260016024820152601560fa1b60448201526064015b60405180910390fd5b600081600116600003610a8f57600160801b610aa1565b6ffffcb933bd6fad37aa2d162d1a5940015b70ffffffffffffffffffffffffffffffffff1690506002821615610ae0576080610adb826ffff97272373d413259a46990580e213a611a59565b901c90505b6004821615610b0a576080610b05826ffff2e50f5f656932ef12357cf3c7fdcc611a59565b901c90505b6008821615610b34576080610b2f826fffe5caca7e10e4e61c3624eaa0941cd0611a59565b901c90505b6010821615610b5e576080610b59826fffcb9843d60f6159c9db58835c926644611a59565b901c90505b6020821615610b88576080610b83826fff973b41fa98c081472e6896dfb254c0611a59565b901c90505b6040821615610bb2576080610bad826fff2ea16466c96a3843ec78b326b52861611a59565b901c90505b6080821615610bdc576080610bd7826ffe5dee046a99a2a811c461f1969c3053611a59565b901c90505b610100821615610c07576080610c02826ffcbe86c7900a88aedcffc83b479aa3a4611a59565b901c90505b610200821615610c32576080610c2d826ff987a7253ac413176f2b074cf7815e54611a59565b901c90505b610400821615610c5d576080610c58826ff3392b0822b70005940c7a398e4b70f3611a59565b901c90505b610800821615610c88576080610c83826fe7159475a2c29b7443b29c7fa6e889d9611a59565b901c90505b611000821615610cb3576080610cae826fd097f3bdfd2022b8845ad8f792aa5825611a59565b901c90505b612000821615610cde576080610cd9826fa9f746462d870fdf8a65dc1f90e061e5611a59565b901c90505b614000821615610d09576080610d04826f70d869a156d2a1b890bb3df62baf32f7611a59565b901c90505b618000821615610d34576080610d2f826f31be135f97d08fd981231505542fcfa6611a59565b901c90505b62010000821615610d60576080610d5b826f09aa508b5b7a84e1c677de54f3e99bc9611a59565b901c90505b62020000821615610d8b576080610d86826e5d6af8dedb81196699c329225ee604611a59565b901c90505b62040000821615610db5576080610db0826d2216e584f5fa1ea926041bedfe98611a59565b901c90505b62080000821615610ddd576080610dd8826b048a170391f7dc42444e8fa2611a59565b901c90505b60008460020b1315610df857610df581600019611a23565b90505b610e0764010000000082611a70565b15610e13576001610e16565b60005b610e279060ff16602083901c6119e7565b949350505050565b6000836001600160a01b0316856001600160a01b03161115610e4f579293925b6000856001600160a01b031611610e6557600080fd5b6fffffffffffffffffffffffffffffffff60601b606084901b166000610e8b87876118a3565b6001600160a01b031690508315610ecf57610ec8610eb38383896001600160a01b0316610f04565b886001600160a01b0316808204910615150190565b9250610efa565b866001600160a01b0316610eed8383896001600160a01b031661125f565b610ef79190611a23565b92505b5050949350505050565b6000610f1184848461125f565b905060008280610f2357610f23611a0d565b8486091115610f48576000198110610f3a57600080fd5b80610f44816116fe565b9150505b9392505050565b6000836001600160a01b0316856001600160a01b03161115610f6f579293925b8115610fa657610f9f6001600160801b038416610f8c87876118a3565b6001600160a01b0316600160601b610f04565b9050610e27565b610fd06001600160801b038416610fbd87876118a3565b6001600160a01b0316600160601b61125f565b95945050505050565b6000610fe68260146119e7565b8351101561102e5760405162461bcd60e51b8152602060048201526015602482015274746f416464726573735f6f75744f66426f756e647360581b6044820152606401610a6f565b500160200151600160601b900490565b600061104b8260036119e7565b835110156110925760405162461bcd60e51b8152602060048201526014602482015273746f55696e7432345f6f75744f66426f756e647360601b6044820152606401610a6f565b50016003015190565b6060816110a981601f6119e7565b10156110e85760405162461bcd60e51b815260206004820152600e60248201526d736c6963655f6f766572666c6f7760901b6044820152606401610a6f565b6110f282846119e7565b845110156111365760405162461bcd60e51b8152602060048201526011602482015270736c6963655f6f75744f66426f756e647360781b6044820152606401610a6f565b606082158015611155576040519150600082526020820160405261119f565b6040519150601f8416801560200281840101858101878315602002848b0101015b8183101561118e578051835260209283019201611176565b5050858452601f01601f1916604052505b50949350505050565b6000836001600160a01b0316856001600160a01b031611156111c8579293925b846001600160a01b0316866001600160a01b0316116111f3576111ec85858561132c565b9050610fd0565b836001600160a01b0316866001600160a01b03161161125457600061121987868661132c565b9050600061122887898661138e565b9050806001600160801b0316826001600160801b031610611249578061124b565b815b92505050610fd0565b6109fe85858461138e565b60008080600019858709858702925082811083820303915050806000036112995783828161128f5761128f611a0d565b0492505050610f48565b8381106112c357604051631dcf306360e21b81526004810182905260248101859052604401610a6f565b60008486880960026001871981018816978890046003810283188082028403028082028403028082028403028082028403028082028403029081029092039091026000889003889004909101858311909403939093029303949094049190911702949350505050565b6000826001600160a01b0316846001600160a01b0316111561134c579192915b600061136f856001600160a01b0316856001600160a01b0316600160601b61125f565b9050610f44838261138088886118a3565b6001600160a01b031661125f565b6000826001600160a01b0316846001600160a01b031611156113ae579192915b610e2782600160601b61138087876118a3565b634e487b7160e01b600052604160045260246000fd5b600082601f8301126113e857600080fd5b813567ffffffffffffffff80821115611403576114036113c1565b604051601f8301601f19908116603f0116810190828211818310171561142b5761142b6113c1565b8160405283815286602085880101111561144457600080fd5b836020870160208301376000602085830101528094505050505092915050565b6000806040838503121561147757600080fd5b823567ffffffffffffffff81111561148e57600080fd5b61149a858286016113d7565b95602094909401359450505050565b6000606082018583526020606081850152818651808452608086019150828801935060005b818110156114f35784516001600160a01b0316835293830193918301916001016114ce565b50508481036040860152855180825290820192508186019060005b8181101561152d57825160020b8552938301939183019160010161150e565b509298975050505050505050565b6001600160a01b038116811461155057600080fd5b50565b803562ffffff8116811461156657600080fd5b919050565b8060020b811461155057600080fd5b600060c0828403121561158c57600080fd5b60405160c0810181811067ffffffffffffffff821117156115af576115af6113c1565b60405282356115bd8161153b565b815260208301356115cd8161153b565b60208201526115de60408401611553565b604082015260608301356115f18161156b565b606082015260808301356116048161156b565b608082015260a0928301359281019290925250919050565b600080600080600060a0868803121561163457600080fd5b853561163f8161153b565b9450602086013561164f8161153b565b935061165d60408701611553565b92506060860135915060808601356116748161153b565b809150509295509295909350565b60008060006060848603121561169757600080fd5b8335925060208401359150604084013567ffffffffffffffff8111156116bc57600080fd5b6116c8868287016113d7565b9150509250925092565b634e487b7160e01b600052603260045260246000fd5b634e487b7160e01b600052601160045260246000fd5b600060018201611710576117106116e8565b5060010190565b60006020828403121561172957600080fd5b8151610f488161153b565b805161ffff8116811461156657600080fd5b600080600080600060a0868803121561175e57600080fd5b85516117698161153b565b602087015190955061177a8161156b565b935061178860408701611734565b925061179660608701611734565b91506117a460808701611734565b90509295509295909350565b600181815b808511156117eb5781600019048211156117d1576117d16116e8565b808516156117de57918102915b93841c93908002906117b5565b509250929050565b60008261180257506001610932565b8161180f57506000610932565b8160018114611825576002811461182f5761184b565b6001915050610932565b60ff841115611840576118406116e8565b50506001821b610932565b5060208310610133831016604e8410600b841016171561186e575081810a610932565b61187883836117b0565b806000190482111561188c5761188c6116e8565b029392505050565b6000610f4860ff8416836117f3565b6001600160a01b038281168282160390808211156118c3576118c36116e8565b5092915050565b6001600160a01b038181168382160190808211156118c3576118c36116e8565b600060018060a01b038088168352602087151581850152866040850152818616606085015260a06080850152845191508160a085015260005b8281101561193f5785810182015185820160c001528101611923565b5050600060c0828501015260c0601f19601f8301168401019150509695505050505050565b6000806040838503121561197757600080fd5b505080516020909101519092909150565b60008060006060848603121561199d57600080fd5b8351925060208401516119af8161153b565b60408501519092506119c08161156b565b809150509250925092565b6000600160ff1b82016119e0576119e06116e8565b5060000390565b80820180821115610932576109326116e8565b81810381811115610932576109326116e8565b634e487b7160e01b600052601260045260246000fd5b600082611a3257611a32611a0d565b500490565b60008160020b627fffff198103611a5057611a506116e8565b60000392915050565b8082028115828204841417610932576109326116e8565b600082611a7f57611a7f611a0d565b50069056fea2646970667358221220bc7d7a738fc8ef90093b6affb80b52cf68d90dc339a9d5d555841d8e1445646964736f6c63430008140033",
    "language": "Solidity",
    "natspec": {
        "errors": {
            "PRBMath__MulDivOverflow(uint256,uint256)": [
                {
                    "notice": "Emitted when the result overflows uint256."
                }
            ]
        },
        "kind": "dev",
        "methods": {},
        "version": 1
    },
    "opcodes": "PUSH1 0x80 PUSH1 0x40 MSTORE CALLVALUE DUP1 ISZERO PUSH2 0x10 JUMPI PUSH1 0x0 DUP1 REVERT JUMPDEST POP PUSH1 0x4 CALLDATASIZE LT PUSH2 0x62 JUMPI PUSH1 0x0 CALLDATALOAD PUSH1 0xE0 SHR DUP1 PUSH4 0x260A5B03 EQ PUSH2 0x67 JUMPI DUP1 PUSH4 0x7A19FD65 EQ PUSH2 0x92 JUMPI DUP1 PUSH4 0xB3006639 EQ PUSH2 0xB3 JUMPI DUP1 PUSH4 0xC45A0155 EQ PUSH2 0xC6 JUMPI DUP1 PUSH4 0xE95DBB69 EQ PUSH2 0x105 JUMPI DUP1 PUSH4 0xFA461E33 EQ PUSH2 0x13E JUMPI JUMPDEST PUSH1 0x0 DUP1 REVERT JUMPDEST PUSH2 0x7A PUSH2 0x75 CALLDATASIZE PUSH1 0x4 PUSH2 0x1464 JUMP JUMPDEST PUSH2 0x153 JUMP JUMPDEST PUSH1 0x40 MLOAD PUSH2 0x89 SWAP4 SWAP3 SWAP2 SWAP1 PUSH2 0x14A9 JUMP JUMPDEST PUSH1 0x40 MLOAD DUP1 SWAP2 SUB SWAP1 RETURN JUMPDEST PUSH2 0xA5 PUSH2 0xA0 CALLDATASIZE PUSH1 0x4 PUSH2 0x157A JUMP JUMPDEST PUSH2 0x2CC JUMP JUMPDEST PUSH1 0x40 MLOAD SWAP1 DUP2 MSTORE PUSH1 0x20 ADD PUSH2 0x89 JUMP JUMPDEST PUSH2 0xA5 PUSH2 0xC1 CALLDATASIZE PUSH1 0x4 PUSH2 0x157A JUMP JUMPDEST PUSH2 0x4A9 JUMP JUMPDEST PUSH2 0xED PUSH32 0x0 DUP2 JUMP JUMPDEST PUSH1 0x40 MLOAD PUSH1 0x1 PUSH1 0x1 PUSH1 0xA0 SHL SUB SWAP1 SWAP2 AND DUP2 MSTORE PUSH1 0x20 ADD PUSH2 0x89 JUMP JUMPDEST PUSH2 0x118 PUSH2 0x113 CALLDATASIZE PUSH1 0x4 PUSH2 0x161C JUMP JUMPDEST PUSH2 0x667 JUMP JUMPDEST PUSH1 0x40 DUP1 MLOAD SWAP4 DUP5 MSTORE PUSH1 0x1 PUSH1 0x1 PUSH1 0xA0 SHL SUB SWAP1 SWAP3 AND PUSH1 0x20 DUP5 ADD MSTORE PUSH1 0x2 SIGNEXTEND SWAP1 DUP3 ADD MSTORE PUSH1 0x60 ADD PUSH2 0x89 JUMP JUMPDEST PUSH2 0x151 PUSH2 0x14C CALLDATASIZE PUSH1 0x4 PUSH2 0x1682 JUMP JUMPDEST PUSH2 0x84F JUMP JUMPDEST STOP JUMPDEST PUSH1 0x0 PUSH1 0x60 DUP1 PUSH2 0x161 DUP6 PUSH2 0x90C JUMP JUMPDEST PUSH8 0xFFFFFFFFFFFFFFFF DUP2 GT ISZERO PUSH2 0x179 JUMPI PUSH2 0x179 PUSH2 0x13C1 JUMP JUMPDEST PUSH1 0x40 MLOAD SWAP1 DUP1 DUP3 MSTORE DUP1 PUSH1 0x20 MUL PUSH1 0x20 ADD DUP3 ADD PUSH1 0x40 MSTORE DUP1 ISZERO PUSH2 0x1A2 JUMPI DUP2 PUSH1 0x20 ADD PUSH1 0x20 DUP3 MUL DUP1 CALLDATASIZE DUP4 CALLDATACOPY ADD SWAP1 POP JUMPDEST POP SWAP2 POP PUSH2 0x1AE DUP6 PUSH2 0x90C JUMP JUMPDEST PUSH8 0xFFFFFFFFFFFFFFFF DUP2 GT ISZERO PUSH2 0x1C6 JUMPI PUSH2 0x1C6 PUSH2 0x13C1 JUMP JUMPDEST PUSH1 0x40 MLOAD SWAP1 DUP1 DUP3 MSTORE DUP1 PUSH1 0x20 MUL PUSH1 0x20 ADD DUP3 ADD PUSH1 0x40 MSTORE DUP1 ISZERO PUSH2 0x1EF JUMPI DUP2 PUSH1 0x20 ADD PUSH1 0x20 DUP3 MUL DUP1 CALLDATASIZE DUP4 CALLDATACOPY ADD SWAP1 POP JUMPDEST POP SWAP1 POP PUSH1 0x0 JUMPDEST PUSH1 0x0 DUP1 PUSH1 0x0 PUSH2 0x203 DUP10 PUSH2 0x938 JUMP JUMPDEST SWAP3 POP SWAP3 POP SWAP3 POP PUSH1 0x0 DUP1 PUSH1 0x0 PUSH2 0x21C DUP7 DUP7 DUP7 DUP15 PUSH1 0x0 PUSH2 0x667 JUMP JUMPDEST SWAP3 POP SWAP3 POP SWAP3 POP DUP2 DUP10 DUP9 DUP2 MLOAD DUP2 LT PUSH2 0x235 JUMPI PUSH2 0x235 PUSH2 0x16D2 JUMP JUMPDEST PUSH1 0x20 MUL PUSH1 0x20 ADD ADD SWAP1 PUSH1 0x1 PUSH1 0x1 PUSH1 0xA0 SHL SUB AND SWAP1 DUP2 PUSH1 0x1 PUSH1 0x1 PUSH1 0xA0 SHL SUB AND DUP2 MSTORE POP POP DUP1 DUP9 DUP9 DUP2 MLOAD DUP2 LT PUSH2 0x268 JUMPI PUSH2 0x268 PUSH2 0x16D2 JUMP JUMPDEST PUSH1 0x20 MUL PUSH1 0x20 ADD ADD SWAP1 PUSH1 0x2 SIGNEXTEND SWAP1 DUP2 PUSH1 0x2 SIGNEXTEND DUP2 MSTORE POP POP DUP3 SWAP11 POP DUP7 DUP1 PUSH2 0x28A SWAP1 PUSH2 0x16FE JUMP JUMPDEST SWAP8 POP POP PUSH2 0x296 DUP13 PUSH2 0x974 JUMP JUMPDEST ISZERO PUSH2 0x2AB JUMPI PUSH2 0x2A4 DUP13 PUSH2 0x9AE JUMP JUMPDEST SWAP12 POP PUSH2 0x2B9 JUMP JUMPDEST DUP11 SWAP10 POP POP POP POP POP POP POP PUSH2 0x2C4 JUMP JUMPDEST POP POP POP POP POP POP PUSH2 0x1F5 JUMP JUMPDEST POP SWAP3 POP SWAP3 POP SWAP3 JUMP JUMPDEST DUP1 MLOAD PUSH1 0x20 DUP3 ADD MLOAD PUSH1 0x40 DUP1 DUP5 ADD MLOAD SWAP1 MLOAD PUSH4 0x1C9956ED PUSH1 0xE3 SHL DUP2 MSTORE PUSH1 0x1 PUSH1 0x1 PUSH1 0xA0 SHL SUB PUSH32 0x0 DUP2 AND PUSH1 0x4 DUP4 ADD MSTORE SWAP4 DUP5 AND PUSH1 0x24 DUP3 ADD MSTORE SWAP3 SWAP1 SWAP2 AND PUSH1 0x44 DUP4 ADD MSTORE PUSH3 0xFFFFFF AND PUSH1 0x64 DUP3 ADD MSTORE PUSH1 0x0 SWAP1 DUP2 SWAP1 PUSH20 0x0 SWAP1 PUSH4 0xE4CAB768 SWAP1 PUSH1 0x84 ADD PUSH1 0x20 PUSH1 0x40 MLOAD DUP1 DUP4 SUB DUP2 DUP7 GAS DELEGATECALL ISZERO DUP1 ISZERO PUSH2 0x371 JUMPI RETURNDATASIZE PUSH1 0x0 DUP1 RETURNDATACOPY RETURNDATASIZE PUSH1 0x0 REVERT JUMPDEST POP POP POP POP PUSH1 0x40 MLOAD RETURNDATASIZE PUSH1 0x1F NOT PUSH1 0x1F DUP3 ADD AND DUP3 ADD DUP1 PUSH1 0x40 MSTORE POP DUP2 ADD SWAP1 PUSH2 0x395 SWAP2 SWAP1 PUSH2 0x1717 JUMP JUMPDEST SWAP1 POP PUSH1 0x0 DUP1 DUP3 PUSH1 0x1 PUSH1 0x1 PUSH1 0xA0 SHL SUB AND PUSH4 0x3850C7BD PUSH1 0x40 MLOAD DUP2 PUSH4 0xFFFFFFFF AND PUSH1 0xE0 SHL DUP2 MSTORE PUSH1 0x4 ADD PUSH1 0xA0 PUSH1 0x40 MLOAD DUP1 DUP4 SUB DUP2 DUP7 GAS STATICCALL ISZERO DUP1 ISZERO PUSH2 0x3D8 JUMPI RETURNDATASIZE PUSH1 0x0 DUP1 RETURNDATACOPY RETURNDATASIZE PUSH1 0x0 REVERT JUMPDEST POP POP POP POP PUSH1 0x40 MLOAD RETURNDATASIZE PUSH1 0x1F NOT PUSH1 0x1F DUP3 ADD AND DUP3 ADD DUP1 PUSH1 0x40 MSTORE POP DUP2 ADD SWAP1 PUSH2 0x3FC SWAP2 SWAP1 PUSH2 0x1746 JUMP JUMPDEST POP POP POP SWAP2 POP SWAP2 POP DUP5 PUSH1 0x80 ADD MLOAD PUSH1 0x2 SIGNEXTEND DUP2 PUSH1 0x2 SIGNEXTEND SLT DUP1 ISZERO PUSH2 0x425 JUMPI POP DUP5 PUSH1 0x60 ADD MLOAD PUSH1 0x2 SIGNEXTEND DUP2 PUSH1 0x2 SIGNEXTEND SGT JUMPDEST ISZERO PUSH2 0x4A1 JUMPI PUSH1 0xA0 DUP6 ADD MLOAD PUSH1 0x1 PUSH1 0x60 SHL PUSH1 0x1 PUSH1 0x1 PUSH1 0xA0 SHL SUB DUP5 AND DIV PUSH12 0xFFFFFFFFFFFFFFFFFFFFFFFF DUP5 AND ISZERO ISZERO ADD DUP1 DUP3 MOD ISZERO ISZERO SWAP2 DIV ADD SWAP4 POP PUSH1 0x0 PUSH2 0x482 DUP7 PUSH1 0x60 ADD MLOAD DUP8 PUSH1 0x80 ADD MLOAD DUP6 PUSH1 0x2 DUP10 PUSH2 0x478 SWAP2 SWAP1 PUSH2 0x1894 JUMP JUMPDEST DUP11 PUSH1 0xA0 ADD MLOAD PUSH2 0x9DF JUMP JUMPDEST SWAP1 POP PUSH2 0x49D DUP4 PUSH2 0x495 DUP9 PUSH1 0x80 ADD MLOAD PUSH2 0xA08 JUMP JUMPDEST DUP4 PUSH1 0x0 PUSH2 0xE2F JUMP JUMPDEST SWAP5 POP POP JUMPDEST POP POP POP SWAP2 SWAP1 POP JUMP JUMPDEST DUP1 MLOAD PUSH1 0x20 DUP3 ADD MLOAD PUSH1 0x40 DUP1 DUP5 ADD MLOAD SWAP1 MLOAD PUSH4 0x1C9956ED PUSH1 0xE3 SHL DUP2 MSTORE PUSH1 0x1 PUSH1 0x1 PUSH1 0xA0 SHL SUB PUSH32 0x0 DUP2 AND PUSH1 0x4 DUP4 ADD MSTORE SWAP4 DUP5 AND PUSH1 0x24 DUP3 ADD MSTORE SWAP3 SWAP1 SWAP2 AND PUSH1 0x44 DUP4 ADD MSTORE PUSH3 0xFFFFFF AND PUSH1 0x64 DUP3 ADD MSTORE PUSH1 0x0 SWAP1 DUP2 SWAP1 PUSH20 0x0 SWAP1 PUSH4 0xE4CAB768 SWAP1 PUSH1 0x84 ADD PUSH1 0x20 PUSH1 0x40 MLOAD DUP1 DUP4 SUB DUP2 DUP7 GAS DELEGATECALL ISZERO DUP1 ISZERO PUSH2 0x54E JUMPI RETURNDATASIZE PUSH1 0x0 DUP1 RETURNDATACOPY RETURNDATASIZE PUSH1 0x0 REVERT JUMPDEST POP POP POP POP PUSH1 0x40 MLOAD RETURNDATASIZE PUSH1 0x1F NOT PUSH1 0x1F DUP3 ADD AND DUP3 ADD DUP1 PUSH1 0x40 MSTORE POP DUP2 ADD SWAP1 PUSH2 0x572 SWAP2 SWAP1 PUSH2 0x1717 JUMP JUMPDEST SWAP1 POP PUSH1 0x0 DUP1 DUP3 PUSH1 0x1 PUSH1 0x1 PUSH1 0xA0 SHL SUB AND PUSH4 0x3850C7BD PUSH1 0x40 MLOAD DUP2 PUSH4 0xFFFFFFFF AND PUSH1 0xE0 SHL DUP2 MSTORE PUSH1 0x4 ADD PUSH1 0xA0 PUSH1 0x40 MLOAD DUP1 DUP4 SUB DUP2 DUP7 GAS STATICCALL ISZERO DUP1 ISZERO PUSH2 0x5B5 JUMPI RETURNDATASIZE PUSH1 0x0 DUP1 RETURNDATACOPY RETURNDATASIZE PUSH1 0x0 REVERT JUMPDEST POP POP POP POP PUSH1 0x40 MLOAD RETURNDATASIZE PUSH1 0x1F NOT PUSH1 0x1F DUP3 ADD AND DUP3 ADD DUP1 PUSH1 0x40 MSTORE POP DUP2 ADD SWAP1 PUSH2 0x5D9 SWAP2 SWAP1 PUSH2 0x1746 JUMP JUMPDEST POP POP POP SWAP2 POP SWAP2 POP DUP5 PUSH1 0x80 ADD MLOAD PUSH1 0x2 SIGNEXTEND DUP2 PUSH1 0x2 SIGNEXTEND SLT DUP1 ISZERO PUSH2 0x602 JUMPI POP DUP5 PUSH1 0x60 ADD MLOAD PUSH1 0x2 SIGNEXTEND DUP2 PUSH1 0x2 SIGNEXTEND SGT JUMPDEST ISZERO PUSH2 0x4A1 JUMPI PUSH2 0x623 DUP3 PUSH1 0x1 PUSH1 0x1 PUSH1 0xA0 SHL SUB AND DUP7 PUSH1 0xA0 ADD MLOAD PUSH1 0x1 PUSH1 0x60 SHL PUSH2 0xF04 JUMP JUMPDEST SWAP4 POP PUSH1 0x0 PUSH2 0x64C DUP7 PUSH1 0x60 ADD MLOAD DUP8 PUSH1 0x80 ADD MLOAD DUP6 DUP10 PUSH1 0xA0 ADD MLOAD PUSH1 0x2 DUP11 PUSH2 0x647 SWAP2 SWAP1 PUSH2 0x1894 JUMP JUMPDEST PUSH2 0x9DF JUMP JUMPDEST SWAP1 POP PUSH2 0x49D PUSH2 0x65E DUP8 PUSH1 0x60 ADD MLOAD PUSH2 0xA08 JUMP JUMPDEST DUP5 DUP4 PUSH1 0x0 PUSH2 0xF4F JUMP JUMPDEST PUSH1 0x0 DUP1 SLOAD PUSH1 0x40 MLOAD PUSH4 0x175C1B23 PUSH1 0xE3 SHL DUP2 MSTORE PUSH1 0x1 PUSH1 0x1 PUSH1 0xA0 SHL SUB DUP9 DUP2 AND PUSH1 0x4 DUP4 ADD MSTORE DUP8 DUP2 AND PUSH1 0x24 DUP4 ADD MSTORE PUSH3 0xFFFFFF DUP8 AND PUSH1 0x44 DUP4 ADD MSTORE DUP4 SWAP3 DUP4 SWAP3 DUP4 SWAP3 SWAP1 SWAP2 AND SWAP1 PUSH4 0xBAE0D918 SWAP1 PUSH1 0x64 ADD PUSH1 0x20 PUSH1 0x40 MLOAD DUP1 DUP4 SUB DUP2 DUP7 GAS STATICCALL ISZERO DUP1 ISZERO PUSH2 0x6CB JUMPI RETURNDATASIZE PUSH1 0x0 DUP1 RETURNDATACOPY RETURNDATASIZE PUSH1 0x0 REVERT JUMPDEST POP POP POP POP PUSH1 0x40 MLOAD RETURNDATASIZE PUSH1 0x1F NOT PUSH1 0x1F DUP3 ADD AND DUP3 ADD DUP1 PUSH1 0x40 MSTORE POP DUP2 ADD SWAP1 PUSH2 0x6EF SWAP2 SWAP1 PUSH2 0x1717 JUMP JUMPDEST SWAP1 POP PUSH1 0x0 DUP9 PUSH1 0x1 PUSH1 0x1 PUSH1 0xA0 SHL SUB AND DUP11 PUSH1 0x1 PUSH1 0x1 PUSH1 0xA0 SHL SUB AND LT SWAP1 POP DUP2 PUSH1 0x1 PUSH1 0x1 PUSH1 0xA0 SHL SUB AND PUSH4 0xDD5A12D8 ADDRESS DUP4 DUP11 DUP11 PUSH1 0x1 PUSH1 0x1 PUSH1 0xA0 SHL SUB AND PUSH1 0x0 EQ PUSH2 0x733 JUMPI DUP11 PUSH2 0x76C JUMP JUMPDEST DUP6 PUSH2 0x75C JUMPI PUSH2 0x757 PUSH1 0x1 PUSH20 0xFFFD8963EFD1FC6A506488495D951D5263988D26 PUSH2 0x18A3 JUMP JUMPDEST PUSH2 0x76C JUMP JUMPDEST PUSH2 0x76C PUSH5 0x1000276A3 PUSH1 0x1 PUSH2 0x18CA JUMP JUMPDEST PUSH1 0x40 DUP1 MLOAD PUSH1 0x1 PUSH1 0x1 PUSH1 0xA0 SHL SUB DUP11 AND PUSH1 0x20 DUP3 ADD MSTORE ADD PUSH1 0x40 MLOAD PUSH1 0x20 DUP2 DUP4 SUB SUB DUP2 MSTORE SWAP1 PUSH1 0x40 MSTORE PUSH1 0x40 MLOAD DUP7 PUSH4 0xFFFFFFFF AND PUSH1 0xE0 SHL DUP2 MSTORE PUSH1 0x4 ADD PUSH2 0x7AF SWAP6 SWAP5 SWAP4 SWAP3 SWAP2 SWAP1 PUSH2 0x18EA JUMP JUMPDEST PUSH1 0x40 DUP1 MLOAD DUP1 DUP4 SUB DUP2 PUSH1 0x0 DUP8 GAS CALL SWAP3 POP POP POP DUP1 ISZERO PUSH2 0x7E9 JUMPI POP PUSH1 0x40 DUP1 MLOAD PUSH1 0x1F RETURNDATASIZE SWAP1 DUP2 ADD PUSH1 0x1F NOT AND DUP3 ADD SWAP1 SWAP3 MSTORE PUSH2 0x7E6 SWAP2 DUP2 ADD SWAP1 PUSH2 0x1964 JUMP JUMPDEST PUSH1 0x1 JUMPDEST PUSH2 0x83F JUMPI RETURNDATASIZE DUP1 DUP1 ISZERO PUSH2 0x817 JUMPI PUSH1 0x40 MLOAD SWAP2 POP PUSH1 0x1F NOT PUSH1 0x3F RETURNDATASIZE ADD AND DUP3 ADD PUSH1 0x40 MSTORE RETURNDATASIZE DUP3 MSTORE RETURNDATASIZE PUSH1 0x0 PUSH1 0x20 DUP5 ADD RETURNDATACOPY PUSH2 0x81C JUMP JUMPDEST PUSH1 0x60 SWAP2 POP JUMPDEST POP DUP1 DUP1 PUSH1 0x20 ADD SWAP1 MLOAD DUP2 ADD SWAP1 PUSH2 0x831 SWAP2 SWAP1 PUSH2 0x1988 JUMP JUMPDEST SWAP6 POP SWAP6 POP SWAP6 POP POP POP POP PUSH2 0x844 JUMP JUMPDEST POP POP POP POP JUMPDEST SWAP6 POP SWAP6 POP SWAP6 SWAP3 POP POP POP JUMP JUMPDEST PUSH1 0x0 DUP2 DUP1 PUSH1 0x20 ADD SWAP1 MLOAD DUP2 ADD SWAP1 PUSH2 0x865 SWAP2 SWAP1 PUSH2 0x1717 JUMP JUMPDEST SWAP1 POP PUSH1 0x0 DUP1 DUP6 SGT PUSH2 0x87E JUMPI PUSH2 0x879 DUP6 PUSH2 0x19CB JUMP JUMPDEST PUSH2 0x887 JUMP JUMPDEST PUSH2 0x887 DUP5 PUSH2 0x19CB JUMP JUMPDEST SWAP1 POP PUSH1 0x0 DUP1 DUP4 PUSH1 0x1 PUSH1 0x1 PUSH1 0xA0 SHL SUB AND PUSH4 0x3850C7BD PUSH1 0x40 MLOAD DUP2 PUSH4 0xFFFFFFFF AND PUSH1 0xE0 SHL DUP2 MSTORE PUSH1 0x4 ADD PUSH1 0xA0 PUSH1 0x40 MLOAD DUP1 DUP4 SUB DUP2 DUP7 GAS STATICCALL ISZERO DUP1 ISZERO PUSH2 0x8CA JUMPI RETURNDATASIZE PUSH1 0x0 DUP1 RETURNDATACOPY RETURNDATASIZE PUSH1 0x0 REVERT JUMPDEST POP POP POP POP PUSH1 0x40 MLOAD RETURNDATASIZE PUSH1 0x1F NOT PUSH1 0x1F DUP3 ADD AND DUP3 ADD DUP1 PUSH1 0x40 MSTORE POP DUP2 ADD SWAP1 PUSH2 0x8EE SWAP2 SWAP1 PUSH2 0x1746 JUMP JUMPDEST POP POP POP SWAP2 POP SWAP2 POP PUSH1 0x40 MLOAD DUP4 DUP2 MSTORE DUP3 PUSH1 0x20 DUP3 ADD MSTORE DUP2 PUSH1 0x40 DUP3 ADD MSTORE PUSH1 0x60 DUP2 REVERT JUMPDEST PUSH1 0x0 PUSH2 0x91A PUSH1 0x3 PUSH1 0x14 PUSH2 0x19E7 JUMP JUMPDEST PUSH1 0x14 DUP4 MLOAD PUSH2 0x928 SWAP2 SWAP1 PUSH2 0x19FA JUMP JUMPDEST PUSH2 0x932 SWAP2 SWAP1 PUSH2 0x1A23 JUMP JUMPDEST SWAP3 SWAP2 POP POP JUMP JUMPDEST PUSH1 0x0 DUP1 DUP1 PUSH2 0x946 DUP5 DUP3 PUSH2 0xFD9 JUMP JUMPDEST SWAP3 POP PUSH2 0x953 DUP5 PUSH1 0x14 PUSH2 0x103E JUMP JUMPDEST SWAP1 POP PUSH2 0x96B PUSH2 0x964 PUSH1 0x3 PUSH1 0x14 PUSH2 0x19E7 JUMP JUMPDEST DUP6 SWAP1 PUSH2 0xFD9 JUMP JUMPDEST SWAP2 POP SWAP2 SWAP4 SWAP1 SWAP3 POP JUMP JUMPDEST PUSH1 0x0 PUSH2 0x982 PUSH1 0x3 PUSH1 0x14 PUSH2 0x19E7 JUMP JUMPDEST PUSH1 0x14 PUSH2 0x98F PUSH1 0x3 DUP3 PUSH2 0x19E7 JUMP JUMPDEST PUSH2 0x999 SWAP2 SWAP1 PUSH2 0x19E7 JUMP JUMPDEST PUSH2 0x9A3 SWAP2 SWAP1 PUSH2 0x19E7 JUMP JUMPDEST DUP3 MLOAD LT ISZERO SWAP1 POP SWAP2 SWAP1 POP JUMP JUMPDEST PUSH1 0x60 PUSH2 0x932 PUSH2 0x9BF PUSH1 0x3 PUSH1 0x14 PUSH2 0x19E7 JUMP JUMPDEST PUSH2 0x9CB PUSH1 0x3 PUSH1 0x14 PUSH2 0x19E7 JUMP JUMPDEST DUP5 MLOAD PUSH2 0x9D7 SWAP2 SWAP1 PUSH2 0x19FA JUMP JUMPDEST DUP5 SWAP2 SWAP1 PUSH2 0x109B JUMP JUMPDEST PUSH1 0x0 PUSH2 0x9FE DUP5 PUSH2 0x9EE DUP9 PUSH2 0xA08 JUMP JUMPDEST PUSH2 0x9F7 DUP9 PUSH2 0xA08 JUMP JUMPDEST DUP7 DUP7 PUSH2 0x11A8 JUMP JUMPDEST SWAP7 SWAP6 POP POP POP POP POP POP JUMP JUMPDEST PUSH1 0x0 DUP1 PUSH1 0x0 DUP4 PUSH1 0x2 SIGNEXTEND SLT PUSH2 0xA1F JUMPI DUP3 PUSH1 0x2 SIGNEXTEND PUSH2 0xA2C JUMP JUMPDEST DUP3 PUSH1 0x2 SIGNEXTEND PUSH2 0xA2C SWAP1 PUSH2 0x19CB JUMP JUMPDEST SWAP1 POP PUSH2 0xA3B PUSH3 0xD89E7 NOT PUSH2 0x1A37 JUMP JUMPDEST PUSH3 0xFFFFFF AND DUP2 GT ISZERO PUSH2 0xA78 JUMPI PUSH1 0x40 MLOAD PUSH3 0x461BCD PUSH1 0xE5 SHL DUP2 MSTORE PUSH1 0x20 PUSH1 0x4 DUP3 ADD MSTORE PUSH1 0x1 PUSH1 0x24 DUP3 ADD MSTORE PUSH1 0x15 PUSH1 0xFA SHL PUSH1 0x44 DUP3 ADD MSTORE PUSH1 0x64 ADD JUMPDEST PUSH1 0x40 MLOAD DUP1 SWAP2 SUB SWAP1 REVERT JUMPDEST PUSH1 0x0 DUP2 PUSH1 0x1 AND PUSH1 0x0 SUB PUSH2 0xA8F JUMPI PUSH1 0x1 PUSH1 0x80 SHL PUSH2 0xAA1 JUMP JUMPDEST PUSH16 0xFFFCB933BD6FAD37AA2D162D1A594001 JUMPDEST PUSH17 0xFFFFFFFFFFFFFFFFFFFFFFFFFFFFFFFFFF AND SWAP1 POP PUSH1 0x2 DUP3 AND ISZERO PUSH2 0xAE0 JUMPI PUSH1 0x80 PUSH2 0xADB DUP3 PUSH16 0xFFF97272373D413259A46990580E213A PUSH2 0x1A59 JUMP JUMPDEST SWAP1 SHR SWAP1 POP JUMPDEST PUSH1 0x4 DUP3 AND ISZERO PUSH2 0xB0A JUMPI PUSH1 0x80 PUSH2 0xB05 DUP3 PUSH16 0xFFF2E50F5F656932EF12357CF3C7FDCC PUSH2 0x1A59 JUMP JUMPDEST SWAP1 SHR SWAP1 POP JUMPDEST PUSH1 0x8 DUP3 AND ISZERO PUSH2 0xB34 JUMPI PUSH1 0x80 PUSH2 0xB2F DUP3 PUSH16 0xFFE5CACA7E10E4E61C3624EAA0941CD0 PUSH2 0x1A59 JUMP JUMPDEST SWAP1 SHR SWAP1 POP JUMPDEST PUSH1 0x10 DUP3 AND ISZERO PUSH2 0xB5E JUMPI PUSH1 0x80 PUSH2 0xB59 DUP3 PUSH16 0xFFCB9843D60F6159C9DB58835C926644 PUSH2 0x1A59 JUMP JUMPDEST SWAP1 SHR SWAP1 POP JUMPDEST PUSH1 0x20 DUP3 AND ISZERO PUSH2 0xB88 JUMPI PUSH1 0x80 PUSH2 0xB83 DUP3 PUSH16 0xFF973B41FA98C081472E6896DFB254C0 PUSH2 0x1A59 JUMP JUMPDEST SWAP1 SHR SWAP1 POP JUMPDEST PUSH1 0x40 DUP3 AND ISZERO PUSH2 0xBB2 JUMPI PUSH1 0x80 PUSH2 0xBAD DUP3 PUSH16 0xFF2EA16466C96A3843EC78B326B52861 PUSH2 0x1A59 JUMP JUMPDEST SWAP1 SHR SWAP1 POP JUMPDEST PUSH1 0x80 DUP3 AND ISZERO PUSH2 0xBDC JUMPI PUSH1 0x80 PUSH2 0xBD7 DUP3 PUSH16 0xFE5DEE046A99A2A811C461F1969C3053 PUSH2 0x1A59 JUMP JUMPDEST SWAP1 SHR SWAP1 POP JUMPDEST PUSH2 0x100 DUP3 AND ISZERO PUSH2 0xC07 JUMPI PUSH1 0x80 PUSH2 0xC02 DUP3 PUSH16 0xFCBE86C7900A88AEDCFFC83B479AA3A4 PUSH2 0x1A59 JUMP JUMPDEST SWAP1 SHR SWAP1 POP JUMPDEST PUSH2 0x200 DUP3 AND ISZERO PUSH2 0xC32 JUMPI PUSH1 0x80 PUSH2 0xC2D DUP3 PUSH16 0xF987A7253AC413176F2B074CF7815E54 PUSH2 0x1A59 JUMP JUMPDEST SWAP1 SHR SWAP1 POP JUMPDEST PUSH2 0x400 DUP3 AND ISZERO PUSH2 0xC5D JUMPI PUSH1 0x80 PUSH2 0xC58 DUP3 PUSH16 0xF3392B0822B70005940C7A398E4B70F3 PUSH2 0x1A59 JUMP JUMPDEST SWAP1 SHR SWAP1 POP JUMPDEST PUSH2 0x800 DUP3 AND ISZERO PUSH2 0xC88 JUMPI PUSH1 0x80 PUSH2 0xC83 DUP3 PUSH16 0xE7159475A2C29B7443B29C7FA6E889D9 PUSH2 0x1A59 JUMP JUMPDEST SWAP1 SHR SWAP1 POP JUMPDEST PUSH2 0x1000 DUP3 AND ISZERO PUSH2 0xCB3 JUMPI PUSH1 0x80 PUSH2 0xCAE DUP3 PUSH16 0xD097F3BDFD2022B8845AD8F792AA5825 PUSH2 0x1A59 JUMP JUMPDEST SWAP1 SHR SWAP1 POP JUMPDEST PUSH2 0x2000 DUP3 AND ISZERO PUSH2 0xCDE JUMPI PUSH1 0x80 PUSH2 0xCD9 DUP3 PUSH16 0xA9F746462D870FDF8A65DC1F90E061E5 PUSH2 0x1A59 JUMP JUMPDEST SWAP1 SHR SWAP1 POP JUMPDEST PUSH2 0x4000 DUP3 AND ISZERO PUSH2 0xD09 JUMPI PUSH1 0x80 PUSH2 0xD04 DUP3 PUSH16 0x70D869A156D2A1B890BB3DF62BAF32F7 PUSH2 0x1A59 JUMP JUMPDEST SWAP1 SHR SWAP1 POP JUMPDEST PUSH2 0x8000 DUP3 AND ISZERO PUSH2 0xD34 JUMPI PUSH1 0x80 PUSH2 0xD2F DUP3 PUSH16 0x31BE135F97D08FD981231505542FCFA6 PUSH2 0x1A59 JUMP JUMPDEST SWAP1 SHR SWAP1 POP JUMPDEST PUSH3 0x10000 DUP3 AND ISZERO PUSH2 0xD60 JUMPI PUSH1 0x80 PUSH2 0xD5B DUP3 PUSH16 0x9AA508B5B7A84E1C677DE54F3E99BC9 PUSH2 0x1A59 JUMP JUMPDEST SWAP1 SHR SWAP1 POP JUMPDEST PUSH3 0x20000 DUP3 AND ISZERO PUSH2 0xD8B JUMPI PUSH1 0x80 PUSH2 0xD86 DUP3 PUSH15 0x5D6AF8DEDB81196699C329225EE604 PUSH2 0x1A59 JUMP JUMPDEST SWAP1 SHR SWAP1 POP JUMPDEST PUSH3 0x40000 DUP3 AND ISZERO PUSH2 0xDB5 JUMPI PUSH1 0x80 PUSH2 0xDB0 DUP3 PUSH14 0x2216E584F5FA1EA926041BEDFE98 PUSH2 0x1A59 JUMP JUMPDEST SWAP1 SHR SWAP1 POP JUMPDEST PUSH3 0x80000 DUP3 AND ISZERO PUSH2 0xDDD JUMPI PUSH1 0x80 PUSH2 0xDD8 DUP3 PUSH12 0x48A170391F7DC42444E8FA2 PUSH2 0x1A59 JUMP JUMPDEST SWAP1 SHR SWAP1 POP JUMPDEST PUSH1 0x0 DUP5 PUSH1 0x2 SIGNEXTEND SGT ISZERO PUSH2 0xDF8 JUMPI PUSH2 0xDF5 DUP2 PUSH1 0x0 NOT PUSH2 0x1A23 JUMP JUMPDEST SWAP1 POP JUMPDEST PUSH2 0xE07 PUSH5 0x100000000 DUP3 PUSH2 0x1A70 JUMP JUMPDEST ISZERO PUSH2 0xE13 JUMPI PUSH1 0x1 PUSH2 0xE16 JUMP JUMPDEST PUSH1 0x0 JUMPDEST PUSH2 0xE27 SWAP1 PUSH1 0xFF AND PUSH1 0x20 DUP4 SWAP1 SHR PUSH2 0x19E7 JUMP JUMPDEST SWAP5 SWAP4 POP POP POP POP JUMP JUMPDEST PUSH1 0x0 DUP4 PUSH1 0x1 PUSH1 0x1 PUSH1 0xA0 SHL SUB AND DUP6 PUSH1 0x1 PUSH1 0x1 PUSH1 0xA0 SHL SUB AND GT ISZERO PUSH2 0xE4F JUMPI SWAP3 SWAP4 SWAP3 JUMPDEST PUSH1 0x0 DUP6 PUSH1 0x1 PUSH1 0x1 PUSH1 0xA0 SHL SUB AND GT PUSH2 0xE65 JUMPI PUSH1 0x0 DUP1 REVERT JUMPDEST PUSH16 0xFFFFFFFFFFFFFFFFFFFFFFFFFFFFFFFF PUSH1 0x60 SHL PUSH1 0x60 DUP5 SWAP1 SHL AND PUSH1 0x0 PUSH2 0xE8B DUP8 DUP8 PUSH2 0x18A3 JUMP JUMPDEST PUSH1 0x1 PUSH1 0x1 PUSH1 0xA0 SHL SUB AND SWAP1 POP DUP4 ISZERO PUSH2 0xECF JUMPI PUSH2 0xEC8 PUSH2 0xEB3 DUP4 DUP4 DUP10 PUSH1 0x1 PUSH1 0x1 PUSH1 0xA0 SHL SUB AND PUSH2 0xF04 JUMP JUMPDEST DUP9 PUSH1 0x1 PUSH1 0x1 PUSH1 0xA0 SHL SUB AND DUP1 DUP3 DIV SWAP2 MOD ISZERO ISZERO ADD SWAP1 JUMP JUMPDEST SWAP3 POP PUSH2 0xEFA JUMP JUMPDEST DUP7 PUSH1 0x1 PUSH1 0x1 PUSH1 0xA0 SHL SUB AND PUSH2 0xEED DUP4 DUP4 DUP10 PUSH1 0x1 PUSH1 0x1 PUSH1 0xA0 SHL SUB AND PUSH2 0x125F JUMP JUMPDEST PUSH2 0xEF7 SWAP2 SWAP1 PUSH2 0x1A23 JUMP JUMPDEST SWAP3 POP JUMPDEST POP POP SWAP5 SWAP4 POP POP POP POP JUMP JUMPDEST PUSH1 0x0 PUSH2 0xF11 DUP5 DUP5 DUP5 PUSH2 0x125F JUMP JUMPDEST SWAP1 POP PUSH1 0x0 DUP3 DUP1 PUSH2 0xF23 JUMPI PUSH2 0xF23 PUSH2 0x1A0D JUMP JUMPDEST DUP5 DUP7 MULMOD GT ISZERO PUSH2 0xF48 JUMPI PUSH1 0x0 NOT DUP2 LT PUSH2 0xF3A JUMPI PUSH1 0x0 DUP1 REVERT JUMPDEST DUP1 PUSH2 0xF44 DUP2 PUSH2 0x16FE JUMP JUMPDEST SWAP2 POP POP JUMPDEST SWAP4 SWAP3 POP POP POP JUMP JUMPDEST PUSH1 0x0 DUP4 PUSH1 0x1 PUSH1 0x1 PUSH1 0xA0 SHL SUB AND DUP6 PUSH1 0x1 PUSH1 0x1 PUSH1 0xA0 SHL SUB AND GT ISZERO PUSH2 0xF6F JUMPI SWAP3 SWAP4 SWAP3 JUMPDEST DUP2 ISZERO PUSH2 0xFA6 JUMPI PUSH2 0xF9F PUSH1 0x1 PUSH1 0x1 PUSH1 0x80 SHL SUB DUP5 AND PUSH2 0xF8C DUP8 DUP8 PUSH2 0x18A3 JUMP JUMPDEST PUSH1 0x1 PUSH1 0x1 PUSH1 0xA0 SHL SUB AND PUSH1 0x1 PUSH1 0x60 SHL PUSH2 0xF04 JUMP JUMPDEST SWAP1 POP PUSH2 0xE27 JUMP JUMPDEST PUSH2 0xFD0 PUSH1 0x1 PUSH1 0x1 PUSH1 0x80 SHL SUB DUP5 AND PUSH2 0xFBD DUP8 DUP8 PUSH2 0x18A3 JUMP JUMPDEST PUSH1 0x1 PUSH1 0x1 PUSH1 0xA0 SHL SUB AND PUSH1 0x1 PUSH1 0x60 SHL PUSH2 0x125F JUMP JUMPDEST SWAP6 SWAP5 POP POP POP POP POP JUMP JUMPDEST PUSH1 0x0 PUSH2 0xFE6 DUP3 PUSH1 0x14 PUSH2 0x19E7 JUMP JUMPDEST DUP4 MLOAD LT ISZERO PUSH2 0x102E JUMPI PUSH1 0x40 MLOAD PUSH3 0x461BCD PUSH1 0xE5 SHL DUP2 MSTORE PUSH1 0x20 PUSH1 0x4 DUP3 ADD MSTORE PUSH1 0x15 PUSH1 0x24 DUP3 ADD MSTORE PUSH21 0x746F416464726573735F6F75744F66426F756E6473 PUSH1 0x58 SHL PUSH1 0x44 DUP3 ADD MSTORE PUSH1 0x64 ADD PUSH2 0xA6F JUMP JUMPDEST POP ADD PUSH1 0x20 ADD MLOAD PUSH1 0x1 PUSH1 0x60 SHL SWAP1 DIV SWAP1 JUMP JUMPDEST PUSH1 0x0 PUSH2 0x104B DUP3 PUSH1 0x3 PUSH2 0x19E7 JUMP JUMPDEST DUP4 MLOAD LT ISZERO PUSH2 0x1092 JUMPI PUSH1 0x40 MLOAD PUSH3 0x461BCD PUSH1 0xE5 SHL DUP2 MSTORE PUSH1 0x20 PUSH1 0x4 DUP3 ADD MSTORE PUSH1 0x14 PUSH1 0x24 DUP3 ADD MSTORE PUSH20 0x746F55696E7432345F6F75744F66426F756E6473 PUSH1 0x60 SHL PUSH1 0x44 DUP3 ADD MSTORE PUSH1 0x64 ADD PUSH2 0xA6F JUMP JUMPDEST POP ADD PUSH1 0x3 ADD MLOAD SWAP1 JUMP JUMPDEST PUSH1 0x60 DUP2 PUSH2 0x10A9 DUP2 PUSH1 0x1F PUSH2 0x19E7 JUMP JUMPDEST LT ISZERO PUSH2 0x10E8 JUMPI PUSH1 0x40 MLOAD PUSH3 0x461BCD PUSH1 0xE5 SHL DUP2 MSTORE PUSH1 0x20 PUSH1 0x4 DUP3 ADD MSTORE PUSH1 0xE PUSH1 0x24 DUP3 ADD MSTORE PUSH14 0x736C6963655F6F766572666C6F77 PUSH1 0x90 SHL PUSH1 0x44 DUP3 ADD MSTORE PUSH1 0x64 ADD PUSH2 0xA6F JUMP JUMPDEST PUSH2 0x10F2 DUP3 DUP5 PUSH2 0x19E7 JUMP JUMPDEST DUP5 MLOAD LT ISZERO PUSH2 0x1136 JUMPI PUSH1 0x40 MLOAD PUSH3 0x461BCD PUSH1 0xE5 SHL DUP2 MSTORE PUSH1 0x20 PUSH1 0x4 DUP3 ADD MSTORE PUSH1 0x11 PUSH1 0x24 DUP3 ADD MSTORE PUSH17 0x736C6963655F6F75744F66426F756E6473 PUSH1 0x78 SHL PUSH1 0x44 DUP3 ADD MSTORE PUSH1 0x64 ADD PUSH2 0xA6F JUMP JUMPDEST PUSH1 0x60 DUP3 ISZERO DUP1 ISZERO PUSH2 0x1155 JUMPI PUSH1 0x40 MLOAD SWAP2 POP PUSH1 0x0 DUP3 MSTORE PUSH1 0x20 DUP3 ADD PUSH1 0x40 MSTORE PUSH2 0x119F JUMP JUMPDEST PUSH1 0x40 MLOAD SWAP2 POP PUSH1 0x1F DUP5 AND DUP1 ISZERO PUSH1 0x20 MUL DUP2 DUP5 ADD ADD DUP6 DUP2 ADD DUP8 DUP4 ISZERO PUSH1 0x20 MUL DUP5 DUP12 ADD ADD ADD JUMPDEST DUP2 DUP4 LT ISZERO PUSH2 0x118E JUMPI DUP1 MLOAD DUP4 MSTORE PUSH1 0x20 SWAP3 DUP4 ADD SWAP3 ADD PUSH2 0x1176 JUMP JUMPDEST POP POP DUP6 DUP5 MSTORE PUSH1 0x1F ADD PUSH1 0x1F NOT AND PUSH1 0x40 MSTORE POP JUMPDEST POP SWAP5 SWAP4 POP POP POP POP JUMP JUMPDEST PUSH1 0x0 DUP4 PUSH1 0x1 PUSH1 0x1 PUSH1 0xA0 SHL SUB AND DUP6 PUSH1 0x1 PUSH1 0x1 PUSH1 0xA0 SHL SUB AND GT ISZERO PUSH2 0x11C8 JUMPI SWAP3 SWAP4 SWAP3 JUMPDEST DUP5 PUSH1 0x1 PUSH1 0x1 PUSH1 0xA0 SHL SUB AND DUP7 PUSH1 0x1 PUSH1 0x1 PUSH1 0xA0 SHL SUB AND GT PUSH2 0x11F3 JUMPI PUSH2 0x11EC DUP6 DUP6 DUP6 PUSH2 0x132C JUMP JUMPDEST SWAP1 POP PUSH2 0xFD0 JUMP JUMPDEST DUP4 PUSH1 0x1 PUSH1 0x1 PUSH1 0xA0 SHL SUB AND DUP7 PUSH1 0x1 PUSH1 0x1 PUSH1 0xA0 SHL SUB AND GT PUSH2 0x1254 JUMPI PUSH1 0x0 PUSH2 0x1219 DUP8 DUP7 DUP7 PUSH2 0x132C JUMP JUMPDEST SWAP1 POP PUSH1 0x0 PUSH2 0x1228 DUP8 DUP10 DUP7 PUSH2 0x138E JUMP JUMPDEST SWAP1 POP DUP1 PUSH1 0x1 PUSH1 0x1 PUSH1 0x80 SHL SUB AND DUP3 PUSH1 0x1 PUSH1 0x1 PUSH1 0x80 SHL SUB AND LT PUSH2 0x1249 JUMPI DUP1 PUSH2 0x124B JUMP JUMPDEST DUP2 JUMPDEST SWAP3 POP POP POP PUSH2 0xFD0 JUMP JUMPDEST PUSH2 0x9FE DUP6 DUP6 DUP5 PUSH2 0x138E JUMP JUMPDEST PUSH1 0x0 DUP1 DUP1 PUSH1 0x0 NOT DUP6 DUP8 MULMOD DUP6 DUP8 MUL SWAP3 POP DUP3 DUP2 LT DUP4 DUP3 SUB SUB SWAP2 POP POP DUP1 PUSH1 0x0 SUB PUSH2 0x1299 JUMPI DUP4 DUP3 DUP2 PUSH2 0x128F JUMPI PUSH2 0x128F PUSH2 0x1A0D JUMP JUMPDEST DIV SWAP3 POP POP POP PUSH2 0xF48 JUMP JUMPDEST DUP4 DUP2 LT PUSH2 0x12C3 JUMPI PUSH1 0x40 MLOAD PUSH4 0x1DCF3063 PUSH1 0xE2 SHL DUP2 MSTORE PUSH1 0x4 DUP2 ADD DUP3 SWAP1 MSTORE PUSH1 0x24 DUP2 ADD DUP6 SWAP1 MSTORE PUSH1 0x44 ADD PUSH2 0xA6F JUMP JUMPDEST PUSH1 0x0 DUP5 DUP7 DUP9 MULMOD PUSH1 0x2 PUSH1 0x1 DUP8 NOT DUP2 ADD DUP9 AND SWAP8 DUP9 SWAP1 DIV PUSH1 0x3 DUP2 MUL DUP4 XOR DUP1 DUP3 MUL DUP5 SUB MUL DUP1 DUP3 MUL DUP5 SUB MUL DUP1 DUP3 MUL DUP5 SUB MUL DUP1 DUP3 MUL DUP5 SUB MUL DUP1 DUP3 MUL DUP5 SUB MUL SWAP1 DUP2 MUL SWAP1 SWAP3 SUB SWAP1 SWAP2 MUL PUSH1 0x0 DUP9 SWAP1 SUB DUP9 SWAP1 DIV SWAP1 SWAP2 ADD DUP6 DUP4 GT SWAP1 SWAP5 SUB SWAP4 SWAP1 SWAP4 MUL SWAP4 SUB SWAP5 SWAP1 SWAP5 DIV SWAP2 SWAP1 SWAP2 OR MUL SWAP5 SWAP4 POP POP POP POP JUMP JUMPDEST PUSH1 0x0 DUP3 PUSH1 0x1 PUSH1 0x1 PUSH1 0xA0 SHL SUB AND DUP5 PUSH1 0x1 PUSH1 0x1 PUSH1 0xA0 SHL SUB AND GT ISZERO PUSH2 0x134C JUMPI SWAP2 SWAP3 SWAP2 JUMPDEST PUSH1 0x0 PUSH2 0x136F DUP6 PUSH1 0x1 PUSH1 0x1 PUSH1 0xA0 SHL SUB AND DUP6 PUSH1 0x1 PUSH1 0x1 PUSH1 0xA0 SHL SUB AND PUSH1 0x1 PUSH1 0x60 SHL PUSH2 0x125F JUMP JUMPDEST SWAP1 POP PUSH2 0xF44 DUP4 DUP3 PUSH2 0x1380 DUP9 DUP9 PUSH2 0x18A3 JUMP JUMPDEST PUSH1 0x1 PUSH1 0x1 PUSH1 0xA0 SHL SUB AND PUSH2 0x125F JUMP JUMPDEST PUSH1 0x0 DUP3 PUSH1 0x1 PUSH1 0x1 PUSH1 0xA0 SHL SUB AND DUP5 PUSH1 0x1 PUSH1 0x1 PUSH1 0xA0 SHL SUB AND GT ISZERO PUSH2 0x13AE JUMPI SWAP2 SWAP3 SWAP2 JUMPDEST PUSH2 0xE27 DUP3 PUSH1 0x1 PUSH1 0x60 SHL PUSH2 0x1380 DUP8 DUP8 PUSH2 0x18A3 JUMP JUMPDEST PUSH4 0x4E487B71 PUSH1 0xE0 SHL PUSH1 0x0 MSTORE PUSH1 0x41 PUSH1 0x4 MSTORE PUSH1 0x24 PUSH1 0x0 REVERT JUMPDEST PUSH1 0x0 DUP3 PUSH1 0x1F DUP4 ADD SLT PUSH2 0x13E8 JUMPI PUSH1 0x0 DUP1 REVERT JUMPDEST DUP2 CALLDATALOAD PUSH8 0xFFFFFFFFFFFFFFFF DUP1 DUP3 GT ISZERO PUSH2 0x1403 JUMPI PUSH2 0x1403 PUSH2 0x13C1 JUMP JUMPDEST PUSH1 0x40 MLOAD PUSH1 0x1F DUP4 ADD PUSH1 0x1F NOT SWAP1 DUP2 AND PUSH1 0x3F ADD AND DUP2 ADD SWAP1 DUP3 DUP3 GT DUP2 DUP4 LT OR ISZERO PUSH2 0x142B JUMPI PUSH2 0x142B PUSH2 0x13C1 JUMP JUMPDEST DUP2 PUSH1 0x40 MSTORE DUP4 DUP2 MSTORE DUP7 PUSH1 0x20 DUP6 DUP9 ADD ADD GT ISZERO PUSH2 0x1444 JUMPI PUSH1 0x0 DUP1 REVERT JUMPDEST DUP4 PUSH1 0x20 DUP8 ADD PUSH1 0x20 DUP4 ADD CALLDATACOPY PUSH1 0x0 PUSH1 0x20 DUP6 DUP4 ADD ADD MSTORE DUP1 SWAP5 POP POP POP POP POP SWAP3 SWAP2 POP POP JUMP JUMPDEST PUSH1 0x0 DUP1 PUSH1 0x40 DUP4 DUP6 SUB SLT ISZERO PUSH2 0x1477 JUMPI PUSH1 0x0 DUP1 REVERT JUMPDEST DUP3 CALLDATALOAD PUSH8 0xFFFFFFFFFFFFFFFF DUP2 GT ISZERO PUSH2 0x148E JUMPI PUSH1 0x0 DUP1 REVERT JUMPDEST PUSH2 0x149A DUP6 DUP3 DUP7 ADD PUSH2 0x13D7 JUMP JUMPDEST SWAP6 PUSH1 0x20 SWAP5 SWAP1 SWAP5 ADD CALLDATALOAD SWAP5 POP POP POP POP JUMP JUMPDEST PUSH1 0x0 PUSH1 0x60 DUP3 ADD DUP6 DUP4 MSTORE PUSH1 0x20 PUSH1 0x60 DUP2 DUP6 ADD MSTORE DUP2 DUP7 MLOAD DUP1 DUP5 MSTORE PUSH1 0x80 DUP7 ADD SWAP2 POP DUP3 DUP9 ADD SWAP4 POP PUSH1 0x0 JUMPDEST DUP2 DUP2 LT ISZERO PUSH2 0x14F3 JUMPI DUP5 MLOAD PUSH1 0x1 PUSH1 0x1 PUSH1 0xA0 SHL SUB AND DUP4 MSTORE SWAP4 DUP4 ADD SWAP4 SWAP2 DUP4 ADD SWAP2 PUSH1 0x1 ADD PUSH2 0x14CE JUMP JUMPDEST POP POP DUP5 DUP2 SUB PUSH1 0x40 DUP7 ADD MSTORE DUP6 MLOAD DUP1 DUP3 MSTORE SWAP1 DUP3 ADD SWAP3 POP DUP2 DUP7 ADD SWAP1 PUSH1 0x0 JUMPDEST DUP2 DUP2 LT ISZERO PUSH2 0x152D JUMPI DUP3 MLOAD PUSH1 0x2 SIGNEXTEND DUP6 MSTORE SWAP4 DUP4 ADD SWAP4 SWAP2 DUP4 ADD SWAP2 PUSH1 0x1 ADD PUSH2 0x150E JUMP JUMPDEST POP SWAP3 SWAP9 SWAP8 POP POP POP POP POP POP POP POP JUMP JUMPDEST PUSH1 0x1 PUSH1 0x1 PUSH1 0xA0 SHL SUB DUP2 AND DUP2 EQ PUSH2 0x1550 JUMPI PUSH1 0x0 DUP1 REVERT JUMPDEST POP JUMP JUMPDEST DUP1 CALLDATALOAD PUSH3 0xFFFFFF DUP2 AND DUP2 EQ PUSH2 0x1566 JUMPI PUSH1 0x0 DUP1 REVERT JUMPDEST SWAP2 SWAP1 POP JUMP JUMPDEST DUP1 PUSH1 0x2 SIGNEXTEND DUP2 EQ PUSH2 0x1550 JUMPI PUSH1 0x0 DUP1 REVERT JUMPDEST PUSH1 0x0 PUSH1 0xC0 DUP3 DUP5 SUB SLT ISZERO PUSH2 0x158C JUMPI PUSH1 0x0 DUP1 REVERT JUMPDEST PUSH1 0x40 MLOAD PUSH1 0xC0 DUP2 ADD DUP2 DUP2 LT PUSH8 0xFFFFFFFFFFFFFFFF DUP3 GT OR ISZERO PUSH2 0x15AF JUMPI PUSH2 0x15AF PUSH2 0x13C1 JUMP JUMPDEST PUSH1 0x40 MSTORE DUP3 CALLDATALOAD PUSH2 0x15BD DUP2 PUSH2 0x153B JUMP JUMPDEST DUP2 MSTORE PUSH1 0x20 DUP4 ADD CALLDATALOAD PUSH2 0x15CD DUP2 PUSH2 0x153B JUMP JUMPDEST PUSH1 0x20 DUP3 ADD MSTORE PUSH2 0x15DE PUSH1 0x40 DUP5 ADD PUSH2 0x1553 JUMP JUMPDEST PUSH1 0x40 DUP3 ADD MSTORE PUSH1 0x60 DUP4 ADD CALLDATALOAD PUSH2 0x15F1 DUP2 PUSH2 0x156B JUMP JUMPDEST PUSH1 0x60 DUP3 ADD MSTORE PUSH1 0x80 DUP4 ADD CALLDATALOAD PUSH2 0x1604 DUP2 PUSH2 0x156B JUMP JUMPDEST PUSH1 0x80 DUP3 ADD MSTORE PUSH1 0xA0 SWAP3 DUP4 ADD CALLDATALOAD SWAP3 DUP2 ADD SWAP3 SWAP1 SWAP3 MSTORE POP SWAP2 SWAP1 POP JUMP JUMPDEST PUSH1 0x0 DUP1 PUSH1 0x0 DUP1 PUSH1 0x0 PUSH1 0xA0 DUP7 DUP9 SUB SLT ISZERO PUSH2 0x1634 JUMPI PUSH1 0x0 DUP1 REVERT JUMPDEST DUP6 CALLDATALOAD PUSH2 0x163F DUP2 PUSH2 0x153B JUMP JUMPDEST SWAP5 POP PUSH1 0x20 DUP7 ADD CALLDATALOAD PUSH2 0x164F DUP2 PUSH2 0x153B JUMP JUMPDEST SWAP4 POP PUSH2 0x165D PUSH1 0x40 DUP8 ADD PUSH2 0x1553 JUMP JUMPDEST SWAP3 POP PUSH1 0x60 DUP7 ADD CALLDATALOAD SWAP2 POP PUSH1 0x80 DUP7 ADD CALLDATALOAD PUSH2 0x1674 DUP2 PUSH2 0x153B JUMP JUMPDEST DUP1 SWAP2 POP POP SWAP3 SWAP6 POP SWAP3 SWAP6 SWAP1 SWAP4 POP JUMP JUMPDEST PUSH1 0x0 DUP1 PUSH1 0x0 PUSH1 0x60 DUP5 DUP7 SUB SLT ISZERO PUSH2 0x1697 JUMPI PUSH1 0x0 DUP1 REVERT JUMPDEST DUP4 CALLDATALOAD SWAP3 POP PUSH1 0x20 DUP5 ADD CALLDATALOAD SWAP2 POP PUSH1 0x40 DUP5 ADD CALLDATALOAD PUSH8 0xFFFFFFFFFFFFFFFF DUP2 GT ISZERO PUSH2 0x16BC JUMPI PUSH1 0x0 DUP1 REVERT JUMPDEST PUSH2 0x16C8 DUP7 DUP3 DUP8 ADD PUSH2 0x13D7 JUMP JUMPDEST SWAP2 POP POP SWAP3 POP SWAP3 POP SWAP3 JUMP JUMPDEST PUSH4 0x4E487B71 PUSH1 0xE0 SHL PUSH1 0x0 MSTORE PUSH1 0x32 PUSH1 0x4 MSTORE PUSH1 0x24 PUSH1 0x0 REVERT JUMPDEST PUSH4 0x4E487B71 PUSH1 0xE0 SHL PUSH1 0x0 MSTORE PUSH1 0x11 PUSH1 0x4 MSTORE PUSH1 0x24 PUSH1 0x0 REVERT JUMPDEST PUSH1 0x0 PUSH1 0x1 DUP3 ADD PUSH2 0x1710 JUMPI PUSH2 0x1710 PUSH2 0x16E8 JUMP JUMPDEST POP PUSH1 0x1 ADD SWAP1 JUMP JUMPDEST PUSH1 0x0 PUSH1 0x20 DUP3 DUP5 SUB SLT ISZERO PUSH2 0x1729 JUMPI PUSH1 0x0 DUP1 REVERT JUMPDEST DUP2 MLOAD PUSH2 0xF48 DUP2 PUSH2 0x153B JUMP JUMPDEST DUP1 MLOAD PUSH2 0xFFFF DUP2 AND DUP2 EQ PUSH2 0x1566 JUMPI PUSH1 0x0 DUP1 REVERT JUMPDEST PUSH1 0x0 DUP1 PUSH1 0x0 DUP1 PUSH1 0x0 PUSH1 0xA0 DUP7 DUP9 SUB SLT ISZERO PUSH2 0x175E JUMPI PUSH1 0x0 DUP1 REVERT JUMPDEST DUP6 MLOAD PUSH2 0x1769 DUP2 PUSH2 0x153B JUMP JUMPDEST PUSH1 0x20 DUP8 ADD MLOAD SWAP1 SWAP6 POP PUSH2 0x177A DUP2 PUSH2 0x156B JUMP JUMPDEST SWAP4 POP PUSH2 0x1788 PUSH1 0x40 DUP8 ADD PUSH2 0x1734 JUMP JUMPDEST SWAP3 POP PUSH2 0x1796 PUSH1 0x60 DUP8 ADD PUSH2 0x1734 JUMP JUMPDEST SWAP2 POP PUSH2 0x17A4 PUSH1 0x80 DUP8 ADD PUSH2 0x1734 JUMP JUMPDEST SWAP1 POP SWAP3 SWAP6 POP SWAP3 SWAP6 SWAP1 SWAP4 POP JUMP JUMPDEST PUSH1 0x1 DUP2 DUP2 JUMPDEST DUP1 DUP6 GT ISZERO PUSH2 0x17EB JUMPI DUP2 PUSH1 0x0 NOT DIV DUP3 GT ISZERO PUSH2 0x17D1 JUMPI PUSH2 0x17D1 PUSH2 0x16E8 JUMP JUMPDEST DUP1 DUP6 AND ISZERO PUSH2 0x17DE JUMPI SWAP2 DUP2 MUL SWAP2 JUMPDEST SWAP4 DUP5 SHR SWAP4 SWAP1 DUP1 MUL SWAP1 PUSH2 0x17B5 JUMP JUMPDEST POP SWAP3 POP SWAP3 SWAP1 POP JUMP JUMPDEST PUSH1 0x0 DUP3 PUSH2 0x1802 JUMPI POP PUSH1 0x1 PUSH2 0x932 JUMP JUMPDEST DUP2 PUSH2 0x180F JUMPI POP PUSH1 0x0 PUSH2 0x932 JUMP JUMPDEST DUP2 PUSH1 0x1 DUP2 EQ PUSH2 0x1825 JUMPI PUSH1 0x2 DUP2 EQ PUSH2 0x182F JUMPI PUSH2 0x184B JUMP JUMPDEST PUSH1 0x1 SWAP2 POP POP PUSH2 0x932 JUMP JUMPDEST PUSH1 0xFF DUP5 GT ISZERO PUSH2 0x1840 JUMPI PUSH2 0x1840 PUSH2 0x16E8 JUMP JUMPDEST POP POP PUSH1 0x1 DUP3 SHL PUSH2 0x932 JUMP JUMPDEST POP PUSH1 0x20 DUP4 LT PUSH2 0x133 DUP4 LT AND PUSH1 0x4E DUP5 LT PUSH1 0xB DUP5 LT AND OR ISZERO PUSH2 0x186E JUMPI POP DUP2 DUP2 EXP PUSH2 0x932 JUMP JUMPDEST PUSH2 0x1878 DUP4 DUP4 PUSH2 0x17B0 JUMP JUMPDEST DUP1 PUSH1 0x0 NOT DIV DUP3 GT ISZERO PUSH2 0x188C JUMPI PUSH2 0x188C PUSH2 0x16E8 JUMP JUMPDEST MUL SWAP4 SWAP3 POP POP POP JUMP JUMPDEST PUSH1 0x0 PUSH2 0xF48 PUSH1 0xFF DUP5 AND DUP4 PUSH2 0x17F3 JUMP JUMPDEST PUSH1 0x1 PUSH1 0x1 PUSH1 0xA0 SHL SUB DUP3 DUP2 AND DUP3 DUP3 AND SUB SWAP1 DUP1 DUP3 GT ISZERO PUSH2 0x18C3 JUMPI PUSH2 0x18C3 PUSH2 0x16E8 JUMP JUMPDEST POP SWAP3 SWAP2 POP POP JUMP JUMPDEST PUSH1 0x1 PUSH1 0x1 PUSH1 0xA0 SHL SUB DUP2 DUP2 AND DUP4 DUP3 AND ADD SWAP1 DUP1 DUP3 GT ISZERO PUSH2 0x18C3 JUMPI PUSH2 0x18C3 PUSH2 0x16E8 JUMP JUMPDEST PUSH1 0x0 PUSH1 0x1 DUP1 PUSH1 0xA0 SHL SUB DUP1 DUP9 AND DUP4 MSTORE PUSH1 0x20 DUP8 ISZERO ISZERO DUP2 DUP6 ADD MSTORE DUP7 PUSH1 0x40 DUP6 ADD MSTORE DUP2 DUP7 AND PUSH1 0x60 DUP6 ADD MSTORE PUSH1 0xA0 PUSH1 0x80 DUP6 ADD MSTORE DUP5 MLOAD SWAP2 POP DUP2 PUSH1 0xA0 DUP6 ADD MSTORE PUSH1 0x0 JUMPDEST DUP3 DUP2 LT ISZERO PUSH2 0x193F JUMPI DUP6 DUP2 ADD DUP3 ADD MLOAD DUP6 DUP3 ADD PUSH1 0xC0 ADD MSTORE DUP2 ADD PUSH2 0x1923 JUMP JUMPDEST POP POP PUSH1 0x0 PUSH1 0xC0 DUP3 DUP6 ADD ADD MSTORE PUSH1 0xC0 PUSH1 0x1F NOT PUSH1 0x1F DUP4 ADD AND DUP5 ADD ADD SWAP2 POP POP SWAP7 SWAP6 POP POP POP POP POP POP JUMP JUMPDEST PUSH1 0x0 DUP1 PUSH1 0x40 DUP4 DUP6 SUB SLT ISZERO PUSH2 0x1977 JUMPI PUSH1 0x0 DUP1 REVERT JUMPDEST POP POP DUP1 MLOAD PUSH1 0x20 SWAP1 SWAP2 ADD MLOAD SWAP1 SWAP3 SWAP1 SWAP2 POP JUMP JUMPDEST PUSH1 0x0 DUP1 PUSH1 0x0 PUSH1 0x60 DUP5 DUP7 SUB SLT ISZERO PUSH2 0x199D JUMPI PUSH1 0x0 DUP1 REVERT JUMPDEST DUP4 MLOAD SWAP3 POP PUSH1 0x20 DUP5 ADD MLOAD PUSH2 0x19AF DUP2 PUSH2 0x153B JUMP JUMPDEST PUSH1 0x40 DUP6 ADD MLOAD SWAP1 SWAP3 POP PUSH2 0x19C0 DUP2 PUSH2 0x156B JUMP JUMPDEST DUP1 SWAP2 POP POP SWAP3 POP SWAP3 POP SWAP3 JUMP JUMPDEST PUSH1 0x0 PUSH1 0x1 PUSH1 0xFF SHL DUP3 ADD PUSH2 0x19E0 JUMPI PUSH2 0x19E0 PUSH2 0x16E8 JUMP JUMPDEST POP PUSH1 0x0 SUB SWAP1 JUMP JUMPDEST DUP1 DUP3 ADD DUP1 DUP3 GT ISZERO PUSH2 0x932 JUMPI PUSH2 0x932 PUSH2 0x16E8 JUMP JUMPDEST DUP2 DUP2 SUB DUP2 DUP2 GT ISZERO PUSH2 0x932 JUMPI PUSH2 0x932 PUSH2 0x16E8 JUMP JUMPDEST PUSH4 0x4E487B71 PUSH1 0xE0 SHL PUSH1 0x0 MSTORE PUSH1 0x12 PUSH1 0x4 MSTORE PUSH1 0x24 PUSH1 0x0 REVERT JUMPDEST PUSH1 0x0 DUP3 PUSH2 0x1A32 JUMPI PUSH2 0x1A32 PUSH2 0x1A0D JUMP JUMPDEST POP DIV SWAP1 JUMP JUMPDEST PUSH1 0x0 DUP2 PUSH1 0x2 SIGNEXTEND PUSH3 0x7FFFFF NOT DUP2 SUB PUSH2 0x1A50 JUMPI PUSH2 0x1A50 PUSH2 0x16E8 JUMP JUMPDEST PUSH1 0x0 SUB SWAP3 SWAP2 POP POP JUMP JUMPDEST DUP1 DUP3 MUL DUP2 ISZERO DUP3 DUP3 DIV DUP5 EQ OR PUSH2 0x932 JUMPI PUSH2 0x932 PUSH2 0x16E8 JUMP JUMPDEST PUSH1 0x0 DUP3 PUSH2 0x1A7F JUMPI PUSH2 0x1A7F PUSH2 0x1A0D JUMP JUMPDEST POP MOD SWAP1 JUMP INVALID LOG2 PUSH5 0x6970667358 0x22 SLT KECCAK256 0xBC PUSH30 0x7A738FC8EF90093B6AFFB80B52CF68D90DC339A9D5D555841D8E14456469 PUSH5 0x736F6C6343 STOP ADDMOD EQ STOP CALLER ",
    "sha1": "66ab6a793717ec0eaf32687e2e702e3548e637d3",
    "source": "// SPDX-License-Identifier: BUSL-1.1\npragma solidity ^0.8.14;\n\nimport \"./HelpFunctions.sol\";\nimport \"./PoolFactory.sol\";\n\nimport \"../interface_contracts/IUniswapV3Pool.sol\";\n\nimport \"./lib/Math.sol\";\nimport \"./lib/Path.sol\";\nimport \"./lib/PoolAddress.sol\";\nimport \"./lib/TickMath.sol\";\nimport \"./lib/LiquidityMath.sol\";\n\ncontract Quoter {\n    using Path for bytes;\n\n    struct QuoteSingleParams {\n        address tokenIn;\n        address tokenOut;\n        uint24 fee;\n        uint256 amountIn;\n        uint160 sqrtPriceLimitX96;\n    }\n\n    struct LiqInputTokenParams {\n        address tokenIn;\n        address tokenOut;\n        uint24 fee;\n        int24 lowerTick;\n        int24 upperTick;\n        uint256 amountInDesired;\n    }\n\n    address public immutable factory;\n    PoolFactory poolfactory;\n\n    constructor(address factory_) {\n        factory = factory_;\n        poolfactory = PoolFactory(factory);\n    }\n\n    /*\n    External\n     */\n    function uniswapV3SwapCallback(\n        int256 amount0Delta,\n        int256 amount1Delta,\n        bytes memory data\n    ) external view {\n        address pool = abi.decode(data, (address));\n        uint256 amountOut = amount0Delta > 0\n            ? uint256(-amount1Delta)\n            : uint256(-amount0Delta);\n        (uint160 sqrtPriceX96After, int24 tickAfter, , , ) = IUniswapV3Pool(\n            pool\n        ).slot0();\n        assembly {\n            let ptr := mload(0x40)\n            mstore(ptr, amountOut)\n            mstore(add(ptr, 0x20), sqrtPriceX96After)\n            mstore(add(ptr, 0x40), tickAfter)\n            revert(ptr, 96)\n        }\n    }\n\n    /*\n    Public\n     */\n    function quoteMulti(\n        bytes memory path,\n        uint256 amountIn\n    )\n        public\n        returns (\n            uint256 amountOut,\n            uint160[] memory sqrtPriceX96AfterList,\n            int24[] memory tickAfterList\n        )\n    {\n        sqrtPriceX96AfterList = new uint160[](path.numPools());\n        tickAfterList = new int24[](path.numPools());\n\n        uint256 i = 0;\n        while (true) {\n            (address tokenIn, address tokenOut, uint24 fee) = path\n                .decodeFirstPool();\n\n            (\n                uint256 amountOut_,\n                uint160 sqrtPriceX96After,\n                int24 tickAfter\n            ) = quoteSingle(tokenIn, tokenOut, fee,  amountIn, 0\n                );\n\n            sqrtPriceX96AfterList[i] = sqrtPriceX96After;\n            tickAfterList[i] = tickAfter;\n            amountIn = amountOut_;\n            i++;\n\n            if (path.hasMultiplePools()) {\n                path = path.skipToken();\n            } else {\n                amountOut = amountIn;\n                break;\n            }\n        }\n    }\n\n    function quoteSingle(\n        address tokenIn,\n        address tokenOut,\n        uint24 fee,\n        uint256 amountIn,\n        uint160 sqrtPriceLimitX96\n    )\n        public\n        returns (uint256 amountOut, uint160 sqrtPriceX96After, int24 tickAfter)\n    {\n        IUniswapV3Pool pool = IUniswapV3Pool(poolfactory.pools(\n            tokenIn,\n            tokenOut,\n            fee\n        )); \n \n        bool zeroForOne = tokenIn < tokenOut;\n\n        try\n            pool.swap(\n                address(this),\n                zeroForOne,\n                amountIn,\n                sqrtPriceLimitX96 == 0\n                    ? (\n                        zeroForOne\n                            ? TickMath.MIN_SQRT_RATIO + 1\n                            : TickMath.MAX_SQRT_RATIO - 1\n                    )\n                    : sqrtPriceLimitX96,\n                abi.encode(address(pool))\n            )\n        {} catch (bytes memory reason) {\n            return abi.decode(reason, (uint256, uint160, int24));\n        }\n    }\n\n    /*\n    Public - View\n     */\n    function quoteLiqInputToken0(\n        LiqInputTokenParams memory params\n    ) public view returns (uint256 amount1) {\n        IUniswapV3Pool pool = HelpFunctions._getPool(\n            factory,\n            params.tokenIn,\n            params.tokenOut,\n            params.fee\n        );\n\n        (uint160 sqrtPriceX96, int24 tick, , , ) = pool.slot0();\n\n        if (tick < params.upperTick && tick > params.lowerTick) {\n            amount1 = Math.mulDivRoundingUp(\n                uint256(sqrtPriceX96),\n                uint256(params.amountInDesired),\n                uint256(2 ** 96)\n            );\n\n            uint128 liquidity = _getLiquidity(\n                params.lowerTick,\n                params.upperTick,\n                sqrtPriceX96,\n                params.amountInDesired,\n                amount1 ** 2\n            );\n\n            amount1 = Math.calcAmount1Delta(\n                TickMath.getSqrtRatioAtTick(params.lowerTick),\n                sqrtPriceX96,\n                liquidity,\n                false\n            );\n        }\n    }\n\n    function quoteLiqInputToken1(\n        LiqInputTokenParams memory params\n    ) public view returns (uint256 amount0) {\n        IUniswapV3Pool pool = HelpFunctions._getPool(\n            factory,\n            params.tokenIn,\n            params.tokenOut,\n            params.fee\n        );\n\n        (uint160 sqrtPriceX96, int24 tick, , , ) = pool.slot0();\n\n        if (tick < params.upperTick && tick > params.lowerTick) {\n            amount0 = Math.divRoundingUp(\n                params.amountInDesired,\n                Math.divRoundingUp(uint256(sqrtPriceX96), uint256(2 ** 96))\n            );\n\n            uint128 liquidity = _getLiquidity(\n                params.lowerTick,\n                params.upperTick,\n                sqrtPriceX96,\n                amount0 ** 2,\n                params.amountInDesired\n            );\n\n            amount0 = Math.calcAmount0Delta(\n                sqrtPriceX96,\n                TickMath.getSqrtRatioAtTick(params.upperTick),\n                liquidity,\n                false\n            );\n        }\n    }\n\n    /*\n    Internal - Pure\n     */\n    function _getLiquidity(\n        int24 lowerTick,\n        int24 upperTick,\n        uint160 sqrtPriceX96,\n        uint256 amountInDesired,\n        uint256 amountOutDesired\n    ) internal pure returns (uint128 liquidity) {\n        liquidity = LiquidityMath.getLiquidityForAmounts(\n            sqrtPriceX96,\n            TickMath.getSqrtRatioAtTick(lowerTick),\n            TickMath.getSqrtRatioAtTick(upperTick),\n            amountInDesired,\n            amountOutDesired\n        );\n    }\n}\n",
    "sourcePath": "contracts/Quoter.sol",
    "type": "contract"
}