{
    "abi": [
        {
            "inputs": [
                {
                    "internalType": "address",
                    "name": "factory_",
                    "type": "address"
                }
            ],
            "stateMutability": "nonpayable",
            "type": "constructor"
        },
        {
            "inputs": [
                {
                    "internalType": "uint256",
                    "name": "prod1",
                    "type": "uint256"
                },
                {
                    "internalType": "uint256",
                    "name": "denominator",
                    "type": "uint256"
                }
            ],
            "name": "PRBMath__MulDivOverflow",
            "type": "error"
        },
        {
            "inputs": [],
            "name": "factory",
            "outputs": [
                {
                    "internalType": "address",
                    "name": "",
                    "type": "address"
                }
            ],
            "stateMutability": "view",
            "type": "function"
        },
        {
            "inputs": [
                {
                    "components": [
                        {
                            "internalType": "address",
                            "name": "tokenIn",
                            "type": "address"
                        },
                        {
                            "internalType": "address",
                            "name": "tokenOut",
                            "type": "address"
                        },
                        {
                            "internalType": "uint24",
                            "name": "fee",
                            "type": "uint24"
                        },
                        {
                            "internalType": "int24",
                            "name": "lowerTick",
                            "type": "int24"
                        },
                        {
                            "internalType": "int24",
                            "name": "upperTick",
                            "type": "int24"
                        },
                        {
                            "internalType": "uint256",
                            "name": "amountInDesired",
                            "type": "uint256"
                        }
                    ],
                    "internalType": "struct Quoter.LiqInputTokenParams",
                    "name": "params",
                    "type": "tuple"
                }
            ],
            "name": "quoteLiqInputToken0",
            "outputs": [
                {
                    "internalType": "uint256",
                    "name": "amount1",
                    "type": "uint256"
                }
            ],
            "stateMutability": "view",
            "type": "function"
        },
        {
            "inputs": [
                {
                    "components": [
                        {
                            "internalType": "address",
                            "name": "tokenIn",
                            "type": "address"
                        },
                        {
                            "internalType": "address",
                            "name": "tokenOut",
                            "type": "address"
                        },
                        {
                            "internalType": "uint24",
                            "name": "fee",
                            "type": "uint24"
                        },
                        {
                            "internalType": "int24",
                            "name": "lowerTick",
                            "type": "int24"
                        },
                        {
                            "internalType": "int24",
                            "name": "upperTick",
                            "type": "int24"
                        },
                        {
                            "internalType": "uint256",
                            "name": "amountInDesired",
                            "type": "uint256"
                        }
                    ],
                    "internalType": "struct Quoter.LiqInputTokenParams",
                    "name": "params",
                    "type": "tuple"
                }
            ],
            "name": "quoteLiqInputToken1",
            "outputs": [
                {
                    "internalType": "uint256",
                    "name": "amount0",
                    "type": "uint256"
                }
            ],
            "stateMutability": "view",
            "type": "function"
        },
        {
            "inputs": [
                {
                    "internalType": "bytes",
                    "name": "path",
                    "type": "bytes"
                },
                {
                    "internalType": "uint256",
                    "name": "amountIn",
                    "type": "uint256"
                }
            ],
            "name": "quoteMulti",
            "outputs": [
                {
                    "internalType": "uint256",
                    "name": "amountOut",
                    "type": "uint256"
                },
                {
                    "internalType": "uint160[]",
                    "name": "sqrtPriceX96AfterList",
                    "type": "uint160[]"
                },
                {
                    "internalType": "int24[]",
                    "name": "tickAfterList",
                    "type": "int24[]"
                }
            ],
            "stateMutability": "nonpayable",
            "type": "function"
        },
        {
            "inputs": [
                {
                    "components": [
                        {
                            "internalType": "address",
                            "name": "tokenIn",
                            "type": "address"
                        },
                        {
                            "internalType": "address",
                            "name": "tokenOut",
                            "type": "address"
                        },
                        {
                            "internalType": "uint24",
                            "name": "fee",
                            "type": "uint24"
                        },
                        {
                            "internalType": "uint256",
                            "name": "amountIn",
                            "type": "uint256"
                        },
                        {
                            "internalType": "uint160",
                            "name": "sqrtPriceLimitX96",
                            "type": "uint160"
                        }
                    ],
                    "internalType": "struct Quoter.QuoteSingleParams",
                    "name": "params",
                    "type": "tuple"
                }
            ],
            "name": "quoteSingle",
            "outputs": [
                {
                    "internalType": "uint256",
                    "name": "amountOut",
                    "type": "uint256"
                },
                {
                    "internalType": "uint160",
                    "name": "sqrtPriceX96After",
                    "type": "uint160"
                },
                {
                    "internalType": "int24",
                    "name": "tickAfter",
                    "type": "int24"
                }
            ],
            "stateMutability": "nonpayable",
            "type": "function"
        },
        {
            "inputs": [
                {
                    "internalType": "int256",
                    "name": "amount0Delta",
                    "type": "int256"
                },
                {
                    "internalType": "int256",
                    "name": "amount1Delta",
                    "type": "int256"
                },
                {
                    "internalType": "bytes",
                    "name": "data",
                    "type": "bytes"
                }
            ],
            "name": "uniswapV3SwapCallback",
            "outputs": [],
            "stateMutability": "view",
            "type": "function"
        }
    ],
    "bytecode": "60a060405234801561001057600080fd5b50604051611bee380380611bee83398101604081905261002f91610040565b6001600160a01b0316608052610070565b60006020828403121561005257600080fd5b81516001600160a01b038116811461006957600080fd5b9392505050565b608051611b4e6100a060003960008181610104015281816103520152818161054a015261070b0152611b4e6000f3fe608060405234801561001057600080fd5b50600436106100625760003560e01c8063260a5b0314610067578063402358a5146100925780637a19fd65146100cb578063b3006639146100ec578063c45a0155146100ff578063fa461e331461013e575b600080fd5b61007a6100753660046114a3565b610153565b604051610089939291906114e8565b60405180910390f35b6100a56100a03660046115aa565b61030e565b604080519384526001600160a01b03909216602084015260020b90820152606001610089565b6100de6100d9366004611646565b61052b565b604051908152602001610089565b6100de6100fa366004611646565b6106ec565b6101267f000000000000000000000000000000000000000000000000000000000000000081565b6040516001600160a01b039091168152602001610089565b61015161014c3660046116e8565b61088e565b005b60006060806101618561094b565b67ffffffffffffffff81111561017957610179611400565b6040519080825280602002602001820160405280156101a2578160200160208202803683370190505b5091506101ae8561094b565b67ffffffffffffffff8111156101c6576101c6611400565b6040519080825280602002602001820160405280156101ef578160200160208202803683370190505b50905060005b600080600061020389610977565b925092509250600080600061025e6040518060a00160405280886001600160a01b03168152602001876001600160a01b031681526020018662ffffff1681526020018d815260200160006001600160a01b031681525061030e565b9250925092508189888151811061027757610277611738565b60200260200101906001600160a01b031690816001600160a01b031681525050808888815181106102aa576102aa611738565b602002602001019060020b908160020b81525050829a5086806102cc90611764565b9750506102d88c6109b3565b156102ed576102e68c6109ed565b9b506102fb565b8a9950505050505050610306565b5050505050506101f5565b509250925092565b805160208201516040808401519051631c9956ed60e31b8152600093849384938493739828dc171e405abf5282769f90461a6e284fa5839363e4cab7689361037a937f00000000000000000000000000000000000000000000000000000000000000009360040161177d565b602060405180830381865af4158015610397573d6000803e3d6000fd5b505050506040513d601f19601f820116820180604052508101906103bb91906117ab565b9050600085602001516001600160a01b031686600001516001600160a01b0316109050816001600160a01b031663dd5a12d8308389606001518a608001516001600160a01b0316600014610413578a6080015161044c565b8561043c57610437600173fffd8963efd1fc6a506488495d951d5263988d266117c8565b61044c565b61044c6401000276a360016117ef565b604080516001600160a01b038a166020820152016040516020818303038152906040526040518663ffffffff1660e01b815260040161048f95949392919061180f565b60408051808303816000875af19250505080156104c9575060408051601f3d908101601f191682019092526104c691810190611889565b60015b61051f573d8080156104f7576040519150601f19603f3d011682016040523d82523d6000602084013e6104fc565b606091505b508080602001905181019061051191906118ad565b955095509550505050610524565b505050505b9193909250565b600080739828dc171e405abf5282769f90461a6e284fa58363e4cab7687f00000000000000000000000000000000000000000000000000000000000000008560000151866020015187604001516040518563ffffffff1660e01b8152600401610597949392919061177d565b602060405180830381865af41580156105b4573d6000803e3d6000fd5b505050506040513d601f19601f820116820180604052508101906105d891906117ab565b9050600080826001600160a01b0316633850c7bd6040518163ffffffff1660e01b815260040160a060405180830381865afa15801561061b573d6000803e3d6000fd5b505050506040513d601f19601f8201168201806040525081019061063f9190611902565b50505091509150846080015160020b8160020b1280156106685750846060015160020b8160020b135b156106e45760a0850151600160601b6001600160a01b038416046bffffffffffffffffffffffff84161515018082061515910401935060006106c586606001518760800151856002896106bb9190611a50565b8a60a00151610a1e565b90506106e0836106d88860800151610a47565b836000610e6e565b9450505b505050919050565b600080739828dc171e405abf5282769f90461a6e284fa58363e4cab7687f00000000000000000000000000000000000000000000000000000000000000008560000151866020015187604001516040518563ffffffff1660e01b8152600401610758949392919061177d565b602060405180830381865af4158015610775573d6000803e3d6000fd5b505050506040513d601f19601f8201168201806040525081019061079991906117ab565b9050600080826001600160a01b0316633850c7bd6040518163ffffffff1660e01b815260040160a060405180830381865afa1580156107dc573d6000803e3d6000fd5b505050506040513d601f19601f820116820180604052508101906108009190611902565b50505091509150846080015160020b8160020b1280156108295750846060015160020b8160020b135b156106e45761084a826001600160a01b03168660a00151600160601b610f43565b9350600061087386606001518760800151858960a0015160028a61086e9190611a50565b610a1e565b90506106e06108858760600151610a47565b84836000610f8e565b6000818060200190518101906108a491906117ab565b905060008085136108bd576108b885611a5f565b6108c6565b6108c684611a5f565b9050600080836001600160a01b0316633850c7bd6040518163ffffffff1660e01b815260040160a060405180830381865afa158015610909573d6000803e3d6000fd5b505050506040513d601f19601f8201168201806040525081019061092d9190611902565b50505091509150604051838152826020820152816040820152606081fd5b600061095960036014611a7b565b601483516109679190611a8e565b6109719190611ab7565b92915050565b600080806109858482611018565b925061099284601461107d565b90506109aa6109a360036014611a7b565b8590611018565b91509193909250565b60006109c160036014611a7b565b60146109ce600382611a7b565b6109d89190611a7b565b6109e29190611a7b565b825110159050919050565b60606109716109fe60036014611a7b565b610a0a60036014611a7b565b8451610a169190611a8e565b8491906110da565b6000610a3d84610a2d88610a47565b610a3688610a47565b86866111e7565b9695505050505050565b60008060008360020b12610a5e578260020b610a6b565b8260020b610a6b90611a5f565b9050610a7a620d89e719611acb565b62ffffff16811115610ab75760405162461bcd60e51b81526020600482015260016024820152601560fa1b60448201526064015b60405180910390fd5b600081600116600003610ace57600160801b610ae0565b6ffffcb933bd6fad37aa2d162d1a5940015b70ffffffffffffffffffffffffffffffffff1690506002821615610b1f576080610b1a826ffff97272373d413259a46990580e213a611aed565b901c90505b6004821615610b49576080610b44826ffff2e50f5f656932ef12357cf3c7fdcc611aed565b901c90505b6008821615610b73576080610b6e826fffe5caca7e10e4e61c3624eaa0941cd0611aed565b901c90505b6010821615610b9d576080610b98826fffcb9843d60f6159c9db58835c926644611aed565b901c90505b6020821615610bc7576080610bc2826fff973b41fa98c081472e6896dfb254c0611aed565b901c90505b6040821615610bf1576080610bec826fff2ea16466c96a3843ec78b326b52861611aed565b901c90505b6080821615610c1b576080610c16826ffe5dee046a99a2a811c461f1969c3053611aed565b901c90505b610100821615610c46576080610c41826ffcbe86c7900a88aedcffc83b479aa3a4611aed565b901c90505b610200821615610c71576080610c6c826ff987a7253ac413176f2b074cf7815e54611aed565b901c90505b610400821615610c9c576080610c97826ff3392b0822b70005940c7a398e4b70f3611aed565b901c90505b610800821615610cc7576080610cc2826fe7159475a2c29b7443b29c7fa6e889d9611aed565b901c90505b611000821615610cf2576080610ced826fd097f3bdfd2022b8845ad8f792aa5825611aed565b901c90505b612000821615610d1d576080610d18826fa9f746462d870fdf8a65dc1f90e061e5611aed565b901c90505b614000821615610d48576080610d43826f70d869a156d2a1b890bb3df62baf32f7611aed565b901c90505b618000821615610d73576080610d6e826f31be135f97d08fd981231505542fcfa6611aed565b901c90505b62010000821615610d9f576080610d9a826f09aa508b5b7a84e1c677de54f3e99bc9611aed565b901c90505b62020000821615610dca576080610dc5826e5d6af8dedb81196699c329225ee604611aed565b901c90505b62040000821615610df4576080610def826d2216e584f5fa1ea926041bedfe98611aed565b901c90505b62080000821615610e1c576080610e17826b048a170391f7dc42444e8fa2611aed565b901c90505b60008460020b1315610e3757610e3481600019611ab7565b90505b610e4664010000000082611b04565b15610e52576001610e55565b60005b610e669060ff16602083901c611a7b565b949350505050565b6000836001600160a01b0316856001600160a01b03161115610e8e579293925b6000856001600160a01b031611610ea457600080fd5b6fffffffffffffffffffffffffffffffff60601b606084901b166000610eca87876117c8565b6001600160a01b031690508315610f0e57610f07610ef28383896001600160a01b0316610f43565b886001600160a01b0316808204910615150190565b9250610f39565b866001600160a01b0316610f2c8383896001600160a01b031661129e565b610f369190611ab7565b92505b5050949350505050565b6000610f5084848461129e565b905060008280610f6257610f62611aa1565b8486091115610f87576000198110610f7957600080fd5b80610f8381611764565b9150505b9392505050565b6000836001600160a01b0316856001600160a01b03161115610fae579293925b8115610fe557610fde6001600160801b038416610fcb87876117c8565b6001600160a01b0316600160601b610f43565b9050610e66565b61100f6001600160801b038416610ffc87876117c8565b6001600160a01b0316600160601b61129e565b95945050505050565b6000611025826014611a7b565b8351101561106d5760405162461bcd60e51b8152602060048201526015602482015274746f416464726573735f6f75744f66426f756e647360581b6044820152606401610aae565b500160200151600160601b900490565b600061108a826003611a7b565b835110156110d15760405162461bcd60e51b8152602060048201526014602482015273746f55696e7432345f6f75744f66426f756e647360601b6044820152606401610aae565b50016003015190565b6060816110e881601f611a7b565b10156111275760405162461bcd60e51b815260206004820152600e60248201526d736c6963655f6f766572666c6f7760901b6044820152606401610aae565b6111318284611a7b565b845110156111755760405162461bcd60e51b8152602060048201526011602482015270736c6963655f6f75744f66426f756e647360781b6044820152606401610aae565b60608215801561119457604051915060008252602082016040526111de565b6040519150601f8416801560200281840101858101878315602002848b0101015b818310156111cd5780518352602092830192016111b5565b5050858452601f01601f1916604052505b50949350505050565b6000836001600160a01b0316856001600160a01b03161115611207579293925b846001600160a01b0316866001600160a01b0316116112325761122b85858561136b565b905061100f565b836001600160a01b0316866001600160a01b03161161129357600061125887868661136b565b905060006112678789866113cd565b9050806001600160801b0316826001600160801b031610611288578061128a565b815b9250505061100f565b610a3d8585846113cd565b60008080600019858709858702925082811083820303915050806000036112d8578382816112ce576112ce611aa1565b0492505050610f87565b83811061130257604051631dcf306360e21b81526004810182905260248101859052604401610aae565b60008486880960026001871981018816978890046003810283188082028403028082028403028082028403028082028403028082028403029081029092039091026000889003889004909101858311909403939093029303949094049190911702949350505050565b6000826001600160a01b0316846001600160a01b0316111561138b579192915b60006113ae856001600160a01b0316856001600160a01b0316600160601b61129e565b9050610f8383826113bf88886117c8565b6001600160a01b031661129e565b6000826001600160a01b0316846001600160a01b031611156113ed579192915b610e6682600160601b6113bf87876117c8565b634e487b7160e01b600052604160045260246000fd5b600082601f83011261142757600080fd5b813567ffffffffffffffff8082111561144257611442611400565b604051601f8301601f19908116603f0116810190828211818310171561146a5761146a611400565b8160405283815286602085880101111561148357600080fd5b836020870160208301376000602085830101528094505050505092915050565b600080604083850312156114b657600080fd5b823567ffffffffffffffff8111156114cd57600080fd5b6114d985828601611416565b95602094909401359450505050565b6000606082018583526020606081850152818651808452608086019150828801935060005b818110156115325784516001600160a01b03168352938301939183019160010161150d565b50508481036040860152855180825290820192508186019060005b8181101561156c57825160020b8552938301939183019160010161154d565b509298975050505050505050565b6001600160a01b038116811461158f57600080fd5b50565b803562ffffff811681146115a557600080fd5b919050565b600060a082840312156115bc57600080fd5b60405160a0810181811067ffffffffffffffff821117156115df576115df611400565b60405282356115ed8161157a565b815260208301356115fd8161157a565b602082015261160e60408401611592565b604082015260608301356060820152608083013561162b8161157a565b60808201529392505050565b8060020b811461158f57600080fd5b600060c0828403121561165857600080fd5b60405160c0810181811067ffffffffffffffff8211171561167b5761167b611400565b60405282356116898161157a565b815260208301356116998161157a565b60208201526116aa60408401611592565b604082015260608301356116bd81611637565b606082015260808301356116d081611637565b608082015260a0928301359281019290925250919050565b6000806000606084860312156116fd57600080fd5b8335925060208401359150604084013567ffffffffffffffff81111561172257600080fd5b61172e86828701611416565b9150509250925092565b634e487b7160e01b600052603260045260246000fd5b634e487b7160e01b600052601160045260246000fd5b6000600182016117765761177661174e565b5060010190565b6001600160a01b03948516815292841660208401529216604082015262ffffff909116606082015260800190565b6000602082840312156117bd57600080fd5b8151610f878161157a565b6001600160a01b038281168282160390808211156117e8576117e861174e565b5092915050565b6001600160a01b038181168382160190808211156117e8576117e861174e565b600060018060a01b038088168352602087151581850152866040850152818616606085015260a06080850152845191508160a085015260005b828110156118645785810182015185820160c001528101611848565b5050600060c0828501015260c0601f19601f8301168401019150509695505050505050565b6000806040838503121561189c57600080fd5b505080516020909101519092909150565b6000806000606084860312156118c257600080fd5b8351925060208401516118d48161157a565b60408501519092506118e581611637565b809150509250925092565b805161ffff811681146115a557600080fd5b600080600080600060a0868803121561191a57600080fd5b85516119258161157a565b602087015190955061193681611637565b9350611944604087016118f0565b9250611952606087016118f0565b9150611960608087016118f0565b90509295509295909350565b600181815b808511156119a757816000190482111561198d5761198d61174e565b8085161561199a57918102915b93841c9390800290611971565b509250929050565b6000826119be57506001610971565b816119cb57506000610971565b81600181146119e157600281146119eb57611a07565b6001915050610971565b60ff8411156119fc576119fc61174e565b50506001821b610971565b5060208310610133831016604e8410600b8410161715611a2a575081810a610971565b611a34838361196c565b8060001904821115611a4857611a4861174e565b029392505050565b6000610f8760ff8416836119af565b6000600160ff1b8201611a7457611a7461174e565b5060000390565b808201808211156109715761097161174e565b818103818111156109715761097161174e565b634e487b7160e01b600052601260045260246000fd5b600082611ac657611ac6611aa1565b500490565b60008160020b627fffff198103611ae457611ae461174e565b60000392915050565b80820281158282048414176109715761097161174e565b600082611b1357611b13611aa1565b50069056fea26469706673582212203e9840f2c352d5c33c47dbf2b618e879c368c053b3011fca682d60582a7b4f6864736f6c63430008140033",
    "bytecodeSha1": "5e7f592f595d8ff801728768ad3b6b7ef37f914e",
    "compiler": {
        "evm_version": "istanbul",
        "optimizer": {
            "enabled": true,
            "runs": 200
        },
        "version": "0.8.20+commit.a1b79de6"
    },
    "contractName": "Quoter",
    "deployedBytecode": "608060405234801561001057600080fd5b50600436106100625760003560e01c8063260a5b0314610067578063402358a5146100925780637a19fd65146100cb578063b3006639146100ec578063c45a0155146100ff578063fa461e331461013e575b600080fd5b61007a6100753660046114a3565b610153565b604051610089939291906114e8565b60405180910390f35b6100a56100a03660046115aa565b61030e565b604080519384526001600160a01b03909216602084015260020b90820152606001610089565b6100de6100d9366004611646565b61052b565b604051908152602001610089565b6100de6100fa366004611646565b6106ec565b6101267f000000000000000000000000000000000000000000000000000000000000000081565b6040516001600160a01b039091168152602001610089565b61015161014c3660046116e8565b61088e565b005b60006060806101618561094b565b67ffffffffffffffff81111561017957610179611400565b6040519080825280602002602001820160405280156101a2578160200160208202803683370190505b5091506101ae8561094b565b67ffffffffffffffff8111156101c6576101c6611400565b6040519080825280602002602001820160405280156101ef578160200160208202803683370190505b50905060005b600080600061020389610977565b925092509250600080600061025e6040518060a00160405280886001600160a01b03168152602001876001600160a01b031681526020018662ffffff1681526020018d815260200160006001600160a01b031681525061030e565b9250925092508189888151811061027757610277611738565b60200260200101906001600160a01b031690816001600160a01b031681525050808888815181106102aa576102aa611738565b602002602001019060020b908160020b81525050829a5086806102cc90611764565b9750506102d88c6109b3565b156102ed576102e68c6109ed565b9b506102fb565b8a9950505050505050610306565b5050505050506101f5565b509250925092565b805160208201516040808401519051631c9956ed60e31b815260009384938493849373__$0298c9f31864cd8aa139f2173091fa1ee4$__9363e4cab7689361037a937f00000000000000000000000000000000000000000000000000000000000000009360040161177d565b602060405180830381865af4158015610397573d6000803e3d6000fd5b505050506040513d601f19601f820116820180604052508101906103bb91906117ab565b9050600085602001516001600160a01b031686600001516001600160a01b0316109050816001600160a01b031663dd5a12d8308389606001518a608001516001600160a01b0316600014610413578a6080015161044c565b8561043c57610437600173fffd8963efd1fc6a506488495d951d5263988d266117c8565b61044c565b61044c6401000276a360016117ef565b604080516001600160a01b038a166020820152016040516020818303038152906040526040518663ffffffff1660e01b815260040161048f95949392919061180f565b60408051808303816000875af19250505080156104c9575060408051601f3d908101601f191682019092526104c691810190611889565b60015b61051f573d8080156104f7576040519150601f19603f3d011682016040523d82523d6000602084013e6104fc565b606091505b508080602001905181019061051191906118ad565b955095509550505050610524565b505050505b9193909250565b60008073__$0298c9f31864cd8aa139f2173091fa1ee4$__63e4cab7687f00000000000000000000000000000000000000000000000000000000000000008560000151866020015187604001516040518563ffffffff1660e01b8152600401610597949392919061177d565b602060405180830381865af41580156105b4573d6000803e3d6000fd5b505050506040513d601f19601f820116820180604052508101906105d891906117ab565b9050600080826001600160a01b0316633850c7bd6040518163ffffffff1660e01b815260040160a060405180830381865afa15801561061b573d6000803e3d6000fd5b505050506040513d601f19601f8201168201806040525081019061063f9190611902565b50505091509150846080015160020b8160020b1280156106685750846060015160020b8160020b135b156106e45760a0850151600160601b6001600160a01b038416046bffffffffffffffffffffffff84161515018082061515910401935060006106c586606001518760800151856002896106bb9190611a50565b8a60a00151610a1e565b90506106e0836106d88860800151610a47565b836000610e6e565b9450505b505050919050565b60008073__$0298c9f31864cd8aa139f2173091fa1ee4$__63e4cab7687f00000000000000000000000000000000000000000000000000000000000000008560000151866020015187604001516040518563ffffffff1660e01b8152600401610758949392919061177d565b602060405180830381865af4158015610775573d6000803e3d6000fd5b505050506040513d601f19601f8201168201806040525081019061079991906117ab565b9050600080826001600160a01b0316633850c7bd6040518163ffffffff1660e01b815260040160a060405180830381865afa1580156107dc573d6000803e3d6000fd5b505050506040513d601f19601f820116820180604052508101906108009190611902565b50505091509150846080015160020b8160020b1280156108295750846060015160020b8160020b135b156106e45761084a826001600160a01b03168660a00151600160601b610f43565b9350600061087386606001518760800151858960a0015160028a61086e9190611a50565b610a1e565b90506106e06108858760600151610a47565b84836000610f8e565b6000818060200190518101906108a491906117ab565b905060008085136108bd576108b885611a5f565b6108c6565b6108c684611a5f565b9050600080836001600160a01b0316633850c7bd6040518163ffffffff1660e01b815260040160a060405180830381865afa158015610909573d6000803e3d6000fd5b505050506040513d601f19601f8201168201806040525081019061092d9190611902565b50505091509150604051838152826020820152816040820152606081fd5b600061095960036014611a7b565b601483516109679190611a8e565b6109719190611ab7565b92915050565b600080806109858482611018565b925061099284601461107d565b90506109aa6109a360036014611a7b565b8590611018565b91509193909250565b60006109c160036014611a7b565b60146109ce600382611a7b565b6109d89190611a7b565b6109e29190611a7b565b825110159050919050565b60606109716109fe60036014611a7b565b610a0a60036014611a7b565b8451610a169190611a8e565b8491906110da565b6000610a3d84610a2d88610a47565b610a3688610a47565b86866111e7565b9695505050505050565b60008060008360020b12610a5e578260020b610a6b565b8260020b610a6b90611a5f565b9050610a7a620d89e719611acb565b62ffffff16811115610ab75760405162461bcd60e51b81526020600482015260016024820152601560fa1b60448201526064015b60405180910390fd5b600081600116600003610ace57600160801b610ae0565b6ffffcb933bd6fad37aa2d162d1a5940015b70ffffffffffffffffffffffffffffffffff1690506002821615610b1f576080610b1a826ffff97272373d413259a46990580e213a611aed565b901c90505b6004821615610b49576080610b44826ffff2e50f5f656932ef12357cf3c7fdcc611aed565b901c90505b6008821615610b73576080610b6e826fffe5caca7e10e4e61c3624eaa0941cd0611aed565b901c90505b6010821615610b9d576080610b98826fffcb9843d60f6159c9db58835c926644611aed565b901c90505b6020821615610bc7576080610bc2826fff973b41fa98c081472e6896dfb254c0611aed565b901c90505b6040821615610bf1576080610bec826fff2ea16466c96a3843ec78b326b52861611aed565b901c90505b6080821615610c1b576080610c16826ffe5dee046a99a2a811c461f1969c3053611aed565b901c90505b610100821615610c46576080610c41826ffcbe86c7900a88aedcffc83b479aa3a4611aed565b901c90505b610200821615610c71576080610c6c826ff987a7253ac413176f2b074cf7815e54611aed565b901c90505b610400821615610c9c576080610c97826ff3392b0822b70005940c7a398e4b70f3611aed565b901c90505b610800821615610cc7576080610cc2826fe7159475a2c29b7443b29c7fa6e889d9611aed565b901c90505b611000821615610cf2576080610ced826fd097f3bdfd2022b8845ad8f792aa5825611aed565b901c90505b612000821615610d1d576080610d18826fa9f746462d870fdf8a65dc1f90e061e5611aed565b901c90505b614000821615610d48576080610d43826f70d869a156d2a1b890bb3df62baf32f7611aed565b901c90505b618000821615610d73576080610d6e826f31be135f97d08fd981231505542fcfa6611aed565b901c90505b62010000821615610d9f576080610d9a826f09aa508b5b7a84e1c677de54f3e99bc9611aed565b901c90505b62020000821615610dca576080610dc5826e5d6af8dedb81196699c329225ee604611aed565b901c90505b62040000821615610df4576080610def826d2216e584f5fa1ea926041bedfe98611aed565b901c90505b62080000821615610e1c576080610e17826b048a170391f7dc42444e8fa2611aed565b901c90505b60008460020b1315610e3757610e3481600019611ab7565b90505b610e4664010000000082611b04565b15610e52576001610e55565b60005b610e669060ff16602083901c611a7b565b949350505050565b6000836001600160a01b0316856001600160a01b03161115610e8e579293925b6000856001600160a01b031611610ea457600080fd5b6fffffffffffffffffffffffffffffffff60601b606084901b166000610eca87876117c8565b6001600160a01b031690508315610f0e57610f07610ef28383896001600160a01b0316610f43565b886001600160a01b0316808204910615150190565b9250610f39565b866001600160a01b0316610f2c8383896001600160a01b031661129e565b610f369190611ab7565b92505b5050949350505050565b6000610f5084848461129e565b905060008280610f6257610f62611aa1565b8486091115610f87576000198110610f7957600080fd5b80610f8381611764565b9150505b9392505050565b6000836001600160a01b0316856001600160a01b03161115610fae579293925b8115610fe557610fde6001600160801b038416610fcb87876117c8565b6001600160a01b0316600160601b610f43565b9050610e66565b61100f6001600160801b038416610ffc87876117c8565b6001600160a01b0316600160601b61129e565b95945050505050565b6000611025826014611a7b565b8351101561106d5760405162461bcd60e51b8152602060048201526015602482015274746f416464726573735f6f75744f66426f756e647360581b6044820152606401610aae565b500160200151600160601b900490565b600061108a826003611a7b565b835110156110d15760405162461bcd60e51b8152602060048201526014602482015273746f55696e7432345f6f75744f66426f756e647360601b6044820152606401610aae565b50016003015190565b6060816110e881601f611a7b565b10156111275760405162461bcd60e51b815260206004820152600e60248201526d736c6963655f6f766572666c6f7760901b6044820152606401610aae565b6111318284611a7b565b845110156111755760405162461bcd60e51b8152602060048201526011602482015270736c6963655f6f75744f66426f756e647360781b6044820152606401610aae565b60608215801561119457604051915060008252602082016040526111de565b6040519150601f8416801560200281840101858101878315602002848b0101015b818310156111cd5780518352602092830192016111b5565b5050858452601f01601f1916604052505b50949350505050565b6000836001600160a01b0316856001600160a01b03161115611207579293925b846001600160a01b0316866001600160a01b0316116112325761122b85858561136b565b905061100f565b836001600160a01b0316866001600160a01b03161161129357600061125887868661136b565b905060006112678789866113cd565b9050806001600160801b0316826001600160801b031610611288578061128a565b815b9250505061100f565b610a3d8585846113cd565b60008080600019858709858702925082811083820303915050806000036112d8578382816112ce576112ce611aa1565b0492505050610f87565b83811061130257604051631dcf306360e21b81526004810182905260248101859052604401610aae565b60008486880960026001871981018816978890046003810283188082028403028082028403028082028403028082028403028082028403029081029092039091026000889003889004909101858311909403939093029303949094049190911702949350505050565b6000826001600160a01b0316846001600160a01b0316111561138b579192915b60006113ae856001600160a01b0316856001600160a01b0316600160601b61129e565b9050610f8383826113bf88886117c8565b6001600160a01b031661129e565b6000826001600160a01b0316846001600160a01b031611156113ed579192915b610e6682600160601b6113bf87876117c8565b634e487b7160e01b600052604160045260246000fd5b600082601f83011261142757600080fd5b813567ffffffffffffffff8082111561144257611442611400565b604051601f8301601f19908116603f0116810190828211818310171561146a5761146a611400565b8160405283815286602085880101111561148357600080fd5b836020870160208301376000602085830101528094505050505092915050565b600080604083850312156114b657600080fd5b823567ffffffffffffffff8111156114cd57600080fd5b6114d985828601611416565b95602094909401359450505050565b6000606082018583526020606081850152818651808452608086019150828801935060005b818110156115325784516001600160a01b03168352938301939183019160010161150d565b50508481036040860152855180825290820192508186019060005b8181101561156c57825160020b8552938301939183019160010161154d565b509298975050505050505050565b6001600160a01b038116811461158f57600080fd5b50565b803562ffffff811681146115a557600080fd5b919050565b600060a082840312156115bc57600080fd5b60405160a0810181811067ffffffffffffffff821117156115df576115df611400565b60405282356115ed8161157a565b815260208301356115fd8161157a565b602082015261160e60408401611592565b604082015260608301356060820152608083013561162b8161157a565b60808201529392505050565b8060020b811461158f57600080fd5b600060c0828403121561165857600080fd5b60405160c0810181811067ffffffffffffffff8211171561167b5761167b611400565b60405282356116898161157a565b815260208301356116998161157a565b60208201526116aa60408401611592565b604082015260608301356116bd81611637565b606082015260808301356116d081611637565b608082015260a0928301359281019290925250919050565b6000806000606084860312156116fd57600080fd5b8335925060208401359150604084013567ffffffffffffffff81111561172257600080fd5b61172e86828701611416565b9150509250925092565b634e487b7160e01b600052603260045260246000fd5b634e487b7160e01b600052601160045260246000fd5b6000600182016117765761177661174e565b5060010190565b6001600160a01b03948516815292841660208401529216604082015262ffffff909116606082015260800190565b6000602082840312156117bd57600080fd5b8151610f878161157a565b6001600160a01b038281168282160390808211156117e8576117e861174e565b5092915050565b6001600160a01b038181168382160190808211156117e8576117e861174e565b600060018060a01b038088168352602087151581850152866040850152818616606085015260a06080850152845191508160a085015260005b828110156118645785810182015185820160c001528101611848565b5050600060c0828501015260c0601f19601f8301168401019150509695505050505050565b6000806040838503121561189c57600080fd5b505080516020909101519092909150565b6000806000606084860312156118c257600080fd5b8351925060208401516118d48161157a565b60408501519092506118e581611637565b809150509250925092565b805161ffff811681146115a557600080fd5b600080600080600060a0868803121561191a57600080fd5b85516119258161157a565b602087015190955061193681611637565b9350611944604087016118f0565b9250611952606087016118f0565b9150611960608087016118f0565b90509295509295909350565b600181815b808511156119a757816000190482111561198d5761198d61174e565b8085161561199a57918102915b93841c9390800290611971565b509250929050565b6000826119be57506001610971565b816119cb57506000610971565b81600181146119e157600281146119eb57611a07565b6001915050610971565b60ff8411156119fc576119fc61174e565b50506001821b610971565b5060208310610133831016604e8410600b8410161715611a2a575081810a610971565b611a34838361196c565b8060001904821115611a4857611a4861174e565b029392505050565b6000610f8760ff8416836119af565b6000600160ff1b8201611a7457611a7461174e565b5060000390565b808201808211156109715761097161174e565b818103818111156109715761097161174e565b634e487b7160e01b600052601260045260246000fd5b600082611ac657611ac6611aa1565b500490565b60008160020b627fffff198103611ae457611ae461174e565b60000392915050565b80820281158282048414176109715761097161174e565b600082611b1357611b13611aa1565b50069056fea26469706673582212203e9840f2c352d5c33c47dbf2b618e879c368c053b3011fca682d60582a7b4f6864736f6c63430008140033",
    "language": "Solidity",
    "natspec": {
        "errors": {
            "PRBMath__MulDivOverflow(uint256,uint256)": [
                {
                    "notice": "Emitted when the result overflows uint256."
                }
            ]
        },
        "kind": "dev",
        "methods": {},
        "version": 1
    },
    "opcodes": "PUSH1 0x80 PUSH1 0x40 MSTORE CALLVALUE DUP1 ISZERO PUSH2 0x10 JUMPI PUSH1 0x0 DUP1 REVERT JUMPDEST POP PUSH1 0x4 CALLDATASIZE LT PUSH2 0x62 JUMPI PUSH1 0x0 CALLDATALOAD PUSH1 0xE0 SHR DUP1 PUSH4 0x260A5B03 EQ PUSH2 0x67 JUMPI DUP1 PUSH4 0x402358A5 EQ PUSH2 0x92 JUMPI DUP1 PUSH4 0x7A19FD65 EQ PUSH2 0xCB JUMPI DUP1 PUSH4 0xB3006639 EQ PUSH2 0xEC JUMPI DUP1 PUSH4 0xC45A0155 EQ PUSH2 0xFF JUMPI DUP1 PUSH4 0xFA461E33 EQ PUSH2 0x13E JUMPI JUMPDEST PUSH1 0x0 DUP1 REVERT JUMPDEST PUSH2 0x7A PUSH2 0x75 CALLDATASIZE PUSH1 0x4 PUSH2 0x14A3 JUMP JUMPDEST PUSH2 0x153 JUMP JUMPDEST PUSH1 0x40 MLOAD PUSH2 0x89 SWAP4 SWAP3 SWAP2 SWAP1 PUSH2 0x14E8 JUMP JUMPDEST PUSH1 0x40 MLOAD DUP1 SWAP2 SUB SWAP1 RETURN JUMPDEST PUSH2 0xA5 PUSH2 0xA0 CALLDATASIZE PUSH1 0x4 PUSH2 0x15AA JUMP JUMPDEST PUSH2 0x30E JUMP JUMPDEST PUSH1 0x40 DUP1 MLOAD SWAP4 DUP5 MSTORE PUSH1 0x1 PUSH1 0x1 PUSH1 0xA0 SHL SUB SWAP1 SWAP3 AND PUSH1 0x20 DUP5 ADD MSTORE PUSH1 0x2 SIGNEXTEND SWAP1 DUP3 ADD MSTORE PUSH1 0x60 ADD PUSH2 0x89 JUMP JUMPDEST PUSH2 0xDE PUSH2 0xD9 CALLDATASIZE PUSH1 0x4 PUSH2 0x1646 JUMP JUMPDEST PUSH2 0x52B JUMP JUMPDEST PUSH1 0x40 MLOAD SWAP1 DUP2 MSTORE PUSH1 0x20 ADD PUSH2 0x89 JUMP JUMPDEST PUSH2 0xDE PUSH2 0xFA CALLDATASIZE PUSH1 0x4 PUSH2 0x1646 JUMP JUMPDEST PUSH2 0x6EC JUMP JUMPDEST PUSH2 0x126 PUSH32 0x0 DUP2 JUMP JUMPDEST PUSH1 0x40 MLOAD PUSH1 0x1 PUSH1 0x1 PUSH1 0xA0 SHL SUB SWAP1 SWAP2 AND DUP2 MSTORE PUSH1 0x20 ADD PUSH2 0x89 JUMP JUMPDEST PUSH2 0x151 PUSH2 0x14C CALLDATASIZE PUSH1 0x4 PUSH2 0x16E8 JUMP JUMPDEST PUSH2 0x88E JUMP JUMPDEST STOP JUMPDEST PUSH1 0x0 PUSH1 0x60 DUP1 PUSH2 0x161 DUP6 PUSH2 0x94B JUMP JUMPDEST PUSH8 0xFFFFFFFFFFFFFFFF DUP2 GT ISZERO PUSH2 0x179 JUMPI PUSH2 0x179 PUSH2 0x1400 JUMP JUMPDEST PUSH1 0x40 MLOAD SWAP1 DUP1 DUP3 MSTORE DUP1 PUSH1 0x20 MUL PUSH1 0x20 ADD DUP3 ADD PUSH1 0x40 MSTORE DUP1 ISZERO PUSH2 0x1A2 JUMPI DUP2 PUSH1 0x20 ADD PUSH1 0x20 DUP3 MUL DUP1 CALLDATASIZE DUP4 CALLDATACOPY ADD SWAP1 POP JUMPDEST POP SWAP2 POP PUSH2 0x1AE DUP6 PUSH2 0x94B JUMP JUMPDEST PUSH8 0xFFFFFFFFFFFFFFFF DUP2 GT ISZERO PUSH2 0x1C6 JUMPI PUSH2 0x1C6 PUSH2 0x1400 JUMP JUMPDEST PUSH1 0x40 MLOAD SWAP1 DUP1 DUP3 MSTORE DUP1 PUSH1 0x20 MUL PUSH1 0x20 ADD DUP3 ADD PUSH1 0x40 MSTORE DUP1 ISZERO PUSH2 0x1EF JUMPI DUP2 PUSH1 0x20 ADD PUSH1 0x20 DUP3 MUL DUP1 CALLDATASIZE DUP4 CALLDATACOPY ADD SWAP1 POP JUMPDEST POP SWAP1 POP PUSH1 0x0 JUMPDEST PUSH1 0x0 DUP1 PUSH1 0x0 PUSH2 0x203 DUP10 PUSH2 0x977 JUMP JUMPDEST SWAP3 POP SWAP3 POP SWAP3 POP PUSH1 0x0 DUP1 PUSH1 0x0 PUSH2 0x25E PUSH1 0x40 MLOAD DUP1 PUSH1 0xA0 ADD PUSH1 0x40 MSTORE DUP1 DUP9 PUSH1 0x1 PUSH1 0x1 PUSH1 0xA0 SHL SUB AND DUP2 MSTORE PUSH1 0x20 ADD DUP8 PUSH1 0x1 PUSH1 0x1 PUSH1 0xA0 SHL SUB AND DUP2 MSTORE PUSH1 0x20 ADD DUP7 PUSH3 0xFFFFFF AND DUP2 MSTORE PUSH1 0x20 ADD DUP14 DUP2 MSTORE PUSH1 0x20 ADD PUSH1 0x0 PUSH1 0x1 PUSH1 0x1 PUSH1 0xA0 SHL SUB AND DUP2 MSTORE POP PUSH2 0x30E JUMP JUMPDEST SWAP3 POP SWAP3 POP SWAP3 POP DUP2 DUP10 DUP9 DUP2 MLOAD DUP2 LT PUSH2 0x277 JUMPI PUSH2 0x277 PUSH2 0x1738 JUMP JUMPDEST PUSH1 0x20 MUL PUSH1 0x20 ADD ADD SWAP1 PUSH1 0x1 PUSH1 0x1 PUSH1 0xA0 SHL SUB AND SWAP1 DUP2 PUSH1 0x1 PUSH1 0x1 PUSH1 0xA0 SHL SUB AND DUP2 MSTORE POP POP DUP1 DUP9 DUP9 DUP2 MLOAD DUP2 LT PUSH2 0x2AA JUMPI PUSH2 0x2AA PUSH2 0x1738 JUMP JUMPDEST PUSH1 0x20 MUL PUSH1 0x20 ADD ADD SWAP1 PUSH1 0x2 SIGNEXTEND SWAP1 DUP2 PUSH1 0x2 SIGNEXTEND DUP2 MSTORE POP POP DUP3 SWAP11 POP DUP7 DUP1 PUSH2 0x2CC SWAP1 PUSH2 0x1764 JUMP JUMPDEST SWAP8 POP POP PUSH2 0x2D8 DUP13 PUSH2 0x9B3 JUMP JUMPDEST ISZERO PUSH2 0x2ED JUMPI PUSH2 0x2E6 DUP13 PUSH2 0x9ED JUMP JUMPDEST SWAP12 POP PUSH2 0x2FB JUMP JUMPDEST DUP11 SWAP10 POP POP POP POP POP POP POP PUSH2 0x306 JUMP JUMPDEST POP POP POP POP POP POP PUSH2 0x1F5 JUMP JUMPDEST POP SWAP3 POP SWAP3 POP SWAP3 JUMP JUMPDEST DUP1 MLOAD PUSH1 0x20 DUP3 ADD MLOAD PUSH1 0x40 DUP1 DUP5 ADD MLOAD SWAP1 MLOAD PUSH4 0x1C9956ED PUSH1 0xE3 SHL DUP2 MSTORE PUSH1 0x0 SWAP4 DUP5 SWAP4 DUP5 SWAP4 DUP5 SWAP4 PUSH20 0x0 SWAP4 PUSH4 0xE4CAB768 SWAP4 PUSH2 0x37A SWAP4 PUSH32 0x0 SWAP4 PUSH1 0x4 ADD PUSH2 0x177D JUMP JUMPDEST PUSH1 0x20 PUSH1 0x40 MLOAD DUP1 DUP4 SUB DUP2 DUP7 GAS DELEGATECALL ISZERO DUP1 ISZERO PUSH2 0x397 JUMPI RETURNDATASIZE PUSH1 0x0 DUP1 RETURNDATACOPY RETURNDATASIZE PUSH1 0x0 REVERT JUMPDEST POP POP POP POP PUSH1 0x40 MLOAD RETURNDATASIZE PUSH1 0x1F NOT PUSH1 0x1F DUP3 ADD AND DUP3 ADD DUP1 PUSH1 0x40 MSTORE POP DUP2 ADD SWAP1 PUSH2 0x3BB SWAP2 SWAP1 PUSH2 0x17AB JUMP JUMPDEST SWAP1 POP PUSH1 0x0 DUP6 PUSH1 0x20 ADD MLOAD PUSH1 0x1 PUSH1 0x1 PUSH1 0xA0 SHL SUB AND DUP7 PUSH1 0x0 ADD MLOAD PUSH1 0x1 PUSH1 0x1 PUSH1 0xA0 SHL SUB AND LT SWAP1 POP DUP2 PUSH1 0x1 PUSH1 0x1 PUSH1 0xA0 SHL SUB AND PUSH4 0xDD5A12D8 ADDRESS DUP4 DUP10 PUSH1 0x60 ADD MLOAD DUP11 PUSH1 0x80 ADD MLOAD PUSH1 0x1 PUSH1 0x1 PUSH1 0xA0 SHL SUB AND PUSH1 0x0 EQ PUSH2 0x413 JUMPI DUP11 PUSH1 0x80 ADD MLOAD PUSH2 0x44C JUMP JUMPDEST DUP6 PUSH2 0x43C JUMPI PUSH2 0x437 PUSH1 0x1 PUSH20 0xFFFD8963EFD1FC6A506488495D951D5263988D26 PUSH2 0x17C8 JUMP JUMPDEST PUSH2 0x44C JUMP JUMPDEST PUSH2 0x44C PUSH5 0x1000276A3 PUSH1 0x1 PUSH2 0x17EF JUMP JUMPDEST PUSH1 0x40 DUP1 MLOAD PUSH1 0x1 PUSH1 0x1 PUSH1 0xA0 SHL SUB DUP11 AND PUSH1 0x20 DUP3 ADD MSTORE ADD PUSH1 0x40 MLOAD PUSH1 0x20 DUP2 DUP4 SUB SUB DUP2 MSTORE SWAP1 PUSH1 0x40 MSTORE PUSH1 0x40 MLOAD DUP7 PUSH4 0xFFFFFFFF AND PUSH1 0xE0 SHL DUP2 MSTORE PUSH1 0x4 ADD PUSH2 0x48F SWAP6 SWAP5 SWAP4 SWAP3 SWAP2 SWAP1 PUSH2 0x180F JUMP JUMPDEST PUSH1 0x40 DUP1 MLOAD DUP1 DUP4 SUB DUP2 PUSH1 0x0 DUP8 GAS CALL SWAP3 POP POP POP DUP1 ISZERO PUSH2 0x4C9 JUMPI POP PUSH1 0x40 DUP1 MLOAD PUSH1 0x1F RETURNDATASIZE SWAP1 DUP2 ADD PUSH1 0x1F NOT AND DUP3 ADD SWAP1 SWAP3 MSTORE PUSH2 0x4C6 SWAP2 DUP2 ADD SWAP1 PUSH2 0x1889 JUMP JUMPDEST PUSH1 0x1 JUMPDEST PUSH2 0x51F JUMPI RETURNDATASIZE DUP1 DUP1 ISZERO PUSH2 0x4F7 JUMPI PUSH1 0x40 MLOAD SWAP2 POP PUSH1 0x1F NOT PUSH1 0x3F RETURNDATASIZE ADD AND DUP3 ADD PUSH1 0x40 MSTORE RETURNDATASIZE DUP3 MSTORE RETURNDATASIZE PUSH1 0x0 PUSH1 0x20 DUP5 ADD RETURNDATACOPY PUSH2 0x4FC JUMP JUMPDEST PUSH1 0x60 SWAP2 POP JUMPDEST POP DUP1 DUP1 PUSH1 0x20 ADD SWAP1 MLOAD DUP2 ADD SWAP1 PUSH2 0x511 SWAP2 SWAP1 PUSH2 0x18AD JUMP JUMPDEST SWAP6 POP SWAP6 POP SWAP6 POP POP POP POP PUSH2 0x524 JUMP JUMPDEST POP POP POP POP JUMPDEST SWAP2 SWAP4 SWAP1 SWAP3 POP JUMP JUMPDEST PUSH1 0x0 DUP1 PUSH20 0x0 PUSH4 0xE4CAB768 PUSH32 0x0 DUP6 PUSH1 0x0 ADD MLOAD DUP7 PUSH1 0x20 ADD MLOAD DUP8 PUSH1 0x40 ADD MLOAD PUSH1 0x40 MLOAD DUP6 PUSH4 0xFFFFFFFF AND PUSH1 0xE0 SHL DUP2 MSTORE PUSH1 0x4 ADD PUSH2 0x597 SWAP5 SWAP4 SWAP3 SWAP2 SWAP1 PUSH2 0x177D JUMP JUMPDEST PUSH1 0x20 PUSH1 0x40 MLOAD DUP1 DUP4 SUB DUP2 DUP7 GAS DELEGATECALL ISZERO DUP1 ISZERO PUSH2 0x5B4 JUMPI RETURNDATASIZE PUSH1 0x0 DUP1 RETURNDATACOPY RETURNDATASIZE PUSH1 0x0 REVERT JUMPDEST POP POP POP POP PUSH1 0x40 MLOAD RETURNDATASIZE PUSH1 0x1F NOT PUSH1 0x1F DUP3 ADD AND DUP3 ADD DUP1 PUSH1 0x40 MSTORE POP DUP2 ADD SWAP1 PUSH2 0x5D8 SWAP2 SWAP1 PUSH2 0x17AB JUMP JUMPDEST SWAP1 POP PUSH1 0x0 DUP1 DUP3 PUSH1 0x1 PUSH1 0x1 PUSH1 0xA0 SHL SUB AND PUSH4 0x3850C7BD PUSH1 0x40 MLOAD DUP2 PUSH4 0xFFFFFFFF AND PUSH1 0xE0 SHL DUP2 MSTORE PUSH1 0x4 ADD PUSH1 0xA0 PUSH1 0x40 MLOAD DUP1 DUP4 SUB DUP2 DUP7 GAS STATICCALL ISZERO DUP1 ISZERO PUSH2 0x61B JUMPI RETURNDATASIZE PUSH1 0x0 DUP1 RETURNDATACOPY RETURNDATASIZE PUSH1 0x0 REVERT JUMPDEST POP POP POP POP PUSH1 0x40 MLOAD RETURNDATASIZE PUSH1 0x1F NOT PUSH1 0x1F DUP3 ADD AND DUP3 ADD DUP1 PUSH1 0x40 MSTORE POP DUP2 ADD SWAP1 PUSH2 0x63F SWAP2 SWAP1 PUSH2 0x1902 JUMP JUMPDEST POP POP POP SWAP2 POP SWAP2 POP DUP5 PUSH1 0x80 ADD MLOAD PUSH1 0x2 SIGNEXTEND DUP2 PUSH1 0x2 SIGNEXTEND SLT DUP1 ISZERO PUSH2 0x668 JUMPI POP DUP5 PUSH1 0x60 ADD MLOAD PUSH1 0x2 SIGNEXTEND DUP2 PUSH1 0x2 SIGNEXTEND SGT JUMPDEST ISZERO PUSH2 0x6E4 JUMPI PUSH1 0xA0 DUP6 ADD MLOAD PUSH1 0x1 PUSH1 0x60 SHL PUSH1 0x1 PUSH1 0x1 PUSH1 0xA0 SHL SUB DUP5 AND DIV PUSH12 0xFFFFFFFFFFFFFFFFFFFFFFFF DUP5 AND ISZERO ISZERO ADD DUP1 DUP3 MOD ISZERO ISZERO SWAP2 DIV ADD SWAP4 POP PUSH1 0x0 PUSH2 0x6C5 DUP7 PUSH1 0x60 ADD MLOAD DUP8 PUSH1 0x80 ADD MLOAD DUP6 PUSH1 0x2 DUP10 PUSH2 0x6BB SWAP2 SWAP1 PUSH2 0x1A50 JUMP JUMPDEST DUP11 PUSH1 0xA0 ADD MLOAD PUSH2 0xA1E JUMP JUMPDEST SWAP1 POP PUSH2 0x6E0 DUP4 PUSH2 0x6D8 DUP9 PUSH1 0x80 ADD MLOAD PUSH2 0xA47 JUMP JUMPDEST DUP4 PUSH1 0x0 PUSH2 0xE6E JUMP JUMPDEST SWAP5 POP POP JUMPDEST POP POP POP SWAP2 SWAP1 POP JUMP JUMPDEST PUSH1 0x0 DUP1 PUSH20 0x0 PUSH4 0xE4CAB768 PUSH32 0x0 DUP6 PUSH1 0x0 ADD MLOAD DUP7 PUSH1 0x20 ADD MLOAD DUP8 PUSH1 0x40 ADD MLOAD PUSH1 0x40 MLOAD DUP6 PUSH4 0xFFFFFFFF AND PUSH1 0xE0 SHL DUP2 MSTORE PUSH1 0x4 ADD PUSH2 0x758 SWAP5 SWAP4 SWAP3 SWAP2 SWAP1 PUSH2 0x177D JUMP JUMPDEST PUSH1 0x20 PUSH1 0x40 MLOAD DUP1 DUP4 SUB DUP2 DUP7 GAS DELEGATECALL ISZERO DUP1 ISZERO PUSH2 0x775 JUMPI RETURNDATASIZE PUSH1 0x0 DUP1 RETURNDATACOPY RETURNDATASIZE PUSH1 0x0 REVERT JUMPDEST POP POP POP POP PUSH1 0x40 MLOAD RETURNDATASIZE PUSH1 0x1F NOT PUSH1 0x1F DUP3 ADD AND DUP3 ADD DUP1 PUSH1 0x40 MSTORE POP DUP2 ADD SWAP1 PUSH2 0x799 SWAP2 SWAP1 PUSH2 0x17AB JUMP JUMPDEST SWAP1 POP PUSH1 0x0 DUP1 DUP3 PUSH1 0x1 PUSH1 0x1 PUSH1 0xA0 SHL SUB AND PUSH4 0x3850C7BD PUSH1 0x40 MLOAD DUP2 PUSH4 0xFFFFFFFF AND PUSH1 0xE0 SHL DUP2 MSTORE PUSH1 0x4 ADD PUSH1 0xA0 PUSH1 0x40 MLOAD DUP1 DUP4 SUB DUP2 DUP7 GAS STATICCALL ISZERO DUP1 ISZERO PUSH2 0x7DC JUMPI RETURNDATASIZE PUSH1 0x0 DUP1 RETURNDATACOPY RETURNDATASIZE PUSH1 0x0 REVERT JUMPDEST POP POP POP POP PUSH1 0x40 MLOAD RETURNDATASIZE PUSH1 0x1F NOT PUSH1 0x1F DUP3 ADD AND DUP3 ADD DUP1 PUSH1 0x40 MSTORE POP DUP2 ADD SWAP1 PUSH2 0x800 SWAP2 SWAP1 PUSH2 0x1902 JUMP JUMPDEST POP POP POP SWAP2 POP SWAP2 POP DUP5 PUSH1 0x80 ADD MLOAD PUSH1 0x2 SIGNEXTEND DUP2 PUSH1 0x2 SIGNEXTEND SLT DUP1 ISZERO PUSH2 0x829 JUMPI POP DUP5 PUSH1 0x60 ADD MLOAD PUSH1 0x2 SIGNEXTEND DUP2 PUSH1 0x2 SIGNEXTEND SGT JUMPDEST ISZERO PUSH2 0x6E4 JUMPI PUSH2 0x84A DUP3 PUSH1 0x1 PUSH1 0x1 PUSH1 0xA0 SHL SUB AND DUP7 PUSH1 0xA0 ADD MLOAD PUSH1 0x1 PUSH1 0x60 SHL PUSH2 0xF43 JUMP JUMPDEST SWAP4 POP PUSH1 0x0 PUSH2 0x873 DUP7 PUSH1 0x60 ADD MLOAD DUP8 PUSH1 0x80 ADD MLOAD DUP6 DUP10 PUSH1 0xA0 ADD MLOAD PUSH1 0x2 DUP11 PUSH2 0x86E SWAP2 SWAP1 PUSH2 0x1A50 JUMP JUMPDEST PUSH2 0xA1E JUMP JUMPDEST SWAP1 POP PUSH2 0x6E0 PUSH2 0x885 DUP8 PUSH1 0x60 ADD MLOAD PUSH2 0xA47 JUMP JUMPDEST DUP5 DUP4 PUSH1 0x0 PUSH2 0xF8E JUMP JUMPDEST PUSH1 0x0 DUP2 DUP1 PUSH1 0x20 ADD SWAP1 MLOAD DUP2 ADD SWAP1 PUSH2 0x8A4 SWAP2 SWAP1 PUSH2 0x17AB JUMP JUMPDEST SWAP1 POP PUSH1 0x0 DUP1 DUP6 SGT PUSH2 0x8BD JUMPI PUSH2 0x8B8 DUP6 PUSH2 0x1A5F JUMP JUMPDEST PUSH2 0x8C6 JUMP JUMPDEST PUSH2 0x8C6 DUP5 PUSH2 0x1A5F JUMP JUMPDEST SWAP1 POP PUSH1 0x0 DUP1 DUP4 PUSH1 0x1 PUSH1 0x1 PUSH1 0xA0 SHL SUB AND PUSH4 0x3850C7BD PUSH1 0x40 MLOAD DUP2 PUSH4 0xFFFFFFFF AND PUSH1 0xE0 SHL DUP2 MSTORE PUSH1 0x4 ADD PUSH1 0xA0 PUSH1 0x40 MLOAD DUP1 DUP4 SUB DUP2 DUP7 GAS STATICCALL ISZERO DUP1 ISZERO PUSH2 0x909 JUMPI RETURNDATASIZE PUSH1 0x0 DUP1 RETURNDATACOPY RETURNDATASIZE PUSH1 0x0 REVERT JUMPDEST POP POP POP POP PUSH1 0x40 MLOAD RETURNDATASIZE PUSH1 0x1F NOT PUSH1 0x1F DUP3 ADD AND DUP3 ADD DUP1 PUSH1 0x40 MSTORE POP DUP2 ADD SWAP1 PUSH2 0x92D SWAP2 SWAP1 PUSH2 0x1902 JUMP JUMPDEST POP POP POP SWAP2 POP SWAP2 POP PUSH1 0x40 MLOAD DUP4 DUP2 MSTORE DUP3 PUSH1 0x20 DUP3 ADD MSTORE DUP2 PUSH1 0x40 DUP3 ADD MSTORE PUSH1 0x60 DUP2 REVERT JUMPDEST PUSH1 0x0 PUSH2 0x959 PUSH1 0x3 PUSH1 0x14 PUSH2 0x1A7B JUMP JUMPDEST PUSH1 0x14 DUP4 MLOAD PUSH2 0x967 SWAP2 SWAP1 PUSH2 0x1A8E JUMP JUMPDEST PUSH2 0x971 SWAP2 SWAP1 PUSH2 0x1AB7 JUMP JUMPDEST SWAP3 SWAP2 POP POP JUMP JUMPDEST PUSH1 0x0 DUP1 DUP1 PUSH2 0x985 DUP5 DUP3 PUSH2 0x1018 JUMP JUMPDEST SWAP3 POP PUSH2 0x992 DUP5 PUSH1 0x14 PUSH2 0x107D JUMP JUMPDEST SWAP1 POP PUSH2 0x9AA PUSH2 0x9A3 PUSH1 0x3 PUSH1 0x14 PUSH2 0x1A7B JUMP JUMPDEST DUP6 SWAP1 PUSH2 0x1018 JUMP JUMPDEST SWAP2 POP SWAP2 SWAP4 SWAP1 SWAP3 POP JUMP JUMPDEST PUSH1 0x0 PUSH2 0x9C1 PUSH1 0x3 PUSH1 0x14 PUSH2 0x1A7B JUMP JUMPDEST PUSH1 0x14 PUSH2 0x9CE PUSH1 0x3 DUP3 PUSH2 0x1A7B JUMP JUMPDEST PUSH2 0x9D8 SWAP2 SWAP1 PUSH2 0x1A7B JUMP JUMPDEST PUSH2 0x9E2 SWAP2 SWAP1 PUSH2 0x1A7B JUMP JUMPDEST DUP3 MLOAD LT ISZERO SWAP1 POP SWAP2 SWAP1 POP JUMP JUMPDEST PUSH1 0x60 PUSH2 0x971 PUSH2 0x9FE PUSH1 0x3 PUSH1 0x14 PUSH2 0x1A7B JUMP JUMPDEST PUSH2 0xA0A PUSH1 0x3 PUSH1 0x14 PUSH2 0x1A7B JUMP JUMPDEST DUP5 MLOAD PUSH2 0xA16 SWAP2 SWAP1 PUSH2 0x1A8E JUMP JUMPDEST DUP5 SWAP2 SWAP1 PUSH2 0x10DA JUMP JUMPDEST PUSH1 0x0 PUSH2 0xA3D DUP5 PUSH2 0xA2D DUP9 PUSH2 0xA47 JUMP JUMPDEST PUSH2 0xA36 DUP9 PUSH2 0xA47 JUMP JUMPDEST DUP7 DUP7 PUSH2 0x11E7 JUMP JUMPDEST SWAP7 SWAP6 POP POP POP POP POP POP JUMP JUMPDEST PUSH1 0x0 DUP1 PUSH1 0x0 DUP4 PUSH1 0x2 SIGNEXTEND SLT PUSH2 0xA5E JUMPI DUP3 PUSH1 0x2 SIGNEXTEND PUSH2 0xA6B JUMP JUMPDEST DUP3 PUSH1 0x2 SIGNEXTEND PUSH2 0xA6B SWAP1 PUSH2 0x1A5F JUMP JUMPDEST SWAP1 POP PUSH2 0xA7A PUSH3 0xD89E7 NOT PUSH2 0x1ACB JUMP JUMPDEST PUSH3 0xFFFFFF AND DUP2 GT ISZERO PUSH2 0xAB7 JUMPI PUSH1 0x40 MLOAD PUSH3 0x461BCD PUSH1 0xE5 SHL DUP2 MSTORE PUSH1 0x20 PUSH1 0x4 DUP3 ADD MSTORE PUSH1 0x1 PUSH1 0x24 DUP3 ADD MSTORE PUSH1 0x15 PUSH1 0xFA SHL PUSH1 0x44 DUP3 ADD MSTORE PUSH1 0x64 ADD JUMPDEST PUSH1 0x40 MLOAD DUP1 SWAP2 SUB SWAP1 REVERT JUMPDEST PUSH1 0x0 DUP2 PUSH1 0x1 AND PUSH1 0x0 SUB PUSH2 0xACE JUMPI PUSH1 0x1 PUSH1 0x80 SHL PUSH2 0xAE0 JUMP JUMPDEST PUSH16 0xFFFCB933BD6FAD37AA2D162D1A594001 JUMPDEST PUSH17 0xFFFFFFFFFFFFFFFFFFFFFFFFFFFFFFFFFF AND SWAP1 POP PUSH1 0x2 DUP3 AND ISZERO PUSH2 0xB1F JUMPI PUSH1 0x80 PUSH2 0xB1A DUP3 PUSH16 0xFFF97272373D413259A46990580E213A PUSH2 0x1AED JUMP JUMPDEST SWAP1 SHR SWAP1 POP JUMPDEST PUSH1 0x4 DUP3 AND ISZERO PUSH2 0xB49 JUMPI PUSH1 0x80 PUSH2 0xB44 DUP3 PUSH16 0xFFF2E50F5F656932EF12357CF3C7FDCC PUSH2 0x1AED JUMP JUMPDEST SWAP1 SHR SWAP1 POP JUMPDEST PUSH1 0x8 DUP3 AND ISZERO PUSH2 0xB73 JUMPI PUSH1 0x80 PUSH2 0xB6E DUP3 PUSH16 0xFFE5CACA7E10E4E61C3624EAA0941CD0 PUSH2 0x1AED JUMP JUMPDEST SWAP1 SHR SWAP1 POP JUMPDEST PUSH1 0x10 DUP3 AND ISZERO PUSH2 0xB9D JUMPI PUSH1 0x80 PUSH2 0xB98 DUP3 PUSH16 0xFFCB9843D60F6159C9DB58835C926644 PUSH2 0x1AED JUMP JUMPDEST SWAP1 SHR SWAP1 POP JUMPDEST PUSH1 0x20 DUP3 AND ISZERO PUSH2 0xBC7 JUMPI PUSH1 0x80 PUSH2 0xBC2 DUP3 PUSH16 0xFF973B41FA98C081472E6896DFB254C0 PUSH2 0x1AED JUMP JUMPDEST SWAP1 SHR SWAP1 POP JUMPDEST PUSH1 0x40 DUP3 AND ISZERO PUSH2 0xBF1 JUMPI PUSH1 0x80 PUSH2 0xBEC DUP3 PUSH16 0xFF2EA16466C96A3843EC78B326B52861 PUSH2 0x1AED JUMP JUMPDEST SWAP1 SHR SWAP1 POP JUMPDEST PUSH1 0x80 DUP3 AND ISZERO PUSH2 0xC1B JUMPI PUSH1 0x80 PUSH2 0xC16 DUP3 PUSH16 0xFE5DEE046A99A2A811C461F1969C3053 PUSH2 0x1AED JUMP JUMPDEST SWAP1 SHR SWAP1 POP JUMPDEST PUSH2 0x100 DUP3 AND ISZERO PUSH2 0xC46 JUMPI PUSH1 0x80 PUSH2 0xC41 DUP3 PUSH16 0xFCBE86C7900A88AEDCFFC83B479AA3A4 PUSH2 0x1AED JUMP JUMPDEST SWAP1 SHR SWAP1 POP JUMPDEST PUSH2 0x200 DUP3 AND ISZERO PUSH2 0xC71 JUMPI PUSH1 0x80 PUSH2 0xC6C DUP3 PUSH16 0xF987A7253AC413176F2B074CF7815E54 PUSH2 0x1AED JUMP JUMPDEST SWAP1 SHR SWAP1 POP JUMPDEST PUSH2 0x400 DUP3 AND ISZERO PUSH2 0xC9C JUMPI PUSH1 0x80 PUSH2 0xC97 DUP3 PUSH16 0xF3392B0822B70005940C7A398E4B70F3 PUSH2 0x1AED JUMP JUMPDEST SWAP1 SHR SWAP1 POP JUMPDEST PUSH2 0x800 DUP3 AND ISZERO PUSH2 0xCC7 JUMPI PUSH1 0x80 PUSH2 0xCC2 DUP3 PUSH16 0xE7159475A2C29B7443B29C7FA6E889D9 PUSH2 0x1AED JUMP JUMPDEST SWAP1 SHR SWAP1 POP JUMPDEST PUSH2 0x1000 DUP3 AND ISZERO PUSH2 0xCF2 JUMPI PUSH1 0x80 PUSH2 0xCED DUP3 PUSH16 0xD097F3BDFD2022B8845AD8F792AA5825 PUSH2 0x1AED JUMP JUMPDEST SWAP1 SHR SWAP1 POP JUMPDEST PUSH2 0x2000 DUP3 AND ISZERO PUSH2 0xD1D JUMPI PUSH1 0x80 PUSH2 0xD18 DUP3 PUSH16 0xA9F746462D870FDF8A65DC1F90E061E5 PUSH2 0x1AED JUMP JUMPDEST SWAP1 SHR SWAP1 POP JUMPDEST PUSH2 0x4000 DUP3 AND ISZERO PUSH2 0xD48 JUMPI PUSH1 0x80 PUSH2 0xD43 DUP3 PUSH16 0x70D869A156D2A1B890BB3DF62BAF32F7 PUSH2 0x1AED JUMP JUMPDEST SWAP1 SHR SWAP1 POP JUMPDEST PUSH2 0x8000 DUP3 AND ISZERO PUSH2 0xD73 JUMPI PUSH1 0x80 PUSH2 0xD6E DUP3 PUSH16 0x31BE135F97D08FD981231505542FCFA6 PUSH2 0x1AED JUMP JUMPDEST SWAP1 SHR SWAP1 POP JUMPDEST PUSH3 0x10000 DUP3 AND ISZERO PUSH2 0xD9F JUMPI PUSH1 0x80 PUSH2 0xD9A DUP3 PUSH16 0x9AA508B5B7A84E1C677DE54F3E99BC9 PUSH2 0x1AED JUMP JUMPDEST SWAP1 SHR SWAP1 POP JUMPDEST PUSH3 0x20000 DUP3 AND ISZERO PUSH2 0xDCA JUMPI PUSH1 0x80 PUSH2 0xDC5 DUP3 PUSH15 0x5D6AF8DEDB81196699C329225EE604 PUSH2 0x1AED JUMP JUMPDEST SWAP1 SHR SWAP1 POP JUMPDEST PUSH3 0x40000 DUP3 AND ISZERO PUSH2 0xDF4 JUMPI PUSH1 0x80 PUSH2 0xDEF DUP3 PUSH14 0x2216E584F5FA1EA926041BEDFE98 PUSH2 0x1AED JUMP JUMPDEST SWAP1 SHR SWAP1 POP JUMPDEST PUSH3 0x80000 DUP3 AND ISZERO PUSH2 0xE1C JUMPI PUSH1 0x80 PUSH2 0xE17 DUP3 PUSH12 0x48A170391F7DC42444E8FA2 PUSH2 0x1AED JUMP JUMPDEST SWAP1 SHR SWAP1 POP JUMPDEST PUSH1 0x0 DUP5 PUSH1 0x2 SIGNEXTEND SGT ISZERO PUSH2 0xE37 JUMPI PUSH2 0xE34 DUP2 PUSH1 0x0 NOT PUSH2 0x1AB7 JUMP JUMPDEST SWAP1 POP JUMPDEST PUSH2 0xE46 PUSH5 0x100000000 DUP3 PUSH2 0x1B04 JUMP JUMPDEST ISZERO PUSH2 0xE52 JUMPI PUSH1 0x1 PUSH2 0xE55 JUMP JUMPDEST PUSH1 0x0 JUMPDEST PUSH2 0xE66 SWAP1 PUSH1 0xFF AND PUSH1 0x20 DUP4 SWAP1 SHR PUSH2 0x1A7B JUMP JUMPDEST SWAP5 SWAP4 POP POP POP POP JUMP JUMPDEST PUSH1 0x0 DUP4 PUSH1 0x1 PUSH1 0x1 PUSH1 0xA0 SHL SUB AND DUP6 PUSH1 0x1 PUSH1 0x1 PUSH1 0xA0 SHL SUB AND GT ISZERO PUSH2 0xE8E JUMPI SWAP3 SWAP4 SWAP3 JUMPDEST PUSH1 0x0 DUP6 PUSH1 0x1 PUSH1 0x1 PUSH1 0xA0 SHL SUB AND GT PUSH2 0xEA4 JUMPI PUSH1 0x0 DUP1 REVERT JUMPDEST PUSH16 0xFFFFFFFFFFFFFFFFFFFFFFFFFFFFFFFF PUSH1 0x60 SHL PUSH1 0x60 DUP5 SWAP1 SHL AND PUSH1 0x0 PUSH2 0xECA DUP8 DUP8 PUSH2 0x17C8 JUMP JUMPDEST PUSH1 0x1 PUSH1 0x1 PUSH1 0xA0 SHL SUB AND SWAP1 POP DUP4 ISZERO PUSH2 0xF0E JUMPI PUSH2 0xF07 PUSH2 0xEF2 DUP4 DUP4 DUP10 PUSH1 0x1 PUSH1 0x1 PUSH1 0xA0 SHL SUB AND PUSH2 0xF43 JUMP JUMPDEST DUP9 PUSH1 0x1 PUSH1 0x1 PUSH1 0xA0 SHL SUB AND DUP1 DUP3 DIV SWAP2 MOD ISZERO ISZERO ADD SWAP1 JUMP JUMPDEST SWAP3 POP PUSH2 0xF39 JUMP JUMPDEST DUP7 PUSH1 0x1 PUSH1 0x1 PUSH1 0xA0 SHL SUB AND PUSH2 0xF2C DUP4 DUP4 DUP10 PUSH1 0x1 PUSH1 0x1 PUSH1 0xA0 SHL SUB AND PUSH2 0x129E JUMP JUMPDEST PUSH2 0xF36 SWAP2 SWAP1 PUSH2 0x1AB7 JUMP JUMPDEST SWAP3 POP JUMPDEST POP POP SWAP5 SWAP4 POP POP POP POP JUMP JUMPDEST PUSH1 0x0 PUSH2 0xF50 DUP5 DUP5 DUP5 PUSH2 0x129E JUMP JUMPDEST SWAP1 POP PUSH1 0x0 DUP3 DUP1 PUSH2 0xF62 JUMPI PUSH2 0xF62 PUSH2 0x1AA1 JUMP JUMPDEST DUP5 DUP7 MULMOD GT ISZERO PUSH2 0xF87 JUMPI PUSH1 0x0 NOT DUP2 LT PUSH2 0xF79 JUMPI PUSH1 0x0 DUP1 REVERT JUMPDEST DUP1 PUSH2 0xF83 DUP2 PUSH2 0x1764 JUMP JUMPDEST SWAP2 POP POP JUMPDEST SWAP4 SWAP3 POP POP POP JUMP JUMPDEST PUSH1 0x0 DUP4 PUSH1 0x1 PUSH1 0x1 PUSH1 0xA0 SHL SUB AND DUP6 PUSH1 0x1 PUSH1 0x1 PUSH1 0xA0 SHL SUB AND GT ISZERO PUSH2 0xFAE JUMPI SWAP3 SWAP4 SWAP3 JUMPDEST DUP2 ISZERO PUSH2 0xFE5 JUMPI PUSH2 0xFDE PUSH1 0x1 PUSH1 0x1 PUSH1 0x80 SHL SUB DUP5 AND PUSH2 0xFCB DUP8 DUP8 PUSH2 0x17C8 JUMP JUMPDEST PUSH1 0x1 PUSH1 0x1 PUSH1 0xA0 SHL SUB AND PUSH1 0x1 PUSH1 0x60 SHL PUSH2 0xF43 JUMP JUMPDEST SWAP1 POP PUSH2 0xE66 JUMP JUMPDEST PUSH2 0x100F PUSH1 0x1 PUSH1 0x1 PUSH1 0x80 SHL SUB DUP5 AND PUSH2 0xFFC DUP8 DUP8 PUSH2 0x17C8 JUMP JUMPDEST PUSH1 0x1 PUSH1 0x1 PUSH1 0xA0 SHL SUB AND PUSH1 0x1 PUSH1 0x60 SHL PUSH2 0x129E JUMP JUMPDEST SWAP6 SWAP5 POP POP POP POP POP JUMP JUMPDEST PUSH1 0x0 PUSH2 0x1025 DUP3 PUSH1 0x14 PUSH2 0x1A7B JUMP JUMPDEST DUP4 MLOAD LT ISZERO PUSH2 0x106D JUMPI PUSH1 0x40 MLOAD PUSH3 0x461BCD PUSH1 0xE5 SHL DUP2 MSTORE PUSH1 0x20 PUSH1 0x4 DUP3 ADD MSTORE PUSH1 0x15 PUSH1 0x24 DUP3 ADD MSTORE PUSH21 0x746F416464726573735F6F75744F66426F756E6473 PUSH1 0x58 SHL PUSH1 0x44 DUP3 ADD MSTORE PUSH1 0x64 ADD PUSH2 0xAAE JUMP JUMPDEST POP ADD PUSH1 0x20 ADD MLOAD PUSH1 0x1 PUSH1 0x60 SHL SWAP1 DIV SWAP1 JUMP JUMPDEST PUSH1 0x0 PUSH2 0x108A DUP3 PUSH1 0x3 PUSH2 0x1A7B JUMP JUMPDEST DUP4 MLOAD LT ISZERO PUSH2 0x10D1 JUMPI PUSH1 0x40 MLOAD PUSH3 0x461BCD PUSH1 0xE5 SHL DUP2 MSTORE PUSH1 0x20 PUSH1 0x4 DUP3 ADD MSTORE PUSH1 0x14 PUSH1 0x24 DUP3 ADD MSTORE PUSH20 0x746F55696E7432345F6F75744F66426F756E6473 PUSH1 0x60 SHL PUSH1 0x44 DUP3 ADD MSTORE PUSH1 0x64 ADD PUSH2 0xAAE JUMP JUMPDEST POP ADD PUSH1 0x3 ADD MLOAD SWAP1 JUMP JUMPDEST PUSH1 0x60 DUP2 PUSH2 0x10E8 DUP2 PUSH1 0x1F PUSH2 0x1A7B JUMP JUMPDEST LT ISZERO PUSH2 0x1127 JUMPI PUSH1 0x40 MLOAD PUSH3 0x461BCD PUSH1 0xE5 SHL DUP2 MSTORE PUSH1 0x20 PUSH1 0x4 DUP3 ADD MSTORE PUSH1 0xE PUSH1 0x24 DUP3 ADD MSTORE PUSH14 0x736C6963655F6F766572666C6F77 PUSH1 0x90 SHL PUSH1 0x44 DUP3 ADD MSTORE PUSH1 0x64 ADD PUSH2 0xAAE JUMP JUMPDEST PUSH2 0x1131 DUP3 DUP5 PUSH2 0x1A7B JUMP JUMPDEST DUP5 MLOAD LT ISZERO PUSH2 0x1175 JUMPI PUSH1 0x40 MLOAD PUSH3 0x461BCD PUSH1 0xE5 SHL DUP2 MSTORE PUSH1 0x20 PUSH1 0x4 DUP3 ADD MSTORE PUSH1 0x11 PUSH1 0x24 DUP3 ADD MSTORE PUSH17 0x736C6963655F6F75744F66426F756E6473 PUSH1 0x78 SHL PUSH1 0x44 DUP3 ADD MSTORE PUSH1 0x64 ADD PUSH2 0xAAE JUMP JUMPDEST PUSH1 0x60 DUP3 ISZERO DUP1 ISZERO PUSH2 0x1194 JUMPI PUSH1 0x40 MLOAD SWAP2 POP PUSH1 0x0 DUP3 MSTORE PUSH1 0x20 DUP3 ADD PUSH1 0x40 MSTORE PUSH2 0x11DE JUMP JUMPDEST PUSH1 0x40 MLOAD SWAP2 POP PUSH1 0x1F DUP5 AND DUP1 ISZERO PUSH1 0x20 MUL DUP2 DUP5 ADD ADD DUP6 DUP2 ADD DUP8 DUP4 ISZERO PUSH1 0x20 MUL DUP5 DUP12 ADD ADD ADD JUMPDEST DUP2 DUP4 LT ISZERO PUSH2 0x11CD JUMPI DUP1 MLOAD DUP4 MSTORE PUSH1 0x20 SWAP3 DUP4 ADD SWAP3 ADD PUSH2 0x11B5 JUMP JUMPDEST POP POP DUP6 DUP5 MSTORE PUSH1 0x1F ADD PUSH1 0x1F NOT AND PUSH1 0x40 MSTORE POP JUMPDEST POP SWAP5 SWAP4 POP POP POP POP JUMP JUMPDEST PUSH1 0x0 DUP4 PUSH1 0x1 PUSH1 0x1 PUSH1 0xA0 SHL SUB AND DUP6 PUSH1 0x1 PUSH1 0x1 PUSH1 0xA0 SHL SUB AND GT ISZERO PUSH2 0x1207 JUMPI SWAP3 SWAP4 SWAP3 JUMPDEST DUP5 PUSH1 0x1 PUSH1 0x1 PUSH1 0xA0 SHL SUB AND DUP7 PUSH1 0x1 PUSH1 0x1 PUSH1 0xA0 SHL SUB AND GT PUSH2 0x1232 JUMPI PUSH2 0x122B DUP6 DUP6 DUP6 PUSH2 0x136B JUMP JUMPDEST SWAP1 POP PUSH2 0x100F JUMP JUMPDEST DUP4 PUSH1 0x1 PUSH1 0x1 PUSH1 0xA0 SHL SUB AND DUP7 PUSH1 0x1 PUSH1 0x1 PUSH1 0xA0 SHL SUB AND GT PUSH2 0x1293 JUMPI PUSH1 0x0 PUSH2 0x1258 DUP8 DUP7 DUP7 PUSH2 0x136B JUMP JUMPDEST SWAP1 POP PUSH1 0x0 PUSH2 0x1267 DUP8 DUP10 DUP7 PUSH2 0x13CD JUMP JUMPDEST SWAP1 POP DUP1 PUSH1 0x1 PUSH1 0x1 PUSH1 0x80 SHL SUB AND DUP3 PUSH1 0x1 PUSH1 0x1 PUSH1 0x80 SHL SUB AND LT PUSH2 0x1288 JUMPI DUP1 PUSH2 0x128A JUMP JUMPDEST DUP2 JUMPDEST SWAP3 POP POP POP PUSH2 0x100F JUMP JUMPDEST PUSH2 0xA3D DUP6 DUP6 DUP5 PUSH2 0x13CD JUMP JUMPDEST PUSH1 0x0 DUP1 DUP1 PUSH1 0x0 NOT DUP6 DUP8 MULMOD DUP6 DUP8 MUL SWAP3 POP DUP3 DUP2 LT DUP4 DUP3 SUB SUB SWAP2 POP POP DUP1 PUSH1 0x0 SUB PUSH2 0x12D8 JUMPI DUP4 DUP3 DUP2 PUSH2 0x12CE JUMPI PUSH2 0x12CE PUSH2 0x1AA1 JUMP JUMPDEST DIV SWAP3 POP POP POP PUSH2 0xF87 JUMP JUMPDEST DUP4 DUP2 LT PUSH2 0x1302 JUMPI PUSH1 0x40 MLOAD PUSH4 0x1DCF3063 PUSH1 0xE2 SHL DUP2 MSTORE PUSH1 0x4 DUP2 ADD DUP3 SWAP1 MSTORE PUSH1 0x24 DUP2 ADD DUP6 SWAP1 MSTORE PUSH1 0x44 ADD PUSH2 0xAAE JUMP JUMPDEST PUSH1 0x0 DUP5 DUP7 DUP9 MULMOD PUSH1 0x2 PUSH1 0x1 DUP8 NOT DUP2 ADD DUP9 AND SWAP8 DUP9 SWAP1 DIV PUSH1 0x3 DUP2 MUL DUP4 XOR DUP1 DUP3 MUL DUP5 SUB MUL DUP1 DUP3 MUL DUP5 SUB MUL DUP1 DUP3 MUL DUP5 SUB MUL DUP1 DUP3 MUL DUP5 SUB MUL DUP1 DUP3 MUL DUP5 SUB MUL SWAP1 DUP2 MUL SWAP1 SWAP3 SUB SWAP1 SWAP2 MUL PUSH1 0x0 DUP9 SWAP1 SUB DUP9 SWAP1 DIV SWAP1 SWAP2 ADD DUP6 DUP4 GT SWAP1 SWAP5 SUB SWAP4 SWAP1 SWAP4 MUL SWAP4 SUB SWAP5 SWAP1 SWAP5 DIV SWAP2 SWAP1 SWAP2 OR MUL SWAP5 SWAP4 POP POP POP POP JUMP JUMPDEST PUSH1 0x0 DUP3 PUSH1 0x1 PUSH1 0x1 PUSH1 0xA0 SHL SUB AND DUP5 PUSH1 0x1 PUSH1 0x1 PUSH1 0xA0 SHL SUB AND GT ISZERO PUSH2 0x138B JUMPI SWAP2 SWAP3 SWAP2 JUMPDEST PUSH1 0x0 PUSH2 0x13AE DUP6 PUSH1 0x1 PUSH1 0x1 PUSH1 0xA0 SHL SUB AND DUP6 PUSH1 0x1 PUSH1 0x1 PUSH1 0xA0 SHL SUB AND PUSH1 0x1 PUSH1 0x60 SHL PUSH2 0x129E JUMP JUMPDEST SWAP1 POP PUSH2 0xF83 DUP4 DUP3 PUSH2 0x13BF DUP9 DUP9 PUSH2 0x17C8 JUMP JUMPDEST PUSH1 0x1 PUSH1 0x1 PUSH1 0xA0 SHL SUB AND PUSH2 0x129E JUMP JUMPDEST PUSH1 0x0 DUP3 PUSH1 0x1 PUSH1 0x1 PUSH1 0xA0 SHL SUB AND DUP5 PUSH1 0x1 PUSH1 0x1 PUSH1 0xA0 SHL SUB AND GT ISZERO PUSH2 0x13ED JUMPI SWAP2 SWAP3 SWAP2 JUMPDEST PUSH2 0xE66 DUP3 PUSH1 0x1 PUSH1 0x60 SHL PUSH2 0x13BF DUP8 DUP8 PUSH2 0x17C8 JUMP JUMPDEST PUSH4 0x4E487B71 PUSH1 0xE0 SHL PUSH1 0x0 MSTORE PUSH1 0x41 PUSH1 0x4 MSTORE PUSH1 0x24 PUSH1 0x0 REVERT JUMPDEST PUSH1 0x0 DUP3 PUSH1 0x1F DUP4 ADD SLT PUSH2 0x1427 JUMPI PUSH1 0x0 DUP1 REVERT JUMPDEST DUP2 CALLDATALOAD PUSH8 0xFFFFFFFFFFFFFFFF DUP1 DUP3 GT ISZERO PUSH2 0x1442 JUMPI PUSH2 0x1442 PUSH2 0x1400 JUMP JUMPDEST PUSH1 0x40 MLOAD PUSH1 0x1F DUP4 ADD PUSH1 0x1F NOT SWAP1 DUP2 AND PUSH1 0x3F ADD AND DUP2 ADD SWAP1 DUP3 DUP3 GT DUP2 DUP4 LT OR ISZERO PUSH2 0x146A JUMPI PUSH2 0x146A PUSH2 0x1400 JUMP JUMPDEST DUP2 PUSH1 0x40 MSTORE DUP4 DUP2 MSTORE DUP7 PUSH1 0x20 DUP6 DUP9 ADD ADD GT ISZERO PUSH2 0x1483 JUMPI PUSH1 0x0 DUP1 REVERT JUMPDEST DUP4 PUSH1 0x20 DUP8 ADD PUSH1 0x20 DUP4 ADD CALLDATACOPY PUSH1 0x0 PUSH1 0x20 DUP6 DUP4 ADD ADD MSTORE DUP1 SWAP5 POP POP POP POP POP SWAP3 SWAP2 POP POP JUMP JUMPDEST PUSH1 0x0 DUP1 PUSH1 0x40 DUP4 DUP6 SUB SLT ISZERO PUSH2 0x14B6 JUMPI PUSH1 0x0 DUP1 REVERT JUMPDEST DUP3 CALLDATALOAD PUSH8 0xFFFFFFFFFFFFFFFF DUP2 GT ISZERO PUSH2 0x14CD JUMPI PUSH1 0x0 DUP1 REVERT JUMPDEST PUSH2 0x14D9 DUP6 DUP3 DUP7 ADD PUSH2 0x1416 JUMP JUMPDEST SWAP6 PUSH1 0x20 SWAP5 SWAP1 SWAP5 ADD CALLDATALOAD SWAP5 POP POP POP POP JUMP JUMPDEST PUSH1 0x0 PUSH1 0x60 DUP3 ADD DUP6 DUP4 MSTORE PUSH1 0x20 PUSH1 0x60 DUP2 DUP6 ADD MSTORE DUP2 DUP7 MLOAD DUP1 DUP5 MSTORE PUSH1 0x80 DUP7 ADD SWAP2 POP DUP3 DUP9 ADD SWAP4 POP PUSH1 0x0 JUMPDEST DUP2 DUP2 LT ISZERO PUSH2 0x1532 JUMPI DUP5 MLOAD PUSH1 0x1 PUSH1 0x1 PUSH1 0xA0 SHL SUB AND DUP4 MSTORE SWAP4 DUP4 ADD SWAP4 SWAP2 DUP4 ADD SWAP2 PUSH1 0x1 ADD PUSH2 0x150D JUMP JUMPDEST POP POP DUP5 DUP2 SUB PUSH1 0x40 DUP7 ADD MSTORE DUP6 MLOAD DUP1 DUP3 MSTORE SWAP1 DUP3 ADD SWAP3 POP DUP2 DUP7 ADD SWAP1 PUSH1 0x0 JUMPDEST DUP2 DUP2 LT ISZERO PUSH2 0x156C JUMPI DUP3 MLOAD PUSH1 0x2 SIGNEXTEND DUP6 MSTORE SWAP4 DUP4 ADD SWAP4 SWAP2 DUP4 ADD SWAP2 PUSH1 0x1 ADD PUSH2 0x154D JUMP JUMPDEST POP SWAP3 SWAP9 SWAP8 POP POP POP POP POP POP POP POP JUMP JUMPDEST PUSH1 0x1 PUSH1 0x1 PUSH1 0xA0 SHL SUB DUP2 AND DUP2 EQ PUSH2 0x158F JUMPI PUSH1 0x0 DUP1 REVERT JUMPDEST POP JUMP JUMPDEST DUP1 CALLDATALOAD PUSH3 0xFFFFFF DUP2 AND DUP2 EQ PUSH2 0x15A5 JUMPI PUSH1 0x0 DUP1 REVERT JUMPDEST SWAP2 SWAP1 POP JUMP JUMPDEST PUSH1 0x0 PUSH1 0xA0 DUP3 DUP5 SUB SLT ISZERO PUSH2 0x15BC JUMPI PUSH1 0x0 DUP1 REVERT JUMPDEST PUSH1 0x40 MLOAD PUSH1 0xA0 DUP2 ADD DUP2 DUP2 LT PUSH8 0xFFFFFFFFFFFFFFFF DUP3 GT OR ISZERO PUSH2 0x15DF JUMPI PUSH2 0x15DF PUSH2 0x1400 JUMP JUMPDEST PUSH1 0x40 MSTORE DUP3 CALLDATALOAD PUSH2 0x15ED DUP2 PUSH2 0x157A JUMP JUMPDEST DUP2 MSTORE PUSH1 0x20 DUP4 ADD CALLDATALOAD PUSH2 0x15FD DUP2 PUSH2 0x157A JUMP JUMPDEST PUSH1 0x20 DUP3 ADD MSTORE PUSH2 0x160E PUSH1 0x40 DUP5 ADD PUSH2 0x1592 JUMP JUMPDEST PUSH1 0x40 DUP3 ADD MSTORE PUSH1 0x60 DUP4 ADD CALLDATALOAD PUSH1 0x60 DUP3 ADD MSTORE PUSH1 0x80 DUP4 ADD CALLDATALOAD PUSH2 0x162B DUP2 PUSH2 0x157A JUMP JUMPDEST PUSH1 0x80 DUP3 ADD MSTORE SWAP4 SWAP3 POP POP POP JUMP JUMPDEST DUP1 PUSH1 0x2 SIGNEXTEND DUP2 EQ PUSH2 0x158F JUMPI PUSH1 0x0 DUP1 REVERT JUMPDEST PUSH1 0x0 PUSH1 0xC0 DUP3 DUP5 SUB SLT ISZERO PUSH2 0x1658 JUMPI PUSH1 0x0 DUP1 REVERT JUMPDEST PUSH1 0x40 MLOAD PUSH1 0xC0 DUP2 ADD DUP2 DUP2 LT PUSH8 0xFFFFFFFFFFFFFFFF DUP3 GT OR ISZERO PUSH2 0x167B JUMPI PUSH2 0x167B PUSH2 0x1400 JUMP JUMPDEST PUSH1 0x40 MSTORE DUP3 CALLDATALOAD PUSH2 0x1689 DUP2 PUSH2 0x157A JUMP JUMPDEST DUP2 MSTORE PUSH1 0x20 DUP4 ADD CALLDATALOAD PUSH2 0x1699 DUP2 PUSH2 0x157A JUMP JUMPDEST PUSH1 0x20 DUP3 ADD MSTORE PUSH2 0x16AA PUSH1 0x40 DUP5 ADD PUSH2 0x1592 JUMP JUMPDEST PUSH1 0x40 DUP3 ADD MSTORE PUSH1 0x60 DUP4 ADD CALLDATALOAD PUSH2 0x16BD DUP2 PUSH2 0x1637 JUMP JUMPDEST PUSH1 0x60 DUP3 ADD MSTORE PUSH1 0x80 DUP4 ADD CALLDATALOAD PUSH2 0x16D0 DUP2 PUSH2 0x1637 JUMP JUMPDEST PUSH1 0x80 DUP3 ADD MSTORE PUSH1 0xA0 SWAP3 DUP4 ADD CALLDATALOAD SWAP3 DUP2 ADD SWAP3 SWAP1 SWAP3 MSTORE POP SWAP2 SWAP1 POP JUMP JUMPDEST PUSH1 0x0 DUP1 PUSH1 0x0 PUSH1 0x60 DUP5 DUP7 SUB SLT ISZERO PUSH2 0x16FD JUMPI PUSH1 0x0 DUP1 REVERT JUMPDEST DUP4 CALLDATALOAD SWAP3 POP PUSH1 0x20 DUP5 ADD CALLDATALOAD SWAP2 POP PUSH1 0x40 DUP5 ADD CALLDATALOAD PUSH8 0xFFFFFFFFFFFFFFFF DUP2 GT ISZERO PUSH2 0x1722 JUMPI PUSH1 0x0 DUP1 REVERT JUMPDEST PUSH2 0x172E DUP7 DUP3 DUP8 ADD PUSH2 0x1416 JUMP JUMPDEST SWAP2 POP POP SWAP3 POP SWAP3 POP SWAP3 JUMP JUMPDEST PUSH4 0x4E487B71 PUSH1 0xE0 SHL PUSH1 0x0 MSTORE PUSH1 0x32 PUSH1 0x4 MSTORE PUSH1 0x24 PUSH1 0x0 REVERT JUMPDEST PUSH4 0x4E487B71 PUSH1 0xE0 SHL PUSH1 0x0 MSTORE PUSH1 0x11 PUSH1 0x4 MSTORE PUSH1 0x24 PUSH1 0x0 REVERT JUMPDEST PUSH1 0x0 PUSH1 0x1 DUP3 ADD PUSH2 0x1776 JUMPI PUSH2 0x1776 PUSH2 0x174E JUMP JUMPDEST POP PUSH1 0x1 ADD SWAP1 JUMP JUMPDEST PUSH1 0x1 PUSH1 0x1 PUSH1 0xA0 SHL SUB SWAP5 DUP6 AND DUP2 MSTORE SWAP3 DUP5 AND PUSH1 0x20 DUP5 ADD MSTORE SWAP3 AND PUSH1 0x40 DUP3 ADD MSTORE PUSH3 0xFFFFFF SWAP1 SWAP2 AND PUSH1 0x60 DUP3 ADD MSTORE PUSH1 0x80 ADD SWAP1 JUMP JUMPDEST PUSH1 0x0 PUSH1 0x20 DUP3 DUP5 SUB SLT ISZERO PUSH2 0x17BD JUMPI PUSH1 0x0 DUP1 REVERT JUMPDEST DUP2 MLOAD PUSH2 0xF87 DUP2 PUSH2 0x157A JUMP JUMPDEST PUSH1 0x1 PUSH1 0x1 PUSH1 0xA0 SHL SUB DUP3 DUP2 AND DUP3 DUP3 AND SUB SWAP1 DUP1 DUP3 GT ISZERO PUSH2 0x17E8 JUMPI PUSH2 0x17E8 PUSH2 0x174E JUMP JUMPDEST POP SWAP3 SWAP2 POP POP JUMP JUMPDEST PUSH1 0x1 PUSH1 0x1 PUSH1 0xA0 SHL SUB DUP2 DUP2 AND DUP4 DUP3 AND ADD SWAP1 DUP1 DUP3 GT ISZERO PUSH2 0x17E8 JUMPI PUSH2 0x17E8 PUSH2 0x174E JUMP JUMPDEST PUSH1 0x0 PUSH1 0x1 DUP1 PUSH1 0xA0 SHL SUB DUP1 DUP9 AND DUP4 MSTORE PUSH1 0x20 DUP8 ISZERO ISZERO DUP2 DUP6 ADD MSTORE DUP7 PUSH1 0x40 DUP6 ADD MSTORE DUP2 DUP7 AND PUSH1 0x60 DUP6 ADD MSTORE PUSH1 0xA0 PUSH1 0x80 DUP6 ADD MSTORE DUP5 MLOAD SWAP2 POP DUP2 PUSH1 0xA0 DUP6 ADD MSTORE PUSH1 0x0 JUMPDEST DUP3 DUP2 LT ISZERO PUSH2 0x1864 JUMPI DUP6 DUP2 ADD DUP3 ADD MLOAD DUP6 DUP3 ADD PUSH1 0xC0 ADD MSTORE DUP2 ADD PUSH2 0x1848 JUMP JUMPDEST POP POP PUSH1 0x0 PUSH1 0xC0 DUP3 DUP6 ADD ADD MSTORE PUSH1 0xC0 PUSH1 0x1F NOT PUSH1 0x1F DUP4 ADD AND DUP5 ADD ADD SWAP2 POP POP SWAP7 SWAP6 POP POP POP POP POP POP JUMP JUMPDEST PUSH1 0x0 DUP1 PUSH1 0x40 DUP4 DUP6 SUB SLT ISZERO PUSH2 0x189C JUMPI PUSH1 0x0 DUP1 REVERT JUMPDEST POP POP DUP1 MLOAD PUSH1 0x20 SWAP1 SWAP2 ADD MLOAD SWAP1 SWAP3 SWAP1 SWAP2 POP JUMP JUMPDEST PUSH1 0x0 DUP1 PUSH1 0x0 PUSH1 0x60 DUP5 DUP7 SUB SLT ISZERO PUSH2 0x18C2 JUMPI PUSH1 0x0 DUP1 REVERT JUMPDEST DUP4 MLOAD SWAP3 POP PUSH1 0x20 DUP5 ADD MLOAD PUSH2 0x18D4 DUP2 PUSH2 0x157A JUMP JUMPDEST PUSH1 0x40 DUP6 ADD MLOAD SWAP1 SWAP3 POP PUSH2 0x18E5 DUP2 PUSH2 0x1637 JUMP JUMPDEST DUP1 SWAP2 POP POP SWAP3 POP SWAP3 POP SWAP3 JUMP JUMPDEST DUP1 MLOAD PUSH2 0xFFFF DUP2 AND DUP2 EQ PUSH2 0x15A5 JUMPI PUSH1 0x0 DUP1 REVERT JUMPDEST PUSH1 0x0 DUP1 PUSH1 0x0 DUP1 PUSH1 0x0 PUSH1 0xA0 DUP7 DUP9 SUB SLT ISZERO PUSH2 0x191A JUMPI PUSH1 0x0 DUP1 REVERT JUMPDEST DUP6 MLOAD PUSH2 0x1925 DUP2 PUSH2 0x157A JUMP JUMPDEST PUSH1 0x20 DUP8 ADD MLOAD SWAP1 SWAP6 POP PUSH2 0x1936 DUP2 PUSH2 0x1637 JUMP JUMPDEST SWAP4 POP PUSH2 0x1944 PUSH1 0x40 DUP8 ADD PUSH2 0x18F0 JUMP JUMPDEST SWAP3 POP PUSH2 0x1952 PUSH1 0x60 DUP8 ADD PUSH2 0x18F0 JUMP JUMPDEST SWAP2 POP PUSH2 0x1960 PUSH1 0x80 DUP8 ADD PUSH2 0x18F0 JUMP JUMPDEST SWAP1 POP SWAP3 SWAP6 POP SWAP3 SWAP6 SWAP1 SWAP4 POP JUMP JUMPDEST PUSH1 0x1 DUP2 DUP2 JUMPDEST DUP1 DUP6 GT ISZERO PUSH2 0x19A7 JUMPI DUP2 PUSH1 0x0 NOT DIV DUP3 GT ISZERO PUSH2 0x198D JUMPI PUSH2 0x198D PUSH2 0x174E JUMP JUMPDEST DUP1 DUP6 AND ISZERO PUSH2 0x199A JUMPI SWAP2 DUP2 MUL SWAP2 JUMPDEST SWAP4 DUP5 SHR SWAP4 SWAP1 DUP1 MUL SWAP1 PUSH2 0x1971 JUMP JUMPDEST POP SWAP3 POP SWAP3 SWAP1 POP JUMP JUMPDEST PUSH1 0x0 DUP3 PUSH2 0x19BE JUMPI POP PUSH1 0x1 PUSH2 0x971 JUMP JUMPDEST DUP2 PUSH2 0x19CB JUMPI POP PUSH1 0x0 PUSH2 0x971 JUMP JUMPDEST DUP2 PUSH1 0x1 DUP2 EQ PUSH2 0x19E1 JUMPI PUSH1 0x2 DUP2 EQ PUSH2 0x19EB JUMPI PUSH2 0x1A07 JUMP JUMPDEST PUSH1 0x1 SWAP2 POP POP PUSH2 0x971 JUMP JUMPDEST PUSH1 0xFF DUP5 GT ISZERO PUSH2 0x19FC JUMPI PUSH2 0x19FC PUSH2 0x174E JUMP JUMPDEST POP POP PUSH1 0x1 DUP3 SHL PUSH2 0x971 JUMP JUMPDEST POP PUSH1 0x20 DUP4 LT PUSH2 0x133 DUP4 LT AND PUSH1 0x4E DUP5 LT PUSH1 0xB DUP5 LT AND OR ISZERO PUSH2 0x1A2A JUMPI POP DUP2 DUP2 EXP PUSH2 0x971 JUMP JUMPDEST PUSH2 0x1A34 DUP4 DUP4 PUSH2 0x196C JUMP JUMPDEST DUP1 PUSH1 0x0 NOT DIV DUP3 GT ISZERO PUSH2 0x1A48 JUMPI PUSH2 0x1A48 PUSH2 0x174E JUMP JUMPDEST MUL SWAP4 SWAP3 POP POP POP JUMP JUMPDEST PUSH1 0x0 PUSH2 0xF87 PUSH1 0xFF DUP5 AND DUP4 PUSH2 0x19AF JUMP JUMPDEST PUSH1 0x0 PUSH1 0x1 PUSH1 0xFF SHL DUP3 ADD PUSH2 0x1A74 JUMPI PUSH2 0x1A74 PUSH2 0x174E JUMP JUMPDEST POP PUSH1 0x0 SUB SWAP1 JUMP JUMPDEST DUP1 DUP3 ADD DUP1 DUP3 GT ISZERO PUSH2 0x971 JUMPI PUSH2 0x971 PUSH2 0x174E JUMP JUMPDEST DUP2 DUP2 SUB DUP2 DUP2 GT ISZERO PUSH2 0x971 JUMPI PUSH2 0x971 PUSH2 0x174E JUMP JUMPDEST PUSH4 0x4E487B71 PUSH1 0xE0 SHL PUSH1 0x0 MSTORE PUSH1 0x12 PUSH1 0x4 MSTORE PUSH1 0x24 PUSH1 0x0 REVERT JUMPDEST PUSH1 0x0 DUP3 PUSH2 0x1AC6 JUMPI PUSH2 0x1AC6 PUSH2 0x1AA1 JUMP JUMPDEST POP DIV SWAP1 JUMP JUMPDEST PUSH1 0x0 DUP2 PUSH1 0x2 SIGNEXTEND PUSH3 0x7FFFFF NOT DUP2 SUB PUSH2 0x1AE4 JUMPI PUSH2 0x1AE4 PUSH2 0x174E JUMP JUMPDEST PUSH1 0x0 SUB SWAP3 SWAP2 POP POP JUMP JUMPDEST DUP1 DUP3 MUL DUP2 ISZERO DUP3 DUP3 DIV DUP5 EQ OR PUSH2 0x971 JUMPI PUSH2 0x971 PUSH2 0x174E JUMP JUMPDEST PUSH1 0x0 DUP3 PUSH2 0x1B13 JUMPI PUSH2 0x1B13 PUSH2 0x1AA1 JUMP JUMPDEST POP MOD SWAP1 JUMP INVALID LOG2 PUSH5 0x6970667358 0x22 SLT KECCAK256 RETURNDATACOPY SWAP9 BLOCKHASH CALLCODE 0xC3 MSTORE 0xD5 0xC3 EXTCODECOPY SELFBALANCE 0xDB CALLCODE 0xB6 XOR 0xE8 PUSH26 0xC368C053B3011FCA682D60582A7B4F6864736F6C634300081400 CALLER ",
    "sha1": "acc04d3b3b213844bc08b47f0e97a5c15cca0a37",
    "source": "// SPDX-License-Identifier: BUSL-1.1\npragma solidity ^0.8.14;\n\nimport \"./HelpFunctions.sol\";\n\nimport \"../interface_contracts/IUniswapV3Pool.sol\";\n\nimport \"./lib/Math.sol\";\nimport \"./lib/Path.sol\";\nimport \"./lib/PoolAddress.sol\";\nimport \"./lib/TickMath.sol\";\nimport \"./lib/LiquidityMath.sol\";\n\ncontract Quoter {\n    using Path for bytes;\n\n    struct QuoteSingleParams {\n        address tokenIn;\n        address tokenOut;\n        uint24 fee;\n        uint256 amountIn;\n        uint160 sqrtPriceLimitX96;\n    }\n\n    struct LiqInputTokenParams {\n        address tokenIn;\n        address tokenOut;\n        uint24 fee;\n        int24 lowerTick;\n        int24 upperTick;\n        uint256 amountInDesired;\n    }\n\n    address public immutable factory;\n\n    constructor(address factory_) {\n        factory = factory_;\n    }\n\n    /*\n    External\n     */\n    function uniswapV3SwapCallback(\n        int256 amount0Delta,\n        int256 amount1Delta,\n        bytes memory data\n    ) external view {\n        address pool = abi.decode(data, (address));\n        uint256 amountOut = amount0Delta > 0\n            ? uint256(-amount1Delta)\n            : uint256(-amount0Delta);\n        (uint160 sqrtPriceX96After, int24 tickAfter, , , ) = IUniswapV3Pool(\n            pool\n        ).slot0();\n        assembly {\n            let ptr := mload(0x40)\n            mstore(ptr, amountOut)\n            mstore(add(ptr, 0x20), sqrtPriceX96After)\n            mstore(add(ptr, 0x40), tickAfter)\n            revert(ptr, 96)\n        }\n    }\n\n    /*\n    Public\n     */\n    function quoteMulti(\n        bytes memory path,\n        uint256 amountIn\n    )\n        public\n        returns (\n            uint256 amountOut,\n            uint160[] memory sqrtPriceX96AfterList,\n            int24[] memory tickAfterList\n        )\n    {\n        sqrtPriceX96AfterList = new uint160[](path.numPools());\n        tickAfterList = new int24[](path.numPools());\n\n        uint256 i = 0;\n        while (true) {\n            (address tokenIn, address tokenOut, uint24 fee) = path\n                .decodeFirstPool();\n\n            (\n                uint256 amountOut_,\n                uint160 sqrtPriceX96After,\n                int24 tickAfter\n            ) = quoteSingle(\n                    QuoteSingleParams({\n                        tokenIn: tokenIn,\n                        tokenOut: tokenOut,\n                        fee: fee,\n                        amountIn: amountIn,\n                        sqrtPriceLimitX96: 0\n                    })\n                );\n\n            sqrtPriceX96AfterList[i] = sqrtPriceX96After;\n            tickAfterList[i] = tickAfter;\n            amountIn = amountOut_;\n            i++;\n\n            if (path.hasMultiplePools()) {\n                path = path.skipToken();\n            } else {\n                amountOut = amountIn;\n                break;\n            }\n        }\n    }\n\n    function quoteSingle(\n        QuoteSingleParams memory params\n    )\n        public\n        returns (uint256 amountOut, uint160 sqrtPriceX96After, int24 tickAfter)\n    {\n        IUniswapV3Pool pool = HelpFunctions._getPool(\n            factory,\n            params.tokenIn,\n            params.tokenOut,\n            params.fee\n        );\n\n        bool zeroForOne = params.tokenIn < params.tokenOut;\n\n        try\n            pool.swap(\n                address(this),\n                zeroForOne,\n                params.amountIn,\n                params.sqrtPriceLimitX96 == 0\n                    ? (\n                        zeroForOne\n                            ? TickMath.MIN_SQRT_RATIO + 1\n                            : TickMath.MAX_SQRT_RATIO - 1\n                    )\n                    : params.sqrtPriceLimitX96,\n                abi.encode(address(pool))\n            )\n        {} catch (bytes memory reason) {\n            return abi.decode(reason, (uint256, uint160, int24));\n        }\n    }\n\n    /*\n    Public - View\n     */\n    function quoteLiqInputToken0(\n        LiqInputTokenParams memory params\n    ) public view returns (uint256 amount1) {\n        IUniswapV3Pool pool = HelpFunctions._getPool(\n            factory,\n            params.tokenIn,\n            params.tokenOut,\n            params.fee\n        );\n\n        (uint160 sqrtPriceX96, int24 tick, , , ) = pool.slot0();\n\n        if (tick < params.upperTick && tick > params.lowerTick) {\n            amount1 = Math.mulDivRoundingUp(\n                uint256(sqrtPriceX96),\n                uint256(params.amountInDesired),\n                uint256(2 ** 96)\n            );\n\n            uint128 liquidity = _getLiquidity(\n                params.lowerTick,\n                params.upperTick,\n                sqrtPriceX96,\n                params.amountInDesired,\n                amount1 ** 2\n            );\n\n            amount1 = Math.calcAmount1Delta(\n                TickMath.getSqrtRatioAtTick(params.lowerTick),\n                sqrtPriceX96,\n                liquidity,\n                false\n            );\n        }\n    }\n\n    function quoteLiqInputToken1(\n        LiqInputTokenParams memory params\n    ) public view returns (uint256 amount0) {\n        IUniswapV3Pool pool = HelpFunctions._getPool(\n            factory,\n            params.tokenIn,\n            params.tokenOut,\n            params.fee\n        );\n\n        (uint160 sqrtPriceX96, int24 tick, , , ) = pool.slot0();\n\n        if (tick < params.upperTick && tick > params.lowerTick) {\n            amount0 = Math.divRoundingUp(\n                params.amountInDesired,\n                Math.divRoundingUp(uint256(sqrtPriceX96), uint256(2 ** 96))\n            );\n\n            uint128 liquidity = _getLiquidity(\n                params.lowerTick,\n                params.upperTick,\n                sqrtPriceX96,\n                amount0 ** 2,\n                params.amountInDesired\n            );\n\n            amount0 = Math.calcAmount0Delta(\n                sqrtPriceX96,\n                TickMath.getSqrtRatioAtTick(params.upperTick),\n                liquidity,\n                false\n            );\n        }\n    }\n\n    /*\n    Internal - Pure\n     */\n    function _getLiquidity(\n        int24 lowerTick,\n        int24 upperTick,\n        uint160 sqrtPriceX96,\n        uint256 amountInDesired,\n        uint256 amountOutDesired\n    ) internal pure returns (uint128 liquidity) {\n        liquidity = LiquidityMath.getLiquidityForAmounts(\n            sqrtPriceX96,\n            TickMath.getSqrtRatioAtTick(lowerTick),\n            TickMath.getSqrtRatioAtTick(upperTick),\n            amountInDesired,\n            amountOutDesired\n        );\n    }\n}\n",
    "sourcePath": "contracts/Quoter.sol",
    "type": "contract"
}