{
    "abi": [
        {
            "inputs": [
                {
                    "internalType": "address",
                    "name": "factory_",
                    "type": "address"
                }
            ],
            "stateMutability": "nonpayable",
            "type": "constructor"
        },
        {
            "inputs": [
                {
                    "internalType": "uint256",
                    "name": "prod1",
                    "type": "uint256"
                },
                {
                    "internalType": "uint256",
                    "name": "denominator",
                    "type": "uint256"
                }
            ],
            "name": "PRBMath__MulDivOverflow",
            "type": "error"
        },
        {
            "inputs": [],
            "name": "factory",
            "outputs": [
                {
                    "internalType": "address",
                    "name": "",
                    "type": "address"
                }
            ],
            "stateMutability": "view",
            "type": "function"
        },
        {
            "inputs": [
                {
                    "internalType": "address",
                    "name": "tokenIn",
                    "type": "address"
                },
                {
                    "internalType": "address",
                    "name": "tokenOut",
                    "type": "address"
                },
                {
                    "internalType": "uint24",
                    "name": "fee",
                    "type": "uint24"
                },
                {
                    "internalType": "int24",
                    "name": "lowerTick",
                    "type": "int24"
                },
                {
                    "internalType": "int24",
                    "name": "upperTick",
                    "type": "int24"
                },
                {
                    "internalType": "uint256",
                    "name": "amountInDesired",
                    "type": "uint256"
                }
            ],
            "name": "quoteLiqInputToken0",
            "outputs": [
                {
                    "internalType": "uint256",
                    "name": "amount1",
                    "type": "uint256"
                }
            ],
            "stateMutability": "view",
            "type": "function"
        },
        {
            "inputs": [
                {
                    "internalType": "address",
                    "name": "tokenIn",
                    "type": "address"
                },
                {
                    "internalType": "address",
                    "name": "tokenOut",
                    "type": "address"
                },
                {
                    "internalType": "uint24",
                    "name": "fee",
                    "type": "uint24"
                },
                {
                    "internalType": "int24",
                    "name": "lowerTick",
                    "type": "int24"
                },
                {
                    "internalType": "int24",
                    "name": "upperTick",
                    "type": "int24"
                },
                {
                    "internalType": "uint256",
                    "name": "amountInDesired",
                    "type": "uint256"
                }
            ],
            "name": "quoteLiqInputToken1",
            "outputs": [
                {
                    "internalType": "uint256",
                    "name": "amount0",
                    "type": "uint256"
                }
            ],
            "stateMutability": "view",
            "type": "function"
        },
        {
            "inputs": [
                {
                    "internalType": "bytes",
                    "name": "path",
                    "type": "bytes"
                },
                {
                    "internalType": "uint256",
                    "name": "amountIn",
                    "type": "uint256"
                }
            ],
            "name": "quoteMulti",
            "outputs": [
                {
                    "internalType": "uint256",
                    "name": "amountOut",
                    "type": "uint256"
                },
                {
                    "internalType": "uint160[]",
                    "name": "sqrtPriceX96AfterList",
                    "type": "uint160[]"
                },
                {
                    "internalType": "int24[]",
                    "name": "tickAfterList",
                    "type": "int24[]"
                }
            ],
            "stateMutability": "nonpayable",
            "type": "function"
        },
        {
            "inputs": [
                {
                    "internalType": "address",
                    "name": "tokenIn",
                    "type": "address"
                },
                {
                    "internalType": "address",
                    "name": "tokenOut",
                    "type": "address"
                },
                {
                    "internalType": "uint24",
                    "name": "fee",
                    "type": "uint24"
                },
                {
                    "internalType": "uint256",
                    "name": "amountIn",
                    "type": "uint256"
                },
                {
                    "internalType": "uint160",
                    "name": "sqrtPriceLimitX96",
                    "type": "uint160"
                }
            ],
            "name": "quoteSingle",
            "outputs": [
                {
                    "internalType": "uint256",
                    "name": "amountOut",
                    "type": "uint256"
                },
                {
                    "internalType": "uint160",
                    "name": "sqrtPriceX96After",
                    "type": "uint160"
                },
                {
                    "internalType": "int24",
                    "name": "tickAfter",
                    "type": "int24"
                }
            ],
            "stateMutability": "nonpayable",
            "type": "function"
        },
        {
            "inputs": [
                {
                    "internalType": "int256",
                    "name": "amount0Delta",
                    "type": "int256"
                },
                {
                    "internalType": "int256",
                    "name": "amount1Delta",
                    "type": "int256"
                },
                {
                    "internalType": "bytes",
                    "name": "data",
                    "type": "bytes"
                }
            ],
            "name": "uniswapV3SwapCallback",
            "outputs": [],
            "stateMutability": "view",
            "type": "function"
        }
    ],
    "bytecode": "60a060405234801561001057600080fd5b50604051611b58380380611b5883398101604081905261002f91610055565b6001600160a01b03166080819052600080546001600160a01b0319169091179055610085565b60006020828403121561006757600080fd5b81516001600160a01b038116811461007e57600080fd5b9392505050565b608051611ab961009f600039600060970152611ab96000f3fe608060405234801561001057600080fd5b50600436106100625760003560e01c8063260a5b0314610067578063c45a015514610092578063cbe76c3c146100d1578063e95dbb69146100f2578063f898a0681461012b578063fa461e331461013e575b600080fd5b61007a610075366004611466565b610153565b604051610089939291906114ab565b60405180910390f35b6100b97f000000000000000000000000000000000000000000000000000000000000000081565b6040516001600160a01b039091168152602001610089565b6100e46100df36600461157c565b6102cc565b604051908152602001610089565b6101056101003660046115f3565b61042a565b604080519384526001600160a01b03909216602084015260020b90820152606001610089565b6100e461013936600461157c565b6106f6565b61015161014c366004611659565b610856565b005b600060608061016185610913565b67ffffffffffffffff811115610179576101796113c3565b6040519080825280602002602001820160405280156101a2578160200160208202803683370190505b5091506101ae85610913565b67ffffffffffffffff8111156101c6576101c66113c3565b6040519080825280602002602001820160405280156101ef578160200160208202803683370190505b50905060005b60008060006102038961093f565b925092509250600080600061021c8686868e600061042a565b92509250925081898881518110610235576102356116a9565b60200260200101906001600160a01b031690816001600160a01b03168152505080888881518110610268576102686116a9565b602002602001019060020b908160020b81525050829a50868061028a906116d5565b9750506102968c61097b565b156102ab576102a48c6109b5565b9b506102b9565b8a99505050505050506102c4565b5050505050506101f5565b509250925092565b6000805460405163175c1b2360e31b815282916001600160a01b03169063bae0d91890610301908b908b908b906004016116ee565b602060405180830381865afa15801561031e573d6000803e3d6000fd5b505050506040513d601f19601f820116820180604052508101906103429190611716565b9050600080826001600160a01b0316633850c7bd6040518163ffffffff1660e01b815260040160a060405180830381865afa158015610385573d6000803e3d6000fd5b505050506040513d601f19601f820116820180604052508101906103a99190611745565b505050915091508560020b8160020b1280156103ca57508660020b8160020b135b1561041d576103e7826001600160a01b031686600160601b6109e6565b93506000610402888885896103fd60028b611893565b610a31565b905061041961041089610a5a565b84836000610e7c565b9450505b5050509695505050505050565b6000805460405163175c1b2360e31b81528291829182916001600160a01b03169063bae0d91890610463908c908c908c906004016116ee565b602060405180830381865afa158015610480573d6000803e3d6000fd5b505050506040513d601f19601f820116820180604052508101906104a49190611716565b90506000886001600160a01b03168a6001600160a01b0316109050816001600160a01b031663dd5a12d830838a8a6001600160a01b03166000146104e8578a610521565b856105115761050c600173fffd8963efd1fc6a506488495d951d5263988d266118a2565b610521565b6105216401000276a360016118c9565b604080516001600160a01b038a166020820152016040516020818303038152906040526040518663ffffffff1660e01b81526004016105649594939291906118e9565b60408051808303816000875af192505050801561059e575060408051601f3d908101601f1916820190925261059b91810190611963565b60015b6106e6573d8080156105cc576040519150601f19603f3d011682016040523d82523d6000602084013e6105d1565b606091505b50805160208083019190912060408051600481526024810190915291820180516001600160e01b0316632d4eeeb360e21b17815291519091208190036106525760405162461bcd60e51b8152602060048201526011602482015270125b9d985b1a59141c9a58d9531a5b5a5d607a1b60448201526064015b60405180910390fd5b6040805160048152602481019091526020810180516001600160e01b0316634323a55560e01b178152905190208190036106c35760405162461bcd60e51b81526020600482015260126024820152714e6f74456e6f7567684c697175696469747960701b6044820152606401610649565b818060200190518101906106d79190611987565b965096509650505050506106eb565b505050505b955095509592505050565b6000805460405163175c1b2360e31b815282916001600160a01b03169063bae0d9189061072b908b908b908b906004016116ee565b602060405180830381865afa158015610748573d6000803e3d6000fd5b505050506040513d601f19601f8201168201806040525081019061076c9190611716565b9050600080826001600160a01b0316633850c7bd6040518163ffffffff1660e01b815260040160a060405180830381865afa1580156107af573d6000803e3d6000fd5b505050506040513d601f19601f820116820180604052508101906107d39190611745565b505050915091508560020b8160020b1280156107f457508660020b8160020b135b1561041d57600160601b6001600160a01b038316046bffffffffffffffffffffffff83161515018086061515908604019350600061083f88888561083960028a611893565b8a610a31565b90506104198361084e89610a5a565b836000610f06565b60008180602001905181019061086c9190611716565b9050600080851361088557610880856119ca565b61088e565b61088e846119ca565b9050600080836001600160a01b0316633850c7bd6040518163ffffffff1660e01b815260040160a060405180830381865afa1580156108d1573d6000803e3d6000fd5b505050506040513d601f19601f820116820180604052508101906108f59190611745565b50505091509150604051838152826020820152816040820152606081fd5b6000610921600360146119e6565b6014835161092f91906119f9565b6109399190611a22565b92915050565b6000808061094d8482610fdb565b925061095a846014611040565b905061097261096b600360146119e6565b8590610fdb565b91509193909250565b6000610989600360146119e6565b60146109966003826119e6565b6109a091906119e6565b6109aa91906119e6565b825110159050919050565b60606109396109c6600360146119e6565b6109d2600360146119e6565b84516109de91906119f9565b84919061109d565b60006109f38484846111aa565b905060008280610a0557610a05611a0c565b8486091115610a2a576000198110610a1c57600080fd5b80610a26816116d5565b9150505b9392505050565b6000610a5084610a4088610a5a565b610a4988610a5a565b8686611277565b9695505050505050565b60008060008360020b12610a71578260020b610a7e565b8260020b610a7e906119ca565b9050610a8d620d89e719611a36565b62ffffff16811115610ac55760405162461bcd60e51b81526020600482015260016024820152601560fa1b6044820152606401610649565b600081600116600003610adc57600160801b610aee565b6ffffcb933bd6fad37aa2d162d1a5940015b70ffffffffffffffffffffffffffffffffff1690506002821615610b2d576080610b28826ffff97272373d413259a46990580e213a611a58565b901c90505b6004821615610b57576080610b52826ffff2e50f5f656932ef12357cf3c7fdcc611a58565b901c90505b6008821615610b81576080610b7c826fffe5caca7e10e4e61c3624eaa0941cd0611a58565b901c90505b6010821615610bab576080610ba6826fffcb9843d60f6159c9db58835c926644611a58565b901c90505b6020821615610bd5576080610bd0826fff973b41fa98c081472e6896dfb254c0611a58565b901c90505b6040821615610bff576080610bfa826fff2ea16466c96a3843ec78b326b52861611a58565b901c90505b6080821615610c29576080610c24826ffe5dee046a99a2a811c461f1969c3053611a58565b901c90505b610100821615610c54576080610c4f826ffcbe86c7900a88aedcffc83b479aa3a4611a58565b901c90505b610200821615610c7f576080610c7a826ff987a7253ac413176f2b074cf7815e54611a58565b901c90505b610400821615610caa576080610ca5826ff3392b0822b70005940c7a398e4b70f3611a58565b901c90505b610800821615610cd5576080610cd0826fe7159475a2c29b7443b29c7fa6e889d9611a58565b901c90505b611000821615610d00576080610cfb826fd097f3bdfd2022b8845ad8f792aa5825611a58565b901c90505b612000821615610d2b576080610d26826fa9f746462d870fdf8a65dc1f90e061e5611a58565b901c90505b614000821615610d56576080610d51826f70d869a156d2a1b890bb3df62baf32f7611a58565b901c90505b618000821615610d81576080610d7c826f31be135f97d08fd981231505542fcfa6611a58565b901c90505b62010000821615610dad576080610da8826f09aa508b5b7a84e1c677de54f3e99bc9611a58565b901c90505b62020000821615610dd8576080610dd3826e5d6af8dedb81196699c329225ee604611a58565b901c90505b62040000821615610e02576080610dfd826d2216e584f5fa1ea926041bedfe98611a58565b901c90505b62080000821615610e2a576080610e25826b048a170391f7dc42444e8fa2611a58565b901c90505b60008460020b1315610e4557610e4281600019611a22565b90505b610e5464010000000082611a6f565b15610e60576001610e63565b60005b610e749060ff16602083901c6119e6565b949350505050565b6000836001600160a01b0316856001600160a01b03161115610e9c579293925b8115610ed357610ecc6001600160801b038416610eb987876118a2565b6001600160a01b0316600160601b6109e6565b9050610e74565b610efd6001600160801b038416610eea87876118a2565b6001600160a01b0316600160601b6111aa565b95945050505050565b6000836001600160a01b0316856001600160a01b03161115610f26579293925b6000856001600160a01b031611610f3c57600080fd5b6fffffffffffffffffffffffffffffffff60601b606084901b166000610f6287876118a2565b6001600160a01b031690508315610fa657610f9f610f8a8383896001600160a01b03166109e6565b886001600160a01b0316808204910615150190565b9250610fd1565b866001600160a01b0316610fc48383896001600160a01b03166111aa565b610fce9190611a22565b92505b5050949350505050565b6000610fe88260146119e6565b835110156110305760405162461bcd60e51b8152602060048201526015602482015274746f416464726573735f6f75744f66426f756e647360581b6044820152606401610649565b500160200151600160601b900490565b600061104d8260036119e6565b835110156110945760405162461bcd60e51b8152602060048201526014602482015273746f55696e7432345f6f75744f66426f756e647360601b6044820152606401610649565b50016003015190565b6060816110ab81601f6119e6565b10156110ea5760405162461bcd60e51b815260206004820152600e60248201526d736c6963655f6f766572666c6f7760901b6044820152606401610649565b6110f482846119e6565b845110156111385760405162461bcd60e51b8152602060048201526011602482015270736c6963655f6f75744f66426f756e647360781b6044820152606401610649565b60608215801561115757604051915060008252602082016040526111a1565b6040519150601f8416801560200281840101858101878315602002848b0101015b81831015611190578051835260209283019201611178565b5050858452601f01601f1916604052505b50949350505050565b60008080600019858709858702925082811083820303915050806000036111e4578382816111da576111da611a0c565b0492505050610a2a565b83811061120e57604051631dcf306360e21b81526004810182905260248101859052604401610649565b60008486880960026001871981018816978890046003810283188082028403028082028403028082028403028082028403028082028403029081029092039091026000889003889004909101858311909403939093029303949094049190911702949350505050565b6000836001600160a01b0316856001600160a01b03161115611297579293925b846001600160a01b0316866001600160a01b0316116112c2576112bb85858561132e565b9050610efd565b836001600160a01b0316866001600160a01b0316116113235760006112e887868661132e565b905060006112f7878986611390565b9050806001600160801b0316826001600160801b031610611318578061131a565b815b92505050610efd565b610a50858584611390565b6000826001600160a01b0316846001600160a01b0316111561134e579192915b6000611371856001600160a01b0316856001600160a01b0316600160601b6111aa565b9050610a26838261138288886118a2565b6001600160a01b03166111aa565b6000826001600160a01b0316846001600160a01b031611156113b0579192915b610e7482600160601b61138287876118a2565b634e487b7160e01b600052604160045260246000fd5b600082601f8301126113ea57600080fd5b813567ffffffffffffffff80821115611405576114056113c3565b604051601f8301601f19908116603f0116810190828211818310171561142d5761142d6113c3565b8160405283815286602085880101111561144657600080fd5b836020870160208301376000602085830101528094505050505092915050565b6000806040838503121561147957600080fd5b823567ffffffffffffffff81111561149057600080fd5b61149c858286016113d9565b95602094909401359450505050565b6000606082018583526020606081850152818651808452608086019150828801935060005b818110156114f55784516001600160a01b0316835293830193918301916001016114d0565b50508481036040860152855180825290820192508186019060005b8181101561152f57825160020b85529383019391830191600101611510565b509298975050505050505050565b6001600160a01b038116811461155257600080fd5b50565b803562ffffff8116811461156857600080fd5b919050565b8060020b811461155257600080fd5b60008060008060008060c0878903121561159557600080fd5b86356115a08161153d565b955060208701356115b08161153d565b94506115be60408801611555565b935060608701356115ce8161156d565b925060808701356115de8161156d565b8092505060a087013590509295509295509295565b600080600080600060a0868803121561160b57600080fd5b85356116168161153d565b945060208601356116268161153d565b935061163460408701611555565b925060608601359150608086013561164b8161153d565b809150509295509295909350565b60008060006060848603121561166e57600080fd5b8335925060208401359150604084013567ffffffffffffffff81111561169357600080fd5b61169f868287016113d9565b9150509250925092565b634e487b7160e01b600052603260045260246000fd5b634e487b7160e01b600052601160045260246000fd5b6000600182016116e7576116e76116bf565b5060010190565b6001600160a01b03938416815291909216602082015262ffffff909116604082015260600190565b60006020828403121561172857600080fd5b8151610a2a8161153d565b805161ffff8116811461156857600080fd5b600080600080600060a0868803121561175d57600080fd5b85516117688161153d565b60208701519095506117798161156d565b935061178760408701611733565b925061179560608701611733565b91506117a360808701611733565b90509295509295909350565b600181815b808511156117ea5781600019048211156117d0576117d06116bf565b808516156117dd57918102915b93841c93908002906117b4565b509250929050565b60008261180157506001610939565b8161180e57506000610939565b8160018114611824576002811461182e5761184a565b6001915050610939565b60ff84111561183f5761183f6116bf565b50506001821b610939565b5060208310610133831016604e8410600b841016171561186d575081810a610939565b61187783836117af565b806000190482111561188b5761188b6116bf565b029392505050565b6000610a2a60ff8416836117f2565b6001600160a01b038281168282160390808211156118c2576118c26116bf565b5092915050565b6001600160a01b038181168382160190808211156118c2576118c26116bf565b600060018060a01b038088168352602087151581850152866040850152818616606085015260a06080850152845191508160a085015260005b8281101561193e5785810182015185820160c001528101611922565b5050600060c0828501015260c0601f19601f8301168401019150509695505050505050565b6000806040838503121561197657600080fd5b505080516020909101519092909150565b60008060006060848603121561199c57600080fd5b8351925060208401516119ae8161153d565b60408501519092506119bf8161156d565b809150509250925092565b6000600160ff1b82016119df576119df6116bf565b5060000390565b80820180821115610939576109396116bf565b81810381811115610939576109396116bf565b634e487b7160e01b600052601260045260246000fd5b600082611a3157611a31611a0c565b500490565b60008160020b627fffff198103611a4f57611a4f6116bf565b60000392915050565b8082028115828204841417610939576109396116bf565b600082611a7e57611a7e611a0c565b50069056fea26469706673582212205fc918e82255704df60d0b65a0f58a8110a94d1cfc098ff80dd15da57f406fb064736f6c63430008140033",
    "bytecodeSha1": "7451c93051286c5efa98b3683bb6a407b9b6bb1d",
    "compiler": {
        "evm_version": "istanbul",
        "optimizer": {
            "enabled": true,
            "runs": 200
        },
        "version": "0.8.20+commit.a1b79de6"
    },
    "contractName": "Quoter",
    "language": "Solidity",
    "natspec": {
        "errors": {
            "PRBMath__MulDivOverflow(uint256,uint256)": [
                {
                    "notice": "Emitted when the result overflows uint256."
                }
            ]
        },
        "kind": "dev",
        "methods": {},
        "version": 1
    },
    "opcodes": "PUSH1 0x80 PUSH1 0x40 MSTORE CALLVALUE DUP1 ISZERO PUSH2 0x10 JUMPI PUSH1 0x0 DUP1 REVERT JUMPDEST POP PUSH1 0x4 CALLDATASIZE LT PUSH2 0x62 JUMPI PUSH1 0x0 CALLDATALOAD PUSH1 0xE0 SHR DUP1 PUSH4 0x260A5B03 EQ PUSH2 0x67 JUMPI DUP1 PUSH4 0xC45A0155 EQ PUSH2 0x92 JUMPI DUP1 PUSH4 0xCBE76C3C EQ PUSH2 0xD1 JUMPI DUP1 PUSH4 0xE95DBB69 EQ PUSH2 0xF2 JUMPI DUP1 PUSH4 0xF898A068 EQ PUSH2 0x12B JUMPI DUP1 PUSH4 0xFA461E33 EQ PUSH2 0x13E JUMPI JUMPDEST PUSH1 0x0 DUP1 REVERT JUMPDEST PUSH2 0x7A PUSH2 0x75 CALLDATASIZE PUSH1 0x4 PUSH2 0x1466 JUMP JUMPDEST PUSH2 0x153 JUMP JUMPDEST PUSH1 0x40 MLOAD PUSH2 0x89 SWAP4 SWAP3 SWAP2 SWAP1 PUSH2 0x14AB JUMP JUMPDEST PUSH1 0x40 MLOAD DUP1 SWAP2 SUB SWAP1 RETURN JUMPDEST PUSH2 0xB9 PUSH32 0x0 DUP2 JUMP JUMPDEST PUSH1 0x40 MLOAD PUSH1 0x1 PUSH1 0x1 PUSH1 0xA0 SHL SUB SWAP1 SWAP2 AND DUP2 MSTORE PUSH1 0x20 ADD PUSH2 0x89 JUMP JUMPDEST PUSH2 0xE4 PUSH2 0xDF CALLDATASIZE PUSH1 0x4 PUSH2 0x157C JUMP JUMPDEST PUSH2 0x2CC JUMP JUMPDEST PUSH1 0x40 MLOAD SWAP1 DUP2 MSTORE PUSH1 0x20 ADD PUSH2 0x89 JUMP JUMPDEST PUSH2 0x105 PUSH2 0x100 CALLDATASIZE PUSH1 0x4 PUSH2 0x15F3 JUMP JUMPDEST PUSH2 0x42A JUMP JUMPDEST PUSH1 0x40 DUP1 MLOAD SWAP4 DUP5 MSTORE PUSH1 0x1 PUSH1 0x1 PUSH1 0xA0 SHL SUB SWAP1 SWAP3 AND PUSH1 0x20 DUP5 ADD MSTORE PUSH1 0x2 SIGNEXTEND SWAP1 DUP3 ADD MSTORE PUSH1 0x60 ADD PUSH2 0x89 JUMP JUMPDEST PUSH2 0xE4 PUSH2 0x139 CALLDATASIZE PUSH1 0x4 PUSH2 0x157C JUMP JUMPDEST PUSH2 0x6F6 JUMP JUMPDEST PUSH2 0x151 PUSH2 0x14C CALLDATASIZE PUSH1 0x4 PUSH2 0x1659 JUMP JUMPDEST PUSH2 0x856 JUMP JUMPDEST STOP JUMPDEST PUSH1 0x0 PUSH1 0x60 DUP1 PUSH2 0x161 DUP6 PUSH2 0x913 JUMP JUMPDEST PUSH8 0xFFFFFFFFFFFFFFFF DUP2 GT ISZERO PUSH2 0x179 JUMPI PUSH2 0x179 PUSH2 0x13C3 JUMP JUMPDEST PUSH1 0x40 MLOAD SWAP1 DUP1 DUP3 MSTORE DUP1 PUSH1 0x20 MUL PUSH1 0x20 ADD DUP3 ADD PUSH1 0x40 MSTORE DUP1 ISZERO PUSH2 0x1A2 JUMPI DUP2 PUSH1 0x20 ADD PUSH1 0x20 DUP3 MUL DUP1 CALLDATASIZE DUP4 CALLDATACOPY ADD SWAP1 POP JUMPDEST POP SWAP2 POP PUSH2 0x1AE DUP6 PUSH2 0x913 JUMP JUMPDEST PUSH8 0xFFFFFFFFFFFFFFFF DUP2 GT ISZERO PUSH2 0x1C6 JUMPI PUSH2 0x1C6 PUSH2 0x13C3 JUMP JUMPDEST PUSH1 0x40 MLOAD SWAP1 DUP1 DUP3 MSTORE DUP1 PUSH1 0x20 MUL PUSH1 0x20 ADD DUP3 ADD PUSH1 0x40 MSTORE DUP1 ISZERO PUSH2 0x1EF JUMPI DUP2 PUSH1 0x20 ADD PUSH1 0x20 DUP3 MUL DUP1 CALLDATASIZE DUP4 CALLDATACOPY ADD SWAP1 POP JUMPDEST POP SWAP1 POP PUSH1 0x0 JUMPDEST PUSH1 0x0 DUP1 PUSH1 0x0 PUSH2 0x203 DUP10 PUSH2 0x93F JUMP JUMPDEST SWAP3 POP SWAP3 POP SWAP3 POP PUSH1 0x0 DUP1 PUSH1 0x0 PUSH2 0x21C DUP7 DUP7 DUP7 DUP15 PUSH1 0x0 PUSH2 0x42A JUMP JUMPDEST SWAP3 POP SWAP3 POP SWAP3 POP DUP2 DUP10 DUP9 DUP2 MLOAD DUP2 LT PUSH2 0x235 JUMPI PUSH2 0x235 PUSH2 0x16A9 JUMP JUMPDEST PUSH1 0x20 MUL PUSH1 0x20 ADD ADD SWAP1 PUSH1 0x1 PUSH1 0x1 PUSH1 0xA0 SHL SUB AND SWAP1 DUP2 PUSH1 0x1 PUSH1 0x1 PUSH1 0xA0 SHL SUB AND DUP2 MSTORE POP POP DUP1 DUP9 DUP9 DUP2 MLOAD DUP2 LT PUSH2 0x268 JUMPI PUSH2 0x268 PUSH2 0x16A9 JUMP JUMPDEST PUSH1 0x20 MUL PUSH1 0x20 ADD ADD SWAP1 PUSH1 0x2 SIGNEXTEND SWAP1 DUP2 PUSH1 0x2 SIGNEXTEND DUP2 MSTORE POP POP DUP3 SWAP11 POP DUP7 DUP1 PUSH2 0x28A SWAP1 PUSH2 0x16D5 JUMP JUMPDEST SWAP8 POP POP PUSH2 0x296 DUP13 PUSH2 0x97B JUMP JUMPDEST ISZERO PUSH2 0x2AB JUMPI PUSH2 0x2A4 DUP13 PUSH2 0x9B5 JUMP JUMPDEST SWAP12 POP PUSH2 0x2B9 JUMP JUMPDEST DUP11 SWAP10 POP POP POP POP POP POP POP PUSH2 0x2C4 JUMP JUMPDEST POP POP POP POP POP POP PUSH2 0x1F5 JUMP JUMPDEST POP SWAP3 POP SWAP3 POP SWAP3 JUMP JUMPDEST PUSH1 0x0 DUP1 SLOAD PUSH1 0x40 MLOAD PUSH4 0x175C1B23 PUSH1 0xE3 SHL DUP2 MSTORE DUP3 SWAP2 PUSH1 0x1 PUSH1 0x1 PUSH1 0xA0 SHL SUB AND SWAP1 PUSH4 0xBAE0D918 SWAP1 PUSH2 0x301 SWAP1 DUP12 SWAP1 DUP12 SWAP1 DUP12 SWAP1 PUSH1 0x4 ADD PUSH2 0x16EE JUMP JUMPDEST PUSH1 0x20 PUSH1 0x40 MLOAD DUP1 DUP4 SUB DUP2 DUP7 GAS STATICCALL ISZERO DUP1 ISZERO PUSH2 0x31E JUMPI RETURNDATASIZE PUSH1 0x0 DUP1 RETURNDATACOPY RETURNDATASIZE PUSH1 0x0 REVERT JUMPDEST POP POP POP POP PUSH1 0x40 MLOAD RETURNDATASIZE PUSH1 0x1F NOT PUSH1 0x1F DUP3 ADD AND DUP3 ADD DUP1 PUSH1 0x40 MSTORE POP DUP2 ADD SWAP1 PUSH2 0x342 SWAP2 SWAP1 PUSH2 0x1716 JUMP JUMPDEST SWAP1 POP PUSH1 0x0 DUP1 DUP3 PUSH1 0x1 PUSH1 0x1 PUSH1 0xA0 SHL SUB AND PUSH4 0x3850C7BD PUSH1 0x40 MLOAD DUP2 PUSH4 0xFFFFFFFF AND PUSH1 0xE0 SHL DUP2 MSTORE PUSH1 0x4 ADD PUSH1 0xA0 PUSH1 0x40 MLOAD DUP1 DUP4 SUB DUP2 DUP7 GAS STATICCALL ISZERO DUP1 ISZERO PUSH2 0x385 JUMPI RETURNDATASIZE PUSH1 0x0 DUP1 RETURNDATACOPY RETURNDATASIZE PUSH1 0x0 REVERT JUMPDEST POP POP POP POP PUSH1 0x40 MLOAD RETURNDATASIZE PUSH1 0x1F NOT PUSH1 0x1F DUP3 ADD AND DUP3 ADD DUP1 PUSH1 0x40 MSTORE POP DUP2 ADD SWAP1 PUSH2 0x3A9 SWAP2 SWAP1 PUSH2 0x1745 JUMP JUMPDEST POP POP POP SWAP2 POP SWAP2 POP DUP6 PUSH1 0x2 SIGNEXTEND DUP2 PUSH1 0x2 SIGNEXTEND SLT DUP1 ISZERO PUSH2 0x3CA JUMPI POP DUP7 PUSH1 0x2 SIGNEXTEND DUP2 PUSH1 0x2 SIGNEXTEND SGT JUMPDEST ISZERO PUSH2 0x41D JUMPI PUSH2 0x3E7 DUP3 PUSH1 0x1 PUSH1 0x1 PUSH1 0xA0 SHL SUB AND DUP7 PUSH1 0x1 PUSH1 0x60 SHL PUSH2 0x9E6 JUMP JUMPDEST SWAP4 POP PUSH1 0x0 PUSH2 0x402 DUP9 DUP9 DUP6 DUP10 PUSH2 0x3FD PUSH1 0x2 DUP12 PUSH2 0x1893 JUMP JUMPDEST PUSH2 0xA31 JUMP JUMPDEST SWAP1 POP PUSH2 0x419 PUSH2 0x410 DUP10 PUSH2 0xA5A JUMP JUMPDEST DUP5 DUP4 PUSH1 0x0 PUSH2 0xE7C JUMP JUMPDEST SWAP5 POP POP JUMPDEST POP POP POP SWAP7 SWAP6 POP POP POP POP POP POP JUMP JUMPDEST PUSH1 0x0 DUP1 SLOAD PUSH1 0x40 MLOAD PUSH4 0x175C1B23 PUSH1 0xE3 SHL DUP2 MSTORE DUP3 SWAP2 DUP3 SWAP2 DUP3 SWAP2 PUSH1 0x1 PUSH1 0x1 PUSH1 0xA0 SHL SUB AND SWAP1 PUSH4 0xBAE0D918 SWAP1 PUSH2 0x463 SWAP1 DUP13 SWAP1 DUP13 SWAP1 DUP13 SWAP1 PUSH1 0x4 ADD PUSH2 0x16EE JUMP JUMPDEST PUSH1 0x20 PUSH1 0x40 MLOAD DUP1 DUP4 SUB DUP2 DUP7 GAS STATICCALL ISZERO DUP1 ISZERO PUSH2 0x480 JUMPI RETURNDATASIZE PUSH1 0x0 DUP1 RETURNDATACOPY RETURNDATASIZE PUSH1 0x0 REVERT JUMPDEST POP POP POP POP PUSH1 0x40 MLOAD RETURNDATASIZE PUSH1 0x1F NOT PUSH1 0x1F DUP3 ADD AND DUP3 ADD DUP1 PUSH1 0x40 MSTORE POP DUP2 ADD SWAP1 PUSH2 0x4A4 SWAP2 SWAP1 PUSH2 0x1716 JUMP JUMPDEST SWAP1 POP PUSH1 0x0 DUP9 PUSH1 0x1 PUSH1 0x1 PUSH1 0xA0 SHL SUB AND DUP11 PUSH1 0x1 PUSH1 0x1 PUSH1 0xA0 SHL SUB AND LT SWAP1 POP DUP2 PUSH1 0x1 PUSH1 0x1 PUSH1 0xA0 SHL SUB AND PUSH4 0xDD5A12D8 ADDRESS DUP4 DUP11 DUP11 PUSH1 0x1 PUSH1 0x1 PUSH1 0xA0 SHL SUB AND PUSH1 0x0 EQ PUSH2 0x4E8 JUMPI DUP11 PUSH2 0x521 JUMP JUMPDEST DUP6 PUSH2 0x511 JUMPI PUSH2 0x50C PUSH1 0x1 PUSH20 0xFFFD8963EFD1FC6A506488495D951D5263988D26 PUSH2 0x18A2 JUMP JUMPDEST PUSH2 0x521 JUMP JUMPDEST PUSH2 0x521 PUSH5 0x1000276A3 PUSH1 0x1 PUSH2 0x18C9 JUMP JUMPDEST PUSH1 0x40 DUP1 MLOAD PUSH1 0x1 PUSH1 0x1 PUSH1 0xA0 SHL SUB DUP11 AND PUSH1 0x20 DUP3 ADD MSTORE ADD PUSH1 0x40 MLOAD PUSH1 0x20 DUP2 DUP4 SUB SUB DUP2 MSTORE SWAP1 PUSH1 0x40 MSTORE PUSH1 0x40 MLOAD DUP7 PUSH4 0xFFFFFFFF AND PUSH1 0xE0 SHL DUP2 MSTORE PUSH1 0x4 ADD PUSH2 0x564 SWAP6 SWAP5 SWAP4 SWAP3 SWAP2 SWAP1 PUSH2 0x18E9 JUMP JUMPDEST PUSH1 0x40 DUP1 MLOAD DUP1 DUP4 SUB DUP2 PUSH1 0x0 DUP8 GAS CALL SWAP3 POP POP POP DUP1 ISZERO PUSH2 0x59E JUMPI POP PUSH1 0x40 DUP1 MLOAD PUSH1 0x1F RETURNDATASIZE SWAP1 DUP2 ADD PUSH1 0x1F NOT AND DUP3 ADD SWAP1 SWAP3 MSTORE PUSH2 0x59B SWAP2 DUP2 ADD SWAP1 PUSH2 0x1963 JUMP JUMPDEST PUSH1 0x1 JUMPDEST PUSH2 0x6E6 JUMPI RETURNDATASIZE DUP1 DUP1 ISZERO PUSH2 0x5CC JUMPI PUSH1 0x40 MLOAD SWAP2 POP PUSH1 0x1F NOT PUSH1 0x3F RETURNDATASIZE ADD AND DUP3 ADD PUSH1 0x40 MSTORE RETURNDATASIZE DUP3 MSTORE RETURNDATASIZE PUSH1 0x0 PUSH1 0x20 DUP5 ADD RETURNDATACOPY PUSH2 0x5D1 JUMP JUMPDEST PUSH1 0x60 SWAP2 POP JUMPDEST POP DUP1 MLOAD PUSH1 0x20 DUP1 DUP4 ADD SWAP2 SWAP1 SWAP2 KECCAK256 PUSH1 0x40 DUP1 MLOAD PUSH1 0x4 DUP2 MSTORE PUSH1 0x24 DUP2 ADD SWAP1 SWAP2 MSTORE SWAP2 DUP3 ADD DUP1 MLOAD PUSH1 0x1 PUSH1 0x1 PUSH1 0xE0 SHL SUB AND PUSH4 0x2D4EEEB3 PUSH1 0xE2 SHL OR DUP2 MSTORE SWAP2 MLOAD SWAP1 SWAP2 KECCAK256 DUP2 SWAP1 SUB PUSH2 0x652 JUMPI PUSH1 0x40 MLOAD PUSH3 0x461BCD PUSH1 0xE5 SHL DUP2 MSTORE PUSH1 0x20 PUSH1 0x4 DUP3 ADD MSTORE PUSH1 0x11 PUSH1 0x24 DUP3 ADD MSTORE PUSH17 0x125B9D985B1A59141C9A58D9531A5B5A5D PUSH1 0x7A SHL PUSH1 0x44 DUP3 ADD MSTORE PUSH1 0x64 ADD JUMPDEST PUSH1 0x40 MLOAD DUP1 SWAP2 SUB SWAP1 REVERT JUMPDEST PUSH1 0x40 DUP1 MLOAD PUSH1 0x4 DUP2 MSTORE PUSH1 0x24 DUP2 ADD SWAP1 SWAP2 MSTORE PUSH1 0x20 DUP2 ADD DUP1 MLOAD PUSH1 0x1 PUSH1 0x1 PUSH1 0xE0 SHL SUB AND PUSH4 0x4323A555 PUSH1 0xE0 SHL OR DUP2 MSTORE SWAP1 MLOAD SWAP1 KECCAK256 DUP2 SWAP1 SUB PUSH2 0x6C3 JUMPI PUSH1 0x40 MLOAD PUSH3 0x461BCD PUSH1 0xE5 SHL DUP2 MSTORE PUSH1 0x20 PUSH1 0x4 DUP3 ADD MSTORE PUSH1 0x12 PUSH1 0x24 DUP3 ADD MSTORE PUSH18 0x4E6F74456E6F7567684C6971756964697479 PUSH1 0x70 SHL PUSH1 0x44 DUP3 ADD MSTORE PUSH1 0x64 ADD PUSH2 0x649 JUMP JUMPDEST DUP2 DUP1 PUSH1 0x20 ADD SWAP1 MLOAD DUP2 ADD SWAP1 PUSH2 0x6D7 SWAP2 SWAP1 PUSH2 0x1987 JUMP JUMPDEST SWAP7 POP SWAP7 POP SWAP7 POP POP POP POP POP PUSH2 0x6EB JUMP JUMPDEST POP POP POP POP JUMPDEST SWAP6 POP SWAP6 POP SWAP6 SWAP3 POP POP POP JUMP JUMPDEST PUSH1 0x0 DUP1 SLOAD PUSH1 0x40 MLOAD PUSH4 0x175C1B23 PUSH1 0xE3 SHL DUP2 MSTORE DUP3 SWAP2 PUSH1 0x1 PUSH1 0x1 PUSH1 0xA0 SHL SUB AND SWAP1 PUSH4 0xBAE0D918 SWAP1 PUSH2 0x72B SWAP1 DUP12 SWAP1 DUP12 SWAP1 DUP12 SWAP1 PUSH1 0x4 ADD PUSH2 0x16EE JUMP JUMPDEST PUSH1 0x20 PUSH1 0x40 MLOAD DUP1 DUP4 SUB DUP2 DUP7 GAS STATICCALL ISZERO DUP1 ISZERO PUSH2 0x748 JUMPI RETURNDATASIZE PUSH1 0x0 DUP1 RETURNDATACOPY RETURNDATASIZE PUSH1 0x0 REVERT JUMPDEST POP POP POP POP PUSH1 0x40 MLOAD RETURNDATASIZE PUSH1 0x1F NOT PUSH1 0x1F DUP3 ADD AND DUP3 ADD DUP1 PUSH1 0x40 MSTORE POP DUP2 ADD SWAP1 PUSH2 0x76C SWAP2 SWAP1 PUSH2 0x1716 JUMP JUMPDEST SWAP1 POP PUSH1 0x0 DUP1 DUP3 PUSH1 0x1 PUSH1 0x1 PUSH1 0xA0 SHL SUB AND PUSH4 0x3850C7BD PUSH1 0x40 MLOAD DUP2 PUSH4 0xFFFFFFFF AND PUSH1 0xE0 SHL DUP2 MSTORE PUSH1 0x4 ADD PUSH1 0xA0 PUSH1 0x40 MLOAD DUP1 DUP4 SUB DUP2 DUP7 GAS STATICCALL ISZERO DUP1 ISZERO PUSH2 0x7AF JUMPI RETURNDATASIZE PUSH1 0x0 DUP1 RETURNDATACOPY RETURNDATASIZE PUSH1 0x0 REVERT JUMPDEST POP POP POP POP PUSH1 0x40 MLOAD RETURNDATASIZE PUSH1 0x1F NOT PUSH1 0x1F DUP3 ADD AND DUP3 ADD DUP1 PUSH1 0x40 MSTORE POP DUP2 ADD SWAP1 PUSH2 0x7D3 SWAP2 SWAP1 PUSH2 0x1745 JUMP JUMPDEST POP POP POP SWAP2 POP SWAP2 POP DUP6 PUSH1 0x2 SIGNEXTEND DUP2 PUSH1 0x2 SIGNEXTEND SLT DUP1 ISZERO PUSH2 0x7F4 JUMPI POP DUP7 PUSH1 0x2 SIGNEXTEND DUP2 PUSH1 0x2 SIGNEXTEND SGT JUMPDEST ISZERO PUSH2 0x41D JUMPI PUSH1 0x1 PUSH1 0x60 SHL PUSH1 0x1 PUSH1 0x1 PUSH1 0xA0 SHL SUB DUP4 AND DIV PUSH12 0xFFFFFFFFFFFFFFFFFFFFFFFF DUP4 AND ISZERO ISZERO ADD DUP1 DUP7 MOD ISZERO ISZERO SWAP1 DUP7 DIV ADD SWAP4 POP PUSH1 0x0 PUSH2 0x83F DUP9 DUP9 DUP6 PUSH2 0x839 PUSH1 0x2 DUP11 PUSH2 0x1893 JUMP JUMPDEST DUP11 PUSH2 0xA31 JUMP JUMPDEST SWAP1 POP PUSH2 0x419 DUP4 PUSH2 0x84E DUP10 PUSH2 0xA5A JUMP JUMPDEST DUP4 PUSH1 0x0 PUSH2 0xF06 JUMP JUMPDEST PUSH1 0x0 DUP2 DUP1 PUSH1 0x20 ADD SWAP1 MLOAD DUP2 ADD SWAP1 PUSH2 0x86C SWAP2 SWAP1 PUSH2 0x1716 JUMP JUMPDEST SWAP1 POP PUSH1 0x0 DUP1 DUP6 SGT PUSH2 0x885 JUMPI PUSH2 0x880 DUP6 PUSH2 0x19CA JUMP JUMPDEST PUSH2 0x88E JUMP JUMPDEST PUSH2 0x88E DUP5 PUSH2 0x19CA JUMP JUMPDEST SWAP1 POP PUSH1 0x0 DUP1 DUP4 PUSH1 0x1 PUSH1 0x1 PUSH1 0xA0 SHL SUB AND PUSH4 0x3850C7BD PUSH1 0x40 MLOAD DUP2 PUSH4 0xFFFFFFFF AND PUSH1 0xE0 SHL DUP2 MSTORE PUSH1 0x4 ADD PUSH1 0xA0 PUSH1 0x40 MLOAD DUP1 DUP4 SUB DUP2 DUP7 GAS STATICCALL ISZERO DUP1 ISZERO PUSH2 0x8D1 JUMPI RETURNDATASIZE PUSH1 0x0 DUP1 RETURNDATACOPY RETURNDATASIZE PUSH1 0x0 REVERT JUMPDEST POP POP POP POP PUSH1 0x40 MLOAD RETURNDATASIZE PUSH1 0x1F NOT PUSH1 0x1F DUP3 ADD AND DUP3 ADD DUP1 PUSH1 0x40 MSTORE POP DUP2 ADD SWAP1 PUSH2 0x8F5 SWAP2 SWAP1 PUSH2 0x1745 JUMP JUMPDEST POP POP POP SWAP2 POP SWAP2 POP PUSH1 0x40 MLOAD DUP4 DUP2 MSTORE DUP3 PUSH1 0x20 DUP3 ADD MSTORE DUP2 PUSH1 0x40 DUP3 ADD MSTORE PUSH1 0x60 DUP2 REVERT JUMPDEST PUSH1 0x0 PUSH2 0x921 PUSH1 0x3 PUSH1 0x14 PUSH2 0x19E6 JUMP JUMPDEST PUSH1 0x14 DUP4 MLOAD PUSH2 0x92F SWAP2 SWAP1 PUSH2 0x19F9 JUMP JUMPDEST PUSH2 0x939 SWAP2 SWAP1 PUSH2 0x1A22 JUMP JUMPDEST SWAP3 SWAP2 POP POP JUMP JUMPDEST PUSH1 0x0 DUP1 DUP1 PUSH2 0x94D DUP5 DUP3 PUSH2 0xFDB JUMP JUMPDEST SWAP3 POP PUSH2 0x95A DUP5 PUSH1 0x14 PUSH2 0x1040 JUMP JUMPDEST SWAP1 POP PUSH2 0x972 PUSH2 0x96B PUSH1 0x3 PUSH1 0x14 PUSH2 0x19E6 JUMP JUMPDEST DUP6 SWAP1 PUSH2 0xFDB JUMP JUMPDEST SWAP2 POP SWAP2 SWAP4 SWAP1 SWAP3 POP JUMP JUMPDEST PUSH1 0x0 PUSH2 0x989 PUSH1 0x3 PUSH1 0x14 PUSH2 0x19E6 JUMP JUMPDEST PUSH1 0x14 PUSH2 0x996 PUSH1 0x3 DUP3 PUSH2 0x19E6 JUMP JUMPDEST PUSH2 0x9A0 SWAP2 SWAP1 PUSH2 0x19E6 JUMP JUMPDEST PUSH2 0x9AA SWAP2 SWAP1 PUSH2 0x19E6 JUMP JUMPDEST DUP3 MLOAD LT ISZERO SWAP1 POP SWAP2 SWAP1 POP JUMP JUMPDEST PUSH1 0x60 PUSH2 0x939 PUSH2 0x9C6 PUSH1 0x3 PUSH1 0x14 PUSH2 0x19E6 JUMP JUMPDEST PUSH2 0x9D2 PUSH1 0x3 PUSH1 0x14 PUSH2 0x19E6 JUMP JUMPDEST DUP5 MLOAD PUSH2 0x9DE SWAP2 SWAP1 PUSH2 0x19F9 JUMP JUMPDEST DUP5 SWAP2 SWAP1 PUSH2 0x109D JUMP JUMPDEST PUSH1 0x0 PUSH2 0x9F3 DUP5 DUP5 DUP5 PUSH2 0x11AA JUMP JUMPDEST SWAP1 POP PUSH1 0x0 DUP3 DUP1 PUSH2 0xA05 JUMPI PUSH2 0xA05 PUSH2 0x1A0C JUMP JUMPDEST DUP5 DUP7 MULMOD GT ISZERO PUSH2 0xA2A JUMPI PUSH1 0x0 NOT DUP2 LT PUSH2 0xA1C JUMPI PUSH1 0x0 DUP1 REVERT JUMPDEST DUP1 PUSH2 0xA26 DUP2 PUSH2 0x16D5 JUMP JUMPDEST SWAP2 POP POP JUMPDEST SWAP4 SWAP3 POP POP POP JUMP JUMPDEST PUSH1 0x0 PUSH2 0xA50 DUP5 PUSH2 0xA40 DUP9 PUSH2 0xA5A JUMP JUMPDEST PUSH2 0xA49 DUP9 PUSH2 0xA5A JUMP JUMPDEST DUP7 DUP7 PUSH2 0x1277 JUMP JUMPDEST SWAP7 SWAP6 POP POP POP POP POP POP JUMP JUMPDEST PUSH1 0x0 DUP1 PUSH1 0x0 DUP4 PUSH1 0x2 SIGNEXTEND SLT PUSH2 0xA71 JUMPI DUP3 PUSH1 0x2 SIGNEXTEND PUSH2 0xA7E JUMP JUMPDEST DUP3 PUSH1 0x2 SIGNEXTEND PUSH2 0xA7E SWAP1 PUSH2 0x19CA JUMP JUMPDEST SWAP1 POP PUSH2 0xA8D PUSH3 0xD89E7 NOT PUSH2 0x1A36 JUMP JUMPDEST PUSH3 0xFFFFFF AND DUP2 GT ISZERO PUSH2 0xAC5 JUMPI PUSH1 0x40 MLOAD PUSH3 0x461BCD PUSH1 0xE5 SHL DUP2 MSTORE PUSH1 0x20 PUSH1 0x4 DUP3 ADD MSTORE PUSH1 0x1 PUSH1 0x24 DUP3 ADD MSTORE PUSH1 0x15 PUSH1 0xFA SHL PUSH1 0x44 DUP3 ADD MSTORE PUSH1 0x64 ADD PUSH2 0x649 JUMP JUMPDEST PUSH1 0x0 DUP2 PUSH1 0x1 AND PUSH1 0x0 SUB PUSH2 0xADC JUMPI PUSH1 0x1 PUSH1 0x80 SHL PUSH2 0xAEE JUMP JUMPDEST PUSH16 0xFFFCB933BD6FAD37AA2D162D1A594001 JUMPDEST PUSH17 0xFFFFFFFFFFFFFFFFFFFFFFFFFFFFFFFFFF AND SWAP1 POP PUSH1 0x2 DUP3 AND ISZERO PUSH2 0xB2D JUMPI PUSH1 0x80 PUSH2 0xB28 DUP3 PUSH16 0xFFF97272373D413259A46990580E213A PUSH2 0x1A58 JUMP JUMPDEST SWAP1 SHR SWAP1 POP JUMPDEST PUSH1 0x4 DUP3 AND ISZERO PUSH2 0xB57 JUMPI PUSH1 0x80 PUSH2 0xB52 DUP3 PUSH16 0xFFF2E50F5F656932EF12357CF3C7FDCC PUSH2 0x1A58 JUMP JUMPDEST SWAP1 SHR SWAP1 POP JUMPDEST PUSH1 0x8 DUP3 AND ISZERO PUSH2 0xB81 JUMPI PUSH1 0x80 PUSH2 0xB7C DUP3 PUSH16 0xFFE5CACA7E10E4E61C3624EAA0941CD0 PUSH2 0x1A58 JUMP JUMPDEST SWAP1 SHR SWAP1 POP JUMPDEST PUSH1 0x10 DUP3 AND ISZERO PUSH2 0xBAB JUMPI PUSH1 0x80 PUSH2 0xBA6 DUP3 PUSH16 0xFFCB9843D60F6159C9DB58835C926644 PUSH2 0x1A58 JUMP JUMPDEST SWAP1 SHR SWAP1 POP JUMPDEST PUSH1 0x20 DUP3 AND ISZERO PUSH2 0xBD5 JUMPI PUSH1 0x80 PUSH2 0xBD0 DUP3 PUSH16 0xFF973B41FA98C081472E6896DFB254C0 PUSH2 0x1A58 JUMP JUMPDEST SWAP1 SHR SWAP1 POP JUMPDEST PUSH1 0x40 DUP3 AND ISZERO PUSH2 0xBFF JUMPI PUSH1 0x80 PUSH2 0xBFA DUP3 PUSH16 0xFF2EA16466C96A3843EC78B326B52861 PUSH2 0x1A58 JUMP JUMPDEST SWAP1 SHR SWAP1 POP JUMPDEST PUSH1 0x80 DUP3 AND ISZERO PUSH2 0xC29 JUMPI PUSH1 0x80 PUSH2 0xC24 DUP3 PUSH16 0xFE5DEE046A99A2A811C461F1969C3053 PUSH2 0x1A58 JUMP JUMPDEST SWAP1 SHR SWAP1 POP JUMPDEST PUSH2 0x100 DUP3 AND ISZERO PUSH2 0xC54 JUMPI PUSH1 0x80 PUSH2 0xC4F DUP3 PUSH16 0xFCBE86C7900A88AEDCFFC83B479AA3A4 PUSH2 0x1A58 JUMP JUMPDEST SWAP1 SHR SWAP1 POP JUMPDEST PUSH2 0x200 DUP3 AND ISZERO PUSH2 0xC7F JUMPI PUSH1 0x80 PUSH2 0xC7A DUP3 PUSH16 0xF987A7253AC413176F2B074CF7815E54 PUSH2 0x1A58 JUMP JUMPDEST SWAP1 SHR SWAP1 POP JUMPDEST PUSH2 0x400 DUP3 AND ISZERO PUSH2 0xCAA JUMPI PUSH1 0x80 PUSH2 0xCA5 DUP3 PUSH16 0xF3392B0822B70005940C7A398E4B70F3 PUSH2 0x1A58 JUMP JUMPDEST SWAP1 SHR SWAP1 POP JUMPDEST PUSH2 0x800 DUP3 AND ISZERO PUSH2 0xCD5 JUMPI PUSH1 0x80 PUSH2 0xCD0 DUP3 PUSH16 0xE7159475A2C29B7443B29C7FA6E889D9 PUSH2 0x1A58 JUMP JUMPDEST SWAP1 SHR SWAP1 POP JUMPDEST PUSH2 0x1000 DUP3 AND ISZERO PUSH2 0xD00 JUMPI PUSH1 0x80 PUSH2 0xCFB DUP3 PUSH16 0xD097F3BDFD2022B8845AD8F792AA5825 PUSH2 0x1A58 JUMP JUMPDEST SWAP1 SHR SWAP1 POP JUMPDEST PUSH2 0x2000 DUP3 AND ISZERO PUSH2 0xD2B JUMPI PUSH1 0x80 PUSH2 0xD26 DUP3 PUSH16 0xA9F746462D870FDF8A65DC1F90E061E5 PUSH2 0x1A58 JUMP JUMPDEST SWAP1 SHR SWAP1 POP JUMPDEST PUSH2 0x4000 DUP3 AND ISZERO PUSH2 0xD56 JUMPI PUSH1 0x80 PUSH2 0xD51 DUP3 PUSH16 0x70D869A156D2A1B890BB3DF62BAF32F7 PUSH2 0x1A58 JUMP JUMPDEST SWAP1 SHR SWAP1 POP JUMPDEST PUSH2 0x8000 DUP3 AND ISZERO PUSH2 0xD81 JUMPI PUSH1 0x80 PUSH2 0xD7C DUP3 PUSH16 0x31BE135F97D08FD981231505542FCFA6 PUSH2 0x1A58 JUMP JUMPDEST SWAP1 SHR SWAP1 POP JUMPDEST PUSH3 0x10000 DUP3 AND ISZERO PUSH2 0xDAD JUMPI PUSH1 0x80 PUSH2 0xDA8 DUP3 PUSH16 0x9AA508B5B7A84E1C677DE54F3E99BC9 PUSH2 0x1A58 JUMP JUMPDEST SWAP1 SHR SWAP1 POP JUMPDEST PUSH3 0x20000 DUP3 AND ISZERO PUSH2 0xDD8 JUMPI PUSH1 0x80 PUSH2 0xDD3 DUP3 PUSH15 0x5D6AF8DEDB81196699C329225EE604 PUSH2 0x1A58 JUMP JUMPDEST SWAP1 SHR SWAP1 POP JUMPDEST PUSH3 0x40000 DUP3 AND ISZERO PUSH2 0xE02 JUMPI PUSH1 0x80 PUSH2 0xDFD DUP3 PUSH14 0x2216E584F5FA1EA926041BEDFE98 PUSH2 0x1A58 JUMP JUMPDEST SWAP1 SHR SWAP1 POP JUMPDEST PUSH3 0x80000 DUP3 AND ISZERO PUSH2 0xE2A JUMPI PUSH1 0x80 PUSH2 0xE25 DUP3 PUSH12 0x48A170391F7DC42444E8FA2 PUSH2 0x1A58 JUMP JUMPDEST SWAP1 SHR SWAP1 POP JUMPDEST PUSH1 0x0 DUP5 PUSH1 0x2 SIGNEXTEND SGT ISZERO PUSH2 0xE45 JUMPI PUSH2 0xE42 DUP2 PUSH1 0x0 NOT PUSH2 0x1A22 JUMP JUMPDEST SWAP1 POP JUMPDEST PUSH2 0xE54 PUSH5 0x100000000 DUP3 PUSH2 0x1A6F JUMP JUMPDEST ISZERO PUSH2 0xE60 JUMPI PUSH1 0x1 PUSH2 0xE63 JUMP JUMPDEST PUSH1 0x0 JUMPDEST PUSH2 0xE74 SWAP1 PUSH1 0xFF AND PUSH1 0x20 DUP4 SWAP1 SHR PUSH2 0x19E6 JUMP JUMPDEST SWAP5 SWAP4 POP POP POP POP JUMP JUMPDEST PUSH1 0x0 DUP4 PUSH1 0x1 PUSH1 0x1 PUSH1 0xA0 SHL SUB AND DUP6 PUSH1 0x1 PUSH1 0x1 PUSH1 0xA0 SHL SUB AND GT ISZERO PUSH2 0xE9C JUMPI SWAP3 SWAP4 SWAP3 JUMPDEST DUP2 ISZERO PUSH2 0xED3 JUMPI PUSH2 0xECC PUSH1 0x1 PUSH1 0x1 PUSH1 0x80 SHL SUB DUP5 AND PUSH2 0xEB9 DUP8 DUP8 PUSH2 0x18A2 JUMP JUMPDEST PUSH1 0x1 PUSH1 0x1 PUSH1 0xA0 SHL SUB AND PUSH1 0x1 PUSH1 0x60 SHL PUSH2 0x9E6 JUMP JUMPDEST SWAP1 POP PUSH2 0xE74 JUMP JUMPDEST PUSH2 0xEFD PUSH1 0x1 PUSH1 0x1 PUSH1 0x80 SHL SUB DUP5 AND PUSH2 0xEEA DUP8 DUP8 PUSH2 0x18A2 JUMP JUMPDEST PUSH1 0x1 PUSH1 0x1 PUSH1 0xA0 SHL SUB AND PUSH1 0x1 PUSH1 0x60 SHL PUSH2 0x11AA JUMP JUMPDEST SWAP6 SWAP5 POP POP POP POP POP JUMP JUMPDEST PUSH1 0x0 DUP4 PUSH1 0x1 PUSH1 0x1 PUSH1 0xA0 SHL SUB AND DUP6 PUSH1 0x1 PUSH1 0x1 PUSH1 0xA0 SHL SUB AND GT ISZERO PUSH2 0xF26 JUMPI SWAP3 SWAP4 SWAP3 JUMPDEST PUSH1 0x0 DUP6 PUSH1 0x1 PUSH1 0x1 PUSH1 0xA0 SHL SUB AND GT PUSH2 0xF3C JUMPI PUSH1 0x0 DUP1 REVERT JUMPDEST PUSH16 0xFFFFFFFFFFFFFFFFFFFFFFFFFFFFFFFF PUSH1 0x60 SHL PUSH1 0x60 DUP5 SWAP1 SHL AND PUSH1 0x0 PUSH2 0xF62 DUP8 DUP8 PUSH2 0x18A2 JUMP JUMPDEST PUSH1 0x1 PUSH1 0x1 PUSH1 0xA0 SHL SUB AND SWAP1 POP DUP4 ISZERO PUSH2 0xFA6 JUMPI PUSH2 0xF9F PUSH2 0xF8A DUP4 DUP4 DUP10 PUSH1 0x1 PUSH1 0x1 PUSH1 0xA0 SHL SUB AND PUSH2 0x9E6 JUMP JUMPDEST DUP9 PUSH1 0x1 PUSH1 0x1 PUSH1 0xA0 SHL SUB AND DUP1 DUP3 DIV SWAP2 MOD ISZERO ISZERO ADD SWAP1 JUMP JUMPDEST SWAP3 POP PUSH2 0xFD1 JUMP JUMPDEST DUP7 PUSH1 0x1 PUSH1 0x1 PUSH1 0xA0 SHL SUB AND PUSH2 0xFC4 DUP4 DUP4 DUP10 PUSH1 0x1 PUSH1 0x1 PUSH1 0xA0 SHL SUB AND PUSH2 0x11AA JUMP JUMPDEST PUSH2 0xFCE SWAP2 SWAP1 PUSH2 0x1A22 JUMP JUMPDEST SWAP3 POP JUMPDEST POP POP SWAP5 SWAP4 POP POP POP POP JUMP JUMPDEST PUSH1 0x0 PUSH2 0xFE8 DUP3 PUSH1 0x14 PUSH2 0x19E6 JUMP JUMPDEST DUP4 MLOAD LT ISZERO PUSH2 0x1030 JUMPI PUSH1 0x40 MLOAD PUSH3 0x461BCD PUSH1 0xE5 SHL DUP2 MSTORE PUSH1 0x20 PUSH1 0x4 DUP3 ADD MSTORE PUSH1 0x15 PUSH1 0x24 DUP3 ADD MSTORE PUSH21 0x746F416464726573735F6F75744F66426F756E6473 PUSH1 0x58 SHL PUSH1 0x44 DUP3 ADD MSTORE PUSH1 0x64 ADD PUSH2 0x649 JUMP JUMPDEST POP ADD PUSH1 0x20 ADD MLOAD PUSH1 0x1 PUSH1 0x60 SHL SWAP1 DIV SWAP1 JUMP JUMPDEST PUSH1 0x0 PUSH2 0x104D DUP3 PUSH1 0x3 PUSH2 0x19E6 JUMP JUMPDEST DUP4 MLOAD LT ISZERO PUSH2 0x1094 JUMPI PUSH1 0x40 MLOAD PUSH3 0x461BCD PUSH1 0xE5 SHL DUP2 MSTORE PUSH1 0x20 PUSH1 0x4 DUP3 ADD MSTORE PUSH1 0x14 PUSH1 0x24 DUP3 ADD MSTORE PUSH20 0x746F55696E7432345F6F75744F66426F756E6473 PUSH1 0x60 SHL PUSH1 0x44 DUP3 ADD MSTORE PUSH1 0x64 ADD PUSH2 0x649 JUMP JUMPDEST POP ADD PUSH1 0x3 ADD MLOAD SWAP1 JUMP JUMPDEST PUSH1 0x60 DUP2 PUSH2 0x10AB DUP2 PUSH1 0x1F PUSH2 0x19E6 JUMP JUMPDEST LT ISZERO PUSH2 0x10EA JUMPI PUSH1 0x40 MLOAD PUSH3 0x461BCD PUSH1 0xE5 SHL DUP2 MSTORE PUSH1 0x20 PUSH1 0x4 DUP3 ADD MSTORE PUSH1 0xE PUSH1 0x24 DUP3 ADD MSTORE PUSH14 0x736C6963655F6F766572666C6F77 PUSH1 0x90 SHL PUSH1 0x44 DUP3 ADD MSTORE PUSH1 0x64 ADD PUSH2 0x649 JUMP JUMPDEST PUSH2 0x10F4 DUP3 DUP5 PUSH2 0x19E6 JUMP JUMPDEST DUP5 MLOAD LT ISZERO PUSH2 0x1138 JUMPI PUSH1 0x40 MLOAD PUSH3 0x461BCD PUSH1 0xE5 SHL DUP2 MSTORE PUSH1 0x20 PUSH1 0x4 DUP3 ADD MSTORE PUSH1 0x11 PUSH1 0x24 DUP3 ADD MSTORE PUSH17 0x736C6963655F6F75744F66426F756E6473 PUSH1 0x78 SHL PUSH1 0x44 DUP3 ADD MSTORE PUSH1 0x64 ADD PUSH2 0x649 JUMP JUMPDEST PUSH1 0x60 DUP3 ISZERO DUP1 ISZERO PUSH2 0x1157 JUMPI PUSH1 0x40 MLOAD SWAP2 POP PUSH1 0x0 DUP3 MSTORE PUSH1 0x20 DUP3 ADD PUSH1 0x40 MSTORE PUSH2 0x11A1 JUMP JUMPDEST PUSH1 0x40 MLOAD SWAP2 POP PUSH1 0x1F DUP5 AND DUP1 ISZERO PUSH1 0x20 MUL DUP2 DUP5 ADD ADD DUP6 DUP2 ADD DUP8 DUP4 ISZERO PUSH1 0x20 MUL DUP5 DUP12 ADD ADD ADD JUMPDEST DUP2 DUP4 LT ISZERO PUSH2 0x1190 JUMPI DUP1 MLOAD DUP4 MSTORE PUSH1 0x20 SWAP3 DUP4 ADD SWAP3 ADD PUSH2 0x1178 JUMP JUMPDEST POP POP DUP6 DUP5 MSTORE PUSH1 0x1F ADD PUSH1 0x1F NOT AND PUSH1 0x40 MSTORE POP JUMPDEST POP SWAP5 SWAP4 POP POP POP POP JUMP JUMPDEST PUSH1 0x0 DUP1 DUP1 PUSH1 0x0 NOT DUP6 DUP8 MULMOD DUP6 DUP8 MUL SWAP3 POP DUP3 DUP2 LT DUP4 DUP3 SUB SUB SWAP2 POP POP DUP1 PUSH1 0x0 SUB PUSH2 0x11E4 JUMPI DUP4 DUP3 DUP2 PUSH2 0x11DA JUMPI PUSH2 0x11DA PUSH2 0x1A0C JUMP JUMPDEST DIV SWAP3 POP POP POP PUSH2 0xA2A JUMP JUMPDEST DUP4 DUP2 LT PUSH2 0x120E JUMPI PUSH1 0x40 MLOAD PUSH4 0x1DCF3063 PUSH1 0xE2 SHL DUP2 MSTORE PUSH1 0x4 DUP2 ADD DUP3 SWAP1 MSTORE PUSH1 0x24 DUP2 ADD DUP6 SWAP1 MSTORE PUSH1 0x44 ADD PUSH2 0x649 JUMP JUMPDEST PUSH1 0x0 DUP5 DUP7 DUP9 MULMOD PUSH1 0x2 PUSH1 0x1 DUP8 NOT DUP2 ADD DUP9 AND SWAP8 DUP9 SWAP1 DIV PUSH1 0x3 DUP2 MUL DUP4 XOR DUP1 DUP3 MUL DUP5 SUB MUL DUP1 DUP3 MUL DUP5 SUB MUL DUP1 DUP3 MUL DUP5 SUB MUL DUP1 DUP3 MUL DUP5 SUB MUL DUP1 DUP3 MUL DUP5 SUB MUL SWAP1 DUP2 MUL SWAP1 SWAP3 SUB SWAP1 SWAP2 MUL PUSH1 0x0 DUP9 SWAP1 SUB DUP9 SWAP1 DIV SWAP1 SWAP2 ADD DUP6 DUP4 GT SWAP1 SWAP5 SUB SWAP4 SWAP1 SWAP4 MUL SWAP4 SUB SWAP5 SWAP1 SWAP5 DIV SWAP2 SWAP1 SWAP2 OR MUL SWAP5 SWAP4 POP POP POP POP JUMP JUMPDEST PUSH1 0x0 DUP4 PUSH1 0x1 PUSH1 0x1 PUSH1 0xA0 SHL SUB AND DUP6 PUSH1 0x1 PUSH1 0x1 PUSH1 0xA0 SHL SUB AND GT ISZERO PUSH2 0x1297 JUMPI SWAP3 SWAP4 SWAP3 JUMPDEST DUP5 PUSH1 0x1 PUSH1 0x1 PUSH1 0xA0 SHL SUB AND DUP7 PUSH1 0x1 PUSH1 0x1 PUSH1 0xA0 SHL SUB AND GT PUSH2 0x12C2 JUMPI PUSH2 0x12BB DUP6 DUP6 DUP6 PUSH2 0x132E JUMP JUMPDEST SWAP1 POP PUSH2 0xEFD JUMP JUMPDEST DUP4 PUSH1 0x1 PUSH1 0x1 PUSH1 0xA0 SHL SUB AND DUP7 PUSH1 0x1 PUSH1 0x1 PUSH1 0xA0 SHL SUB AND GT PUSH2 0x1323 JUMPI PUSH1 0x0 PUSH2 0x12E8 DUP8 DUP7 DUP7 PUSH2 0x132E JUMP JUMPDEST SWAP1 POP PUSH1 0x0 PUSH2 0x12F7 DUP8 DUP10 DUP7 PUSH2 0x1390 JUMP JUMPDEST SWAP1 POP DUP1 PUSH1 0x1 PUSH1 0x1 PUSH1 0x80 SHL SUB AND DUP3 PUSH1 0x1 PUSH1 0x1 PUSH1 0x80 SHL SUB AND LT PUSH2 0x1318 JUMPI DUP1 PUSH2 0x131A JUMP JUMPDEST DUP2 JUMPDEST SWAP3 POP POP POP PUSH2 0xEFD JUMP JUMPDEST PUSH2 0xA50 DUP6 DUP6 DUP5 PUSH2 0x1390 JUMP JUMPDEST PUSH1 0x0 DUP3 PUSH1 0x1 PUSH1 0x1 PUSH1 0xA0 SHL SUB AND DUP5 PUSH1 0x1 PUSH1 0x1 PUSH1 0xA0 SHL SUB AND GT ISZERO PUSH2 0x134E JUMPI SWAP2 SWAP3 SWAP2 JUMPDEST PUSH1 0x0 PUSH2 0x1371 DUP6 PUSH1 0x1 PUSH1 0x1 PUSH1 0xA0 SHL SUB AND DUP6 PUSH1 0x1 PUSH1 0x1 PUSH1 0xA0 SHL SUB AND PUSH1 0x1 PUSH1 0x60 SHL PUSH2 0x11AA JUMP JUMPDEST SWAP1 POP PUSH2 0xA26 DUP4 DUP3 PUSH2 0x1382 DUP9 DUP9 PUSH2 0x18A2 JUMP JUMPDEST PUSH1 0x1 PUSH1 0x1 PUSH1 0xA0 SHL SUB AND PUSH2 0x11AA JUMP JUMPDEST PUSH1 0x0 DUP3 PUSH1 0x1 PUSH1 0x1 PUSH1 0xA0 SHL SUB AND DUP5 PUSH1 0x1 PUSH1 0x1 PUSH1 0xA0 SHL SUB AND GT ISZERO PUSH2 0x13B0 JUMPI SWAP2 SWAP3 SWAP2 JUMPDEST PUSH2 0xE74 DUP3 PUSH1 0x1 PUSH1 0x60 SHL PUSH2 0x1382 DUP8 DUP8 PUSH2 0x18A2 JUMP JUMPDEST PUSH4 0x4E487B71 PUSH1 0xE0 SHL PUSH1 0x0 MSTORE PUSH1 0x41 PUSH1 0x4 MSTORE PUSH1 0x24 PUSH1 0x0 REVERT JUMPDEST PUSH1 0x0 DUP3 PUSH1 0x1F DUP4 ADD SLT PUSH2 0x13EA JUMPI PUSH1 0x0 DUP1 REVERT JUMPDEST DUP2 CALLDATALOAD PUSH8 0xFFFFFFFFFFFFFFFF DUP1 DUP3 GT ISZERO PUSH2 0x1405 JUMPI PUSH2 0x1405 PUSH2 0x13C3 JUMP JUMPDEST PUSH1 0x40 MLOAD PUSH1 0x1F DUP4 ADD PUSH1 0x1F NOT SWAP1 DUP2 AND PUSH1 0x3F ADD AND DUP2 ADD SWAP1 DUP3 DUP3 GT DUP2 DUP4 LT OR ISZERO PUSH2 0x142D JUMPI PUSH2 0x142D PUSH2 0x13C3 JUMP JUMPDEST DUP2 PUSH1 0x40 MSTORE DUP4 DUP2 MSTORE DUP7 PUSH1 0x20 DUP6 DUP9 ADD ADD GT ISZERO PUSH2 0x1446 JUMPI PUSH1 0x0 DUP1 REVERT JUMPDEST DUP4 PUSH1 0x20 DUP8 ADD PUSH1 0x20 DUP4 ADD CALLDATACOPY PUSH1 0x0 PUSH1 0x20 DUP6 DUP4 ADD ADD MSTORE DUP1 SWAP5 POP POP POP POP POP SWAP3 SWAP2 POP POP JUMP JUMPDEST PUSH1 0x0 DUP1 PUSH1 0x40 DUP4 DUP6 SUB SLT ISZERO PUSH2 0x1479 JUMPI PUSH1 0x0 DUP1 REVERT JUMPDEST DUP3 CALLDATALOAD PUSH8 0xFFFFFFFFFFFFFFFF DUP2 GT ISZERO PUSH2 0x1490 JUMPI PUSH1 0x0 DUP1 REVERT JUMPDEST PUSH2 0x149C DUP6 DUP3 DUP7 ADD PUSH2 0x13D9 JUMP JUMPDEST SWAP6 PUSH1 0x20 SWAP5 SWAP1 SWAP5 ADD CALLDATALOAD SWAP5 POP POP POP POP JUMP JUMPDEST PUSH1 0x0 PUSH1 0x60 DUP3 ADD DUP6 DUP4 MSTORE PUSH1 0x20 PUSH1 0x60 DUP2 DUP6 ADD MSTORE DUP2 DUP7 MLOAD DUP1 DUP5 MSTORE PUSH1 0x80 DUP7 ADD SWAP2 POP DUP3 DUP9 ADD SWAP4 POP PUSH1 0x0 JUMPDEST DUP2 DUP2 LT ISZERO PUSH2 0x14F5 JUMPI DUP5 MLOAD PUSH1 0x1 PUSH1 0x1 PUSH1 0xA0 SHL SUB AND DUP4 MSTORE SWAP4 DUP4 ADD SWAP4 SWAP2 DUP4 ADD SWAP2 PUSH1 0x1 ADD PUSH2 0x14D0 JUMP JUMPDEST POP POP DUP5 DUP2 SUB PUSH1 0x40 DUP7 ADD MSTORE DUP6 MLOAD DUP1 DUP3 MSTORE SWAP1 DUP3 ADD SWAP3 POP DUP2 DUP7 ADD SWAP1 PUSH1 0x0 JUMPDEST DUP2 DUP2 LT ISZERO PUSH2 0x152F JUMPI DUP3 MLOAD PUSH1 0x2 SIGNEXTEND DUP6 MSTORE SWAP4 DUP4 ADD SWAP4 SWAP2 DUP4 ADD SWAP2 PUSH1 0x1 ADD PUSH2 0x1510 JUMP JUMPDEST POP SWAP3 SWAP9 SWAP8 POP POP POP POP POP POP POP POP JUMP JUMPDEST PUSH1 0x1 PUSH1 0x1 PUSH1 0xA0 SHL SUB DUP2 AND DUP2 EQ PUSH2 0x1552 JUMPI PUSH1 0x0 DUP1 REVERT JUMPDEST POP JUMP JUMPDEST DUP1 CALLDATALOAD PUSH3 0xFFFFFF DUP2 AND DUP2 EQ PUSH2 0x1568 JUMPI PUSH1 0x0 DUP1 REVERT JUMPDEST SWAP2 SWAP1 POP JUMP JUMPDEST DUP1 PUSH1 0x2 SIGNEXTEND DUP2 EQ PUSH2 0x1552 JUMPI PUSH1 0x0 DUP1 REVERT JUMPDEST PUSH1 0x0 DUP1 PUSH1 0x0 DUP1 PUSH1 0x0 DUP1 PUSH1 0xC0 DUP8 DUP10 SUB SLT ISZERO PUSH2 0x1595 JUMPI PUSH1 0x0 DUP1 REVERT JUMPDEST DUP7 CALLDATALOAD PUSH2 0x15A0 DUP2 PUSH2 0x153D JUMP JUMPDEST SWAP6 POP PUSH1 0x20 DUP8 ADD CALLDATALOAD PUSH2 0x15B0 DUP2 PUSH2 0x153D JUMP JUMPDEST SWAP5 POP PUSH2 0x15BE PUSH1 0x40 DUP9 ADD PUSH2 0x1555 JUMP JUMPDEST SWAP4 POP PUSH1 0x60 DUP8 ADD CALLDATALOAD PUSH2 0x15CE DUP2 PUSH2 0x156D JUMP JUMPDEST SWAP3 POP PUSH1 0x80 DUP8 ADD CALLDATALOAD PUSH2 0x15DE DUP2 PUSH2 0x156D JUMP JUMPDEST DUP1 SWAP3 POP POP PUSH1 0xA0 DUP8 ADD CALLDATALOAD SWAP1 POP SWAP3 SWAP6 POP SWAP3 SWAP6 POP SWAP3 SWAP6 JUMP JUMPDEST PUSH1 0x0 DUP1 PUSH1 0x0 DUP1 PUSH1 0x0 PUSH1 0xA0 DUP7 DUP9 SUB SLT ISZERO PUSH2 0x160B JUMPI PUSH1 0x0 DUP1 REVERT JUMPDEST DUP6 CALLDATALOAD PUSH2 0x1616 DUP2 PUSH2 0x153D JUMP JUMPDEST SWAP5 POP PUSH1 0x20 DUP7 ADD CALLDATALOAD PUSH2 0x1626 DUP2 PUSH2 0x153D JUMP JUMPDEST SWAP4 POP PUSH2 0x1634 PUSH1 0x40 DUP8 ADD PUSH2 0x1555 JUMP JUMPDEST SWAP3 POP PUSH1 0x60 DUP7 ADD CALLDATALOAD SWAP2 POP PUSH1 0x80 DUP7 ADD CALLDATALOAD PUSH2 0x164B DUP2 PUSH2 0x153D JUMP JUMPDEST DUP1 SWAP2 POP POP SWAP3 SWAP6 POP SWAP3 SWAP6 SWAP1 SWAP4 POP JUMP JUMPDEST PUSH1 0x0 DUP1 PUSH1 0x0 PUSH1 0x60 DUP5 DUP7 SUB SLT ISZERO PUSH2 0x166E JUMPI PUSH1 0x0 DUP1 REVERT JUMPDEST DUP4 CALLDATALOAD SWAP3 POP PUSH1 0x20 DUP5 ADD CALLDATALOAD SWAP2 POP PUSH1 0x40 DUP5 ADD CALLDATALOAD PUSH8 0xFFFFFFFFFFFFFFFF DUP2 GT ISZERO PUSH2 0x1693 JUMPI PUSH1 0x0 DUP1 REVERT JUMPDEST PUSH2 0x169F DUP7 DUP3 DUP8 ADD PUSH2 0x13D9 JUMP JUMPDEST SWAP2 POP POP SWAP3 POP SWAP3 POP SWAP3 JUMP JUMPDEST PUSH4 0x4E487B71 PUSH1 0xE0 SHL PUSH1 0x0 MSTORE PUSH1 0x32 PUSH1 0x4 MSTORE PUSH1 0x24 PUSH1 0x0 REVERT JUMPDEST PUSH4 0x4E487B71 PUSH1 0xE0 SHL PUSH1 0x0 MSTORE PUSH1 0x11 PUSH1 0x4 MSTORE PUSH1 0x24 PUSH1 0x0 REVERT JUMPDEST PUSH1 0x0 PUSH1 0x1 DUP3 ADD PUSH2 0x16E7 JUMPI PUSH2 0x16E7 PUSH2 0x16BF JUMP JUMPDEST POP PUSH1 0x1 ADD SWAP1 JUMP JUMPDEST PUSH1 0x1 PUSH1 0x1 PUSH1 0xA0 SHL SUB SWAP4 DUP5 AND DUP2 MSTORE SWAP2 SWAP1 SWAP3 AND PUSH1 0x20 DUP3 ADD MSTORE PUSH3 0xFFFFFF SWAP1 SWAP2 AND PUSH1 0x40 DUP3 ADD MSTORE PUSH1 0x60 ADD SWAP1 JUMP JUMPDEST PUSH1 0x0 PUSH1 0x20 DUP3 DUP5 SUB SLT ISZERO PUSH2 0x1728 JUMPI PUSH1 0x0 DUP1 REVERT JUMPDEST DUP2 MLOAD PUSH2 0xA2A DUP2 PUSH2 0x153D JUMP JUMPDEST DUP1 MLOAD PUSH2 0xFFFF DUP2 AND DUP2 EQ PUSH2 0x1568 JUMPI PUSH1 0x0 DUP1 REVERT JUMPDEST PUSH1 0x0 DUP1 PUSH1 0x0 DUP1 PUSH1 0x0 PUSH1 0xA0 DUP7 DUP9 SUB SLT ISZERO PUSH2 0x175D JUMPI PUSH1 0x0 DUP1 REVERT JUMPDEST DUP6 MLOAD PUSH2 0x1768 DUP2 PUSH2 0x153D JUMP JUMPDEST PUSH1 0x20 DUP8 ADD MLOAD SWAP1 SWAP6 POP PUSH2 0x1779 DUP2 PUSH2 0x156D JUMP JUMPDEST SWAP4 POP PUSH2 0x1787 PUSH1 0x40 DUP8 ADD PUSH2 0x1733 JUMP JUMPDEST SWAP3 POP PUSH2 0x1795 PUSH1 0x60 DUP8 ADD PUSH2 0x1733 JUMP JUMPDEST SWAP2 POP PUSH2 0x17A3 PUSH1 0x80 DUP8 ADD PUSH2 0x1733 JUMP JUMPDEST SWAP1 POP SWAP3 SWAP6 POP SWAP3 SWAP6 SWAP1 SWAP4 POP JUMP JUMPDEST PUSH1 0x1 DUP2 DUP2 JUMPDEST DUP1 DUP6 GT ISZERO PUSH2 0x17EA JUMPI DUP2 PUSH1 0x0 NOT DIV DUP3 GT ISZERO PUSH2 0x17D0 JUMPI PUSH2 0x17D0 PUSH2 0x16BF JUMP JUMPDEST DUP1 DUP6 AND ISZERO PUSH2 0x17DD JUMPI SWAP2 DUP2 MUL SWAP2 JUMPDEST SWAP4 DUP5 SHR SWAP4 SWAP1 DUP1 MUL SWAP1 PUSH2 0x17B4 JUMP JUMPDEST POP SWAP3 POP SWAP3 SWAP1 POP JUMP JUMPDEST PUSH1 0x0 DUP3 PUSH2 0x1801 JUMPI POP PUSH1 0x1 PUSH2 0x939 JUMP JUMPDEST DUP2 PUSH2 0x180E JUMPI POP PUSH1 0x0 PUSH2 0x939 JUMP JUMPDEST DUP2 PUSH1 0x1 DUP2 EQ PUSH2 0x1824 JUMPI PUSH1 0x2 DUP2 EQ PUSH2 0x182E JUMPI PUSH2 0x184A JUMP JUMPDEST PUSH1 0x1 SWAP2 POP POP PUSH2 0x939 JUMP JUMPDEST PUSH1 0xFF DUP5 GT ISZERO PUSH2 0x183F JUMPI PUSH2 0x183F PUSH2 0x16BF JUMP JUMPDEST POP POP PUSH1 0x1 DUP3 SHL PUSH2 0x939 JUMP JUMPDEST POP PUSH1 0x20 DUP4 LT PUSH2 0x133 DUP4 LT AND PUSH1 0x4E DUP5 LT PUSH1 0xB DUP5 LT AND OR ISZERO PUSH2 0x186D JUMPI POP DUP2 DUP2 EXP PUSH2 0x939 JUMP JUMPDEST PUSH2 0x1877 DUP4 DUP4 PUSH2 0x17AF JUMP JUMPDEST DUP1 PUSH1 0x0 NOT DIV DUP3 GT ISZERO PUSH2 0x188B JUMPI PUSH2 0x188B PUSH2 0x16BF JUMP JUMPDEST MUL SWAP4 SWAP3 POP POP POP JUMP JUMPDEST PUSH1 0x0 PUSH2 0xA2A PUSH1 0xFF DUP5 AND DUP4 PUSH2 0x17F2 JUMP JUMPDEST PUSH1 0x1 PUSH1 0x1 PUSH1 0xA0 SHL SUB DUP3 DUP2 AND DUP3 DUP3 AND SUB SWAP1 DUP1 DUP3 GT ISZERO PUSH2 0x18C2 JUMPI PUSH2 0x18C2 PUSH2 0x16BF JUMP JUMPDEST POP SWAP3 SWAP2 POP POP JUMP JUMPDEST PUSH1 0x1 PUSH1 0x1 PUSH1 0xA0 SHL SUB DUP2 DUP2 AND DUP4 DUP3 AND ADD SWAP1 DUP1 DUP3 GT ISZERO PUSH2 0x18C2 JUMPI PUSH2 0x18C2 PUSH2 0x16BF JUMP JUMPDEST PUSH1 0x0 PUSH1 0x1 DUP1 PUSH1 0xA0 SHL SUB DUP1 DUP9 AND DUP4 MSTORE PUSH1 0x20 DUP8 ISZERO ISZERO DUP2 DUP6 ADD MSTORE DUP7 PUSH1 0x40 DUP6 ADD MSTORE DUP2 DUP7 AND PUSH1 0x60 DUP6 ADD MSTORE PUSH1 0xA0 PUSH1 0x80 DUP6 ADD MSTORE DUP5 MLOAD SWAP2 POP DUP2 PUSH1 0xA0 DUP6 ADD MSTORE PUSH1 0x0 JUMPDEST DUP3 DUP2 LT ISZERO PUSH2 0x193E JUMPI DUP6 DUP2 ADD DUP3 ADD MLOAD DUP6 DUP3 ADD PUSH1 0xC0 ADD MSTORE DUP2 ADD PUSH2 0x1922 JUMP JUMPDEST POP POP PUSH1 0x0 PUSH1 0xC0 DUP3 DUP6 ADD ADD MSTORE PUSH1 0xC0 PUSH1 0x1F NOT PUSH1 0x1F DUP4 ADD AND DUP5 ADD ADD SWAP2 POP POP SWAP7 SWAP6 POP POP POP POP POP POP JUMP JUMPDEST PUSH1 0x0 DUP1 PUSH1 0x40 DUP4 DUP6 SUB SLT ISZERO PUSH2 0x1976 JUMPI PUSH1 0x0 DUP1 REVERT JUMPDEST POP POP DUP1 MLOAD PUSH1 0x20 SWAP1 SWAP2 ADD MLOAD SWAP1 SWAP3 SWAP1 SWAP2 POP JUMP JUMPDEST PUSH1 0x0 DUP1 PUSH1 0x0 PUSH1 0x60 DUP5 DUP7 SUB SLT ISZERO PUSH2 0x199C JUMPI PUSH1 0x0 DUP1 REVERT JUMPDEST DUP4 MLOAD SWAP3 POP PUSH1 0x20 DUP5 ADD MLOAD PUSH2 0x19AE DUP2 PUSH2 0x153D JUMP JUMPDEST PUSH1 0x40 DUP6 ADD MLOAD SWAP1 SWAP3 POP PUSH2 0x19BF DUP2 PUSH2 0x156D JUMP JUMPDEST DUP1 SWAP2 POP POP SWAP3 POP SWAP3 POP SWAP3 JUMP JUMPDEST PUSH1 0x0 PUSH1 0x1 PUSH1 0xFF SHL DUP3 ADD PUSH2 0x19DF JUMPI PUSH2 0x19DF PUSH2 0x16BF JUMP JUMPDEST POP PUSH1 0x0 SUB SWAP1 JUMP JUMPDEST DUP1 DUP3 ADD DUP1 DUP3 GT ISZERO PUSH2 0x939 JUMPI PUSH2 0x939 PUSH2 0x16BF JUMP JUMPDEST DUP2 DUP2 SUB DUP2 DUP2 GT ISZERO PUSH2 0x939 JUMPI PUSH2 0x939 PUSH2 0x16BF JUMP JUMPDEST PUSH4 0x4E487B71 PUSH1 0xE0 SHL PUSH1 0x0 MSTORE PUSH1 0x12 PUSH1 0x4 MSTORE PUSH1 0x24 PUSH1 0x0 REVERT JUMPDEST PUSH1 0x0 DUP3 PUSH2 0x1A31 JUMPI PUSH2 0x1A31 PUSH2 0x1A0C JUMP JUMPDEST POP DIV SWAP1 JUMP JUMPDEST PUSH1 0x0 DUP2 PUSH1 0x2 SIGNEXTEND PUSH3 0x7FFFFF NOT DUP2 SUB PUSH2 0x1A4F JUMPI PUSH2 0x1A4F PUSH2 0x16BF JUMP JUMPDEST PUSH1 0x0 SUB SWAP3 SWAP2 POP POP JUMP JUMPDEST DUP1 DUP3 MUL DUP2 ISZERO DUP3 DUP3 DIV DUP5 EQ OR PUSH2 0x939 JUMPI PUSH2 0x939 PUSH2 0x16BF JUMP JUMPDEST PUSH1 0x0 DUP3 PUSH2 0x1A7E JUMPI PUSH2 0x1A7E PUSH2 0x1A0C JUMP JUMPDEST POP MOD SWAP1 JUMP INVALID LOG2 PUSH5 0x6970667358 0x22 SLT KECCAK256 PUSH0 0xC9 XOR 0xE8 0x22 SSTORE PUSH17 0x4DF60D0B65A0F58A8110A94D1CFC098FF8 0xD 0xD1 0x5D 0xA5 PUSH32 0x406FB064736F6C63430008140033000000000000000000000000000000000000 ",
    "sha1": "2cf8fe5d46c86bcff92ff8e6f853d114edd59026",
    "source": "// SPDX-License-Identifier: BUSL-1.1\npragma solidity ^0.8.14;\n\nimport \"./HelpFunctions.sol\";\nimport \"./PoolFactory.sol\";\n\nimport \"../interface_contracts/IUniswapV3Pool.sol\";\n\nimport \"./lib/Math.sol\";\nimport \"./lib/Path.sol\";\nimport \"./lib/PoolAddress.sol\";\nimport \"./lib/TickMath.sol\";\nimport \"./lib/LiquidityMath.sol\";\n\ncontract Quoter {\n    using Path for bytes;\n\n    address public immutable factory;\n    PoolFactory poolfactory;\n\n    constructor(address factory_) {\n        factory = factory_;\n        poolfactory = PoolFactory(factory);\n    }\n\n    /*\n    External\n     */\n    function uniswapV3SwapCallback(\n        int256 amount0Delta,\n        int256 amount1Delta,\n        bytes memory data\n    ) external view {\n        address pool = abi.decode(data, (address));\n        uint256 amountOut = amount0Delta > 0\n            ? uint256(-amount1Delta)\n            : uint256(-amount0Delta);\n        (uint160 sqrtPriceX96After, int24 tickAfter, , , ) = IUniswapV3Pool(\n            pool\n        ).slot0();\n        assembly {\n            let ptr := mload(0x40)\n            mstore(ptr, amountOut)\n            mstore(add(ptr, 0x20), sqrtPriceX96After)\n            mstore(add(ptr, 0x40), tickAfter)\n            revert(ptr, 96)\n        }\n    }\n\n    /*\n    Public\n     */\n    function quoteMulti(\n        bytes memory path,\n        uint256 amountIn\n    )\n        public\n        returns (\n            uint256 amountOut,\n            uint160[] memory sqrtPriceX96AfterList,\n            int24[] memory tickAfterList\n        )\n    {\n        sqrtPriceX96AfterList = new uint160[](path.numPools());\n        tickAfterList = new int24[](path.numPools());\n\n        uint256 i = 0;\n        while (true) {\n            (address tokenIn, address tokenOut, uint24 fee) = path\n                .decodeFirstPool();\n\n            (\n                uint256 amountOut_,\n                uint160 sqrtPriceX96After,\n                int24 tickAfter\n            ) = quoteSingle(tokenIn, tokenOut, fee,  amountIn, 0\n                );\n\n            sqrtPriceX96AfterList[i] = sqrtPriceX96After;\n            tickAfterList[i] = tickAfter;\n            amountIn = amountOut_;\n            i++;\n\n            if (path.hasMultiplePools()) {\n                path = path.skipToken();\n            } else {\n                amountOut = amountIn;\n                break;\n            }\n        }\n    }\n\n    function quoteSingle(\n        address tokenIn,\n        address tokenOut,\n        uint24 fee,\n        uint256 amountIn,\n        uint160 sqrtPriceLimitX96\n    )\n        public\n        returns (uint256 amountOut, uint160 sqrtPriceX96After, int24 tickAfter)\n    {\n        IUniswapV3Pool pool = IUniswapV3Pool(poolfactory.pools(\n            tokenIn,\n            tokenOut,\n            fee\n        )); \n \n        bool zeroForOne = tokenIn < tokenOut;\n\n        try\n            pool.swap(\n                address(this),\n                zeroForOne,\n                amountIn,\n                sqrtPriceLimitX96 == 0\n                    ? (\n                        zeroForOne\n                            ? TickMath.MIN_SQRT_RATIO + 1\n                            : TickMath.MAX_SQRT_RATIO - 1\n                    )\n                    : sqrtPriceLimitX96,\n                abi.encode(address(pool))\n            )\n        {} catch (bytes memory reason) {\n            bytes32 hashedRes = keccak256(reason);\n            if (keccak256(abi.encodeWithSignature(\"InvalidPriceLimit()\")) == hashedRes) {\n                revert('InvalidPriceLimit');\n            }else if (keccak256(abi.encodeWithSignature(\"NotEnoughLiquidity()\")) == hashedRes){\n                revert('NotEnoughLiquidity');\n            }\n            return abi.decode(reason, (uint256, uint160, int24));\n        } \n    }\n\n    /*\n    Public - View\n     */\n    function quoteLiqInputToken0(\n                address tokenIn,\n        address tokenOut,\n        uint24 fee,\n        int24 lowerTick,\n        int24 upperTick,\n        uint256 amountInDesired\n    ) public view returns (uint256 amount1) {\n        IUniswapV3Pool pool = IUniswapV3Pool(poolfactory.pools(\n            tokenIn,\n            tokenOut,\n            fee\n        )); \n        (uint160 sqrtPriceX96, int24 tick, , , ) = pool.slot0();\n\n        if (tick < upperTick && tick > lowerTick) {\n            amount1 = Math.mulDivRoundingUp(\n                uint256(sqrtPriceX96),\n                uint256(amountInDesired),\n                uint256(2 ** 96)\n            );\n\n            uint128 liquidity = _getLiquidity(\n                lowerTick,\n                upperTick,\n                sqrtPriceX96,\n                amountInDesired,\n                amount1 ** 2\n            );\n\n            amount1 = Math.calcAmount1Delta(\n                TickMath.getSqrtRatioAtTick(lowerTick),\n                sqrtPriceX96,\n                liquidity,\n                false\n            );\n        }\n    }\n\n    function quoteLiqInputToken1(\n                address tokenIn,\n        address tokenOut,\n        uint24 fee,\n        int24 lowerTick,\n        int24 upperTick,\n        uint256 amountInDesired\n    ) public view returns (uint256 amount0) {\n        IUniswapV3Pool pool = IUniswapV3Pool(poolfactory.pools(\n            tokenIn,\n            tokenOut,\n            fee\n        )); \n\n        (uint160 sqrtPriceX96, int24 tick, , , ) = pool.slot0();\n\n        if (tick < upperTick && tick > lowerTick) {\n            amount0 = Math.divRoundingUp(\n                amountInDesired,\n                Math.divRoundingUp(uint256(sqrtPriceX96), uint256(2 ** 96))\n            );\n\n            uint128 liquidity = _getLiquidity(\n                lowerTick,\n                upperTick,\n                sqrtPriceX96,\n                amount0 ** 2,\n                amountInDesired\n            );\n\n            amount0 = Math.calcAmount0Delta(\n                sqrtPriceX96,\n                TickMath.getSqrtRatioAtTick(upperTick),\n                liquidity,\n                false\n            );\n        }\n    }\n\n    /*\n    Internal - Pure\n     */\n    function _getLiquidity(\n        int24 lowerTick,\n        int24 upperTick,\n        uint160 sqrtPriceX96,\n        uint256 amountInDesired,\n        uint256 amountOutDesired\n    ) internal pure returns (uint128 liquidity) {\n        liquidity = LiquidityMath.getLiquidityForAmounts(\n            sqrtPriceX96,\n            TickMath.getSqrtRatioAtTick(lowerTick),\n            TickMath.getSqrtRatioAtTick(upperTick),\n            amountInDesired,\n            amountOutDesired\n        );\n    }\n}\n",
    "sourcePath": "contracts/Quoter.sol",
    "type": "contract"
}