{
    "abi": [
        {
            "inputs": [
                {
                    "internalType": "address",
                    "name": "factory_",
                    "type": "address"
                }
            ],
            "stateMutability": "nonpayable",
            "type": "constructor"
        },
        {
            "inputs": [
                {
                    "internalType": "uint256",
                    "name": "amountOut",
                    "type": "uint256"
                }
            ],
            "name": "TooLittleReceived",
            "type": "error"
        },
        {
            "anonymous": false,
            "inputs": [
                {
                    "indexed": false,
                    "internalType": "string",
                    "name": "message",
                    "type": "string"
                },
                {
                    "indexed": false,
                    "internalType": "uint24",
                    "name": "data",
                    "type": "uint24"
                }
            ],
            "name": "Log",
            "type": "event"
        },
        {
            "inputs": [],
            "name": "factory",
            "outputs": [
                {
                    "internalType": "address",
                    "name": "",
                    "type": "address"
                }
            ],
            "stateMutability": "view",
            "type": "function"
        },
        {
            "inputs": [
                {
                    "components": [
                        {
                            "internalType": "address",
                            "name": "tokenA",
                            "type": "address"
                        },
                        {
                            "internalType": "address",
                            "name": "tokenB",
                            "type": "address"
                        },
                        {
                            "internalType": "uint24",
                            "name": "fee",
                            "type": "uint24"
                        },
                        {
                            "internalType": "address",
                            "name": "owner",
                            "type": "address"
                        },
                        {
                            "internalType": "int24",
                            "name": "lowerTick",
                            "type": "int24"
                        },
                        {
                            "internalType": "int24",
                            "name": "upperTick",
                            "type": "int24"
                        }
                    ],
                    "internalType": "struct IUniswapV3Manager.GetPositionParams",
                    "name": "params",
                    "type": "tuple"
                }
            ],
            "name": "getPosition",
            "outputs": [
                {
                    "internalType": "uint128",
                    "name": "liquidity",
                    "type": "uint128"
                },
                {
                    "internalType": "uint256",
                    "name": "feeGrowthInside0LastX128",
                    "type": "uint256"
                },
                {
                    "internalType": "uint256",
                    "name": "feeGrowthInside1LastX128",
                    "type": "uint256"
                },
                {
                    "internalType": "uint128",
                    "name": "tokensOwed0",
                    "type": "uint128"
                },
                {
                    "internalType": "uint128",
                    "name": "tokensOwed1",
                    "type": "uint128"
                }
            ],
            "stateMutability": "view",
            "type": "function"
        },
        {
            "inputs": [
                {
                    "components": [
                        {
                            "internalType": "bytes",
                            "name": "path",
                            "type": "bytes"
                        },
                        {
                            "internalType": "address",
                            "name": "recipient",
                            "type": "address"
                        },
                        {
                            "internalType": "uint256",
                            "name": "amountIn",
                            "type": "uint256"
                        },
                        {
                            "internalType": "uint256",
                            "name": "minAmountOut",
                            "type": "uint256"
                        }
                    ],
                    "internalType": "struct IUniswapV3Manager.SwapParams",
                    "name": "params",
                    "type": "tuple"
                }
            ],
            "name": "swapMulti",
            "outputs": [
                {
                    "internalType": "uint256",
                    "name": "amountOut",
                    "type": "uint256"
                }
            ],
            "stateMutability": "nonpayable",
            "type": "function"
        },
        {
            "inputs": [
                {
                    "internalType": "address",
                    "name": "tokenIn",
                    "type": "address"
                },
                {
                    "internalType": "address",
                    "name": "tokenOut",
                    "type": "address"
                },
                {
                    "internalType": "uint24",
                    "name": "fee",
                    "type": "uint24"
                },
                {
                    "internalType": "uint256",
                    "name": "amountIn",
                    "type": "uint256"
                },
                {
                    "internalType": "uint160",
                    "name": "sqrtPriceLimitX96",
                    "type": "uint160"
                }
            ],
            "name": "swapSingle",
            "outputs": [
                {
                    "internalType": "uint256",
                    "name": "amountOut",
                    "type": "uint256"
                }
            ],
            "stateMutability": "nonpayable",
            "type": "function"
        },
        {
            "inputs": [
                {
                    "internalType": "int256",
                    "name": "amount0",
                    "type": "int256"
                },
                {
                    "internalType": "int256",
                    "name": "amount1",
                    "type": "int256"
                },
                {
                    "internalType": "bytes",
                    "name": "data_",
                    "type": "bytes"
                }
            ],
            "name": "uniswapV3SwapCallback",
            "outputs": [],
            "stateMutability": "nonpayable",
            "type": "function"
        }
    ],
    "bytecode": "60a060405234801561001057600080fd5b5060405161104b38038061104b83398101604081905261002f91610055565b6001600160a01b03166080819052600080546001600160a01b0319169091179055610085565b60006020828403121561006757600080fd5b81516001600160a01b038116811461007e57600080fd5b9392505050565b608051610fa56100a66000396000818160e301526102810152610fa56000f3fe608060405234801561001057600080fd5b50600436106100575760003560e01c806313032ad81461005c57806323c237d91461008257806397a90f6114610095578063c45a0155146100de578063fa461e331461011d575b600080fd5b61006f61006a366004610a96565b610132565b6040519081526020015b60405180910390f35b61006f610090366004610b5e565b6101e9565b6100a86100a3366004610bc4565b61025e565b604080516001600160801b039687168152602081019590955284019290925283166060830152909116608082015260a001610079565b6101057f000000000000000000000000000000000000000000000000000000000000000081565b6040516001600160a01b039091168152602001610079565b61013061012b366004610bdc565b61044a565b005b600033815b83516101429061058c565b905061018e84604001518261015b57856020015161015d565b305b600060405180604001604052806101778a600001516105c6565b8152602001876001600160a01b03168152506105f2565b604085015280156101ae5783513092506101a7906107a7565b8452610137565b8360400151925083606001518310156101e2576040516308e0955f60e31b8152600481018490526024015b60405180910390fd5b5050919050565b6040805180820182526bffffffffffffffffffffffff19606088811b8216818401526001600160e81b031960e888901b16607484015287901b1660778201528151808203606b018152608b8201909252908152336020820181905260009161025491859185906105f2565b9695505050505050565b60008080808080739828dc171e405abf5282769f90461a6e284fa58363e4cab7687f00000000000000000000000000000000000000000000000000000000000000006102ad60208b018b610c5c565b6102bd60408c0160208d01610c5c565b6102cd60608d0160408e01610c80565b6040516001600160e01b031960e087901b1681526001600160a01b03948516600482015292841660248401529216604482015262ffffff9091166064820152608401602060405180830381865af415801561032c573d6000803e3d6000fd5b505050506040513d601f19601f820116820180604052508101906103509190610c9b565b90506001600160a01b03811663514ea4bf61037160808a0160608b01610c5c565b61038160a08b0160808c01610cb8565b61039160c08c0160a08d01610cb8565b60405160609390931b6bffffffffffffffffffffffff1916602084015260e891821b6034840152901b6037820152603a01604051602081830303815290604052805190602001206040518263ffffffff1660e01b81526004016103f691815260200190565b60a060405180830381865afa158015610413573d6000803e3d6000fd5b505050506040513d601f19601f820116820180604052508101906104379190610cf2565b939b929a50909850965090945092505050565b600061045882840184610d49565b905060008061046a83600001516107d0565b5090925090506001600160a01b038082169083161060008161048c578761048e565b885b9050306001600160a01b031685602001516001600160a01b0316036105125760405163a9059cbb60e01b8152336004820152602481018290526001600160a01b0385169063a9059cbb90604401600060405180830381600087803b1580156104f557600080fd5b505af1158015610509573d6000803e3d6000fd5b50505050610581565b60208501516040516323b872dd60e01b81526001600160a01b03918216600482015233602482015260448101839052908516906323b872dd90606401600060405180830381600087803b15801561056857600080fd5b505af115801561057c573d6000803e3d6000fd5b505050505b505050505050505050565b600061059a60036014610df9565b60146105a7600382610df9565b6105b19190610df9565b6105bb9190610df9565b825110159050919050565b60606105ec600060146105da600382610df9565b6105e49190610df9565b84919061080c565b92915050565b60008060008061060585600001516107d0565b6000805460405163175c1b2360e31b81526001600160a01b03808716600483018190528187166024840181905262ffffff87166044850152979a50959850939650949093109390928392169063bae0d91890606401602060405180830381865afa158015610677573d6000803e3d6000fd5b505050506040513d601f19601f8201168201806040525081019061069b9190610c9b565b6001600160a01b031663dd5a12d88b858e8d6001600160a01b03166000146106c3578d6106fc565b876106ec576106e7600173fffd8963efd1fc6a506488495d951d5263988d26610e0c565b6106fc565b6106fc6401000276a36001610e33565b8d60405160200161070d9190610e99565b6040516020818303038152906040526040518663ffffffff1660e01b815260040161073c959493929190610ed6565b60408051808303816000875af115801561075a573d6000803e3d6000fd5b505050506040513d601f19601f8201168201806040525081019061077e9190610f1c565b915091508261078d578161078f565b805b61079890610f40565b9b9a5050505050505050505050565b60606105ec6107b860036014610df9565b6107c460036014610df9565b84516105e49190610f5c565b600080806107de8482610919565b92506107eb84601461097e565b90506108036107fc60036014610df9565b8590610919565b91509193909250565b60608161081a81601f610df9565b10156108595760405162461bcd60e51b815260206004820152600e60248201526d736c6963655f6f766572666c6f7760901b60448201526064016101d9565b6108638284610df9565b845110156108a75760405162461bcd60e51b8152602060048201526011602482015270736c6963655f6f75744f66426f756e647360781b60448201526064016101d9565b6060821580156108c65760405191506000825260208201604052610910565b6040519150601f8416801560200281840101858101878315602002848b0101015b818310156108ff5780518352602092830192016108e7565b5050858452601f01601f1916604052505b50949350505050565b6000610926826014610df9565b8351101561096e5760405162461bcd60e51b8152602060048201526015602482015274746f416464726573735f6f75744f66426f756e647360581b60448201526064016101d9565b500160200151600160601b900490565b600061098b826003610df9565b835110156109d25760405162461bcd60e51b8152602060048201526014602482015273746f55696e7432345f6f75744f66426f756e647360601b60448201526064016101d9565b50016003015190565b634e487b7160e01b600052604160045260246000fd5b600082601f830112610a0257600080fd5b813567ffffffffffffffff80821115610a1d57610a1d6109db565b604051601f8301601f19908116603f01168101908282118183101715610a4557610a456109db565b81604052838152866020858801011115610a5e57600080fd5b836020870160208301376000602085830101528094505050505092915050565b6001600160a01b0381168114610a9357600080fd5b50565b600060208284031215610aa857600080fd5b813567ffffffffffffffff80821115610ac057600080fd5b9083019060808286031215610ad457600080fd5b604051608081018181108382111715610aef57610aef6109db565b604052823582811115610b0157600080fd5b610b0d878286016109f1565b82525060208301359150610b2082610a7e565b816020820152604083013560408201526060830135606082015280935050505092915050565b803562ffffff81168114610b5957600080fd5b919050565b600080600080600060a08688031215610b7657600080fd5b8535610b8181610a7e565b94506020860135610b9181610a7e565b9350610b9f60408701610b46565b9250606086013591506080860135610bb681610a7e565b809150509295509295909350565b600060c08284031215610bd657600080fd5b50919050565b60008060008060608587031215610bf257600080fd5b8435935060208501359250604085013567ffffffffffffffff80821115610c1857600080fd5b818701915087601f830112610c2c57600080fd5b813581811115610c3b57600080fd5b886020828501011115610c4d57600080fd5b95989497505060200194505050565b600060208284031215610c6e57600080fd5b8135610c7981610a7e565b9392505050565b600060208284031215610c9257600080fd5b610c7982610b46565b600060208284031215610cad57600080fd5b8151610c7981610a7e565b600060208284031215610cca57600080fd5b81358060020b8114610c7957600080fd5b80516001600160801b0381168114610b5957600080fd5b600080600080600060a08688031215610d0a57600080fd5b610d1386610cdb565b94506020860151935060408601519250610d2f60608701610cdb565b9150610d3d60808701610cdb565b90509295509295909350565b600060208284031215610d5b57600080fd5b813567ffffffffffffffff80821115610d7357600080fd5b9083019060408286031215610d8757600080fd5b604051604081018181108382111715610da257610da26109db565b604052823582811115610db457600080fd5b610dc0878286016109f1565b82525060208301359250610dd383610a7e565b6020810192909252509392505050565b634e487b7160e01b600052601160045260246000fd5b808201808211156105ec576105ec610de3565b6001600160a01b03828116828216039080821115610e2c57610e2c610de3565b5092915050565b6001600160a01b03818116838216019080821115610e2c57610e2c610de3565b6000815180845260005b81811015610e7957602081850181015186830182015201610e5d565b506000602082860101526020601f19601f83011685010191505092915050565b602081526000825160406020840152610eb56060840182610e53565b602094909401516001600160a01b0316604093909301929092525090919050565b6001600160a01b0386811682528515156020830152604082018590528316606082015260a060808201819052600090610f1190830184610e53565b979650505050505050565b60008060408385031215610f2f57600080fd5b505080516020909101519092909150565b6000600160ff1b8201610f5557610f55610de3565b5060000390565b818103818111156105ec576105ec610de356fea26469706673582212206a90dc9243501d5f86b4477a3b6e8bd6987a6d8eb47120cf4a64f059ee2014f464736f6c63430008140033",
    "bytecodeSha1": "4c9d74298acc3f936c41c8ba8410cb00191963a7",
    "compiler": {
        "evm_version": "istanbul",
        "optimizer": {
            "enabled": true,
            "runs": 200
        },
        "version": "0.8.20+commit.a1b79de6"
    },
    "contractName": "SwapManager",
    "deployedBytecode": "608060405234801561001057600080fd5b50600436106100575760003560e01c806313032ad81461005c57806323c237d91461008257806397a90f6114610095578063c45a0155146100de578063fa461e331461011d575b600080fd5b61006f61006a366004610a96565b610132565b6040519081526020015b60405180910390f35b61006f610090366004610b5e565b6101e9565b6100a86100a3366004610bc4565b61025e565b604080516001600160801b039687168152602081019590955284019290925283166060830152909116608082015260a001610079565b6101057f000000000000000000000000000000000000000000000000000000000000000081565b6040516001600160a01b039091168152602001610079565b61013061012b366004610bdc565b61044a565b005b600033815b83516101429061058c565b905061018e84604001518261015b57856020015161015d565b305b600060405180604001604052806101778a600001516105c6565b8152602001876001600160a01b03168152506105f2565b604085015280156101ae5783513092506101a7906107a7565b8452610137565b8360400151925083606001518310156101e2576040516308e0955f60e31b8152600481018490526024015b60405180910390fd5b5050919050565b6040805180820182526bffffffffffffffffffffffff19606088811b8216818401526001600160e81b031960e888901b16607484015287901b1660778201528151808203606b018152608b8201909252908152336020820181905260009161025491859185906105f2565b9695505050505050565b6000808080808073__$0298c9f31864cd8aa139f2173091fa1ee4$__63e4cab7687f00000000000000000000000000000000000000000000000000000000000000006102ad60208b018b610c5c565b6102bd60408c0160208d01610c5c565b6102cd60608d0160408e01610c80565b6040516001600160e01b031960e087901b1681526001600160a01b03948516600482015292841660248401529216604482015262ffffff9091166064820152608401602060405180830381865af415801561032c573d6000803e3d6000fd5b505050506040513d601f19601f820116820180604052508101906103509190610c9b565b90506001600160a01b03811663514ea4bf61037160808a0160608b01610c5c565b61038160a08b0160808c01610cb8565b61039160c08c0160a08d01610cb8565b60405160609390931b6bffffffffffffffffffffffff1916602084015260e891821b6034840152901b6037820152603a01604051602081830303815290604052805190602001206040518263ffffffff1660e01b81526004016103f691815260200190565b60a060405180830381865afa158015610413573d6000803e3d6000fd5b505050506040513d601f19601f820116820180604052508101906104379190610cf2565b939b929a50909850965090945092505050565b600061045882840184610d49565b905060008061046a83600001516107d0565b5090925090506001600160a01b038082169083161060008161048c578761048e565b885b9050306001600160a01b031685602001516001600160a01b0316036105125760405163a9059cbb60e01b8152336004820152602481018290526001600160a01b0385169063a9059cbb90604401600060405180830381600087803b1580156104f557600080fd5b505af1158015610509573d6000803e3d6000fd5b50505050610581565b60208501516040516323b872dd60e01b81526001600160a01b03918216600482015233602482015260448101839052908516906323b872dd90606401600060405180830381600087803b15801561056857600080fd5b505af115801561057c573d6000803e3d6000fd5b505050505b505050505050505050565b600061059a60036014610df9565b60146105a7600382610df9565b6105b19190610df9565b6105bb9190610df9565b825110159050919050565b60606105ec600060146105da600382610df9565b6105e49190610df9565b84919061080c565b92915050565b60008060008061060585600001516107d0565b6000805460405163175c1b2360e31b81526001600160a01b03808716600483018190528187166024840181905262ffffff87166044850152979a50959850939650949093109390928392169063bae0d91890606401602060405180830381865afa158015610677573d6000803e3d6000fd5b505050506040513d601f19601f8201168201806040525081019061069b9190610c9b565b6001600160a01b031663dd5a12d88b858e8d6001600160a01b03166000146106c3578d6106fc565b876106ec576106e7600173fffd8963efd1fc6a506488495d951d5263988d26610e0c565b6106fc565b6106fc6401000276a36001610e33565b8d60405160200161070d9190610e99565b6040516020818303038152906040526040518663ffffffff1660e01b815260040161073c959493929190610ed6565b60408051808303816000875af115801561075a573d6000803e3d6000fd5b505050506040513d601f19601f8201168201806040525081019061077e9190610f1c565b915091508261078d578161078f565b805b61079890610f40565b9b9a5050505050505050505050565b60606105ec6107b860036014610df9565b6107c460036014610df9565b84516105e49190610f5c565b600080806107de8482610919565b92506107eb84601461097e565b90506108036107fc60036014610df9565b8590610919565b91509193909250565b60608161081a81601f610df9565b10156108595760405162461bcd60e51b815260206004820152600e60248201526d736c6963655f6f766572666c6f7760901b60448201526064016101d9565b6108638284610df9565b845110156108a75760405162461bcd60e51b8152602060048201526011602482015270736c6963655f6f75744f66426f756e647360781b60448201526064016101d9565b6060821580156108c65760405191506000825260208201604052610910565b6040519150601f8416801560200281840101858101878315602002848b0101015b818310156108ff5780518352602092830192016108e7565b5050858452601f01601f1916604052505b50949350505050565b6000610926826014610df9565b8351101561096e5760405162461bcd60e51b8152602060048201526015602482015274746f416464726573735f6f75744f66426f756e647360581b60448201526064016101d9565b500160200151600160601b900490565b600061098b826003610df9565b835110156109d25760405162461bcd60e51b8152602060048201526014602482015273746f55696e7432345f6f75744f66426f756e647360601b60448201526064016101d9565b50016003015190565b634e487b7160e01b600052604160045260246000fd5b600082601f830112610a0257600080fd5b813567ffffffffffffffff80821115610a1d57610a1d6109db565b604051601f8301601f19908116603f01168101908282118183101715610a4557610a456109db565b81604052838152866020858801011115610a5e57600080fd5b836020870160208301376000602085830101528094505050505092915050565b6001600160a01b0381168114610a9357600080fd5b50565b600060208284031215610aa857600080fd5b813567ffffffffffffffff80821115610ac057600080fd5b9083019060808286031215610ad457600080fd5b604051608081018181108382111715610aef57610aef6109db565b604052823582811115610b0157600080fd5b610b0d878286016109f1565b82525060208301359150610b2082610a7e565b816020820152604083013560408201526060830135606082015280935050505092915050565b803562ffffff81168114610b5957600080fd5b919050565b600080600080600060a08688031215610b7657600080fd5b8535610b8181610a7e565b94506020860135610b9181610a7e565b9350610b9f60408701610b46565b9250606086013591506080860135610bb681610a7e565b809150509295509295909350565b600060c08284031215610bd657600080fd5b50919050565b60008060008060608587031215610bf257600080fd5b8435935060208501359250604085013567ffffffffffffffff80821115610c1857600080fd5b818701915087601f830112610c2c57600080fd5b813581811115610c3b57600080fd5b886020828501011115610c4d57600080fd5b95989497505060200194505050565b600060208284031215610c6e57600080fd5b8135610c7981610a7e565b9392505050565b600060208284031215610c9257600080fd5b610c7982610b46565b600060208284031215610cad57600080fd5b8151610c7981610a7e565b600060208284031215610cca57600080fd5b81358060020b8114610c7957600080fd5b80516001600160801b0381168114610b5957600080fd5b600080600080600060a08688031215610d0a57600080fd5b610d1386610cdb565b94506020860151935060408601519250610d2f60608701610cdb565b9150610d3d60808701610cdb565b90509295509295909350565b600060208284031215610d5b57600080fd5b813567ffffffffffffffff80821115610d7357600080fd5b9083019060408286031215610d8757600080fd5b604051604081018181108382111715610da257610da26109db565b604052823582811115610db457600080fd5b610dc0878286016109f1565b82525060208301359250610dd383610a7e565b6020810192909252509392505050565b634e487b7160e01b600052601160045260246000fd5b808201808211156105ec576105ec610de3565b6001600160a01b03828116828216039080821115610e2c57610e2c610de3565b5092915050565b6001600160a01b03818116838216019080821115610e2c57610e2c610de3565b6000815180845260005b81811015610e7957602081850181015186830182015201610e5d565b506000602082860101526020601f19601f83011685010191505092915050565b602081526000825160406020840152610eb56060840182610e53565b602094909401516001600160a01b0316604093909301929092525090919050565b6001600160a01b0386811682528515156020830152604082018590528316606082015260a060808201819052600090610f1190830184610e53565b979650505050505050565b60008060408385031215610f2f57600080fd5b505080516020909101519092909150565b6000600160ff1b8201610f5557610f55610de3565b5060000390565b818103818111156105ec576105ec610de356fea26469706673582212206a90dc9243501d5f86b4477a3b6e8bd6987a6d8eb47120cf4a64f059ee2014f464736f6c63430008140033",
    "language": "Solidity",
    "natspec": {
        "kind": "dev",
        "methods": {
            "swapMulti((bytes,address,uint256,uint256))": {
                "details": "should only be used if there is no direct trade pool",
                "notice": "makes multiple-pool swaps",
                "params": {
                    "params": ": an array with the following parameters:             path: the hex code of the pool paths that are part of the multi-swap             recipient: who will receive the tokens             amountIn: the amount of tokens we want to sell             minAmountOut: the minimum amount of tokens we are willing to receive"
                }
            },
            "swapSingle(address,address,uint24,uint256,uint160)": {
                "details": "cannot be used unless the pool exists",
                "notice": "makes a single pool swap  An array with the following parameters:             tokenIn: the token we want to sell to the pool             tokenOut: the token we want to buy from the pool             fee: the fee of the pool in which we will swap             amountIn: amount of the token we want to sell             sqrtPriceLimitX96: how much we are willing to allow for price slippage SQRTP*sqrt(slippage)"
            }
        },
        "version": 1
    },
    "opcodes": "PUSH1 0x80 PUSH1 0x40 MSTORE CALLVALUE DUP1 ISZERO PUSH2 0x10 JUMPI PUSH1 0x0 DUP1 REVERT JUMPDEST POP PUSH1 0x4 CALLDATASIZE LT PUSH2 0x57 JUMPI PUSH1 0x0 CALLDATALOAD PUSH1 0xE0 SHR DUP1 PUSH4 0x13032AD8 EQ PUSH2 0x5C JUMPI DUP1 PUSH4 0x23C237D9 EQ PUSH2 0x82 JUMPI DUP1 PUSH4 0x97A90F61 EQ PUSH2 0x95 JUMPI DUP1 PUSH4 0xC45A0155 EQ PUSH2 0xDE JUMPI DUP1 PUSH4 0xFA461E33 EQ PUSH2 0x11D JUMPI JUMPDEST PUSH1 0x0 DUP1 REVERT JUMPDEST PUSH2 0x6F PUSH2 0x6A CALLDATASIZE PUSH1 0x4 PUSH2 0xA96 JUMP JUMPDEST PUSH2 0x132 JUMP JUMPDEST PUSH1 0x40 MLOAD SWAP1 DUP2 MSTORE PUSH1 0x20 ADD JUMPDEST PUSH1 0x40 MLOAD DUP1 SWAP2 SUB SWAP1 RETURN JUMPDEST PUSH2 0x6F PUSH2 0x90 CALLDATASIZE PUSH1 0x4 PUSH2 0xB5E JUMP JUMPDEST PUSH2 0x1E9 JUMP JUMPDEST PUSH2 0xA8 PUSH2 0xA3 CALLDATASIZE PUSH1 0x4 PUSH2 0xBC4 JUMP JUMPDEST PUSH2 0x25E JUMP JUMPDEST PUSH1 0x40 DUP1 MLOAD PUSH1 0x1 PUSH1 0x1 PUSH1 0x80 SHL SUB SWAP7 DUP8 AND DUP2 MSTORE PUSH1 0x20 DUP2 ADD SWAP6 SWAP1 SWAP6 MSTORE DUP5 ADD SWAP3 SWAP1 SWAP3 MSTORE DUP4 AND PUSH1 0x60 DUP4 ADD MSTORE SWAP1 SWAP2 AND PUSH1 0x80 DUP3 ADD MSTORE PUSH1 0xA0 ADD PUSH2 0x79 JUMP JUMPDEST PUSH2 0x105 PUSH32 0x0 DUP2 JUMP JUMPDEST PUSH1 0x40 MLOAD PUSH1 0x1 PUSH1 0x1 PUSH1 0xA0 SHL SUB SWAP1 SWAP2 AND DUP2 MSTORE PUSH1 0x20 ADD PUSH2 0x79 JUMP JUMPDEST PUSH2 0x130 PUSH2 0x12B CALLDATASIZE PUSH1 0x4 PUSH2 0xBDC JUMP JUMPDEST PUSH2 0x44A JUMP JUMPDEST STOP JUMPDEST PUSH1 0x0 CALLER DUP2 JUMPDEST DUP4 MLOAD PUSH2 0x142 SWAP1 PUSH2 0x58C JUMP JUMPDEST SWAP1 POP PUSH2 0x18E DUP5 PUSH1 0x40 ADD MLOAD DUP3 PUSH2 0x15B JUMPI DUP6 PUSH1 0x20 ADD MLOAD PUSH2 0x15D JUMP JUMPDEST ADDRESS JUMPDEST PUSH1 0x0 PUSH1 0x40 MLOAD DUP1 PUSH1 0x40 ADD PUSH1 0x40 MSTORE DUP1 PUSH2 0x177 DUP11 PUSH1 0x0 ADD MLOAD PUSH2 0x5C6 JUMP JUMPDEST DUP2 MSTORE PUSH1 0x20 ADD DUP8 PUSH1 0x1 PUSH1 0x1 PUSH1 0xA0 SHL SUB AND DUP2 MSTORE POP PUSH2 0x5F2 JUMP JUMPDEST PUSH1 0x40 DUP6 ADD MSTORE DUP1 ISZERO PUSH2 0x1AE JUMPI DUP4 MLOAD ADDRESS SWAP3 POP PUSH2 0x1A7 SWAP1 PUSH2 0x7A7 JUMP JUMPDEST DUP5 MSTORE PUSH2 0x137 JUMP JUMPDEST DUP4 PUSH1 0x40 ADD MLOAD SWAP3 POP DUP4 PUSH1 0x60 ADD MLOAD DUP4 LT ISZERO PUSH2 0x1E2 JUMPI PUSH1 0x40 MLOAD PUSH4 0x8E0955F PUSH1 0xE3 SHL DUP2 MSTORE PUSH1 0x4 DUP2 ADD DUP5 SWAP1 MSTORE PUSH1 0x24 ADD JUMPDEST PUSH1 0x40 MLOAD DUP1 SWAP2 SUB SWAP1 REVERT JUMPDEST POP POP SWAP2 SWAP1 POP JUMP JUMPDEST PUSH1 0x40 DUP1 MLOAD DUP1 DUP3 ADD DUP3 MSTORE PUSH12 0xFFFFFFFFFFFFFFFFFFFFFFFF NOT PUSH1 0x60 DUP9 DUP2 SHL DUP3 AND DUP2 DUP5 ADD MSTORE PUSH1 0x1 PUSH1 0x1 PUSH1 0xE8 SHL SUB NOT PUSH1 0xE8 DUP9 SWAP1 SHL AND PUSH1 0x74 DUP5 ADD MSTORE DUP8 SWAP1 SHL AND PUSH1 0x77 DUP3 ADD MSTORE DUP2 MLOAD DUP1 DUP3 SUB PUSH1 0x6B ADD DUP2 MSTORE PUSH1 0x8B DUP3 ADD SWAP1 SWAP3 MSTORE SWAP1 DUP2 MSTORE CALLER PUSH1 0x20 DUP3 ADD DUP2 SWAP1 MSTORE PUSH1 0x0 SWAP2 PUSH2 0x254 SWAP2 DUP6 SWAP2 DUP6 SWAP1 PUSH2 0x5F2 JUMP JUMPDEST SWAP7 SWAP6 POP POP POP POP POP POP JUMP JUMPDEST PUSH1 0x0 DUP1 DUP1 DUP1 DUP1 DUP1 PUSH20 0x0 PUSH4 0xE4CAB768 PUSH32 0x0 PUSH2 0x2AD PUSH1 0x20 DUP12 ADD DUP12 PUSH2 0xC5C JUMP JUMPDEST PUSH2 0x2BD PUSH1 0x40 DUP13 ADD PUSH1 0x20 DUP14 ADD PUSH2 0xC5C JUMP JUMPDEST PUSH2 0x2CD PUSH1 0x60 DUP14 ADD PUSH1 0x40 DUP15 ADD PUSH2 0xC80 JUMP JUMPDEST PUSH1 0x40 MLOAD PUSH1 0x1 PUSH1 0x1 PUSH1 0xE0 SHL SUB NOT PUSH1 0xE0 DUP8 SWAP1 SHL AND DUP2 MSTORE PUSH1 0x1 PUSH1 0x1 PUSH1 0xA0 SHL SUB SWAP5 DUP6 AND PUSH1 0x4 DUP3 ADD MSTORE SWAP3 DUP5 AND PUSH1 0x24 DUP5 ADD MSTORE SWAP3 AND PUSH1 0x44 DUP3 ADD MSTORE PUSH3 0xFFFFFF SWAP1 SWAP2 AND PUSH1 0x64 DUP3 ADD MSTORE PUSH1 0x84 ADD PUSH1 0x20 PUSH1 0x40 MLOAD DUP1 DUP4 SUB DUP2 DUP7 GAS DELEGATECALL ISZERO DUP1 ISZERO PUSH2 0x32C JUMPI RETURNDATASIZE PUSH1 0x0 DUP1 RETURNDATACOPY RETURNDATASIZE PUSH1 0x0 REVERT JUMPDEST POP POP POP POP PUSH1 0x40 MLOAD RETURNDATASIZE PUSH1 0x1F NOT PUSH1 0x1F DUP3 ADD AND DUP3 ADD DUP1 PUSH1 0x40 MSTORE POP DUP2 ADD SWAP1 PUSH2 0x350 SWAP2 SWAP1 PUSH2 0xC9B JUMP JUMPDEST SWAP1 POP PUSH1 0x1 PUSH1 0x1 PUSH1 0xA0 SHL SUB DUP2 AND PUSH4 0x514EA4BF PUSH2 0x371 PUSH1 0x80 DUP11 ADD PUSH1 0x60 DUP12 ADD PUSH2 0xC5C JUMP JUMPDEST PUSH2 0x381 PUSH1 0xA0 DUP12 ADD PUSH1 0x80 DUP13 ADD PUSH2 0xCB8 JUMP JUMPDEST PUSH2 0x391 PUSH1 0xC0 DUP13 ADD PUSH1 0xA0 DUP14 ADD PUSH2 0xCB8 JUMP JUMPDEST PUSH1 0x40 MLOAD PUSH1 0x60 SWAP4 SWAP1 SWAP4 SHL PUSH12 0xFFFFFFFFFFFFFFFFFFFFFFFF NOT AND PUSH1 0x20 DUP5 ADD MSTORE PUSH1 0xE8 SWAP2 DUP3 SHL PUSH1 0x34 DUP5 ADD MSTORE SWAP1 SHL PUSH1 0x37 DUP3 ADD MSTORE PUSH1 0x3A ADD PUSH1 0x40 MLOAD PUSH1 0x20 DUP2 DUP4 SUB SUB DUP2 MSTORE SWAP1 PUSH1 0x40 MSTORE DUP1 MLOAD SWAP1 PUSH1 0x20 ADD KECCAK256 PUSH1 0x40 MLOAD DUP3 PUSH4 0xFFFFFFFF AND PUSH1 0xE0 SHL DUP2 MSTORE PUSH1 0x4 ADD PUSH2 0x3F6 SWAP2 DUP2 MSTORE PUSH1 0x20 ADD SWAP1 JUMP JUMPDEST PUSH1 0xA0 PUSH1 0x40 MLOAD DUP1 DUP4 SUB DUP2 DUP7 GAS STATICCALL ISZERO DUP1 ISZERO PUSH2 0x413 JUMPI RETURNDATASIZE PUSH1 0x0 DUP1 RETURNDATACOPY RETURNDATASIZE PUSH1 0x0 REVERT JUMPDEST POP POP POP POP PUSH1 0x40 MLOAD RETURNDATASIZE PUSH1 0x1F NOT PUSH1 0x1F DUP3 ADD AND DUP3 ADD DUP1 PUSH1 0x40 MSTORE POP DUP2 ADD SWAP1 PUSH2 0x437 SWAP2 SWAP1 PUSH2 0xCF2 JUMP JUMPDEST SWAP4 SWAP12 SWAP3 SWAP11 POP SWAP1 SWAP9 POP SWAP7 POP SWAP1 SWAP5 POP SWAP3 POP POP POP JUMP JUMPDEST PUSH1 0x0 PUSH2 0x458 DUP3 DUP5 ADD DUP5 PUSH2 0xD49 JUMP JUMPDEST SWAP1 POP PUSH1 0x0 DUP1 PUSH2 0x46A DUP4 PUSH1 0x0 ADD MLOAD PUSH2 0x7D0 JUMP JUMPDEST POP SWAP1 SWAP3 POP SWAP1 POP PUSH1 0x1 PUSH1 0x1 PUSH1 0xA0 SHL SUB DUP1 DUP3 AND SWAP1 DUP4 AND LT PUSH1 0x0 DUP2 PUSH2 0x48C JUMPI DUP8 PUSH2 0x48E JUMP JUMPDEST DUP9 JUMPDEST SWAP1 POP ADDRESS PUSH1 0x1 PUSH1 0x1 PUSH1 0xA0 SHL SUB AND DUP6 PUSH1 0x20 ADD MLOAD PUSH1 0x1 PUSH1 0x1 PUSH1 0xA0 SHL SUB AND SUB PUSH2 0x512 JUMPI PUSH1 0x40 MLOAD PUSH4 0xA9059CBB PUSH1 0xE0 SHL DUP2 MSTORE CALLER PUSH1 0x4 DUP3 ADD MSTORE PUSH1 0x24 DUP2 ADD DUP3 SWAP1 MSTORE PUSH1 0x1 PUSH1 0x1 PUSH1 0xA0 SHL SUB DUP6 AND SWAP1 PUSH4 0xA9059CBB SWAP1 PUSH1 0x44 ADD PUSH1 0x0 PUSH1 0x40 MLOAD DUP1 DUP4 SUB DUP2 PUSH1 0x0 DUP8 DUP1 EXTCODESIZE ISZERO DUP1 ISZERO PUSH2 0x4F5 JUMPI PUSH1 0x0 DUP1 REVERT JUMPDEST POP GAS CALL ISZERO DUP1 ISZERO PUSH2 0x509 JUMPI RETURNDATASIZE PUSH1 0x0 DUP1 RETURNDATACOPY RETURNDATASIZE PUSH1 0x0 REVERT JUMPDEST POP POP POP POP PUSH2 0x581 JUMP JUMPDEST PUSH1 0x20 DUP6 ADD MLOAD PUSH1 0x40 MLOAD PUSH4 0x23B872DD PUSH1 0xE0 SHL DUP2 MSTORE PUSH1 0x1 PUSH1 0x1 PUSH1 0xA0 SHL SUB SWAP2 DUP3 AND PUSH1 0x4 DUP3 ADD MSTORE CALLER PUSH1 0x24 DUP3 ADD MSTORE PUSH1 0x44 DUP2 ADD DUP4 SWAP1 MSTORE SWAP1 DUP6 AND SWAP1 PUSH4 0x23B872DD SWAP1 PUSH1 0x64 ADD PUSH1 0x0 PUSH1 0x40 MLOAD DUP1 DUP4 SUB DUP2 PUSH1 0x0 DUP8 DUP1 EXTCODESIZE ISZERO DUP1 ISZERO PUSH2 0x568 JUMPI PUSH1 0x0 DUP1 REVERT JUMPDEST POP GAS CALL ISZERO DUP1 ISZERO PUSH2 0x57C JUMPI RETURNDATASIZE PUSH1 0x0 DUP1 RETURNDATACOPY RETURNDATASIZE PUSH1 0x0 REVERT JUMPDEST POP POP POP POP JUMPDEST POP POP POP POP POP POP POP POP POP JUMP JUMPDEST PUSH1 0x0 PUSH2 0x59A PUSH1 0x3 PUSH1 0x14 PUSH2 0xDF9 JUMP JUMPDEST PUSH1 0x14 PUSH2 0x5A7 PUSH1 0x3 DUP3 PUSH2 0xDF9 JUMP JUMPDEST PUSH2 0x5B1 SWAP2 SWAP1 PUSH2 0xDF9 JUMP JUMPDEST PUSH2 0x5BB SWAP2 SWAP1 PUSH2 0xDF9 JUMP JUMPDEST DUP3 MLOAD LT ISZERO SWAP1 POP SWAP2 SWAP1 POP JUMP JUMPDEST PUSH1 0x60 PUSH2 0x5EC PUSH1 0x0 PUSH1 0x14 PUSH2 0x5DA PUSH1 0x3 DUP3 PUSH2 0xDF9 JUMP JUMPDEST PUSH2 0x5E4 SWAP2 SWAP1 PUSH2 0xDF9 JUMP JUMPDEST DUP5 SWAP2 SWAP1 PUSH2 0x80C JUMP JUMPDEST SWAP3 SWAP2 POP POP JUMP JUMPDEST PUSH1 0x0 DUP1 PUSH1 0x0 DUP1 PUSH2 0x605 DUP6 PUSH1 0x0 ADD MLOAD PUSH2 0x7D0 JUMP JUMPDEST PUSH1 0x0 DUP1 SLOAD PUSH1 0x40 MLOAD PUSH4 0x175C1B23 PUSH1 0xE3 SHL DUP2 MSTORE PUSH1 0x1 PUSH1 0x1 PUSH1 0xA0 SHL SUB DUP1 DUP8 AND PUSH1 0x4 DUP4 ADD DUP2 SWAP1 MSTORE DUP2 DUP8 AND PUSH1 0x24 DUP5 ADD DUP2 SWAP1 MSTORE PUSH3 0xFFFFFF DUP8 AND PUSH1 0x44 DUP6 ADD MSTORE SWAP8 SWAP11 POP SWAP6 SWAP9 POP SWAP4 SWAP7 POP SWAP5 SWAP1 SWAP4 LT SWAP4 SWAP1 SWAP3 DUP4 SWAP3 AND SWAP1 PUSH4 0xBAE0D918 SWAP1 PUSH1 0x64 ADD PUSH1 0x20 PUSH1 0x40 MLOAD DUP1 DUP4 SUB DUP2 DUP7 GAS STATICCALL ISZERO DUP1 ISZERO PUSH2 0x677 JUMPI RETURNDATASIZE PUSH1 0x0 DUP1 RETURNDATACOPY RETURNDATASIZE PUSH1 0x0 REVERT JUMPDEST POP POP POP POP PUSH1 0x40 MLOAD RETURNDATASIZE PUSH1 0x1F NOT PUSH1 0x1F DUP3 ADD AND DUP3 ADD DUP1 PUSH1 0x40 MSTORE POP DUP2 ADD SWAP1 PUSH2 0x69B SWAP2 SWAP1 PUSH2 0xC9B JUMP JUMPDEST PUSH1 0x1 PUSH1 0x1 PUSH1 0xA0 SHL SUB AND PUSH4 0xDD5A12D8 DUP12 DUP6 DUP15 DUP14 PUSH1 0x1 PUSH1 0x1 PUSH1 0xA0 SHL SUB AND PUSH1 0x0 EQ PUSH2 0x6C3 JUMPI DUP14 PUSH2 0x6FC JUMP JUMPDEST DUP8 PUSH2 0x6EC JUMPI PUSH2 0x6E7 PUSH1 0x1 PUSH20 0xFFFD8963EFD1FC6A506488495D951D5263988D26 PUSH2 0xE0C JUMP JUMPDEST PUSH2 0x6FC JUMP JUMPDEST PUSH2 0x6FC PUSH5 0x1000276A3 PUSH1 0x1 PUSH2 0xE33 JUMP JUMPDEST DUP14 PUSH1 0x40 MLOAD PUSH1 0x20 ADD PUSH2 0x70D SWAP2 SWAP1 PUSH2 0xE99 JUMP JUMPDEST PUSH1 0x40 MLOAD PUSH1 0x20 DUP2 DUP4 SUB SUB DUP2 MSTORE SWAP1 PUSH1 0x40 MSTORE PUSH1 0x40 MLOAD DUP7 PUSH4 0xFFFFFFFF AND PUSH1 0xE0 SHL DUP2 MSTORE PUSH1 0x4 ADD PUSH2 0x73C SWAP6 SWAP5 SWAP4 SWAP3 SWAP2 SWAP1 PUSH2 0xED6 JUMP JUMPDEST PUSH1 0x40 DUP1 MLOAD DUP1 DUP4 SUB DUP2 PUSH1 0x0 DUP8 GAS CALL ISZERO DUP1 ISZERO PUSH2 0x75A JUMPI RETURNDATASIZE PUSH1 0x0 DUP1 RETURNDATACOPY RETURNDATASIZE PUSH1 0x0 REVERT JUMPDEST POP POP POP POP PUSH1 0x40 MLOAD RETURNDATASIZE PUSH1 0x1F NOT PUSH1 0x1F DUP3 ADD AND DUP3 ADD DUP1 PUSH1 0x40 MSTORE POP DUP2 ADD SWAP1 PUSH2 0x77E SWAP2 SWAP1 PUSH2 0xF1C JUMP JUMPDEST SWAP2 POP SWAP2 POP DUP3 PUSH2 0x78D JUMPI DUP2 PUSH2 0x78F JUMP JUMPDEST DUP1 JUMPDEST PUSH2 0x798 SWAP1 PUSH2 0xF40 JUMP JUMPDEST SWAP12 SWAP11 POP POP POP POP POP POP POP POP POP POP POP JUMP JUMPDEST PUSH1 0x60 PUSH2 0x5EC PUSH2 0x7B8 PUSH1 0x3 PUSH1 0x14 PUSH2 0xDF9 JUMP JUMPDEST PUSH2 0x7C4 PUSH1 0x3 PUSH1 0x14 PUSH2 0xDF9 JUMP JUMPDEST DUP5 MLOAD PUSH2 0x5E4 SWAP2 SWAP1 PUSH2 0xF5C JUMP JUMPDEST PUSH1 0x0 DUP1 DUP1 PUSH2 0x7DE DUP5 DUP3 PUSH2 0x919 JUMP JUMPDEST SWAP3 POP PUSH2 0x7EB DUP5 PUSH1 0x14 PUSH2 0x97E JUMP JUMPDEST SWAP1 POP PUSH2 0x803 PUSH2 0x7FC PUSH1 0x3 PUSH1 0x14 PUSH2 0xDF9 JUMP JUMPDEST DUP6 SWAP1 PUSH2 0x919 JUMP JUMPDEST SWAP2 POP SWAP2 SWAP4 SWAP1 SWAP3 POP JUMP JUMPDEST PUSH1 0x60 DUP2 PUSH2 0x81A DUP2 PUSH1 0x1F PUSH2 0xDF9 JUMP JUMPDEST LT ISZERO PUSH2 0x859 JUMPI PUSH1 0x40 MLOAD PUSH3 0x461BCD PUSH1 0xE5 SHL DUP2 MSTORE PUSH1 0x20 PUSH1 0x4 DUP3 ADD MSTORE PUSH1 0xE PUSH1 0x24 DUP3 ADD MSTORE PUSH14 0x736C6963655F6F766572666C6F77 PUSH1 0x90 SHL PUSH1 0x44 DUP3 ADD MSTORE PUSH1 0x64 ADD PUSH2 0x1D9 JUMP JUMPDEST PUSH2 0x863 DUP3 DUP5 PUSH2 0xDF9 JUMP JUMPDEST DUP5 MLOAD LT ISZERO PUSH2 0x8A7 JUMPI PUSH1 0x40 MLOAD PUSH3 0x461BCD PUSH1 0xE5 SHL DUP2 MSTORE PUSH1 0x20 PUSH1 0x4 DUP3 ADD MSTORE PUSH1 0x11 PUSH1 0x24 DUP3 ADD MSTORE PUSH17 0x736C6963655F6F75744F66426F756E6473 PUSH1 0x78 SHL PUSH1 0x44 DUP3 ADD MSTORE PUSH1 0x64 ADD PUSH2 0x1D9 JUMP JUMPDEST PUSH1 0x60 DUP3 ISZERO DUP1 ISZERO PUSH2 0x8C6 JUMPI PUSH1 0x40 MLOAD SWAP2 POP PUSH1 0x0 DUP3 MSTORE PUSH1 0x20 DUP3 ADD PUSH1 0x40 MSTORE PUSH2 0x910 JUMP JUMPDEST PUSH1 0x40 MLOAD SWAP2 POP PUSH1 0x1F DUP5 AND DUP1 ISZERO PUSH1 0x20 MUL DUP2 DUP5 ADD ADD DUP6 DUP2 ADD DUP8 DUP4 ISZERO PUSH1 0x20 MUL DUP5 DUP12 ADD ADD ADD JUMPDEST DUP2 DUP4 LT ISZERO PUSH2 0x8FF JUMPI DUP1 MLOAD DUP4 MSTORE PUSH1 0x20 SWAP3 DUP4 ADD SWAP3 ADD PUSH2 0x8E7 JUMP JUMPDEST POP POP DUP6 DUP5 MSTORE PUSH1 0x1F ADD PUSH1 0x1F NOT AND PUSH1 0x40 MSTORE POP JUMPDEST POP SWAP5 SWAP4 POP POP POP POP JUMP JUMPDEST PUSH1 0x0 PUSH2 0x926 DUP3 PUSH1 0x14 PUSH2 0xDF9 JUMP JUMPDEST DUP4 MLOAD LT ISZERO PUSH2 0x96E JUMPI PUSH1 0x40 MLOAD PUSH3 0x461BCD PUSH1 0xE5 SHL DUP2 MSTORE PUSH1 0x20 PUSH1 0x4 DUP3 ADD MSTORE PUSH1 0x15 PUSH1 0x24 DUP3 ADD MSTORE PUSH21 0x746F416464726573735F6F75744F66426F756E6473 PUSH1 0x58 SHL PUSH1 0x44 DUP3 ADD MSTORE PUSH1 0x64 ADD PUSH2 0x1D9 JUMP JUMPDEST POP ADD PUSH1 0x20 ADD MLOAD PUSH1 0x1 PUSH1 0x60 SHL SWAP1 DIV SWAP1 JUMP JUMPDEST PUSH1 0x0 PUSH2 0x98B DUP3 PUSH1 0x3 PUSH2 0xDF9 JUMP JUMPDEST DUP4 MLOAD LT ISZERO PUSH2 0x9D2 JUMPI PUSH1 0x40 MLOAD PUSH3 0x461BCD PUSH1 0xE5 SHL DUP2 MSTORE PUSH1 0x20 PUSH1 0x4 DUP3 ADD MSTORE PUSH1 0x14 PUSH1 0x24 DUP3 ADD MSTORE PUSH20 0x746F55696E7432345F6F75744F66426F756E6473 PUSH1 0x60 SHL PUSH1 0x44 DUP3 ADD MSTORE PUSH1 0x64 ADD PUSH2 0x1D9 JUMP JUMPDEST POP ADD PUSH1 0x3 ADD MLOAD SWAP1 JUMP JUMPDEST PUSH4 0x4E487B71 PUSH1 0xE0 SHL PUSH1 0x0 MSTORE PUSH1 0x41 PUSH1 0x4 MSTORE PUSH1 0x24 PUSH1 0x0 REVERT JUMPDEST PUSH1 0x0 DUP3 PUSH1 0x1F DUP4 ADD SLT PUSH2 0xA02 JUMPI PUSH1 0x0 DUP1 REVERT JUMPDEST DUP2 CALLDATALOAD PUSH8 0xFFFFFFFFFFFFFFFF DUP1 DUP3 GT ISZERO PUSH2 0xA1D JUMPI PUSH2 0xA1D PUSH2 0x9DB JUMP JUMPDEST PUSH1 0x40 MLOAD PUSH1 0x1F DUP4 ADD PUSH1 0x1F NOT SWAP1 DUP2 AND PUSH1 0x3F ADD AND DUP2 ADD SWAP1 DUP3 DUP3 GT DUP2 DUP4 LT OR ISZERO PUSH2 0xA45 JUMPI PUSH2 0xA45 PUSH2 0x9DB JUMP JUMPDEST DUP2 PUSH1 0x40 MSTORE DUP4 DUP2 MSTORE DUP7 PUSH1 0x20 DUP6 DUP9 ADD ADD GT ISZERO PUSH2 0xA5E JUMPI PUSH1 0x0 DUP1 REVERT JUMPDEST DUP4 PUSH1 0x20 DUP8 ADD PUSH1 0x20 DUP4 ADD CALLDATACOPY PUSH1 0x0 PUSH1 0x20 DUP6 DUP4 ADD ADD MSTORE DUP1 SWAP5 POP POP POP POP POP SWAP3 SWAP2 POP POP JUMP JUMPDEST PUSH1 0x1 PUSH1 0x1 PUSH1 0xA0 SHL SUB DUP2 AND DUP2 EQ PUSH2 0xA93 JUMPI PUSH1 0x0 DUP1 REVERT JUMPDEST POP JUMP JUMPDEST PUSH1 0x0 PUSH1 0x20 DUP3 DUP5 SUB SLT ISZERO PUSH2 0xAA8 JUMPI PUSH1 0x0 DUP1 REVERT JUMPDEST DUP2 CALLDATALOAD PUSH8 0xFFFFFFFFFFFFFFFF DUP1 DUP3 GT ISZERO PUSH2 0xAC0 JUMPI PUSH1 0x0 DUP1 REVERT JUMPDEST SWAP1 DUP4 ADD SWAP1 PUSH1 0x80 DUP3 DUP7 SUB SLT ISZERO PUSH2 0xAD4 JUMPI PUSH1 0x0 DUP1 REVERT JUMPDEST PUSH1 0x40 MLOAD PUSH1 0x80 DUP2 ADD DUP2 DUP2 LT DUP4 DUP3 GT OR ISZERO PUSH2 0xAEF JUMPI PUSH2 0xAEF PUSH2 0x9DB JUMP JUMPDEST PUSH1 0x40 MSTORE DUP3 CALLDATALOAD DUP3 DUP2 GT ISZERO PUSH2 0xB01 JUMPI PUSH1 0x0 DUP1 REVERT JUMPDEST PUSH2 0xB0D DUP8 DUP3 DUP7 ADD PUSH2 0x9F1 JUMP JUMPDEST DUP3 MSTORE POP PUSH1 0x20 DUP4 ADD CALLDATALOAD SWAP2 POP PUSH2 0xB20 DUP3 PUSH2 0xA7E JUMP JUMPDEST DUP2 PUSH1 0x20 DUP3 ADD MSTORE PUSH1 0x40 DUP4 ADD CALLDATALOAD PUSH1 0x40 DUP3 ADD MSTORE PUSH1 0x60 DUP4 ADD CALLDATALOAD PUSH1 0x60 DUP3 ADD MSTORE DUP1 SWAP4 POP POP POP POP SWAP3 SWAP2 POP POP JUMP JUMPDEST DUP1 CALLDATALOAD PUSH3 0xFFFFFF DUP2 AND DUP2 EQ PUSH2 0xB59 JUMPI PUSH1 0x0 DUP1 REVERT JUMPDEST SWAP2 SWAP1 POP JUMP JUMPDEST PUSH1 0x0 DUP1 PUSH1 0x0 DUP1 PUSH1 0x0 PUSH1 0xA0 DUP7 DUP9 SUB SLT ISZERO PUSH2 0xB76 JUMPI PUSH1 0x0 DUP1 REVERT JUMPDEST DUP6 CALLDATALOAD PUSH2 0xB81 DUP2 PUSH2 0xA7E JUMP JUMPDEST SWAP5 POP PUSH1 0x20 DUP7 ADD CALLDATALOAD PUSH2 0xB91 DUP2 PUSH2 0xA7E JUMP JUMPDEST SWAP4 POP PUSH2 0xB9F PUSH1 0x40 DUP8 ADD PUSH2 0xB46 JUMP JUMPDEST SWAP3 POP PUSH1 0x60 DUP7 ADD CALLDATALOAD SWAP2 POP PUSH1 0x80 DUP7 ADD CALLDATALOAD PUSH2 0xBB6 DUP2 PUSH2 0xA7E JUMP JUMPDEST DUP1 SWAP2 POP POP SWAP3 SWAP6 POP SWAP3 SWAP6 SWAP1 SWAP4 POP JUMP JUMPDEST PUSH1 0x0 PUSH1 0xC0 DUP3 DUP5 SUB SLT ISZERO PUSH2 0xBD6 JUMPI PUSH1 0x0 DUP1 REVERT JUMPDEST POP SWAP2 SWAP1 POP JUMP JUMPDEST PUSH1 0x0 DUP1 PUSH1 0x0 DUP1 PUSH1 0x60 DUP6 DUP8 SUB SLT ISZERO PUSH2 0xBF2 JUMPI PUSH1 0x0 DUP1 REVERT JUMPDEST DUP5 CALLDATALOAD SWAP4 POP PUSH1 0x20 DUP6 ADD CALLDATALOAD SWAP3 POP PUSH1 0x40 DUP6 ADD CALLDATALOAD PUSH8 0xFFFFFFFFFFFFFFFF DUP1 DUP3 GT ISZERO PUSH2 0xC18 JUMPI PUSH1 0x0 DUP1 REVERT JUMPDEST DUP2 DUP8 ADD SWAP2 POP DUP8 PUSH1 0x1F DUP4 ADD SLT PUSH2 0xC2C JUMPI PUSH1 0x0 DUP1 REVERT JUMPDEST DUP2 CALLDATALOAD DUP2 DUP2 GT ISZERO PUSH2 0xC3B JUMPI PUSH1 0x0 DUP1 REVERT JUMPDEST DUP9 PUSH1 0x20 DUP3 DUP6 ADD ADD GT ISZERO PUSH2 0xC4D JUMPI PUSH1 0x0 DUP1 REVERT JUMPDEST SWAP6 SWAP9 SWAP5 SWAP8 POP POP PUSH1 0x20 ADD SWAP5 POP POP POP JUMP JUMPDEST PUSH1 0x0 PUSH1 0x20 DUP3 DUP5 SUB SLT ISZERO PUSH2 0xC6E JUMPI PUSH1 0x0 DUP1 REVERT JUMPDEST DUP2 CALLDATALOAD PUSH2 0xC79 DUP2 PUSH2 0xA7E JUMP JUMPDEST SWAP4 SWAP3 POP POP POP JUMP JUMPDEST PUSH1 0x0 PUSH1 0x20 DUP3 DUP5 SUB SLT ISZERO PUSH2 0xC92 JUMPI PUSH1 0x0 DUP1 REVERT JUMPDEST PUSH2 0xC79 DUP3 PUSH2 0xB46 JUMP JUMPDEST PUSH1 0x0 PUSH1 0x20 DUP3 DUP5 SUB SLT ISZERO PUSH2 0xCAD JUMPI PUSH1 0x0 DUP1 REVERT JUMPDEST DUP2 MLOAD PUSH2 0xC79 DUP2 PUSH2 0xA7E JUMP JUMPDEST PUSH1 0x0 PUSH1 0x20 DUP3 DUP5 SUB SLT ISZERO PUSH2 0xCCA JUMPI PUSH1 0x0 DUP1 REVERT JUMPDEST DUP2 CALLDATALOAD DUP1 PUSH1 0x2 SIGNEXTEND DUP2 EQ PUSH2 0xC79 JUMPI PUSH1 0x0 DUP1 REVERT JUMPDEST DUP1 MLOAD PUSH1 0x1 PUSH1 0x1 PUSH1 0x80 SHL SUB DUP2 AND DUP2 EQ PUSH2 0xB59 JUMPI PUSH1 0x0 DUP1 REVERT JUMPDEST PUSH1 0x0 DUP1 PUSH1 0x0 DUP1 PUSH1 0x0 PUSH1 0xA0 DUP7 DUP9 SUB SLT ISZERO PUSH2 0xD0A JUMPI PUSH1 0x0 DUP1 REVERT JUMPDEST PUSH2 0xD13 DUP7 PUSH2 0xCDB JUMP JUMPDEST SWAP5 POP PUSH1 0x20 DUP7 ADD MLOAD SWAP4 POP PUSH1 0x40 DUP7 ADD MLOAD SWAP3 POP PUSH2 0xD2F PUSH1 0x60 DUP8 ADD PUSH2 0xCDB JUMP JUMPDEST SWAP2 POP PUSH2 0xD3D PUSH1 0x80 DUP8 ADD PUSH2 0xCDB JUMP JUMPDEST SWAP1 POP SWAP3 SWAP6 POP SWAP3 SWAP6 SWAP1 SWAP4 POP JUMP JUMPDEST PUSH1 0x0 PUSH1 0x20 DUP3 DUP5 SUB SLT ISZERO PUSH2 0xD5B JUMPI PUSH1 0x0 DUP1 REVERT JUMPDEST DUP2 CALLDATALOAD PUSH8 0xFFFFFFFFFFFFFFFF DUP1 DUP3 GT ISZERO PUSH2 0xD73 JUMPI PUSH1 0x0 DUP1 REVERT JUMPDEST SWAP1 DUP4 ADD SWAP1 PUSH1 0x40 DUP3 DUP7 SUB SLT ISZERO PUSH2 0xD87 JUMPI PUSH1 0x0 DUP1 REVERT JUMPDEST PUSH1 0x40 MLOAD PUSH1 0x40 DUP2 ADD DUP2 DUP2 LT DUP4 DUP3 GT OR ISZERO PUSH2 0xDA2 JUMPI PUSH2 0xDA2 PUSH2 0x9DB JUMP JUMPDEST PUSH1 0x40 MSTORE DUP3 CALLDATALOAD DUP3 DUP2 GT ISZERO PUSH2 0xDB4 JUMPI PUSH1 0x0 DUP1 REVERT JUMPDEST PUSH2 0xDC0 DUP8 DUP3 DUP7 ADD PUSH2 0x9F1 JUMP JUMPDEST DUP3 MSTORE POP PUSH1 0x20 DUP4 ADD CALLDATALOAD SWAP3 POP PUSH2 0xDD3 DUP4 PUSH2 0xA7E JUMP JUMPDEST PUSH1 0x20 DUP2 ADD SWAP3 SWAP1 SWAP3 MSTORE POP SWAP4 SWAP3 POP POP POP JUMP JUMPDEST PUSH4 0x4E487B71 PUSH1 0xE0 SHL PUSH1 0x0 MSTORE PUSH1 0x11 PUSH1 0x4 MSTORE PUSH1 0x24 PUSH1 0x0 REVERT JUMPDEST DUP1 DUP3 ADD DUP1 DUP3 GT ISZERO PUSH2 0x5EC JUMPI PUSH2 0x5EC PUSH2 0xDE3 JUMP JUMPDEST PUSH1 0x1 PUSH1 0x1 PUSH1 0xA0 SHL SUB DUP3 DUP2 AND DUP3 DUP3 AND SUB SWAP1 DUP1 DUP3 GT ISZERO PUSH2 0xE2C JUMPI PUSH2 0xE2C PUSH2 0xDE3 JUMP JUMPDEST POP SWAP3 SWAP2 POP POP JUMP JUMPDEST PUSH1 0x1 PUSH1 0x1 PUSH1 0xA0 SHL SUB DUP2 DUP2 AND DUP4 DUP3 AND ADD SWAP1 DUP1 DUP3 GT ISZERO PUSH2 0xE2C JUMPI PUSH2 0xE2C PUSH2 0xDE3 JUMP JUMPDEST PUSH1 0x0 DUP2 MLOAD DUP1 DUP5 MSTORE PUSH1 0x0 JUMPDEST DUP2 DUP2 LT ISZERO PUSH2 0xE79 JUMPI PUSH1 0x20 DUP2 DUP6 ADD DUP2 ADD MLOAD DUP7 DUP4 ADD DUP3 ADD MSTORE ADD PUSH2 0xE5D JUMP JUMPDEST POP PUSH1 0x0 PUSH1 0x20 DUP3 DUP7 ADD ADD MSTORE PUSH1 0x20 PUSH1 0x1F NOT PUSH1 0x1F DUP4 ADD AND DUP6 ADD ADD SWAP2 POP POP SWAP3 SWAP2 POP POP JUMP JUMPDEST PUSH1 0x20 DUP2 MSTORE PUSH1 0x0 DUP3 MLOAD PUSH1 0x40 PUSH1 0x20 DUP5 ADD MSTORE PUSH2 0xEB5 PUSH1 0x60 DUP5 ADD DUP3 PUSH2 0xE53 JUMP JUMPDEST PUSH1 0x20 SWAP5 SWAP1 SWAP5 ADD MLOAD PUSH1 0x1 PUSH1 0x1 PUSH1 0xA0 SHL SUB AND PUSH1 0x40 SWAP4 SWAP1 SWAP4 ADD SWAP3 SWAP1 SWAP3 MSTORE POP SWAP1 SWAP2 SWAP1 POP JUMP JUMPDEST PUSH1 0x1 PUSH1 0x1 PUSH1 0xA0 SHL SUB DUP7 DUP2 AND DUP3 MSTORE DUP6 ISZERO ISZERO PUSH1 0x20 DUP4 ADD MSTORE PUSH1 0x40 DUP3 ADD DUP6 SWAP1 MSTORE DUP4 AND PUSH1 0x60 DUP3 ADD MSTORE PUSH1 0xA0 PUSH1 0x80 DUP3 ADD DUP2 SWAP1 MSTORE PUSH1 0x0 SWAP1 PUSH2 0xF11 SWAP1 DUP4 ADD DUP5 PUSH2 0xE53 JUMP JUMPDEST SWAP8 SWAP7 POP POP POP POP POP POP POP JUMP JUMPDEST PUSH1 0x0 DUP1 PUSH1 0x40 DUP4 DUP6 SUB SLT ISZERO PUSH2 0xF2F JUMPI PUSH1 0x0 DUP1 REVERT JUMPDEST POP POP DUP1 MLOAD PUSH1 0x20 SWAP1 SWAP2 ADD MLOAD SWAP1 SWAP3 SWAP1 SWAP2 POP JUMP JUMPDEST PUSH1 0x0 PUSH1 0x1 PUSH1 0xFF SHL DUP3 ADD PUSH2 0xF55 JUMPI PUSH2 0xF55 PUSH2 0xDE3 JUMP JUMPDEST POP PUSH1 0x0 SUB SWAP1 JUMP JUMPDEST DUP2 DUP2 SUB DUP2 DUP2 GT ISZERO PUSH2 0x5EC JUMPI PUSH2 0x5EC PUSH2 0xDE3 JUMP INVALID LOG2 PUSH5 0x6970667358 0x22 SLT KECCAK256 PUSH11 0x90DC9243501D5F86B4477A EXTCODESIZE PUSH15 0x8BD6987A6D8EB47120CF4A64F059EE KECCAK256 EQ DELEGATECALL PUSH5 0x736F6C6343 STOP ADDMOD EQ STOP CALLER ",
    "sha1": "e0ce388115794943442b5aa64fbc1553253d3c18",
    "source": "// SPDX-License-Identifier: UNLICENSED\npragma solidity ^0.8.14;\n\nimport \"./PoolFactory.sol\";\nimport \"./HelpFunctions.sol\";\n\nimport \"../interface_contracts/IERC20.sol\";\nimport \"../interface_contracts/IUniswapV3Pool.sol\";\nimport \"../interface_contracts/IUniswapV3Manager.sol\";\n\nimport \"./lib/Path.sol\";\nimport \"./lib/PoolAddress.sol\";\nimport \"./lib/TickMath.sol\";\n\ncontract SwapManager is IUniswapV3Manager {\n    using Path for bytes;\n\n    event Log(string message, uint24 data);\n\n    address public immutable factory;\n\n    PoolFactory poolfactory;\n\n    /*\n    Constructor\n    */\n    constructor(address factory_) {\n        factory = factory_;\n        poolfactory = PoolFactory(factory);\n    }\n\n    /*\n    Public \n    */\n    /// @notice makes a single pool swap\n    ///  An array with the following parameters:\n    ///             tokenIn: the token we want to sell to the pool\n    ///             tokenOut: the token we want to buy from the pool\n    ///             fee: the fee of the pool in which we will swap\n    ///             amountIn: amount of the token we want to sell\n    ///             sqrtPriceLimitX96: how much we are willing to allow for price slippage SQRTP*sqrt(slippage)\n    /// @dev cannot be used unless the pool exists\n    function swapSingle(\n        address tokenIn,\n        address tokenOut,\n        uint24 fee,\n        uint256 amountIn,\n        uint160 sqrtPriceLimitX96\n    ) public returns (uint256 amountOut) {\n\n        amountOut = _swap(\n            amountIn,\n            msg.sender,\n            sqrtPriceLimitX96,\n            SwapCallbackData({\n                path: abi.encodePacked(\n                    tokenIn,\n                    fee,\n                    tokenOut\n                ),\n                payer: msg.sender\n            })\n        );\n    }\n\n    /// @notice makes multiple-pool swaps\n    /// @param params: an array with the following parameters:\n    ///             path: the hex code of the pool paths that are part of the multi-swap\n    ///             recipient: who will receive the tokens\n    ///             amountIn: the amount of tokens we want to sell\n    ///             minAmountOut: the minimum amount of tokens we are willing to receive\n    /// @dev should only be used if there is no direct trade pool\n    function swapMulti(\n        SwapParams memory params\n    ) public returns (uint256 amountOut) {\n        address payer = msg.sender;\n        bool hasMultiplePools;\n\n        while (true) {\n            hasMultiplePools = params.path.hasMultiplePools();\n\n            params.amountIn = _swap(\n                params.amountIn,\n                hasMultiplePools ? address(this) : params.recipient,\n                0,\n                SwapCallbackData({\n                    path: params.path.getFirstPool(),\n                    payer: payer\n                })\n            );\n\n            if (hasMultiplePools) {\n                payer = address(this);\n                params.path = params.path.skipToken();\n            } else {\n                amountOut = params.amountIn;\n                break;\n            }\n        }\n\n        if (amountOut < params.minAmountOut)\n            revert HelpFunctions.TooLittleReceived(amountOut);\n    }\n\n    function uniswapV3SwapCallback(\n        int256 amount0,\n        int256 amount1,\n        bytes calldata data_\n    ) public {\n        SwapCallbackData memory data = abi.decode(data_, (SwapCallbackData));\n        (address tokenIn, address tokenOut, ) = data.path.decodeFirstPool();\n\n        bool zeroForOne = tokenIn < tokenOut;\n\n        int256 amount = zeroForOne ? amount0 : amount1;\n\n        if (data.payer == address(this)) {\n            IERC20(tokenIn).transfer(msg.sender, uint256(amount));\n        } else {\n            IERC20(tokenIn).transferFrom(\n                data.payer,\n                msg.sender,\n                uint256(amount)\n            );\n        }\n    }\n\n    /*\n    Public - View\n     */\n    function getPosition(\n        GetPositionParams calldata params\n    )\n        public\n        view\n        returns (\n            uint128 liquidity,\n            uint256 feeGrowthInside0LastX128,\n            uint256 feeGrowthInside1LastX128,\n            uint128 tokensOwed0,\n            uint128 tokensOwed1\n        )\n    {\n        IUniswapV3Pool pool = HelpFunctions._getPool(\n            factory,\n            params.tokenA,\n            params.tokenB,\n            params.fee\n        );\n\n        (\n            liquidity,\n            feeGrowthInside0LastX128,\n            feeGrowthInside1LastX128,\n            tokensOwed0,\n            tokensOwed1\n        ) = pool.positions(\n            keccak256(\n                abi.encodePacked(\n                    params.owner,\n                    params.lowerTick,\n                    params.upperTick\n                )\n            )\n        );\n    }\n\n    /*\n    Internal\n    */\n    /// @notice helper function for both single and multi swaps\n    /// @param amountIn: amount of token to sell\n    /// @param recipient: who will receive the bought tokens\n    /// @param sqrtPriceLimitX96: maximum price deviation\n    function _swap(\n        uint256 amountIn,\n        address recipient,\n        uint160 sqrtPriceLimitX96,\n        SwapCallbackData memory data\n    ) internal returns (uint256 amountOut) {\n       \n        (address tokenIn, address tokenOut, uint24 fee) = data\n            .path\n            .decodeFirstPool();\n        \n        bool zeroForOne = tokenIn < tokenOut;\n        \n        (int256 amount0, int256 amount1) = \n            IUniswapV3Pool(poolfactory.pools(\n            tokenIn,\n            tokenOut,\n            fee\n        )).swap(\n                recipient,\n                zeroForOne,\n                amountIn,\n                sqrtPriceLimitX96 == 0\n                    ? (\n                        zeroForOne\n                            ? TickMath.MIN_SQRT_RATIO + 1\n                            : TickMath.MAX_SQRT_RATIO - 1\n                    )\n                    : sqrtPriceLimitX96,\n                abi.encode(data)\n            );\n        \n        amountOut = uint256(-(zeroForOne ? amount1 : amount0));\n    }\n}\n",
    "sourcePath": "contracts/SwapManager.sol",
    "type": "contract"
}